{
  "_format": "hh-sol-artifact-1",
  "contractName": "CollateralManager",
  "sourceName": "contracts/CollateralManager.sol",
  "abi": [
    {
      "inputs": [
        {
          "internalType": "address",
          "name": "_securityModule",
          "type": "address"
        },
        {
          "internalType": "address",
          "name": "_feeCollector",
          "type": "address"
        },
        {
          "internalType": "address",
          "name": "_vault",
          "type": "address"
        }
      ],
      "stateMutability": "nonpayable",
      "type": "constructor"
    },
    {
      "inputs": [],
      "name": "CollateralLimitExceeded",
      "type": "error"
    },
    {
      "inputs": [
        {
          "internalType": "uint256",
          "name": "requested",
          "type": "uint256"
        },
        {
          "internalType": "uint256",
          "name": "available",
          "type": "uint256"
        }
      ],
      "name": "InsufficientCollateral",
      "type": "error"
    },
    {
      "inputs": [],
      "name": "InvalidAddress",
      "type": "error"
    },
    {
      "inputs": [],
      "name": "InvalidAmount",
      "type": "error"
    },
    {
      "inputs": [],
      "name": "ReentrancyGuardReentrantCall",
      "type": "error"
    },
    {
      "inputs": [],
      "name": "SystemPaused",
      "type": "error"
    },
    {
      "inputs": [],
      "name": "TransferFailed",
      "type": "error"
    },
    {
      "inputs": [],
      "name": "Unauthorized",
      "type": "error"
    },
    {
      "inputs": [],
      "name": "UnsupportedToken",
      "type": "error"
    },
    {
      "inputs": [],
      "name": "WithdrawalLimitExceeded",
      "type": "error"
    },
    {
      "anonymous": false,
      "inputs": [
        {
          "indexed": true,
          "internalType": "address",
          "name": "trader",
          "type": "address"
        },
        {
          "indexed": false,
          "internalType": "uint256",
          "name": "amount",
          "type": "uint256"
        }
      ],
      "name": "CollateralDeposited",
      "type": "event"
    },
    {
      "anonymous": false,
      "inputs": [
        {
          "indexed": true,
          "internalType": "address",
          "name": "trader",
          "type": "address"
        },
        {
          "indexed": false,
          "internalType": "uint256",
          "name": "amount",
          "type": "uint256"
        }
      ],
      "name": "CollateralLocked",
      "type": "event"
    },
    {
      "anonymous": false,
      "inputs": [
        {
          "indexed": true,
          "internalType": "address",
          "name": "trader",
          "type": "address"
        },
        {
          "indexed": false,
          "internalType": "uint256",
          "name": "amount",
          "type": "uint256"
        },
        {
          "indexed": false,
          "internalType": "int256",
          "name": "pnl",
          "type": "int256"
        }
      ],
      "name": "CollateralUnlocked",
      "type": "event"
    },
    {
      "anonymous": false,
      "inputs": [
        {
          "indexed": true,
          "internalType": "address",
          "name": "trader",
          "type": "address"
        },
        {
          "indexed": false,
          "internalType": "uint256",
          "name": "amount",
          "type": "uint256"
        }
      ],
      "name": "CollateralWithdrawn",
      "type": "event"
    },
    {
      "anonymous": false,
      "inputs": [
        {
          "indexed": true,
          "internalType": "address",
          "name": "oldCollector",
          "type": "address"
        },
        {
          "indexed": true,
          "internalType": "address",
          "name": "newCollector",
          "type": "address"
        }
      ],
      "name": "FeeCollectorUpdated",
      "type": "event"
    },
    {
      "anonymous": false,
      "inputs": [
        {
          "indexed": true,
          "internalType": "address",
          "name": "liquidator",
          "type": "address"
        },
        {
          "indexed": false,
          "internalType": "uint256",
          "name": "amount",
          "type": "uint256"
        }
      ],
      "name": "LiquidatorRewarded",
      "type": "event"
    },
    {
      "anonymous": false,
      "inputs": [
        {
          "indexed": false,
          "internalType": "uint256",
          "name": "oldMax",
          "type": "uint256"
        },
        {
          "indexed": false,
          "internalType": "uint256",
          "name": "newMax",
          "type": "uint256"
        }
      ],
      "name": "MaxCollateralUpdated",
      "type": "event"
    },
    {
      "anonymous": false,
      "inputs": [
        {
          "indexed": true,
          "internalType": "address",
          "name": "previousOwner",
          "type": "address"
        },
        {
          "indexed": true,
          "internalType": "address",
          "name": "newOwner",
          "type": "address"
        }
      ],
      "name": "OwnershipTransferred",
      "type": "event"
    },
    {
      "anonymous": false,
      "inputs": [
        {
          "indexed": false,
          "internalType": "uint256",
          "name": "amount",
          "type": "uint256"
        }
      ],
      "name": "ProtocolFeeCollected",
      "type": "event"
    },
    {
      "anonymous": false,
      "inputs": [
        {
          "indexed": true,
          "internalType": "address",
          "name": "oldModule",
          "type": "address"
        },
        {
          "indexed": true,
          "internalType": "address",
          "name": "newModule",
          "type": "address"
        }
      ],
      "name": "SecurityModuleUpdated",
      "type": "event"
    },
    {
      "anonymous": false,
      "inputs": [
        {
          "indexed": true,
          "internalType": "address",
          "name": "token",
          "type": "address"
        },
        {
          "indexed": false,
          "internalType": "uint256",
          "name": "valueMultiplier",
          "type": "uint256"
        }
      ],
      "name": "TokenAdded",
      "type": "event"
    },
    {
      "anonymous": false,
      "inputs": [
        {
          "indexed": true,
          "internalType": "address",
          "name": "trader",
          "type": "address"
        },
        {
          "indexed": true,
          "internalType": "address",
          "name": "token",
          "type": "address"
        },
        {
          "indexed": false,
          "internalType": "uint256",
          "name": "amount",
          "type": "uint256"
        }
      ],
      "name": "TokenCollateralDeposited",
      "type": "event"
    },
    {
      "anonymous": false,
      "inputs": [
        {
          "indexed": true,
          "internalType": "address",
          "name": "trader",
          "type": "address"
        },
        {
          "indexed": true,
          "internalType": "address",
          "name": "token",
          "type": "address"
        },
        {
          "indexed": false,
          "internalType": "uint256",
          "name": "amount",
          "type": "uint256"
        }
      ],
      "name": "TokenCollateralLocked",
      "type": "event"
    },
    {
      "anonymous": false,
      "inputs": [
        {
          "indexed": true,
          "internalType": "address",
          "name": "trader",
          "type": "address"
        },
        {
          "indexed": true,
          "internalType": "address",
          "name": "token",
          "type": "address"
        },
        {
          "indexed": false,
          "internalType": "uint256",
          "name": "amount",
          "type": "uint256"
        },
        {
          "indexed": false,
          "internalType": "int256",
          "name": "pnl",
          "type": "int256"
        }
      ],
      "name": "TokenCollateralUnlocked",
      "type": "event"
    },
    {
      "anonymous": false,
      "inputs": [
        {
          "indexed": true,
          "internalType": "address",
          "name": "trader",
          "type": "address"
        },
        {
          "indexed": true,
          "internalType": "address",
          "name": "token",
          "type": "address"
        },
        {
          "indexed": false,
          "internalType": "uint256",
          "name": "amount",
          "type": "uint256"
        }
      ],
      "name": "TokenCollateralWithdrawn",
      "type": "event"
    },
    {
      "anonymous": false,
      "inputs": [
        {
          "indexed": true,
          "internalType": "address",
          "name": "token",
          "type": "address"
        },
        {
          "indexed": false,
          "internalType": "uint256",
          "name": "oldMax",
          "type": "uint256"
        },
        {
          "indexed": false,
          "internalType": "uint256",
          "name": "newMax",
          "type": "uint256"
        }
      ],
      "name": "TokenMaxCollateralUpdated",
      "type": "event"
    },
    {
      "anonymous": false,
      "inputs": [
        {
          "indexed": true,
          "internalType": "address",
          "name": "token",
          "type": "address"
        }
      ],
      "name": "TokenRemoved",
      "type": "event"
    },
    {
      "anonymous": false,
      "inputs": [
        {
          "indexed": true,
          "internalType": "address",
          "name": "token",
          "type": "address"
        },
        {
          "indexed": false,
          "internalType": "uint256",
          "name": "oldMultiplier",
          "type": "uint256"
        },
        {
          "indexed": false,
          "internalType": "uint256",
          "name": "newMultiplier",
          "type": "uint256"
        }
      ],
      "name": "TokenValueMultiplierUpdated",
      "type": "event"
    },
    {
      "anonymous": false,
      "inputs": [
        {
          "indexed": true,
          "internalType": "address",
          "name": "oldVault",
          "type": "address"
        },
        {
          "indexed": true,
          "internalType": "address",
          "name": "newVault",
          "type": "address"
        }
      ],
      "name": "VaultUpdated",
      "type": "event"
    },
    {
      "inputs": [
        {
          "internalType": "address",
          "name": "token",
          "type": "address"
        },
        {
          "internalType": "uint256",
          "name": "valueMultiplier",
          "type": "uint256"
        },
        {
          "internalType": "uint256",
          "name": "maxAmount",
          "type": "uint256"
        }
      ],
      "name": "addSupportedToken",
      "outputs": [],
      "stateMutability": "nonpayable",
      "type": "function"
    },
    {
      "inputs": [
        {
          "internalType": "address",
          "name": "",
          "type": "address"
        }
      ],
      "name": "collateralBalances",
      "outputs": [
        {
          "internalType": "uint256",
          "name": "",
          "type": "uint256"
        }
      ],
      "stateMutability": "view",
      "type": "function"
    },
    {
      "inputs": [
        {
          "internalType": "address",
          "name": "",
          "type": "address"
        }
      ],
      "name": "collateralValueMultiplier",
      "outputs": [
        {
          "internalType": "uint256",
          "name": "",
          "type": "uint256"
        }
      ],
      "stateMutability": "view",
      "type": "function"
    },
    {
      "inputs": [
        {
          "internalType": "uint256",
          "name": "amount",
          "type": "uint256"
        }
      ],
      "name": "collectProtocolFee",
      "outputs": [],
      "stateMutability": "nonpayable",
      "type": "function"
    },
    {
      "inputs": [],
      "name": "depositCollateral",
      "outputs": [],
      "stateMutability": "payable",
      "type": "function"
    },
    {
      "inputs": [
        {
          "internalType": "address",
          "name": "token",
          "type": "address"
        },
        {
          "internalType": "uint256",
          "name": "amount",
          "type": "uint256"
        }
      ],
      "name": "depositTokenCollateral",
      "outputs": [],
      "stateMutability": "nonpayable",
      "type": "function"
    },
    {
      "inputs": [],
      "name": "feeCollector",
      "outputs": [
        {
          "internalType": "address",
          "name": "",
          "type": "address"
        }
      ],
      "stateMutability": "view",
      "type": "function"
    },
    {
      "inputs": [
        {
          "internalType": "address",
          "name": "trader",
          "type": "address"
        }
      ],
      "name": "getAvailableCollateral",
      "outputs": [
        {
          "internalType": "uint256",
          "name": "",
          "type": "uint256"
        }
      ],
      "stateMutability": "view",
      "type": "function"
    },
    {
      "inputs": [
        {
          "internalType": "address",
          "name": "trader",
          "type": "address"
        },
        {
          "internalType": "address",
          "name": "token",
          "type": "address"
        }
      ],
      "name": "getAvailableTokenCollateral",
      "outputs": [
        {
          "internalType": "uint256",
          "name": "",
          "type": "uint256"
        }
      ],
      "stateMutability": "view",
      "type": "function"
    },
    {
      "inputs": [],
      "name": "getSupportedTokens",
      "outputs": [
        {
          "internalType": "address[]",
          "name": "",
          "type": "address[]"
        }
      ],
      "stateMutability": "view",
      "type": "function"
    },
    {
      "inputs": [
        {
          "internalType": "address",
          "name": "trader",
          "type": "address"
        }
      ],
      "name": "getTotalCollateral",
      "outputs": [
        {
          "internalType": "uint256",
          "name": "",
          "type": "uint256"
        }
      ],
      "stateMutability": "view",
      "type": "function"
    },
    {
      "inputs": [
        {
          "internalType": "address",
          "name": "trader",
          "type": "address"
        }
      ],
      "name": "getTotalCollateralValue",
      "outputs": [
        {
          "internalType": "uint256",
          "name": "",
          "type": "uint256"
        }
      ],
      "stateMutability": "view",
      "type": "function"
    },
    {
      "inputs": [
        {
          "internalType": "address",
          "name": "trader",
          "type": "address"
        },
        {
          "internalType": "uint256",
          "name": "amount",
          "type": "uint256"
        }
      ],
      "name": "lockCollateral",
      "outputs": [],
      "stateMutability": "nonpayable",
      "type": "function"
    },
    {
      "inputs": [
        {
          "internalType": "address",
          "name": "trader",
          "type": "address"
        },
        {
          "internalType": "address",
          "name": "token",
          "type": "address"
        },
        {
          "internalType": "uint256",
          "name": "amount",
          "type": "uint256"
        }
      ],
      "name": "lockTokenCollateral",
      "outputs": [],
      "stateMutability": "nonpayable",
      "type": "function"
    },
    {
      "inputs": [
        {
          "internalType": "address",
          "name": "",
          "type": "address"
        }
      ],
      "name": "lockedCollateral",
      "outputs": [
        {
          "internalType": "uint256",
          "name": "",
          "type": "uint256"
        }
      ],
      "stateMutability": "view",
      "type": "function"
    },
    {
      "inputs": [
        {
          "internalType": "address",
          "name": "",
          "type": "address"
        },
        {
          "internalType": "address",
          "name": "",
          "type": "address"
        }
      ],
      "name": "lockedTokenCollateral",
      "outputs": [
        {
          "internalType": "uint256",
          "name": "",
          "type": "uint256"
        }
      ],
      "stateMutability": "view",
      "type": "function"
    },
    {
      "inputs": [],
      "name": "maxCollateralPerUser",
      "outputs": [
        {
          "internalType": "uint256",
          "name": "",
          "type": "uint256"
        }
      ],
      "stateMutability": "view",
      "type": "function"
    },
    {
      "inputs": [],
      "name": "owner",
      "outputs": [
        {
          "internalType": "address",
          "name": "",
          "type": "address"
        }
      ],
      "stateMutability": "view",
      "type": "function"
    },
    {
      "inputs": [
        {
          "internalType": "address",
          "name": "token",
          "type": "address"
        }
      ],
      "name": "removeSupportedToken",
      "outputs": [],
      "stateMutability": "nonpayable",
      "type": "function"
    },
    {
      "inputs": [
        {
          "internalType": "address",
          "name": "liquidator",
          "type": "address"
        },
        {
          "internalType": "uint256",
          "name": "amount",
          "type": "uint256"
        }
      ],
      "name": "rewardLiquidator",
      "outputs": [],
      "stateMutability": "nonpayable",
      "type": "function"
    },
    {
      "inputs": [],
      "name": "securityModule",
      "outputs": [
        {
          "internalType": "address",
          "name": "",
          "type": "address"
        }
      ],
      "stateMutability": "view",
      "type": "function"
    },
    {
      "inputs": [
        {
          "internalType": "uint256",
          "name": "_maxCollateral",
          "type": "uint256"
        }
      ],
      "name": "setMaxCollateralPerUser",
      "outputs": [],
      "stateMutability": "nonpayable",
      "type": "function"
    },
    {
      "inputs": [
        {
          "internalType": "address",
          "name": "",
          "type": "address"
        }
      ],
      "name": "supportedCollateral",
      "outputs": [
        {
          "internalType": "bool",
          "name": "",
          "type": "bool"
        }
      ],
      "stateMutability": "view",
      "type": "function"
    },
    {
      "inputs": [
        {
          "internalType": "uint256",
          "name": "",
          "type": "uint256"
        }
      ],
      "name": "supportedTokens",
      "outputs": [
        {
          "internalType": "address",
          "name": "",
          "type": "address"
        }
      ],
      "stateMutability": "view",
      "type": "function"
    },
    {
      "inputs": [
        {
          "internalType": "address",
          "name": "",
          "type": "address"
        },
        {
          "internalType": "address",
          "name": "",
          "type": "address"
        }
      ],
      "name": "tokenCollateral",
      "outputs": [
        {
          "internalType": "uint256",
          "name": "",
          "type": "uint256"
        }
      ],
      "stateMutability": "view",
      "type": "function"
    },
    {
      "inputs": [
        {
          "internalType": "address",
          "name": "",
          "type": "address"
        }
      ],
      "name": "tokenMaxCollateral",
      "outputs": [
        {
          "internalType": "uint256",
          "name": "",
          "type": "uint256"
        }
      ],
      "stateMutability": "view",
      "type": "function"
    },
    {
      "inputs": [],
      "name": "totalCollateral",
      "outputs": [
        {
          "internalType": "uint256",
          "name": "",
          "type": "uint256"
        }
      ],
      "stateMutability": "view",
      "type": "function"
    },
    {
      "inputs": [],
      "name": "totalLockedCollateral",
      "outputs": [
        {
          "internalType": "uint256",
          "name": "",
          "type": "uint256"
        }
      ],
      "stateMutability": "view",
      "type": "function"
    },
    {
      "inputs": [
        {
          "internalType": "address",
          "name": "newOwner",
          "type": "address"
        }
      ],
      "name": "transferOwnership",
      "outputs": [],
      "stateMutability": "nonpayable",
      "type": "function"
    },
    {
      "inputs": [
        {
          "internalType": "address",
          "name": "trader",
          "type": "address"
        },
        {
          "internalType": "uint256",
          "name": "amount",
          "type": "uint256"
        },
        {
          "internalType": "int256",
          "name": "pnl",
          "type": "int256"
        }
      ],
      "name": "unlockCollateral",
      "outputs": [],
      "stateMutability": "nonpayable",
      "type": "function"
    },
    {
      "inputs": [
        {
          "internalType": "address",
          "name": "trader",
          "type": "address"
        },
        {
          "internalType": "address",
          "name": "token",
          "type": "address"
        },
        {
          "internalType": "uint256",
          "name": "amount",
          "type": "uint256"
        },
        {
          "internalType": "int256",
          "name": "pnl",
          "type": "int256"
        }
      ],
      "name": "unlockTokenCollateral",
      "outputs": [],
      "stateMutability": "nonpayable",
      "type": "function"
    },
    {
      "inputs": [
        {
          "internalType": "address",
          "name": "_newFeeCollector",
          "type": "address"
        }
      ],
      "name": "updateFeeCollector",
      "outputs": [],
      "stateMutability": "nonpayable",
      "type": "function"
    },
    {
      "inputs": [
        {
          "internalType": "address",
          "name": "_newSecurityModule",
          "type": "address"
        }
      ],
      "name": "updateSecurityModule",
      "outputs": [],
      "stateMutability": "nonpayable",
      "type": "function"
    },
    {
      "inputs": [
        {
          "internalType": "address",
          "name": "token",
          "type": "address"
        },
        {
          "internalType": "uint256",
          "name": "maxAmount",
          "type": "uint256"
        }
      ],
      "name": "updateTokenMaxCollateral",
      "outputs": [],
      "stateMutability": "nonpayable",
      "type": "function"
    },
    {
      "inputs": [
        {
          "internalType": "address",
          "name": "token",
          "type": "address"
        },
        {
          "internalType": "uint256",
          "name": "valueMultiplier",
          "type": "uint256"
        }
      ],
      "name": "updateTokenValueMultiplier",
      "outputs": [],
      "stateMutability": "nonpayable",
      "type": "function"
    },
    {
      "inputs": [
        {
          "internalType": "address",
          "name": "_newVault",
          "type": "address"
        }
      ],
      "name": "updateVault",
      "outputs": [],
      "stateMutability": "nonpayable",
      "type": "function"
    },
    {
      "inputs": [],
      "name": "vault",
      "outputs": [
        {
          "internalType": "address",
          "name": "",
          "type": "address"
        }
      ],
      "stateMutability": "view",
      "type": "function"
    },
    {
      "inputs": [
        {
          "internalType": "uint256",
          "name": "amount",
          "type": "uint256"
        }
      ],
      "name": "withdrawCollateral",
      "outputs": [],
      "stateMutability": "nonpayable",
      "type": "function"
    },
    {
      "inputs": [
        {
          "internalType": "address",
          "name": "token",
          "type": "address"
        },
        {
          "internalType": "uint256",
          "name": "amount",
          "type": "uint256"
        }
      ],
      "name": "withdrawTokenCollateral",
      "outputs": [],
      "stateMutability": "nonpayable",
      "type": "function"
    }
  ],
  "bytecode": "0x6080346200010857601f6200222e38819003918201601f19168301916001600160401b038311848410176200010d5780849260609460405283398101031262000108576200004d8162000123565b620000696040620000616020850162000123565b930162000123565b6001600055683635c9adc5dea00000600e556001600160a01b039182169283158015620000fd575b8015620000f2575b620000e057829060018060a01b031994338660085416176008558560095416176009551683600a541617600a551690600b541617600b556040516120f59081620001398239f35b60405163e6c4247b60e01b8152600490fd5b508282161562000099565b508281161562000091565b600080fd5b634e487b7160e01b600052604160045260246000fd5b51906001600160a01b0382168203620001085756fe608060408181526004918236101561001657600080fd5b600092833560e01c9182630292eb4a14611d98575081630f5dd2da14611d3557816326fe078614611ce757816329bc969d1461184957816331e087b114611b56578163371f866b14611b1e578163380ef3fe14611af55781633a3d798c14611ad65781633b3362de14611a4a57816347a7d107146118ed5781634ac8eb5f146118ce57816351a7ebc21461188157816360a98b80146118495781636112fe2e146115ee5781636a53242c146115c05781636c648fc4146114df5781636f75814014611360578163763191901461122557816380b7eb1d146110575781638da5cb5b1461102e57816391a3ef8e14610fb557816392bdf9ba14610f7d578163b19c0e5d14610f5e578163bb69bc7114610f14578163c415b95c14610eeb578163c4708bdd14610d14578163c625562614610cd3578163cac5abfb14610c9b578163d1a7f80214610a7f578163d2c35ce814610a06578163d3c7c2c714610941578163da61fa3a14610898578163e7563f3f14610811578163edd9587b14610621578163ef74f21914610455578163f1271c32146102ce578163f2fde38b1461023a57508063fa550eba146101fd5763fbfa77cf146101d257600080fd5b346101f957816003193601126101f957600b5490516001600160a01b039091168152602090f35b5080fd5b50346101f95760203660031901126101f95760209160ff9082906001600160a01b03610227611f02565b1681526005855220541690519015158152f35b9050346102ca5760203660031901126102ca57610255611f02565b600854916001600160a01b0380841692338490036102bb57169384156102ae57505082907f8be0079c531659141344cd1fd0a4f28419497f9722a3daafe3b4186f6b6457e08580a36001600160a01b0319161760085580f35b5163e6c4247b60e01b8152fd5b85516282b42960e81b81528390fd5b8280fd5b919050346102ca57806003193601126102ca576102e9611f02565b906024359160018060a01b039384600954168560085416331415908161044a575b816103dd575b506103d0578482169485156103c15790869291600b541691823b156103b357845163743514b960e11b81529182018681526001600160a01b0390911660208201529091839183919082908490829060400103925af180156103b75761039f575b50507fae40228879ae46643c23b1e3f706a1bab8d094bab16d66bb268ec596eebc900e9160209151908152a280f35b6103a890611fb2565b6103b3578338610370565b8380fd5b83513d84823e3d90fd5b50825163e6c4247b60e01b8152fd5b82516282b42960e81b8152fd5b845163027cf93b60e31b815233848201529150602090829060249082905afa908115610440578791610412575b501538610310565b610433915060203d8111610439575b61042b8183611fdc565b810190611ffe565b3861040a565b503d610421565b84513d89823e3d90fd5b33811415915061030a565b919050346102ca5760603660031901126102ca57610471611f02565b60095460085460243592604435926001600160a01b0392831633141590831681610616575b816105b9575b506105aa57169384865260026020528386205480841161058e575050907f9ff9eb00e8a3750396b910359d7069d71db8002068955a103b3d064bc574d609929184865260026020528286206104f2838254611fa5565b905561050082600d54611fa5565b600d5585811315610541578486526001602052828620610521828254612016565b905561052f81600c54612016565b600c555b82519182526020820152a280f35b858112156105335761057e61055582612046565b86885260016020528488208054808311610586575b8261057491611fa5565b9055600c54611fa5565b600c55610533565b91508161056a565b9150916044935192632c1f8ef160e21b84528301526024820152fd5b84516282b42960e81b81528690fd5b865163027cf93b60e31b815233898201529150602090829060249082905afa90811561060c5788916105ee575b50153861049c565b610606915060203d81116104395761042b8183611fdc565b386105e6565b86513d8a823e3d90fd5b338114159150610496565b82843461080e57606036600319011261080e5761063c611f02565b6008546001600160a01b0393906044359060243590861633036107ff578584169384156107ef578486526005602052838620966001978860ff1982541617905560066020528285882055600f602052838588205586978791600754925b8381106107bb575b5050909192939495969715610711575b50505090837ff4c563a3ea86ff1f4275e8c207df0375a51963f2b831b7bf4da8be938d92876c602085947f8f7d98492fc007ecbda87c2529e776a304c9aa5155cb381384b75ab8822870109651908152a28151908582526020820152a280f35b680100000000000000008210156107a857869798509261079e7ff4c563a3ea86ff1f4275e8c207df0375a51963f2b831b7bf4da8be938d92876c9361077f847f8f7d98492fc007ecbda87c2529e776a304c9aa5155cb381384b75ab8822870109a9760209601600755611f33565b90919082549060031b9160018060a01b03809116831b921b1916179055565b92958897506106b1565b634e487b7160e01b885260418952602488fd5b88826107c683611f33565b90549060031b1c16146107e1576107dc90611f80565b610699565b509098508890508a806106a1565b835163e6c4247b60e01b81528890fd5b82516282b42960e81b81528790fd5b80fd5b9050346102ca5760203660031901126102ca5761082c611f02565b6008546001600160a01b039291908316330361088a5782169283156102ae575050600b54826001600160601b0360a01b821617600b55167f483bdedaaf23706a9800ac1af0d852b34927780d79f9d6ba60a80c7cad75ea398380a380f35b5082516282b42960e81b8152fd5b919050346102ca57806003193601126102ca576108b3611f02565b600854602435916001600160a01b039182163303610932571692838552600560205260ff8386205416156109245750907f3c8cc68f5c8ce24e52058ee386e41df4f7bbc9c01264f94826396b436ed582f291838552600660205281852090808254925582519182526020820152a280f35b825163350b944160e11b8152fd5b505050516282b42960e81b8152fd5b82843461080e578060031936011261080e579080519182906007549182855260208095018093600784527fa66cc928b5edb82af9bd49922954155ab7b0942694bea4ce44661d9a8736c68890845b8181106109e957505050816109a5910382611fdc565b83519485948186019282875251809352850193925b8281106109c957505050500390f35b83516001600160a01b0316855286955093810193928101926001016109ba565b82546001600160a01b03168452928801926001928301920161098f565b9050346102ca5760203660031901126102ca57610a21611f02565b6008546001600160a01b039291908316330361088a5782169283156102ae575050600a54826001600160601b0360a01b821617600a55167f5d16ad41baeb009cd23eb8f6c7cde5c2e0cd5acf4a33926ab488875c37c37f388380a380f35b8383346101f95760803660031901126101f957610a9a611f02565b92610aa3611f1d565b6009546008546001600160a01b0394926044359260643592871633141590871681610c90575b81610c33575b50610932578516948587526020976005895260ff858920541615610c2357169384875280885283872086600052885283600020548311610bf257968697857fc52ab7b19e1be6b33571f61840ef77974f83a0d5115baed2156cf51913191a4896979852815283882087600052815283600020610b4c848254611fa5565b905587821315610b84578588526003815283882087600052815283600020610b75838254612016565b90555b8351928352820152a380f35b87821215610b7857610b9582612046565b8689526003825284892088600052825284600020548111610bd7575b86895260038252848920886000528252610bd085600020918254611fa5565b9055610b78565b50858852600381528388208760005281528360002054610bb1565b9360449591508387899281528683522091600052528160002054915192632c1f8ef160e21b84528301526024820152fd5b845163350b944160e11b81528690fd5b855163027cf93b60e31b815233888201529150602090829060249082905afa908115610c86578891610c68575b501589610acf565b610c80915060203d81116104395761042b8183611fdc565b89610c60565b85513d8a823e3d90fd5b338114159150610ac9565b5050346101f95760203660031901126101f95760209181906001600160a01b03610cc3611f02565b168152600f845220549051908152f35b9050346102ca5760203660031901126102ca57359160075483101561080e5750610cfe602092611f33565b905491519160018060a01b039160031b1c168152f35b919050346102ca57806003193601126102ca57610d2f611f02565b6009548251635c975abb60e01b81526024359360209390926001600160a01b039290859082908990829087165afa908115610ee1578891610ec4575b50610eb457610d78612023565b16938486526005835260ff828720541615610ea65733865260038352818620856000528352610dbf8260002054338852828552838820876000528552836000205490611fa5565b848110610e8c57503386526003835281862085600052835281600020610de6858254611fa5565b9055815163a9059cbb60e01b8152338282019081526020810186905284908290819060400103818a8a5af1908115610e82578791610e65575b5015610e575750907f0c3ba12546add9cbc9837fa92f98be62e2c8f42f476f15d5210a0b0ec90737e591519283523392a36001815580f35b90516312171d8360e31b8152fd5b610e7c9150843d86116104395761042b8183611fdc565b38610e1f565b83513d89823e3d90fd5b846044935192632c1f8ef160e21b84528301526024820152fd5b905163350b944160e11b8152fd5b82516301ca793160e61b81528690fd5b610edb9150853d87116104395761042b8183611fdc565b38610d6b565b84513d8a823e3d90fd5b5050346101f957816003193601126101f957600a5490516001600160a01b039091168152602090f35b5050346101f95760203660031901126101f957602091610f57906001600160a01b03610f3e611f02565b1681526001845282808220549160028652205490611fa5565b9051908152f35b5050346101f957816003193601126101f957602090600d549051908152f35b5050346101f95760203660031901126101f95760209181906001600160a01b03610fa5611f02565b1681526002845220549051908152f35b9050346102ca5760203660031901126102ca57610fd0611f02565b6008546001600160a01b039291908316330361088a5782169283156102ae575050600954826001600160601b0360a01b821617600955167f9261756417ba2a99d4ba8e96f1e45b7b17e5ebeee305c9d44945ce6f46d737348380a380f35b5050346101f957816003193601126101f95760085490516001600160a01b039091168152602090f35b9050346102ca5760603660031901126102ca57611072611f02565b9161107b611f1d565b906044359060018060a01b0380600954169381600854163314158061121b575b806111cd575b6111be5782518095635c975abb60e01b8252818860209889935afa9081156111b4578991611197575b50610eb4578116958688526005855260ff838920541615611187571693848752600384528187208660005284526111198260002054868952828652838920886000528652836000205490611fa5565b83811061116d5750907f961e000490f4ba28998087678510e0d3c23f96ff8367d0e07792590f41554c11939291858852835280872086600052835280600020611163838254612016565b905551908152a380f35b836044935192632c1f8ef160e21b84528301526024820152fd5b825163350b944160e11b81528690fd5b6111ae9150863d88116104395761042b8183611fdc565b386110ca565b84513d8b823e3d90fd5b82516282b42960e81b81528690fd5b50825163027cf93b60e31b81523387820152602081602481895afa9081156111b45789916111fd575b50156110a1565b611215915060203d81116104395761042b8183611fdc565b386111f6565b508433141561109b565b919050346102ca5760203660031901126102ca57611241611f02565b6008546001600160a01b039190821633036113525781168085526005602052918420805460ff19169055835b6007805480831015611347579083918561128685611f33565b949054600395861b1c16146112a6575050506112a190611f80565b61126d565b91949590939260001992838101908111611334579061077f856112cb6112d894611f33565b9054908a1b1c1691611f33565b8354908115611321575001926112ed84611f33565b81939154921b1b19169055555b7f4c910b69fe65a61f7531b9c5042b2329ca7179c77290aa7e2eb3afa3c8511fd38280a280f35b634e487b7160e01b885260319052602487fd5b634e487b7160e01b895260118352602489fd5b5050505090506112fa565b5050516282b42960e81b8152fd5b919050826003193601126102ca576009548151635c975abb60e01b8152602093916001600160a01b039190859082908590829086165afa9081156114d55786916114b8575b506114a9576113b2612023565b341561149a57338552600184526113cc3484872054612016565b600e541061148b5784808080933490600b54165af13d15611486573d67ffffffffffffffff81116114735783519061140d601f8201601f1916870183611fdc565b815285853d92013e5b15610e5757507fd7243f6f8212d5188fd054141cf6ea89cfc0d91facb8c3afe2f88a13584801429033845260018352808420611453348254612016565b905561146134600c54612016565b600c5551913483523392a26001815580f35b634e487b7160e01b865260418352602486fd5b611416565b50905163465c767560e11b8152fd5b50905163162908e360e11b8152fd5b5090516301ca793160e61b8152fd5b6114cf9150853d87116104395761042b8183611fdc565b386113a5565b84513d88823e3d90fd5b8383346101f957602092836003193601126102ca576001600160a01b0380611505611f02565b168085526001865283852054948092600754935b8481106115295788888851908152f35b8161153382611f33565b919054600392831b1c169081855260058b5260ff8986205416611561575b505061155c90611f80565b611519565b85859a939a528a52878420816000528a52876000205490845260068a5287842054908181029181830414901517156115ad5761155c916127106115a5920490612016565b97908a611551565b634e487b7160e01b845260118752602484fd5b5050346101f957806003193601126101f957602090610f576115e0611f02565b6115e8611f1d565b90612057565b919050346102ca576020806003193601126103b3576009548251635c975abb60e01b8152843594916001600160a01b039190849082908590829086165afa90811561183f578791611822575b5061181357611647612023565b3386526001835261166384872054600285528588205490611fa5565b8581106117f757506009548451631577f90560e01b81523384820190815260208101889052918316918590829081906040010381855afa90811561060c5788916117da575b50156117ca5790869291338452600185528584206116c7888254611fa5565b90556116d587600c54611fa5565b600c55803b156103b357855163fa17bb7560e01b815233848201908152602081018990529091859183919082908490829060400103925af180156117c0579084916117ac575b5050600b5416803b156102ca57845163743514b960e11b81529182018681523360208201528391839182908490829060400103925af180156117a25761178e575b50507fc30fcfbcaac9e0deffa719714eaa82396ff506a0d0d0eebe170830177288715d91519283523392a26001815580f35b61179790611fb2565b6103b357833861175c565b84513d84823e3d90fd5b6117b590611fb2565b6102ca57823861171b565b86513d86823e3d90fd5b84516327351b4b60e11b81528390fd5b6117f19150853d87116104395761042b8183611fdc565b386116a8565b8260449187875192632c1f8ef160e21b84528301526024820152fd5b5082516301ca793160e61b8152fd5b6118399150843d86116104395761042b8183611fdc565b3861163a565b85513d89823e3d90fd5b5050346101f95760203660031901126101f95760209181906001600160a01b03611871611f02565b1681526001845220549051908152f35b9050346102ca57816003193601126102ca576020928261189f611f02565b916118a8611f1d565b6001600160a01b0393841682529386522091166000908152908352819020549051908152f35b5050346101f957816003193601126101f957602090600c549051908152f35b919050346102ca57806003193601126102ca57611908611f02565b906024359060018060a01b03806009541693816008541633141580611a40575b806119f2575b6111be5782518095635c975abb60e01b8252818860209889935afa908115610ee15788916119d5575b50610eb45716938486526001845261197a82872054600286528388205490611fa5565b83811061116d575050907f2251f6a4ed7fe619e9e8ce557d05a63dd484284f9c95c9ab334f6a7707cd08009291848652600283528086206119bc838254612016565b90556119ca82600d54612016565b600d5551908152a280f35b6119ec9150863d88116104395761042b8183611fdc565b38611957565b50825163027cf93b60e31b81523387820152602081602481895afa908115610ee1578891611a22575b501561192e565b611a3a915060203d81116104395761042b8183611fdc565b38611a1b565b5084331415611928565b919050346102ca57806003193601126102ca57611a65611f02565b600854602435916001600160a01b039182163303610932571692838552600560205260ff8386205416156109245750907f8f7d98492fc007ecbda87c2529e776a304c9aa5155cb381384b75ab88228701091838552600f60205281852090808254925582519182526020820152a280f35b5050346101f957816003193601126101f957602090600e549051908152f35b5050346101f957816003193601126101f95760095490516001600160a01b039091168152602090f35b5050346101f95760203660031901126101f95760209181906001600160a01b03611b46611f02565b1681526006845220549051908152f35b919050346102ca57806003193601126102ca57611b71611f02565b6009548251635c975abb60e01b81526024359360209390926001600160a01b039290859082908990829087165afa908115610ee1578891611cca575b50610eb457611bba612023565b16938486526005835260ff828720541615610ea6578315611cbc5733865260038352818620856000528352611bf3848360002054612016565b858752600f84528287205410611cae5781516323b872dd60e01b815233828201523060248201526044810185905283816064818a8a5af1908115610e82578791611c91575b5015610e575750907ffe3c2505f754d7d978238451ba5d7d8bc4857cf134179168349ddc438e29a479913386526003825280862085600052825280600020611c81858254612016565b9055519283523392a36001815580f35b611ca89150843d86116104395761042b8183611fdc565b38611c38565b905163465c767560e11b8152fd5b905163162908e360e11b8152fd5b611ce19150853d87116104395761042b8183611fdc565b38611bad565b5050346101f957806003193601126101f957602091611d04611f02565b82611d0d611f1d565b6001600160a01b03928316845260038652922091166000908152908352819020549051908152f35b9050346102ca5760203660031901126102ca57600854813591906001600160a01b031633036103d05750907ffbb8451195e7e481e9dbe81a80756134bd76f27348f7a724a3fdf6d0b8650e4f91600e549080600e5582519182526020820152a180f35b929150346103b35760203660031901126103b3576009546008548235946001600160a01b039291831633141591831682611ef7575b82611ea7575b5050611e9957808591600b541690600a541690803b156102ca57845163743514b960e11b81529384018681526001600160a01b039092166020830152839182908490829060400103925af18015611e8f57611e57575b507f414d7d8eae12f648156e75499fc0a5a10aa84f2745c6f791b0453cb17f1e17fa9160209151908152a180f35b9160209193611e867f414d7d8eae12f648156e75499fc0a5a10aa84f2745c6f791b0453cb17f1e17fa94611fb2565b93915091611e29565b82513d86823e3d90fd5b5090516282b42960e81b8152fd5b8192509060248160209363027cf93b60e31b825233888301525afa9081156114d5578691611ed9575b50153880611dd3565b611ef1915060203d81116104395761042b8183611fdc565b38611ed0565b338114159250611dcd565b600435906001600160a01b0382168203611f1857565b600080fd5b602435906001600160a01b0382168203611f1857565b600754811015611f6a5760076000527fa66cc928b5edb82af9bd49922954155ab7b0942694bea4ce44661d9a8736c6880190600090565b634e487b7160e01b600052603260045260246000fd5b6000198114611f8f5760010190565b634e487b7160e01b600052601160045260246000fd5b91908203918211611f8f57565b67ffffffffffffffff8111611fc657604052565b634e487b7160e01b600052604160045260246000fd5b90601f8019910116810190811067ffffffffffffffff821117611fc657604052565b90816020910312611f1857518015158103611f185790565b91908201809211611f8f57565b600260005414612034576002600055565b604051633ee5aeb560e01b8152600490fd5b600160ff1b8114611f8f5760000390565b6001600160a01b03918216600081815260056020526040812054909391929060ff16156120b957926040916120b69416928382526003602052828220818352602052828220549382526004602052828220908252602052205490611fa5565b90565b5050509056fea2646970667358221220739996b84e1005531bfca8a740331f614ccc706e95d47908ea3eec797796d9cd64736f6c63430008140033",
  "linkReferences": {},
  "deployedLinkReferences": {}
}