{"contracts/SecurityModule.sol":{"SecurityModule":{"abi":[{"inputs":[{"internalType":"address","name":"_guardian","type":"address"}],"stateMutability":"nonpayable","type":"constructor"},{"inputs":[],"name":"CircuitBreakerCooldownActive","type":"error"},{"inputs":[],"name":"CircuitBreakerNotConfigured","type":"error"},{"inputs":[],"name":"CircuitBreakerNotTriggered","type":"error"},{"inputs":[],"name":"InvalidAddress","type":"error"},{"inputs":[],"name":"InvalidParameter","type":"error"},{"inputs":[],"name":"ThresholdNotExceeded","type":"error"},{"inputs":[],"name":"Unauthorized","type":"error"},{"inputs":[],"name":"UnrecognizedRole","type":"error"},{"anonymous":false,"inputs":[{"indexed":true,"internalType":"address","name":"oldAdmin","type":"address"},{"indexed":true,"internalType":"address","name":"newAdmin","type":"address"}],"name":"AdminTransferred","type":"event"},{"anonymous":false,"inputs":[{"indexed":false,"internalType":"string","name":"asset","type":"string"},{"indexed":false,"internalType":"uint256","name":"priceDeviation","type":"uint256"},{"indexed":false,"internalType":"uint256","name":"volumeThreshold","type":"uint256"},{"indexed":false,"internalType":"uint256","name":"openInterestThreshold","type":"uint256"},{"indexed":false,"internalType":"uint256","name":"cooldownPeriod","type":"uint256"}],"name":"AssetCircuitBreakerUpdated","type":"event"},{"anonymous":false,"inputs":[{"indexed":false,"internalType":"uint256","name":"threshold","type":"uint256"},{"indexed":false,"internalType":"uint256","name":"cooldown","type":"uint256"}],"name":"CircuitBreakerParamsUpdated","type":"event"},{"anonymous":false,"inputs":[{"indexed":false,"internalType":"string","name":"asset","type":"string"}],"name":"CircuitBreakerReset","type":"event"},{"anonymous":false,"inputs":[{"indexed":false,"internalType":"string","name":"asset","type":"string"},{"indexed":false,"internalType":"uint256","name":"priceDelta","type":"uint256"},{"indexed":false,"internalType":"uint256","name":"volume","type":"uint256"},{"indexed":false,"internalType":"uint256","name":"openInterest","type":"uint256"}],"name":"CircuitBreakerTriggered","type":"event"},{"anonymous":false,"inputs":[{"indexed":false,"internalType":"uint256","name":"oldLimit","type":"uint256"},{"indexed":false,"internalType":"uint256","name":"newLimit","type":"uint256"}],"name":"DailyWithdrawalLimitUpdated","type":"event"},{"anonymous":false,"inputs":[{"indexed":true,"internalType":"address","name":"oldGuardian","type":"address"},{"indexed":true,"internalType":"address","name":"newGuardian","type":"address"}],"name":"GuardianUpdated","type":"event"},{"anonymous":false,"inputs":[{"indexed":true,"internalType":"address","name":"trigger","type":"address"}],"name":"Paused","type":"event"},{"anonymous":false,"inputs":[{"indexed":true,"internalType":"bytes32","name":"role","type":"bytes32"},{"indexed":true,"internalType":"address","name":"account","type":"address"},{"indexed":true,"internalType":"address","name":"sender","type":"address"}],"name":"RoleGranted","type":"event"},{"anonymous":false,"inputs":[{"indexed":true,"internalType":"bytes32","name":"role","type":"bytes32"},{"indexed":true,"internalType":"address","name":"account","type":"address"},{"indexed":true,"internalType":"address","name":"sender","type":"address"}],"name":"RoleRevoked","type":"event"},{"anonymous":false,"inputs":[{"indexed":true,"internalType":"address","name":"trigger","type":"address"}],"name":"Unpaused","type":"event"},{"inputs":[],"name":"ADMIN_ROLE","outputs":[{"internalType":"bytes32","name":"","type":"bytes32"}],"stateMutability":"view","type":"function"},{"inputs":[],"name":"EMERGENCY_ROLE","outputs":[{"internalType":"bytes32","name":"","type":"bytes32"}],"stateMutability":"view","type":"function"},{"inputs":[],"name":"LIQUIDATOR_ROLE","outputs":[{"internalType":"bytes32","name":"","type":"bytes32"}],"stateMutability":"view","type":"function"},{"inputs":[],"name":"OPERATOR_ROLE","outputs":[{"internalType":"bytes32","name":"","type":"bytes32"}],"stateMutability":"view","type":"function"},{"inputs":[{"internalType":"address","name":"liquidator","type":"address"}],"name":"addLiquidator","outputs":[],"stateMutability":"nonpayable","type":"function"},{"inputs":[{"internalType":"address","name":"operator","type":"address"}],"name":"addOperator","outputs":[],"stateMutability":"nonpayable","type":"function"},{"inputs":[],"name":"admin","outputs":[{"internalType":"address","name":"","type":"address"}],"stateMutability":"view","type":"function"},{"inputs":[{"internalType":"string","name":"","type":"string"}],"name":"assetCircuitBreakers","outputs":[{"internalType":"uint256","name":"priceDeviationThreshold","type":"uint256"},{"internalType":"uint256","name":"volumeThreshold","type":"uint256"},{"internalType":"uint256","name":"openInterestThreshold","type":"uint256"},{"internalType":"uint256","name":"lastTriggered","type":"uint256"},{"internalType":"uint256","name":"cooldownPeriod","type":"uint256"},{"internalType":"bool","name":"isTriggered","type":"bool"}],"stateMutability":"view","type":"function"},{"inputs":[],"name":"circuitBreakerCooldown","outputs":[{"internalType":"uint256","name":"","type":"uint256"}],"stateMutability":"view","type":"function"},{"inputs":[{"internalType":"address","name":"","type":"address"}],"name":"dailyWithdrawalAmount","outputs":[{"internalType":"uint256","name":"","type":"uint256"}],"stateMutability":"view","type":"function"},{"inputs":[{"internalType":"bytes32","name":"role","type":"bytes32"},{"internalType":"address","name":"account","type":"address"}],"name":"grantRole","outputs":[],"stateMutability":"nonpayable","type":"function"},{"inputs":[],"name":"guardian","outputs":[{"internalType":"address","name":"","type":"address"}],"stateMutability":"view","type":"function"},{"inputs":[{"internalType":"bytes32","name":"role","type":"bytes32"},{"internalType":"address","name":"account","type":"address"}],"name":"hasRole","outputs":[{"internalType":"bool","name":"","type":"bool"}],"stateMutability":"view","type":"function"},{"inputs":[{"internalType":"string","name":"asset","type":"string"}],"name":"isAssetPaused","outputs":[{"internalType":"bool","name":"","type":"bool"}],"stateMutability":"view","type":"function"},{"inputs":[{"internalType":"address","name":"user","type":"address"},{"internalType":"uint256","name":"amount","type":"uint256"}],"name":"isWithdrawalAllowed","outputs":[{"internalType":"bool","name":"","type":"bool"}],"stateMutability":"view","type":"function"},{"inputs":[],"name":"lastCircuitBreakerTriggered","outputs":[{"internalType":"uint256","name":"","type":"uint256"}],"stateMutability":"view","type":"function"},{"inputs":[{"internalType":"address","name":"","type":"address"}],"name":"lastWithdrawalDay","outputs":[{"internalType":"uint256","name":"","type":"uint256"}],"stateMutability":"view","type":"function"},{"inputs":[{"internalType":"address","name":"","type":"address"}],"name":"liquidators","outputs":[{"internalType":"bool","name":"","type":"bool"}],"stateMutability":"view","type":"function"},{"inputs":[],"name":"maxDailyWithdrawal","outputs":[{"internalType":"uint256","name":"","type":"uint256"}],"stateMutability":"view","type":"function"},{"inputs":[{"internalType":"address","name":"","type":"address"}],"name":"operators","outputs":[{"internalType":"bool","name":"","type":"bool"}],"stateMutability":"view","type":"function"},{"inputs":[],"name":"pause","outputs":[],"stateMutability":"nonpayable","type":"function"},{"inputs":[],"name":"paused","outputs":[{"internalType":"bool","name":"","type":"bool"}],"stateMutability":"view","type":"function"},{"inputs":[{"internalType":"address","name":"user","type":"address"},{"internalType":"uint256","name":"amount","type":"uint256"}],"name":"recordWithdrawal","outputs":[],"stateMutability":"nonpayable","type":"function"},{"inputs":[{"internalType":"address","name":"liquidator","type":"address"}],"name":"removeLiquidator","outputs":[],"stateMutability":"nonpayable","type":"function"},{"inputs":[{"internalType":"address","name":"operator","type":"address"}],"name":"removeOperator","outputs":[],"stateMutability":"nonpayable","type":"function"},{"inputs":[{"internalType":"string","name":"asset","type":"string"}],"name":"resetCircuitBreaker","outputs":[],"stateMutability":"nonpayable","type":"function"},{"inputs":[{"internalType":"bytes32","name":"role","type":"bytes32"},{"internalType":"address","name":"account","type":"address"}],"name":"revokeRole","outputs":[],"stateMutability":"nonpayable","type":"function"},{"inputs":[{"internalType":"string","name":"asset","type":"string"},{"internalType":"uint256","name":"priceDeviationThreshold","type":"uint256"},{"internalType":"uint256","name":"volumeThreshold","type":"uint256"},{"internalType":"uint256","name":"openInterestThreshold","type":"uint256"},{"internalType":"uint256","name":"cooldownPeriod","type":"uint256"}],"name":"setAssetCircuitBreaker","outputs":[],"stateMutability":"nonpayable","type":"function"},{"inputs":[{"internalType":"address","name":"newAdmin","type":"address"}],"name":"transferAdmin","outputs":[],"stateMutability":"nonpayable","type":"function"},{"inputs":[{"internalType":"string","name":"asset","type":"string"},{"internalType":"uint256","name":"priceDelta","type":"uint256"},{"internalType":"uint256","name":"volume","type":"uint256"},{"internalType":"uint256","name":"openInterest","type":"uint256"}],"name":"triggerCircuitBreaker","outputs":[],"stateMutability":"nonpayable","type":"function"},{"inputs":[],"name":"unpause","outputs":[],"stateMutability":"nonpayable","type":"function"},{"inputs":[{"internalType":"uint256","name":"newThreshold","type":"uint256"},{"internalType":"uint256","name":"newCooldown","type":"uint256"}],"name":"updateCircuitBreakerParams","outputs":[],"stateMutability":"nonpayable","type":"function"},{"inputs":[{"internalType":"uint256","name":"newLimit","type":"uint256"}],"name":"updateDailyWithdrawalLimit","outputs":[],"stateMutability":"nonpayable","type":"function"},{"inputs":[{"internalType":"address","name":"newGuardian","type":"address"}],"name":"updateGuardian","outputs":[],"stateMutability":"nonpayable","type":"function"},{"inputs":[],"name":"volatilityThreshold","outputs":[{"internalType":"uint256","name":"","type":"uint256"}],"stateMutability":"view","type":"function"}],"evm":{"bytecode":{"linkReferences":{},"object":"6080346101d257601f61190b38819003918201601f1916830192916001600160401b038411838510176101d757808392604095865283396020928391810103126101d257516001600160a01b038116908190036101d257601e600555615460600755683635c9adc5dea0000060095580156101c15760018060a01b031983600033838254161781558360019485948554161784557fdf8b4c520ffe197c5343c6f5aec59570151ef9a492f2c624fd45ddde6135ec4280835260028752838320338452875260028484209760ff1998878a8254161790557f76b1a12ac8d9ed64de3c0f66c2a19b21c0a3f9a1afec3f75bcd45f7b0794a1de938486528282528686209086528152858520878a8254161790557f523a704056dcd17bcf83bed8b68c59416dac1119be77755efe3bde0a64e46e0c928386528282528686203387528252868620888b82541617905560038252868620888b825416179055855252848484200185888254161790558252838383200184878254161790557feb33521169e672634fcae38dcc3bab0be8a080072000cfbdc0e041665d727c1882528383832001848782541617905581522001918254161790555161171d90816101ee8239f35b825163e6c4247b60e01b8152600490fd5b600080fd5b634e487b7160e01b600052604160045260246000fdfe608060408181526004908136101561001657600080fd5b600092833560e01c90816301a60175146113c55750806313e7c9d8146113875780631577f905146113555780631635b24e146112cd57806316d8887a146112a457806320df4359146112695780632f2ff15d146111375780633f4ba83a146110c8578063452a93201461109f5780634c4e7f6f14610fe65780635c975abb14610fbf5780636b36f99514610f875780636f3744fb14610f4f57806375829def14610e5757806375b238fc14610e1c578063775f5d3c14610d235780637e8d698d14610b9e57806380fee0ab14610b7f57806382db485714610b045780638456cb5914610a0e5780638afdd405146108c157806391d14854146108615780639870d7fe146107975780639fe88c8414610778578063ac8a584a146106bc578063b87d1bc51461069d578063d547741f14610580578063d99f6d6714610561578063e992c3dd146104dd578063efb7440014610421578063f5b541a6146103f8578063f851a440146103cc578063f90cdb361461038f578063fa17bb75146102b55763fc525395146101a557600080fd5b346102b15760203660031901126102b1576101be6114c4565b83546001600160a01b039291908316331415806102a1575b610292578216928315610284575082600154928316926bffffffffffffffffffffffff60a01b16176001557f76b1a12ac8d9ed64de3c0f66c2a19b21c0a3f9a1afec3f75bcd45f7b0794a1de9081855260026020528085208486526020528085209160ff19926001848254161790558552600260205280852083865260205284209081541690557f064d28d3d3071c5cbc271a261c10c2f0f0d9e319390397101aa0eb23c6bad9098380a380f35b905163e6c4247b60e01b8152fd5b81516282b42960e81b81528490fd5b506102ab33611523565b156101d6565b8280fd5b50346102b157806003193601126102b1576102ce6114c4565b906024356102db336115bb565b15610292576001600160a01b03909216808552600b6020908152828620549093906201518042049081111561037557828752600b855283872055600a8452828620555b8452600a82528084205460095410610334578380f35b5162461bcd60e51b815291820152601f60248201527f4461696c79207769746864726177616c206c696d697420657863656564656400604482015260649150fd5b50600a8452610388838720918254611645565b905561031e565b5090346102b15760203660031901126102b15760209260ff918391906001600160a01b036103bb6114c4565b168252855220541690519015158152f35b8382346103f457816003193601126103f457905490516001600160a01b039091168152602090f35b5080fd5b8382346103f457816003193601126103f457602090516000805160206116c88339815191528152f35b5090346102b15760203660031901126102b15761043c6114c4565b83546001600160a01b0391908216331415806104cd575b6104be57169081845260205281832060ff19908181541690556000805160206116a8833981519152928385526002602052808520838652602052842090815416905533917ff6391f5c32d9c69d2a47ea670b442974b53935d1edc7fd64eb21e047a839171b8480a480f35b83516282b42960e81b81528390fd5b506104d733611523565b15610453565b5090346102b15760203660031901126102b15780359060018060a01b0384541633141580610551575b6105445750907fd67bc9de7209f558e46a19168d0d4f9049da4cec8b54ecec7dc32bf1ba9346e291600954908060095582519182526020820152a180f35b82516282b42960e81b8152fd5b5061055b33611523565b15610506565b8382346103f457816003193601126103f4576020906007549051908152f35b50346102b157806003193601126102b15781359161059c6114df565b9160018060a01b03808654163314158061068d575b61068057848652600260205260ff6001838820015416156106725784865260026020528186209316928386526020528085209160ff19928381541690556000805160206116c883398151915285146000146106415750828552600360205284209081541690555b33917ff6391f5c32d9c69d2a47ea670b442974b53935d1edc7fd64eb21e047a839171b8480a480f35b6000805160206116a8833981519152851461065f575b505050610618565b6020528420908154169055388080610657565b5051630ab874f360e01b8152fd5b50516282b42960e81b8152fd5b5061069733611523565b156105b1565b8382346103f457816003193601126103f4576020906009549051908152f35b5090346102b15760203660031901126102b1576106d76114c4565b83546001600160a01b039290831633141580610768575b61075b575016808352600360205281832060ff19908181541690556000805160206116c8833981519152928385526002602052808520838652602052842090815416905533917ff6391f5c32d9c69d2a47ea670b442974b53935d1edc7fd64eb21e047a839171b8480a480f35b83516282b42960e81b8152fd5b5061077233611523565b156106ee565b8382346103f457816003193601126103f4576020906005549051908152f35b5090346102b15760203660031901126102b1576107b26114c4565b83546001600160a01b039190821633141580610851575b6104be57169081156108435750808352600360205281832060ff199060018282541617905560016000805160206116c883398151915293848652600260205280862084875260205285209182541617905533917f2f8788117e7eff1d82e926ec794901d17c78024a50270940304540a733656f0d8480a480f35b825163e6c4247b60e01b8152fd5b5061085b33611523565b156107c9565b50346102b157806003193601126102b1579160209261087e6114df565b92358252600284528082209160ff60018401541692836108a4575b858484519015158152f35b60ff9350829460018060a01b031682528552205416813880610899565b508290346103f45760803660031901126103f457823567ffffffffffffffff81116102b1576108f390369085016114f5565b90916024359060443560643591610909336115bb565b15610a0057805185878237602081878101600881520301902097808901549081156109f257895486108015906109e4575b80156109d6575b156109c85761095560038b01928354611645565b42106109ba575060057f64976c0742b8122f09ef6d98a7c63fbebd6b9948ee768773bdd7d83ac0f53bf6989901600160ff198254161790554290556109a68151968796608088526080880191611624565b93602086015284015260608301520390a180f35b82516341d17ffd60e11b8152fd5b825163729e7cf760e11b8152fd5b5060028a0154851015610941565b5060018a015484101561093a565b825163b8f1e07360e01b8152fd5b516282b42960e81b81528790fd5b50346102b157826003193601126102b1578254336001600160a01b0391821614159081610af5575b5080610ae5575b80610a8f575b610a83576001805460ff60a01b1916600160a01b17905582337f62e78cea01bee320cd4e420270b5ea74000d11b0c9f74754ebdbfc544b05a2588280a280f35b516282b42960e81b8152fd5b507f76b1a12ac8d9ed64de3c0f66c2a19b21c0a3f9a1afec3f75bcd45f7b0794a1de8352600260205280832060ff6001820154169081610ad1575b5015610a43565b338552602052508083205460ff1638610aca565b50610aef33611523565b15610a3d565b90506001541633141538610a36565b508234610b7c576020366003190112610b7c5782359067ffffffffffffffff8211610b7c5750602092610b39913691016114f5565b60015460a01c60ff1692918315610b55575b5050519015158152f35b82935090846005928260ff9551938492833781016008815203019020015416908380610b4b565b80fd5b8382346103f457816003193601126103f4576020906006549051908152f35b508290346103f45760a03660031901126103f45767ffffffffffffffff908335828111610d1f57610bd290369086016114f5565b91909260243591604435606435916084359360018060a01b0389541633141580610d0f575b610d00578615610cf0578415610cf05781519060c0820190811182821017610cdd57899a917f6fea5ad7168d68f9ef5ee6ec975f3156efc1cd538f1e5b9df3f6d616e63417069a926005928552888252878b60208401888152878501908a82528d602060608801948a86526080890196875260a089019a8b52828c51938492833781016008815203019020955186555160018601555160028501555160038401555190820155019051151560ff80198354169116179055610cc4815197889760a0895260a0890191611624565b946020870152850152606084015260808301520390a180f35b634e487b7160e01b8a5260418b5260248afd5b8151630309cb8760e51b81528a90fd5b81516282b42960e81b81528a90fd5b50610d1933611523565b15610bf7565b8380fd5b509190346103f45760203660031901126103f457803567ffffffffffffffff81116102b157610d5590369083016114f5565b909160018060a01b0384541633141580610e0c575b610dff5784518284823760208184810160088152030190208181015415610df0576005019081549060ff821615610de2575094610ddc917ff9b6094402b8dd6aacde1d951753f76a4087f721159a0c723c7cbfcc839367c4959660ff1916905551928392602084526020840191611624565b0390a180f35b86516311e3596160e01b8152fd5b50845163b8f1e07360e01b8152fd5b84516282b42960e81b8152fd5b50610e1633611523565b15610d6a565b8382346103f457816003193601126103f457602090517fdf8b4c520ffe197c5343c6f5aec59570151ef9a492f2c624fd45ddde6135ec428152f35b50346102b15760203660031901126102b157610e716114c4565b83546001600160a01b0380821693923385141580610f3f575b610f305716938415610843575083906bffffffffffffffffffffffff60a01b161784557fdf8b4c520ffe197c5343c6f5aec59570151ef9a492f2c624fd45ddde6135ec429081855260026020528085208486526020528085209160ff19926001848254161790558552600260205280852083865260205284209081541690557ff8ccb027dfcd135e000e9d45e6cc2d662578a8825d4c45b5e32e0adf67e79ec68380a380f35b83516282b42960e81b81528690fd5b50610f4933611523565b15610e8a565b8382346103f45760203660031901126103f45760209181906001600160a01b03610f776114c4565b168152600b845220549051908152f35b8382346103f45760203660031901126103f45760209181906001600160a01b03610faf6114c4565b168152600a845220549051908152f35b8382346103f457816003193601126103f45760209060ff60015460a01c1690519015158152f35b5090346102b15760203660031901126102b1576110016114c4565b83546001600160a01b03919082163314158061108f575b6104be57169081156108435781845260205281832060ff199060018282541617905560016000805160206116a883398151915293848652600260205280862084875260205285209182541617905533917f2f8788117e7eff1d82e926ec794901d17c78024a50270940304540a733656f0d8480a480f35b5061109933611523565b15611018565b8382346103f457816003193601126103f45760015490516001600160a01b039091168152602090f35b50346102b157826003193601126102b15782546001600160a01b031633141580611127575b610a83576001805460ff60a01b1916905582337f5db9ee0a495bf2e6ff9c91a7834c1ba4fdd244a5e8aa4e537bd38aeae4b073aa8280a280f35b5061113133611523565b156110ed565b5090346102b157816003193601126102b1578035916111546114df565b84546001600160a01b039190821633141580611259575b61124b57848652600260205260ff60018488200154161561123c57169182156102845783855260026020528185208386526020528185209160ff19926001848254161790556000805160206116c88339815191528514600014611207576001915083865260036020528520918254161790555b33917f2f8788117e7eff1d82e926ec794901d17c78024a50270940304540a733656f0d8480a480f35b6000805160206116a88339815191528514611225575b5050506111de565b60019160205285209182541617905538808061121d565b505051630ab874f360e01b8152fd5b5050516282b42960e81b8152fd5b5061126333611523565b1561116b565b8382346103f457816003193601126103f457602090517f76b1a12ac8d9ed64de3c0f66c2a19b21c0a3f9a1afec3f75bcd45f7b0794a1de8152f35b8382346103f457816003193601126103f457602090516000805160206116a88339815191528152f35b508290346103f457806003193601126103f457823560243560018060a01b0384541633141580611345575b611336577fa1c0bf6e9ee4a5574378ee24369a750080ec44f0b9c0eb9f346d69355c2270fe939450816005558060075582519182526020820152a180f35b82516282b42960e81b81528590fd5b5061134f33611523565b156112f8565b8382346103f457806003193601126103f45760209061137e6113756114c4565b60243590611668565b90519015158152f35b8382346103f45760203660031901126103f45760209160ff9082906001600160a01b036113b26114c4565b1681526003855220541690519015158152f35b828585346103f45760209182600319360112610b7c5767ffffffffffffffff82358181116102b157366023820112156102b15780840135918083116114b157601f8301601f19908116603f01168801908111888210176114b157865281875236602483830101116102b1578183926024879301838a0137870101528351908551905b8181106114a0575060c09550818491810160088152030190209081549360018301549060028401549160ff60056003870154958701549601541695825197885287015285015260608401526080830152151560a0820152f35b868101850151838201528401611447565b634e487b7160e01b845260418552602484fd5b600435906001600160a01b03821682036114da57565b600080fd5b602435906001600160a01b03821682036114da57565b9181601f840112156114da5782359167ffffffffffffffff83116114da57602083818601950101116114da57565b7fdf8b4c520ffe197c5343c6f5aec59570151ef9a492f2c624fd45ddde6135ec4260005260026020527f4d1342fdb801fa90273600e705279b9f18cdfd4113e09db8a163b666effe50165460ff16907f4d1342fdb801fa90273600e705279b9f18cdfd4113e09db8a163b666effe5015908261159e57505090565b90915060018060a01b031660005260205260ff6040600020541690565b6000805160206116c883398151915260005260026020527f46271a62c2758a98a95899248ea4ba742e7d977ed152524dabc01dcbd027aced5460ff16907f46271a62c2758a98a95899248ea4ba742e7d977ed152524dabc01dcbd027acec908261159e57505090565b908060209392818452848401376000828201840152601f01601f1916010190565b9190820180921161165257565b634e487b7160e01b600052601160045260246000fd5b6001600160a01b03166000908152600b60205260409020546201518042041161169f5761169f90600a602052604060002054611645565b60095410159056feeb33521169e672634fcae38dcc3bab0be8a080072000cfbdc0e041665d727c18523a704056dcd17bcf83bed8b68c59416dac1119be77755efe3bde0a64e46e0ca264697066735822122024e1e3cd4b5c790aaf4b150b167143ee45e5d01dff363dd1d6a4fd08ed362c1264736f6c63430008140033","opcodes":"PUSH1 0x80 CALLVALUE PUSH2 0x1D2 JUMPI PUSH1 0x1F PUSH2 0x190B CODESIZE DUP2 SWAP1 SUB SWAP2 DUP3 ADD PUSH1 0x1F NOT AND DUP4 ADD SWAP3 SWAP2 PUSH1 0x1 PUSH1 0x1 PUSH1 0x40 SHL SUB DUP5 GT DUP4 DUP6 LT OR PUSH2 0x1D7 JUMPI DUP1 DUP4 SWAP3 PUSH1 0x40 SWAP6 DUP7 MSTORE DUP4 CODECOPY PUSH1 0x20 SWAP3 DUP4 SWAP2 DUP2 ADD SUB SLT PUSH2 0x1D2 JUMPI MLOAD PUSH1 0x1 PUSH1 0x1 PUSH1 0xA0 SHL SUB DUP2 AND SWAP1 DUP2 SWAP1 SUB PUSH2 0x1D2 JUMPI PUSH1 0x1E PUSH1 0x5 SSTORE PUSH2 0x5460 PUSH1 0x7 SSTORE PUSH9 0x3635C9ADC5DEA00000 PUSH1 0x9 SSTORE DUP1 ISZERO PUSH2 0x1C1 JUMPI PUSH1 0x1 DUP1 PUSH1 0xA0 SHL SUB NOT DUP4 PUSH1 0x0 CALLER DUP4 DUP3 SLOAD AND OR DUP2 SSTORE DUP4 PUSH1 0x1 SWAP5 DUP6 SWAP5 DUP6 SLOAD AND OR DUP5 SSTORE PUSH32 0xDF8B4C520FFE197C5343C6F5AEC59570151EF9A492F2C624FD45DDDE6135EC42 DUP1 DUP4 MSTORE PUSH1 0x2 DUP8 MSTORE DUP4 DUP4 KECCAK256 CALLER DUP5 MSTORE DUP8 MSTORE PUSH1 0x2 DUP5 DUP5 KECCAK256 SWAP8 PUSH1 0xFF NOT SWAP9 DUP8 DUP11 DUP3 SLOAD AND OR SWAP1 SSTORE PUSH32 0x76B1A12AC8D9ED64DE3C0F66C2A19B21C0A3F9A1AFEC3F75BCD45F7B0794A1DE SWAP4 DUP5 DUP7 MSTORE DUP3 DUP3 MSTORE DUP7 DUP7 KECCAK256 SWAP1 DUP7 MSTORE DUP2 MSTORE DUP6 DUP6 KECCAK256 DUP8 DUP11 DUP3 SLOAD AND OR SWAP1 SSTORE PUSH32 0x523A704056DCD17BCF83BED8B68C59416DAC1119BE77755EFE3BDE0A64E46E0C SWAP3 DUP4 DUP7 MSTORE DUP3 DUP3 MSTORE DUP7 DUP7 KECCAK256 CALLER DUP8 MSTORE DUP3 MSTORE DUP7 DUP7 KECCAK256 DUP9 DUP12 DUP3 SLOAD AND OR SWAP1 SSTORE PUSH1 0x3 DUP3 MSTORE DUP7 DUP7 KECCAK256 DUP9 DUP12 DUP3 SLOAD AND OR SWAP1 SSTORE DUP6 MSTORE MSTORE DUP5 DUP5 DUP5 KECCAK256 ADD DUP6 DUP9 DUP3 SLOAD AND OR SWAP1 SSTORE DUP3 MSTORE DUP4 DUP4 DUP4 KECCAK256 ADD DUP5 DUP8 DUP3 SLOAD AND OR SWAP1 SSTORE PUSH32 0xEB33521169E672634FCAE38DCC3BAB0BE8A080072000CFBDC0E041665D727C18 DUP3 MSTORE DUP4 DUP4 DUP4 KECCAK256 ADD DUP5 DUP8 DUP3 SLOAD AND OR SWAP1 SSTORE DUP2 MSTORE KECCAK256 ADD SWAP2 DUP3 SLOAD AND OR SWAP1 SSTORE MLOAD PUSH2 0x171D SWAP1 DUP2 PUSH2 0x1EE DUP3 CODECOPY RETURN JUMPDEST DUP3 MLOAD PUSH4 0xE6C4247B PUSH1 0xE0 SHL DUP2 MSTORE PUSH1 0x4 SWAP1 REVERT JUMPDEST PUSH1 0x0 DUP1 REVERT JUMPDEST PUSH4 0x4E487B71 PUSH1 0xE0 SHL PUSH1 0x0 MSTORE PUSH1 0x41 PUSH1 0x4 MSTORE PUSH1 0x24 PUSH1 0x0 REVERT INVALID PUSH1 0x80 PUSH1 0x40 DUP2 DUP2 MSTORE PUSH1 0x4 SWAP1 DUP2 CALLDATASIZE LT ISZERO PUSH2 0x16 JUMPI PUSH1 0x0 DUP1 REVERT JUMPDEST PUSH1 0x0 SWAP3 DUP4 CALLDATALOAD PUSH1 0xE0 SHR SWAP1 DUP2 PUSH4 0x1A60175 EQ PUSH2 0x13C5 JUMPI POP DUP1 PUSH4 0x13E7C9D8 EQ PUSH2 0x1387 JUMPI DUP1 PUSH4 0x1577F905 EQ PUSH2 0x1355 JUMPI DUP1 PUSH4 0x1635B24E EQ PUSH2 0x12CD JUMPI DUP1 PUSH4 0x16D8887A EQ PUSH2 0x12A4 JUMPI DUP1 PUSH4 0x20DF4359 EQ PUSH2 0x1269 JUMPI DUP1 PUSH4 0x2F2FF15D EQ PUSH2 0x1137 JUMPI DUP1 PUSH4 0x3F4BA83A EQ PUSH2 0x10C8 JUMPI DUP1 PUSH4 0x452A9320 EQ PUSH2 0x109F JUMPI DUP1 PUSH4 0x4C4E7F6F EQ PUSH2 0xFE6 JUMPI DUP1 PUSH4 0x5C975ABB EQ PUSH2 0xFBF JUMPI DUP1 PUSH4 0x6B36F995 EQ PUSH2 0xF87 JUMPI DUP1 PUSH4 0x6F3744FB EQ PUSH2 0xF4F JUMPI DUP1 PUSH4 0x75829DEF EQ PUSH2 0xE57 JUMPI DUP1 PUSH4 0x75B238FC EQ PUSH2 0xE1C JUMPI DUP1 PUSH4 0x775F5D3C EQ PUSH2 0xD23 JUMPI DUP1 PUSH4 0x7E8D698D EQ PUSH2 0xB9E JUMPI DUP1 PUSH4 0x80FEE0AB EQ PUSH2 0xB7F JUMPI DUP1 PUSH4 0x82DB4857 EQ PUSH2 0xB04 JUMPI DUP1 PUSH4 0x8456CB59 EQ PUSH2 0xA0E JUMPI DUP1 PUSH4 0x8AFDD405 EQ PUSH2 0x8C1 JUMPI DUP1 PUSH4 0x91D14854 EQ PUSH2 0x861 JUMPI DUP1 PUSH4 0x9870D7FE EQ PUSH2 0x797 JUMPI DUP1 PUSH4 0x9FE88C84 EQ PUSH2 0x778 JUMPI DUP1 PUSH4 0xAC8A584A EQ PUSH2 0x6BC JUMPI DUP1 PUSH4 0xB87D1BC5 EQ PUSH2 0x69D JUMPI DUP1 PUSH4 0xD547741F EQ PUSH2 0x580 JUMPI DUP1 PUSH4 0xD99F6D67 EQ PUSH2 0x561 JUMPI DUP1 PUSH4 0xE992C3DD EQ PUSH2 0x4DD JUMPI DUP1 PUSH4 0xEFB74400 EQ PUSH2 0x421 JUMPI DUP1 PUSH4 0xF5B541A6 EQ PUSH2 0x3F8 JUMPI DUP1 PUSH4 0xF851A440 EQ PUSH2 0x3CC JUMPI DUP1 PUSH4 0xF90CDB36 EQ PUSH2 0x38F JUMPI DUP1 PUSH4 0xFA17BB75 EQ PUSH2 0x2B5 JUMPI PUSH4 0xFC525395 EQ PUSH2 0x1A5 JUMPI PUSH1 0x0 DUP1 REVERT JUMPDEST CALLVALUE PUSH2 0x2B1 JUMPI PUSH1 0x20 CALLDATASIZE PUSH1 0x3 NOT ADD SLT PUSH2 0x2B1 JUMPI PUSH2 0x1BE PUSH2 0x14C4 JUMP JUMPDEST DUP4 SLOAD PUSH1 0x1 PUSH1 0x1 PUSH1 0xA0 SHL SUB SWAP3 SWAP2 SWAP1 DUP4 AND CALLER EQ ISZERO DUP1 PUSH2 0x2A1 JUMPI JUMPDEST PUSH2 0x292 JUMPI DUP3 AND SWAP3 DUP4 ISZERO PUSH2 0x284 JUMPI POP DUP3 PUSH1 0x1 SLOAD SWAP3 DUP4 AND SWAP3 PUSH12 0xFFFFFFFFFFFFFFFFFFFFFFFF PUSH1 0xA0 SHL AND OR PUSH1 0x1 SSTORE PUSH32 0x76B1A12AC8D9ED64DE3C0F66C2A19B21C0A3F9A1AFEC3F75BCD45F7B0794A1DE SWAP1 DUP2 DUP6 MSTORE PUSH1 0x2 PUSH1 0x20 MSTORE DUP1 DUP6 KECCAK256 DUP5 DUP7 MSTORE PUSH1 0x20 MSTORE DUP1 DUP6 KECCAK256 SWAP2 PUSH1 0xFF NOT SWAP3 PUSH1 0x1 DUP5 DUP3 SLOAD AND OR SWAP1 SSTORE DUP6 MSTORE PUSH1 0x2 PUSH1 0x20 MSTORE DUP1 DUP6 KECCAK256 DUP4 DUP7 MSTORE PUSH1 0x20 MSTORE DUP5 KECCAK256 SWAP1 DUP2 SLOAD AND SWAP1 SSTORE PUSH32 0x64D28D3D3071C5CBC271A261C10C2F0F0D9E319390397101AA0EB23C6BAD909 DUP4 DUP1 LOG3 DUP1 RETURN JUMPDEST SWAP1 MLOAD PUSH4 0xE6C4247B PUSH1 0xE0 SHL DUP2 MSTORE REVERT JUMPDEST DUP2 MLOAD PUSH3 0x82B429 PUSH1 0xE8 SHL DUP2 MSTORE DUP5 SWAP1 REVERT JUMPDEST POP PUSH2 0x2AB CALLER PUSH2 0x1523 JUMP JUMPDEST ISZERO PUSH2 0x1D6 JUMP JUMPDEST DUP3 DUP1 REVERT JUMPDEST POP CALLVALUE PUSH2 0x2B1 JUMPI DUP1 PUSH1 0x3 NOT CALLDATASIZE ADD SLT PUSH2 0x2B1 JUMPI PUSH2 0x2CE PUSH2 0x14C4 JUMP JUMPDEST SWAP1 PUSH1 0x24 CALLDATALOAD PUSH2 0x2DB CALLER PUSH2 0x15BB JUMP JUMPDEST ISZERO PUSH2 0x292 JUMPI PUSH1 0x1 PUSH1 0x1 PUSH1 0xA0 SHL SUB SWAP1 SWAP3 AND DUP1 DUP6 MSTORE PUSH1 0xB PUSH1 0x20 SWAP1 DUP2 MSTORE DUP3 DUP7 KECCAK256 SLOAD SWAP1 SWAP4 SWAP1 PUSH3 0x15180 TIMESTAMP DIV SWAP1 DUP2 GT ISZERO PUSH2 0x375 JUMPI DUP3 DUP8 MSTORE PUSH1 0xB DUP6 MSTORE DUP4 DUP8 KECCAK256 SSTORE PUSH1 0xA DUP5 MSTORE DUP3 DUP7 KECCAK256 SSTORE JUMPDEST DUP5 MSTORE PUSH1 0xA DUP3 MSTORE DUP1 DUP5 KECCAK256 SLOAD PUSH1 0x9 SLOAD LT PUSH2 0x334 JUMPI DUP4 DUP1 RETURN JUMPDEST MLOAD PUSH3 0x461BCD PUSH1 0xE5 SHL DUP2 MSTORE SWAP2 DUP3 ADD MSTORE PUSH1 0x1F PUSH1 0x24 DUP3 ADD MSTORE PUSH32 0x4461696C79207769746864726177616C206C696D697420657863656564656400 PUSH1 0x44 DUP3 ADD MSTORE PUSH1 0x64 SWAP2 POP REVERT JUMPDEST POP PUSH1 0xA DUP5 MSTORE PUSH2 0x388 DUP4 DUP8 KECCAK256 SWAP2 DUP3 SLOAD PUSH2 0x1645 JUMP JUMPDEST SWAP1 SSTORE PUSH2 0x31E JUMP JUMPDEST POP SWAP1 CALLVALUE PUSH2 0x2B1 JUMPI PUSH1 0x20 CALLDATASIZE PUSH1 0x3 NOT ADD SLT PUSH2 0x2B1 JUMPI PUSH1 0x20 SWAP3 PUSH1 0xFF SWAP2 DUP4 SWAP2 SWAP1 PUSH1 0x1 PUSH1 0x1 PUSH1 0xA0 SHL SUB PUSH2 0x3BB PUSH2 0x14C4 JUMP JUMPDEST AND DUP3 MSTORE DUP6 MSTORE KECCAK256 SLOAD AND SWAP1 MLOAD SWAP1 ISZERO ISZERO DUP2 MSTORE RETURN JUMPDEST DUP4 DUP3 CALLVALUE PUSH2 0x3F4 JUMPI DUP2 PUSH1 0x3 NOT CALLDATASIZE ADD SLT PUSH2 0x3F4 JUMPI SWAP1 SLOAD SWAP1 MLOAD PUSH1 0x1 PUSH1 0x1 PUSH1 0xA0 SHL SUB SWAP1 SWAP2 AND DUP2 MSTORE PUSH1 0x20 SWAP1 RETURN JUMPDEST POP DUP1 REVERT JUMPDEST DUP4 DUP3 CALLVALUE PUSH2 0x3F4 JUMPI DUP2 PUSH1 0x3 NOT CALLDATASIZE ADD SLT PUSH2 0x3F4 JUMPI PUSH1 0x20 SWAP1 MLOAD PUSH1 0x0 DUP1 MLOAD PUSH1 0x20 PUSH2 0x16C8 DUP4 CODECOPY DUP2 MLOAD SWAP2 MSTORE DUP2 MSTORE RETURN JUMPDEST POP SWAP1 CALLVALUE PUSH2 0x2B1 JUMPI PUSH1 0x20 CALLDATASIZE PUSH1 0x3 NOT ADD SLT PUSH2 0x2B1 JUMPI PUSH2 0x43C PUSH2 0x14C4 JUMP JUMPDEST DUP4 SLOAD PUSH1 0x1 PUSH1 0x1 PUSH1 0xA0 SHL SUB SWAP2 SWAP1 DUP3 AND CALLER EQ ISZERO DUP1 PUSH2 0x4CD JUMPI JUMPDEST PUSH2 0x4BE JUMPI AND SWAP1 DUP2 DUP5 MSTORE PUSH1 0x20 MSTORE DUP2 DUP4 KECCAK256 PUSH1 0xFF NOT SWAP1 DUP2 DUP2 SLOAD AND SWAP1 SSTORE PUSH1 0x0 DUP1 MLOAD PUSH1 0x20 PUSH2 0x16A8 DUP4 CODECOPY DUP2 MLOAD SWAP2 MSTORE SWAP3 DUP4 DUP6 MSTORE PUSH1 0x2 PUSH1 0x20 MSTORE DUP1 DUP6 KECCAK256 DUP4 DUP7 MSTORE PUSH1 0x20 MSTORE DUP5 KECCAK256 SWAP1 DUP2 SLOAD AND SWAP1 SSTORE CALLER SWAP2 PUSH32 0xF6391F5C32D9C69D2A47EA670B442974B53935D1EDC7FD64EB21E047A839171B DUP5 DUP1 LOG4 DUP1 RETURN JUMPDEST DUP4 MLOAD PUSH3 0x82B429 PUSH1 0xE8 SHL DUP2 MSTORE DUP4 SWAP1 REVERT JUMPDEST POP PUSH2 0x4D7 CALLER PUSH2 0x1523 JUMP JUMPDEST ISZERO PUSH2 0x453 JUMP JUMPDEST POP SWAP1 CALLVALUE PUSH2 0x2B1 JUMPI PUSH1 0x20 CALLDATASIZE PUSH1 0x3 NOT ADD SLT PUSH2 0x2B1 JUMPI DUP1 CALLDATALOAD SWAP1 PUSH1 0x1 DUP1 PUSH1 0xA0 SHL SUB DUP5 SLOAD AND CALLER EQ ISZERO DUP1 PUSH2 0x551 JUMPI JUMPDEST PUSH2 0x544 JUMPI POP SWAP1 PUSH32 0xD67BC9DE7209F558E46A19168D0D4F9049DA4CEC8B54ECEC7DC32BF1BA9346E2 SWAP2 PUSH1 0x9 SLOAD SWAP1 DUP1 PUSH1 0x9 SSTORE DUP3 MLOAD SWAP2 DUP3 MSTORE PUSH1 0x20 DUP3 ADD MSTORE LOG1 DUP1 RETURN JUMPDEST DUP3 MLOAD PUSH3 0x82B429 PUSH1 0xE8 SHL DUP2 MSTORE REVERT JUMPDEST POP PUSH2 0x55B CALLER PUSH2 0x1523 JUMP JUMPDEST ISZERO PUSH2 0x506 JUMP JUMPDEST DUP4 DUP3 CALLVALUE PUSH2 0x3F4 JUMPI DUP2 PUSH1 0x3 NOT CALLDATASIZE ADD SLT PUSH2 0x3F4 JUMPI PUSH1 0x20 SWAP1 PUSH1 0x7 SLOAD SWAP1 MLOAD SWAP1 DUP2 MSTORE RETURN JUMPDEST POP CALLVALUE PUSH2 0x2B1 JUMPI DUP1 PUSH1 0x3 NOT CALLDATASIZE ADD SLT PUSH2 0x2B1 JUMPI DUP2 CALLDATALOAD SWAP2 PUSH2 0x59C PUSH2 0x14DF JUMP JUMPDEST SWAP2 PUSH1 0x1 DUP1 PUSH1 0xA0 SHL SUB DUP1 DUP7 SLOAD AND CALLER EQ ISZERO DUP1 PUSH2 0x68D JUMPI JUMPDEST PUSH2 0x680 JUMPI DUP5 DUP7 MSTORE PUSH1 0x2 PUSH1 0x20 MSTORE PUSH1 0xFF PUSH1 0x1 DUP4 DUP9 KECCAK256 ADD SLOAD AND ISZERO PUSH2 0x672 JUMPI DUP5 DUP7 MSTORE PUSH1 0x2 PUSH1 0x20 MSTORE DUP2 DUP7 KECCAK256 SWAP4 AND SWAP3 DUP4 DUP7 MSTORE PUSH1 0x20 MSTORE DUP1 DUP6 KECCAK256 SWAP2 PUSH1 0xFF NOT SWAP3 DUP4 DUP2 SLOAD AND SWAP1 SSTORE PUSH1 0x0 DUP1 MLOAD PUSH1 0x20 PUSH2 0x16C8 DUP4 CODECOPY DUP2 MLOAD SWAP2 MSTORE DUP6 EQ PUSH1 0x0 EQ PUSH2 0x641 JUMPI POP DUP3 DUP6 MSTORE PUSH1 0x3 PUSH1 0x20 MSTORE DUP5 KECCAK256 SWAP1 DUP2 SLOAD AND SWAP1 SSTORE JUMPDEST CALLER SWAP2 PUSH32 0xF6391F5C32D9C69D2A47EA670B442974B53935D1EDC7FD64EB21E047A839171B DUP5 DUP1 LOG4 DUP1 RETURN JUMPDEST PUSH1 0x0 DUP1 MLOAD PUSH1 0x20 PUSH2 0x16A8 DUP4 CODECOPY DUP2 MLOAD SWAP2 MSTORE DUP6 EQ PUSH2 0x65F JUMPI JUMPDEST POP POP POP PUSH2 0x618 JUMP JUMPDEST PUSH1 0x20 MSTORE DUP5 KECCAK256 SWAP1 DUP2 SLOAD AND SWAP1 SSTORE CODESIZE DUP1 DUP1 PUSH2 0x657 JUMP JUMPDEST POP MLOAD PUSH4 0xAB874F3 PUSH1 0xE0 SHL DUP2 MSTORE REVERT JUMPDEST POP MLOAD PUSH3 0x82B429 PUSH1 0xE8 SHL DUP2 MSTORE REVERT JUMPDEST POP PUSH2 0x697 CALLER PUSH2 0x1523 JUMP JUMPDEST ISZERO PUSH2 0x5B1 JUMP JUMPDEST DUP4 DUP3 CALLVALUE PUSH2 0x3F4 JUMPI DUP2 PUSH1 0x3 NOT CALLDATASIZE ADD SLT PUSH2 0x3F4 JUMPI PUSH1 0x20 SWAP1 PUSH1 0x9 SLOAD SWAP1 MLOAD SWAP1 DUP2 MSTORE RETURN JUMPDEST POP SWAP1 CALLVALUE PUSH2 0x2B1 JUMPI PUSH1 0x20 CALLDATASIZE PUSH1 0x3 NOT ADD SLT PUSH2 0x2B1 JUMPI PUSH2 0x6D7 PUSH2 0x14C4 JUMP JUMPDEST DUP4 SLOAD PUSH1 0x1 PUSH1 0x1 PUSH1 0xA0 SHL SUB SWAP3 SWAP1 DUP4 AND CALLER EQ ISZERO DUP1 PUSH2 0x768 JUMPI JUMPDEST PUSH2 0x75B JUMPI POP AND DUP1 DUP4 MSTORE PUSH1 0x3 PUSH1 0x20 MSTORE DUP2 DUP4 KECCAK256 PUSH1 0xFF NOT SWAP1 DUP2 DUP2 SLOAD AND SWAP1 SSTORE PUSH1 0x0 DUP1 MLOAD PUSH1 0x20 PUSH2 0x16C8 DUP4 CODECOPY DUP2 MLOAD SWAP2 MSTORE SWAP3 DUP4 DUP6 MSTORE PUSH1 0x2 PUSH1 0x20 MSTORE DUP1 DUP6 KECCAK256 DUP4 DUP7 MSTORE PUSH1 0x20 MSTORE DUP5 KECCAK256 SWAP1 DUP2 SLOAD AND SWAP1 SSTORE CALLER SWAP2 PUSH32 0xF6391F5C32D9C69D2A47EA670B442974B53935D1EDC7FD64EB21E047A839171B DUP5 DUP1 LOG4 DUP1 RETURN JUMPDEST DUP4 MLOAD PUSH3 0x82B429 PUSH1 0xE8 SHL DUP2 MSTORE REVERT JUMPDEST POP PUSH2 0x772 CALLER PUSH2 0x1523 JUMP JUMPDEST ISZERO PUSH2 0x6EE JUMP JUMPDEST DUP4 DUP3 CALLVALUE PUSH2 0x3F4 JUMPI DUP2 PUSH1 0x3 NOT CALLDATASIZE ADD SLT PUSH2 0x3F4 JUMPI PUSH1 0x20 SWAP1 PUSH1 0x5 SLOAD SWAP1 MLOAD SWAP1 DUP2 MSTORE RETURN JUMPDEST POP SWAP1 CALLVALUE PUSH2 0x2B1 JUMPI PUSH1 0x20 CALLDATASIZE PUSH1 0x3 NOT ADD SLT PUSH2 0x2B1 JUMPI PUSH2 0x7B2 PUSH2 0x14C4 JUMP JUMPDEST DUP4 SLOAD PUSH1 0x1 PUSH1 0x1 PUSH1 0xA0 SHL SUB SWAP2 SWAP1 DUP3 AND CALLER EQ ISZERO DUP1 PUSH2 0x851 JUMPI JUMPDEST PUSH2 0x4BE JUMPI AND SWAP1 DUP2 ISZERO PUSH2 0x843 JUMPI POP DUP1 DUP4 MSTORE PUSH1 0x3 PUSH1 0x20 MSTORE DUP2 DUP4 KECCAK256 PUSH1 0xFF NOT SWAP1 PUSH1 0x1 DUP3 DUP3 SLOAD AND OR SWAP1 SSTORE PUSH1 0x1 PUSH1 0x0 DUP1 MLOAD PUSH1 0x20 PUSH2 0x16C8 DUP4 CODECOPY DUP2 MLOAD SWAP2 MSTORE SWAP4 DUP5 DUP7 MSTORE PUSH1 0x2 PUSH1 0x20 MSTORE DUP1 DUP7 KECCAK256 DUP5 DUP8 MSTORE PUSH1 0x20 MSTORE DUP6 KECCAK256 SWAP2 DUP3 SLOAD AND OR SWAP1 SSTORE CALLER SWAP2 PUSH32 0x2F8788117E7EFF1D82E926EC794901D17C78024A50270940304540A733656F0D DUP5 DUP1 LOG4 DUP1 RETURN JUMPDEST DUP3 MLOAD PUSH4 0xE6C4247B PUSH1 0xE0 SHL DUP2 MSTORE REVERT JUMPDEST POP PUSH2 0x85B CALLER PUSH2 0x1523 JUMP JUMPDEST ISZERO PUSH2 0x7C9 JUMP JUMPDEST POP CALLVALUE PUSH2 0x2B1 JUMPI DUP1 PUSH1 0x3 NOT CALLDATASIZE ADD SLT PUSH2 0x2B1 JUMPI SWAP2 PUSH1 0x20 SWAP3 PUSH2 0x87E PUSH2 0x14DF JUMP JUMPDEST SWAP3 CALLDATALOAD DUP3 MSTORE PUSH1 0x2 DUP5 MSTORE DUP1 DUP3 KECCAK256 SWAP2 PUSH1 0xFF PUSH1 0x1 DUP5 ADD SLOAD AND SWAP3 DUP4 PUSH2 0x8A4 JUMPI JUMPDEST DUP6 DUP5 DUP5 MLOAD SWAP1 ISZERO ISZERO DUP2 MSTORE RETURN JUMPDEST PUSH1 0xFF SWAP4 POP DUP3 SWAP5 PUSH1 0x1 DUP1 PUSH1 0xA0 SHL SUB AND DUP3 MSTORE DUP6 MSTORE KECCAK256 SLOAD AND DUP2 CODESIZE DUP1 PUSH2 0x899 JUMP JUMPDEST POP DUP3 SWAP1 CALLVALUE PUSH2 0x3F4 JUMPI PUSH1 0x80 CALLDATASIZE PUSH1 0x3 NOT ADD SLT PUSH2 0x3F4 JUMPI DUP3 CALLDATALOAD PUSH8 0xFFFFFFFFFFFFFFFF DUP2 GT PUSH2 0x2B1 JUMPI PUSH2 0x8F3 SWAP1 CALLDATASIZE SWAP1 DUP6 ADD PUSH2 0x14F5 JUMP JUMPDEST SWAP1 SWAP2 PUSH1 0x24 CALLDATALOAD SWAP1 PUSH1 0x44 CALLDATALOAD PUSH1 0x64 CALLDATALOAD SWAP2 PUSH2 0x909 CALLER PUSH2 0x15BB JUMP JUMPDEST ISZERO PUSH2 0xA00 JUMPI DUP1 MLOAD DUP6 DUP8 DUP3 CALLDATACOPY PUSH1 0x20 DUP2 DUP8 DUP2 ADD PUSH1 0x8 DUP2 MSTORE SUB ADD SWAP1 KECCAK256 SWAP8 DUP1 DUP10 ADD SLOAD SWAP1 DUP2 ISZERO PUSH2 0x9F2 JUMPI DUP10 SLOAD DUP7 LT DUP1 ISZERO SWAP1 PUSH2 0x9E4 JUMPI JUMPDEST DUP1 ISZERO PUSH2 0x9D6 JUMPI JUMPDEST ISZERO PUSH2 0x9C8 JUMPI PUSH2 0x955 PUSH1 0x3 DUP12 ADD SWAP3 DUP4 SLOAD PUSH2 0x1645 JUMP JUMPDEST TIMESTAMP LT PUSH2 0x9BA JUMPI POP PUSH1 0x5 PUSH32 0x64976C0742B8122F09EF6D98A7C63FBEBD6B9948EE768773BDD7D83AC0F53BF6 SWAP9 SWAP10 ADD PUSH1 0x1 PUSH1 0xFF NOT DUP3 SLOAD AND OR SWAP1 SSTORE TIMESTAMP SWAP1 SSTORE PUSH2 0x9A6 DUP2 MLOAD SWAP7 DUP8 SWAP7 PUSH1 0x80 DUP9 MSTORE PUSH1 0x80 DUP9 ADD SWAP2 PUSH2 0x1624 JUMP JUMPDEST SWAP4 PUSH1 0x20 DUP7 ADD MSTORE DUP5 ADD MSTORE PUSH1 0x60 DUP4 ADD MSTORE SUB SWAP1 LOG1 DUP1 RETURN JUMPDEST DUP3 MLOAD PUSH4 0x41D17FFD PUSH1 0xE1 SHL DUP2 MSTORE REVERT JUMPDEST DUP3 MLOAD PUSH4 0x729E7CF7 PUSH1 0xE1 SHL DUP2 MSTORE REVERT JUMPDEST POP PUSH1 0x2 DUP11 ADD SLOAD DUP6 LT ISZERO PUSH2 0x941 JUMP JUMPDEST POP PUSH1 0x1 DUP11 ADD SLOAD DUP5 LT ISZERO PUSH2 0x93A JUMP JUMPDEST DUP3 MLOAD PUSH4 0xB8F1E073 PUSH1 0xE0 SHL DUP2 MSTORE REVERT JUMPDEST MLOAD PUSH3 0x82B429 PUSH1 0xE8 SHL DUP2 MSTORE DUP8 SWAP1 REVERT JUMPDEST POP CALLVALUE PUSH2 0x2B1 JUMPI DUP3 PUSH1 0x3 NOT CALLDATASIZE ADD SLT PUSH2 0x2B1 JUMPI DUP3 SLOAD CALLER PUSH1 0x1 PUSH1 0x1 PUSH1 0xA0 SHL SUB SWAP2 DUP3 AND EQ ISZERO SWAP1 DUP2 PUSH2 0xAF5 JUMPI JUMPDEST POP DUP1 PUSH2 0xAE5 JUMPI JUMPDEST DUP1 PUSH2 0xA8F JUMPI JUMPDEST PUSH2 0xA83 JUMPI PUSH1 0x1 DUP1 SLOAD PUSH1 0xFF PUSH1 0xA0 SHL NOT AND PUSH1 0x1 PUSH1 0xA0 SHL OR SWAP1 SSTORE DUP3 CALLER PUSH32 0x62E78CEA01BEE320CD4E420270B5EA74000D11B0C9F74754EBDBFC544B05A258 DUP3 DUP1 LOG2 DUP1 RETURN JUMPDEST MLOAD PUSH3 0x82B429 PUSH1 0xE8 SHL DUP2 MSTORE REVERT JUMPDEST POP PUSH32 0x76B1A12AC8D9ED64DE3C0F66C2A19B21C0A3F9A1AFEC3F75BCD45F7B0794A1DE DUP4 MSTORE PUSH1 0x2 PUSH1 0x20 MSTORE DUP1 DUP4 KECCAK256 PUSH1 0xFF PUSH1 0x1 DUP3 ADD SLOAD AND SWAP1 DUP2 PUSH2 0xAD1 JUMPI JUMPDEST POP ISZERO PUSH2 0xA43 JUMP JUMPDEST CALLER DUP6 MSTORE PUSH1 0x20 MSTORE POP DUP1 DUP4 KECCAK256 SLOAD PUSH1 0xFF AND CODESIZE PUSH2 0xACA JUMP JUMPDEST POP PUSH2 0xAEF CALLER PUSH2 0x1523 JUMP JUMPDEST ISZERO PUSH2 0xA3D JUMP JUMPDEST SWAP1 POP PUSH1 0x1 SLOAD AND CALLER EQ ISZERO CODESIZE PUSH2 0xA36 JUMP JUMPDEST POP DUP3 CALLVALUE PUSH2 0xB7C JUMPI PUSH1 0x20 CALLDATASIZE PUSH1 0x3 NOT ADD SLT PUSH2 0xB7C JUMPI DUP3 CALLDATALOAD SWAP1 PUSH8 0xFFFFFFFFFFFFFFFF DUP3 GT PUSH2 0xB7C JUMPI POP PUSH1 0x20 SWAP3 PUSH2 0xB39 SWAP2 CALLDATASIZE SWAP2 ADD PUSH2 0x14F5 JUMP JUMPDEST PUSH1 0x1 SLOAD PUSH1 0xA0 SHR PUSH1 0xFF AND SWAP3 SWAP2 DUP4 ISZERO PUSH2 0xB55 JUMPI JUMPDEST POP POP MLOAD SWAP1 ISZERO ISZERO DUP2 MSTORE RETURN JUMPDEST DUP3 SWAP4 POP SWAP1 DUP5 PUSH1 0x5 SWAP3 DUP3 PUSH1 0xFF SWAP6 MLOAD SWAP4 DUP5 SWAP3 DUP4 CALLDATACOPY DUP2 ADD PUSH1 0x8 DUP2 MSTORE SUB ADD SWAP1 KECCAK256 ADD SLOAD AND SWAP1 DUP4 DUP1 PUSH2 0xB4B JUMP JUMPDEST DUP1 REVERT JUMPDEST DUP4 DUP3 CALLVALUE PUSH2 0x3F4 JUMPI DUP2 PUSH1 0x3 NOT CALLDATASIZE ADD SLT PUSH2 0x3F4 JUMPI PUSH1 0x20 SWAP1 PUSH1 0x6 SLOAD SWAP1 MLOAD SWAP1 DUP2 MSTORE RETURN JUMPDEST POP DUP3 SWAP1 CALLVALUE PUSH2 0x3F4 JUMPI PUSH1 0xA0 CALLDATASIZE PUSH1 0x3 NOT ADD SLT PUSH2 0x3F4 JUMPI PUSH8 0xFFFFFFFFFFFFFFFF SWAP1 DUP4 CALLDATALOAD DUP3 DUP2 GT PUSH2 0xD1F JUMPI PUSH2 0xBD2 SWAP1 CALLDATASIZE SWAP1 DUP7 ADD PUSH2 0x14F5 JUMP JUMPDEST SWAP2 SWAP1 SWAP3 PUSH1 0x24 CALLDATALOAD SWAP2 PUSH1 0x44 CALLDATALOAD PUSH1 0x64 CALLDATALOAD SWAP2 PUSH1 0x84 CALLDATALOAD SWAP4 PUSH1 0x1 DUP1 PUSH1 0xA0 SHL SUB DUP10 SLOAD AND CALLER EQ ISZERO DUP1 PUSH2 0xD0F JUMPI JUMPDEST PUSH2 0xD00 JUMPI DUP7 ISZERO PUSH2 0xCF0 JUMPI DUP5 ISZERO PUSH2 0xCF0 JUMPI DUP2 MLOAD SWAP1 PUSH1 0xC0 DUP3 ADD SWAP1 DUP2 GT DUP3 DUP3 LT OR PUSH2 0xCDD JUMPI DUP10 SWAP11 SWAP2 PUSH32 0x6FEA5AD7168D68F9EF5EE6EC975F3156EFC1CD538F1E5B9DF3F6D616E6341706 SWAP11 SWAP3 PUSH1 0x5 SWAP3 DUP6 MSTORE DUP9 DUP3 MSTORE DUP8 DUP12 PUSH1 0x20 DUP5 ADD DUP9 DUP2 MSTORE DUP8 DUP6 ADD SWAP1 DUP11 DUP3 MSTORE DUP14 PUSH1 0x20 PUSH1 0x60 DUP9 ADD SWAP5 DUP11 DUP7 MSTORE PUSH1 0x80 DUP10 ADD SWAP7 DUP8 MSTORE PUSH1 0xA0 DUP10 ADD SWAP11 DUP12 MSTORE DUP3 DUP13 MLOAD SWAP4 DUP5 SWAP3 DUP4 CALLDATACOPY DUP2 ADD PUSH1 0x8 DUP2 MSTORE SUB ADD SWAP1 KECCAK256 SWAP6 MLOAD DUP7 SSTORE MLOAD PUSH1 0x1 DUP7 ADD SSTORE MLOAD PUSH1 0x2 DUP6 ADD SSTORE MLOAD PUSH1 0x3 DUP5 ADD SSTORE MLOAD SWAP1 DUP3 ADD SSTORE ADD SWAP1 MLOAD ISZERO ISZERO PUSH1 0xFF DUP1 NOT DUP4 SLOAD AND SWAP2 AND OR SWAP1 SSTORE PUSH2 0xCC4 DUP2 MLOAD SWAP8 DUP9 SWAP8 PUSH1 0xA0 DUP10 MSTORE PUSH1 0xA0 DUP10 ADD SWAP2 PUSH2 0x1624 JUMP JUMPDEST SWAP5 PUSH1 0x20 DUP8 ADD MSTORE DUP6 ADD MSTORE PUSH1 0x60 DUP5 ADD MSTORE PUSH1 0x80 DUP4 ADD MSTORE SUB SWAP1 LOG1 DUP1 RETURN JUMPDEST PUSH4 0x4E487B71 PUSH1 0xE0 SHL DUP11 MSTORE PUSH1 0x41 DUP12 MSTORE PUSH1 0x24 DUP11 REVERT JUMPDEST DUP2 MLOAD PUSH4 0x309CB87 PUSH1 0xE5 SHL DUP2 MSTORE DUP11 SWAP1 REVERT JUMPDEST DUP2 MLOAD PUSH3 0x82B429 PUSH1 0xE8 SHL DUP2 MSTORE DUP11 SWAP1 REVERT JUMPDEST POP PUSH2 0xD19 CALLER PUSH2 0x1523 JUMP JUMPDEST ISZERO PUSH2 0xBF7 JUMP JUMPDEST DUP4 DUP1 REVERT JUMPDEST POP SWAP2 SWAP1 CALLVALUE PUSH2 0x3F4 JUMPI PUSH1 0x20 CALLDATASIZE PUSH1 0x3 NOT ADD SLT PUSH2 0x3F4 JUMPI DUP1 CALLDATALOAD PUSH8 0xFFFFFFFFFFFFFFFF DUP2 GT PUSH2 0x2B1 JUMPI PUSH2 0xD55 SWAP1 CALLDATASIZE SWAP1 DUP4 ADD PUSH2 0x14F5 JUMP JUMPDEST SWAP1 SWAP2 PUSH1 0x1 DUP1 PUSH1 0xA0 SHL SUB DUP5 SLOAD AND CALLER EQ ISZERO DUP1 PUSH2 0xE0C JUMPI JUMPDEST PUSH2 0xDFF JUMPI DUP5 MLOAD DUP3 DUP5 DUP3 CALLDATACOPY PUSH1 0x20 DUP2 DUP5 DUP2 ADD PUSH1 0x8 DUP2 MSTORE SUB ADD SWAP1 KECCAK256 DUP2 DUP2 ADD SLOAD ISZERO PUSH2 0xDF0 JUMPI PUSH1 0x5 ADD SWAP1 DUP2 SLOAD SWAP1 PUSH1 0xFF DUP3 AND ISZERO PUSH2 0xDE2 JUMPI POP SWAP5 PUSH2 0xDDC SWAP2 PUSH32 0xF9B6094402B8DD6AACDE1D951753F76A4087F721159A0C723C7CBFCC839367C4 SWAP6 SWAP7 PUSH1 0xFF NOT AND SWAP1 SSTORE MLOAD SWAP3 DUP4 SWAP3 PUSH1 0x20 DUP5 MSTORE PUSH1 0x20 DUP5 ADD SWAP2 PUSH2 0x1624 JUMP JUMPDEST SUB SWAP1 LOG1 DUP1 RETURN JUMPDEST DUP7 MLOAD PUSH4 0x11E35961 PUSH1 0xE0 SHL DUP2 MSTORE REVERT JUMPDEST POP DUP5 MLOAD PUSH4 0xB8F1E073 PUSH1 0xE0 SHL DUP2 MSTORE REVERT JUMPDEST DUP5 MLOAD PUSH3 0x82B429 PUSH1 0xE8 SHL DUP2 MSTORE REVERT JUMPDEST POP PUSH2 0xE16 CALLER PUSH2 0x1523 JUMP JUMPDEST ISZERO PUSH2 0xD6A JUMP JUMPDEST DUP4 DUP3 CALLVALUE PUSH2 0x3F4 JUMPI DUP2 PUSH1 0x3 NOT CALLDATASIZE ADD SLT PUSH2 0x3F4 JUMPI PUSH1 0x20 SWAP1 MLOAD PUSH32 0xDF8B4C520FFE197C5343C6F5AEC59570151EF9A492F2C624FD45DDDE6135EC42 DUP2 MSTORE RETURN JUMPDEST POP CALLVALUE PUSH2 0x2B1 JUMPI PUSH1 0x20 CALLDATASIZE PUSH1 0x3 NOT ADD SLT PUSH2 0x2B1 JUMPI PUSH2 0xE71 PUSH2 0x14C4 JUMP JUMPDEST DUP4 SLOAD PUSH1 0x1 PUSH1 0x1 PUSH1 0xA0 SHL SUB DUP1 DUP3 AND SWAP4 SWAP3 CALLER DUP6 EQ ISZERO DUP1 PUSH2 0xF3F JUMPI JUMPDEST PUSH2 0xF30 JUMPI AND SWAP4 DUP5 ISZERO PUSH2 0x843 JUMPI POP DUP4 SWAP1 PUSH12 0xFFFFFFFFFFFFFFFFFFFFFFFF PUSH1 0xA0 SHL AND OR DUP5 SSTORE PUSH32 0xDF8B4C520FFE197C5343C6F5AEC59570151EF9A492F2C624FD45DDDE6135EC42 SWAP1 DUP2 DUP6 MSTORE PUSH1 0x2 PUSH1 0x20 MSTORE DUP1 DUP6 KECCAK256 DUP5 DUP7 MSTORE PUSH1 0x20 MSTORE DUP1 DUP6 KECCAK256 SWAP2 PUSH1 0xFF NOT SWAP3 PUSH1 0x1 DUP5 DUP3 SLOAD AND OR SWAP1 SSTORE DUP6 MSTORE PUSH1 0x2 PUSH1 0x20 MSTORE DUP1 DUP6 KECCAK256 DUP4 DUP7 MSTORE PUSH1 0x20 MSTORE DUP5 KECCAK256 SWAP1 DUP2 SLOAD AND SWAP1 SSTORE PUSH32 0xF8CCB027DFCD135E000E9D45E6CC2D662578A8825D4C45B5E32E0ADF67E79EC6 DUP4 DUP1 LOG3 DUP1 RETURN JUMPDEST DUP4 MLOAD PUSH3 0x82B429 PUSH1 0xE8 SHL DUP2 MSTORE DUP7 SWAP1 REVERT JUMPDEST POP PUSH2 0xF49 CALLER PUSH2 0x1523 JUMP JUMPDEST ISZERO PUSH2 0xE8A JUMP JUMPDEST DUP4 DUP3 CALLVALUE PUSH2 0x3F4 JUMPI PUSH1 0x20 CALLDATASIZE PUSH1 0x3 NOT ADD SLT PUSH2 0x3F4 JUMPI PUSH1 0x20 SWAP2 DUP2 SWAP1 PUSH1 0x1 PUSH1 0x1 PUSH1 0xA0 SHL SUB PUSH2 0xF77 PUSH2 0x14C4 JUMP JUMPDEST AND DUP2 MSTORE PUSH1 0xB DUP5 MSTORE KECCAK256 SLOAD SWAP1 MLOAD SWAP1 DUP2 MSTORE RETURN JUMPDEST DUP4 DUP3 CALLVALUE PUSH2 0x3F4 JUMPI PUSH1 0x20 CALLDATASIZE PUSH1 0x3 NOT ADD SLT PUSH2 0x3F4 JUMPI PUSH1 0x20 SWAP2 DUP2 SWAP1 PUSH1 0x1 PUSH1 0x1 PUSH1 0xA0 SHL SUB PUSH2 0xFAF PUSH2 0x14C4 JUMP JUMPDEST AND DUP2 MSTORE PUSH1 0xA DUP5 MSTORE KECCAK256 SLOAD SWAP1 MLOAD SWAP1 DUP2 MSTORE RETURN JUMPDEST DUP4 DUP3 CALLVALUE PUSH2 0x3F4 JUMPI DUP2 PUSH1 0x3 NOT CALLDATASIZE ADD SLT PUSH2 0x3F4 JUMPI PUSH1 0x20 SWAP1 PUSH1 0xFF PUSH1 0x1 SLOAD PUSH1 0xA0 SHR AND SWAP1 MLOAD SWAP1 ISZERO ISZERO DUP2 MSTORE RETURN JUMPDEST POP SWAP1 CALLVALUE PUSH2 0x2B1 JUMPI PUSH1 0x20 CALLDATASIZE PUSH1 0x3 NOT ADD SLT PUSH2 0x2B1 JUMPI PUSH2 0x1001 PUSH2 0x14C4 JUMP JUMPDEST DUP4 SLOAD PUSH1 0x1 PUSH1 0x1 PUSH1 0xA0 SHL SUB SWAP2 SWAP1 DUP3 AND CALLER EQ ISZERO DUP1 PUSH2 0x108F JUMPI JUMPDEST PUSH2 0x4BE JUMPI AND SWAP1 DUP2 ISZERO PUSH2 0x843 JUMPI DUP2 DUP5 MSTORE PUSH1 0x20 MSTORE DUP2 DUP4 KECCAK256 PUSH1 0xFF NOT SWAP1 PUSH1 0x1 DUP3 DUP3 SLOAD AND OR SWAP1 SSTORE PUSH1 0x1 PUSH1 0x0 DUP1 MLOAD PUSH1 0x20 PUSH2 0x16A8 DUP4 CODECOPY DUP2 MLOAD SWAP2 MSTORE SWAP4 DUP5 DUP7 MSTORE PUSH1 0x2 PUSH1 0x20 MSTORE DUP1 DUP7 KECCAK256 DUP5 DUP8 MSTORE PUSH1 0x20 MSTORE DUP6 KECCAK256 SWAP2 DUP3 SLOAD AND OR SWAP1 SSTORE CALLER SWAP2 PUSH32 0x2F8788117E7EFF1D82E926EC794901D17C78024A50270940304540A733656F0D DUP5 DUP1 LOG4 DUP1 RETURN JUMPDEST POP PUSH2 0x1099 CALLER PUSH2 0x1523 JUMP JUMPDEST ISZERO PUSH2 0x1018 JUMP JUMPDEST DUP4 DUP3 CALLVALUE PUSH2 0x3F4 JUMPI DUP2 PUSH1 0x3 NOT CALLDATASIZE ADD SLT PUSH2 0x3F4 JUMPI PUSH1 0x1 SLOAD SWAP1 MLOAD PUSH1 0x1 PUSH1 0x1 PUSH1 0xA0 SHL SUB SWAP1 SWAP2 AND DUP2 MSTORE PUSH1 0x20 SWAP1 RETURN JUMPDEST POP CALLVALUE PUSH2 0x2B1 JUMPI DUP3 PUSH1 0x3 NOT CALLDATASIZE ADD SLT PUSH2 0x2B1 JUMPI DUP3 SLOAD PUSH1 0x1 PUSH1 0x1 PUSH1 0xA0 SHL SUB AND CALLER EQ ISZERO DUP1 PUSH2 0x1127 JUMPI JUMPDEST PUSH2 0xA83 JUMPI PUSH1 0x1 DUP1 SLOAD PUSH1 0xFF PUSH1 0xA0 SHL NOT AND SWAP1 SSTORE DUP3 CALLER PUSH32 0x5DB9EE0A495BF2E6FF9C91A7834C1BA4FDD244A5E8AA4E537BD38AEAE4B073AA DUP3 DUP1 LOG2 DUP1 RETURN JUMPDEST POP PUSH2 0x1131 CALLER PUSH2 0x1523 JUMP JUMPDEST ISZERO PUSH2 0x10ED JUMP JUMPDEST POP SWAP1 CALLVALUE PUSH2 0x2B1 JUMPI DUP2 PUSH1 0x3 NOT CALLDATASIZE ADD SLT PUSH2 0x2B1 JUMPI DUP1 CALLDATALOAD SWAP2 PUSH2 0x1154 PUSH2 0x14DF JUMP JUMPDEST DUP5 SLOAD PUSH1 0x1 PUSH1 0x1 PUSH1 0xA0 SHL SUB SWAP2 SWAP1 DUP3 AND CALLER EQ ISZERO DUP1 PUSH2 0x1259 JUMPI JUMPDEST PUSH2 0x124B JUMPI DUP5 DUP7 MSTORE PUSH1 0x2 PUSH1 0x20 MSTORE PUSH1 0xFF PUSH1 0x1 DUP5 DUP9 KECCAK256 ADD SLOAD AND ISZERO PUSH2 0x123C JUMPI AND SWAP2 DUP3 ISZERO PUSH2 0x284 JUMPI DUP4 DUP6 MSTORE PUSH1 0x2 PUSH1 0x20 MSTORE DUP2 DUP6 KECCAK256 DUP4 DUP7 MSTORE PUSH1 0x20 MSTORE DUP2 DUP6 KECCAK256 SWAP2 PUSH1 0xFF NOT SWAP3 PUSH1 0x1 DUP5 DUP3 SLOAD AND OR SWAP1 SSTORE PUSH1 0x0 DUP1 MLOAD PUSH1 0x20 PUSH2 0x16C8 DUP4 CODECOPY DUP2 MLOAD SWAP2 MSTORE DUP6 EQ PUSH1 0x0 EQ PUSH2 0x1207 JUMPI PUSH1 0x1 SWAP2 POP DUP4 DUP7 MSTORE PUSH1 0x3 PUSH1 0x20 MSTORE DUP6 KECCAK256 SWAP2 DUP3 SLOAD AND OR SWAP1 SSTORE JUMPDEST CALLER SWAP2 PUSH32 0x2F8788117E7EFF1D82E926EC794901D17C78024A50270940304540A733656F0D DUP5 DUP1 LOG4 DUP1 RETURN JUMPDEST PUSH1 0x0 DUP1 MLOAD PUSH1 0x20 PUSH2 0x16A8 DUP4 CODECOPY DUP2 MLOAD SWAP2 MSTORE DUP6 EQ PUSH2 0x1225 JUMPI JUMPDEST POP POP POP PUSH2 0x11DE JUMP JUMPDEST PUSH1 0x1 SWAP2 PUSH1 0x20 MSTORE DUP6 KECCAK256 SWAP2 DUP3 SLOAD AND OR SWAP1 SSTORE CODESIZE DUP1 DUP1 PUSH2 0x121D JUMP JUMPDEST POP POP MLOAD PUSH4 0xAB874F3 PUSH1 0xE0 SHL DUP2 MSTORE REVERT JUMPDEST POP POP MLOAD PUSH3 0x82B429 PUSH1 0xE8 SHL DUP2 MSTORE REVERT JUMPDEST POP PUSH2 0x1263 CALLER PUSH2 0x1523 JUMP JUMPDEST ISZERO PUSH2 0x116B JUMP JUMPDEST DUP4 DUP3 CALLVALUE PUSH2 0x3F4 JUMPI DUP2 PUSH1 0x3 NOT CALLDATASIZE ADD SLT PUSH2 0x3F4 JUMPI PUSH1 0x20 SWAP1 MLOAD PUSH32 0x76B1A12AC8D9ED64DE3C0F66C2A19B21C0A3F9A1AFEC3F75BCD45F7B0794A1DE DUP2 MSTORE RETURN JUMPDEST DUP4 DUP3 CALLVALUE PUSH2 0x3F4 JUMPI DUP2 PUSH1 0x3 NOT CALLDATASIZE ADD SLT PUSH2 0x3F4 JUMPI PUSH1 0x20 SWAP1 MLOAD PUSH1 0x0 DUP1 MLOAD PUSH1 0x20 PUSH2 0x16A8 DUP4 CODECOPY DUP2 MLOAD SWAP2 MSTORE DUP2 MSTORE RETURN JUMPDEST POP DUP3 SWAP1 CALLVALUE PUSH2 0x3F4 JUMPI DUP1 PUSH1 0x3 NOT CALLDATASIZE ADD SLT PUSH2 0x3F4 JUMPI DUP3 CALLDATALOAD PUSH1 0x24 CALLDATALOAD PUSH1 0x1 DUP1 PUSH1 0xA0 SHL SUB DUP5 SLOAD AND CALLER EQ ISZERO DUP1 PUSH2 0x1345 JUMPI JUMPDEST PUSH2 0x1336 JUMPI PUSH32 0xA1C0BF6E9EE4A5574378EE24369A750080EC44F0B9C0EB9F346D69355C2270FE SWAP4 SWAP5 POP DUP2 PUSH1 0x5 SSTORE DUP1 PUSH1 0x7 SSTORE DUP3 MLOAD SWAP2 DUP3 MSTORE PUSH1 0x20 DUP3 ADD MSTORE LOG1 DUP1 RETURN JUMPDEST DUP3 MLOAD PUSH3 0x82B429 PUSH1 0xE8 SHL DUP2 MSTORE DUP6 SWAP1 REVERT JUMPDEST POP PUSH2 0x134F CALLER PUSH2 0x1523 JUMP JUMPDEST ISZERO PUSH2 0x12F8 JUMP JUMPDEST DUP4 DUP3 CALLVALUE PUSH2 0x3F4 JUMPI DUP1 PUSH1 0x3 NOT CALLDATASIZE ADD SLT PUSH2 0x3F4 JUMPI PUSH1 0x20 SWAP1 PUSH2 0x137E PUSH2 0x1375 PUSH2 0x14C4 JUMP JUMPDEST PUSH1 0x24 CALLDATALOAD SWAP1 PUSH2 0x1668 JUMP JUMPDEST SWAP1 MLOAD SWAP1 ISZERO ISZERO DUP2 MSTORE RETURN JUMPDEST DUP4 DUP3 CALLVALUE PUSH2 0x3F4 JUMPI PUSH1 0x20 CALLDATASIZE PUSH1 0x3 NOT ADD SLT PUSH2 0x3F4 JUMPI PUSH1 0x20 SWAP2 PUSH1 0xFF SWAP1 DUP3 SWAP1 PUSH1 0x1 PUSH1 0x1 PUSH1 0xA0 SHL SUB PUSH2 0x13B2 PUSH2 0x14C4 JUMP JUMPDEST AND DUP2 MSTORE PUSH1 0x3 DUP6 MSTORE KECCAK256 SLOAD AND SWAP1 MLOAD SWAP1 ISZERO ISZERO DUP2 MSTORE RETURN JUMPDEST DUP3 DUP6 DUP6 CALLVALUE PUSH2 0x3F4 JUMPI PUSH1 0x20 SWAP2 DUP3 PUSH1 0x3 NOT CALLDATASIZE ADD SLT PUSH2 0xB7C JUMPI PUSH8 0xFFFFFFFFFFFFFFFF DUP3 CALLDATALOAD DUP2 DUP2 GT PUSH2 0x2B1 JUMPI CALLDATASIZE PUSH1 0x23 DUP3 ADD SLT ISZERO PUSH2 0x2B1 JUMPI DUP1 DUP5 ADD CALLDATALOAD SWAP2 DUP1 DUP4 GT PUSH2 0x14B1 JUMPI PUSH1 0x1F DUP4 ADD PUSH1 0x1F NOT SWAP1 DUP2 AND PUSH1 0x3F ADD AND DUP9 ADD SWAP1 DUP2 GT DUP9 DUP3 LT OR PUSH2 0x14B1 JUMPI DUP7 MSTORE DUP2 DUP8 MSTORE CALLDATASIZE PUSH1 0x24 DUP4 DUP4 ADD ADD GT PUSH2 0x2B1 JUMPI DUP2 DUP4 SWAP3 PUSH1 0x24 DUP8 SWAP4 ADD DUP4 DUP11 ADD CALLDATACOPY DUP8 ADD ADD MSTORE DUP4 MLOAD SWAP1 DUP6 MLOAD SWAP1 JUMPDEST DUP2 DUP2 LT PUSH2 0x14A0 JUMPI POP PUSH1 0xC0 SWAP6 POP DUP2 DUP5 SWAP2 DUP2 ADD PUSH1 0x8 DUP2 MSTORE SUB ADD SWAP1 KECCAK256 SWAP1 DUP2 SLOAD SWAP4 PUSH1 0x1 DUP4 ADD SLOAD SWAP1 PUSH1 0x2 DUP5 ADD SLOAD SWAP2 PUSH1 0xFF PUSH1 0x5 PUSH1 0x3 DUP8 ADD SLOAD SWAP6 DUP8 ADD SLOAD SWAP7 ADD SLOAD AND SWAP6 DUP3 MLOAD SWAP8 DUP9 MSTORE DUP8 ADD MSTORE DUP6 ADD MSTORE PUSH1 0x60 DUP5 ADD MSTORE PUSH1 0x80 DUP4 ADD MSTORE ISZERO ISZERO PUSH1 0xA0 DUP3 ADD MSTORE RETURN JUMPDEST DUP7 DUP2 ADD DUP6 ADD MLOAD DUP4 DUP3 ADD MSTORE DUP5 ADD PUSH2 0x1447 JUMP JUMPDEST PUSH4 0x4E487B71 PUSH1 0xE0 SHL DUP5 MSTORE PUSH1 0x41 DUP6 MSTORE PUSH1 0x24 DUP5 REVERT JUMPDEST PUSH1 0x4 CALLDATALOAD SWAP1 PUSH1 0x1 PUSH1 0x1 PUSH1 0xA0 SHL SUB DUP3 AND DUP3 SUB PUSH2 0x14DA JUMPI JUMP JUMPDEST PUSH1 0x0 DUP1 REVERT JUMPDEST PUSH1 0x24 CALLDATALOAD SWAP1 PUSH1 0x1 PUSH1 0x1 PUSH1 0xA0 SHL SUB DUP3 AND DUP3 SUB PUSH2 0x14DA JUMPI JUMP JUMPDEST SWAP2 DUP2 PUSH1 0x1F DUP5 ADD SLT ISZERO PUSH2 0x14DA JUMPI DUP3 CALLDATALOAD SWAP2 PUSH8 0xFFFFFFFFFFFFFFFF DUP4 GT PUSH2 0x14DA JUMPI PUSH1 0x20 DUP4 DUP2 DUP7 ADD SWAP6 ADD ADD GT PUSH2 0x14DA JUMPI JUMP JUMPDEST PUSH32 0xDF8B4C520FFE197C5343C6F5AEC59570151EF9A492F2C624FD45DDDE6135EC42 PUSH1 0x0 MSTORE PUSH1 0x2 PUSH1 0x20 MSTORE PUSH32 0x4D1342FDB801FA90273600E705279B9F18CDFD4113E09DB8A163B666EFFE5016 SLOAD PUSH1 0xFF AND SWAP1 PUSH32 0x4D1342FDB801FA90273600E705279B9F18CDFD4113E09DB8A163B666EFFE5015 SWAP1 DUP3 PUSH2 0x159E JUMPI POP POP SWAP1 JUMP JUMPDEST SWAP1 SWAP2 POP PUSH1 0x1 DUP1 PUSH1 0xA0 SHL SUB AND PUSH1 0x0 MSTORE PUSH1 0x20 MSTORE PUSH1 0xFF PUSH1 0x40 PUSH1 0x0 KECCAK256 SLOAD AND SWAP1 JUMP JUMPDEST PUSH1 0x0 DUP1 MLOAD PUSH1 0x20 PUSH2 0x16C8 DUP4 CODECOPY DUP2 MLOAD SWAP2 MSTORE PUSH1 0x0 MSTORE PUSH1 0x2 PUSH1 0x20 MSTORE PUSH32 0x46271A62C2758A98A95899248EA4BA742E7D977ED152524DABC01DCBD027ACED SLOAD PUSH1 0xFF AND SWAP1 PUSH32 0x46271A62C2758A98A95899248EA4BA742E7D977ED152524DABC01DCBD027ACEC SWAP1 DUP3 PUSH2 0x159E JUMPI POP POP SWAP1 JUMP JUMPDEST SWAP1 DUP1 PUSH1 0x20 SWAP4 SWAP3 DUP2 DUP5 MSTORE DUP5 DUP5 ADD CALLDATACOPY PUSH1 0x0 DUP3 DUP3 ADD DUP5 ADD MSTORE PUSH1 0x1F ADD PUSH1 0x1F NOT AND ADD ADD SWAP1 JUMP JUMPDEST SWAP2 SWAP1 DUP3 ADD DUP1 SWAP3 GT PUSH2 0x1652 JUMPI JUMP JUMPDEST PUSH4 0x4E487B71 PUSH1 0xE0 SHL PUSH1 0x0 MSTORE PUSH1 0x11 PUSH1 0x4 MSTORE PUSH1 0x24 PUSH1 0x0 REVERT JUMPDEST PUSH1 0x1 PUSH1 0x1 PUSH1 0xA0 SHL SUB AND PUSH1 0x0 SWAP1 DUP2 MSTORE PUSH1 0xB PUSH1 0x20 MSTORE PUSH1 0x40 SWAP1 KECCAK256 SLOAD PUSH3 0x15180 TIMESTAMP DIV GT PUSH2 0x169F JUMPI PUSH2 0x169F SWAP1 PUSH1 0xA PUSH1 0x20 MSTORE PUSH1 0x40 PUSH1 0x0 KECCAK256 SLOAD PUSH2 0x1645 JUMP JUMPDEST PUSH1 0x9 SLOAD LT ISZERO SWAP1 JUMP INVALID 0xEB CALLER MSTORE GT PUSH10 0xE672634FCAE38DCC3BAB SIGNEXTEND 0xE8 LOG0 DUP1 SMOD KECCAK256 STOP 0xCF 0xBD 0xC0 0xE0 COINBASE PUSH7 0x5D727C18523A70 BLOCKHASH JUMP 0xDC 0xD1 PUSH28 0xCF83BED8B68C59416DAC1119BE77755EFE3BDE0A64E46E0CA2646970 PUSH7 0x735822122024E1 0xE3 0xCD 0x4B 0x5C PUSH26 0xAAF4B150B167143EE45E5D01DFF363DD1D6A4FD08ED362C1264 PUSH20 0x6F6C634300081400330000000000000000000000 "},"methodIdentifiers":{"ADMIN_ROLE()":"75b238fc","EMERGENCY_ROLE()":"20df4359","LIQUIDATOR_ROLE()":"16d8887a","OPERATOR_ROLE()":"f5b541a6","addLiquidator(address)":"4c4e7f6f","addOperator(address)":"9870d7fe","admin()":"f851a440","assetCircuitBreakers(string)":"01a60175","circuitBreakerCooldown()":"d99f6d67","dailyWithdrawalAmount(address)":"6b36f995","grantRole(bytes32,address)":"2f2ff15d","guardian()":"452a9320","hasRole(bytes32,address)":"91d14854","isAssetPaused(string)":"82db4857","isWithdrawalAllowed(address,uint256)":"1577f905","lastCircuitBreakerTriggered()":"80fee0ab","lastWithdrawalDay(address)":"6f3744fb","liquidators(address)":"f90cdb36","maxDailyWithdrawal()":"b87d1bc5","operators(address)":"13e7c9d8","pause()":"8456cb59","paused()":"5c975abb","recordWithdrawal(address,uint256)":"fa17bb75","removeLiquidator(address)":"efb74400","removeOperator(address)":"ac8a584a","resetCircuitBreaker(string)":"775f5d3c","revokeRole(bytes32,address)":"d547741f","setAssetCircuitBreaker(string,uint256,uint256,uint256,uint256)":"7e8d698d","transferAdmin(address)":"75829def","triggerCircuitBreaker(string,uint256,uint256,uint256)":"8afdd405","unpause()":"3f4ba83a","updateCircuitBreakerParams(uint256,uint256)":"1635b24e","updateDailyWithdrawalLimit(uint256)":"e992c3dd","updateGuardian(address)":"fc525395","volatilityThreshold()":"9fe88c84"}}}}}