{"contracts/Vault.sol":{"Vault":{"abi":[{"inputs":[{"internalType":"address","name":"_securityModule","type":"address"}],"stateMutability":"nonpayable","type":"constructor"},{"inputs":[],"name":"InsufficientBalance","type":"error"},{"inputs":[],"name":"InvalidAmount","type":"error"},{"inputs":[{"internalType":"uint256","name":"unlockTime","type":"uint256"}],"name":"StillInLockupPeriod","type":"error"},{"inputs":[],"name":"SystemPaused","type":"error"},{"inputs":[],"name":"TransferFailed","type":"error"},{"inputs":[],"name":"Unauthorized","type":"error"},{"anonymous":false,"inputs":[{"indexed":true,"internalType":"address","name":"oldManager","type":"address"},{"indexed":true,"internalType":"address","name":"newManager","type":"address"}],"name":"CollateralManagerUpdated","type":"event"},{"anonymous":false,"inputs":[{"indexed":true,"internalType":"address","name":"user","type":"address"},{"indexed":false,"internalType":"uint256","name":"ethAmount","type":"uint256"},{"indexed":false,"internalType":"uint256","name":"olpAmount","type":"uint256"}],"name":"Deposited","type":"event"},{"anonymous":false,"inputs":[{"indexed":false,"internalType":"uint256","name":"oldPrice","type":"uint256"},{"indexed":false,"internalType":"uint256","name":"newPrice","type":"uint256"}],"name":"OLPPriceUpdated","type":"event"},{"anonymous":false,"inputs":[{"indexed":true,"internalType":"address","name":"previousOwner","type":"address"},{"indexed":true,"internalType":"address","name":"newOwner","type":"address"}],"name":"OwnershipTransferred","type":"event"},{"anonymous":false,"inputs":[{"indexed":false,"internalType":"uint256","name":"timestamp","type":"uint256"},{"indexed":false,"internalType":"uint256","name":"olpPrice","type":"uint256"},{"indexed":false,"internalType":"uint256","name":"totalVaultValue","type":"uint256"}],"name":"PerformanceRecorded","type":"event"},{"anonymous":false,"inputs":[{"indexed":false,"internalType":"uint256","name":"oldValue","type":"uint256"},{"indexed":false,"internalType":"uint256","name":"newValue","type":"uint256"}],"name":"VaultValueUpdated","type":"event"},{"anonymous":false,"inputs":[{"indexed":true,"internalType":"address","name":"user","type":"address"},{"indexed":false,"internalType":"uint256","name":"olpAmount","type":"uint256"},{"indexed":false,"internalType":"uint256","name":"ethAmount","type":"uint256"}],"name":"Withdrawn","type":"event"},{"inputs":[],"name":"LOCKUP_PERIOD","outputs":[{"internalType":"uint256","name":"","type":"uint256"}],"stateMutability":"view","type":"function"},{"inputs":[{"internalType":"uint256","name":"amount","type":"uint256"},{"internalType":"address","name":"recipient","type":"address"}],"name":"authorizedWithdrawal","outputs":[],"stateMutability":"nonpayable","type":"function"},{"inputs":[],"name":"collateralManager","outputs":[{"internalType":"address","name":"","type":"address"}],"stateMutability":"view","type":"function"},{"inputs":[],"name":"deposit","outputs":[],"stateMutability":"payable","type":"function"},{"inputs":[],"name":"getCurrentAPY","outputs":[{"internalType":"uint256","name":"","type":"uint256"}],"stateMutability":"view","type":"function"},{"inputs":[{"internalType":"uint256","name":"start","type":"uint256"},{"internalType":"uint256","name":"limit","type":"uint256"}],"name":"getPerformanceHistory","outputs":[{"internalType":"uint256[]","name":"timestamps","type":"uint256[]"},{"internalType":"uint256[]","name":"prices","type":"uint256[]"},{"internalType":"uint256[]","name":"values","type":"uint256[]"}],"stateMutability":"view","type":"function"},{"inputs":[{"internalType":"address","name":"user","type":"address"}],"name":"getUserPerformance","outputs":[{"internalType":"uint256","name":"olpAmount","type":"uint256"},{"internalType":"uint256","name":"ethValue","type":"uint256"},{"internalType":"int256","name":"performancePct","type":"int256"},{"internalType":"uint256","name":"unlockTime","type":"uint256"}],"stateMutability":"view","type":"function"},{"inputs":[],"name":"getVaultBalance","outputs":[{"internalType":"uint256","name":"","type":"uint256"}],"stateMutability":"view","type":"function"},{"inputs":[],"name":"lastPriceUpdate","outputs":[{"internalType":"uint256","name":"","type":"uint256"}],"stateMutability":"view","type":"function"},{"inputs":[],"name":"olpPrice","outputs":[{"internalType":"uint256","name":"","type":"uint256"}],"stateMutability":"view","type":"function"},{"inputs":[],"name":"olpSupply","outputs":[{"internalType":"uint256","name":"","type":"uint256"}],"stateMutability":"view","type":"function"},{"inputs":[],"name":"owner","outputs":[{"internalType":"address","name":"","type":"address"}],"stateMutability":"view","type":"function"},{"inputs":[{"internalType":"uint256","name":"","type":"uint256"}],"name":"performanceHistory","outputs":[{"internalType":"uint256","name":"timestamp","type":"uint256"},{"internalType":"uint256","name":"olpPrice","type":"uint256"},{"internalType":"uint256","name":"totalVaultValue","type":"uint256"},{"internalType":"uint256","name":"totalDeposits","type":"uint256"}],"stateMutability":"view","type":"function"},{"inputs":[],"name":"recordPerformance","outputs":[],"stateMutability":"nonpayable","type":"function"},{"inputs":[],"name":"securityModule","outputs":[{"internalType":"contract SecurityModule","name":"","type":"address"}],"stateMutability":"view","type":"function"},{"inputs":[{"internalType":"address","name":"_collateralManager","type":"address"}],"name":"setCollateralManager","outputs":[],"stateMutability":"nonpayable","type":"function"},{"inputs":[],"name":"totalDeposits","outputs":[{"internalType":"uint256","name":"","type":"uint256"}],"stateMutability":"view","type":"function"},{"inputs":[],"name":"totalVaultValue","outputs":[{"internalType":"uint256","name":"","type":"uint256"}],"stateMutability":"view","type":"function"},{"inputs":[{"internalType":"address","name":"newOwner","type":"address"}],"name":"transferOwnership","outputs":[],"stateMutability":"nonpayable","type":"function"},{"inputs":[],"name":"updateVaultValue","outputs":[],"stateMutability":"nonpayable","type":"function"},{"inputs":[{"internalType":"address","name":"","type":"address"}],"name":"userInfo","outputs":[{"internalType":"uint256","name":"olpAmount","type":"uint256"},{"internalType":"uint256","name":"lastDepositTime","type":"uint256"},{"internalType":"uint256","name":"initialDeposit","type":"uint256"},{"internalType":"uint256","name":"depositValue","type":"uint256"}],"stateMutability":"view","type":"function"},{"inputs":[{"internalType":"uint256","name":"olpAmount","type":"uint256"}],"name":"withdraw","outputs":[],"stateMutability":"nonpayable","type":"function"},{"stateMutability":"payable","type":"receive"}],"evm":{"bytecode":{"linkReferences":{},"object":"608034610190576001600160401b0390601f61146338819003918201601f191683019291908484118385101761019557816020928492604096875283398101031261019057516001600160a01b038116929083900361019057670de0b6b3a764000080600555831561014c57600180546001600160a01b03199081169095179055600080549094163317845542600755825191608083019081118382101761013857835242825260208201908152828201848152606083019185835260095468010000000000000000811015610124576001810180600955811015610110576020876009600397989952209060021b019451855551600185015551600284015551910155516112b790816101ac8239f35b634e487b7160e01b87526032600452602487fd5b634e487b7160e01b87526041600452602487fd5b634e487b7160e01b85526041600452602485fd5b825162461bcd60e51b815260206004820152601760248201527f496e76616c6964207365637572697479206d6f64756c650000000000000000006044820152606490fd5b600080fd5b634e487b7160e01b600052604160045260246000fdfe60806040908082526004908136101561002b575b505050361561002157600080fd5b610029610db3565b005b600090813560e01c9081631959a00214610b84575080631a94fee914610b295780631f987451146109c957806323be345c146109a0578063277870f1146109815780632e1a7d4d14610758578063380ef3fe1461072f5780633829dc3b146107105780636949faeb146106f15780637d882097146106d2578063842a05d4146105f85780638da5cb5b146105d0578063962ca496146105ac5780639ff90f3114610593578063afbc74b914610574578063d0e30db0146103d9578063d8b23553146103c0578063e86a29721461028b578063ec16d0761461026d578063ed12e8ef1461024e578063f2fde38b146101855763f9b6ee1b03610013573461018257826003193601126101825761016361017161017e8561014d6024358735611176565b9194908351968796606088526060880190610c54565b908682036020880152610c54565b9184830390850152610c54565b0390f35b80fd5b5091903461024a57602036600319011261024a576101a1610be9565b8354916001600160a01b03808416923384900361023b57169384156101f857505082907f8be0079c531659141344cd1fd0a4f28419497f9722a3daafe3b4186f6b6457e08580a36001600160a01b03191617815580f35b906020606492519162461bcd60e51b8352820152602060248201527f4e6577206f776e65722063616e6e6f74206265207a65726f20616464726573736044820152fd5b85516282b42960e81b81528390fd5b8280fd5b50823461026957816003193601126102695751478152602090f35b5080fd5b50823461026957816003193601126102695760209051620546008152f35b50913461024a578060031936011261024a5781356024356001600160a01b03808216908183036103bc576002541633036103ad578215610371571561033a57478211610300578480809381935af16102e1610d73565b50156102f357826102f0610db3565b80f35b516312171d8360e31b8152fd5b825162461bcd60e51b81526020818601526014602482015273496e73756666696369656e742062616c616e636560601b6044820152606490fd5b825162461bcd60e51b81526020818601526011602482015270125b9d985b1a59081c9958da5c1a595b9d607a1b6044820152606490fd5b835162461bcd60e51b8152602081870152601660248201527516995c9bc81dda5d1a191c985dd85b08185b5bdd5b9d60521b6044820152606490fd5b505050516282b42960e81b8152fd5b8680fd5b50346101825780600319360112610182576102f0610ea0565b508281600319360112610269576001548151635c975abb60e01b81526020929183908290879082906001600160a01b03165afa90811561056a57849161053d575b5061052e5734156104f757670de0b6b3a764000080340290348204036104e457906104697f73a19dd210f1a7f902193214c0ee91dd35ee5b4d920cba8d519eca65a7b488ca9260055490610d39565b3385526008845281852042600182015580546104ce573460028201553460038201555b610497828254610d59565b90556104a534600354610d59565b6003556104b481600654610d59565b6006556104bf610db3565b8151933485528401523392a280f35b600381016104dd348254610d59565b905561048c565b634e487b7160e01b845260118552602484fd5b5162461bcd60e51b81529283015250601360248201527216995c9bc819195c1bdcda5d08185b5bdd5b9d606a1b6044820152606490fd5b516301ca793160e61b81528390fd5b61055d9150833d8511610563575b6105558183610cd6565b810190610cf8565b8561041a565b503d61054b565b82513d86823e3d90fd5b5091903461024a578260031936011261024a5760209250549051908152f35b50346101825780600319360112610182576102f0610db3565b5082346102695781600319360112610269576020906105c9610f94565b9051908152f35b508234610269578160031936011261026957905490516001600160a01b039091168152602090f35b5091903461024a57602036600319011261024a57610614610be9565b83546001600160a01b03929190831633036106c4578216928315610676575050600254826bffffffffffffffffffffffff60a01b821617600255167fe2baa82f90636da9cbc73454915350116910bc672c698bcb73d4697d566d69198380a380f35b906020608492519162461bcd60e51b8352820152602260248201527f496e76616c696420636f6c6c61746572616c206d616e61676572206164647265604482015261737360f01b6064820152fd5b5082516282b42960e81b8152fd5b5082346102695781600319360112610269576020906003549051908152f35b5082346102695781600319360112610269576020906007549051908152f35b5082346102695781600319360112610269576020906006549051908152f35b50823461026957816003193601126102695760015490516001600160a01b039091168152602090f35b508234610269576020908160031936011261024a576001548151635c975abb60e01b81528535939182908290889082906001600160a01b03165afa90811561097757859161095a575b5061094a573384526008815281842090831591828015610940575b61093057600181015462054600810180911161091d578042106109075750670de0b6b3a764000090816107f160055488610d10565b04938447106108f757610805878354610d66565b9081835581159182610885575b505050505061082384600654610d66565b60065561082e610db3565b8480808085335af161083e610d73565b501561087557825193845283015233917f92ccf450a286a957af52509bc1c9939d1a6a481783e142e41e2499f0bb66ebc69190a280f35b82516312171d8360e31b81528690fd5b84890291898304861417156108e4576108af8a959493926108a98b6108c794610d59565b90610d39565b60038401946108c086549283610d10565b0490610d66565b83556108d5575b8080610812565b600283910155558487806108ce565b634e487b7160e01b8a5260118b5260248afd5b8551631e9acf1760e31b81528990fd5b876024918651916396348a4160e01b8352820152fd5b634e487b7160e01b875260118852602487fd5b835163162908e360e11b81528790fd5b50805485116107bc565b81516301ca793160e61b81528590fd5b6109719150823d8411610563576105558183610cd6565b866107a1565b83513d87823e3d90fd5b5082346102695781600319360112610269576020906005549051908152f35b50823461026957816003193601126102695760025490516001600160a01b039091168152602090f35b50829034610182576020366003190112610182576109e5610be9565b6001600160a01b0316815260086020528181208190610a0390610f62565b9283519360055490670de0b6b3a76400009182610a208289610d10565b0492848301918251610a6e575b5050506020015193620546008501809511610a5b575060809550815194855260208501528301526060820152f35b634e487b7160e01b815260118752602490fd5b83610a7d929394975051610d10565b04815190818111600014610ad857610a989150825190610d66565b9061271091828102928184041490151715610ac557602091610abb915190610d39565b935b908880610a2d565b634e487b7160e01b865260118852602486fd5b610ae191610d66565b9061271091828102928184041490151715610ac55751610b0091610d39565b600160ff1b8114610b1657602090850393610abd565b634e487b7160e01b855260118752602485fd5b5090346102695760203660031901126102695735906009548210156101825750610b5290610c04565b508054600182015460028301546003909301549351918252602082015260408101919091526060810191909152608090f35b9050833461024a57602036600319011261024a579091829161017e916001600160a01b03610bb0610be9565b16815260086020522080549060018101546003600283015492015492859094939260609260808301968352602083015260408201520152565b600435906001600160a01b0382168203610bff57565b600080fd5b600954811015610c3e57600960005260021b7f6e1540171b6c0c960b71a7020d9f60077f6af931a8bbf590da0223dacf75c7af0190600090565b634e487b7160e01b600052603260045260246000fd5b90815180825260208080930193019160005b828110610c74575050505090565b835185529381019392810192600101610c66565b6080810190811067ffffffffffffffff821117610ca457604052565b634e487b7160e01b600052604160045260246000fd5b6020810190811067ffffffffffffffff821117610ca457604052565b90601f8019910116810190811067ffffffffffffffff821117610ca457604052565b90816020910312610bff57518015158103610bff5790565b81810292918115918404141715610d2357565b634e487b7160e01b600052601160045260246000fd5b8115610d43570490565b634e487b7160e01b600052601260045260246000fd5b91908201809211610d2357565b91908203918211610d2357565b3d15610dae573d9067ffffffffffffffff8211610ca45760405191610da2601f8201601f191660200184610cd6565b82523d6000602084013e565b606090565b600454478060045560065480610e1b575b507f140f00a45e57cd588307f54f6e7f92bfd7185d7b0e9e78a224978795b5bc8ad09160409182519182526020820152a1600754610e108101809111610d2357421015610e0d57565b610e15610ea0565b42600755565b9160055491670de0b6b3a7640000808202908282041482151715610d235760408094610e897f140f00a45e57cd588307f54f6e7f92bfd7185d7b0e9e78a224978795b5bc8ad0977fd629e192420b67b048e2d86c80b35866fb5c8998f1c30a4bf67489c94fbed88c94610d39565b8060055582519182526020820152a1915091610dc4565b60055460045460035460405191610eb683610c88565b42835260208301938452604083019081526060830191825260095468010000000000000000811015610ca457806001610ef29201600955610c04565b949094610f4c57600393518555516001850155516002840155519101557f49486dbd6be152a280234d0b8b9e4800a401e0396357fe4600779c532118232260606005546004546040519142835260208301526040820152a1565b634e487b7160e01b600052600060045260246000fd5b90604051610f6f81610c88565b6060600382948054845260018101546020850152600281015460408501520154910152565b6009549060028210611112576000198201828111610d2357610fb8610fbe91610c04565b50610f62565b9115610c3e5760009160098352604051610fd781610c88565b620151806110827f6e1540171b6c0c960b71a7020d9f60077f6af931a8bbf590da0223dacf75c7af548084527f6e1540171b6c0c960b71a7020d9f60077f6af931a8bbf590da0223dacf75c7b05493602081019485527f6e1540171b6c0c960b71a7020d9f60077f6af931a8bbf590da0223dacf75c7b154604082015260607f6e1540171b6c0c960b71a7020d9f60077f6af931a8bbf590da0223dacf75c7b2549101528451610d66565b04916001831061110d578151908115611107579060206110a3920151610d66565b90612710918281029281840414901517156110f357516110c291610d39565b61016d90808202918204036110df576110dc929350610d39565b90565b634e487b7160e01b84526011600452602484fd5b634e487b7160e01b85526011600452602485fd5b50505050565b505050565b60009150565b67ffffffffffffffff8111610ca45760051b60200190565b9061113a82611118565b6111476040519182610cd6565b8281528092611158601f1991611118565b0190602036910137565b8051821015610c3e5760209160051b010190565b906009549081831015611242576111a191611192849283610d59565b9080821161123a575b50610d66565b916111ab83611130565b6111b484611130565b936111be81611130565b93600090815b8381106111d45750505050929190565b60406111eb610fb86111e68486610d59565b610c04565b80516111f78489611162565b526020810151611207848c611162565b5201516112148289611162565b526000198114611226576001016111c4565b634e487b7160e01b83526011600452602483fd5b90503861119b565b50505060405161125181610cba565b600081526040519161126283610cba565b600083526040519161127383610cba565b60008352600036813792919056fea264697066735822122064ef088b3e2da421c5b4f37013cdc09a5f9f85d227d4c878fa2c51efa7104e0364736f6c63430008140033","opcodes":"PUSH1 0x80 CALLVALUE PUSH2 0x190 JUMPI PUSH1 0x1 PUSH1 0x1 PUSH1 0x40 SHL SUB SWAP1 PUSH1 0x1F PUSH2 0x1463 CODESIZE DUP2 SWAP1 SUB SWAP2 DUP3 ADD PUSH1 0x1F NOT AND DUP4 ADD SWAP3 SWAP2 SWAP1 DUP5 DUP5 GT DUP4 DUP6 LT OR PUSH2 0x195 JUMPI DUP2 PUSH1 0x20 SWAP3 DUP5 SWAP3 PUSH1 0x40 SWAP7 DUP8 MSTORE DUP4 CODECOPY DUP2 ADD SUB SLT PUSH2 0x190 JUMPI MLOAD PUSH1 0x1 PUSH1 0x1 PUSH1 0xA0 SHL SUB DUP2 AND SWAP3 SWAP1 DUP4 SWAP1 SUB PUSH2 0x190 JUMPI PUSH8 0xDE0B6B3A7640000 DUP1 PUSH1 0x5 SSTORE DUP4 ISZERO PUSH2 0x14C JUMPI PUSH1 0x1 DUP1 SLOAD PUSH1 0x1 PUSH1 0x1 PUSH1 0xA0 SHL SUB NOT SWAP1 DUP2 AND SWAP1 SWAP6 OR SWAP1 SSTORE PUSH1 0x0 DUP1 SLOAD SWAP1 SWAP5 AND CALLER OR DUP5 SSTORE TIMESTAMP PUSH1 0x7 SSTORE DUP3 MLOAD SWAP2 PUSH1 0x80 DUP4 ADD SWAP1 DUP2 GT DUP4 DUP3 LT OR PUSH2 0x138 JUMPI DUP4 MSTORE TIMESTAMP DUP3 MSTORE PUSH1 0x20 DUP3 ADD SWAP1 DUP2 MSTORE DUP3 DUP3 ADD DUP5 DUP2 MSTORE PUSH1 0x60 DUP4 ADD SWAP2 DUP6 DUP4 MSTORE PUSH1 0x9 SLOAD PUSH9 0x10000000000000000 DUP2 LT ISZERO PUSH2 0x124 JUMPI PUSH1 0x1 DUP2 ADD DUP1 PUSH1 0x9 SSTORE DUP2 LT ISZERO PUSH2 0x110 JUMPI PUSH1 0x20 DUP8 PUSH1 0x9 PUSH1 0x3 SWAP8 SWAP9 SWAP10 MSTORE KECCAK256 SWAP1 PUSH1 0x2 SHL ADD SWAP5 MLOAD DUP6 SSTORE MLOAD PUSH1 0x1 DUP6 ADD SSTORE MLOAD PUSH1 0x2 DUP5 ADD SSTORE MLOAD SWAP2 ADD SSTORE MLOAD PUSH2 0x12B7 SWAP1 DUP2 PUSH2 0x1AC DUP3 CODECOPY RETURN JUMPDEST PUSH4 0x4E487B71 PUSH1 0xE0 SHL DUP8 MSTORE PUSH1 0x32 PUSH1 0x4 MSTORE PUSH1 0x24 DUP8 REVERT JUMPDEST PUSH4 0x4E487B71 PUSH1 0xE0 SHL DUP8 MSTORE PUSH1 0x41 PUSH1 0x4 MSTORE PUSH1 0x24 DUP8 REVERT JUMPDEST PUSH4 0x4E487B71 PUSH1 0xE0 SHL DUP6 MSTORE PUSH1 0x41 PUSH1 0x4 MSTORE PUSH1 0x24 DUP6 REVERT JUMPDEST DUP3 MLOAD PUSH3 0x461BCD PUSH1 0xE5 SHL DUP2 MSTORE PUSH1 0x20 PUSH1 0x4 DUP3 ADD MSTORE PUSH1 0x17 PUSH1 0x24 DUP3 ADD MSTORE PUSH32 0x496E76616C6964207365637572697479206D6F64756C65000000000000000000 PUSH1 0x44 DUP3 ADD MSTORE PUSH1 0x64 SWAP1 REVERT JUMPDEST PUSH1 0x0 DUP1 REVERT JUMPDEST PUSH4 0x4E487B71 PUSH1 0xE0 SHL PUSH1 0x0 MSTORE PUSH1 0x41 PUSH1 0x4 MSTORE PUSH1 0x24 PUSH1 0x0 REVERT INVALID PUSH1 0x80 PUSH1 0x40 SWAP1 DUP1 DUP3 MSTORE PUSH1 0x4 SWAP1 DUP2 CALLDATASIZE LT ISZERO PUSH2 0x2B JUMPI JUMPDEST POP POP POP CALLDATASIZE ISZERO PUSH2 0x21 JUMPI PUSH1 0x0 DUP1 REVERT JUMPDEST PUSH2 0x29 PUSH2 0xDB3 JUMP JUMPDEST STOP JUMPDEST PUSH1 0x0 SWAP1 DUP2 CALLDATALOAD PUSH1 0xE0 SHR SWAP1 DUP2 PUSH4 0x1959A002 EQ PUSH2 0xB84 JUMPI POP DUP1 PUSH4 0x1A94FEE9 EQ PUSH2 0xB29 JUMPI DUP1 PUSH4 0x1F987451 EQ PUSH2 0x9C9 JUMPI DUP1 PUSH4 0x23BE345C EQ PUSH2 0x9A0 JUMPI DUP1 PUSH4 0x277870F1 EQ PUSH2 0x981 JUMPI DUP1 PUSH4 0x2E1A7D4D EQ PUSH2 0x758 JUMPI DUP1 PUSH4 0x380EF3FE EQ PUSH2 0x72F JUMPI DUP1 PUSH4 0x3829DC3B EQ PUSH2 0x710 JUMPI DUP1 PUSH4 0x6949FAEB EQ PUSH2 0x6F1 JUMPI DUP1 PUSH4 0x7D882097 EQ PUSH2 0x6D2 JUMPI DUP1 PUSH4 0x842A05D4 EQ PUSH2 0x5F8 JUMPI DUP1 PUSH4 0x8DA5CB5B EQ PUSH2 0x5D0 JUMPI DUP1 PUSH4 0x962CA496 EQ PUSH2 0x5AC JUMPI DUP1 PUSH4 0x9FF90F31 EQ PUSH2 0x593 JUMPI DUP1 PUSH4 0xAFBC74B9 EQ PUSH2 0x574 JUMPI DUP1 PUSH4 0xD0E30DB0 EQ PUSH2 0x3D9 JUMPI DUP1 PUSH4 0xD8B23553 EQ PUSH2 0x3C0 JUMPI DUP1 PUSH4 0xE86A2972 EQ PUSH2 0x28B JUMPI DUP1 PUSH4 0xEC16D076 EQ PUSH2 0x26D JUMPI DUP1 PUSH4 0xED12E8EF EQ PUSH2 0x24E JUMPI DUP1 PUSH4 0xF2FDE38B EQ PUSH2 0x185 JUMPI PUSH4 0xF9B6EE1B SUB PUSH2 0x13 JUMPI CALLVALUE PUSH2 0x182 JUMPI DUP3 PUSH1 0x3 NOT CALLDATASIZE ADD SLT PUSH2 0x182 JUMPI PUSH2 0x163 PUSH2 0x171 PUSH2 0x17E DUP6 PUSH2 0x14D PUSH1 0x24 CALLDATALOAD DUP8 CALLDATALOAD PUSH2 0x1176 JUMP JUMPDEST SWAP2 SWAP5 SWAP1 DUP4 MLOAD SWAP7 DUP8 SWAP7 PUSH1 0x60 DUP9 MSTORE PUSH1 0x60 DUP9 ADD SWAP1 PUSH2 0xC54 JUMP JUMPDEST SWAP1 DUP7 DUP3 SUB PUSH1 0x20 DUP9 ADD MSTORE PUSH2 0xC54 JUMP JUMPDEST SWAP2 DUP5 DUP4 SUB SWAP1 DUP6 ADD MSTORE PUSH2 0xC54 JUMP JUMPDEST SUB SWAP1 RETURN JUMPDEST DUP1 REVERT JUMPDEST POP SWAP2 SWAP1 CALLVALUE PUSH2 0x24A JUMPI PUSH1 0x20 CALLDATASIZE PUSH1 0x3 NOT ADD SLT PUSH2 0x24A JUMPI PUSH2 0x1A1 PUSH2 0xBE9 JUMP JUMPDEST DUP4 SLOAD SWAP2 PUSH1 0x1 PUSH1 0x1 PUSH1 0xA0 SHL SUB DUP1 DUP5 AND SWAP3 CALLER DUP5 SWAP1 SUB PUSH2 0x23B JUMPI AND SWAP4 DUP5 ISZERO PUSH2 0x1F8 JUMPI POP POP DUP3 SWAP1 PUSH32 0x8BE0079C531659141344CD1FD0A4F28419497F9722A3DAAFE3B4186F6B6457E0 DUP6 DUP1 LOG3 PUSH1 0x1 PUSH1 0x1 PUSH1 0xA0 SHL SUB NOT AND OR DUP2 SSTORE DUP1 RETURN JUMPDEST SWAP1 PUSH1 0x20 PUSH1 0x64 SWAP3 MLOAD SWAP2 PUSH3 0x461BCD PUSH1 0xE5 SHL DUP4 MSTORE DUP3 ADD MSTORE PUSH1 0x20 PUSH1 0x24 DUP3 ADD MSTORE PUSH32 0x4E6577206F776E65722063616E6E6F74206265207A65726F2061646472657373 PUSH1 0x44 DUP3 ADD MSTORE REVERT JUMPDEST DUP6 MLOAD PUSH3 0x82B429 PUSH1 0xE8 SHL DUP2 MSTORE DUP4 SWAP1 REVERT JUMPDEST DUP3 DUP1 REVERT JUMPDEST POP DUP3 CALLVALUE PUSH2 0x269 JUMPI DUP2 PUSH1 0x3 NOT CALLDATASIZE ADD SLT PUSH2 0x269 JUMPI MLOAD SELFBALANCE DUP2 MSTORE PUSH1 0x20 SWAP1 RETURN JUMPDEST POP DUP1 REVERT JUMPDEST POP DUP3 CALLVALUE PUSH2 0x269 JUMPI DUP2 PUSH1 0x3 NOT CALLDATASIZE ADD SLT PUSH2 0x269 JUMPI PUSH1 0x20 SWAP1 MLOAD PUSH3 0x54600 DUP2 MSTORE RETURN JUMPDEST POP SWAP2 CALLVALUE PUSH2 0x24A JUMPI DUP1 PUSH1 0x3 NOT CALLDATASIZE ADD SLT PUSH2 0x24A JUMPI DUP2 CALLDATALOAD PUSH1 0x24 CALLDATALOAD PUSH1 0x1 PUSH1 0x1 PUSH1 0xA0 SHL SUB DUP1 DUP3 AND SWAP1 DUP2 DUP4 SUB PUSH2 0x3BC JUMPI PUSH1 0x2 SLOAD AND CALLER SUB PUSH2 0x3AD JUMPI DUP3 ISZERO PUSH2 0x371 JUMPI ISZERO PUSH2 0x33A JUMPI SELFBALANCE DUP3 GT PUSH2 0x300 JUMPI DUP5 DUP1 DUP1 SWAP4 DUP2 SWAP4 GAS CALL PUSH2 0x2E1 PUSH2 0xD73 JUMP JUMPDEST POP ISZERO PUSH2 0x2F3 JUMPI DUP3 PUSH2 0x2F0 PUSH2 0xDB3 JUMP JUMPDEST DUP1 RETURN JUMPDEST MLOAD PUSH4 0x12171D83 PUSH1 0xE3 SHL DUP2 MSTORE REVERT JUMPDEST DUP3 MLOAD PUSH3 0x461BCD PUSH1 0xE5 SHL DUP2 MSTORE PUSH1 0x20 DUP2 DUP7 ADD MSTORE PUSH1 0x14 PUSH1 0x24 DUP3 ADD MSTORE PUSH20 0x496E73756666696369656E742062616C616E6365 PUSH1 0x60 SHL PUSH1 0x44 DUP3 ADD MSTORE PUSH1 0x64 SWAP1 REVERT JUMPDEST DUP3 MLOAD PUSH3 0x461BCD PUSH1 0xE5 SHL DUP2 MSTORE PUSH1 0x20 DUP2 DUP7 ADD MSTORE PUSH1 0x11 PUSH1 0x24 DUP3 ADD MSTORE PUSH17 0x125B9D985B1A59081C9958DA5C1A595B9D PUSH1 0x7A SHL PUSH1 0x44 DUP3 ADD MSTORE PUSH1 0x64 SWAP1 REVERT JUMPDEST DUP4 MLOAD PUSH3 0x461BCD PUSH1 0xE5 SHL DUP2 MSTORE PUSH1 0x20 DUP2 DUP8 ADD MSTORE PUSH1 0x16 PUSH1 0x24 DUP3 ADD MSTORE PUSH22 0x16995C9BC81DDA5D1A191C985DD85B08185B5BDD5B9D PUSH1 0x52 SHL PUSH1 0x44 DUP3 ADD MSTORE PUSH1 0x64 SWAP1 REVERT JUMPDEST POP POP POP MLOAD PUSH3 0x82B429 PUSH1 0xE8 SHL DUP2 MSTORE REVERT JUMPDEST DUP7 DUP1 REVERT JUMPDEST POP CALLVALUE PUSH2 0x182 JUMPI DUP1 PUSH1 0x3 NOT CALLDATASIZE ADD SLT PUSH2 0x182 JUMPI PUSH2 0x2F0 PUSH2 0xEA0 JUMP JUMPDEST POP DUP3 DUP2 PUSH1 0x3 NOT CALLDATASIZE ADD SLT PUSH2 0x269 JUMPI PUSH1 0x1 SLOAD DUP2 MLOAD PUSH4 0x5C975ABB PUSH1 0xE0 SHL DUP2 MSTORE PUSH1 0x20 SWAP3 SWAP2 DUP4 SWAP1 DUP3 SWAP1 DUP8 SWAP1 DUP3 SWAP1 PUSH1 0x1 PUSH1 0x1 PUSH1 0xA0 SHL SUB AND GAS STATICCALL SWAP1 DUP2 ISZERO PUSH2 0x56A JUMPI DUP5 SWAP2 PUSH2 0x53D JUMPI JUMPDEST POP PUSH2 0x52E JUMPI CALLVALUE ISZERO PUSH2 0x4F7 JUMPI PUSH8 0xDE0B6B3A7640000 DUP1 CALLVALUE MUL SWAP1 CALLVALUE DUP3 DIV SUB PUSH2 0x4E4 JUMPI SWAP1 PUSH2 0x469 PUSH32 0x73A19DD210F1A7F902193214C0EE91DD35EE5B4D920CBA8D519ECA65A7B488CA SWAP3 PUSH1 0x5 SLOAD SWAP1 PUSH2 0xD39 JUMP JUMPDEST CALLER DUP6 MSTORE PUSH1 0x8 DUP5 MSTORE DUP2 DUP6 KECCAK256 TIMESTAMP PUSH1 0x1 DUP3 ADD SSTORE DUP1 SLOAD PUSH2 0x4CE JUMPI CALLVALUE PUSH1 0x2 DUP3 ADD SSTORE CALLVALUE PUSH1 0x3 DUP3 ADD SSTORE JUMPDEST PUSH2 0x497 DUP3 DUP3 SLOAD PUSH2 0xD59 JUMP JUMPDEST SWAP1 SSTORE PUSH2 0x4A5 CALLVALUE PUSH1 0x3 SLOAD PUSH2 0xD59 JUMP JUMPDEST PUSH1 0x3 SSTORE PUSH2 0x4B4 DUP2 PUSH1 0x6 SLOAD PUSH2 0xD59 JUMP JUMPDEST PUSH1 0x6 SSTORE PUSH2 0x4BF PUSH2 0xDB3 JUMP JUMPDEST DUP2 MLOAD SWAP4 CALLVALUE DUP6 MSTORE DUP5 ADD MSTORE CALLER SWAP3 LOG2 DUP1 RETURN JUMPDEST PUSH1 0x3 DUP2 ADD PUSH2 0x4DD CALLVALUE DUP3 SLOAD PUSH2 0xD59 JUMP JUMPDEST SWAP1 SSTORE PUSH2 0x48C JUMP JUMPDEST PUSH4 0x4E487B71 PUSH1 0xE0 SHL DUP5 MSTORE PUSH1 0x11 DUP6 MSTORE PUSH1 0x24 DUP5 REVERT JUMPDEST MLOAD PUSH3 0x461BCD PUSH1 0xE5 SHL DUP2 MSTORE SWAP3 DUP4 ADD MSTORE POP PUSH1 0x13 PUSH1 0x24 DUP3 ADD MSTORE PUSH19 0x16995C9BC819195C1BDCDA5D08185B5BDD5B9D PUSH1 0x6A SHL PUSH1 0x44 DUP3 ADD MSTORE PUSH1 0x64 SWAP1 REVERT JUMPDEST MLOAD PUSH4 0x1CA7931 PUSH1 0xE6 SHL DUP2 MSTORE DUP4 SWAP1 REVERT JUMPDEST PUSH2 0x55D SWAP2 POP DUP4 RETURNDATASIZE DUP6 GT PUSH2 0x563 JUMPI JUMPDEST PUSH2 0x555 DUP2 DUP4 PUSH2 0xCD6 JUMP JUMPDEST DUP2 ADD SWAP1 PUSH2 0xCF8 JUMP JUMPDEST DUP6 PUSH2 0x41A JUMP JUMPDEST POP RETURNDATASIZE PUSH2 0x54B JUMP JUMPDEST DUP3 MLOAD RETURNDATASIZE DUP7 DUP3 RETURNDATACOPY RETURNDATASIZE SWAP1 REVERT JUMPDEST POP SWAP2 SWAP1 CALLVALUE PUSH2 0x24A JUMPI DUP3 PUSH1 0x3 NOT CALLDATASIZE ADD SLT PUSH2 0x24A JUMPI PUSH1 0x20 SWAP3 POP SLOAD SWAP1 MLOAD SWAP1 DUP2 MSTORE RETURN JUMPDEST POP CALLVALUE PUSH2 0x182 JUMPI DUP1 PUSH1 0x3 NOT CALLDATASIZE ADD SLT PUSH2 0x182 JUMPI PUSH2 0x2F0 PUSH2 0xDB3 JUMP JUMPDEST POP DUP3 CALLVALUE PUSH2 0x269 JUMPI DUP2 PUSH1 0x3 NOT CALLDATASIZE ADD SLT PUSH2 0x269 JUMPI PUSH1 0x20 SWAP1 PUSH2 0x5C9 PUSH2 0xF94 JUMP JUMPDEST SWAP1 MLOAD SWAP1 DUP2 MSTORE RETURN JUMPDEST POP DUP3 CALLVALUE PUSH2 0x269 JUMPI DUP2 PUSH1 0x3 NOT CALLDATASIZE ADD SLT PUSH2 0x269 JUMPI SWAP1 SLOAD SWAP1 MLOAD PUSH1 0x1 PUSH1 0x1 PUSH1 0xA0 SHL SUB SWAP1 SWAP2 AND DUP2 MSTORE PUSH1 0x20 SWAP1 RETURN JUMPDEST POP SWAP2 SWAP1 CALLVALUE PUSH2 0x24A JUMPI PUSH1 0x20 CALLDATASIZE PUSH1 0x3 NOT ADD SLT PUSH2 0x24A JUMPI PUSH2 0x614 PUSH2 0xBE9 JUMP JUMPDEST DUP4 SLOAD PUSH1 0x1 PUSH1 0x1 PUSH1 0xA0 SHL SUB SWAP3 SWAP2 SWAP1 DUP4 AND CALLER SUB PUSH2 0x6C4 JUMPI DUP3 AND SWAP3 DUP4 ISZERO PUSH2 0x676 JUMPI POP POP PUSH1 0x2 SLOAD DUP3 PUSH12 0xFFFFFFFFFFFFFFFFFFFFFFFF PUSH1 0xA0 SHL DUP3 AND OR PUSH1 0x2 SSTORE AND PUSH32 0xE2BAA82F90636DA9CBC73454915350116910BC672C698BCB73D4697D566D6919 DUP4 DUP1 LOG3 DUP1 RETURN JUMPDEST SWAP1 PUSH1 0x20 PUSH1 0x84 SWAP3 MLOAD SWAP2 PUSH3 0x461BCD PUSH1 0xE5 SHL DUP4 MSTORE DUP3 ADD MSTORE PUSH1 0x22 PUSH1 0x24 DUP3 ADD MSTORE PUSH32 0x496E76616C696420636F6C6C61746572616C206D616E61676572206164647265 PUSH1 0x44 DUP3 ADD MSTORE PUSH2 0x7373 PUSH1 0xF0 SHL PUSH1 0x64 DUP3 ADD MSTORE REVERT JUMPDEST POP DUP3 MLOAD PUSH3 0x82B429 PUSH1 0xE8 SHL DUP2 MSTORE REVERT JUMPDEST POP DUP3 CALLVALUE PUSH2 0x269 JUMPI DUP2 PUSH1 0x3 NOT CALLDATASIZE ADD SLT PUSH2 0x269 JUMPI PUSH1 0x20 SWAP1 PUSH1 0x3 SLOAD SWAP1 MLOAD SWAP1 DUP2 MSTORE RETURN JUMPDEST POP DUP3 CALLVALUE PUSH2 0x269 JUMPI DUP2 PUSH1 0x3 NOT CALLDATASIZE ADD SLT PUSH2 0x269 JUMPI PUSH1 0x20 SWAP1 PUSH1 0x7 SLOAD SWAP1 MLOAD SWAP1 DUP2 MSTORE RETURN JUMPDEST POP DUP3 CALLVALUE PUSH2 0x269 JUMPI DUP2 PUSH1 0x3 NOT CALLDATASIZE ADD SLT PUSH2 0x269 JUMPI PUSH1 0x20 SWAP1 PUSH1 0x6 SLOAD SWAP1 MLOAD SWAP1 DUP2 MSTORE RETURN JUMPDEST POP DUP3 CALLVALUE PUSH2 0x269 JUMPI DUP2 PUSH1 0x3 NOT CALLDATASIZE ADD SLT PUSH2 0x269 JUMPI PUSH1 0x1 SLOAD SWAP1 MLOAD PUSH1 0x1 PUSH1 0x1 PUSH1 0xA0 SHL SUB SWAP1 SWAP2 AND DUP2 MSTORE PUSH1 0x20 SWAP1 RETURN JUMPDEST POP DUP3 CALLVALUE PUSH2 0x269 JUMPI PUSH1 0x20 SWAP1 DUP2 PUSH1 0x3 NOT CALLDATASIZE ADD SLT PUSH2 0x24A JUMPI PUSH1 0x1 SLOAD DUP2 MLOAD PUSH4 0x5C975ABB PUSH1 0xE0 SHL DUP2 MSTORE DUP6 CALLDATALOAD SWAP4 SWAP2 DUP3 SWAP1 DUP3 SWAP1 DUP9 SWAP1 DUP3 SWAP1 PUSH1 0x1 PUSH1 0x1 PUSH1 0xA0 SHL SUB AND GAS STATICCALL SWAP1 DUP2 ISZERO PUSH2 0x977 JUMPI DUP6 SWAP2 PUSH2 0x95A JUMPI JUMPDEST POP PUSH2 0x94A JUMPI CALLER DUP5 MSTORE PUSH1 0x8 DUP2 MSTORE DUP2 DUP5 KECCAK256 SWAP1 DUP4 ISZERO SWAP2 DUP3 DUP1 ISZERO PUSH2 0x940 JUMPI JUMPDEST PUSH2 0x930 JUMPI PUSH1 0x1 DUP2 ADD SLOAD PUSH3 0x54600 DUP2 ADD DUP1 SWAP2 GT PUSH2 0x91D JUMPI DUP1 TIMESTAMP LT PUSH2 0x907 JUMPI POP PUSH8 0xDE0B6B3A7640000 SWAP1 DUP2 PUSH2 0x7F1 PUSH1 0x5 SLOAD DUP9 PUSH2 0xD10 JUMP JUMPDEST DIV SWAP4 DUP5 SELFBALANCE LT PUSH2 0x8F7 JUMPI PUSH2 0x805 DUP8 DUP4 SLOAD PUSH2 0xD66 JUMP JUMPDEST SWAP1 DUP2 DUP4 SSTORE DUP2 ISZERO SWAP2 DUP3 PUSH2 0x885 JUMPI JUMPDEST POP POP POP POP POP PUSH2 0x823 DUP5 PUSH1 0x6 SLOAD PUSH2 0xD66 JUMP JUMPDEST PUSH1 0x6 SSTORE PUSH2 0x82E PUSH2 0xDB3 JUMP JUMPDEST DUP5 DUP1 DUP1 DUP1 DUP6 CALLER GAS CALL PUSH2 0x83E PUSH2 0xD73 JUMP JUMPDEST POP ISZERO PUSH2 0x875 JUMPI DUP3 MLOAD SWAP4 DUP5 MSTORE DUP4 ADD MSTORE CALLER SWAP2 PUSH32 0x92CCF450A286A957AF52509BC1C9939D1A6A481783E142E41E2499F0BB66EBC6 SWAP2 SWAP1 LOG2 DUP1 RETURN JUMPDEST DUP3 MLOAD PUSH4 0x12171D83 PUSH1 0xE3 SHL DUP2 MSTORE DUP7 SWAP1 REVERT JUMPDEST DUP5 DUP10 MUL SWAP2 DUP10 DUP4 DIV DUP7 EQ OR ISZERO PUSH2 0x8E4 JUMPI PUSH2 0x8AF DUP11 SWAP6 SWAP5 SWAP4 SWAP3 PUSH2 0x8A9 DUP12 PUSH2 0x8C7 SWAP5 PUSH2 0xD59 JUMP JUMPDEST SWAP1 PUSH2 0xD39 JUMP JUMPDEST PUSH1 0x3 DUP5 ADD SWAP5 PUSH2 0x8C0 DUP7 SLOAD SWAP3 DUP4 PUSH2 0xD10 JUMP JUMPDEST DIV SWAP1 PUSH2 0xD66 JUMP JUMPDEST DUP4 SSTORE PUSH2 0x8D5 JUMPI JUMPDEST DUP1 DUP1 PUSH2 0x812 JUMP JUMPDEST PUSH1 0x2 DUP4 SWAP2 ADD SSTORE SSTORE DUP5 DUP8 DUP1 PUSH2 0x8CE JUMP JUMPDEST PUSH4 0x4E487B71 PUSH1 0xE0 SHL DUP11 MSTORE PUSH1 0x11 DUP12 MSTORE PUSH1 0x24 DUP11 REVERT JUMPDEST DUP6 MLOAD PUSH4 0x1E9ACF17 PUSH1 0xE3 SHL DUP2 MSTORE DUP10 SWAP1 REVERT JUMPDEST DUP8 PUSH1 0x24 SWAP2 DUP7 MLOAD SWAP2 PUSH4 0x96348A41 PUSH1 0xE0 SHL DUP4 MSTORE DUP3 ADD MSTORE REVERT JUMPDEST PUSH4 0x4E487B71 PUSH1 0xE0 SHL DUP8 MSTORE PUSH1 0x11 DUP9 MSTORE PUSH1 0x24 DUP8 REVERT JUMPDEST DUP4 MLOAD PUSH4 0x162908E3 PUSH1 0xE1 SHL DUP2 MSTORE DUP8 SWAP1 REVERT JUMPDEST POP DUP1 SLOAD DUP6 GT PUSH2 0x7BC JUMP JUMPDEST DUP2 MLOAD PUSH4 0x1CA7931 PUSH1 0xE6 SHL DUP2 MSTORE DUP6 SWAP1 REVERT JUMPDEST PUSH2 0x971 SWAP2 POP DUP3 RETURNDATASIZE DUP5 GT PUSH2 0x563 JUMPI PUSH2 0x555 DUP2 DUP4 PUSH2 0xCD6 JUMP JUMPDEST DUP7 PUSH2 0x7A1 JUMP JUMPDEST DUP4 MLOAD RETURNDATASIZE DUP8 DUP3 RETURNDATACOPY RETURNDATASIZE SWAP1 REVERT JUMPDEST POP DUP3 CALLVALUE PUSH2 0x269 JUMPI DUP2 PUSH1 0x3 NOT CALLDATASIZE ADD SLT PUSH2 0x269 JUMPI PUSH1 0x20 SWAP1 PUSH1 0x5 SLOAD SWAP1 MLOAD SWAP1 DUP2 MSTORE RETURN JUMPDEST POP DUP3 CALLVALUE PUSH2 0x269 JUMPI DUP2 PUSH1 0x3 NOT CALLDATASIZE ADD SLT PUSH2 0x269 JUMPI PUSH1 0x2 SLOAD SWAP1 MLOAD PUSH1 0x1 PUSH1 0x1 PUSH1 0xA0 SHL SUB SWAP1 SWAP2 AND DUP2 MSTORE PUSH1 0x20 SWAP1 RETURN JUMPDEST POP DUP3 SWAP1 CALLVALUE PUSH2 0x182 JUMPI PUSH1 0x20 CALLDATASIZE PUSH1 0x3 NOT ADD SLT PUSH2 0x182 JUMPI PUSH2 0x9E5 PUSH2 0xBE9 JUMP JUMPDEST PUSH1 0x1 PUSH1 0x1 PUSH1 0xA0 SHL SUB AND DUP2 MSTORE PUSH1 0x8 PUSH1 0x20 MSTORE DUP2 DUP2 KECCAK256 DUP2 SWAP1 PUSH2 0xA03 SWAP1 PUSH2 0xF62 JUMP JUMPDEST SWAP3 DUP4 MLOAD SWAP4 PUSH1 0x5 SLOAD SWAP1 PUSH8 0xDE0B6B3A7640000 SWAP2 DUP3 PUSH2 0xA20 DUP3 DUP10 PUSH2 0xD10 JUMP JUMPDEST DIV SWAP3 DUP5 DUP4 ADD SWAP2 DUP3 MLOAD PUSH2 0xA6E JUMPI JUMPDEST POP POP POP PUSH1 0x20 ADD MLOAD SWAP4 PUSH3 0x54600 DUP6 ADD DUP1 SWAP6 GT PUSH2 0xA5B JUMPI POP PUSH1 0x80 SWAP6 POP DUP2 MLOAD SWAP5 DUP6 MSTORE PUSH1 0x20 DUP6 ADD MSTORE DUP4 ADD MSTORE PUSH1 0x60 DUP3 ADD MSTORE RETURN JUMPDEST PUSH4 0x4E487B71 PUSH1 0xE0 SHL DUP2 MSTORE PUSH1 0x11 DUP8 MSTORE PUSH1 0x24 SWAP1 REVERT JUMPDEST DUP4 PUSH2 0xA7D SWAP3 SWAP4 SWAP5 SWAP8 POP MLOAD PUSH2 0xD10 JUMP JUMPDEST DIV DUP2 MLOAD SWAP1 DUP2 DUP2 GT PUSH1 0x0 EQ PUSH2 0xAD8 JUMPI PUSH2 0xA98 SWAP2 POP DUP3 MLOAD SWAP1 PUSH2 0xD66 JUMP JUMPDEST SWAP1 PUSH2 0x2710 SWAP2 DUP3 DUP2 MUL SWAP3 DUP2 DUP5 DIV EQ SWAP1 ISZERO OR ISZERO PUSH2 0xAC5 JUMPI PUSH1 0x20 SWAP2 PUSH2 0xABB SWAP2 MLOAD SWAP1 PUSH2 0xD39 JUMP JUMPDEST SWAP4 JUMPDEST SWAP1 DUP9 DUP1 PUSH2 0xA2D JUMP JUMPDEST PUSH4 0x4E487B71 PUSH1 0xE0 SHL DUP7 MSTORE PUSH1 0x11 DUP9 MSTORE PUSH1 0x24 DUP7 REVERT JUMPDEST PUSH2 0xAE1 SWAP2 PUSH2 0xD66 JUMP JUMPDEST SWAP1 PUSH2 0x2710 SWAP2 DUP3 DUP2 MUL SWAP3 DUP2 DUP5 DIV EQ SWAP1 ISZERO OR ISZERO PUSH2 0xAC5 JUMPI MLOAD PUSH2 0xB00 SWAP2 PUSH2 0xD39 JUMP JUMPDEST PUSH1 0x1 PUSH1 0xFF SHL DUP2 EQ PUSH2 0xB16 JUMPI PUSH1 0x20 SWAP1 DUP6 SUB SWAP4 PUSH2 0xABD JUMP JUMPDEST PUSH4 0x4E487B71 PUSH1 0xE0 SHL DUP6 MSTORE PUSH1 0x11 DUP8 MSTORE PUSH1 0x24 DUP6 REVERT JUMPDEST POP SWAP1 CALLVALUE PUSH2 0x269 JUMPI PUSH1 0x20 CALLDATASIZE PUSH1 0x3 NOT ADD SLT PUSH2 0x269 JUMPI CALLDATALOAD SWAP1 PUSH1 0x9 SLOAD DUP3 LT ISZERO PUSH2 0x182 JUMPI POP PUSH2 0xB52 SWAP1 PUSH2 0xC04 JUMP JUMPDEST POP DUP1 SLOAD PUSH1 0x1 DUP3 ADD SLOAD PUSH1 0x2 DUP4 ADD SLOAD PUSH1 0x3 SWAP1 SWAP4 ADD SLOAD SWAP4 MLOAD SWAP2 DUP3 MSTORE PUSH1 0x20 DUP3 ADD MSTORE PUSH1 0x40 DUP2 ADD SWAP2 SWAP1 SWAP2 MSTORE PUSH1 0x60 DUP2 ADD SWAP2 SWAP1 SWAP2 MSTORE PUSH1 0x80 SWAP1 RETURN JUMPDEST SWAP1 POP DUP4 CALLVALUE PUSH2 0x24A JUMPI PUSH1 0x20 CALLDATASIZE PUSH1 0x3 NOT ADD SLT PUSH2 0x24A JUMPI SWAP1 SWAP2 DUP3 SWAP2 PUSH2 0x17E SWAP2 PUSH1 0x1 PUSH1 0x1 PUSH1 0xA0 SHL SUB PUSH2 0xBB0 PUSH2 0xBE9 JUMP JUMPDEST AND DUP2 MSTORE PUSH1 0x8 PUSH1 0x20 MSTORE KECCAK256 DUP1 SLOAD SWAP1 PUSH1 0x1 DUP2 ADD SLOAD PUSH1 0x3 PUSH1 0x2 DUP4 ADD SLOAD SWAP3 ADD SLOAD SWAP3 DUP6 SWAP1 SWAP5 SWAP4 SWAP3 PUSH1 0x60 SWAP3 PUSH1 0x80 DUP4 ADD SWAP7 DUP4 MSTORE PUSH1 0x20 DUP4 ADD MSTORE PUSH1 0x40 DUP3 ADD MSTORE ADD MSTORE JUMP JUMPDEST PUSH1 0x4 CALLDATALOAD SWAP1 PUSH1 0x1 PUSH1 0x1 PUSH1 0xA0 SHL SUB DUP3 AND DUP3 SUB PUSH2 0xBFF JUMPI JUMP JUMPDEST PUSH1 0x0 DUP1 REVERT JUMPDEST PUSH1 0x9 SLOAD DUP2 LT ISZERO PUSH2 0xC3E JUMPI PUSH1 0x9 PUSH1 0x0 MSTORE PUSH1 0x2 SHL PUSH32 0x6E1540171B6C0C960B71A7020D9F60077F6AF931A8BBF590DA0223DACF75C7AF ADD SWAP1 PUSH1 0x0 SWAP1 JUMP JUMPDEST PUSH4 0x4E487B71 PUSH1 0xE0 SHL PUSH1 0x0 MSTORE PUSH1 0x32 PUSH1 0x4 MSTORE PUSH1 0x24 PUSH1 0x0 REVERT JUMPDEST SWAP1 DUP2 MLOAD DUP1 DUP3 MSTORE PUSH1 0x20 DUP1 DUP1 SWAP4 ADD SWAP4 ADD SWAP2 PUSH1 0x0 JUMPDEST DUP3 DUP2 LT PUSH2 0xC74 JUMPI POP POP POP POP SWAP1 JUMP JUMPDEST DUP4 MLOAD DUP6 MSTORE SWAP4 DUP2 ADD SWAP4 SWAP3 DUP2 ADD SWAP3 PUSH1 0x1 ADD PUSH2 0xC66 JUMP JUMPDEST PUSH1 0x80 DUP2 ADD SWAP1 DUP2 LT PUSH8 0xFFFFFFFFFFFFFFFF DUP3 GT OR PUSH2 0xCA4 JUMPI PUSH1 0x40 MSTORE JUMP JUMPDEST PUSH4 0x4E487B71 PUSH1 0xE0 SHL PUSH1 0x0 MSTORE PUSH1 0x41 PUSH1 0x4 MSTORE PUSH1 0x24 PUSH1 0x0 REVERT JUMPDEST PUSH1 0x20 DUP2 ADD SWAP1 DUP2 LT PUSH8 0xFFFFFFFFFFFFFFFF DUP3 GT OR PUSH2 0xCA4 JUMPI PUSH1 0x40 MSTORE JUMP JUMPDEST SWAP1 PUSH1 0x1F DUP1 NOT SWAP2 ADD AND DUP2 ADD SWAP1 DUP2 LT PUSH8 0xFFFFFFFFFFFFFFFF DUP3 GT OR PUSH2 0xCA4 JUMPI PUSH1 0x40 MSTORE JUMP JUMPDEST SWAP1 DUP2 PUSH1 0x20 SWAP2 SUB SLT PUSH2 0xBFF JUMPI MLOAD DUP1 ISZERO ISZERO DUP2 SUB PUSH2 0xBFF JUMPI SWAP1 JUMP JUMPDEST DUP2 DUP2 MUL SWAP3 SWAP2 DUP2 ISZERO SWAP2 DUP5 DIV EQ OR ISZERO PUSH2 0xD23 JUMPI JUMP JUMPDEST PUSH4 0x4E487B71 PUSH1 0xE0 SHL PUSH1 0x0 MSTORE PUSH1 0x11 PUSH1 0x4 MSTORE PUSH1 0x24 PUSH1 0x0 REVERT JUMPDEST DUP2 ISZERO PUSH2 0xD43 JUMPI DIV SWAP1 JUMP JUMPDEST PUSH4 0x4E487B71 PUSH1 0xE0 SHL PUSH1 0x0 MSTORE PUSH1 0x12 PUSH1 0x4 MSTORE PUSH1 0x24 PUSH1 0x0 REVERT JUMPDEST SWAP2 SWAP1 DUP3 ADD DUP1 SWAP3 GT PUSH2 0xD23 JUMPI JUMP JUMPDEST SWAP2 SWAP1 DUP3 SUB SWAP2 DUP3 GT PUSH2 0xD23 JUMPI JUMP JUMPDEST RETURNDATASIZE ISZERO PUSH2 0xDAE JUMPI RETURNDATASIZE SWAP1 PUSH8 0xFFFFFFFFFFFFFFFF DUP3 GT PUSH2 0xCA4 JUMPI PUSH1 0x40 MLOAD SWAP2 PUSH2 0xDA2 PUSH1 0x1F DUP3 ADD PUSH1 0x1F NOT AND PUSH1 0x20 ADD DUP5 PUSH2 0xCD6 JUMP JUMPDEST DUP3 MSTORE RETURNDATASIZE PUSH1 0x0 PUSH1 0x20 DUP5 ADD RETURNDATACOPY JUMP JUMPDEST PUSH1 0x60 SWAP1 JUMP JUMPDEST PUSH1 0x4 SLOAD SELFBALANCE DUP1 PUSH1 0x4 SSTORE PUSH1 0x6 SLOAD DUP1 PUSH2 0xE1B JUMPI JUMPDEST POP PUSH32 0x140F00A45E57CD588307F54F6E7F92BFD7185D7B0E9E78A224978795B5BC8AD0 SWAP2 PUSH1 0x40 SWAP2 DUP3 MLOAD SWAP2 DUP3 MSTORE PUSH1 0x20 DUP3 ADD MSTORE LOG1 PUSH1 0x7 SLOAD PUSH2 0xE10 DUP2 ADD DUP1 SWAP2 GT PUSH2 0xD23 JUMPI TIMESTAMP LT ISZERO PUSH2 0xE0D JUMPI JUMP JUMPDEST PUSH2 0xE15 PUSH2 0xEA0 JUMP JUMPDEST TIMESTAMP PUSH1 0x7 SSTORE JUMP JUMPDEST SWAP2 PUSH1 0x5 SLOAD SWAP2 PUSH8 0xDE0B6B3A7640000 DUP1 DUP3 MUL SWAP1 DUP3 DUP3 DIV EQ DUP3 ISZERO OR ISZERO PUSH2 0xD23 JUMPI PUSH1 0x40 DUP1 SWAP5 PUSH2 0xE89 PUSH32 0x140F00A45E57CD588307F54F6E7F92BFD7185D7B0E9E78A224978795B5BC8AD0 SWAP8 PUSH32 0xD629E192420B67B048E2D86C80B35866FB5C8998F1C30A4BF67489C94FBED88C SWAP5 PUSH2 0xD39 JUMP JUMPDEST DUP1 PUSH1 0x5 SSTORE DUP3 MLOAD SWAP2 DUP3 MSTORE PUSH1 0x20 DUP3 ADD MSTORE LOG1 SWAP2 POP SWAP2 PUSH2 0xDC4 JUMP JUMPDEST PUSH1 0x5 SLOAD PUSH1 0x4 SLOAD PUSH1 0x3 SLOAD PUSH1 0x40 MLOAD SWAP2 PUSH2 0xEB6 DUP4 PUSH2 0xC88 JUMP JUMPDEST TIMESTAMP DUP4 MSTORE PUSH1 0x20 DUP4 ADD SWAP4 DUP5 MSTORE PUSH1 0x40 DUP4 ADD SWAP1 DUP2 MSTORE PUSH1 0x60 DUP4 ADD SWAP2 DUP3 MSTORE PUSH1 0x9 SLOAD PUSH9 0x10000000000000000 DUP2 LT ISZERO PUSH2 0xCA4 JUMPI DUP1 PUSH1 0x1 PUSH2 0xEF2 SWAP3 ADD PUSH1 0x9 SSTORE PUSH2 0xC04 JUMP JUMPDEST SWAP5 SWAP1 SWAP5 PUSH2 0xF4C JUMPI PUSH1 0x3 SWAP4 MLOAD DUP6 SSTORE MLOAD PUSH1 0x1 DUP6 ADD SSTORE MLOAD PUSH1 0x2 DUP5 ADD SSTORE MLOAD SWAP2 ADD SSTORE PUSH32 0x49486DBD6BE152A280234D0B8B9E4800A401E0396357FE4600779C5321182322 PUSH1 0x60 PUSH1 0x5 SLOAD PUSH1 0x4 SLOAD PUSH1 0x40 MLOAD SWAP2 TIMESTAMP DUP4 MSTORE PUSH1 0x20 DUP4 ADD MSTORE PUSH1 0x40 DUP3 ADD MSTORE LOG1 JUMP JUMPDEST PUSH4 0x4E487B71 PUSH1 0xE0 SHL PUSH1 0x0 MSTORE PUSH1 0x0 PUSH1 0x4 MSTORE PUSH1 0x24 PUSH1 0x0 REVERT JUMPDEST SWAP1 PUSH1 0x40 MLOAD PUSH2 0xF6F DUP2 PUSH2 0xC88 JUMP JUMPDEST PUSH1 0x60 PUSH1 0x3 DUP3 SWAP5 DUP1 SLOAD DUP5 MSTORE PUSH1 0x1 DUP2 ADD SLOAD PUSH1 0x20 DUP6 ADD MSTORE PUSH1 0x2 DUP2 ADD SLOAD PUSH1 0x40 DUP6 ADD MSTORE ADD SLOAD SWAP2 ADD MSTORE JUMP JUMPDEST PUSH1 0x9 SLOAD SWAP1 PUSH1 0x2 DUP3 LT PUSH2 0x1112 JUMPI PUSH1 0x0 NOT DUP3 ADD DUP3 DUP2 GT PUSH2 0xD23 JUMPI PUSH2 0xFB8 PUSH2 0xFBE SWAP2 PUSH2 0xC04 JUMP JUMPDEST POP PUSH2 0xF62 JUMP JUMPDEST SWAP2 ISZERO PUSH2 0xC3E JUMPI PUSH1 0x0 SWAP2 PUSH1 0x9 DUP4 MSTORE PUSH1 0x40 MLOAD PUSH2 0xFD7 DUP2 PUSH2 0xC88 JUMP JUMPDEST PUSH3 0x15180 PUSH2 0x1082 PUSH32 0x6E1540171B6C0C960B71A7020D9F60077F6AF931A8BBF590DA0223DACF75C7AF SLOAD DUP1 DUP5 MSTORE PUSH32 0x6E1540171B6C0C960B71A7020D9F60077F6AF931A8BBF590DA0223DACF75C7B0 SLOAD SWAP4 PUSH1 0x20 DUP2 ADD SWAP5 DUP6 MSTORE PUSH32 0x6E1540171B6C0C960B71A7020D9F60077F6AF931A8BBF590DA0223DACF75C7B1 SLOAD PUSH1 0x40 DUP3 ADD MSTORE PUSH1 0x60 PUSH32 0x6E1540171B6C0C960B71A7020D9F60077F6AF931A8BBF590DA0223DACF75C7B2 SLOAD SWAP2 ADD MSTORE DUP5 MLOAD PUSH2 0xD66 JUMP JUMPDEST DIV SWAP2 PUSH1 0x1 DUP4 LT PUSH2 0x110D JUMPI DUP2 MLOAD SWAP1 DUP2 ISZERO PUSH2 0x1107 JUMPI SWAP1 PUSH1 0x20 PUSH2 0x10A3 SWAP3 ADD MLOAD PUSH2 0xD66 JUMP JUMPDEST SWAP1 PUSH2 0x2710 SWAP2 DUP3 DUP2 MUL SWAP3 DUP2 DUP5 DIV EQ SWAP1 ISZERO OR ISZERO PUSH2 0x10F3 JUMPI MLOAD PUSH2 0x10C2 SWAP2 PUSH2 0xD39 JUMP JUMPDEST PUSH2 0x16D SWAP1 DUP1 DUP3 MUL SWAP2 DUP3 DIV SUB PUSH2 0x10DF JUMPI PUSH2 0x10DC SWAP3 SWAP4 POP PUSH2 0xD39 JUMP JUMPDEST SWAP1 JUMP JUMPDEST PUSH4 0x4E487B71 PUSH1 0xE0 SHL DUP5 MSTORE PUSH1 0x11 PUSH1 0x4 MSTORE PUSH1 0x24 DUP5 REVERT JUMPDEST PUSH4 0x4E487B71 PUSH1 0xE0 SHL DUP6 MSTORE PUSH1 0x11 PUSH1 0x4 MSTORE PUSH1 0x24 DUP6 REVERT JUMPDEST POP POP POP POP JUMP JUMPDEST POP POP POP JUMP JUMPDEST PUSH1 0x0 SWAP2 POP JUMP JUMPDEST PUSH8 0xFFFFFFFFFFFFFFFF DUP2 GT PUSH2 0xCA4 JUMPI PUSH1 0x5 SHL PUSH1 0x20 ADD SWAP1 JUMP JUMPDEST SWAP1 PUSH2 0x113A DUP3 PUSH2 0x1118 JUMP JUMPDEST PUSH2 0x1147 PUSH1 0x40 MLOAD SWAP2 DUP3 PUSH2 0xCD6 JUMP JUMPDEST DUP3 DUP2 MSTORE DUP1 SWAP3 PUSH2 0x1158 PUSH1 0x1F NOT SWAP2 PUSH2 0x1118 JUMP JUMPDEST ADD SWAP1 PUSH1 0x20 CALLDATASIZE SWAP2 ADD CALLDATACOPY JUMP JUMPDEST DUP1 MLOAD DUP3 LT ISZERO PUSH2 0xC3E JUMPI PUSH1 0x20 SWAP2 PUSH1 0x5 SHL ADD ADD SWAP1 JUMP JUMPDEST SWAP1 PUSH1 0x9 SLOAD SWAP1 DUP2 DUP4 LT ISZERO PUSH2 0x1242 JUMPI PUSH2 0x11A1 SWAP2 PUSH2 0x1192 DUP5 SWAP3 DUP4 PUSH2 0xD59 JUMP JUMPDEST SWAP1 DUP1 DUP3 GT PUSH2 0x123A JUMPI JUMPDEST POP PUSH2 0xD66 JUMP JUMPDEST SWAP2 PUSH2 0x11AB DUP4 PUSH2 0x1130 JUMP JUMPDEST PUSH2 0x11B4 DUP5 PUSH2 0x1130 JUMP JUMPDEST SWAP4 PUSH2 0x11BE DUP2 PUSH2 0x1130 JUMP JUMPDEST SWAP4 PUSH1 0x0 SWAP1 DUP2 JUMPDEST DUP4 DUP2 LT PUSH2 0x11D4 JUMPI POP POP POP POP SWAP3 SWAP2 SWAP1 JUMP JUMPDEST PUSH1 0x40 PUSH2 0x11EB PUSH2 0xFB8 PUSH2 0x11E6 DUP5 DUP7 PUSH2 0xD59 JUMP JUMPDEST PUSH2 0xC04 JUMP JUMPDEST DUP1 MLOAD PUSH2 0x11F7 DUP5 DUP10 PUSH2 0x1162 JUMP JUMPDEST MSTORE PUSH1 0x20 DUP2 ADD MLOAD PUSH2 0x1207 DUP5 DUP13 PUSH2 0x1162 JUMP JUMPDEST MSTORE ADD MLOAD PUSH2 0x1214 DUP3 DUP10 PUSH2 0x1162 JUMP JUMPDEST MSTORE PUSH1 0x0 NOT DUP2 EQ PUSH2 0x1226 JUMPI PUSH1 0x1 ADD PUSH2 0x11C4 JUMP JUMPDEST PUSH4 0x4E487B71 PUSH1 0xE0 SHL DUP4 MSTORE PUSH1 0x11 PUSH1 0x4 MSTORE PUSH1 0x24 DUP4 REVERT JUMPDEST SWAP1 POP CODESIZE PUSH2 0x119B JUMP JUMPDEST POP POP POP PUSH1 0x40 MLOAD PUSH2 0x1251 DUP2 PUSH2 0xCBA JUMP JUMPDEST PUSH1 0x0 DUP2 MSTORE PUSH1 0x40 MLOAD SWAP2 PUSH2 0x1262 DUP4 PUSH2 0xCBA JUMP JUMPDEST PUSH1 0x0 DUP4 MSTORE PUSH1 0x40 MLOAD SWAP2 PUSH2 0x1273 DUP4 PUSH2 0xCBA JUMP JUMPDEST PUSH1 0x0 DUP4 MSTORE PUSH1 0x0 CALLDATASIZE DUP2 CALLDATACOPY SWAP3 SWAP2 SWAP1 JUMP INVALID LOG2 PUSH5 0x6970667358 0x22 SLT KECCAK256 PUSH5 0xEF088B3E2D LOG4 0x21 0xC5 0xB4 RETURN PUSH17 0x13CDC09A5F9F85D227D4C878FA2C51EFA7 LT 0x4E SUB PUSH5 0x736F6C6343 STOP ADDMOD EQ STOP CALLER "},"methodIdentifiers":{"LOCKUP_PERIOD()":"ec16d076","authorizedWithdrawal(uint256,address)":"e86a2972","collateralManager()":"23be345c","deposit()":"d0e30db0","getCurrentAPY()":"962ca496","getPerformanceHistory(uint256,uint256)":"f9b6ee1b","getUserPerformance(address)":"1f987451","getVaultBalance()":"ed12e8ef","lastPriceUpdate()":"6949faeb","olpPrice()":"277870f1","olpSupply()":"3829dc3b","owner()":"8da5cb5b","performanceHistory(uint256)":"1a94fee9","recordPerformance()":"d8b23553","securityModule()":"380ef3fe","setCollateralManager(address)":"842a05d4","totalDeposits()":"7d882097","totalVaultValue()":"afbc74b9","transferOwnership(address)":"f2fde38b","updateVaultValue()":"9ff90f31","userInfo(address)":"1959a002","withdraw(uint256)":"2e1a7d4d"}}}}}