{"contracts/FeeDistributor.sol":{"FeeDistributor":{"abi":[{"inputs":[{"internalType":"address","name":"_omniToken","type":"address"},{"internalType":"address","name":"_stakingContract","type":"address"},{"internalType":"address","name":"_treasury","type":"address"},{"internalType":"address","name":"_insuranceFund","type":"address"},{"internalType":"address","name":"admin","type":"address"}],"stateMutability":"nonpayable","type":"constructor"},{"inputs":[],"name":"AccessControlBadConfirmation","type":"error"},{"inputs":[{"internalType":"address","name":"account","type":"address"},{"internalType":"bytes32","name":"neededRole","type":"bytes32"}],"name":"AccessControlUnauthorizedAccount","type":"error"},{"anonymous":false,"inputs":[{"indexed":false,"internalType":"address","name":"stakingContract","type":"address"},{"indexed":false,"internalType":"address","name":"treasury","type":"address"},{"indexed":false,"internalType":"address","name":"insuranceFund","type":"address"}],"name":"AddressesUpdated","type":"event"},{"anonymous":false,"inputs":[{"indexed":false,"internalType":"uint256","name":"stakingPercentage","type":"uint256"},{"indexed":false,"internalType":"uint256","name":"treasuryPercentage","type":"uint256"},{"indexed":false,"internalType":"uint256","name":"buybackBurnPercentage","type":"uint256"},{"indexed":false,"internalType":"uint256","name":"insuranceFundPercentage","type":"uint256"}],"name":"DistributionUpdated","type":"event"},{"anonymous":false,"inputs":[{"indexed":false,"internalType":"uint256","name":"amount","type":"uint256"}],"name":"FeesCollected","type":"event"},{"anonymous":false,"inputs":[{"indexed":false,"internalType":"uint256","name":"stakingAmount","type":"uint256"},{"indexed":false,"internalType":"uint256","name":"treasuryAmount","type":"uint256"},{"indexed":false,"internalType":"uint256","name":"buybackAmount","type":"uint256"},{"indexed":false,"internalType":"uint256","name":"insuranceFundAmount","type":"uint256"}],"name":"FeesDistributed","type":"event"},{"anonymous":false,"inputs":[{"indexed":true,"internalType":"bytes32","name":"role","type":"bytes32"},{"indexed":true,"internalType":"bytes32","name":"previousAdminRole","type":"bytes32"},{"indexed":true,"internalType":"bytes32","name":"newAdminRole","type":"bytes32"}],"name":"RoleAdminChanged","type":"event"},{"anonymous":false,"inputs":[{"indexed":true,"internalType":"bytes32","name":"role","type":"bytes32"},{"indexed":true,"internalType":"address","name":"account","type":"address"},{"indexed":true,"internalType":"address","name":"sender","type":"address"}],"name":"RoleGranted","type":"event"},{"anonymous":false,"inputs":[{"indexed":true,"internalType":"bytes32","name":"role","type":"bytes32"},{"indexed":true,"internalType":"address","name":"account","type":"address"},{"indexed":true,"internalType":"address","name":"sender","type":"address"}],"name":"RoleRevoked","type":"event"},{"inputs":[],"name":"DEFAULT_ADMIN_ROLE","outputs":[{"internalType":"bytes32","name":"","type":"bytes32"}],"stateMutability":"view","type":"function"},{"inputs":[],"name":"FEE_COLLECTOR_ROLE","outputs":[{"internalType":"bytes32","name":"","type":"bytes32"}],"stateMutability":"view","type":"function"},{"inputs":[],"name":"buybackBurnPercentage","outputs":[{"internalType":"uint256","name":"","type":"uint256"}],"stateMutability":"view","type":"function"},{"inputs":[],"name":"collectFees","outputs":[],"stateMutability":"payable","type":"function"},{"inputs":[],"name":"distributeFees","outputs":[],"stateMutability":"nonpayable","type":"function"},{"inputs":[{"internalType":"bytes32","name":"role","type":"bytes32"}],"name":"getRoleAdmin","outputs":[{"internalType":"bytes32","name":"","type":"bytes32"}],"stateMutability":"view","type":"function"},{"inputs":[{"internalType":"bytes32","name":"role","type":"bytes32"},{"internalType":"uint256","name":"index","type":"uint256"}],"name":"getRoleMember","outputs":[{"internalType":"address","name":"","type":"address"}],"stateMutability":"view","type":"function"},{"inputs":[{"internalType":"bytes32","name":"role","type":"bytes32"}],"name":"getRoleMemberCount","outputs":[{"internalType":"uint256","name":"","type":"uint256"}],"stateMutability":"view","type":"function"},{"inputs":[{"internalType":"bytes32","name":"role","type":"bytes32"}],"name":"getRoleMembers","outputs":[{"internalType":"address[]","name":"","type":"address[]"}],"stateMutability":"view","type":"function"},{"inputs":[{"internalType":"bytes32","name":"role","type":"bytes32"},{"internalType":"address","name":"account","type":"address"}],"name":"grantRole","outputs":[],"stateMutability":"nonpayable","type":"function"},{"inputs":[{"internalType":"bytes32","name":"role","type":"bytes32"},{"internalType":"address","name":"account","type":"address"}],"name":"hasRole","outputs":[{"internalType":"bool","name":"","type":"bool"}],"stateMutability":"view","type":"function"},{"inputs":[],"name":"insuranceFund","outputs":[{"internalType":"address","name":"","type":"address"}],"stateMutability":"view","type":"function"},{"inputs":[],"name":"insuranceFundPercentage","outputs":[{"internalType":"uint256","name":"","type":"uint256"}],"stateMutability":"view","type":"function"},{"inputs":[],"name":"omniToken","outputs":[{"internalType":"address","name":"","type":"address"}],"stateMutability":"view","type":"function"},{"inputs":[{"internalType":"bytes32","name":"role","type":"bytes32"},{"internalType":"address","name":"callerConfirmation","type":"address"}],"name":"renounceRole","outputs":[],"stateMutability":"nonpayable","type":"function"},{"inputs":[{"internalType":"bytes32","name":"role","type":"bytes32"},{"internalType":"address","name":"account","type":"address"}],"name":"revokeRole","outputs":[],"stateMutability":"nonpayable","type":"function"},{"inputs":[],"name":"stakingContract","outputs":[{"internalType":"address","name":"","type":"address"}],"stateMutability":"view","type":"function"},{"inputs":[],"name":"stakingPercentage","outputs":[{"internalType":"uint256","name":"","type":"uint256"}],"stateMutability":"view","type":"function"},{"inputs":[{"internalType":"bytes4","name":"interfaceId","type":"bytes4"}],"name":"supportsInterface","outputs":[{"internalType":"bool","name":"","type":"bool"}],"stateMutability":"view","type":"function"},{"inputs":[],"name":"totalBuybackBurned","outputs":[{"internalType":"uint256","name":"","type":"uint256"}],"stateMutability":"view","type":"function"},{"inputs":[],"name":"totalFeesCollected","outputs":[{"internalType":"uint256","name":"","type":"uint256"}],"stateMutability":"view","type":"function"},{"inputs":[],"name":"totalInsuranceFundDistributed","outputs":[{"internalType":"uint256","name":"","type":"uint256"}],"stateMutability":"view","type":"function"},{"inputs":[],"name":"totalStakingDistributed","outputs":[{"internalType":"uint256","name":"","type":"uint256"}],"stateMutability":"view","type":"function"},{"inputs":[],"name":"totalTreasuryDistributed","outputs":[{"internalType":"uint256","name":"","type":"uint256"}],"stateMutability":"view","type":"function"},{"inputs":[],"name":"treasury","outputs":[{"internalType":"address","name":"","type":"address"}],"stateMutability":"view","type":"function"},{"inputs":[],"name":"treasuryPercentage","outputs":[{"internalType":"uint256","name":"","type":"uint256"}],"stateMutability":"view","type":"function"},{"inputs":[{"internalType":"address","name":"_stakingContract","type":"address"},{"internalType":"address","name":"_treasury","type":"address"},{"internalType":"address","name":"_insuranceFund","type":"address"}],"name":"updateAddresses","outputs":[],"stateMutability":"nonpayable","type":"function"},{"inputs":[{"internalType":"uint256","name":"_stakingPercentage","type":"uint256"},{"internalType":"uint256","name":"_treasuryPercentage","type":"uint256"},{"internalType":"uint256","name":"_buybackBurnPercentage","type":"uint256"},{"internalType":"uint256","name":"_insuranceFundPercentage","type":"uint256"}],"name":"updateDistribution","outputs":[],"stateMutability":"nonpayable","type":"function"},{"stateMutability":"payable","type":"receive"}],"evm":{"bytecode":{"linkReferences":{},"object":"6080346200029357601f6200173d38819003918201601f191683019291906001600160401b0384118385101762000298578160a0928492604096875283398101031262000293576200005181620002ae565b9060209162000062838301620002ae565b6200006f858401620002ae565b906200008c60806200008460608701620002ae565b9501620002ae565b6113886006556107d060078190556103e8600855600955936001600160a01b039384169182156200024f5784169283156200020d578416908115620001c9578416928315620001855760018060a01b03199283600254161760025582600354161760035581600454161760045560055416176005556200010c82620002c3565b62000164575b6200011d8262000343565b62000132575b835161129b9081620004628239f35b60016200015a936000805160206200171d8339815191526000525283600020911690620003d4565b5038808062000123565b60008052600183526200017e8460002082841690620003d4565b5062000112565b875162461bcd60e51b815260048101889052601e60248201527f496e76616c696420696e737572616e63652066756e64206164647265737300006044820152606490fd5b875162461bcd60e51b815260048101889052601860248201527f496e76616c6964207472656173757279206164647265737300000000000000006044820152606490fd5b60648789519062461bcd60e51b825280600483015260248201527f496e76616c6964207374616b696e6720636f6e747261637420616464726573736044820152fd5b875162461bcd60e51b815260048101889052601960248201527f496e76616c6964204f4d4e20746f6b656e2061646472657373000000000000006044820152606490fd5b600080fd5b634e487b7160e01b600052604160045260246000fd5b51906001600160a01b03821682036200029357565b6001600160a01b031660008181527fad3228b676f7d3cd4284a5443f17f1962b36e491b30a40b2405849e597ba5fb5602052604081205490919060ff166200033f57818052816020526040822081835260205260408220600160ff198254161790553391600080516020620016fd8339815191528180a4600190565b5090565b6001600160a01b031660008181527f92227d48d66cabccdfe59bda1e8cb95f286820615128bd3f8666d1f5ec8b70aa60205260408120549091906000805160206200171d8339815191529060ff16620003cf57808352826020526040832082845260205260408320600160ff19825416179055600080516020620016fd833981519152339380a4600190565b505090565b919060018301600090828252806020526040822054156000146200045b57845494680100000000000000008610156200044757600186018082558610156200043357836040949596828552602085200155549382526020522055600190565b634e487b7160e01b83526032600452602483fd5b634e487b7160e01b83526041600452602483fd5b5092505056fe60806040908082526004908136101561005a575b5050361561002057600080fd5b60207f860c0aa5520013080c2f65981705fcdea474d9f7c3daf954656ed5e65d692d1f9161005034600a54611193565b600a5551348152a1005b600091823560e01c9182630186f8a414610dc75750816301ffc9a714610d535781630967a77114610d34578163248a9ca314610d095781632f2ff15d14610c9d578163334c143914610b0857816336568abe14610ac257816355857c2714610aa357816360c6d8ae14610a8457816361d027b314610a5b57816362a2a47c14610a2057816369ee19af14610a015781637ab56083146109e257816381e1ccba146109c35781639010d07c1461098157816391d148541461093a578163938a8bca1461091b57816394684e7e146108fc578163a154668714610818578163a217fddf146107fd578163a3246ad314610759578163b790230314610730578163bb57ad2014610335578163c879657214610255578163c93d0ece14610236578163ca15c8731461020d578163d547741f146101ca575063ee99205c1461019e5780610013565b90346101c657816003193601126101c65760035490516001600160a01b039091168152602090f35b5080fd5b90508234610209578060031936011261020957610205913561020060016101ef610dec565b938387528660205286200154610e5f565b610f03565b5080f35b8280fd5b839150346102095760203660031901126102095760209282913581526001845220549051908152f35b8284346101c657816003193601126101c657602090600d549051908152f35b83915082600319360112610209577f2dca0f5ce7e75a4b43fe2b0d6f5d0b7a2bf92ecf89f8f0aa17b8308b670388218084528360205282842033855260205260ff83852054161561031a575034156102e3575060207f860c0aa5520013080c2f65981705fcdea474d9f7c3daf954656ed5e65d692d1f916102d834600a54611193565b600a5551348152a180f35b6020606492519162461bcd60e51b83528201526012602482015271139bc81999595cc81d1bc818dbdb1b1958dd60721b6044820152fd5b604492519163e2517d3f60e01b835233908301526024820152fd5b8284346101c657816003193601126101c6574780156106f557612710918261035f600654846111b6565b04918361036e600754836111b6565b049361038b81610380600854856111b6565b0492600954906111b6565b04918361067f575b8461060a575b82610589575b811580156103f3575b50519283526020830193909352604082019290925260608101919091527f78490b24a020086d2701460dc169a540280c517bef9cdcd742f751a9099922a39080608081015b0390a180f35b8680526020906001825282882080541561057657885260018060a01b039182818a20541692600a860292868404600a141715610563579285949392828b9c858d7f78490b24a020086d2701460dc169a540280c517bef9cdcd742f751a9099922a39e966103ed9c9b986002541660648b51809481936323b872dd60e01b83528b898401523060248401528a60448401525af19081610546575b506104b8575050505081806104ad9481935af16104a76111c9565b50611221565b9091928796506103a8565b60448392878093600254168b51978895869463a9059cbb60e01b865285015260248401525af19182610518575b50506105025781806104fd9481935af16104a76111c9565b6104ad565b505061051090600d54611193565b600d556104ad565b8161053792903d1061053f575b61052f818361115b565b810190611209565b508c806104e5565b503d610525565b61055c90853d871161053f5761052f818361115b565b503861048c565b634e487b7160e01b8a5260118b5260248afd5b634e487b7160e01b895260328a52602489fd5b858080808660018060a01b03600554165af16105a36111c9565b50156105bd576105b583600e54611193565b600e5561039f565b5162461bcd60e51b8152602081880152602260248201527f496e737572616e63652066756e6420646973747269627574696f6e206661696c604482015261195960f21b6064820152608490fd5b858080808860018060a01b038c54165af16106236111c9565b501561063d5761063585600c54611193565b600c55610399565b5162461bcd60e51b8152602081880152601c60248201527f547265617375727920646973747269627574696f6e206661696c6564000000006044820152606490fd5b858080808760018060a01b03600354165af16106996111c9565b50156106b3576106ab84600b54611193565b600b55610393565b5162461bcd60e51b8152602081880152601b60248201527f5374616b696e6720646973747269627574696f6e206661696c656400000000006044820152606490fd5b815162461bcd60e51b815260208186015260156024820152744e6f206665657320746f206469737472696275746560581b6044820152606490fd5b8284346101c657816003193601126101c65760055490516001600160a01b039091168152602090f35b8391503461020957602090816003193601126107f9573583526001808252828420835181548082529186528386208185019693949192879190855b8181106107e657505050826107aa91038361115b565b8451948186019282875251809352850195925b8281106107ca5785870386f35b83516001600160a01b03168752958101959281019284016107bd565b8254845292840192918701918701610794565b8380fd5b8284346101c657816003193601126101c65751908152602090f35b9050346101c65760803660031901126101c65780356024359160443560643591610840610e07565b61271061085a84610855856108558a8a611193565b611193565b036108b95750906103ed917f8adead107ba13fae1b5f36d9fa779c58b2bf71aab754388ad1feb3f6427fbd6795968460065585600755816008558260095551948594859094939260609260808301968352602083015260408201520152565b606490602088519162461bcd60e51b8352820152601f60248201527f50657263656e7461676573206d7573742061646420757020746f2031303025006044820152fd5b8284346101c657816003193601126101c657602090600b549051908152f35b8284346101c657816003193601126101c657602090600c549051908152f35b839150346102095781600319360112610209578160209360ff9261095c610dec565b903582528186528282206001600160a01b039091168252855220549151911615158152f35b839150346102095781600319360112610209576020926109ad9135815260018452826024359120610fb3565b905491519160018060a01b039160031b1c168152f35b8284346101c657816003193601126101c6576020906006549051908152f35b8284346101c657816003193601126101c6576020906007549051908152f35b8284346101c657816003193601126101c6576020906008549051908152f35b8284346101c657816003193601126101c657602090517f2dca0f5ce7e75a4b43fe2b0d6f5d0b7a2bf92ecf89f8f0aa17b8308b670388218152f35b839150346102095782600319360112610209575490516001600160a01b03909116815260209150f35b8284346101c657816003193601126101c657602090600a549051908152f35b8284346101c657816003193601126101c657602090600e549051908152f35b8284346101c657806003193601126101c657610adc610dec565b90336001600160a01b03831603610af95750610205919235610f03565b5163334bd91960e11b81528390fd5b83915034610209576060366003190112610209576001600160a01b03813581811693919290849003610c9957610b3c610dec565b9260443593818516809503610c9557610b53610e07565b8515610c525716908115610c0f578315610bcc579183916060947f97a48c4be738bdf3e84e8f3927df6d4e52ccc94c58e96a666faca603e456d49096946bffffffffffffffffffffffff60a01b90868260035416176003558382825416179055600554161760055581519384526020840152820152a180f35b606490602084519162461bcd60e51b8352820152601e60248201527f496e76616c696420696e737572616e63652066756e64206164647265737300006044820152fd5b606490602084519162461bcd60e51b8352820152601860248201527f496e76616c6964207472656173757279206164647265737300000000000000006044820152fd5b835162461bcd60e51b8152602081850181905260248201527f496e76616c6964207374616b696e6720636f6e747261637420616464726573736044820152606490fd5b8680fd5b8480fd5b839150346102095781600319360112610209573590610cba610dec565b9082845283602052610cd160018286200154610e5f565b610cdb8284610e85565b610ce3578380f35b9183526001602052908220610d01916001600160a01b031690610fe1565b508180808380f35b8391503461020957602036600319011261020957816020936001923581528085522001549051908152f35b8284346101c657816003193601126101c6576020906009549051908152f35b8391503461020957602036600319011261020957359063ffffffff60e01b82168092036102095760209250635a05180f60e01b8214918215610d99575b50519015158152f35b909150637965db0b60e01b8114908115610db6575b509083610d90565b6301ffc9a760e01b14905083610dae565b8390346101c657816003193601126101c6576002546001600160a01b03168152602090f35b602435906001600160a01b0382168203610e0257565b600080fd5b3360009081527fad3228b676f7d3cd4284a5443f17f1962b36e491b30a40b2405849e597ba5fb5602052604081205460ff1615610e415750565b6044906040519063e2517d3f60e01b82523360048301526024820152fd5b80600052600060205260406000203360005260205260ff6040600020541615610e415750565b9060009180835282602052604083209160018060a01b03169182845260205260ff60408420541615600014610efe57808352826020526040832082845260205260408320600160ff198254161790557f2f8788117e7eff1d82e926ec794901d17c78024a50270940304540a733656f0d339380a4600190565b505090565b610f0d8282610f3e565b9182610f1857505090565b600091825260016020526040909120610f3a916001600160a01b03169061106b565b5090565b9060009180835282602052604083209160018060a01b03169182845260205260ff604084205416600014610efe5780835282602052604083208284526020526040832060ff1981541690557ff6391f5c32d9c69d2a47ea670b442974b53935d1edc7fd64eb21e047a839171b339380a4600190565b8054821015610fcb5760005260206000200190600090565b634e487b7160e01b600052603260045260246000fd5b919060018301600090828252806020526040822054156000146110655784549468010000000000000000861015611051578361104161102a886001604098999a01855584610fb3565b819391549060031b91821b91600019901b19161790565b9055549382526020522055600190565b634e487b7160e01b83526041600452602483fd5b50925050565b9060018201906000928184528260205260408420549081151560001461115457600019918083018181116111405782549084820191821161112c578181036110f7575b505050805480156110e3578201916110c68383610fb3565b909182549160031b1b191690555582526020526040812055600190565b634e487b7160e01b86526031600452602486fd5b61111761110761102a9386610fb3565b90549060031b1c92839286610fb3565b905586528460205260408620553880806110ae565b634e487b7160e01b88526011600452602488fd5b634e487b7160e01b87526011600452602487fd5b5050505090565b90601f8019910116810190811067ffffffffffffffff82111761117d57604052565b634e487b7160e01b600052604160045260246000fd5b919082018092116111a057565b634e487b7160e01b600052601160045260246000fd5b818102929181159184041417156111a057565b3d15611204573d9067ffffffffffffffff821161117d57604051916111f8601f8201601f19166020018461115b565b82523d6000602084013e565b606090565b90816020910312610e0257518015158103610e025790565b1561122857565b60405162461bcd60e51b815260206004820152601560248201527410591b5a5b881d1c985b9cd9995c8819985a5b1959605a1b6044820152606490fdfea2646970667358221220d9eceb746282fe34ac7de3076981b35247a2d0c1bcdccd7299c28402a5b9521364736f6c634300081400332f8788117e7eff1d82e926ec794901d17c78024a50270940304540a733656f0d2dca0f5ce7e75a4b43fe2b0d6f5d0b7a2bf92ecf89f8f0aa17b8308b67038821","opcodes":"PUSH1 0x80 CALLVALUE PUSH3 0x293 JUMPI PUSH1 0x1F PUSH3 0x173D CODESIZE DUP2 SWAP1 SUB SWAP2 DUP3 ADD PUSH1 0x1F NOT AND DUP4 ADD SWAP3 SWAP2 SWAP1 PUSH1 0x1 PUSH1 0x1 PUSH1 0x40 SHL SUB DUP5 GT DUP4 DUP6 LT OR PUSH3 0x298 JUMPI DUP2 PUSH1 0xA0 SWAP3 DUP5 SWAP3 PUSH1 0x40 SWAP7 DUP8 MSTORE DUP4 CODECOPY DUP2 ADD SUB SLT PUSH3 0x293 JUMPI PUSH3 0x51 DUP2 PUSH3 0x2AE JUMP JUMPDEST SWAP1 PUSH1 0x20 SWAP2 PUSH3 0x62 DUP4 DUP4 ADD PUSH3 0x2AE JUMP JUMPDEST PUSH3 0x6F DUP6 DUP5 ADD PUSH3 0x2AE JUMP JUMPDEST SWAP1 PUSH3 0x8C PUSH1 0x80 PUSH3 0x84 PUSH1 0x60 DUP8 ADD PUSH3 0x2AE JUMP JUMPDEST SWAP6 ADD PUSH3 0x2AE JUMP JUMPDEST PUSH2 0x1388 PUSH1 0x6 SSTORE PUSH2 0x7D0 PUSH1 0x7 DUP2 SWAP1 SSTORE PUSH2 0x3E8 PUSH1 0x8 SSTORE PUSH1 0x9 SSTORE SWAP4 PUSH1 0x1 PUSH1 0x1 PUSH1 0xA0 SHL SUB SWAP4 DUP5 AND SWAP2 DUP3 ISZERO PUSH3 0x24F JUMPI DUP5 AND SWAP3 DUP4 ISZERO PUSH3 0x20D JUMPI DUP5 AND SWAP1 DUP2 ISZERO PUSH3 0x1C9 JUMPI DUP5 AND SWAP3 DUP4 ISZERO PUSH3 0x185 JUMPI PUSH1 0x1 DUP1 PUSH1 0xA0 SHL SUB NOT SWAP3 DUP4 PUSH1 0x2 SLOAD AND OR PUSH1 0x2 SSTORE DUP3 PUSH1 0x3 SLOAD AND OR PUSH1 0x3 SSTORE DUP2 PUSH1 0x4 SLOAD AND OR PUSH1 0x4 SSTORE PUSH1 0x5 SLOAD AND OR PUSH1 0x5 SSTORE PUSH3 0x10C DUP3 PUSH3 0x2C3 JUMP JUMPDEST PUSH3 0x164 JUMPI JUMPDEST PUSH3 0x11D DUP3 PUSH3 0x343 JUMP JUMPDEST PUSH3 0x132 JUMPI JUMPDEST DUP4 MLOAD PUSH2 0x129B SWAP1 DUP2 PUSH3 0x462 DUP3 CODECOPY RETURN JUMPDEST PUSH1 0x1 PUSH3 0x15A SWAP4 PUSH1 0x0 DUP1 MLOAD PUSH1 0x20 PUSH3 0x171D DUP4 CODECOPY DUP2 MLOAD SWAP2 MSTORE PUSH1 0x0 MSTORE MSTORE DUP4 PUSH1 0x0 KECCAK256 SWAP2 AND SWAP1 PUSH3 0x3D4 JUMP JUMPDEST POP CODESIZE DUP1 DUP1 PUSH3 0x123 JUMP JUMPDEST PUSH1 0x0 DUP1 MSTORE PUSH1 0x1 DUP4 MSTORE PUSH3 0x17E DUP5 PUSH1 0x0 KECCAK256 DUP3 DUP5 AND SWAP1 PUSH3 0x3D4 JUMP JUMPDEST POP PUSH3 0x112 JUMP JUMPDEST DUP8 MLOAD PUSH3 0x461BCD PUSH1 0xE5 SHL DUP2 MSTORE PUSH1 0x4 DUP2 ADD DUP9 SWAP1 MSTORE PUSH1 0x1E PUSH1 0x24 DUP3 ADD MSTORE PUSH32 0x496E76616C696420696E737572616E63652066756E6420616464726573730000 PUSH1 0x44 DUP3 ADD MSTORE PUSH1 0x64 SWAP1 REVERT JUMPDEST DUP8 MLOAD PUSH3 0x461BCD PUSH1 0xE5 SHL DUP2 MSTORE PUSH1 0x4 DUP2 ADD DUP9 SWAP1 MSTORE PUSH1 0x18 PUSH1 0x24 DUP3 ADD MSTORE PUSH32 0x496E76616C696420747265617375727920616464726573730000000000000000 PUSH1 0x44 DUP3 ADD MSTORE PUSH1 0x64 SWAP1 REVERT JUMPDEST PUSH1 0x64 DUP8 DUP10 MLOAD SWAP1 PUSH3 0x461BCD PUSH1 0xE5 SHL DUP3 MSTORE DUP1 PUSH1 0x4 DUP4 ADD MSTORE PUSH1 0x24 DUP3 ADD MSTORE PUSH32 0x496E76616C6964207374616B696E6720636F6E74726163742061646472657373 PUSH1 0x44 DUP3 ADD MSTORE REVERT JUMPDEST DUP8 MLOAD PUSH3 0x461BCD PUSH1 0xE5 SHL DUP2 MSTORE PUSH1 0x4 DUP2 ADD DUP9 SWAP1 MSTORE PUSH1 0x19 PUSH1 0x24 DUP3 ADD MSTORE PUSH32 0x496E76616C6964204F4D4E20746F6B656E206164647265737300000000000000 PUSH1 0x44 DUP3 ADD MSTORE PUSH1 0x64 SWAP1 REVERT JUMPDEST PUSH1 0x0 DUP1 REVERT JUMPDEST PUSH4 0x4E487B71 PUSH1 0xE0 SHL PUSH1 0x0 MSTORE PUSH1 0x41 PUSH1 0x4 MSTORE PUSH1 0x24 PUSH1 0x0 REVERT JUMPDEST MLOAD SWAP1 PUSH1 0x1 PUSH1 0x1 PUSH1 0xA0 SHL SUB DUP3 AND DUP3 SUB PUSH3 0x293 JUMPI JUMP JUMPDEST PUSH1 0x1 PUSH1 0x1 PUSH1 0xA0 SHL SUB AND PUSH1 0x0 DUP2 DUP2 MSTORE PUSH32 0xAD3228B676F7D3CD4284A5443F17F1962B36E491B30A40B2405849E597BA5FB5 PUSH1 0x20 MSTORE PUSH1 0x40 DUP2 KECCAK256 SLOAD SWAP1 SWAP2 SWAP1 PUSH1 0xFF AND PUSH3 0x33F JUMPI DUP2 DUP1 MSTORE DUP2 PUSH1 0x20 MSTORE PUSH1 0x40 DUP3 KECCAK256 DUP2 DUP4 MSTORE PUSH1 0x20 MSTORE PUSH1 0x40 DUP3 KECCAK256 PUSH1 0x1 PUSH1 0xFF NOT DUP3 SLOAD AND OR SWAP1 SSTORE CALLER SWAP2 PUSH1 0x0 DUP1 MLOAD PUSH1 0x20 PUSH3 0x16FD DUP4 CODECOPY DUP2 MLOAD SWAP2 MSTORE DUP2 DUP1 LOG4 PUSH1 0x1 SWAP1 JUMP JUMPDEST POP SWAP1 JUMP JUMPDEST PUSH1 0x1 PUSH1 0x1 PUSH1 0xA0 SHL SUB AND PUSH1 0x0 DUP2 DUP2 MSTORE PUSH32 0x92227D48D66CABCCDFE59BDA1E8CB95F286820615128BD3F8666D1F5EC8B70AA PUSH1 0x20 MSTORE PUSH1 0x40 DUP2 KECCAK256 SLOAD SWAP1 SWAP2 SWAP1 PUSH1 0x0 DUP1 MLOAD PUSH1 0x20 PUSH3 0x171D DUP4 CODECOPY DUP2 MLOAD SWAP2 MSTORE SWAP1 PUSH1 0xFF AND PUSH3 0x3CF JUMPI DUP1 DUP4 MSTORE DUP3 PUSH1 0x20 MSTORE PUSH1 0x40 DUP4 KECCAK256 DUP3 DUP5 MSTORE PUSH1 0x20 MSTORE PUSH1 0x40 DUP4 KECCAK256 PUSH1 0x1 PUSH1 0xFF NOT DUP3 SLOAD AND OR SWAP1 SSTORE PUSH1 0x0 DUP1 MLOAD PUSH1 0x20 PUSH3 0x16FD DUP4 CODECOPY DUP2 MLOAD SWAP2 MSTORE CALLER SWAP4 DUP1 LOG4 PUSH1 0x1 SWAP1 JUMP JUMPDEST POP POP SWAP1 JUMP JUMPDEST SWAP2 SWAP1 PUSH1 0x1 DUP4 ADD PUSH1 0x0 SWAP1 DUP3 DUP3 MSTORE DUP1 PUSH1 0x20 MSTORE PUSH1 0x40 DUP3 KECCAK256 SLOAD ISZERO PUSH1 0x0 EQ PUSH3 0x45B JUMPI DUP5 SLOAD SWAP5 PUSH9 0x10000000000000000 DUP7 LT ISZERO PUSH3 0x447 JUMPI PUSH1 0x1 DUP7 ADD DUP1 DUP3 SSTORE DUP7 LT ISZERO PUSH3 0x433 JUMPI DUP4 PUSH1 0x40 SWAP5 SWAP6 SWAP7 DUP3 DUP6 MSTORE PUSH1 0x20 DUP6 KECCAK256 ADD SSTORE SLOAD SWAP4 DUP3 MSTORE PUSH1 0x20 MSTORE KECCAK256 SSTORE PUSH1 0x1 SWAP1 JUMP JUMPDEST PUSH4 0x4E487B71 PUSH1 0xE0 SHL DUP4 MSTORE PUSH1 0x32 PUSH1 0x4 MSTORE PUSH1 0x24 DUP4 REVERT JUMPDEST PUSH4 0x4E487B71 PUSH1 0xE0 SHL DUP4 MSTORE PUSH1 0x41 PUSH1 0x4 MSTORE PUSH1 0x24 DUP4 REVERT JUMPDEST POP SWAP3 POP POP JUMP INVALID PUSH1 0x80 PUSH1 0x40 SWAP1 DUP1 DUP3 MSTORE PUSH1 0x4 SWAP1 DUP2 CALLDATASIZE LT ISZERO PUSH2 0x5A JUMPI JUMPDEST POP POP CALLDATASIZE ISZERO PUSH2 0x20 JUMPI PUSH1 0x0 DUP1 REVERT JUMPDEST PUSH1 0x20 PUSH32 0x860C0AA5520013080C2F65981705FCDEA474D9F7C3DAF954656ED5E65D692D1F SWAP2 PUSH2 0x50 CALLVALUE PUSH1 0xA SLOAD PUSH2 0x1193 JUMP JUMPDEST PUSH1 0xA SSTORE MLOAD CALLVALUE DUP2 MSTORE LOG1 STOP JUMPDEST PUSH1 0x0 SWAP2 DUP3 CALLDATALOAD PUSH1 0xE0 SHR SWAP2 DUP3 PUSH4 0x186F8A4 EQ PUSH2 0xDC7 JUMPI POP DUP2 PUSH4 0x1FFC9A7 EQ PUSH2 0xD53 JUMPI DUP2 PUSH4 0x967A771 EQ PUSH2 0xD34 JUMPI DUP2 PUSH4 0x248A9CA3 EQ PUSH2 0xD09 JUMPI DUP2 PUSH4 0x2F2FF15D EQ PUSH2 0xC9D JUMPI DUP2 PUSH4 0x334C1439 EQ PUSH2 0xB08 JUMPI DUP2 PUSH4 0x36568ABE EQ PUSH2 0xAC2 JUMPI DUP2 PUSH4 0x55857C27 EQ PUSH2 0xAA3 JUMPI DUP2 PUSH4 0x60C6D8AE EQ PUSH2 0xA84 JUMPI DUP2 PUSH4 0x61D027B3 EQ PUSH2 0xA5B JUMPI DUP2 PUSH4 0x62A2A47C EQ PUSH2 0xA20 JUMPI DUP2 PUSH4 0x69EE19AF EQ PUSH2 0xA01 JUMPI DUP2 PUSH4 0x7AB56083 EQ PUSH2 0x9E2 JUMPI DUP2 PUSH4 0x81E1CCBA EQ PUSH2 0x9C3 JUMPI DUP2 PUSH4 0x9010D07C EQ PUSH2 0x981 JUMPI DUP2 PUSH4 0x91D14854 EQ PUSH2 0x93A JUMPI DUP2 PUSH4 0x938A8BCA EQ PUSH2 0x91B JUMPI DUP2 PUSH4 0x94684E7E EQ PUSH2 0x8FC JUMPI DUP2 PUSH4 0xA1546687 EQ PUSH2 0x818 JUMPI DUP2 PUSH4 0xA217FDDF EQ PUSH2 0x7FD JUMPI DUP2 PUSH4 0xA3246AD3 EQ PUSH2 0x759 JUMPI DUP2 PUSH4 0xB7902303 EQ PUSH2 0x730 JUMPI DUP2 PUSH4 0xBB57AD20 EQ PUSH2 0x335 JUMPI DUP2 PUSH4 0xC8796572 EQ PUSH2 0x255 JUMPI DUP2 PUSH4 0xC93D0ECE EQ PUSH2 0x236 JUMPI DUP2 PUSH4 0xCA15C873 EQ PUSH2 0x20D JUMPI DUP2 PUSH4 0xD547741F EQ PUSH2 0x1CA JUMPI POP PUSH4 0xEE99205C EQ PUSH2 0x19E JUMPI DUP1 PUSH2 0x13 JUMP JUMPDEST SWAP1 CALLVALUE PUSH2 0x1C6 JUMPI DUP2 PUSH1 0x3 NOT CALLDATASIZE ADD SLT PUSH2 0x1C6 JUMPI PUSH1 0x3 SLOAD SWAP1 MLOAD PUSH1 0x1 PUSH1 0x1 PUSH1 0xA0 SHL SUB SWAP1 SWAP2 AND DUP2 MSTORE PUSH1 0x20 SWAP1 RETURN JUMPDEST POP DUP1 REVERT JUMPDEST SWAP1 POP DUP3 CALLVALUE PUSH2 0x209 JUMPI DUP1 PUSH1 0x3 NOT CALLDATASIZE ADD SLT PUSH2 0x209 JUMPI PUSH2 0x205 SWAP2 CALLDATALOAD PUSH2 0x200 PUSH1 0x1 PUSH2 0x1EF PUSH2 0xDEC JUMP JUMPDEST SWAP4 DUP4 DUP8 MSTORE DUP7 PUSH1 0x20 MSTORE DUP7 KECCAK256 ADD SLOAD PUSH2 0xE5F JUMP JUMPDEST PUSH2 0xF03 JUMP JUMPDEST POP DUP1 RETURN JUMPDEST DUP3 DUP1 REVERT JUMPDEST DUP4 SWAP2 POP CALLVALUE PUSH2 0x209 JUMPI PUSH1 0x20 CALLDATASIZE PUSH1 0x3 NOT ADD SLT PUSH2 0x209 JUMPI PUSH1 0x20 SWAP3 DUP3 SWAP2 CALLDATALOAD DUP2 MSTORE PUSH1 0x1 DUP5 MSTORE KECCAK256 SLOAD SWAP1 MLOAD SWAP1 DUP2 MSTORE RETURN JUMPDEST DUP3 DUP5 CALLVALUE PUSH2 0x1C6 JUMPI DUP2 PUSH1 0x3 NOT CALLDATASIZE ADD SLT PUSH2 0x1C6 JUMPI PUSH1 0x20 SWAP1 PUSH1 0xD SLOAD SWAP1 MLOAD SWAP1 DUP2 MSTORE RETURN JUMPDEST DUP4 SWAP2 POP DUP3 PUSH1 0x3 NOT CALLDATASIZE ADD SLT PUSH2 0x209 JUMPI PUSH32 0x2DCA0F5CE7E75A4B43FE2B0D6F5D0B7A2BF92ECF89F8F0AA17B8308B67038821 DUP1 DUP5 MSTORE DUP4 PUSH1 0x20 MSTORE DUP3 DUP5 KECCAK256 CALLER DUP6 MSTORE PUSH1 0x20 MSTORE PUSH1 0xFF DUP4 DUP6 KECCAK256 SLOAD AND ISZERO PUSH2 0x31A JUMPI POP CALLVALUE ISZERO PUSH2 0x2E3 JUMPI POP PUSH1 0x20 PUSH32 0x860C0AA5520013080C2F65981705FCDEA474D9F7C3DAF954656ED5E65D692D1F SWAP2 PUSH2 0x2D8 CALLVALUE PUSH1 0xA SLOAD PUSH2 0x1193 JUMP JUMPDEST PUSH1 0xA SSTORE MLOAD CALLVALUE DUP2 MSTORE LOG1 DUP1 RETURN JUMPDEST PUSH1 0x20 PUSH1 0x64 SWAP3 MLOAD SWAP2 PUSH3 0x461BCD PUSH1 0xE5 SHL DUP4 MSTORE DUP3 ADD MSTORE PUSH1 0x12 PUSH1 0x24 DUP3 ADD MSTORE PUSH18 0x139BC81999595CC81D1BC818DBDB1B1958DD PUSH1 0x72 SHL PUSH1 0x44 DUP3 ADD MSTORE REVERT JUMPDEST PUSH1 0x44 SWAP3 MLOAD SWAP2 PUSH4 0xE2517D3F PUSH1 0xE0 SHL DUP4 MSTORE CALLER SWAP1 DUP4 ADD MSTORE PUSH1 0x24 DUP3 ADD MSTORE REVERT JUMPDEST DUP3 DUP5 CALLVALUE PUSH2 0x1C6 JUMPI DUP2 PUSH1 0x3 NOT CALLDATASIZE ADD SLT PUSH2 0x1C6 JUMPI SELFBALANCE DUP1 ISZERO PUSH2 0x6F5 JUMPI PUSH2 0x2710 SWAP2 DUP3 PUSH2 0x35F PUSH1 0x6 SLOAD DUP5 PUSH2 0x11B6 JUMP JUMPDEST DIV SWAP2 DUP4 PUSH2 0x36E PUSH1 0x7 SLOAD DUP4 PUSH2 0x11B6 JUMP JUMPDEST DIV SWAP4 PUSH2 0x38B DUP2 PUSH2 0x380 PUSH1 0x8 SLOAD DUP6 PUSH2 0x11B6 JUMP JUMPDEST DIV SWAP3 PUSH1 0x9 SLOAD SWAP1 PUSH2 0x11B6 JUMP JUMPDEST DIV SWAP2 DUP4 PUSH2 0x67F JUMPI JUMPDEST DUP5 PUSH2 0x60A JUMPI JUMPDEST DUP3 PUSH2 0x589 JUMPI JUMPDEST DUP2 ISZERO DUP1 ISZERO PUSH2 0x3F3 JUMPI JUMPDEST POP MLOAD SWAP3 DUP4 MSTORE PUSH1 0x20 DUP4 ADD SWAP4 SWAP1 SWAP4 MSTORE PUSH1 0x40 DUP3 ADD SWAP3 SWAP1 SWAP3 MSTORE PUSH1 0x60 DUP2 ADD SWAP2 SWAP1 SWAP2 MSTORE PUSH32 0x78490B24A020086D2701460DC169A540280C517BEF9CDCD742F751A9099922A3 SWAP1 DUP1 PUSH1 0x80 DUP2 ADD JUMPDEST SUB SWAP1 LOG1 DUP1 RETURN JUMPDEST DUP7 DUP1 MSTORE PUSH1 0x20 SWAP1 PUSH1 0x1 DUP3 MSTORE DUP3 DUP9 KECCAK256 DUP1 SLOAD ISZERO PUSH2 0x576 JUMPI DUP9 MSTORE PUSH1 0x1 DUP1 PUSH1 0xA0 SHL SUB SWAP2 DUP3 DUP2 DUP11 KECCAK256 SLOAD AND SWAP3 PUSH1 0xA DUP7 MUL SWAP3 DUP7 DUP5 DIV PUSH1 0xA EQ OR ISZERO PUSH2 0x563 JUMPI SWAP3 DUP6 SWAP5 SWAP4 SWAP3 DUP3 DUP12 SWAP13 DUP6 DUP14 PUSH32 0x78490B24A020086D2701460DC169A540280C517BEF9CDCD742F751A9099922A3 SWAP15 SWAP7 PUSH2 0x3ED SWAP13 SWAP12 SWAP9 PUSH1 0x2 SLOAD AND PUSH1 0x64 DUP12 MLOAD DUP1 SWAP5 DUP2 SWAP4 PUSH4 0x23B872DD PUSH1 0xE0 SHL DUP4 MSTORE DUP12 DUP10 DUP5 ADD MSTORE ADDRESS PUSH1 0x24 DUP5 ADD MSTORE DUP11 PUSH1 0x44 DUP5 ADD MSTORE GAS CALL SWAP1 DUP2 PUSH2 0x546 JUMPI JUMPDEST POP PUSH2 0x4B8 JUMPI POP POP POP POP DUP2 DUP1 PUSH2 0x4AD SWAP5 DUP2 SWAP4 GAS CALL PUSH2 0x4A7 PUSH2 0x11C9 JUMP JUMPDEST POP PUSH2 0x1221 JUMP JUMPDEST SWAP1 SWAP2 SWAP3 DUP8 SWAP7 POP PUSH2 0x3A8 JUMP JUMPDEST PUSH1 0x44 DUP4 SWAP3 DUP8 DUP1 SWAP4 PUSH1 0x2 SLOAD AND DUP12 MLOAD SWAP8 DUP9 SWAP6 DUP7 SWAP5 PUSH4 0xA9059CBB PUSH1 0xE0 SHL DUP7 MSTORE DUP6 ADD MSTORE PUSH1 0x24 DUP5 ADD MSTORE GAS CALL SWAP2 DUP3 PUSH2 0x518 JUMPI JUMPDEST POP POP PUSH2 0x502 JUMPI DUP2 DUP1 PUSH2 0x4FD SWAP5 DUP2 SWAP4 GAS CALL PUSH2 0x4A7 PUSH2 0x11C9 JUMP JUMPDEST PUSH2 0x4AD JUMP JUMPDEST POP POP PUSH2 0x510 SWAP1 PUSH1 0xD SLOAD PUSH2 0x1193 JUMP JUMPDEST PUSH1 0xD SSTORE PUSH2 0x4AD JUMP JUMPDEST DUP2 PUSH2 0x537 SWAP3 SWAP1 RETURNDATASIZE LT PUSH2 0x53F JUMPI JUMPDEST PUSH2 0x52F DUP2 DUP4 PUSH2 0x115B JUMP JUMPDEST DUP2 ADD SWAP1 PUSH2 0x1209 JUMP JUMPDEST POP DUP13 DUP1 PUSH2 0x4E5 JUMP JUMPDEST POP RETURNDATASIZE PUSH2 0x525 JUMP JUMPDEST PUSH2 0x55C SWAP1 DUP6 RETURNDATASIZE DUP8 GT PUSH2 0x53F JUMPI PUSH2 0x52F DUP2 DUP4 PUSH2 0x115B JUMP JUMPDEST POP CODESIZE PUSH2 0x48C JUMP JUMPDEST PUSH4 0x4E487B71 PUSH1 0xE0 SHL DUP11 MSTORE PUSH1 0x11 DUP12 MSTORE PUSH1 0x24 DUP11 REVERT JUMPDEST PUSH4 0x4E487B71 PUSH1 0xE0 SHL DUP10 MSTORE PUSH1 0x32 DUP11 MSTORE PUSH1 0x24 DUP10 REVERT JUMPDEST DUP6 DUP1 DUP1 DUP1 DUP7 PUSH1 0x1 DUP1 PUSH1 0xA0 SHL SUB PUSH1 0x5 SLOAD AND GAS CALL PUSH2 0x5A3 PUSH2 0x11C9 JUMP JUMPDEST POP ISZERO PUSH2 0x5BD JUMPI PUSH2 0x5B5 DUP4 PUSH1 0xE SLOAD PUSH2 0x1193 JUMP JUMPDEST PUSH1 0xE SSTORE PUSH2 0x39F JUMP JUMPDEST MLOAD PUSH3 0x461BCD PUSH1 0xE5 SHL DUP2 MSTORE PUSH1 0x20 DUP2 DUP9 ADD MSTORE PUSH1 0x22 PUSH1 0x24 DUP3 ADD MSTORE PUSH32 0x496E737572616E63652066756E6420646973747269627574696F6E206661696C PUSH1 0x44 DUP3 ADD MSTORE PUSH2 0x1959 PUSH1 0xF2 SHL PUSH1 0x64 DUP3 ADD MSTORE PUSH1 0x84 SWAP1 REVERT JUMPDEST DUP6 DUP1 DUP1 DUP1 DUP9 PUSH1 0x1 DUP1 PUSH1 0xA0 SHL SUB DUP13 SLOAD AND GAS CALL PUSH2 0x623 PUSH2 0x11C9 JUMP JUMPDEST POP ISZERO PUSH2 0x63D JUMPI PUSH2 0x635 DUP6 PUSH1 0xC SLOAD PUSH2 0x1193 JUMP JUMPDEST PUSH1 0xC SSTORE PUSH2 0x399 JUMP JUMPDEST MLOAD PUSH3 0x461BCD PUSH1 0xE5 SHL DUP2 MSTORE PUSH1 0x20 DUP2 DUP9 ADD MSTORE PUSH1 0x1C PUSH1 0x24 DUP3 ADD MSTORE PUSH32 0x547265617375727920646973747269627574696F6E206661696C656400000000 PUSH1 0x44 DUP3 ADD MSTORE PUSH1 0x64 SWAP1 REVERT JUMPDEST DUP6 DUP1 DUP1 DUP1 DUP8 PUSH1 0x1 DUP1 PUSH1 0xA0 SHL SUB PUSH1 0x3 SLOAD AND GAS CALL PUSH2 0x699 PUSH2 0x11C9 JUMP JUMPDEST POP ISZERO PUSH2 0x6B3 JUMPI PUSH2 0x6AB DUP5 PUSH1 0xB SLOAD PUSH2 0x1193 JUMP JUMPDEST PUSH1 0xB SSTORE PUSH2 0x393 JUMP JUMPDEST MLOAD PUSH3 0x461BCD PUSH1 0xE5 SHL DUP2 MSTORE PUSH1 0x20 DUP2 DUP9 ADD MSTORE PUSH1 0x1B PUSH1 0x24 DUP3 ADD MSTORE PUSH32 0x5374616B696E6720646973747269627574696F6E206661696C65640000000000 PUSH1 0x44 DUP3 ADD MSTORE PUSH1 0x64 SWAP1 REVERT JUMPDEST DUP2 MLOAD PUSH3 0x461BCD PUSH1 0xE5 SHL DUP2 MSTORE PUSH1 0x20 DUP2 DUP7 ADD MSTORE PUSH1 0x15 PUSH1 0x24 DUP3 ADD MSTORE PUSH21 0x4E6F206665657320746F2064697374726962757465 PUSH1 0x58 SHL PUSH1 0x44 DUP3 ADD MSTORE PUSH1 0x64 SWAP1 REVERT JUMPDEST DUP3 DUP5 CALLVALUE PUSH2 0x1C6 JUMPI DUP2 PUSH1 0x3 NOT CALLDATASIZE ADD SLT PUSH2 0x1C6 JUMPI PUSH1 0x5 SLOAD SWAP1 MLOAD PUSH1 0x1 PUSH1 0x1 PUSH1 0xA0 SHL SUB SWAP1 SWAP2 AND DUP2 MSTORE PUSH1 0x20 SWAP1 RETURN JUMPDEST DUP4 SWAP2 POP CALLVALUE PUSH2 0x209 JUMPI PUSH1 0x20 SWAP1 DUP2 PUSH1 0x3 NOT CALLDATASIZE ADD SLT PUSH2 0x7F9 JUMPI CALLDATALOAD DUP4 MSTORE PUSH1 0x1 DUP1 DUP3 MSTORE DUP3 DUP5 KECCAK256 DUP4 MLOAD DUP2 SLOAD DUP1 DUP3 MSTORE SWAP2 DUP7 MSTORE DUP4 DUP7 KECCAK256 DUP2 DUP6 ADD SWAP7 SWAP4 SWAP5 SWAP2 SWAP3 DUP8 SWAP2 SWAP1 DUP6 JUMPDEST DUP2 DUP2 LT PUSH2 0x7E6 JUMPI POP POP POP DUP3 PUSH2 0x7AA SWAP2 SUB DUP4 PUSH2 0x115B JUMP JUMPDEST DUP5 MLOAD SWAP5 DUP2 DUP7 ADD SWAP3 DUP3 DUP8 MSTORE MLOAD DUP1 SWAP4 MSTORE DUP6 ADD SWAP6 SWAP3 JUMPDEST DUP3 DUP2 LT PUSH2 0x7CA JUMPI DUP6 DUP8 SUB DUP7 RETURN JUMPDEST DUP4 MLOAD PUSH1 0x1 PUSH1 0x1 PUSH1 0xA0 SHL SUB AND DUP8 MSTORE SWAP6 DUP2 ADD SWAP6 SWAP3 DUP2 ADD SWAP3 DUP5 ADD PUSH2 0x7BD JUMP JUMPDEST DUP3 SLOAD DUP5 MSTORE SWAP3 DUP5 ADD SWAP3 SWAP2 DUP8 ADD SWAP2 DUP8 ADD PUSH2 0x794 JUMP JUMPDEST DUP4 DUP1 REVERT JUMPDEST DUP3 DUP5 CALLVALUE PUSH2 0x1C6 JUMPI DUP2 PUSH1 0x3 NOT CALLDATASIZE ADD SLT PUSH2 0x1C6 JUMPI MLOAD SWAP1 DUP2 MSTORE PUSH1 0x20 SWAP1 RETURN JUMPDEST SWAP1 POP CALLVALUE PUSH2 0x1C6 JUMPI PUSH1 0x80 CALLDATASIZE PUSH1 0x3 NOT ADD SLT PUSH2 0x1C6 JUMPI DUP1 CALLDATALOAD PUSH1 0x24 CALLDATALOAD SWAP2 PUSH1 0x44 CALLDATALOAD PUSH1 0x64 CALLDATALOAD SWAP2 PUSH2 0x840 PUSH2 0xE07 JUMP JUMPDEST PUSH2 0x2710 PUSH2 0x85A DUP5 PUSH2 0x855 DUP6 PUSH2 0x855 DUP11 DUP11 PUSH2 0x1193 JUMP JUMPDEST PUSH2 0x1193 JUMP JUMPDEST SUB PUSH2 0x8B9 JUMPI POP SWAP1 PUSH2 0x3ED SWAP2 PUSH32 0x8ADEAD107BA13FAE1B5F36D9FA779C58B2BF71AAB754388AD1FEB3F6427FBD67 SWAP6 SWAP7 DUP5 PUSH1 0x6 SSTORE DUP6 PUSH1 0x7 SSTORE DUP2 PUSH1 0x8 SSTORE DUP3 PUSH1 0x9 SSTORE MLOAD SWAP5 DUP6 SWAP5 DUP6 SWAP1 SWAP5 SWAP4 SWAP3 PUSH1 0x60 SWAP3 PUSH1 0x80 DUP4 ADD SWAP7 DUP4 MSTORE PUSH1 0x20 DUP4 ADD MSTORE PUSH1 0x40 DUP3 ADD MSTORE ADD MSTORE JUMP JUMPDEST PUSH1 0x64 SWAP1 PUSH1 0x20 DUP9 MLOAD SWAP2 PUSH3 0x461BCD PUSH1 0xE5 SHL DUP4 MSTORE DUP3 ADD MSTORE PUSH1 0x1F PUSH1 0x24 DUP3 ADD MSTORE PUSH32 0x50657263656E7461676573206D7573742061646420757020746F203130302500 PUSH1 0x44 DUP3 ADD MSTORE REVERT JUMPDEST DUP3 DUP5 CALLVALUE PUSH2 0x1C6 JUMPI DUP2 PUSH1 0x3 NOT CALLDATASIZE ADD SLT PUSH2 0x1C6 JUMPI PUSH1 0x20 SWAP1 PUSH1 0xB SLOAD SWAP1 MLOAD SWAP1 DUP2 MSTORE RETURN JUMPDEST DUP3 DUP5 CALLVALUE PUSH2 0x1C6 JUMPI DUP2 PUSH1 0x3 NOT CALLDATASIZE ADD SLT PUSH2 0x1C6 JUMPI PUSH1 0x20 SWAP1 PUSH1 0xC SLOAD SWAP1 MLOAD SWAP1 DUP2 MSTORE RETURN JUMPDEST DUP4 SWAP2 POP CALLVALUE PUSH2 0x209 JUMPI DUP2 PUSH1 0x3 NOT CALLDATASIZE ADD SLT PUSH2 0x209 JUMPI DUP2 PUSH1 0x20 SWAP4 PUSH1 0xFF SWAP3 PUSH2 0x95C PUSH2 0xDEC JUMP JUMPDEST SWAP1 CALLDATALOAD DUP3 MSTORE DUP2 DUP7 MSTORE DUP3 DUP3 KECCAK256 PUSH1 0x1 PUSH1 0x1 PUSH1 0xA0 SHL SUB SWAP1 SWAP2 AND DUP3 MSTORE DUP6 MSTORE KECCAK256 SLOAD SWAP2 MLOAD SWAP2 AND ISZERO ISZERO DUP2 MSTORE RETURN JUMPDEST DUP4 SWAP2 POP CALLVALUE PUSH2 0x209 JUMPI DUP2 PUSH1 0x3 NOT CALLDATASIZE ADD SLT PUSH2 0x209 JUMPI PUSH1 0x20 SWAP3 PUSH2 0x9AD SWAP2 CALLDATALOAD DUP2 MSTORE PUSH1 0x1 DUP5 MSTORE DUP3 PUSH1 0x24 CALLDATALOAD SWAP2 KECCAK256 PUSH2 0xFB3 JUMP JUMPDEST SWAP1 SLOAD SWAP2 MLOAD SWAP2 PUSH1 0x1 DUP1 PUSH1 0xA0 SHL SUB SWAP2 PUSH1 0x3 SHL SHR AND DUP2 MSTORE RETURN JUMPDEST DUP3 DUP5 CALLVALUE PUSH2 0x1C6 JUMPI DUP2 PUSH1 0x3 NOT CALLDATASIZE ADD SLT PUSH2 0x1C6 JUMPI PUSH1 0x20 SWAP1 PUSH1 0x6 SLOAD SWAP1 MLOAD SWAP1 DUP2 MSTORE RETURN JUMPDEST DUP3 DUP5 CALLVALUE PUSH2 0x1C6 JUMPI DUP2 PUSH1 0x3 NOT CALLDATASIZE ADD SLT PUSH2 0x1C6 JUMPI PUSH1 0x20 SWAP1 PUSH1 0x7 SLOAD SWAP1 MLOAD SWAP1 DUP2 MSTORE RETURN JUMPDEST DUP3 DUP5 CALLVALUE PUSH2 0x1C6 JUMPI DUP2 PUSH1 0x3 NOT CALLDATASIZE ADD SLT PUSH2 0x1C6 JUMPI PUSH1 0x20 SWAP1 PUSH1 0x8 SLOAD SWAP1 MLOAD SWAP1 DUP2 MSTORE RETURN JUMPDEST DUP3 DUP5 CALLVALUE PUSH2 0x1C6 JUMPI DUP2 PUSH1 0x3 NOT CALLDATASIZE ADD SLT PUSH2 0x1C6 JUMPI PUSH1 0x20 SWAP1 MLOAD PUSH32 0x2DCA0F5CE7E75A4B43FE2B0D6F5D0B7A2BF92ECF89F8F0AA17B8308B67038821 DUP2 MSTORE RETURN JUMPDEST DUP4 SWAP2 POP CALLVALUE PUSH2 0x209 JUMPI DUP3 PUSH1 0x3 NOT CALLDATASIZE ADD SLT PUSH2 0x209 JUMPI SLOAD SWAP1 MLOAD PUSH1 0x1 PUSH1 0x1 PUSH1 0xA0 SHL SUB SWAP1 SWAP2 AND DUP2 MSTORE PUSH1 0x20 SWAP2 POP RETURN JUMPDEST DUP3 DUP5 CALLVALUE PUSH2 0x1C6 JUMPI DUP2 PUSH1 0x3 NOT CALLDATASIZE ADD SLT PUSH2 0x1C6 JUMPI PUSH1 0x20 SWAP1 PUSH1 0xA SLOAD SWAP1 MLOAD SWAP1 DUP2 MSTORE RETURN JUMPDEST DUP3 DUP5 CALLVALUE PUSH2 0x1C6 JUMPI DUP2 PUSH1 0x3 NOT CALLDATASIZE ADD SLT PUSH2 0x1C6 JUMPI PUSH1 0x20 SWAP1 PUSH1 0xE SLOAD SWAP1 MLOAD SWAP1 DUP2 MSTORE RETURN JUMPDEST DUP3 DUP5 CALLVALUE PUSH2 0x1C6 JUMPI DUP1 PUSH1 0x3 NOT CALLDATASIZE ADD SLT PUSH2 0x1C6 JUMPI PUSH2 0xADC PUSH2 0xDEC JUMP JUMPDEST SWAP1 CALLER PUSH1 0x1 PUSH1 0x1 PUSH1 0xA0 SHL SUB DUP4 AND SUB PUSH2 0xAF9 JUMPI POP PUSH2 0x205 SWAP2 SWAP3 CALLDATALOAD PUSH2 0xF03 JUMP JUMPDEST MLOAD PUSH4 0x334BD919 PUSH1 0xE1 SHL DUP2 MSTORE DUP4 SWAP1 REVERT JUMPDEST DUP4 SWAP2 POP CALLVALUE PUSH2 0x209 JUMPI PUSH1 0x60 CALLDATASIZE PUSH1 0x3 NOT ADD SLT PUSH2 0x209 JUMPI PUSH1 0x1 PUSH1 0x1 PUSH1 0xA0 SHL SUB DUP2 CALLDATALOAD DUP2 DUP2 AND SWAP4 SWAP2 SWAP3 SWAP1 DUP5 SWAP1 SUB PUSH2 0xC99 JUMPI PUSH2 0xB3C PUSH2 0xDEC JUMP JUMPDEST SWAP3 PUSH1 0x44 CALLDATALOAD SWAP4 DUP2 DUP6 AND DUP1 SWAP6 SUB PUSH2 0xC95 JUMPI PUSH2 0xB53 PUSH2 0xE07 JUMP JUMPDEST DUP6 ISZERO PUSH2 0xC52 JUMPI AND SWAP1 DUP2 ISZERO PUSH2 0xC0F JUMPI DUP4 ISZERO PUSH2 0xBCC JUMPI SWAP2 DUP4 SWAP2 PUSH1 0x60 SWAP5 PUSH32 0x97A48C4BE738BDF3E84E8F3927DF6D4E52CCC94C58E96A666FACA603E456D490 SWAP7 SWAP5 PUSH12 0xFFFFFFFFFFFFFFFFFFFFFFFF PUSH1 0xA0 SHL SWAP1 DUP7 DUP3 PUSH1 0x3 SLOAD AND OR PUSH1 0x3 SSTORE DUP4 DUP3 DUP3 SLOAD AND OR SWAP1 SSTORE PUSH1 0x5 SLOAD AND OR PUSH1 0x5 SSTORE DUP2 MLOAD SWAP4 DUP5 MSTORE PUSH1 0x20 DUP5 ADD MSTORE DUP3 ADD MSTORE LOG1 DUP1 RETURN JUMPDEST PUSH1 0x64 SWAP1 PUSH1 0x20 DUP5 MLOAD SWAP2 PUSH3 0x461BCD PUSH1 0xE5 SHL DUP4 MSTORE DUP3 ADD MSTORE PUSH1 0x1E PUSH1 0x24 DUP3 ADD MSTORE PUSH32 0x496E76616C696420696E737572616E63652066756E6420616464726573730000 PUSH1 0x44 DUP3 ADD MSTORE REVERT JUMPDEST PUSH1 0x64 SWAP1 PUSH1 0x20 DUP5 MLOAD SWAP2 PUSH3 0x461BCD PUSH1 0xE5 SHL DUP4 MSTORE DUP3 ADD MSTORE PUSH1 0x18 PUSH1 0x24 DUP3 ADD MSTORE PUSH32 0x496E76616C696420747265617375727920616464726573730000000000000000 PUSH1 0x44 DUP3 ADD MSTORE REVERT JUMPDEST DUP4 MLOAD PUSH3 0x461BCD PUSH1 0xE5 SHL DUP2 MSTORE PUSH1 0x20 DUP2 DUP6 ADD DUP2 SWAP1 MSTORE PUSH1 0x24 DUP3 ADD MSTORE PUSH32 0x496E76616C6964207374616B696E6720636F6E74726163742061646472657373 PUSH1 0x44 DUP3 ADD MSTORE PUSH1 0x64 SWAP1 REVERT JUMPDEST DUP7 DUP1 REVERT JUMPDEST DUP5 DUP1 REVERT JUMPDEST DUP4 SWAP2 POP CALLVALUE PUSH2 0x209 JUMPI DUP2 PUSH1 0x3 NOT CALLDATASIZE ADD SLT PUSH2 0x209 JUMPI CALLDATALOAD SWAP1 PUSH2 0xCBA PUSH2 0xDEC JUMP JUMPDEST SWAP1 DUP3 DUP5 MSTORE DUP4 PUSH1 0x20 MSTORE PUSH2 0xCD1 PUSH1 0x1 DUP3 DUP7 KECCAK256 ADD SLOAD PUSH2 0xE5F JUMP JUMPDEST PUSH2 0xCDB DUP3 DUP5 PUSH2 0xE85 JUMP JUMPDEST PUSH2 0xCE3 JUMPI DUP4 DUP1 RETURN JUMPDEST SWAP2 DUP4 MSTORE PUSH1 0x1 PUSH1 0x20 MSTORE SWAP1 DUP3 KECCAK256 PUSH2 0xD01 SWAP2 PUSH1 0x1 PUSH1 0x1 PUSH1 0xA0 SHL SUB AND SWAP1 PUSH2 0xFE1 JUMP JUMPDEST POP DUP2 DUP1 DUP1 DUP4 DUP1 RETURN JUMPDEST DUP4 SWAP2 POP CALLVALUE PUSH2 0x209 JUMPI PUSH1 0x20 CALLDATASIZE PUSH1 0x3 NOT ADD SLT PUSH2 0x209 JUMPI DUP2 PUSH1 0x20 SWAP4 PUSH1 0x1 SWAP3 CALLDATALOAD DUP2 MSTORE DUP1 DUP6 MSTORE KECCAK256 ADD SLOAD SWAP1 MLOAD SWAP1 DUP2 MSTORE RETURN JUMPDEST DUP3 DUP5 CALLVALUE PUSH2 0x1C6 JUMPI DUP2 PUSH1 0x3 NOT CALLDATASIZE ADD SLT PUSH2 0x1C6 JUMPI PUSH1 0x20 SWAP1 PUSH1 0x9 SLOAD SWAP1 MLOAD SWAP1 DUP2 MSTORE RETURN JUMPDEST DUP4 SWAP2 POP CALLVALUE PUSH2 0x209 JUMPI PUSH1 0x20 CALLDATASIZE PUSH1 0x3 NOT ADD SLT PUSH2 0x209 JUMPI CALLDATALOAD SWAP1 PUSH4 0xFFFFFFFF PUSH1 0xE0 SHL DUP3 AND DUP1 SWAP3 SUB PUSH2 0x209 JUMPI PUSH1 0x20 SWAP3 POP PUSH4 0x5A05180F PUSH1 0xE0 SHL DUP3 EQ SWAP2 DUP3 ISZERO PUSH2 0xD99 JUMPI JUMPDEST POP MLOAD SWAP1 ISZERO ISZERO DUP2 MSTORE RETURN JUMPDEST SWAP1 SWAP2 POP PUSH4 0x7965DB0B PUSH1 0xE0 SHL DUP2 EQ SWAP1 DUP2 ISZERO PUSH2 0xDB6 JUMPI JUMPDEST POP SWAP1 DUP4 PUSH2 0xD90 JUMP JUMPDEST PUSH4 0x1FFC9A7 PUSH1 0xE0 SHL EQ SWAP1 POP DUP4 PUSH2 0xDAE JUMP JUMPDEST DUP4 SWAP1 CALLVALUE PUSH2 0x1C6 JUMPI DUP2 PUSH1 0x3 NOT CALLDATASIZE ADD SLT PUSH2 0x1C6 JUMPI PUSH1 0x2 SLOAD PUSH1 0x1 PUSH1 0x1 PUSH1 0xA0 SHL SUB AND DUP2 MSTORE PUSH1 0x20 SWAP1 RETURN JUMPDEST PUSH1 0x24 CALLDATALOAD SWAP1 PUSH1 0x1 PUSH1 0x1 PUSH1 0xA0 SHL SUB DUP3 AND DUP3 SUB PUSH2 0xE02 JUMPI JUMP JUMPDEST PUSH1 0x0 DUP1 REVERT JUMPDEST CALLER PUSH1 0x0 SWAP1 DUP2 MSTORE PUSH32 0xAD3228B676F7D3CD4284A5443F17F1962B36E491B30A40B2405849E597BA5FB5 PUSH1 0x20 MSTORE PUSH1 0x40 DUP2 KECCAK256 SLOAD PUSH1 0xFF AND ISZERO PUSH2 0xE41 JUMPI POP JUMP JUMPDEST PUSH1 0x44 SWAP1 PUSH1 0x40 MLOAD SWAP1 PUSH4 0xE2517D3F PUSH1 0xE0 SHL DUP3 MSTORE CALLER PUSH1 0x4 DUP4 ADD MSTORE PUSH1 0x24 DUP3 ADD MSTORE REVERT JUMPDEST DUP1 PUSH1 0x0 MSTORE PUSH1 0x0 PUSH1 0x20 MSTORE PUSH1 0x40 PUSH1 0x0 KECCAK256 CALLER PUSH1 0x0 MSTORE PUSH1 0x20 MSTORE PUSH1 0xFF PUSH1 0x40 PUSH1 0x0 KECCAK256 SLOAD AND ISZERO PUSH2 0xE41 JUMPI POP JUMP JUMPDEST SWAP1 PUSH1 0x0 SWAP2 DUP1 DUP4 MSTORE DUP3 PUSH1 0x20 MSTORE PUSH1 0x40 DUP4 KECCAK256 SWAP2 PUSH1 0x1 DUP1 PUSH1 0xA0 SHL SUB AND SWAP2 DUP3 DUP5 MSTORE PUSH1 0x20 MSTORE PUSH1 0xFF PUSH1 0x40 DUP5 KECCAK256 SLOAD AND ISZERO PUSH1 0x0 EQ PUSH2 0xEFE JUMPI DUP1 DUP4 MSTORE DUP3 PUSH1 0x20 MSTORE PUSH1 0x40 DUP4 KECCAK256 DUP3 DUP5 MSTORE PUSH1 0x20 MSTORE PUSH1 0x40 DUP4 KECCAK256 PUSH1 0x1 PUSH1 0xFF NOT DUP3 SLOAD AND OR SWAP1 SSTORE PUSH32 0x2F8788117E7EFF1D82E926EC794901D17C78024A50270940304540A733656F0D CALLER SWAP4 DUP1 LOG4 PUSH1 0x1 SWAP1 JUMP JUMPDEST POP POP SWAP1 JUMP JUMPDEST PUSH2 0xF0D DUP3 DUP3 PUSH2 0xF3E JUMP JUMPDEST SWAP2 DUP3 PUSH2 0xF18 JUMPI POP POP SWAP1 JUMP JUMPDEST PUSH1 0x0 SWAP2 DUP3 MSTORE PUSH1 0x1 PUSH1 0x20 MSTORE PUSH1 0x40 SWAP1 SWAP2 KECCAK256 PUSH2 0xF3A SWAP2 PUSH1 0x1 PUSH1 0x1 PUSH1 0xA0 SHL SUB AND SWAP1 PUSH2 0x106B JUMP JUMPDEST POP SWAP1 JUMP JUMPDEST SWAP1 PUSH1 0x0 SWAP2 DUP1 DUP4 MSTORE DUP3 PUSH1 0x20 MSTORE PUSH1 0x40 DUP4 KECCAK256 SWAP2 PUSH1 0x1 DUP1 PUSH1 0xA0 SHL SUB AND SWAP2 DUP3 DUP5 MSTORE PUSH1 0x20 MSTORE PUSH1 0xFF PUSH1 0x40 DUP5 KECCAK256 SLOAD AND PUSH1 0x0 EQ PUSH2 0xEFE JUMPI DUP1 DUP4 MSTORE DUP3 PUSH1 0x20 MSTORE PUSH1 0x40 DUP4 KECCAK256 DUP3 DUP5 MSTORE PUSH1 0x20 MSTORE PUSH1 0x40 DUP4 KECCAK256 PUSH1 0xFF NOT DUP2 SLOAD AND SWAP1 SSTORE PUSH32 0xF6391F5C32D9C69D2A47EA670B442974B53935D1EDC7FD64EB21E047A839171B CALLER SWAP4 DUP1 LOG4 PUSH1 0x1 SWAP1 JUMP JUMPDEST DUP1 SLOAD DUP3 LT ISZERO PUSH2 0xFCB JUMPI PUSH1 0x0 MSTORE PUSH1 0x20 PUSH1 0x0 KECCAK256 ADD SWAP1 PUSH1 0x0 SWAP1 JUMP JUMPDEST PUSH4 0x4E487B71 PUSH1 0xE0 SHL PUSH1 0x0 MSTORE PUSH1 0x32 PUSH1 0x4 MSTORE PUSH1 0x24 PUSH1 0x0 REVERT JUMPDEST SWAP2 SWAP1 PUSH1 0x1 DUP4 ADD PUSH1 0x0 SWAP1 DUP3 DUP3 MSTORE DUP1 PUSH1 0x20 MSTORE PUSH1 0x40 DUP3 KECCAK256 SLOAD ISZERO PUSH1 0x0 EQ PUSH2 0x1065 JUMPI DUP5 SLOAD SWAP5 PUSH9 0x10000000000000000 DUP7 LT ISZERO PUSH2 0x1051 JUMPI DUP4 PUSH2 0x1041 PUSH2 0x102A DUP9 PUSH1 0x1 PUSH1 0x40 SWAP9 SWAP10 SWAP11 ADD DUP6 SSTORE DUP5 PUSH2 0xFB3 JUMP JUMPDEST DUP2 SWAP4 SWAP2 SLOAD SWAP1 PUSH1 0x3 SHL SWAP2 DUP3 SHL SWAP2 PUSH1 0x0 NOT SWAP1 SHL NOT AND OR SWAP1 JUMP JUMPDEST SWAP1 SSTORE SLOAD SWAP4 DUP3 MSTORE PUSH1 0x20 MSTORE KECCAK256 SSTORE PUSH1 0x1 SWAP1 JUMP JUMPDEST PUSH4 0x4E487B71 PUSH1 0xE0 SHL DUP4 MSTORE PUSH1 0x41 PUSH1 0x4 MSTORE PUSH1 0x24 DUP4 REVERT JUMPDEST POP SWAP3 POP POP JUMP JUMPDEST SWAP1 PUSH1 0x1 DUP3 ADD SWAP1 PUSH1 0x0 SWAP3 DUP2 DUP5 MSTORE DUP3 PUSH1 0x20 MSTORE PUSH1 0x40 DUP5 KECCAK256 SLOAD SWAP1 DUP2 ISZERO ISZERO PUSH1 0x0 EQ PUSH2 0x1154 JUMPI PUSH1 0x0 NOT SWAP2 DUP1 DUP4 ADD DUP2 DUP2 GT PUSH2 0x1140 JUMPI DUP3 SLOAD SWAP1 DUP5 DUP3 ADD SWAP2 DUP3 GT PUSH2 0x112C JUMPI DUP2 DUP2 SUB PUSH2 0x10F7 JUMPI JUMPDEST POP POP POP DUP1 SLOAD DUP1 ISZERO PUSH2 0x10E3 JUMPI DUP3 ADD SWAP2 PUSH2 0x10C6 DUP4 DUP4 PUSH2 0xFB3 JUMP JUMPDEST SWAP1 SWAP2 DUP3 SLOAD SWAP2 PUSH1 0x3 SHL SHL NOT AND SWAP1 SSTORE SSTORE DUP3 MSTORE PUSH1 0x20 MSTORE PUSH1 0x40 DUP2 KECCAK256 SSTORE PUSH1 0x1 SWAP1 JUMP JUMPDEST PUSH4 0x4E487B71 PUSH1 0xE0 SHL DUP7 MSTORE PUSH1 0x31 PUSH1 0x4 MSTORE PUSH1 0x24 DUP7 REVERT JUMPDEST PUSH2 0x1117 PUSH2 0x1107 PUSH2 0x102A SWAP4 DUP7 PUSH2 0xFB3 JUMP JUMPDEST SWAP1 SLOAD SWAP1 PUSH1 0x3 SHL SHR SWAP3 DUP4 SWAP3 DUP7 PUSH2 0xFB3 JUMP JUMPDEST SWAP1 SSTORE DUP7 MSTORE DUP5 PUSH1 0x20 MSTORE PUSH1 0x40 DUP7 KECCAK256 SSTORE CODESIZE DUP1 DUP1 PUSH2 0x10AE JUMP JUMPDEST PUSH4 0x4E487B71 PUSH1 0xE0 SHL DUP9 MSTORE PUSH1 0x11 PUSH1 0x4 MSTORE PUSH1 0x24 DUP9 REVERT JUMPDEST PUSH4 0x4E487B71 PUSH1 0xE0 SHL DUP8 MSTORE PUSH1 0x11 PUSH1 0x4 MSTORE PUSH1 0x24 DUP8 REVERT JUMPDEST POP POP POP POP SWAP1 JUMP JUMPDEST SWAP1 PUSH1 0x1F DUP1 NOT SWAP2 ADD AND DUP2 ADD SWAP1 DUP2 LT PUSH8 0xFFFFFFFFFFFFFFFF DUP3 GT OR PUSH2 0x117D JUMPI PUSH1 0x40 MSTORE JUMP JUMPDEST PUSH4 0x4E487B71 PUSH1 0xE0 SHL PUSH1 0x0 MSTORE PUSH1 0x41 PUSH1 0x4 MSTORE PUSH1 0x24 PUSH1 0x0 REVERT JUMPDEST SWAP2 SWAP1 DUP3 ADD DUP1 SWAP3 GT PUSH2 0x11A0 JUMPI JUMP JUMPDEST PUSH4 0x4E487B71 PUSH1 0xE0 SHL PUSH1 0x0 MSTORE PUSH1 0x11 PUSH1 0x4 MSTORE PUSH1 0x24 PUSH1 0x0 REVERT JUMPDEST DUP2 DUP2 MUL SWAP3 SWAP2 DUP2 ISZERO SWAP2 DUP5 DIV EQ OR ISZERO PUSH2 0x11A0 JUMPI JUMP JUMPDEST RETURNDATASIZE ISZERO PUSH2 0x1204 JUMPI RETURNDATASIZE SWAP1 PUSH8 0xFFFFFFFFFFFFFFFF DUP3 GT PUSH2 0x117D JUMPI PUSH1 0x40 MLOAD SWAP2 PUSH2 0x11F8 PUSH1 0x1F DUP3 ADD PUSH1 0x1F NOT AND PUSH1 0x20 ADD DUP5 PUSH2 0x115B JUMP JUMPDEST DUP3 MSTORE RETURNDATASIZE PUSH1 0x0 PUSH1 0x20 DUP5 ADD RETURNDATACOPY JUMP JUMPDEST PUSH1 0x60 SWAP1 JUMP JUMPDEST SWAP1 DUP2 PUSH1 0x20 SWAP2 SUB SLT PUSH2 0xE02 JUMPI MLOAD DUP1 ISZERO ISZERO DUP2 SUB PUSH2 0xE02 JUMPI SWAP1 JUMP JUMPDEST ISZERO PUSH2 0x1228 JUMPI JUMP JUMPDEST PUSH1 0x40 MLOAD PUSH3 0x461BCD PUSH1 0xE5 SHL DUP2 MSTORE PUSH1 0x20 PUSH1 0x4 DUP3 ADD MSTORE PUSH1 0x15 PUSH1 0x24 DUP3 ADD MSTORE PUSH21 0x10591B5A5B881D1C985B9CD9995C8819985A5B1959 PUSH1 0x5A SHL PUSH1 0x44 DUP3 ADD MSTORE PUSH1 0x64 SWAP1 REVERT INVALID LOG2 PUSH5 0x6970667358 0x22 SLT KECCAK256 0xD9 0xEC 0xEB PUSH21 0x6282FE34AC7DE3076981B35247A2D0C1BCDCCD7299 0xC2 DUP5 MUL 0xA5 0xB9 MSTORE SGT PUSH5 0x736F6C6343 STOP ADDMOD EQ STOP CALLER 0x2F DUP8 DUP9 GT PUSH31 0x7EFF1D82E926EC794901D17C78024A50270940304540A733656F0D2DCA0F5C 0xE7 0xE7 GAS 0x4B NUMBER INVALID 0x2B 0xD PUSH16 0x5D0B7A2BF92ECF89F8F0AA17B8308B67 SUB DUP9 0x21 "},"methodIdentifiers":{"DEFAULT_ADMIN_ROLE()":"a217fddf","FEE_COLLECTOR_ROLE()":"62a2a47c","buybackBurnPercentage()":"69ee19af","collectFees()":"c8796572","distributeFees()":"bb57ad20","getRoleAdmin(bytes32)":"248a9ca3","getRoleMember(bytes32,uint256)":"9010d07c","getRoleMemberCount(bytes32)":"ca15c873","getRoleMembers(bytes32)":"a3246ad3","grantRole(bytes32,address)":"2f2ff15d","hasRole(bytes32,address)":"91d14854","insuranceFund()":"b7902303","insuranceFundPercentage()":"0967a771","omniToken()":"0186f8a4","renounceRole(bytes32,address)":"36568abe","revokeRole(bytes32,address)":"d547741f","stakingContract()":"ee99205c","stakingPercentage()":"81e1ccba","supportsInterface(bytes4)":"01ffc9a7","totalBuybackBurned()":"c93d0ece","totalFeesCollected()":"60c6d8ae","totalInsuranceFundDistributed()":"55857c27","totalStakingDistributed()":"94684e7e","totalTreasuryDistributed()":"938a8bca","treasury()":"61d027b3","treasuryPercentage()":"7ab56083","updateAddresses(address,address,address)":"334c1439","updateDistribution(uint256,uint256,uint256,uint256)":"a1546687"}}}}}