{"contracts/OMNToken.sol":{"OMNToken":{"abi":[{"inputs":[{"internalType":"address","name":"initialGovernance","type":"address"}],"stateMutability":"nonpayable","type":"constructor"},{"inputs":[],"name":"AccessControlBadConfirmation","type":"error"},{"inputs":[{"internalType":"address","name":"account","type":"address"},{"internalType":"bytes32","name":"neededRole","type":"bytes32"}],"name":"AccessControlUnauthorizedAccount","type":"error"},{"inputs":[],"name":"CheckpointUnorderedInsertion","type":"error"},{"inputs":[],"name":"ECDSAInvalidSignature","type":"error"},{"inputs":[{"internalType":"uint256","name":"length","type":"uint256"}],"name":"ECDSAInvalidSignatureLength","type":"error"},{"inputs":[{"internalType":"bytes32","name":"s","type":"bytes32"}],"name":"ECDSAInvalidSignatureS","type":"error"},{"inputs":[{"internalType":"uint256","name":"increasedSupply","type":"uint256"},{"internalType":"uint256","name":"cap","type":"uint256"}],"name":"ERC20ExceededSafeSupply","type":"error"},{"inputs":[{"internalType":"address","name":"spender","type":"address"},{"internalType":"uint256","name":"allowance","type":"uint256"},{"internalType":"uint256","name":"needed","type":"uint256"}],"name":"ERC20InsufficientAllowance","type":"error"},{"inputs":[{"internalType":"address","name":"sender","type":"address"},{"internalType":"uint256","name":"balance","type":"uint256"},{"internalType":"uint256","name":"needed","type":"uint256"}],"name":"ERC20InsufficientBalance","type":"error"},{"inputs":[{"internalType":"address","name":"approver","type":"address"}],"name":"ERC20InvalidApprover","type":"error"},{"inputs":[{"internalType":"address","name":"receiver","type":"address"}],"name":"ERC20InvalidReceiver","type":"error"},{"inputs":[{"internalType":"address","name":"sender","type":"address"}],"name":"ERC20InvalidSender","type":"error"},{"inputs":[{"internalType":"address","name":"spender","type":"address"}],"name":"ERC20InvalidSpender","type":"error"},{"inputs":[{"internalType":"uint256","name":"deadline","type":"uint256"}],"name":"ERC2612ExpiredSignature","type":"error"},{"inputs":[{"internalType":"address","name":"signer","type":"address"},{"internalType":"address","name":"owner","type":"address"}],"name":"ERC2612InvalidSigner","type":"error"},{"inputs":[{"internalType":"uint256","name":"timepoint","type":"uint256"},{"internalType":"uint48","name":"clock","type":"uint48"}],"name":"ERC5805FutureLookup","type":"error"},{"inputs":[],"name":"ERC6372InconsistentClock","type":"error"},{"inputs":[{"internalType":"address","name":"account","type":"address"},{"internalType":"uint256","name":"currentNonce","type":"uint256"}],"name":"InvalidAccountNonce","type":"error"},{"inputs":[],"name":"InvalidShortString","type":"error"},{"inputs":[{"internalType":"uint8","name":"bits","type":"uint8"},{"internalType":"uint256","name":"value","type":"uint256"}],"name":"SafeCastOverflowedUintDowncast","type":"error"},{"inputs":[{"internalType":"string","name":"str","type":"string"}],"name":"StringTooLong","type":"error"},{"inputs":[{"internalType":"uint256","name":"expiry","type":"uint256"}],"name":"VotesExpiredSignature","type":"error"},{"anonymous":false,"inputs":[{"indexed":true,"internalType":"address","name":"owner","type":"address"},{"indexed":true,"internalType":"address","name":"spender","type":"address"},{"indexed":false,"internalType":"uint256","name":"value","type":"uint256"}],"name":"Approval","type":"event"},{"anonymous":false,"inputs":[{"indexed":true,"internalType":"address","name":"delegator","type":"address"},{"indexed":true,"internalType":"address","name":"fromDelegate","type":"address"},{"indexed":true,"internalType":"address","name":"toDelegate","type":"address"}],"name":"DelegateChanged","type":"event"},{"anonymous":false,"inputs":[{"indexed":true,"internalType":"address","name":"delegate","type":"address"},{"indexed":false,"internalType":"uint256","name":"previousVotes","type":"uint256"},{"indexed":false,"internalType":"uint256","name":"newVotes","type":"uint256"}],"name":"DelegateVotesChanged","type":"event"},{"anonymous":false,"inputs":[{"indexed":false,"internalType":"uint256","name":"tier","type":"uint256"},{"indexed":false,"internalType":"uint256","name":"discount","type":"uint256"}],"name":"DiscountTierSet","type":"event"},{"anonymous":false,"inputs":[],"name":"EIP712DomainChanged","type":"event"},{"anonymous":false,"inputs":[{"indexed":true,"internalType":"address","name":"insuranceFund","type":"address"}],"name":"InsuranceFundUpdated","type":"event"},{"anonymous":false,"inputs":[{"indexed":false,"internalType":"uint256","name":"newLeverage","type":"uint256"}],"name":"MaxLeverageUpdated","type":"event"},{"anonymous":false,"inputs":[{"indexed":true,"internalType":"address","name":"to","type":"address"},{"indexed":false,"internalType":"uint256","name":"amount","type":"uint256"}],"name":"Minted","type":"event"},{"anonymous":false,"inputs":[{"indexed":false,"internalType":"uint256","name":"staking","type":"uint256"},{"indexed":false,"internalType":"uint256","name":"treasury","type":"uint256"},{"indexed":false,"internalType":"uint256","name":"buybackBurn","type":"uint256"},{"indexed":false,"internalType":"uint256","name":"insurance","type":"uint256"}],"name":"RewardDistributionUpdated","type":"event"},{"anonymous":false,"inputs":[{"indexed":true,"internalType":"bytes32","name":"role","type":"bytes32"},{"indexed":true,"internalType":"bytes32","name":"previousAdminRole","type":"bytes32"},{"indexed":true,"internalType":"bytes32","name":"newAdminRole","type":"bytes32"}],"name":"RoleAdminChanged","type":"event"},{"anonymous":false,"inputs":[{"indexed":true,"internalType":"bytes32","name":"role","type":"bytes32"},{"indexed":true,"internalType":"address","name":"account","type":"address"},{"indexed":true,"internalType":"address","name":"sender","type":"address"}],"name":"RoleGranted","type":"event"},{"anonymous":false,"inputs":[{"indexed":true,"internalType":"bytes32","name":"role","type":"bytes32"},{"indexed":true,"internalType":"address","name":"account","type":"address"},{"indexed":true,"internalType":"address","name":"sender","type":"address"}],"name":"RoleRevoked","type":"event"},{"anonymous":false,"inputs":[{"indexed":false,"internalType":"uint256","name":"newFee","type":"uint256"}],"name":"TradingFeeBaseUpdated","type":"event"},{"anonymous":false,"inputs":[{"indexed":true,"internalType":"address","name":"from","type":"address"},{"indexed":true,"internalType":"address","name":"to","type":"address"},{"indexed":false,"internalType":"uint256","name":"value","type":"uint256"}],"name":"Transfer","type":"event"},{"anonymous":false,"inputs":[{"indexed":true,"internalType":"address","name":"treasury","type":"address"}],"name":"TreasuryUpdated","type":"event"},{"inputs":[],"name":"CLOCK_MODE","outputs":[{"internalType":"string","name":"","type":"string"}],"stateMutability":"view","type":"function"},{"inputs":[],"name":"DEFAULT_ADMIN_ROLE","outputs":[{"internalType":"bytes32","name":"","type":"bytes32"}],"stateMutability":"view","type":"function"},{"inputs":[],"name":"DOMAIN_SEPARATOR","outputs":[{"internalType":"bytes32","name":"","type":"bytes32"}],"stateMutability":"view","type":"function"},{"inputs":[],"name":"GOVERNANCE_ROLE","outputs":[{"internalType":"bytes32","name":"","type":"bytes32"}],"stateMutability":"view","type":"function"},{"inputs":[],"name":"MINTER_ROLE","outputs":[{"internalType":"bytes32","name":"","type":"bytes32"}],"stateMutability":"view","type":"function"},{"inputs":[{"internalType":"address","name":"owner","type":"address"},{"internalType":"address","name":"spender","type":"address"}],"name":"allowance","outputs":[{"internalType":"uint256","name":"","type":"uint256"}],"stateMutability":"view","type":"function"},{"inputs":[{"internalType":"address","name":"spender","type":"address"},{"internalType":"uint256","name":"value","type":"uint256"}],"name":"approve","outputs":[{"internalType":"bool","name":"","type":"bool"}],"stateMutability":"nonpayable","type":"function"},{"inputs":[{"internalType":"address","name":"account","type":"address"}],"name":"balanceOf","outputs":[{"internalType":"uint256","name":"","type":"uint256"}],"stateMutability":"view","type":"function"},{"inputs":[{"internalType":"uint256","name":"value","type":"uint256"}],"name":"burn","outputs":[],"stateMutability":"nonpayable","type":"function"},{"inputs":[{"internalType":"address","name":"account","type":"address"},{"internalType":"uint256","name":"value","type":"uint256"}],"name":"burnFrom","outputs":[],"stateMutability":"nonpayable","type":"function"},{"inputs":[],"name":"buybackBurnPercentage","outputs":[{"internalType":"uint256","name":"","type":"uint256"}],"stateMutability":"view","type":"function"},{"inputs":[{"internalType":"address","name":"account","type":"address"},{"internalType":"uint32","name":"pos","type":"uint32"}],"name":"checkpoints","outputs":[{"components":[{"internalType":"uint48","name":"_key","type":"uint48"},{"internalType":"uint208","name":"_value","type":"uint208"}],"internalType":"struct Checkpoints.Checkpoint208","name":"","type":"tuple"}],"stateMutability":"view","type":"function"},{"inputs":[],"name":"clock","outputs":[{"internalType":"uint48","name":"","type":"uint48"}],"stateMutability":"view","type":"function"},{"inputs":[],"name":"decimals","outputs":[{"internalType":"uint8","name":"","type":"uint8"}],"stateMutability":"view","type":"function"},{"inputs":[{"internalType":"address","name":"delegatee","type":"address"}],"name":"delegate","outputs":[],"stateMutability":"nonpayable","type":"function"},{"inputs":[{"internalType":"address","name":"delegatee","type":"address"},{"internalType":"uint256","name":"nonce","type":"uint256"},{"internalType":"uint256","name":"expiry","type":"uint256"},{"internalType":"uint8","name":"v","type":"uint8"},{"internalType":"bytes32","name":"r","type":"bytes32"},{"internalType":"bytes32","name":"s","type":"bytes32"}],"name":"delegateBySig","outputs":[],"stateMutability":"nonpayable","type":"function"},{"inputs":[{"internalType":"address","name":"account","type":"address"}],"name":"delegates","outputs":[{"internalType":"address","name":"","type":"address"}],"stateMutability":"view","type":"function"},{"inputs":[],"name":"eip712Domain","outputs":[{"internalType":"bytes1","name":"fields","type":"bytes1"},{"internalType":"string","name":"name","type":"string"},{"internalType":"string","name":"version","type":"string"},{"internalType":"uint256","name":"chainId","type":"uint256"},{"internalType":"address","name":"verifyingContract","type":"address"},{"internalType":"bytes32","name":"salt","type":"bytes32"},{"internalType":"uint256[]","name":"extensions","type":"uint256[]"}],"stateMutability":"view","type":"function"},{"inputs":[{"internalType":"uint256","name":"stakedAmount","type":"uint256"}],"name":"getDiscountForStakedAmount","outputs":[{"internalType":"uint256","name":"","type":"uint256"}],"stateMutability":"view","type":"function"},{"inputs":[],"name":"getDiscountTiers","outputs":[{"internalType":"uint256[]","name":"","type":"uint256[]"}],"stateMutability":"view","type":"function"},{"inputs":[{"internalType":"uint256","name":"timepoint","type":"uint256"}],"name":"getPastTotalSupply","outputs":[{"internalType":"uint256","name":"","type":"uint256"}],"stateMutability":"view","type":"function"},{"inputs":[{"internalType":"address","name":"account","type":"address"},{"internalType":"uint256","name":"timepoint","type":"uint256"}],"name":"getPastVotes","outputs":[{"internalType":"uint256","name":"","type":"uint256"}],"stateMutability":"view","type":"function"},{"inputs":[{"internalType":"bytes32","name":"role","type":"bytes32"}],"name":"getRoleAdmin","outputs":[{"internalType":"bytes32","name":"","type":"bytes32"}],"stateMutability":"view","type":"function"},{"inputs":[{"internalType":"address","name":"account","type":"address"}],"name":"getVotes","outputs":[{"internalType":"uint256","name":"","type":"uint256"}],"stateMutability":"view","type":"function"},{"inputs":[{"internalType":"bytes32","name":"role","type":"bytes32"},{"internalType":"address","name":"account","type":"address"}],"name":"grantRole","outputs":[],"stateMutability":"nonpayable","type":"function"},{"inputs":[{"internalType":"bytes32","name":"role","type":"bytes32"},{"internalType":"address","name":"account","type":"address"}],"name":"hasRole","outputs":[{"internalType":"bool","name":"","type":"bool"}],"stateMutability":"view","type":"function"},{"inputs":[],"name":"insuranceFund","outputs":[{"internalType":"address","name":"","type":"address"}],"stateMutability":"view","type":"function"},{"inputs":[],"name":"insuranceFundPercentage","outputs":[{"internalType":"uint256","name":"","type":"uint256"}],"stateMutability":"view","type":"function"},{"inputs":[],"name":"lastInflationUpdate","outputs":[{"internalType":"uint256","name":"","type":"uint256"}],"stateMutability":"view","type":"function"},{"inputs":[],"name":"maxLeverage","outputs":[{"internalType":"uint256","name":"","type":"uint256"}],"stateMutability":"view","type":"function"},{"inputs":[],"name":"maxSupply","outputs":[{"internalType":"uint256","name":"","type":"uint256"}],"stateMutability":"view","type":"function"},{"inputs":[{"internalType":"address","name":"to","type":"address"},{"internalType":"uint256","name":"amount","type":"uint256"}],"name":"mint","outputs":[],"stateMutability":"nonpayable","type":"function"},{"inputs":[],"name":"name","outputs":[{"internalType":"string","name":"","type":"string"}],"stateMutability":"view","type":"function"},{"inputs":[{"internalType":"address","name":"owner","type":"address"}],"name":"nonces","outputs":[{"internalType":"uint256","name":"","type":"uint256"}],"stateMutability":"view","type":"function"},{"inputs":[{"internalType":"address","name":"account","type":"address"}],"name":"numCheckpoints","outputs":[{"internalType":"uint32","name":"","type":"uint32"}],"stateMutability":"view","type":"function"},{"inputs":[{"internalType":"address","name":"owner","type":"address"},{"internalType":"address","name":"spender","type":"address"},{"internalType":"uint256","name":"value","type":"uint256"},{"internalType":"uint256","name":"deadline","type":"uint256"},{"internalType":"uint8","name":"v","type":"uint8"},{"internalType":"bytes32","name":"r","type":"bytes32"},{"internalType":"bytes32","name":"s","type":"bytes32"}],"name":"permit","outputs":[],"stateMutability":"nonpayable","type":"function"},{"inputs":[{"internalType":"bytes32","name":"role","type":"bytes32"},{"internalType":"address","name":"callerConfirmation","type":"address"}],"name":"renounceRole","outputs":[],"stateMutability":"nonpayable","type":"function"},{"inputs":[{"internalType":"bytes32","name":"role","type":"bytes32"},{"internalType":"address","name":"account","type":"address"}],"name":"revokeRole","outputs":[],"stateMutability":"nonpayable","type":"function"},{"inputs":[{"internalType":"uint256","name":"tier","type":"uint256"},{"internalType":"uint256","name":"discountBps","type":"uint256"}],"name":"setDiscountTier","outputs":[],"stateMutability":"nonpayable","type":"function"},{"inputs":[{"internalType":"address","name":"_insuranceFund","type":"address"}],"name":"setInsuranceFund","outputs":[],"stateMutability":"nonpayable","type":"function"},{"inputs":[{"internalType":"uint256","name":"_leverage","type":"uint256"}],"name":"setMaxLeverage","outputs":[],"stateMutability":"nonpayable","type":"function"},{"inputs":[{"internalType":"uint256","name":"_staking","type":"uint256"},{"internalType":"uint256","name":"_treasury","type":"uint256"},{"internalType":"uint256","name":"_buybackBurn","type":"uint256"},{"internalType":"uint256","name":"_insurance","type":"uint256"}],"name":"setRewardDistribution","outputs":[],"stateMutability":"nonpayable","type":"function"},{"inputs":[{"internalType":"uint256","name":"_fee","type":"uint256"}],"name":"setTradingFeeBase","outputs":[],"stateMutability":"nonpayable","type":"function"},{"inputs":[{"internalType":"address","name":"_treasury","type":"address"}],"name":"setTreasury","outputs":[],"stateMutability":"nonpayable","type":"function"},{"inputs":[{"internalType":"uint256","name":"","type":"uint256"}],"name":"stakingDiscountTiers","outputs":[{"internalType":"uint256","name":"","type":"uint256"}],"stateMutability":"view","type":"function"},{"inputs":[],"name":"stakingRewardPercentage","outputs":[{"internalType":"uint256","name":"","type":"uint256"}],"stateMutability":"view","type":"function"},{"inputs":[{"internalType":"bytes4","name":"interfaceId","type":"bytes4"}],"name":"supportsInterface","outputs":[{"internalType":"bool","name":"","type":"bool"}],"stateMutability":"view","type":"function"},{"inputs":[],"name":"symbol","outputs":[{"internalType":"string","name":"","type":"string"}],"stateMutability":"view","type":"function"},{"inputs":[],"name":"totalSupply","outputs":[{"internalType":"uint256","name":"","type":"uint256"}],"stateMutability":"view","type":"function"},{"inputs":[],"name":"tradingFeeBase","outputs":[{"internalType":"uint256","name":"","type":"uint256"}],"stateMutability":"view","type":"function"},{"inputs":[{"internalType":"address","name":"to","type":"address"},{"internalType":"uint256","name":"value","type":"uint256"}],"name":"transfer","outputs":[{"internalType":"bool","name":"","type":"bool"}],"stateMutability":"nonpayable","type":"function"},{"inputs":[{"internalType":"address","name":"from","type":"address"},{"internalType":"address","name":"to","type":"address"},{"internalType":"uint256","name":"value","type":"uint256"}],"name":"transferFrom","outputs":[{"internalType":"bool","name":"","type":"bool"}],"stateMutability":"nonpayable","type":"function"},{"inputs":[],"name":"treasury","outputs":[{"internalType":"address","name":"","type":"address"}],"stateMutability":"view","type":"function"},{"inputs":[],"name":"treasuryPercentage","outputs":[{"internalType":"uint256","name":"","type":"uint256"}],"stateMutability":"view","type":"function"},{"inputs":[],"name":"yearlyInflationCap","outputs":[{"internalType":"uint256","name":"","type":"uint256"}],"stateMutability":"view","type":"function"},{"inputs":[],"name":"yearlyMinted","outputs":[{"internalType":"uint256","name":"","type":"uint256"}],"stateMutability":"view","type":"function"}],"evm":{"bytecode":{"linkReferences":{},"object":"610160346200052657601f1990601f6200384f388190038281018516840193916001600160401b03851183861017620002ef578160209284926040978852833981010312620005265751916001600160a01b0383168303620005265780519162000069836200052b565b600a83526913db5b9a5b1a5c5d5a5960b21b9485602085015282519562000090876200052b565b600a87526020870152825191620000a7836200052b565b600383526227a6a760e91b6020840152835196620000c5886200052b565b60018852603160f81b60208901528051906001600160401b038211620002ef5760035490600182811c921680156200051b575b602083101462000410578184849311620004c4575b506020908483116001146200043d5760009262000431575b50508160011b916000199060031b1c1916176003555b8251926001600160401b038411620002ef5760045492600184811c9416801562000426575b60208510146200041057838386951162000399575b50602092841160011462000311575060009262000305575b50508160011b916000199060031b1c1916176004555b620001ae826200066b565b92610120938452620001c0856200082f565b9261014093845260208151910120948560e0526020815191012090610100958287524660a05283519260208401917f8b73c3c69bb8fe3d512ecc4cf759cc79239f7b179b0ffacaa9a75d522b39400f83528585015260608401524660808401523060a084015260a0835260c083019280841060018060401b03851117620002ef57620002a29385525190206080523060c0526a52b7d2dcc80cd2e4000000600c556a0422ca8b0a00a425000000600d55603260115560146012556113886013556107d0806014556103e86015556016556200029b8162000547565b50620005c8565b5042600e555191612e479384620009e88539608051846122c4015260a0518461237f015260c0518461228e015260e051846123130152518361233901525182610cf301525181610d1f0152f35b634e487b7160e01b600052604160045260246000fd5b0151905038806200018d565b600460009081527f8a35acfbc15ff81a39ae7d344fd709f28e8600b4aa8c65c6b64bfe7fe36bd19b94909116905b81811062000380575090846001959493921062000366575b505050811b01600455620001a3565b015160001960f88460031b161c1916905538808062000357565b929360206001819287860151815501950193016200033f565b600460005292935090917f8a35acfbc15ff81a39ae7d344fd709f28e8600b4aa8c65c6b64bfe7fe36bd19b8486810160051c82016020881062000408575b8796509493929190945b85830160051c82018110620003f857505062000175565b60008155879650600101620003e1565b5081620003d7565b634e487b7160e01b600052602260045260246000fd5b93607f169362000160565b01519050388062000125565b600360009081527fc2575a0e9e593c00f959f8c92f12db2869c3395a3b0502d05e2516446f71f85b938716905b818110620004ab575090846001959493921062000491575b505050811b016003556200013b565b015160001960f88460031b161c1916905538808062000482565b929360206001819287860151815501950193016200046a565b909150600360005260206000208480850160051c8201926020861062000511575b9085949392910160051c01905b8181106200050157506200010d565b60008155849350600101620004f2565b92508192620004e5565b91607f1691620000f8565b600080fd5b604081019081106001600160401b03821117620002ef57604052565b6001600160a01b031660008181527fdf7de25b7f1fd6d0b5205f0e18f1f35bd7b8d84cce336588d184533ce43a6f76602052604081205490919060ff16620005c457818052600b6020526040822081835260205260408220600160ff1982541617905533916000805160206200382f8339815191528180a4600190565b5090565b6001600160a01b031660008181527f335e1b54ca43df00436bb5fe7358af00aea8249f479068439ed5a193dfc6fce960205260408120549091907f71840dc4906352362b0cdaf79870196c8e42acafade72d5d5a6d59291253ceb19060ff166200066657808352600b6020526040832082845260205260408320600160ff198254161790556000805160206200382f833981519152339380a4600190565b505090565b805160209190828110156200070a575090601f825111620006a957808251920151908083106200069a57501790565b82600019910360031b1b161790565b90604051809263305a27a960e01b82528060048301528251908160248401526000935b828510620006f0575050604492506000838284010152601f80199101168101030190fd5b8481018201518686016044015293810193859350620006cc565b6001600160401b038111620002ef576005928354926001938481811c9116801562000824575b838210146200041057601f8111620007ed575b5081601f841160011462000783575092829391839260009462000777575b50501b916000199060031b1c191617905560ff90565b01519250388062000761565b919083601f1981168760005284600020946000905b88838310620007d25750505010620007b8575b505050811b01905560ff90565b015160001960f88460031b161c19169055388080620007ab565b85870151885590960195948501948793509081019062000798565b8560005284601f846000209201871c820191601f8601881c015b8281106200081757505062000743565b6000815501859062000807565b90607f169062000730565b805160209081811015620008bd5750601f8251116200085c57808251920151908083106200069a57501790565b90604051809263305a27a960e01b82528060048301528251908160248401526000935b828510620008a3575050604492506000838284010152601f80199101168101030190fd5b84810182015186860160440152938101938593506200087f565b906001600160401b038211620002ef57600654926001938481811c91168015620009dc575b838210146200041057601f8111620009a2575b5081601f84116001146200093657509282939183926000946200092a575b50501b916000199060031b1c19161760065560ff90565b01519250388062000913565b919083601f198116600660005284600020946000905b888383106200098757505050106200096d575b505050811b0160065560ff90565b015160001960f88460031b161c191690553880806200095f565b8587015188559096019594850194879350908101906200094c565b600660005284601f84600020920160051c820191601f860160051c015b828110620009cf575050620008f5565b60008155018590620009bf565b90607f1690620008e256fe6080604052600436101561001257600080fd5b60003560e01c806301ffc9a71461039757806306fdde0314610392578063095ea7b31461038d5780630967a7711461038857806318160ddd1461038357806323b872dd1461037e578063248a9ca3146103795780632f2ff15d14610374578063313ce5671461036f5780633644e5151461036a57806336568abe146103655780633a46b1a81461036057806340c10f191461035b57806342966c68146103565780634bf5d7e914610351578063503c2a801461034c5780635158cd0914610347578063587cde1e146103425780635c19a95c1461033d57806361d027b31461033857806366c8e57c1461033357806369ee19af1461032e5780636b4e8bb0146103295780636ebefe7e146103245780636fcfff451461031f57806370a082311461031a57806379cc6790146103155780637a1370b5146103105780637ab560831461030b5780637ecebe001461030657806384b0196e14610301578063882693b1146102fc5780638e539e8c146102f757806391d14854146102f257806391ddadf4146102ed57806395d89b41146102e85780639ab24eb0146102e3578063a217fddf146102de578063a9059cbb146102d9578063abec147a146102d4578063ae3302c2146102cf578063b7902303146102ca578063c1542352146102c5578063c3c05293146102c0578063c3cda520146102bb578063d3127e63146102b6578063d505accf146102b1578063d5391393146102ac578063d547741f146102a7578063d5abeb01146102a2578063d80a619f1461029d578063dc8faff414610298578063dd62ed3e14610293578063f0f442601461028e578063f1127ed8146102895763f36c8f5c1461028457600080fd5b6117aa565b6116f7565b611690565b611638565b61161a565b611574565b611556565b611517565b6114dc565b6113a8565b61135c565b611293565b61120c565b6111ee565b6111c5565b6111a7565b6110b3565b61108d565b611071565b611028565b610f81565b610f55565b610f03565b610de8565b610d9c565b610cda565b610ca0565b610c82565b610c64565b610c34565b610bfb565b610b93565b610b75565b610b57565b610b39565b610b0d565b610ae4565b610ac2565b610a87565b610a21565b610969565b6108d7565b6108ba565b61079d565b6106f2565b6106ab565b610688565b61066c565b61062b565b6105fc565b6105c4565b6105a6565b610588565b610557565b610446565b346103ed5760203660031901126103ed5760043563ffffffff60e01b81168091036103ed57602090637965db0b60e01b81149081156103dc575b506040519015158152f35b6301ffc9a760e01b149050386103d1565b600080fd5b919082519283825260005b84811061041e575050826000602080949584010152601f8019910116010190565b6020818301810151848301820152016103fd565b9060206104439281815201906103f2565b90565b346103ed5760008060031936011261052857604051908060035461046981611d26565b808552916001918083169081156104fe57506001146104a3575b61049f8561049381870382611a75565b60405191829182610432565b0390f35b9250600383527fc2575a0e9e593c00f959f8c92f12db2869c3395a3b0502d05e2516446f71f85b5b8284106104e65750505081016020016104938261049f610483565b805460208587018101919091529093019281016104cb565b86955061049f9693506020925061049394915060ff191682840152151560051b8201019293610483565b80fd5b600435906001600160a01b03821682036103ed57565b602435906001600160a01b03821682036103ed57565b346103ed5760403660031901126103ed5761057d61057361052b565b6024359033611e72565b602060405160018152f35b346103ed5760003660031901126103ed576020601654604051908152f35b346103ed5760003660031901126103ed576020600254604051908152f35b346103ed5760603660031901126103ed5761057d6105e061052b565b6105e8610541565b604435916105f7833383611f26565b611d60565b346103ed5760203660031901126103ed57600435600052600b6020526020600160406000200154604051908152f35b346103ed5760403660031901126103ed5761066a60043561064a610541565b9080600052600b6020526106656001604060002001546118b9565b6118da565b005b346103ed5760003660031901126103ed57602060405160128152f35b346103ed5760003660031901126103ed5760206106a361228b565b604051908152f35b346103ed5760403660031901126103ed576106c4610541565b336001600160a01b038216036106e05761066a90600435611974565b60405163334bd91960e11b8152600490fd5b346103ed5760403660031901126103ed5761070b61052b565b60243561071743612608565b9165ffffffffffff8316821015610772576001600160a01b0316600090815260096020526040902061049f92506001600160d01b0391610761919061075b90612608565b90612675565b604051911681529081906020820190565b50604051637669fc0f60e11b8152600481019190915265ffffffffffff919091166024820152604490fd5b346103ed5760403660031901126103ed576107b661052b565b602435906107c26117e5565b6002548281018091116108b557600c541061087a5761085d7f30385c845b448a36257a6a1716e6ad2e1bc2cbe333cde1e69fe849ad6511adfe91610807600e54612649565b4211610862575b61083961083485600f5461082f6108258383612668565b600d541015612c0d565b612668565b600f55565b6108438482612c52565b6040519384526001600160a01b0316929081906020820190565b0390a2005b61086c6000600f55565b61087542600e55565b61080e565b60405162461bcd60e51b815260206004820152601360248201527213585e081cdd5c1c1b1e48195e18d959591959606a1b6044820152606490fd5b611d10565b346103ed5760203660031901126103ed5761066a60043533611fd4565b346103ed5760003660031901126103ed576108f143612608565b65ffffffffffff8061090243612608565b169116036109575761049f60405161091981611a1c565b601d81527f6d6f64653d626c6f636b6e756d6265722666726f6d3d64656661756c7400000060208201526040519182916020835260208301906103f2565b6040516301bfc1c560e61b8152600490fd5b346103ed576020806003193601126103ed5760043590600090815b600a811061099757604051838152602090f35b683635c9adc5dea000008082029082820414821517156108b5578410156109c7575b6109c290612cfe565b610984565b600081815260108352604090205492506109b9565b90815180825260208080930193019160005b8281106109fc575050505090565b8351855293810193928101926001016109ee565b9060206104439281815201906109dc565b346103ed5760008060031936011261052857610a3b6123cb565b90805b600a8110610a54576040518061049f8582610a10565b8082526020906010825260408320548451821015610a8257610a7d928260051b86010152612cfe565b610a3e565b61291a565b346103ed5760203660031901126103ed5760206001600160a01b0380610aab61052b565b166000526008825260406000205416604051908152f35b346103ed5760203660031901126103ed5761066a610ade61052b565b33611aa6565b346103ed5760003660031901126103ed576017546040516001600160a01b039091168152602090f35b346103ed5760203660031901126103ed5760043560005260106020526020604060002054604051908152f35b346103ed5760003660031901126103ed576020601554604051908152f35b346103ed5760003660031901126103ed576020600e54604051908152f35b346103ed5760003660031901126103ed576020600f54604051908152f35b346103ed5760203660031901126103ed576001600160a01b03610bb461052b565b16600052600960205260406000205463ffffffff90818111610bdc5760209160405191168152f35b604490604051906306dfcc6560e41b8252602060048301526024820152fd5b346103ed5760203660031901126103ed5760206106a3610c1961052b565b6001600160a01b031660009081526020819052604090205490565b346103ed5760403660031901126103ed5761066a610c5061052b565b60243590610c5f823383611f26565b611fd4565b346103ed5760003660031901126103ed576020601154604051908152f35b346103ed5760003660031901126103ed576020601454604051908152f35b346103ed5760203660031901126103ed576001600160a01b03610cc161052b565b1660005260076020526020604060002054604051908152f35b346103ed5760003660031901126103ed57610d6d610d177f0000000000000000000000000000000000000000000000000000000000000000612422565b61049f610d437f000000000000000000000000000000000000000000000000000000000000000061251b565b610d7b610d4e6123f9565b91604051958695600f60f81b875260e0602088015260e08701906103f2565b9085820360408701526103f2565b90466060850152306080850152600060a085015283820360c08501526109dc565b346103ed5760203660031901126103ed577f17e876f6956b36dde6c5dd9df30e484bfefa90239ff982e267abf6c45d0184026020600435610ddb611861565b80601155604051908152a1005b346103ed5760203660031901126103ed57600435610e0543612608565b9065ffffffffffff91828116821015610edc5750610e2290612608565b600a54906000908260058111610e86575b50610e3e9350612ba4565b600081610e5e575050602060005b6040516001600160d01b039091168152f35b600a610e6b60209361263a565b9152600080516020612df2833981519152015460301c610e4c565b9092610e9182612777565b82039182116108b557610e3e94600a84528083600080516020612df283398151915201541690851610600014610eca5750915b38610e33565b929150610ed69061265a565b90610ec4565b604051637669fc0f60e11b8152600481019290925265ffffffffffff166024820152604490fd5b346103ed5760403660031901126103ed57602060ff610f49610f23610541565b600435600052600b845260406000209060018060a01b0316600052602052604060002090565b54166040519015158152f35b346103ed5760003660031901126103ed576020610f7143612608565b65ffffffffffff60405191168152f35b346103ed57600080600319360112610528576040519080600454610fa481611d26565b808552916001918083169081156104fe5750600114610fcd5761049f8561049381870382611a75565b9250600483527f8a35acfbc15ff81a39ae7d344fd709f28e8600b4aa8c65c6b64bfe7fe36bd19b5b8284106110105750505081016020016104938261049f610483565b80546020858701810191909152909301928101610ff5565b346103ed5760203660031901126103ed576001600160a01b0361104961052b565b166000526009602052602060018060d01b0361106860406000206128ec565b16604051908152f35b346103ed5760003660031901126103ed57602060405160008152f35b346103ed5760403660031901126103ed5761057d6110a961052b565b6024359033611d60565b346103ed5760803660031901126103ed576064356024356004356044356110d8611861565b8282018083116108b5578181018091116108b5578481018091116108b55761271003611170577f31372a128fc1946aa198a9d7c72e23d7106618d46c478a053897fc73f3be48bc9361116b9161112d84601355565b61113685601455565b61113f81601555565b61114882601655565b604051948594859094939260609260808301968352602083015260408201520152565b0390a1005b60405162461bcd60e51b815260206004820152600f60248201526e4d75737420657175616c203130302560881b6044820152606490fd5b346103ed5760003660031901126103ed576020601254604051908152f35b346103ed5760003660031901126103ed576018546040516001600160a01b039091168152602090f35b346103ed5760003660031901126103ed576020601354604051908152f35b346103ed5760203660031901126103ed5761122561052b565b61122d611861565b601880546001600160a01b0319166001600160a01b039290921691821790557f7aa78e1baf57af40dede9e6b906523dcd0de972d7ed5e1961f0fcc2b9cf19f00600080a2005b6064359060ff821682036103ed57565b6084359060ff821682036103ed57565b346103ed5760c03660031901126103ed576112ac61052b565b604435906024356112bb611273565b8342116113435761133761066a9461133e926040519060208201927fe48329057bfd03d55e49b547132e39cffd9c1820ad7b9d4c5307691425d15adf845260018060a01b038816604084015286606084015260808301526080825261131f82611a3d565b61133260a43593608435935190206123a5565b612136565b91826120e0565b611aa6565b604051632341d78760e11b815260048101859052602490fd5b346103ed5760203660031901126103ed577fb0f01601e93ad2a8fc4106e97567bc037aa114741705be9d80570fd2afa7bf1b602060043561139b611861565b80601255604051908152a1005b346103ed5760e03660031901126103ed576113c161052b565b6113c9610541565b604435906064356113d8611283565b8142116114c3576001600160a01b0385811660008181526007602090815260409182902080546001810190915582517f6e71edae12b1b97f4d1f60370fef10105fa2faae0126114a169c64845d6126c99281019283529283019390935292861660608201526080810187905260a081019190915260c08082019490945292835261147c92909161146960e083611a75565b61133260c4359360a435935190206123a5565b6001600160a01b0384811690821603611499575061066a92611e72565b6040516325c0072360e11b81526001600160a01b0391821660048201529084166024820152604490fd5b60405163313c898160e11b815260048101839052602490fd5b346103ed5760003660031901126103ed5760206040517f9f2df0fed2c77648de5860a4cc508cd0818c85b8b8a1ab4ceeef8d981c8956a68152f35b346103ed5760403660031901126103ed5761066a600435611536610541565b9080600052600b6020526115516001604060002001546118b9565b611974565b346103ed5760003660031901126103ed576020600c54604051908152f35b346103ed5760403660031901126103ed57600435602435611593611861565b61271081116115ea57817f3badd8c132bb1c7264c8a842670580d2bdad682383a87a17638ae047444e6d209260005260106020528160406000205561116b6040519283928360209093929193604081019481520152565b60405162461bcd60e51b81526020600482015260086024820152674d6178203130302560c01b6044820152606490fd5b346103ed5760003660031901126103ed576020600d54604051908152f35b346103ed5760403660031901126103ed57602061168761165661052b565b61165e610541565b6001600160a01b0391821660009081526001855260408082209290931681526020919091522090565b54604051908152f35b346103ed5760203660031901126103ed576116a961052b565b6116b1611861565b601780546001600160a01b0319166001600160a01b039290921691821790557f7dae230f18360d76a040c81f050aa14eb9d6dc7901b20fc5d855e2a20fe814d1600080a2005b346103ed5760403660031901126103ed5761171061052b565b6024359063ffffffff821682036103ed5761049f91611760916117316120c7565b5061173a6120c7565b506001600160a01b0316600090815260096020526040902061175a6120c7565b50612930565b506040519061176e82611a1c565b5465ffffffffffff811680835260309190911c60209283019081526040805192835290516001600160d01b031692820192909252918291820190565b346103ed5760003660031901126103ed5760206040517f71840dc4906352362b0cdaf79870196c8e42acafade72d5d5a6d59291253ceb18152f35b3360009081527ff70e363b3d7895af770c4a138460777d52eebd3cb9962ccc6b58721f6127bbc8602052604090207f9f2df0fed2c77648de5860a4cc508cd0818c85b8b8a1ab4ceeef8d981c8956a69060ff905b5416156118435750565b6044906040519063e2517d3f60e01b82523360048301526024820152fd5b3360009081527f335e1b54ca43df00436bb5fe7358af00aea8249f479068439ed5a193dfc6fce9602052604090207f71840dc4906352362b0cdaf79870196c8e42acafade72d5d5a6d59291253ceb19060ff90611839565b6000818152600b60209081526040808320338452909152902060ff90611839565b600090808252600b60205260ff61190684604085209060018060a01b0316600052602052604060002090565b541661196e57808252600b602090815260408084206001600160a01b038616600090815292529020805460ff1916600117905533926001600160a01b0316917f2f8788117e7eff1d82e926ec794901d17c78024a50270940304540a733656f0d9080a4600190565b50905090565b600090808252600b60205260ff6119a084604085209060018060a01b0316600052602052604060002090565b54161561196e57808252600b602090815260408084206001600160a01b038616600090815292529020805460ff1916905533926001600160a01b0316917ff6391f5c32d9c69d2a47ea670b442974b53935d1edc7fd64eb21e047a839171b9080a4600190565b634e487b7160e01b600052604160045260246000fd5b6040810190811067ffffffffffffffff821117611a3857604052565b611a06565b60a0810190811067ffffffffffffffff821117611a3857604052565b60c0810190811067ffffffffffffffff821117611a3857604052565b90601f8019910116810190811067ffffffffffffffff821117611a3857604052565b60405190611aa482611a1c565b565b6001600160a01b03818116600081815260086020526040812080548685166001600160a01b031982168117909255611aa496941694611b239390928691907f3134e8a2e6d97e929a7e54011ea5485d7d196dd5f0ba4d4ef95803e8e3fc257f9080a46001600160a01b031660009081526020819052604090205490565b915b6001600160a01b03808316939291908116908185141580611c6e575b611b4d575b5050505050565b81611bd2575b505082611b62575b8080611b46565b6001600160a01b031660009081526009602052604090207fdec2bacdd2f05b59de34da9b523dff8be42e5e38e818c82fdb0bae774387a72491611baf91611ba990916125d5565b90611c77565b604080516001600160d01b039384168152919092166020820152a2388080611b5b565b6001600160a01b03166000908152600960205260409020611bf2846125d5565b611bfb43612608565b6001600160d01b03918280611c0f866128ec565b1691169003928284116108b5577fdec2bacdd2f05b59de34da9b523dff8be42e5e38e818c82fdb0bae774387a72493611c6492611c4b92612ae8565b6040805192851683529316602082015291829190820190565b0390a23880611b53565b50831515611b41565b90611c8143612608565b6001600160d01b03918280611c95866128ec565b169116019182116108b557611ca992612ae8565b9091565b611cb643612608565b906001600160d01b03908180611cca6128a2565b169116019081116108b557611ca9916129ff565b611ce743612608565b906001600160d01b03908180611cfb6128a2565b1691169003908111611d1057611ca9916129ff565b634e487b7160e01b600052601160045260246000fd5b90600182811c92168015611d56575b6020831014611d4057565b634e487b7160e01b600052602260045260246000fd5b91607f1691611d35565b6001600160a01b0380821694939291908515611e595782168015611e40576001600160a01b03821660009081526020819052604090205495848710611e115784611aa4969703611dc28460018060a01b03166000526000602052604060002090565b556001600160a01b0384166000908152602081815260409182902080548801905590518681527fddf252ad1be2c89b69c2b068fc378daa952ba7f163c4a11628f55a4df523b3ef9190a3612d86565b60405163391434e360e21b81526001600160a01b03841660048201526024810188905260448101869052606490fd5b60405163ec442f0560e01b815260006004820152602490fd5b604051634b637e8f60e11b815260006004820152602490fd5b6001600160a01b038082169291908315611f0d578216938415611ef45780611eea7f8c5be1e5ebec7d5bd14f71427d1e84f3dd0314c0f7b2291e5b200ac8c7c3b92594611ed360209560018060a01b03166000526001602052604060002090565b9060018060a01b0316600052602052604060002090565b55604051908152a3565b604051634a1406b160e11b815260006004820152602490fd5b60405163e602df0560e01b815260006004820152602490fd5b6001600160a01b038181166000818152600160208181526040808420888716855290915290912054939594939291908301611f64575b505050505050565b848310611fa55715611f0d57821615611ef457611f9992611ed391039360018060a01b03166000526001602052604060002090565b55388080808080611f5c565b604051637dc7a0d960e11b81526001600160a01b03851660048201526024810184905260448101869052606490fd5b91906001600160a01b038084168015611e59576001600160a01b0385166000908152602081905260409020549483861061209657906020929161203085611aa49798039160018060a01b03166000526000602052604060002090565b558360025403600255604051848152817fddf252ad1be2c89b69c2b068fc378daa952ba7f163c4a11628f55a4df523b3ef6000958693a3612078612073856125d5565b611cde565b50508252600860205260408181842054169280805220541690611b25565b60405163391434e360e21b81526001600160a01b039190911660048201526024810186905260448101849052606490fd5b604051906120d482611a1c565b60006020838281520152565b6001600160a01b0381166000908152600760205260409020805460018101909155909181900361210e575050565b6040516301d4b62360e61b81526001600160a01b039092166004830152602482015260449150fd5b9161044393916121459361214e565b909291926121fe565b91907f7fffffffffffffffffffffffffffffff5d576e7357a4501ddfe92f46681b20a084116121d257926020929160ff608095604051948552168484015260408301526060820152600092839182805260015afa156121c65780516001600160a01b038116156121bd57918190565b50809160019190565b604051903d90823e3d90fd5b50505060009160039190565b600411156121e857565b634e487b7160e01b600052602160045260246000fd5b612207816121de565b80612210575050565b612219816121de565b600181036122335760405163f645eedf60e01b8152600490fd5b61223c816121de565b6002810361225d5760405163fce698f760e01b815260048101839052602490fd5b806122696003926121de565b146122715750565b6040516335e2f38360e21b81526004810191909152602490fd5b307f00000000000000000000000000000000000000000000000000000000000000006001600160a01b0316148061237c575b156122e6577f000000000000000000000000000000000000000000000000000000000000000090565b60405160208101907f8b73c3c69bb8fe3d512ecc4cf759cc79239f7b179b0ffacaa9a75d522b39400f82527f000000000000000000000000000000000000000000000000000000000000000060408201527f000000000000000000000000000000000000000000000000000000000000000060608201524660808201523060a082015260a0815261237681611a59565b51902090565b507f000000000000000000000000000000000000000000000000000000000000000046146122bd565b6042906123b061228b565b906040519161190160f01b8352600283015260228201522090565b60405190610160820182811067ffffffffffffffff821117611a3857604052600a8252610140366020840137565b6040516020810181811067ffffffffffffffff821117611a385760405260008152906000368137565b60ff81146124605760ff811690601f821161244e576040519161244483611a1c565b8252602082015290565b604051632cd44ac360e21b8152600490fd5b5060405160055481600061247383611d26565b808352926001908181169081156124f9575060011461249a575b5061044392500382611a75565b6005600090815291507f036b6384b5eca791c62761152d0c79bb0604c104a5fb6f4eb0703f3154bb3db05b8483106124de575061044393505081016020013861248d565b819350908160209254838589010152019101909184926124c5565b90506020925061044394915060ff191682840152151560051b8201013861248d565b60ff811461253d5760ff811690601f821161244e576040519161244483611a1c565b5060405160065481600061255083611d26565b808352926001908181169081156124f95750600114612576575061044392500382611a75565b6006600090815291507ff652222313e28459528d920b65115c16c04f3efc82aaedc97be59f3f377c0d3f5b8483106125ba575061044393505081016020013861248d565b819350908160209254838589010152019101909184926125a1565b6001600160d01b03908181116125e9571690565b604490604051906306dfcc6560e41b825260d060048301526024820152fd5b65ffffffffffff9081811161261b571690565b604490604051906306dfcc6560e41b8252603060048301526024820152fd5b6000198101919082116108b557565b906301e1338082018092116108b557565b90600182018092116108b557565b919082018092116108b557565b9081546000816005811161270c575b509190915b8281106126bc575050600081156000146126a557505050600090565b6126b060209261263a565b92815220015460301c90565b90918082169080831860011c82018092116108b5578460005265ffffffffffff80836020600020015416908516106000146126fa5750915b90612689565b9291506127069061265a565b906126f4565b909161271782612777565b82039182116108b55784835265ffffffffffff808360208620015416908516106000146127475750905b38612684565b91506127529061265a565b612741565b8115612761570490565b634e487b7160e01b600052601260045260246000fd5b600181111561044357600181600160801b811015612890575b61283861282e61282461281a61281061280661284497600488600160401b61283f9a1015612883575b640100000000811015612876575b62010000811015612869575b61010081101561285d575b6010811015612851575b1015612849575b60030260011c6127ff818b612757565b0160011c90565b6127ff818a612757565b6127ff8189612757565b6127ff8188612757565b6127ff8187612757565b6127ff8186612757565b8093612757565b821190565b900390565b60011b6127ef565b811c9160021b916127e8565b60081c91811b916127de565b60101c9160081b916127d3565b60201c9160101b916127c7565b60401c9160201b916127b9565b50600160401b9050608082901c612790565b600a54600090806128b4575050600090565b806000198101116108b557600a7fc65a7bb8d6351c1cf70c95a316cc6a92839c986682d98bc35f958f4883f9d2a79252015460301c90565b8054600091816128fe57505050600090565b6000199282848101116108b55760209181522001015460301c90565b634e487b7160e01b600052603260045260246000fd5b8054821015610a825760005260206000200190600090565b600a5490600160401b821015611a38576001820180600a55821015610a8257600a600052805160209091015160301b65ffffffffffff191665ffffffffffff9190911617600080516020612df283398151915290910155565b8054600160401b811015611a38576129be91600182018155612930565b6129e957815160209092015160301b65ffffffffffff191665ffffffffffff92909216919091179055565b634e487b7160e01b600052600060045260246000fd5b600a549192918015612abe57612a17612a2f9161263a565b600a600052600080516020612df28339815191520190565b9081549165ffffffffffff90818416918316808311612aac57869203612a7457612a6d92509065ffffffffffff82549181199060301b169116179055565b60301c9190565b5050612aa790612a93612a85611a97565b65ffffffffffff9092168252565b6001600160d01b0385166020820152612948565b612a6d565b604051632520601d60e01b8152600490fd5b50612ae290612ace612a85611a97565b6001600160d01b0384166020820152612948565b60009190565b80549293928015612b7f57612aff612b0c9161263a565b8260005260206000200190565b9182549265ffffffffffff91828516928116808411612aac57879303612b4b5750612a6d92509065ffffffffffff82549181199060301b169116179055565b915050612aa791612b6b612b5d611a97565b65ffffffffffff9093168352565b6001600160d01b03861660208301526129a1565b5090612ae291612b90612b5d611a97565b6001600160d01b03851660208301526129a1565b905b828110612bb257505090565b90918082169080831860011c82018092116108b557600a60005265ffffffffffff8083600080516020612df283398151915201541690851610600014612bfb5750915b90612ba6565b929150612c079061265a565b90612bf5565b15612c1457565b60405162461bcd60e51b8152602060048201526016602482015275125b999b185d1a5bdb8818d85c08195e18d95959195960521b6044820152606490fd5b91906001600160a01b0383168015611e40576002548281018091116108b5576002556001600160a01b038416600090815260208181526040808320805486019055518481527fddf252ad1be2c89b69c2b068fc378daa952ba7f163c4a11628f55a4df523b3ef9190a3600254926001600160d01b038411612cd857611aa4929350612d0d565b604051630e58ae9360e11b8152600481018590526001600160d01b036024820152604490fd5b60001981146108b55760010190565b90611aa491612d23612d1e836125d5565b611cad565b50506001600160a01b03908116908115612d73575b60086020527f5eff886ea0ce6ca488a3d6e336d6c0f75f46d19b42c06ce5ee98e42c96d256c754600092835260409092205481169116611b25565b612d7f612073846125d5565b5050612d38565b611aa492916001600160a01b03918216919081908315612dde575b16918215612dcb575b60005260086020528060406000205416916000526040600020541690611b25565b612dd7612073856125d5565b5050612daa565b612dea612d1e866125d5565b5050612da156fec65a7bb8d6351c1cf70c95a316cc6a92839c986682d98bc35f958f4883f9d2a8a26469706673582212200995dba0b05ede9ad0c50a0e856f46b26a94ca97da9a71e0753981fb9852f67064736f6c634300081400332f8788117e7eff1d82e926ec794901d17c78024a50270940304540a733656f0d","opcodes":"PUSH2 0x160 CALLVALUE PUSH3 0x526 JUMPI PUSH1 0x1F NOT SWAP1 PUSH1 0x1F PUSH3 0x384F CODESIZE DUP2 SWAP1 SUB DUP3 DUP2 ADD DUP6 AND DUP5 ADD SWAP4 SWAP2 PUSH1 0x1 PUSH1 0x1 PUSH1 0x40 SHL SUB DUP6 GT DUP4 DUP7 LT OR PUSH3 0x2EF JUMPI DUP2 PUSH1 0x20 SWAP3 DUP5 SWAP3 PUSH1 0x40 SWAP8 DUP9 MSTORE DUP4 CODECOPY DUP2 ADD SUB SLT PUSH3 0x526 JUMPI MLOAD SWAP2 PUSH1 0x1 PUSH1 0x1 PUSH1 0xA0 SHL SUB DUP4 AND DUP4 SUB PUSH3 0x526 JUMPI DUP1 MLOAD SWAP2 PUSH3 0x69 DUP4 PUSH3 0x52B JUMP JUMPDEST PUSH1 0xA DUP4 MSTORE PUSH10 0x13DB5B9A5B1A5C5D5A59 PUSH1 0xB2 SHL SWAP5 DUP6 PUSH1 0x20 DUP6 ADD MSTORE DUP3 MLOAD SWAP6 PUSH3 0x90 DUP8 PUSH3 0x52B JUMP JUMPDEST PUSH1 0xA DUP8 MSTORE PUSH1 0x20 DUP8 ADD MSTORE DUP3 MLOAD SWAP2 PUSH3 0xA7 DUP4 PUSH3 0x52B JUMP JUMPDEST PUSH1 0x3 DUP4 MSTORE PUSH3 0x27A6A7 PUSH1 0xE9 SHL PUSH1 0x20 DUP5 ADD MSTORE DUP4 MLOAD SWAP7 PUSH3 0xC5 DUP9 PUSH3 0x52B JUMP JUMPDEST PUSH1 0x1 DUP9 MSTORE PUSH1 0x31 PUSH1 0xF8 SHL PUSH1 0x20 DUP10 ADD MSTORE DUP1 MLOAD SWAP1 PUSH1 0x1 PUSH1 0x1 PUSH1 0x40 SHL SUB DUP3 GT PUSH3 0x2EF JUMPI PUSH1 0x3 SLOAD SWAP1 PUSH1 0x1 DUP3 DUP2 SHR SWAP3 AND DUP1 ISZERO PUSH3 0x51B JUMPI JUMPDEST PUSH1 0x20 DUP4 LT EQ PUSH3 0x410 JUMPI DUP2 DUP5 DUP5 SWAP4 GT PUSH3 0x4C4 JUMPI JUMPDEST POP PUSH1 0x20 SWAP1 DUP5 DUP4 GT PUSH1 0x1 EQ PUSH3 0x43D JUMPI PUSH1 0x0 SWAP3 PUSH3 0x431 JUMPI JUMPDEST POP POP DUP2 PUSH1 0x1 SHL SWAP2 PUSH1 0x0 NOT SWAP1 PUSH1 0x3 SHL SHR NOT AND OR PUSH1 0x3 SSTORE JUMPDEST DUP3 MLOAD SWAP3 PUSH1 0x1 PUSH1 0x1 PUSH1 0x40 SHL SUB DUP5 GT PUSH3 0x2EF JUMPI PUSH1 0x4 SLOAD SWAP3 PUSH1 0x1 DUP5 DUP2 SHR SWAP5 AND DUP1 ISZERO PUSH3 0x426 JUMPI JUMPDEST PUSH1 0x20 DUP6 LT EQ PUSH3 0x410 JUMPI DUP4 DUP4 DUP7 SWAP6 GT PUSH3 0x399 JUMPI JUMPDEST POP PUSH1 0x20 SWAP3 DUP5 GT PUSH1 0x1 EQ PUSH3 0x311 JUMPI POP PUSH1 0x0 SWAP3 PUSH3 0x305 JUMPI JUMPDEST POP POP DUP2 PUSH1 0x1 SHL SWAP2 PUSH1 0x0 NOT SWAP1 PUSH1 0x3 SHL SHR NOT AND OR PUSH1 0x4 SSTORE JUMPDEST PUSH3 0x1AE DUP3 PUSH3 0x66B JUMP JUMPDEST SWAP3 PUSH2 0x120 SWAP4 DUP5 MSTORE PUSH3 0x1C0 DUP6 PUSH3 0x82F JUMP JUMPDEST SWAP3 PUSH2 0x140 SWAP4 DUP5 MSTORE PUSH1 0x20 DUP2 MLOAD SWAP2 ADD KECCAK256 SWAP5 DUP6 PUSH1 0xE0 MSTORE PUSH1 0x20 DUP2 MLOAD SWAP2 ADD KECCAK256 SWAP1 PUSH2 0x100 SWAP6 DUP3 DUP8 MSTORE CHAINID PUSH1 0xA0 MSTORE DUP4 MLOAD SWAP3 PUSH1 0x20 DUP5 ADD SWAP2 PUSH32 0x8B73C3C69BB8FE3D512ECC4CF759CC79239F7B179B0FFACAA9A75D522B39400F DUP4 MSTORE DUP6 DUP6 ADD MSTORE PUSH1 0x60 DUP5 ADD MSTORE CHAINID PUSH1 0x80 DUP5 ADD MSTORE ADDRESS PUSH1 0xA0 DUP5 ADD MSTORE PUSH1 0xA0 DUP4 MSTORE PUSH1 0xC0 DUP4 ADD SWAP3 DUP1 DUP5 LT PUSH1 0x1 DUP1 PUSH1 0x40 SHL SUB DUP6 GT OR PUSH3 0x2EF JUMPI PUSH3 0x2A2 SWAP4 DUP6 MSTORE MLOAD SWAP1 KECCAK256 PUSH1 0x80 MSTORE ADDRESS PUSH1 0xC0 MSTORE PUSH11 0x52B7D2DCC80CD2E4000000 PUSH1 0xC SSTORE PUSH11 0x422CA8B0A00A425000000 PUSH1 0xD SSTORE PUSH1 0x32 PUSH1 0x11 SSTORE PUSH1 0x14 PUSH1 0x12 SSTORE PUSH2 0x1388 PUSH1 0x13 SSTORE PUSH2 0x7D0 DUP1 PUSH1 0x14 SSTORE PUSH2 0x3E8 PUSH1 0x15 SSTORE PUSH1 0x16 SSTORE PUSH3 0x29B DUP2 PUSH3 0x547 JUMP JUMPDEST POP PUSH3 0x5C8 JUMP JUMPDEST POP TIMESTAMP PUSH1 0xE SSTORE MLOAD SWAP2 PUSH2 0x2E47 SWAP4 DUP5 PUSH3 0x9E8 DUP6 CODECOPY PUSH1 0x80 MLOAD DUP5 PUSH2 0x22C4 ADD MSTORE PUSH1 0xA0 MLOAD DUP5 PUSH2 0x237F ADD MSTORE PUSH1 0xC0 MLOAD DUP5 PUSH2 0x228E ADD MSTORE PUSH1 0xE0 MLOAD DUP5 PUSH2 0x2313 ADD MSTORE MLOAD DUP4 PUSH2 0x2339 ADD MSTORE MLOAD DUP3 PUSH2 0xCF3 ADD MSTORE MLOAD DUP2 PUSH2 0xD1F ADD MSTORE RETURN JUMPDEST PUSH4 0x4E487B71 PUSH1 0xE0 SHL PUSH1 0x0 MSTORE PUSH1 0x41 PUSH1 0x4 MSTORE PUSH1 0x24 PUSH1 0x0 REVERT JUMPDEST ADD MLOAD SWAP1 POP CODESIZE DUP1 PUSH3 0x18D JUMP JUMPDEST PUSH1 0x4 PUSH1 0x0 SWAP1 DUP2 MSTORE PUSH32 0x8A35ACFBC15FF81A39AE7D344FD709F28E8600B4AA8C65C6B64BFE7FE36BD19B SWAP5 SWAP1 SWAP2 AND SWAP1 JUMPDEST DUP2 DUP2 LT PUSH3 0x380 JUMPI POP SWAP1 DUP5 PUSH1 0x1 SWAP6 SWAP5 SWAP4 SWAP3 LT PUSH3 0x366 JUMPI JUMPDEST POP POP POP DUP2 SHL ADD PUSH1 0x4 SSTORE PUSH3 0x1A3 JUMP JUMPDEST ADD MLOAD PUSH1 0x0 NOT PUSH1 0xF8 DUP5 PUSH1 0x3 SHL AND SHR NOT AND SWAP1 SSTORE CODESIZE DUP1 DUP1 PUSH3 0x357 JUMP JUMPDEST SWAP3 SWAP4 PUSH1 0x20 PUSH1 0x1 DUP2 SWAP3 DUP8 DUP7 ADD MLOAD DUP2 SSTORE ADD SWAP6 ADD SWAP4 ADD PUSH3 0x33F JUMP JUMPDEST PUSH1 0x4 PUSH1 0x0 MSTORE SWAP3 SWAP4 POP SWAP1 SWAP2 PUSH32 0x8A35ACFBC15FF81A39AE7D344FD709F28E8600B4AA8C65C6B64BFE7FE36BD19B DUP5 DUP7 DUP2 ADD PUSH1 0x5 SHR DUP3 ADD PUSH1 0x20 DUP9 LT PUSH3 0x408 JUMPI JUMPDEST DUP8 SWAP7 POP SWAP5 SWAP4 SWAP3 SWAP2 SWAP1 SWAP5 JUMPDEST DUP6 DUP4 ADD PUSH1 0x5 SHR DUP3 ADD DUP2 LT PUSH3 0x3F8 JUMPI POP POP PUSH3 0x175 JUMP JUMPDEST PUSH1 0x0 DUP2 SSTORE DUP8 SWAP7 POP PUSH1 0x1 ADD PUSH3 0x3E1 JUMP JUMPDEST POP DUP2 PUSH3 0x3D7 JUMP JUMPDEST PUSH4 0x4E487B71 PUSH1 0xE0 SHL PUSH1 0x0 MSTORE PUSH1 0x22 PUSH1 0x4 MSTORE PUSH1 0x24 PUSH1 0x0 REVERT JUMPDEST SWAP4 PUSH1 0x7F AND SWAP4 PUSH3 0x160 JUMP JUMPDEST ADD MLOAD SWAP1 POP CODESIZE DUP1 PUSH3 0x125 JUMP JUMPDEST PUSH1 0x3 PUSH1 0x0 SWAP1 DUP2 MSTORE PUSH32 0xC2575A0E9E593C00F959F8C92F12DB2869C3395A3B0502D05E2516446F71F85B SWAP4 DUP8 AND SWAP1 JUMPDEST DUP2 DUP2 LT PUSH3 0x4AB JUMPI POP SWAP1 DUP5 PUSH1 0x1 SWAP6 SWAP5 SWAP4 SWAP3 LT PUSH3 0x491 JUMPI JUMPDEST POP POP POP DUP2 SHL ADD PUSH1 0x3 SSTORE PUSH3 0x13B JUMP JUMPDEST ADD MLOAD PUSH1 0x0 NOT PUSH1 0xF8 DUP5 PUSH1 0x3 SHL AND SHR NOT AND SWAP1 SSTORE CODESIZE DUP1 DUP1 PUSH3 0x482 JUMP JUMPDEST SWAP3 SWAP4 PUSH1 0x20 PUSH1 0x1 DUP2 SWAP3 DUP8 DUP7 ADD MLOAD DUP2 SSTORE ADD SWAP6 ADD SWAP4 ADD PUSH3 0x46A JUMP JUMPDEST SWAP1 SWAP2 POP PUSH1 0x3 PUSH1 0x0 MSTORE PUSH1 0x20 PUSH1 0x0 KECCAK256 DUP5 DUP1 DUP6 ADD PUSH1 0x5 SHR DUP3 ADD SWAP3 PUSH1 0x20 DUP7 LT PUSH3 0x511 JUMPI JUMPDEST SWAP1 DUP6 SWAP5 SWAP4 SWAP3 SWAP2 ADD PUSH1 0x5 SHR ADD SWAP1 JUMPDEST DUP2 DUP2 LT PUSH3 0x501 JUMPI POP PUSH3 0x10D JUMP JUMPDEST PUSH1 0x0 DUP2 SSTORE DUP5 SWAP4 POP PUSH1 0x1 ADD PUSH3 0x4F2 JUMP JUMPDEST SWAP3 POP DUP2 SWAP3 PUSH3 0x4E5 JUMP JUMPDEST SWAP2 PUSH1 0x7F AND SWAP2 PUSH3 0xF8 JUMP JUMPDEST PUSH1 0x0 DUP1 REVERT JUMPDEST PUSH1 0x40 DUP2 ADD SWAP1 DUP2 LT PUSH1 0x1 PUSH1 0x1 PUSH1 0x40 SHL SUB DUP3 GT OR PUSH3 0x2EF JUMPI PUSH1 0x40 MSTORE JUMP JUMPDEST PUSH1 0x1 PUSH1 0x1 PUSH1 0xA0 SHL SUB AND PUSH1 0x0 DUP2 DUP2 MSTORE PUSH32 0xDF7DE25B7F1FD6D0B5205F0E18F1F35BD7B8D84CCE336588D184533CE43A6F76 PUSH1 0x20 MSTORE PUSH1 0x40 DUP2 KECCAK256 SLOAD SWAP1 SWAP2 SWAP1 PUSH1 0xFF AND PUSH3 0x5C4 JUMPI DUP2 DUP1 MSTORE PUSH1 0xB PUSH1 0x20 MSTORE PUSH1 0x40 DUP3 KECCAK256 DUP2 DUP4 MSTORE PUSH1 0x20 MSTORE PUSH1 0x40 DUP3 KECCAK256 PUSH1 0x1 PUSH1 0xFF NOT DUP3 SLOAD AND OR SWAP1 SSTORE CALLER SWAP2 PUSH1 0x0 DUP1 MLOAD PUSH1 0x20 PUSH3 0x382F DUP4 CODECOPY DUP2 MLOAD SWAP2 MSTORE DUP2 DUP1 LOG4 PUSH1 0x1 SWAP1 JUMP JUMPDEST POP SWAP1 JUMP JUMPDEST PUSH1 0x1 PUSH1 0x1 PUSH1 0xA0 SHL SUB AND PUSH1 0x0 DUP2 DUP2 MSTORE PUSH32 0x335E1B54CA43DF00436BB5FE7358AF00AEA8249F479068439ED5A193DFC6FCE9 PUSH1 0x20 MSTORE PUSH1 0x40 DUP2 KECCAK256 SLOAD SWAP1 SWAP2 SWAP1 PUSH32 0x71840DC4906352362B0CDAF79870196C8E42ACAFADE72D5D5A6D59291253CEB1 SWAP1 PUSH1 0xFF AND PUSH3 0x666 JUMPI DUP1 DUP4 MSTORE PUSH1 0xB PUSH1 0x20 MSTORE PUSH1 0x40 DUP4 KECCAK256 DUP3 DUP5 MSTORE PUSH1 0x20 MSTORE PUSH1 0x40 DUP4 KECCAK256 PUSH1 0x1 PUSH1 0xFF NOT DUP3 SLOAD AND OR SWAP1 SSTORE PUSH1 0x0 DUP1 MLOAD PUSH1 0x20 PUSH3 0x382F DUP4 CODECOPY DUP2 MLOAD SWAP2 MSTORE CALLER SWAP4 DUP1 LOG4 PUSH1 0x1 SWAP1 JUMP JUMPDEST POP POP SWAP1 JUMP JUMPDEST DUP1 MLOAD PUSH1 0x20 SWAP2 SWAP1 DUP3 DUP2 LT ISZERO PUSH3 0x70A JUMPI POP SWAP1 PUSH1 0x1F DUP3 MLOAD GT PUSH3 0x6A9 JUMPI DUP1 DUP3 MLOAD SWAP3 ADD MLOAD SWAP1 DUP1 DUP4 LT PUSH3 0x69A JUMPI POP OR SWAP1 JUMP JUMPDEST DUP3 PUSH1 0x0 NOT SWAP2 SUB PUSH1 0x3 SHL SHL AND OR SWAP1 JUMP JUMPDEST SWAP1 PUSH1 0x40 MLOAD DUP1 SWAP3 PUSH4 0x305A27A9 PUSH1 0xE0 SHL DUP3 MSTORE DUP1 PUSH1 0x4 DUP4 ADD MSTORE DUP3 MLOAD SWAP1 DUP2 PUSH1 0x24 DUP5 ADD MSTORE PUSH1 0x0 SWAP4 JUMPDEST DUP3 DUP6 LT PUSH3 0x6F0 JUMPI POP POP PUSH1 0x44 SWAP3 POP PUSH1 0x0 DUP4 DUP3 DUP5 ADD ADD MSTORE PUSH1 0x1F DUP1 NOT SWAP2 ADD AND DUP2 ADD SUB ADD SWAP1 REVERT JUMPDEST DUP5 DUP2 ADD DUP3 ADD MLOAD DUP7 DUP7 ADD PUSH1 0x44 ADD MSTORE SWAP4 DUP2 ADD SWAP4 DUP6 SWAP4 POP PUSH3 0x6CC JUMP JUMPDEST PUSH1 0x1 PUSH1 0x1 PUSH1 0x40 SHL SUB DUP2 GT PUSH3 0x2EF JUMPI PUSH1 0x5 SWAP3 DUP4 SLOAD SWAP3 PUSH1 0x1 SWAP4 DUP5 DUP2 DUP2 SHR SWAP2 AND DUP1 ISZERO PUSH3 0x824 JUMPI JUMPDEST DUP4 DUP3 LT EQ PUSH3 0x410 JUMPI PUSH1 0x1F DUP2 GT PUSH3 0x7ED JUMPI JUMPDEST POP DUP2 PUSH1 0x1F DUP5 GT PUSH1 0x1 EQ PUSH3 0x783 JUMPI POP SWAP3 DUP3 SWAP4 SWAP2 DUP4 SWAP3 PUSH1 0x0 SWAP5 PUSH3 0x777 JUMPI JUMPDEST POP POP SHL SWAP2 PUSH1 0x0 NOT SWAP1 PUSH1 0x3 SHL SHR NOT AND OR SWAP1 SSTORE PUSH1 0xFF SWAP1 JUMP JUMPDEST ADD MLOAD SWAP3 POP CODESIZE DUP1 PUSH3 0x761 JUMP JUMPDEST SWAP2 SWAP1 DUP4 PUSH1 0x1F NOT DUP2 AND DUP8 PUSH1 0x0 MSTORE DUP5 PUSH1 0x0 KECCAK256 SWAP5 PUSH1 0x0 SWAP1 JUMPDEST DUP9 DUP4 DUP4 LT PUSH3 0x7D2 JUMPI POP POP POP LT PUSH3 0x7B8 JUMPI JUMPDEST POP POP POP DUP2 SHL ADD SWAP1 SSTORE PUSH1 0xFF SWAP1 JUMP JUMPDEST ADD MLOAD PUSH1 0x0 NOT PUSH1 0xF8 DUP5 PUSH1 0x3 SHL AND SHR NOT AND SWAP1 SSTORE CODESIZE DUP1 DUP1 PUSH3 0x7AB JUMP JUMPDEST DUP6 DUP8 ADD MLOAD DUP9 SSTORE SWAP1 SWAP7 ADD SWAP6 SWAP5 DUP6 ADD SWAP5 DUP8 SWAP4 POP SWAP1 DUP2 ADD SWAP1 PUSH3 0x798 JUMP JUMPDEST DUP6 PUSH1 0x0 MSTORE DUP5 PUSH1 0x1F DUP5 PUSH1 0x0 KECCAK256 SWAP3 ADD DUP8 SHR DUP3 ADD SWAP2 PUSH1 0x1F DUP7 ADD DUP9 SHR ADD JUMPDEST DUP3 DUP2 LT PUSH3 0x817 JUMPI POP POP PUSH3 0x743 JUMP JUMPDEST PUSH1 0x0 DUP2 SSTORE ADD DUP6 SWAP1 PUSH3 0x807 JUMP JUMPDEST SWAP1 PUSH1 0x7F AND SWAP1 PUSH3 0x730 JUMP JUMPDEST DUP1 MLOAD PUSH1 0x20 SWAP1 DUP2 DUP2 LT ISZERO PUSH3 0x8BD JUMPI POP PUSH1 0x1F DUP3 MLOAD GT PUSH3 0x85C JUMPI DUP1 DUP3 MLOAD SWAP3 ADD MLOAD SWAP1 DUP1 DUP4 LT PUSH3 0x69A JUMPI POP OR SWAP1 JUMP JUMPDEST SWAP1 PUSH1 0x40 MLOAD DUP1 SWAP3 PUSH4 0x305A27A9 PUSH1 0xE0 SHL DUP3 MSTORE DUP1 PUSH1 0x4 DUP4 ADD MSTORE DUP3 MLOAD SWAP1 DUP2 PUSH1 0x24 DUP5 ADD MSTORE PUSH1 0x0 SWAP4 JUMPDEST DUP3 DUP6 LT PUSH3 0x8A3 JUMPI POP POP PUSH1 0x44 SWAP3 POP PUSH1 0x0 DUP4 DUP3 DUP5 ADD ADD MSTORE PUSH1 0x1F DUP1 NOT SWAP2 ADD AND DUP2 ADD SUB ADD SWAP1 REVERT JUMPDEST DUP5 DUP2 ADD DUP3 ADD MLOAD DUP7 DUP7 ADD PUSH1 0x44 ADD MSTORE SWAP4 DUP2 ADD SWAP4 DUP6 SWAP4 POP PUSH3 0x87F JUMP JUMPDEST SWAP1 PUSH1 0x1 PUSH1 0x1 PUSH1 0x40 SHL SUB DUP3 GT PUSH3 0x2EF JUMPI PUSH1 0x6 SLOAD SWAP3 PUSH1 0x1 SWAP4 DUP5 DUP2 DUP2 SHR SWAP2 AND DUP1 ISZERO PUSH3 0x9DC JUMPI JUMPDEST DUP4 DUP3 LT EQ PUSH3 0x410 JUMPI PUSH1 0x1F DUP2 GT PUSH3 0x9A2 JUMPI JUMPDEST POP DUP2 PUSH1 0x1F DUP5 GT PUSH1 0x1 EQ PUSH3 0x936 JUMPI POP SWAP3 DUP3 SWAP4 SWAP2 DUP4 SWAP3 PUSH1 0x0 SWAP5 PUSH3 0x92A JUMPI JUMPDEST POP POP SHL SWAP2 PUSH1 0x0 NOT SWAP1 PUSH1 0x3 SHL SHR NOT AND OR PUSH1 0x6 SSTORE PUSH1 0xFF SWAP1 JUMP JUMPDEST ADD MLOAD SWAP3 POP CODESIZE DUP1 PUSH3 0x913 JUMP JUMPDEST SWAP2 SWAP1 DUP4 PUSH1 0x1F NOT DUP2 AND PUSH1 0x6 PUSH1 0x0 MSTORE DUP5 PUSH1 0x0 KECCAK256 SWAP5 PUSH1 0x0 SWAP1 JUMPDEST DUP9 DUP4 DUP4 LT PUSH3 0x987 JUMPI POP POP POP LT PUSH3 0x96D JUMPI JUMPDEST POP POP POP DUP2 SHL ADD PUSH1 0x6 SSTORE PUSH1 0xFF SWAP1 JUMP JUMPDEST ADD MLOAD PUSH1 0x0 NOT PUSH1 0xF8 DUP5 PUSH1 0x3 SHL AND SHR NOT AND SWAP1 SSTORE CODESIZE DUP1 DUP1 PUSH3 0x95F JUMP JUMPDEST DUP6 DUP8 ADD MLOAD DUP9 SSTORE SWAP1 SWAP7 ADD SWAP6 SWAP5 DUP6 ADD SWAP5 DUP8 SWAP4 POP SWAP1 DUP2 ADD SWAP1 PUSH3 0x94C JUMP JUMPDEST PUSH1 0x6 PUSH1 0x0 MSTORE DUP5 PUSH1 0x1F DUP5 PUSH1 0x0 KECCAK256 SWAP3 ADD PUSH1 0x5 SHR DUP3 ADD SWAP2 PUSH1 0x1F DUP7 ADD PUSH1 0x5 SHR ADD JUMPDEST DUP3 DUP2 LT PUSH3 0x9CF JUMPI POP POP PUSH3 0x8F5 JUMP JUMPDEST PUSH1 0x0 DUP2 SSTORE ADD DUP6 SWAP1 PUSH3 0x9BF JUMP JUMPDEST SWAP1 PUSH1 0x7F AND SWAP1 PUSH3 0x8E2 JUMP INVALID PUSH1 0x80 PUSH1 0x40 MSTORE PUSH1 0x4 CALLDATASIZE LT ISZERO PUSH2 0x12 JUMPI PUSH1 0x0 DUP1 REVERT JUMPDEST PUSH1 0x0 CALLDATALOAD PUSH1 0xE0 SHR DUP1 PUSH4 0x1FFC9A7 EQ PUSH2 0x397 JUMPI DUP1 PUSH4 0x6FDDE03 EQ PUSH2 0x392 JUMPI DUP1 PUSH4 0x95EA7B3 EQ PUSH2 0x38D JUMPI DUP1 PUSH4 0x967A771 EQ PUSH2 0x388 JUMPI DUP1 PUSH4 0x18160DDD EQ PUSH2 0x383 JUMPI DUP1 PUSH4 0x23B872DD EQ PUSH2 0x37E JUMPI DUP1 PUSH4 0x248A9CA3 EQ PUSH2 0x379 JUMPI DUP1 PUSH4 0x2F2FF15D EQ PUSH2 0x374 JUMPI DUP1 PUSH4 0x313CE567 EQ PUSH2 0x36F JUMPI DUP1 PUSH4 0x3644E515 EQ PUSH2 0x36A JUMPI DUP1 PUSH4 0x36568ABE EQ PUSH2 0x365 JUMPI DUP1 PUSH4 0x3A46B1A8 EQ PUSH2 0x360 JUMPI DUP1 PUSH4 0x40C10F19 EQ PUSH2 0x35B JUMPI DUP1 PUSH4 0x42966C68 EQ PUSH2 0x356 JUMPI DUP1 PUSH4 0x4BF5D7E9 EQ PUSH2 0x351 JUMPI DUP1 PUSH4 0x503C2A80 EQ PUSH2 0x34C JUMPI DUP1 PUSH4 0x5158CD09 EQ PUSH2 0x347 JUMPI DUP1 PUSH4 0x587CDE1E EQ PUSH2 0x342 JUMPI DUP1 PUSH4 0x5C19A95C EQ PUSH2 0x33D JUMPI DUP1 PUSH4 0x61D027B3 EQ PUSH2 0x338 JUMPI DUP1 PUSH4 0x66C8E57C EQ PUSH2 0x333 JUMPI DUP1 PUSH4 0x69EE19AF EQ PUSH2 0x32E JUMPI DUP1 PUSH4 0x6B4E8BB0 EQ PUSH2 0x329 JUMPI DUP1 PUSH4 0x6EBEFE7E EQ PUSH2 0x324 JUMPI DUP1 PUSH4 0x6FCFFF45 EQ PUSH2 0x31F JUMPI DUP1 PUSH4 0x70A08231 EQ PUSH2 0x31A JUMPI DUP1 PUSH4 0x79CC6790 EQ PUSH2 0x315 JUMPI DUP1 PUSH4 0x7A1370B5 EQ PUSH2 0x310 JUMPI DUP1 PUSH4 0x7AB56083 EQ PUSH2 0x30B JUMPI DUP1 PUSH4 0x7ECEBE00 EQ PUSH2 0x306 JUMPI DUP1 PUSH4 0x84B0196E EQ PUSH2 0x301 JUMPI DUP1 PUSH4 0x882693B1 EQ PUSH2 0x2FC JUMPI DUP1 PUSH4 0x8E539E8C EQ PUSH2 0x2F7 JUMPI DUP1 PUSH4 0x91D14854 EQ PUSH2 0x2F2 JUMPI DUP1 PUSH4 0x91DDADF4 EQ PUSH2 0x2ED JUMPI DUP1 PUSH4 0x95D89B41 EQ PUSH2 0x2E8 JUMPI DUP1 PUSH4 0x9AB24EB0 EQ PUSH2 0x2E3 JUMPI DUP1 PUSH4 0xA217FDDF EQ PUSH2 0x2DE JUMPI DUP1 PUSH4 0xA9059CBB EQ PUSH2 0x2D9 JUMPI DUP1 PUSH4 0xABEC147A EQ PUSH2 0x2D4 JUMPI DUP1 PUSH4 0xAE3302C2 EQ PUSH2 0x2CF JUMPI DUP1 PUSH4 0xB7902303 EQ PUSH2 0x2CA JUMPI DUP1 PUSH4 0xC1542352 EQ PUSH2 0x2C5 JUMPI DUP1 PUSH4 0xC3C05293 EQ PUSH2 0x2C0 JUMPI DUP1 PUSH4 0xC3CDA520 EQ PUSH2 0x2BB JUMPI DUP1 PUSH4 0xD3127E63 EQ PUSH2 0x2B6 JUMPI DUP1 PUSH4 0xD505ACCF EQ PUSH2 0x2B1 JUMPI DUP1 PUSH4 0xD5391393 EQ PUSH2 0x2AC JUMPI DUP1 PUSH4 0xD547741F EQ PUSH2 0x2A7 JUMPI DUP1 PUSH4 0xD5ABEB01 EQ PUSH2 0x2A2 JUMPI DUP1 PUSH4 0xD80A619F EQ PUSH2 0x29D JUMPI DUP1 PUSH4 0xDC8FAFF4 EQ PUSH2 0x298 JUMPI DUP1 PUSH4 0xDD62ED3E EQ PUSH2 0x293 JUMPI DUP1 PUSH4 0xF0F44260 EQ PUSH2 0x28E JUMPI DUP1 PUSH4 0xF1127ED8 EQ PUSH2 0x289 JUMPI PUSH4 0xF36C8F5C EQ PUSH2 0x284 JUMPI PUSH1 0x0 DUP1 REVERT JUMPDEST PUSH2 0x17AA JUMP JUMPDEST PUSH2 0x16F7 JUMP JUMPDEST PUSH2 0x1690 JUMP JUMPDEST PUSH2 0x1638 JUMP JUMPDEST PUSH2 0x161A JUMP JUMPDEST PUSH2 0x1574 JUMP JUMPDEST PUSH2 0x1556 JUMP JUMPDEST PUSH2 0x1517 JUMP JUMPDEST PUSH2 0x14DC JUMP JUMPDEST PUSH2 0x13A8 JUMP JUMPDEST PUSH2 0x135C JUMP JUMPDEST PUSH2 0x1293 JUMP JUMPDEST PUSH2 0x120C JUMP JUMPDEST PUSH2 0x11EE JUMP JUMPDEST PUSH2 0x11C5 JUMP JUMPDEST PUSH2 0x11A7 JUMP JUMPDEST PUSH2 0x10B3 JUMP JUMPDEST PUSH2 0x108D JUMP JUMPDEST PUSH2 0x1071 JUMP JUMPDEST PUSH2 0x1028 JUMP JUMPDEST PUSH2 0xF81 JUMP JUMPDEST PUSH2 0xF55 JUMP JUMPDEST PUSH2 0xF03 JUMP JUMPDEST PUSH2 0xDE8 JUMP JUMPDEST PUSH2 0xD9C JUMP JUMPDEST PUSH2 0xCDA JUMP JUMPDEST PUSH2 0xCA0 JUMP JUMPDEST PUSH2 0xC82 JUMP JUMPDEST PUSH2 0xC64 JUMP JUMPDEST PUSH2 0xC34 JUMP JUMPDEST PUSH2 0xBFB JUMP JUMPDEST PUSH2 0xB93 JUMP JUMPDEST PUSH2 0xB75 JUMP JUMPDEST PUSH2 0xB57 JUMP JUMPDEST PUSH2 0xB39 JUMP JUMPDEST PUSH2 0xB0D JUMP JUMPDEST PUSH2 0xAE4 JUMP JUMPDEST PUSH2 0xAC2 JUMP JUMPDEST PUSH2 0xA87 JUMP JUMPDEST PUSH2 0xA21 JUMP JUMPDEST PUSH2 0x969 JUMP JUMPDEST PUSH2 0x8D7 JUMP JUMPDEST PUSH2 0x8BA JUMP JUMPDEST PUSH2 0x79D JUMP JUMPDEST PUSH2 0x6F2 JUMP JUMPDEST PUSH2 0x6AB JUMP JUMPDEST PUSH2 0x688 JUMP JUMPDEST PUSH2 0x66C JUMP JUMPDEST PUSH2 0x62B JUMP JUMPDEST PUSH2 0x5FC JUMP JUMPDEST PUSH2 0x5C4 JUMP JUMPDEST PUSH2 0x5A6 JUMP JUMPDEST PUSH2 0x588 JUMP JUMPDEST PUSH2 0x557 JUMP JUMPDEST PUSH2 0x446 JUMP JUMPDEST CALLVALUE PUSH2 0x3ED JUMPI PUSH1 0x20 CALLDATASIZE PUSH1 0x3 NOT ADD SLT PUSH2 0x3ED JUMPI PUSH1 0x4 CALLDATALOAD PUSH4 0xFFFFFFFF PUSH1 0xE0 SHL DUP2 AND DUP1 SWAP2 SUB PUSH2 0x3ED JUMPI PUSH1 0x20 SWAP1 PUSH4 0x7965DB0B PUSH1 0xE0 SHL DUP2 EQ SWAP1 DUP2 ISZERO PUSH2 0x3DC JUMPI JUMPDEST POP PUSH1 0x40 MLOAD SWAP1 ISZERO ISZERO DUP2 MSTORE RETURN JUMPDEST PUSH4 0x1FFC9A7 PUSH1 0xE0 SHL EQ SWAP1 POP CODESIZE PUSH2 0x3D1 JUMP JUMPDEST PUSH1 0x0 DUP1 REVERT JUMPDEST SWAP2 SWAP1 DUP3 MLOAD SWAP3 DUP4 DUP3 MSTORE PUSH1 0x0 JUMPDEST DUP5 DUP2 LT PUSH2 0x41E JUMPI POP POP DUP3 PUSH1 0x0 PUSH1 0x20 DUP1 SWAP5 SWAP6 DUP5 ADD ADD MSTORE PUSH1 0x1F DUP1 NOT SWAP2 ADD AND ADD ADD SWAP1 JUMP JUMPDEST PUSH1 0x20 DUP2 DUP4 ADD DUP2 ADD MLOAD DUP5 DUP4 ADD DUP3 ADD MSTORE ADD PUSH2 0x3FD JUMP JUMPDEST SWAP1 PUSH1 0x20 PUSH2 0x443 SWAP3 DUP2 DUP2 MSTORE ADD SWAP1 PUSH2 0x3F2 JUMP JUMPDEST SWAP1 JUMP JUMPDEST CALLVALUE PUSH2 0x3ED JUMPI PUSH1 0x0 DUP1 PUSH1 0x3 NOT CALLDATASIZE ADD SLT PUSH2 0x528 JUMPI PUSH1 0x40 MLOAD SWAP1 DUP1 PUSH1 0x3 SLOAD PUSH2 0x469 DUP2 PUSH2 0x1D26 JUMP JUMPDEST DUP1 DUP6 MSTORE SWAP2 PUSH1 0x1 SWAP2 DUP1 DUP4 AND SWAP1 DUP2 ISZERO PUSH2 0x4FE JUMPI POP PUSH1 0x1 EQ PUSH2 0x4A3 JUMPI JUMPDEST PUSH2 0x49F DUP6 PUSH2 0x493 DUP2 DUP8 SUB DUP3 PUSH2 0x1A75 JUMP JUMPDEST PUSH1 0x40 MLOAD SWAP2 DUP3 SWAP2 DUP3 PUSH2 0x432 JUMP JUMPDEST SUB SWAP1 RETURN JUMPDEST SWAP3 POP PUSH1 0x3 DUP4 MSTORE PUSH32 0xC2575A0E9E593C00F959F8C92F12DB2869C3395A3B0502D05E2516446F71F85B JUMPDEST DUP3 DUP5 LT PUSH2 0x4E6 JUMPI POP POP POP DUP2 ADD PUSH1 0x20 ADD PUSH2 0x493 DUP3 PUSH2 0x49F PUSH2 0x483 JUMP JUMPDEST DUP1 SLOAD PUSH1 0x20 DUP6 DUP8 ADD DUP2 ADD SWAP2 SWAP1 SWAP2 MSTORE SWAP1 SWAP4 ADD SWAP3 DUP2 ADD PUSH2 0x4CB JUMP JUMPDEST DUP7 SWAP6 POP PUSH2 0x49F SWAP7 SWAP4 POP PUSH1 0x20 SWAP3 POP PUSH2 0x493 SWAP5 SWAP2 POP PUSH1 0xFF NOT AND DUP3 DUP5 ADD MSTORE ISZERO ISZERO PUSH1 0x5 SHL DUP3 ADD ADD SWAP3 SWAP4 PUSH2 0x483 JUMP JUMPDEST DUP1 REVERT JUMPDEST PUSH1 0x4 CALLDATALOAD SWAP1 PUSH1 0x1 PUSH1 0x1 PUSH1 0xA0 SHL SUB DUP3 AND DUP3 SUB PUSH2 0x3ED JUMPI JUMP JUMPDEST PUSH1 0x24 CALLDATALOAD SWAP1 PUSH1 0x1 PUSH1 0x1 PUSH1 0xA0 SHL SUB DUP3 AND DUP3 SUB PUSH2 0x3ED JUMPI JUMP JUMPDEST CALLVALUE PUSH2 0x3ED JUMPI PUSH1 0x40 CALLDATASIZE PUSH1 0x3 NOT ADD SLT PUSH2 0x3ED JUMPI PUSH2 0x57D PUSH2 0x573 PUSH2 0x52B JUMP JUMPDEST PUSH1 0x24 CALLDATALOAD SWAP1 CALLER PUSH2 0x1E72 JUMP JUMPDEST PUSH1 0x20 PUSH1 0x40 MLOAD PUSH1 0x1 DUP2 MSTORE RETURN JUMPDEST CALLVALUE PUSH2 0x3ED JUMPI PUSH1 0x0 CALLDATASIZE PUSH1 0x3 NOT ADD SLT PUSH2 0x3ED JUMPI PUSH1 0x20 PUSH1 0x16 SLOAD PUSH1 0x40 MLOAD SWAP1 DUP2 MSTORE RETURN JUMPDEST CALLVALUE PUSH2 0x3ED JUMPI PUSH1 0x0 CALLDATASIZE PUSH1 0x3 NOT ADD SLT PUSH2 0x3ED JUMPI PUSH1 0x20 PUSH1 0x2 SLOAD PUSH1 0x40 MLOAD SWAP1 DUP2 MSTORE RETURN JUMPDEST CALLVALUE PUSH2 0x3ED JUMPI PUSH1 0x60 CALLDATASIZE PUSH1 0x3 NOT ADD SLT PUSH2 0x3ED JUMPI PUSH2 0x57D PUSH2 0x5E0 PUSH2 0x52B JUMP JUMPDEST PUSH2 0x5E8 PUSH2 0x541 JUMP JUMPDEST PUSH1 0x44 CALLDATALOAD SWAP2 PUSH2 0x5F7 DUP4 CALLER DUP4 PUSH2 0x1F26 JUMP JUMPDEST PUSH2 0x1D60 JUMP JUMPDEST CALLVALUE PUSH2 0x3ED JUMPI PUSH1 0x20 CALLDATASIZE PUSH1 0x3 NOT ADD SLT PUSH2 0x3ED JUMPI PUSH1 0x4 CALLDATALOAD PUSH1 0x0 MSTORE PUSH1 0xB PUSH1 0x20 MSTORE PUSH1 0x20 PUSH1 0x1 PUSH1 0x40 PUSH1 0x0 KECCAK256 ADD SLOAD PUSH1 0x40 MLOAD SWAP1 DUP2 MSTORE RETURN JUMPDEST CALLVALUE PUSH2 0x3ED JUMPI PUSH1 0x40 CALLDATASIZE PUSH1 0x3 NOT ADD SLT PUSH2 0x3ED JUMPI PUSH2 0x66A PUSH1 0x4 CALLDATALOAD PUSH2 0x64A PUSH2 0x541 JUMP JUMPDEST SWAP1 DUP1 PUSH1 0x0 MSTORE PUSH1 0xB PUSH1 0x20 MSTORE PUSH2 0x665 PUSH1 0x1 PUSH1 0x40 PUSH1 0x0 KECCAK256 ADD SLOAD PUSH2 0x18B9 JUMP JUMPDEST PUSH2 0x18DA JUMP JUMPDEST STOP JUMPDEST CALLVALUE PUSH2 0x3ED JUMPI PUSH1 0x0 CALLDATASIZE PUSH1 0x3 NOT ADD SLT PUSH2 0x3ED JUMPI PUSH1 0x20 PUSH1 0x40 MLOAD PUSH1 0x12 DUP2 MSTORE RETURN JUMPDEST CALLVALUE PUSH2 0x3ED JUMPI PUSH1 0x0 CALLDATASIZE PUSH1 0x3 NOT ADD SLT PUSH2 0x3ED JUMPI PUSH1 0x20 PUSH2 0x6A3 PUSH2 0x228B JUMP JUMPDEST PUSH1 0x40 MLOAD SWAP1 DUP2 MSTORE RETURN JUMPDEST CALLVALUE PUSH2 0x3ED JUMPI PUSH1 0x40 CALLDATASIZE PUSH1 0x3 NOT ADD SLT PUSH2 0x3ED JUMPI PUSH2 0x6C4 PUSH2 0x541 JUMP JUMPDEST CALLER PUSH1 0x1 PUSH1 0x1 PUSH1 0xA0 SHL SUB DUP3 AND SUB PUSH2 0x6E0 JUMPI PUSH2 0x66A SWAP1 PUSH1 0x4 CALLDATALOAD PUSH2 0x1974 JUMP JUMPDEST PUSH1 0x40 MLOAD PUSH4 0x334BD919 PUSH1 0xE1 SHL DUP2 MSTORE PUSH1 0x4 SWAP1 REVERT JUMPDEST CALLVALUE PUSH2 0x3ED JUMPI PUSH1 0x40 CALLDATASIZE PUSH1 0x3 NOT ADD SLT PUSH2 0x3ED JUMPI PUSH2 0x70B PUSH2 0x52B JUMP JUMPDEST PUSH1 0x24 CALLDATALOAD PUSH2 0x717 NUMBER PUSH2 0x2608 JUMP JUMPDEST SWAP2 PUSH6 0xFFFFFFFFFFFF DUP4 AND DUP3 LT ISZERO PUSH2 0x772 JUMPI PUSH1 0x1 PUSH1 0x1 PUSH1 0xA0 SHL SUB AND PUSH1 0x0 SWAP1 DUP2 MSTORE PUSH1 0x9 PUSH1 0x20 MSTORE PUSH1 0x40 SWAP1 KECCAK256 PUSH2 0x49F SWAP3 POP PUSH1 0x1 PUSH1 0x1 PUSH1 0xD0 SHL SUB SWAP2 PUSH2 0x761 SWAP2 SWAP1 PUSH2 0x75B SWAP1 PUSH2 0x2608 JUMP JUMPDEST SWAP1 PUSH2 0x2675 JUMP JUMPDEST PUSH1 0x40 MLOAD SWAP2 AND DUP2 MSTORE SWAP1 DUP2 SWAP1 PUSH1 0x20 DUP3 ADD SWAP1 JUMP JUMPDEST POP PUSH1 0x40 MLOAD PUSH4 0x7669FC0F PUSH1 0xE1 SHL DUP2 MSTORE PUSH1 0x4 DUP2 ADD SWAP2 SWAP1 SWAP2 MSTORE PUSH6 0xFFFFFFFFFFFF SWAP2 SWAP1 SWAP2 AND PUSH1 0x24 DUP3 ADD MSTORE PUSH1 0x44 SWAP1 REVERT JUMPDEST CALLVALUE PUSH2 0x3ED JUMPI PUSH1 0x40 CALLDATASIZE PUSH1 0x3 NOT ADD SLT PUSH2 0x3ED JUMPI PUSH2 0x7B6 PUSH2 0x52B JUMP JUMPDEST PUSH1 0x24 CALLDATALOAD SWAP1 PUSH2 0x7C2 PUSH2 0x17E5 JUMP JUMPDEST PUSH1 0x2 SLOAD DUP3 DUP2 ADD DUP1 SWAP2 GT PUSH2 0x8B5 JUMPI PUSH1 0xC SLOAD LT PUSH2 0x87A JUMPI PUSH2 0x85D PUSH32 0x30385C845B448A36257A6A1716E6AD2E1BC2CBE333CDE1E69FE849AD6511ADFE SWAP2 PUSH2 0x807 PUSH1 0xE SLOAD PUSH2 0x2649 JUMP JUMPDEST TIMESTAMP GT PUSH2 0x862 JUMPI JUMPDEST PUSH2 0x839 PUSH2 0x834 DUP6 PUSH1 0xF SLOAD PUSH2 0x82F PUSH2 0x825 DUP4 DUP4 PUSH2 0x2668 JUMP JUMPDEST PUSH1 0xD SLOAD LT ISZERO PUSH2 0x2C0D JUMP JUMPDEST PUSH2 0x2668 JUMP JUMPDEST PUSH1 0xF SSTORE JUMP JUMPDEST PUSH2 0x843 DUP5 DUP3 PUSH2 0x2C52 JUMP JUMPDEST PUSH1 0x40 MLOAD SWAP4 DUP5 MSTORE PUSH1 0x1 PUSH1 0x1 PUSH1 0xA0 SHL SUB AND SWAP3 SWAP1 DUP2 SWAP1 PUSH1 0x20 DUP3 ADD SWAP1 JUMP JUMPDEST SUB SWAP1 LOG2 STOP JUMPDEST PUSH2 0x86C PUSH1 0x0 PUSH1 0xF SSTORE JUMP JUMPDEST PUSH2 0x875 TIMESTAMP PUSH1 0xE SSTORE JUMP JUMPDEST PUSH2 0x80E JUMP JUMPDEST PUSH1 0x40 MLOAD PUSH3 0x461BCD PUSH1 0xE5 SHL DUP2 MSTORE PUSH1 0x20 PUSH1 0x4 DUP3 ADD MSTORE PUSH1 0x13 PUSH1 0x24 DUP3 ADD MSTORE PUSH19 0x13585E081CDD5C1C1B1E48195E18D959591959 PUSH1 0x6A SHL PUSH1 0x44 DUP3 ADD MSTORE PUSH1 0x64 SWAP1 REVERT JUMPDEST PUSH2 0x1D10 JUMP JUMPDEST CALLVALUE PUSH2 0x3ED JUMPI PUSH1 0x20 CALLDATASIZE PUSH1 0x3 NOT ADD SLT PUSH2 0x3ED JUMPI PUSH2 0x66A PUSH1 0x4 CALLDATALOAD CALLER PUSH2 0x1FD4 JUMP JUMPDEST CALLVALUE PUSH2 0x3ED JUMPI PUSH1 0x0 CALLDATASIZE PUSH1 0x3 NOT ADD SLT PUSH2 0x3ED JUMPI PUSH2 0x8F1 NUMBER PUSH2 0x2608 JUMP JUMPDEST PUSH6 0xFFFFFFFFFFFF DUP1 PUSH2 0x902 NUMBER PUSH2 0x2608 JUMP JUMPDEST AND SWAP2 AND SUB PUSH2 0x957 JUMPI PUSH2 0x49F PUSH1 0x40 MLOAD PUSH2 0x919 DUP2 PUSH2 0x1A1C JUMP JUMPDEST PUSH1 0x1D DUP2 MSTORE PUSH32 0x6D6F64653D626C6F636B6E756D6265722666726F6D3D64656661756C74000000 PUSH1 0x20 DUP3 ADD MSTORE PUSH1 0x40 MLOAD SWAP2 DUP3 SWAP2 PUSH1 0x20 DUP4 MSTORE PUSH1 0x20 DUP4 ADD SWAP1 PUSH2 0x3F2 JUMP JUMPDEST PUSH1 0x40 MLOAD PUSH4 0x1BFC1C5 PUSH1 0xE6 SHL DUP2 MSTORE PUSH1 0x4 SWAP1 REVERT JUMPDEST CALLVALUE PUSH2 0x3ED JUMPI PUSH1 0x20 DUP1 PUSH1 0x3 NOT CALLDATASIZE ADD SLT PUSH2 0x3ED JUMPI PUSH1 0x4 CALLDATALOAD SWAP1 PUSH1 0x0 SWAP1 DUP2 JUMPDEST PUSH1 0xA DUP2 LT PUSH2 0x997 JUMPI PUSH1 0x40 MLOAD DUP4 DUP2 MSTORE PUSH1 0x20 SWAP1 RETURN JUMPDEST PUSH9 0x3635C9ADC5DEA00000 DUP1 DUP3 MUL SWAP1 DUP3 DUP3 DIV EQ DUP3 ISZERO OR ISZERO PUSH2 0x8B5 JUMPI DUP5 LT ISZERO PUSH2 0x9C7 JUMPI JUMPDEST PUSH2 0x9C2 SWAP1 PUSH2 0x2CFE JUMP JUMPDEST PUSH2 0x984 JUMP JUMPDEST PUSH1 0x0 DUP2 DUP2 MSTORE PUSH1 0x10 DUP4 MSTORE PUSH1 0x40 SWAP1 KECCAK256 SLOAD SWAP3 POP PUSH2 0x9B9 JUMP JUMPDEST SWAP1 DUP2 MLOAD DUP1 DUP3 MSTORE PUSH1 0x20 DUP1 DUP1 SWAP4 ADD SWAP4 ADD SWAP2 PUSH1 0x0 JUMPDEST DUP3 DUP2 LT PUSH2 0x9FC JUMPI POP POP POP POP SWAP1 JUMP JUMPDEST DUP4 MLOAD DUP6 MSTORE SWAP4 DUP2 ADD SWAP4 SWAP3 DUP2 ADD SWAP3 PUSH1 0x1 ADD PUSH2 0x9EE JUMP JUMPDEST SWAP1 PUSH1 0x20 PUSH2 0x443 SWAP3 DUP2 DUP2 MSTORE ADD SWAP1 PUSH2 0x9DC JUMP JUMPDEST CALLVALUE PUSH2 0x3ED JUMPI PUSH1 0x0 DUP1 PUSH1 0x3 NOT CALLDATASIZE ADD SLT PUSH2 0x528 JUMPI PUSH2 0xA3B PUSH2 0x23CB JUMP JUMPDEST SWAP1 DUP1 JUMPDEST PUSH1 0xA DUP2 LT PUSH2 0xA54 JUMPI PUSH1 0x40 MLOAD DUP1 PUSH2 0x49F DUP6 DUP3 PUSH2 0xA10 JUMP JUMPDEST DUP1 DUP3 MSTORE PUSH1 0x20 SWAP1 PUSH1 0x10 DUP3 MSTORE PUSH1 0x40 DUP4 KECCAK256 SLOAD DUP5 MLOAD DUP3 LT ISZERO PUSH2 0xA82 JUMPI PUSH2 0xA7D SWAP3 DUP3 PUSH1 0x5 SHL DUP7 ADD ADD MSTORE PUSH2 0x2CFE JUMP JUMPDEST PUSH2 0xA3E JUMP JUMPDEST PUSH2 0x291A JUMP JUMPDEST CALLVALUE PUSH2 0x3ED JUMPI PUSH1 0x20 CALLDATASIZE PUSH1 0x3 NOT ADD SLT PUSH2 0x3ED JUMPI PUSH1 0x20 PUSH1 0x1 PUSH1 0x1 PUSH1 0xA0 SHL SUB DUP1 PUSH2 0xAAB PUSH2 0x52B JUMP JUMPDEST AND PUSH1 0x0 MSTORE PUSH1 0x8 DUP3 MSTORE PUSH1 0x40 PUSH1 0x0 KECCAK256 SLOAD AND PUSH1 0x40 MLOAD SWAP1 DUP2 MSTORE RETURN JUMPDEST CALLVALUE PUSH2 0x3ED JUMPI PUSH1 0x20 CALLDATASIZE PUSH1 0x3 NOT ADD SLT PUSH2 0x3ED JUMPI PUSH2 0x66A PUSH2 0xADE PUSH2 0x52B JUMP JUMPDEST CALLER PUSH2 0x1AA6 JUMP JUMPDEST CALLVALUE PUSH2 0x3ED JUMPI PUSH1 0x0 CALLDATASIZE PUSH1 0x3 NOT ADD SLT PUSH2 0x3ED JUMPI PUSH1 0x17 SLOAD PUSH1 0x40 MLOAD PUSH1 0x1 PUSH1 0x1 PUSH1 0xA0 SHL SUB SWAP1 SWAP2 AND DUP2 MSTORE PUSH1 0x20 SWAP1 RETURN JUMPDEST CALLVALUE PUSH2 0x3ED JUMPI PUSH1 0x20 CALLDATASIZE PUSH1 0x3 NOT ADD SLT PUSH2 0x3ED JUMPI PUSH1 0x4 CALLDATALOAD PUSH1 0x0 MSTORE PUSH1 0x10 PUSH1 0x20 MSTORE PUSH1 0x20 PUSH1 0x40 PUSH1 0x0 KECCAK256 SLOAD PUSH1 0x40 MLOAD SWAP1 DUP2 MSTORE RETURN JUMPDEST CALLVALUE PUSH2 0x3ED JUMPI PUSH1 0x0 CALLDATASIZE PUSH1 0x3 NOT ADD SLT PUSH2 0x3ED JUMPI PUSH1 0x20 PUSH1 0x15 SLOAD PUSH1 0x40 MLOAD SWAP1 DUP2 MSTORE RETURN JUMPDEST CALLVALUE PUSH2 0x3ED JUMPI PUSH1 0x0 CALLDATASIZE PUSH1 0x3 NOT ADD SLT PUSH2 0x3ED JUMPI PUSH1 0x20 PUSH1 0xE SLOAD PUSH1 0x40 MLOAD SWAP1 DUP2 MSTORE RETURN JUMPDEST CALLVALUE PUSH2 0x3ED JUMPI PUSH1 0x0 CALLDATASIZE PUSH1 0x3 NOT ADD SLT PUSH2 0x3ED JUMPI PUSH1 0x20 PUSH1 0xF SLOAD PUSH1 0x40 MLOAD SWAP1 DUP2 MSTORE RETURN JUMPDEST CALLVALUE PUSH2 0x3ED JUMPI PUSH1 0x20 CALLDATASIZE PUSH1 0x3 NOT ADD SLT PUSH2 0x3ED JUMPI PUSH1 0x1 PUSH1 0x1 PUSH1 0xA0 SHL SUB PUSH2 0xBB4 PUSH2 0x52B JUMP JUMPDEST AND PUSH1 0x0 MSTORE PUSH1 0x9 PUSH1 0x20 MSTORE PUSH1 0x40 PUSH1 0x0 KECCAK256 SLOAD PUSH4 0xFFFFFFFF SWAP1 DUP2 DUP2 GT PUSH2 0xBDC JUMPI PUSH1 0x20 SWAP2 PUSH1 0x40 MLOAD SWAP2 AND DUP2 MSTORE RETURN JUMPDEST PUSH1 0x44 SWAP1 PUSH1 0x40 MLOAD SWAP1 PUSH4 0x6DFCC65 PUSH1 0xE4 SHL DUP3 MSTORE PUSH1 0x20 PUSH1 0x4 DUP4 ADD MSTORE PUSH1 0x24 DUP3 ADD MSTORE REVERT JUMPDEST CALLVALUE PUSH2 0x3ED JUMPI PUSH1 0x20 CALLDATASIZE PUSH1 0x3 NOT ADD SLT PUSH2 0x3ED JUMPI PUSH1 0x20 PUSH2 0x6A3 PUSH2 0xC19 PUSH2 0x52B JUMP JUMPDEST PUSH1 0x1 PUSH1 0x1 PUSH1 0xA0 SHL SUB AND PUSH1 0x0 SWAP1 DUP2 MSTORE PUSH1 0x20 DUP2 SWAP1 MSTORE PUSH1 0x40 SWAP1 KECCAK256 SLOAD SWAP1 JUMP JUMPDEST CALLVALUE PUSH2 0x3ED JUMPI PUSH1 0x40 CALLDATASIZE PUSH1 0x3 NOT ADD SLT PUSH2 0x3ED JUMPI PUSH2 0x66A PUSH2 0xC50 PUSH2 0x52B JUMP JUMPDEST PUSH1 0x24 CALLDATALOAD SWAP1 PUSH2 0xC5F DUP3 CALLER DUP4 PUSH2 0x1F26 JUMP JUMPDEST PUSH2 0x1FD4 JUMP JUMPDEST CALLVALUE PUSH2 0x3ED JUMPI PUSH1 0x0 CALLDATASIZE PUSH1 0x3 NOT ADD SLT PUSH2 0x3ED JUMPI PUSH1 0x20 PUSH1 0x11 SLOAD PUSH1 0x40 MLOAD SWAP1 DUP2 MSTORE RETURN JUMPDEST CALLVALUE PUSH2 0x3ED JUMPI PUSH1 0x0 CALLDATASIZE PUSH1 0x3 NOT ADD SLT PUSH2 0x3ED JUMPI PUSH1 0x20 PUSH1 0x14 SLOAD PUSH1 0x40 MLOAD SWAP1 DUP2 MSTORE RETURN JUMPDEST CALLVALUE PUSH2 0x3ED JUMPI PUSH1 0x20 CALLDATASIZE PUSH1 0x3 NOT ADD SLT PUSH2 0x3ED JUMPI PUSH1 0x1 PUSH1 0x1 PUSH1 0xA0 SHL SUB PUSH2 0xCC1 PUSH2 0x52B JUMP JUMPDEST AND PUSH1 0x0 MSTORE PUSH1 0x7 PUSH1 0x20 MSTORE PUSH1 0x20 PUSH1 0x40 PUSH1 0x0 KECCAK256 SLOAD PUSH1 0x40 MLOAD SWAP1 DUP2 MSTORE RETURN JUMPDEST CALLVALUE PUSH2 0x3ED JUMPI PUSH1 0x0 CALLDATASIZE PUSH1 0x3 NOT ADD SLT PUSH2 0x3ED JUMPI PUSH2 0xD6D PUSH2 0xD17 PUSH32 0x0 PUSH2 0x2422 JUMP JUMPDEST PUSH2 0x49F PUSH2 0xD43 PUSH32 0x0 PUSH2 0x251B JUMP JUMPDEST PUSH2 0xD7B PUSH2 0xD4E PUSH2 0x23F9 JUMP JUMPDEST SWAP2 PUSH1 0x40 MLOAD SWAP6 DUP7 SWAP6 PUSH1 0xF PUSH1 0xF8 SHL DUP8 MSTORE PUSH1 0xE0 PUSH1 0x20 DUP9 ADD MSTORE PUSH1 0xE0 DUP8 ADD SWAP1 PUSH2 0x3F2 JUMP JUMPDEST SWAP1 DUP6 DUP3 SUB PUSH1 0x40 DUP8 ADD MSTORE PUSH2 0x3F2 JUMP JUMPDEST SWAP1 CHAINID PUSH1 0x60 DUP6 ADD MSTORE ADDRESS PUSH1 0x80 DUP6 ADD MSTORE PUSH1 0x0 PUSH1 0xA0 DUP6 ADD MSTORE DUP4 DUP3 SUB PUSH1 0xC0 DUP6 ADD MSTORE PUSH2 0x9DC JUMP JUMPDEST CALLVALUE PUSH2 0x3ED JUMPI PUSH1 0x20 CALLDATASIZE PUSH1 0x3 NOT ADD SLT PUSH2 0x3ED JUMPI PUSH32 0x17E876F6956B36DDE6C5DD9DF30E484BFEFA90239FF982E267ABF6C45D018402 PUSH1 0x20 PUSH1 0x4 CALLDATALOAD PUSH2 0xDDB PUSH2 0x1861 JUMP JUMPDEST DUP1 PUSH1 0x11 SSTORE PUSH1 0x40 MLOAD SWAP1 DUP2 MSTORE LOG1 STOP JUMPDEST CALLVALUE PUSH2 0x3ED JUMPI PUSH1 0x20 CALLDATASIZE PUSH1 0x3 NOT ADD SLT PUSH2 0x3ED JUMPI PUSH1 0x4 CALLDATALOAD PUSH2 0xE05 NUMBER PUSH2 0x2608 JUMP JUMPDEST SWAP1 PUSH6 0xFFFFFFFFFFFF SWAP2 DUP3 DUP2 AND DUP3 LT ISZERO PUSH2 0xEDC JUMPI POP PUSH2 0xE22 SWAP1 PUSH2 0x2608 JUMP JUMPDEST PUSH1 0xA SLOAD SWAP1 PUSH1 0x0 SWAP1 DUP3 PUSH1 0x5 DUP2 GT PUSH2 0xE86 JUMPI JUMPDEST POP PUSH2 0xE3E SWAP4 POP PUSH2 0x2BA4 JUMP JUMPDEST PUSH1 0x0 DUP2 PUSH2 0xE5E JUMPI POP POP PUSH1 0x20 PUSH1 0x0 JUMPDEST PUSH1 0x40 MLOAD PUSH1 0x1 PUSH1 0x1 PUSH1 0xD0 SHL SUB SWAP1 SWAP2 AND DUP2 MSTORE RETURN JUMPDEST PUSH1 0xA PUSH2 0xE6B PUSH1 0x20 SWAP4 PUSH2 0x263A JUMP JUMPDEST SWAP2 MSTORE PUSH1 0x0 DUP1 MLOAD PUSH1 0x20 PUSH2 0x2DF2 DUP4 CODECOPY DUP2 MLOAD SWAP2 MSTORE ADD SLOAD PUSH1 0x30 SHR PUSH2 0xE4C JUMP JUMPDEST SWAP1 SWAP3 PUSH2 0xE91 DUP3 PUSH2 0x2777 JUMP JUMPDEST DUP3 SUB SWAP2 DUP3 GT PUSH2 0x8B5 JUMPI PUSH2 0xE3E SWAP5 PUSH1 0xA DUP5 MSTORE DUP1 DUP4 PUSH1 0x0 DUP1 MLOAD PUSH1 0x20 PUSH2 0x2DF2 DUP4 CODECOPY DUP2 MLOAD SWAP2 MSTORE ADD SLOAD AND SWAP1 DUP6 AND LT PUSH1 0x0 EQ PUSH2 0xECA JUMPI POP SWAP2 JUMPDEST CODESIZE PUSH2 0xE33 JUMP JUMPDEST SWAP3 SWAP2 POP PUSH2 0xED6 SWAP1 PUSH2 0x265A JUMP JUMPDEST SWAP1 PUSH2 0xEC4 JUMP JUMPDEST PUSH1 0x40 MLOAD PUSH4 0x7669FC0F PUSH1 0xE1 SHL DUP2 MSTORE PUSH1 0x4 DUP2 ADD SWAP3 SWAP1 SWAP3 MSTORE PUSH6 0xFFFFFFFFFFFF AND PUSH1 0x24 DUP3 ADD MSTORE PUSH1 0x44 SWAP1 REVERT JUMPDEST CALLVALUE PUSH2 0x3ED JUMPI PUSH1 0x40 CALLDATASIZE PUSH1 0x3 NOT ADD SLT PUSH2 0x3ED JUMPI PUSH1 0x20 PUSH1 0xFF PUSH2 0xF49 PUSH2 0xF23 PUSH2 0x541 JUMP JUMPDEST PUSH1 0x4 CALLDATALOAD PUSH1 0x0 MSTORE PUSH1 0xB DUP5 MSTORE PUSH1 0x40 PUSH1 0x0 KECCAK256 SWAP1 PUSH1 0x1 DUP1 PUSH1 0xA0 SHL SUB AND PUSH1 0x0 MSTORE PUSH1 0x20 MSTORE PUSH1 0x40 PUSH1 0x0 KECCAK256 SWAP1 JUMP JUMPDEST SLOAD AND PUSH1 0x40 MLOAD SWAP1 ISZERO ISZERO DUP2 MSTORE RETURN JUMPDEST CALLVALUE PUSH2 0x3ED JUMPI PUSH1 0x0 CALLDATASIZE PUSH1 0x3 NOT ADD SLT PUSH2 0x3ED JUMPI PUSH1 0x20 PUSH2 0xF71 NUMBER PUSH2 0x2608 JUMP JUMPDEST PUSH6 0xFFFFFFFFFFFF PUSH1 0x40 MLOAD SWAP2 AND DUP2 MSTORE RETURN JUMPDEST CALLVALUE PUSH2 0x3ED JUMPI PUSH1 0x0 DUP1 PUSH1 0x3 NOT CALLDATASIZE ADD SLT PUSH2 0x528 JUMPI PUSH1 0x40 MLOAD SWAP1 DUP1 PUSH1 0x4 SLOAD PUSH2 0xFA4 DUP2 PUSH2 0x1D26 JUMP JUMPDEST DUP1 DUP6 MSTORE SWAP2 PUSH1 0x1 SWAP2 DUP1 DUP4 AND SWAP1 DUP2 ISZERO PUSH2 0x4FE JUMPI POP PUSH1 0x1 EQ PUSH2 0xFCD JUMPI PUSH2 0x49F DUP6 PUSH2 0x493 DUP2 DUP8 SUB DUP3 PUSH2 0x1A75 JUMP JUMPDEST SWAP3 POP PUSH1 0x4 DUP4 MSTORE PUSH32 0x8A35ACFBC15FF81A39AE7D344FD709F28E8600B4AA8C65C6B64BFE7FE36BD19B JUMPDEST DUP3 DUP5 LT PUSH2 0x1010 JUMPI POP POP POP DUP2 ADD PUSH1 0x20 ADD PUSH2 0x493 DUP3 PUSH2 0x49F PUSH2 0x483 JUMP JUMPDEST DUP1 SLOAD PUSH1 0x20 DUP6 DUP8 ADD DUP2 ADD SWAP2 SWAP1 SWAP2 MSTORE SWAP1 SWAP4 ADD SWAP3 DUP2 ADD PUSH2 0xFF5 JUMP JUMPDEST CALLVALUE PUSH2 0x3ED JUMPI PUSH1 0x20 CALLDATASIZE PUSH1 0x3 NOT ADD SLT PUSH2 0x3ED JUMPI PUSH1 0x1 PUSH1 0x1 PUSH1 0xA0 SHL SUB PUSH2 0x1049 PUSH2 0x52B JUMP JUMPDEST AND PUSH1 0x0 MSTORE PUSH1 0x9 PUSH1 0x20 MSTORE PUSH1 0x20 PUSH1 0x1 DUP1 PUSH1 0xD0 SHL SUB PUSH2 0x1068 PUSH1 0x40 PUSH1 0x0 KECCAK256 PUSH2 0x28EC JUMP JUMPDEST AND PUSH1 0x40 MLOAD SWAP1 DUP2 MSTORE RETURN JUMPDEST CALLVALUE PUSH2 0x3ED JUMPI PUSH1 0x0 CALLDATASIZE PUSH1 0x3 NOT ADD SLT PUSH2 0x3ED JUMPI PUSH1 0x20 PUSH1 0x40 MLOAD PUSH1 0x0 DUP2 MSTORE RETURN JUMPDEST CALLVALUE PUSH2 0x3ED JUMPI PUSH1 0x40 CALLDATASIZE PUSH1 0x3 NOT ADD SLT PUSH2 0x3ED JUMPI PUSH2 0x57D PUSH2 0x10A9 PUSH2 0x52B JUMP JUMPDEST PUSH1 0x24 CALLDATALOAD SWAP1 CALLER PUSH2 0x1D60 JUMP JUMPDEST CALLVALUE PUSH2 0x3ED JUMPI PUSH1 0x80 CALLDATASIZE PUSH1 0x3 NOT ADD SLT PUSH2 0x3ED JUMPI PUSH1 0x64 CALLDATALOAD PUSH1 0x24 CALLDATALOAD PUSH1 0x4 CALLDATALOAD PUSH1 0x44 CALLDATALOAD PUSH2 0x10D8 PUSH2 0x1861 JUMP JUMPDEST DUP3 DUP3 ADD DUP1 DUP4 GT PUSH2 0x8B5 JUMPI DUP2 DUP2 ADD DUP1 SWAP2 GT PUSH2 0x8B5 JUMPI DUP5 DUP2 ADD DUP1 SWAP2 GT PUSH2 0x8B5 JUMPI PUSH2 0x2710 SUB PUSH2 0x1170 JUMPI PUSH32 0x31372A128FC1946AA198A9D7C72E23D7106618D46C478A053897FC73F3BE48BC SWAP4 PUSH2 0x116B SWAP2 PUSH2 0x112D DUP5 PUSH1 0x13 SSTORE JUMP JUMPDEST PUSH2 0x1136 DUP6 PUSH1 0x14 SSTORE JUMP JUMPDEST PUSH2 0x113F DUP2 PUSH1 0x15 SSTORE JUMP JUMPDEST PUSH2 0x1148 DUP3 PUSH1 0x16 SSTORE JUMP JUMPDEST PUSH1 0x40 MLOAD SWAP5 DUP6 SWAP5 DUP6 SWAP1 SWAP5 SWAP4 SWAP3 PUSH1 0x60 SWAP3 PUSH1 0x80 DUP4 ADD SWAP7 DUP4 MSTORE PUSH1 0x20 DUP4 ADD MSTORE PUSH1 0x40 DUP3 ADD MSTORE ADD MSTORE JUMP JUMPDEST SUB SWAP1 LOG1 STOP JUMPDEST PUSH1 0x40 MLOAD PUSH3 0x461BCD PUSH1 0xE5 SHL DUP2 MSTORE PUSH1 0x20 PUSH1 0x4 DUP3 ADD MSTORE PUSH1 0xF PUSH1 0x24 DUP3 ADD MSTORE PUSH15 0x4D75737420657175616C2031303025 PUSH1 0x88 SHL PUSH1 0x44 DUP3 ADD MSTORE PUSH1 0x64 SWAP1 REVERT JUMPDEST CALLVALUE PUSH2 0x3ED JUMPI PUSH1 0x0 CALLDATASIZE PUSH1 0x3 NOT ADD SLT PUSH2 0x3ED JUMPI PUSH1 0x20 PUSH1 0x12 SLOAD PUSH1 0x40 MLOAD SWAP1 DUP2 MSTORE RETURN JUMPDEST CALLVALUE PUSH2 0x3ED JUMPI PUSH1 0x0 CALLDATASIZE PUSH1 0x3 NOT ADD SLT PUSH2 0x3ED JUMPI PUSH1 0x18 SLOAD PUSH1 0x40 MLOAD PUSH1 0x1 PUSH1 0x1 PUSH1 0xA0 SHL SUB SWAP1 SWAP2 AND DUP2 MSTORE PUSH1 0x20 SWAP1 RETURN JUMPDEST CALLVALUE PUSH2 0x3ED JUMPI PUSH1 0x0 CALLDATASIZE PUSH1 0x3 NOT ADD SLT PUSH2 0x3ED JUMPI PUSH1 0x20 PUSH1 0x13 SLOAD PUSH1 0x40 MLOAD SWAP1 DUP2 MSTORE RETURN JUMPDEST CALLVALUE PUSH2 0x3ED JUMPI PUSH1 0x20 CALLDATASIZE PUSH1 0x3 NOT ADD SLT PUSH2 0x3ED JUMPI PUSH2 0x1225 PUSH2 0x52B JUMP JUMPDEST PUSH2 0x122D PUSH2 0x1861 JUMP JUMPDEST PUSH1 0x18 DUP1 SLOAD PUSH1 0x1 PUSH1 0x1 PUSH1 0xA0 SHL SUB NOT AND PUSH1 0x1 PUSH1 0x1 PUSH1 0xA0 SHL SUB SWAP3 SWAP1 SWAP3 AND SWAP2 DUP3 OR SWAP1 SSTORE PUSH32 0x7AA78E1BAF57AF40DEDE9E6B906523DCD0DE972D7ED5E1961F0FCC2B9CF19F00 PUSH1 0x0 DUP1 LOG2 STOP JUMPDEST PUSH1 0x64 CALLDATALOAD SWAP1 PUSH1 0xFF DUP3 AND DUP3 SUB PUSH2 0x3ED JUMPI JUMP JUMPDEST PUSH1 0x84 CALLDATALOAD SWAP1 PUSH1 0xFF DUP3 AND DUP3 SUB PUSH2 0x3ED JUMPI JUMP JUMPDEST CALLVALUE PUSH2 0x3ED JUMPI PUSH1 0xC0 CALLDATASIZE PUSH1 0x3 NOT ADD SLT PUSH2 0x3ED JUMPI PUSH2 0x12AC PUSH2 0x52B JUMP JUMPDEST PUSH1 0x44 CALLDATALOAD SWAP1 PUSH1 0x24 CALLDATALOAD PUSH2 0x12BB PUSH2 0x1273 JUMP JUMPDEST DUP4 TIMESTAMP GT PUSH2 0x1343 JUMPI PUSH2 0x1337 PUSH2 0x66A SWAP5 PUSH2 0x133E SWAP3 PUSH1 0x40 MLOAD SWAP1 PUSH1 0x20 DUP3 ADD SWAP3 PUSH32 0xE48329057BFD03D55E49B547132E39CFFD9C1820AD7B9D4C5307691425D15ADF DUP5 MSTORE PUSH1 0x1 DUP1 PUSH1 0xA0 SHL SUB DUP9 AND PUSH1 0x40 DUP5 ADD MSTORE DUP7 PUSH1 0x60 DUP5 ADD MSTORE PUSH1 0x80 DUP4 ADD MSTORE PUSH1 0x80 DUP3 MSTORE PUSH2 0x131F DUP3 PUSH2 0x1A3D JUMP JUMPDEST PUSH2 0x1332 PUSH1 0xA4 CALLDATALOAD SWAP4 PUSH1 0x84 CALLDATALOAD SWAP4 MLOAD SWAP1 KECCAK256 PUSH2 0x23A5 JUMP JUMPDEST PUSH2 0x2136 JUMP JUMPDEST SWAP2 DUP3 PUSH2 0x20E0 JUMP JUMPDEST PUSH2 0x1AA6 JUMP JUMPDEST PUSH1 0x40 MLOAD PUSH4 0x2341D787 PUSH1 0xE1 SHL DUP2 MSTORE PUSH1 0x4 DUP2 ADD DUP6 SWAP1 MSTORE PUSH1 0x24 SWAP1 REVERT JUMPDEST CALLVALUE PUSH2 0x3ED JUMPI PUSH1 0x20 CALLDATASIZE PUSH1 0x3 NOT ADD SLT PUSH2 0x3ED JUMPI PUSH32 0xB0F01601E93AD2A8FC4106E97567BC037AA114741705BE9D80570FD2AFA7BF1B PUSH1 0x20 PUSH1 0x4 CALLDATALOAD PUSH2 0x139B PUSH2 0x1861 JUMP JUMPDEST DUP1 PUSH1 0x12 SSTORE PUSH1 0x40 MLOAD SWAP1 DUP2 MSTORE LOG1 STOP JUMPDEST CALLVALUE PUSH2 0x3ED JUMPI PUSH1 0xE0 CALLDATASIZE PUSH1 0x3 NOT ADD SLT PUSH2 0x3ED JUMPI PUSH2 0x13C1 PUSH2 0x52B JUMP JUMPDEST PUSH2 0x13C9 PUSH2 0x541 JUMP JUMPDEST PUSH1 0x44 CALLDATALOAD SWAP1 PUSH1 0x64 CALLDATALOAD PUSH2 0x13D8 PUSH2 0x1283 JUMP JUMPDEST DUP2 TIMESTAMP GT PUSH2 0x14C3 JUMPI PUSH1 0x1 PUSH1 0x1 PUSH1 0xA0 SHL SUB DUP6 DUP2 AND PUSH1 0x0 DUP2 DUP2 MSTORE PUSH1 0x7 PUSH1 0x20 SWAP1 DUP2 MSTORE PUSH1 0x40 SWAP2 DUP3 SWAP1 KECCAK256 DUP1 SLOAD PUSH1 0x1 DUP2 ADD SWAP1 SWAP2 SSTORE DUP3 MLOAD PUSH32 0x6E71EDAE12B1B97F4D1F60370FEF10105FA2FAAE0126114A169C64845D6126C9 SWAP3 DUP2 ADD SWAP3 DUP4 MSTORE SWAP3 DUP4 ADD SWAP4 SWAP1 SWAP4 MSTORE SWAP3 DUP7 AND PUSH1 0x60 DUP3 ADD MSTORE PUSH1 0x80 DUP2 ADD DUP8 SWAP1 MSTORE PUSH1 0xA0 DUP2 ADD SWAP2 SWAP1 SWAP2 MSTORE PUSH1 0xC0 DUP1 DUP3 ADD SWAP5 SWAP1 SWAP5 MSTORE SWAP3 DUP4 MSTORE PUSH2 0x147C SWAP3 SWAP1 SWAP2 PUSH2 0x1469 PUSH1 0xE0 DUP4 PUSH2 0x1A75 JUMP JUMPDEST PUSH2 0x1332 PUSH1 0xC4 CALLDATALOAD SWAP4 PUSH1 0xA4 CALLDATALOAD SWAP4 MLOAD SWAP1 KECCAK256 PUSH2 0x23A5 JUMP JUMPDEST PUSH1 0x1 PUSH1 0x1 PUSH1 0xA0 SHL SUB DUP5 DUP2 AND SWAP1 DUP3 AND SUB PUSH2 0x1499 JUMPI POP PUSH2 0x66A SWAP3 PUSH2 0x1E72 JUMP JUMPDEST PUSH1 0x40 MLOAD PUSH4 0x25C00723 PUSH1 0xE1 SHL DUP2 MSTORE PUSH1 0x1 PUSH1 0x1 PUSH1 0xA0 SHL SUB SWAP2 DUP3 AND PUSH1 0x4 DUP3 ADD MSTORE SWAP1 DUP5 AND PUSH1 0x24 DUP3 ADD MSTORE PUSH1 0x44 SWAP1 REVERT JUMPDEST PUSH1 0x40 MLOAD PUSH4 0x313C8981 PUSH1 0xE1 SHL DUP2 MSTORE PUSH1 0x4 DUP2 ADD DUP4 SWAP1 MSTORE PUSH1 0x24 SWAP1 REVERT JUMPDEST CALLVALUE PUSH2 0x3ED JUMPI PUSH1 0x0 CALLDATASIZE PUSH1 0x3 NOT ADD SLT PUSH2 0x3ED JUMPI PUSH1 0x20 PUSH1 0x40 MLOAD PUSH32 0x9F2DF0FED2C77648DE5860A4CC508CD0818C85B8B8A1AB4CEEEF8D981C8956A6 DUP2 MSTORE RETURN JUMPDEST CALLVALUE PUSH2 0x3ED JUMPI PUSH1 0x40 CALLDATASIZE PUSH1 0x3 NOT ADD SLT PUSH2 0x3ED JUMPI PUSH2 0x66A PUSH1 0x4 CALLDATALOAD PUSH2 0x1536 PUSH2 0x541 JUMP JUMPDEST SWAP1 DUP1 PUSH1 0x0 MSTORE PUSH1 0xB PUSH1 0x20 MSTORE PUSH2 0x1551 PUSH1 0x1 PUSH1 0x40 PUSH1 0x0 KECCAK256 ADD SLOAD PUSH2 0x18B9 JUMP JUMPDEST PUSH2 0x1974 JUMP JUMPDEST CALLVALUE PUSH2 0x3ED JUMPI PUSH1 0x0 CALLDATASIZE PUSH1 0x3 NOT ADD SLT PUSH2 0x3ED JUMPI PUSH1 0x20 PUSH1 0xC SLOAD PUSH1 0x40 MLOAD SWAP1 DUP2 MSTORE RETURN JUMPDEST CALLVALUE PUSH2 0x3ED JUMPI PUSH1 0x40 CALLDATASIZE PUSH1 0x3 NOT ADD SLT PUSH2 0x3ED JUMPI PUSH1 0x4 CALLDATALOAD PUSH1 0x24 CALLDATALOAD PUSH2 0x1593 PUSH2 0x1861 JUMP JUMPDEST PUSH2 0x2710 DUP2 GT PUSH2 0x15EA JUMPI DUP2 PUSH32 0x3BADD8C132BB1C7264C8A842670580D2BDAD682383A87A17638AE047444E6D20 SWAP3 PUSH1 0x0 MSTORE PUSH1 0x10 PUSH1 0x20 MSTORE DUP2 PUSH1 0x40 PUSH1 0x0 KECCAK256 SSTORE PUSH2 0x116B PUSH1 0x40 MLOAD SWAP3 DUP4 SWAP3 DUP4 PUSH1 0x20 SWAP1 SWAP4 SWAP3 SWAP2 SWAP4 PUSH1 0x40 DUP2 ADD SWAP5 DUP2 MSTORE ADD MSTORE JUMP JUMPDEST PUSH1 0x40 MLOAD PUSH3 0x461BCD PUSH1 0xE5 SHL DUP2 MSTORE PUSH1 0x20 PUSH1 0x4 DUP3 ADD MSTORE PUSH1 0x8 PUSH1 0x24 DUP3 ADD MSTORE PUSH8 0x4D61782031303025 PUSH1 0xC0 SHL PUSH1 0x44 DUP3 ADD MSTORE PUSH1 0x64 SWAP1 REVERT JUMPDEST CALLVALUE PUSH2 0x3ED JUMPI PUSH1 0x0 CALLDATASIZE PUSH1 0x3 NOT ADD SLT PUSH2 0x3ED JUMPI PUSH1 0x20 PUSH1 0xD SLOAD PUSH1 0x40 MLOAD SWAP1 DUP2 MSTORE RETURN JUMPDEST CALLVALUE PUSH2 0x3ED JUMPI PUSH1 0x40 CALLDATASIZE PUSH1 0x3 NOT ADD SLT PUSH2 0x3ED JUMPI PUSH1 0x20 PUSH2 0x1687 PUSH2 0x1656 PUSH2 0x52B JUMP JUMPDEST PUSH2 0x165E PUSH2 0x541 JUMP JUMPDEST PUSH1 0x1 PUSH1 0x1 PUSH1 0xA0 SHL SUB SWAP2 DUP3 AND PUSH1 0x0 SWAP1 DUP2 MSTORE PUSH1 0x1 DUP6 MSTORE PUSH1 0x40 DUP1 DUP3 KECCAK256 SWAP3 SWAP1 SWAP4 AND DUP2 MSTORE PUSH1 0x20 SWAP2 SWAP1 SWAP2 MSTORE KECCAK256 SWAP1 JUMP JUMPDEST SLOAD PUSH1 0x40 MLOAD SWAP1 DUP2 MSTORE RETURN JUMPDEST CALLVALUE PUSH2 0x3ED JUMPI PUSH1 0x20 CALLDATASIZE PUSH1 0x3 NOT ADD SLT PUSH2 0x3ED JUMPI PUSH2 0x16A9 PUSH2 0x52B JUMP JUMPDEST PUSH2 0x16B1 PUSH2 0x1861 JUMP JUMPDEST PUSH1 0x17 DUP1 SLOAD PUSH1 0x1 PUSH1 0x1 PUSH1 0xA0 SHL SUB NOT AND PUSH1 0x1 PUSH1 0x1 PUSH1 0xA0 SHL SUB SWAP3 SWAP1 SWAP3 AND SWAP2 DUP3 OR SWAP1 SSTORE PUSH32 0x7DAE230F18360D76A040C81F050AA14EB9D6DC7901B20FC5D855E2A20FE814D1 PUSH1 0x0 DUP1 LOG2 STOP JUMPDEST CALLVALUE PUSH2 0x3ED JUMPI PUSH1 0x40 CALLDATASIZE PUSH1 0x3 NOT ADD SLT PUSH2 0x3ED JUMPI PUSH2 0x1710 PUSH2 0x52B JUMP JUMPDEST PUSH1 0x24 CALLDATALOAD SWAP1 PUSH4 0xFFFFFFFF DUP3 AND DUP3 SUB PUSH2 0x3ED JUMPI PUSH2 0x49F SWAP2 PUSH2 0x1760 SWAP2 PUSH2 0x1731 PUSH2 0x20C7 JUMP JUMPDEST POP PUSH2 0x173A PUSH2 0x20C7 JUMP JUMPDEST POP PUSH1 0x1 PUSH1 0x1 PUSH1 0xA0 SHL SUB AND PUSH1 0x0 SWAP1 DUP2 MSTORE PUSH1 0x9 PUSH1 0x20 MSTORE PUSH1 0x40 SWAP1 KECCAK256 PUSH2 0x175A PUSH2 0x20C7 JUMP JUMPDEST POP PUSH2 0x2930 JUMP JUMPDEST POP PUSH1 0x40 MLOAD SWAP1 PUSH2 0x176E DUP3 PUSH2 0x1A1C JUMP JUMPDEST SLOAD PUSH6 0xFFFFFFFFFFFF DUP2 AND DUP1 DUP4 MSTORE PUSH1 0x30 SWAP2 SWAP1 SWAP2 SHR PUSH1 0x20 SWAP3 DUP4 ADD SWAP1 DUP2 MSTORE PUSH1 0x40 DUP1 MLOAD SWAP3 DUP4 MSTORE SWAP1 MLOAD PUSH1 0x1 PUSH1 0x1 PUSH1 0xD0 SHL SUB AND SWAP3 DUP3 ADD SWAP3 SWAP1 SWAP3 MSTORE SWAP2 DUP3 SWAP2 DUP3 ADD SWAP1 JUMP JUMPDEST CALLVALUE PUSH2 0x3ED JUMPI PUSH1 0x0 CALLDATASIZE PUSH1 0x3 NOT ADD SLT PUSH2 0x3ED JUMPI PUSH1 0x20 PUSH1 0x40 MLOAD PUSH32 0x71840DC4906352362B0CDAF79870196C8E42ACAFADE72D5D5A6D59291253CEB1 DUP2 MSTORE RETURN JUMPDEST CALLER PUSH1 0x0 SWAP1 DUP2 MSTORE PUSH32 0xF70E363B3D7895AF770C4A138460777D52EEBD3CB9962CCC6B58721F6127BBC8 PUSH1 0x20 MSTORE PUSH1 0x40 SWAP1 KECCAK256 PUSH32 0x9F2DF0FED2C77648DE5860A4CC508CD0818C85B8B8A1AB4CEEEF8D981C8956A6 SWAP1 PUSH1 0xFF SWAP1 JUMPDEST SLOAD AND ISZERO PUSH2 0x1843 JUMPI POP JUMP JUMPDEST PUSH1 0x44 SWAP1 PUSH1 0x40 MLOAD SWAP1 PUSH4 0xE2517D3F PUSH1 0xE0 SHL DUP3 MSTORE CALLER PUSH1 0x4 DUP4 ADD MSTORE PUSH1 0x24 DUP3 ADD MSTORE REVERT JUMPDEST CALLER PUSH1 0x0 SWAP1 DUP2 MSTORE PUSH32 0x335E1B54CA43DF00436BB5FE7358AF00AEA8249F479068439ED5A193DFC6FCE9 PUSH1 0x20 MSTORE PUSH1 0x40 SWAP1 KECCAK256 PUSH32 0x71840DC4906352362B0CDAF79870196C8E42ACAFADE72D5D5A6D59291253CEB1 SWAP1 PUSH1 0xFF SWAP1 PUSH2 0x1839 JUMP JUMPDEST PUSH1 0x0 DUP2 DUP2 MSTORE PUSH1 0xB PUSH1 0x20 SWAP1 DUP2 MSTORE PUSH1 0x40 DUP1 DUP4 KECCAK256 CALLER DUP5 MSTORE SWAP1 SWAP2 MSTORE SWAP1 KECCAK256 PUSH1 0xFF SWAP1 PUSH2 0x1839 JUMP JUMPDEST PUSH1 0x0 SWAP1 DUP1 DUP3 MSTORE PUSH1 0xB PUSH1 0x20 MSTORE PUSH1 0xFF PUSH2 0x1906 DUP5 PUSH1 0x40 DUP6 KECCAK256 SWAP1 PUSH1 0x1 DUP1 PUSH1 0xA0 SHL SUB AND PUSH1 0x0 MSTORE PUSH1 0x20 MSTORE PUSH1 0x40 PUSH1 0x0 KECCAK256 SWAP1 JUMP JUMPDEST SLOAD AND PUSH2 0x196E JUMPI DUP1 DUP3 MSTORE PUSH1 0xB PUSH1 0x20 SWAP1 DUP2 MSTORE PUSH1 0x40 DUP1 DUP5 KECCAK256 PUSH1 0x1 PUSH1 0x1 PUSH1 0xA0 SHL SUB DUP7 AND PUSH1 0x0 SWAP1 DUP2 MSTORE SWAP3 MSTORE SWAP1 KECCAK256 DUP1 SLOAD PUSH1 0xFF NOT AND PUSH1 0x1 OR SWAP1 SSTORE CALLER SWAP3 PUSH1 0x1 PUSH1 0x1 PUSH1 0xA0 SHL SUB AND SWAP2 PUSH32 0x2F8788117E7EFF1D82E926EC794901D17C78024A50270940304540A733656F0D SWAP1 DUP1 LOG4 PUSH1 0x1 SWAP1 JUMP JUMPDEST POP SWAP1 POP SWAP1 JUMP JUMPDEST PUSH1 0x0 SWAP1 DUP1 DUP3 MSTORE PUSH1 0xB PUSH1 0x20 MSTORE PUSH1 0xFF PUSH2 0x19A0 DUP5 PUSH1 0x40 DUP6 KECCAK256 SWAP1 PUSH1 0x1 DUP1 PUSH1 0xA0 SHL SUB AND PUSH1 0x0 MSTORE PUSH1 0x20 MSTORE PUSH1 0x40 PUSH1 0x0 KECCAK256 SWAP1 JUMP JUMPDEST SLOAD AND ISZERO PUSH2 0x196E JUMPI DUP1 DUP3 MSTORE PUSH1 0xB PUSH1 0x20 SWAP1 DUP2 MSTORE PUSH1 0x40 DUP1 DUP5 KECCAK256 PUSH1 0x1 PUSH1 0x1 PUSH1 0xA0 SHL SUB DUP7 AND PUSH1 0x0 SWAP1 DUP2 MSTORE SWAP3 MSTORE SWAP1 KECCAK256 DUP1 SLOAD PUSH1 0xFF NOT AND SWAP1 SSTORE CALLER SWAP3 PUSH1 0x1 PUSH1 0x1 PUSH1 0xA0 SHL SUB AND SWAP2 PUSH32 0xF6391F5C32D9C69D2A47EA670B442974B53935D1EDC7FD64EB21E047A839171B SWAP1 DUP1 LOG4 PUSH1 0x1 SWAP1 JUMP JUMPDEST PUSH4 0x4E487B71 PUSH1 0xE0 SHL PUSH1 0x0 MSTORE PUSH1 0x41 PUSH1 0x4 MSTORE PUSH1 0x24 PUSH1 0x0 REVERT JUMPDEST PUSH1 0x40 DUP2 ADD SWAP1 DUP2 LT PUSH8 0xFFFFFFFFFFFFFFFF DUP3 GT OR PUSH2 0x1A38 JUMPI PUSH1 0x40 MSTORE JUMP JUMPDEST PUSH2 0x1A06 JUMP JUMPDEST PUSH1 0xA0 DUP2 ADD SWAP1 DUP2 LT PUSH8 0xFFFFFFFFFFFFFFFF DUP3 GT OR PUSH2 0x1A38 JUMPI PUSH1 0x40 MSTORE JUMP JUMPDEST PUSH1 0xC0 DUP2 ADD SWAP1 DUP2 LT PUSH8 0xFFFFFFFFFFFFFFFF DUP3 GT OR PUSH2 0x1A38 JUMPI PUSH1 0x40 MSTORE JUMP JUMPDEST SWAP1 PUSH1 0x1F DUP1 NOT SWAP2 ADD AND DUP2 ADD SWAP1 DUP2 LT PUSH8 0xFFFFFFFFFFFFFFFF DUP3 GT OR PUSH2 0x1A38 JUMPI PUSH1 0x40 MSTORE JUMP JUMPDEST PUSH1 0x40 MLOAD SWAP1 PUSH2 0x1AA4 DUP3 PUSH2 0x1A1C JUMP JUMPDEST JUMP JUMPDEST PUSH1 0x1 PUSH1 0x1 PUSH1 0xA0 SHL SUB DUP2 DUP2 AND PUSH1 0x0 DUP2 DUP2 MSTORE PUSH1 0x8 PUSH1 0x20 MSTORE PUSH1 0x40 DUP2 KECCAK256 DUP1 SLOAD DUP7 DUP6 AND PUSH1 0x1 PUSH1 0x1 PUSH1 0xA0 SHL SUB NOT DUP3 AND DUP2 OR SWAP1 SWAP3 SSTORE PUSH2 0x1AA4 SWAP7 SWAP5 AND SWAP5 PUSH2 0x1B23 SWAP4 SWAP1 SWAP3 DUP7 SWAP2 SWAP1 PUSH32 0x3134E8A2E6D97E929A7E54011EA5485D7D196DD5F0BA4D4EF95803E8E3FC257F SWAP1 DUP1 LOG4 PUSH1 0x1 PUSH1 0x1 PUSH1 0xA0 SHL SUB AND PUSH1 0x0 SWAP1 DUP2 MSTORE PUSH1 0x20 DUP2 SWAP1 MSTORE PUSH1 0x40 SWAP1 KECCAK256 SLOAD SWAP1 JUMP JUMPDEST SWAP2 JUMPDEST PUSH1 0x1 PUSH1 0x1 PUSH1 0xA0 SHL SUB DUP1 DUP4 AND SWAP4 SWAP3 SWAP2 SWAP1 DUP2 AND SWAP1 DUP2 DUP6 EQ ISZERO DUP1 PUSH2 0x1C6E JUMPI JUMPDEST PUSH2 0x1B4D JUMPI JUMPDEST POP POP POP POP POP JUMP JUMPDEST DUP2 PUSH2 0x1BD2 JUMPI JUMPDEST POP POP DUP3 PUSH2 0x1B62 JUMPI JUMPDEST DUP1 DUP1 PUSH2 0x1B46 JUMP JUMPDEST PUSH1 0x1 PUSH1 0x1 PUSH1 0xA0 SHL SUB AND PUSH1 0x0 SWAP1 DUP2 MSTORE PUSH1 0x9 PUSH1 0x20 MSTORE PUSH1 0x40 SWAP1 KECCAK256 PUSH32 0xDEC2BACDD2F05B59DE34DA9B523DFF8BE42E5E38E818C82FDB0BAE774387A724 SWAP2 PUSH2 0x1BAF SWAP2 PUSH2 0x1BA9 SWAP1 SWAP2 PUSH2 0x25D5 JUMP JUMPDEST SWAP1 PUSH2 0x1C77 JUMP JUMPDEST PUSH1 0x40 DUP1 MLOAD PUSH1 0x1 PUSH1 0x1 PUSH1 0xD0 SHL SUB SWAP4 DUP5 AND DUP2 MSTORE SWAP2 SWAP1 SWAP3 AND PUSH1 0x20 DUP3 ADD MSTORE LOG2 CODESIZE DUP1 DUP1 PUSH2 0x1B5B JUMP JUMPDEST PUSH1 0x1 PUSH1 0x1 PUSH1 0xA0 SHL SUB AND PUSH1 0x0 SWAP1 DUP2 MSTORE PUSH1 0x9 PUSH1 0x20 MSTORE PUSH1 0x40 SWAP1 KECCAK256 PUSH2 0x1BF2 DUP5 PUSH2 0x25D5 JUMP JUMPDEST PUSH2 0x1BFB NUMBER PUSH2 0x2608 JUMP JUMPDEST PUSH1 0x1 PUSH1 0x1 PUSH1 0xD0 SHL SUB SWAP2 DUP3 DUP1 PUSH2 0x1C0F DUP7 PUSH2 0x28EC JUMP JUMPDEST AND SWAP2 AND SWAP1 SUB SWAP3 DUP3 DUP5 GT PUSH2 0x8B5 JUMPI PUSH32 0xDEC2BACDD2F05B59DE34DA9B523DFF8BE42E5E38E818C82FDB0BAE774387A724 SWAP4 PUSH2 0x1C64 SWAP3 PUSH2 0x1C4B SWAP3 PUSH2 0x2AE8 JUMP JUMPDEST PUSH1 0x40 DUP1 MLOAD SWAP3 DUP6 AND DUP4 MSTORE SWAP4 AND PUSH1 0x20 DUP3 ADD MSTORE SWAP2 DUP3 SWAP2 SWAP1 DUP3 ADD SWAP1 JUMP JUMPDEST SUB SWAP1 LOG2 CODESIZE DUP1 PUSH2 0x1B53 JUMP JUMPDEST POP DUP4 ISZERO ISZERO PUSH2 0x1B41 JUMP JUMPDEST SWAP1 PUSH2 0x1C81 NUMBER PUSH2 0x2608 JUMP JUMPDEST PUSH1 0x1 PUSH1 0x1 PUSH1 0xD0 SHL SUB SWAP2 DUP3 DUP1 PUSH2 0x1C95 DUP7 PUSH2 0x28EC JUMP JUMPDEST AND SWAP2 AND ADD SWAP2 DUP3 GT PUSH2 0x8B5 JUMPI PUSH2 0x1CA9 SWAP3 PUSH2 0x2AE8 JUMP JUMPDEST SWAP1 SWAP2 JUMP JUMPDEST PUSH2 0x1CB6 NUMBER PUSH2 0x2608 JUMP JUMPDEST SWAP1 PUSH1 0x1 PUSH1 0x1 PUSH1 0xD0 SHL SUB SWAP1 DUP2 DUP1 PUSH2 0x1CCA PUSH2 0x28A2 JUMP JUMPDEST AND SWAP2 AND ADD SWAP1 DUP2 GT PUSH2 0x8B5 JUMPI PUSH2 0x1CA9 SWAP2 PUSH2 0x29FF JUMP JUMPDEST PUSH2 0x1CE7 NUMBER PUSH2 0x2608 JUMP JUMPDEST SWAP1 PUSH1 0x1 PUSH1 0x1 PUSH1 0xD0 SHL SUB SWAP1 DUP2 DUP1 PUSH2 0x1CFB PUSH2 0x28A2 JUMP JUMPDEST AND SWAP2 AND SWAP1 SUB SWAP1 DUP2 GT PUSH2 0x1D10 JUMPI PUSH2 0x1CA9 SWAP2 PUSH2 0x29FF JUMP JUMPDEST PUSH4 0x4E487B71 PUSH1 0xE0 SHL PUSH1 0x0 MSTORE PUSH1 0x11 PUSH1 0x4 MSTORE PUSH1 0x24 PUSH1 0x0 REVERT JUMPDEST SWAP1 PUSH1 0x1 DUP3 DUP2 SHR SWAP3 AND DUP1 ISZERO PUSH2 0x1D56 JUMPI JUMPDEST PUSH1 0x20 DUP4 LT EQ PUSH2 0x1D40 JUMPI JUMP JUMPDEST PUSH4 0x4E487B71 PUSH1 0xE0 SHL PUSH1 0x0 MSTORE PUSH1 0x22 PUSH1 0x4 MSTORE PUSH1 0x24 PUSH1 0x0 REVERT JUMPDEST SWAP2 PUSH1 0x7F AND SWAP2 PUSH2 0x1D35 JUMP JUMPDEST PUSH1 0x1 PUSH1 0x1 PUSH1 0xA0 SHL SUB DUP1 DUP3 AND SWAP5 SWAP4 SWAP3 SWAP2 SWAP1 DUP6 ISZERO PUSH2 0x1E59 JUMPI DUP3 AND DUP1 ISZERO PUSH2 0x1E40 JUMPI PUSH1 0x1 PUSH1 0x1 PUSH1 0xA0 SHL SUB DUP3 AND PUSH1 0x0 SWAP1 DUP2 MSTORE PUSH1 0x20 DUP2 SWAP1 MSTORE PUSH1 0x40 SWAP1 KECCAK256 SLOAD SWAP6 DUP5 DUP8 LT PUSH2 0x1E11 JUMPI DUP5 PUSH2 0x1AA4 SWAP7 SWAP8 SUB PUSH2 0x1DC2 DUP5 PUSH1 0x1 DUP1 PUSH1 0xA0 SHL SUB AND PUSH1 0x0 MSTORE PUSH1 0x0 PUSH1 0x20 MSTORE PUSH1 0x40 PUSH1 0x0 KECCAK256 SWAP1 JUMP JUMPDEST SSTORE PUSH1 0x1 PUSH1 0x1 PUSH1 0xA0 SHL SUB DUP5 AND PUSH1 0x0 SWAP1 DUP2 MSTORE PUSH1 0x20 DUP2 DUP2 MSTORE PUSH1 0x40 SWAP2 DUP3 SWAP1 KECCAK256 DUP1 SLOAD DUP9 ADD SWAP1 SSTORE SWAP1 MLOAD DUP7 DUP2 MSTORE PUSH32 0xDDF252AD1BE2C89B69C2B068FC378DAA952BA7F163C4A11628F55A4DF523B3EF SWAP2 SWAP1 LOG3 PUSH2 0x2D86 JUMP JUMPDEST PUSH1 0x40 MLOAD PUSH4 0x391434E3 PUSH1 0xE2 SHL DUP2 MSTORE PUSH1 0x1 PUSH1 0x1 PUSH1 0xA0 SHL SUB DUP5 AND PUSH1 0x4 DUP3 ADD MSTORE PUSH1 0x24 DUP2 ADD DUP9 SWAP1 MSTORE PUSH1 0x44 DUP2 ADD DUP7 SWAP1 MSTORE PUSH1 0x64 SWAP1 REVERT JUMPDEST PUSH1 0x40 MLOAD PUSH4 0xEC442F05 PUSH1 0xE0 SHL DUP2 MSTORE PUSH1 0x0 PUSH1 0x4 DUP3 ADD MSTORE PUSH1 0x24 SWAP1 REVERT JUMPDEST PUSH1 0x40 MLOAD PUSH4 0x4B637E8F PUSH1 0xE1 SHL DUP2 MSTORE PUSH1 0x0 PUSH1 0x4 DUP3 ADD MSTORE PUSH1 0x24 SWAP1 REVERT JUMPDEST PUSH1 0x1 PUSH1 0x1 PUSH1 0xA0 SHL SUB DUP1 DUP3 AND SWAP3 SWAP2 SWAP1 DUP4 ISZERO PUSH2 0x1F0D JUMPI DUP3 AND SWAP4 DUP5 ISZERO PUSH2 0x1EF4 JUMPI DUP1 PUSH2 0x1EEA PUSH32 0x8C5BE1E5EBEC7D5BD14F71427D1E84F3DD0314C0F7B2291E5B200AC8C7C3B925 SWAP5 PUSH2 0x1ED3 PUSH1 0x20 SWAP6 PUSH1 0x1 DUP1 PUSH1 0xA0 SHL SUB AND PUSH1 0x0 MSTORE PUSH1 0x1 PUSH1 0x20 MSTORE PUSH1 0x40 PUSH1 0x0 KECCAK256 SWAP1 JUMP JUMPDEST SWAP1 PUSH1 0x1 DUP1 PUSH1 0xA0 SHL SUB AND PUSH1 0x0 MSTORE PUSH1 0x20 MSTORE PUSH1 0x40 PUSH1 0x0 KECCAK256 SWAP1 JUMP JUMPDEST SSTORE PUSH1 0x40 MLOAD SWAP1 DUP2 MSTORE LOG3 JUMP JUMPDEST PUSH1 0x40 MLOAD PUSH4 0x4A1406B1 PUSH1 0xE1 SHL DUP2 MSTORE PUSH1 0x0 PUSH1 0x4 DUP3 ADD MSTORE PUSH1 0x24 SWAP1 REVERT JUMPDEST PUSH1 0x40 MLOAD PUSH4 0xE602DF05 PUSH1 0xE0 SHL DUP2 MSTORE PUSH1 0x0 PUSH1 0x4 DUP3 ADD MSTORE PUSH1 0x24 SWAP1 REVERT JUMPDEST PUSH1 0x1 PUSH1 0x1 PUSH1 0xA0 SHL SUB DUP2 DUP2 AND PUSH1 0x0 DUP2 DUP2 MSTORE PUSH1 0x1 PUSH1 0x20 DUP2 DUP2 MSTORE PUSH1 0x40 DUP1 DUP5 KECCAK256 DUP9 DUP8 AND DUP6 MSTORE SWAP1 SWAP2 MSTORE SWAP1 SWAP2 KECCAK256 SLOAD SWAP4 SWAP6 SWAP5 SWAP4 SWAP3 SWAP2 SWAP1 DUP4 ADD PUSH2 0x1F64 JUMPI JUMPDEST POP POP POP POP POP POP JUMP JUMPDEST DUP5 DUP4 LT PUSH2 0x1FA5 JUMPI ISZERO PUSH2 0x1F0D JUMPI DUP3 AND ISZERO PUSH2 0x1EF4 JUMPI PUSH2 0x1F99 SWAP3 PUSH2 0x1ED3 SWAP2 SUB SWAP4 PUSH1 0x1 DUP1 PUSH1 0xA0 SHL SUB AND PUSH1 0x0 MSTORE PUSH1 0x1 PUSH1 0x20 MSTORE PUSH1 0x40 PUSH1 0x0 KECCAK256 SWAP1 JUMP JUMPDEST SSTORE CODESIZE DUP1 DUP1 DUP1 DUP1 DUP1 PUSH2 0x1F5C JUMP JUMPDEST PUSH1 0x40 MLOAD PUSH4 0x7DC7A0D9 PUSH1 0xE1 SHL DUP2 MSTORE PUSH1 0x1 PUSH1 0x1 PUSH1 0xA0 SHL SUB DUP6 AND PUSH1 0x4 DUP3 ADD MSTORE PUSH1 0x24 DUP2 ADD DUP5 SWAP1 MSTORE PUSH1 0x44 DUP2 ADD DUP7 SWAP1 MSTORE PUSH1 0x64 SWAP1 REVERT JUMPDEST SWAP2 SWAP1 PUSH1 0x1 PUSH1 0x1 PUSH1 0xA0 SHL SUB DUP1 DUP5 AND DUP1 ISZERO PUSH2 0x1E59 JUMPI PUSH1 0x1 PUSH1 0x1 PUSH1 0xA0 SHL SUB DUP6 AND PUSH1 0x0 SWAP1 DUP2 MSTORE PUSH1 0x20 DUP2 SWAP1 MSTORE PUSH1 0x40 SWAP1 KECCAK256 SLOAD SWAP5 DUP4 DUP7 LT PUSH2 0x2096 JUMPI SWAP1 PUSH1 0x20 SWAP3 SWAP2 PUSH2 0x2030 DUP6 PUSH2 0x1AA4 SWAP8 SWAP9 SUB SWAP2 PUSH1 0x1 DUP1 PUSH1 0xA0 SHL SUB AND PUSH1 0x0 MSTORE PUSH1 0x0 PUSH1 0x20 MSTORE PUSH1 0x40 PUSH1 0x0 KECCAK256 SWAP1 JUMP JUMPDEST SSTORE DUP4 PUSH1 0x2 SLOAD SUB PUSH1 0x2 SSTORE PUSH1 0x40 MLOAD DUP5 DUP2 MSTORE DUP2 PUSH32 0xDDF252AD1BE2C89B69C2B068FC378DAA952BA7F163C4A11628F55A4DF523B3EF PUSH1 0x0 SWAP6 DUP7 SWAP4 LOG3 PUSH2 0x2078 PUSH2 0x2073 DUP6 PUSH2 0x25D5 JUMP JUMPDEST PUSH2 0x1CDE JUMP JUMPDEST POP POP DUP3 MSTORE PUSH1 0x8 PUSH1 0x20 MSTORE PUSH1 0x40 DUP2 DUP2 DUP5 KECCAK256 SLOAD AND SWAP3 DUP1 DUP1 MSTORE KECCAK256 SLOAD AND SWAP1 PUSH2 0x1B25 JUMP JUMPDEST PUSH1 0x40 MLOAD PUSH4 0x391434E3 PUSH1 0xE2 SHL DUP2 MSTORE PUSH1 0x1 PUSH1 0x1 PUSH1 0xA0 SHL SUB SWAP2 SWAP1 SWAP2 AND PUSH1 0x4 DUP3 ADD MSTORE PUSH1 0x24 DUP2 ADD DUP7 SWAP1 MSTORE PUSH1 0x44 DUP2 ADD DUP5 SWAP1 MSTORE PUSH1 0x64 SWAP1 REVERT JUMPDEST PUSH1 0x40 MLOAD SWAP1 PUSH2 0x20D4 DUP3 PUSH2 0x1A1C JUMP JUMPDEST PUSH1 0x0 PUSH1 0x20 DUP4 DUP3 DUP2 MSTORE ADD MSTORE JUMP JUMPDEST PUSH1 0x1 PUSH1 0x1 PUSH1 0xA0 SHL SUB DUP2 AND PUSH1 0x0 SWAP1 DUP2 MSTORE PUSH1 0x7 PUSH1 0x20 MSTORE PUSH1 0x40 SWAP1 KECCAK256 DUP1 SLOAD PUSH1 0x1 DUP2 ADD SWAP1 SWAP2 SSTORE SWAP1 SWAP2 DUP2 SWAP1 SUB PUSH2 0x210E JUMPI POP POP JUMP JUMPDEST PUSH1 0x40 MLOAD PUSH4 0x1D4B623 PUSH1 0xE6 SHL DUP2 MSTORE PUSH1 0x1 PUSH1 0x1 PUSH1 0xA0 SHL SUB SWAP1 SWAP3 AND PUSH1 0x4 DUP4 ADD MSTORE PUSH1 0x24 DUP3 ADD MSTORE PUSH1 0x44 SWAP2 POP REVERT JUMPDEST SWAP2 PUSH2 0x443 SWAP4 SWAP2 PUSH2 0x2145 SWAP4 PUSH2 0x214E JUMP JUMPDEST SWAP1 SWAP3 SWAP2 SWAP3 PUSH2 0x21FE JUMP JUMPDEST SWAP2 SWAP1 PUSH32 0x7FFFFFFFFFFFFFFFFFFFFFFFFFFFFFFF5D576E7357A4501DDFE92F46681B20A0 DUP5 GT PUSH2 0x21D2 JUMPI SWAP3 PUSH1 0x20 SWAP3 SWAP2 PUSH1 0xFF PUSH1 0x80 SWAP6 PUSH1 0x40 MLOAD SWAP5 DUP6 MSTORE AND DUP5 DUP5 ADD MSTORE PUSH1 0x40 DUP4 ADD MSTORE PUSH1 0x60 DUP3 ADD MSTORE PUSH1 0x0 SWAP3 DUP4 SWAP2 DUP3 DUP1 MSTORE PUSH1 0x1 GAS STATICCALL ISZERO PUSH2 0x21C6 JUMPI DUP1 MLOAD PUSH1 0x1 PUSH1 0x1 PUSH1 0xA0 SHL SUB DUP2 AND ISZERO PUSH2 0x21BD JUMPI SWAP2 DUP2 SWAP1 JUMP JUMPDEST POP DUP1 SWAP2 PUSH1 0x1 SWAP2 SWAP1 JUMP JUMPDEST PUSH1 0x40 MLOAD SWAP1 RETURNDATASIZE SWAP1 DUP3 RETURNDATACOPY RETURNDATASIZE SWAP1 REVERT JUMPDEST POP POP POP PUSH1 0x0 SWAP2 PUSH1 0x3 SWAP2 SWAP1 JUMP JUMPDEST PUSH1 0x4 GT ISZERO PUSH2 0x21E8 JUMPI JUMP JUMPDEST PUSH4 0x4E487B71 PUSH1 0xE0 SHL PUSH1 0x0 MSTORE PUSH1 0x21 PUSH1 0x4 MSTORE PUSH1 0x24 PUSH1 0x0 REVERT JUMPDEST PUSH2 0x2207 DUP2 PUSH2 0x21DE JUMP JUMPDEST DUP1 PUSH2 0x2210 JUMPI POP POP JUMP JUMPDEST PUSH2 0x2219 DUP2 PUSH2 0x21DE JUMP JUMPDEST PUSH1 0x1 DUP2 SUB PUSH2 0x2233 JUMPI PUSH1 0x40 MLOAD PUSH4 0xF645EEDF PUSH1 0xE0 SHL DUP2 MSTORE PUSH1 0x4 SWAP1 REVERT JUMPDEST PUSH2 0x223C DUP2 PUSH2 0x21DE JUMP JUMPDEST PUSH1 0x2 DUP2 SUB PUSH2 0x225D JUMPI PUSH1 0x40 MLOAD PUSH4 0xFCE698F7 PUSH1 0xE0 SHL DUP2 MSTORE PUSH1 0x4 DUP2 ADD DUP4 SWAP1 MSTORE PUSH1 0x24 SWAP1 REVERT JUMPDEST DUP1 PUSH2 0x2269 PUSH1 0x3 SWAP3 PUSH2 0x21DE JUMP JUMPDEST EQ PUSH2 0x2271 JUMPI POP JUMP JUMPDEST PUSH1 0x40 MLOAD PUSH4 0x35E2F383 PUSH1 0xE2 SHL DUP2 MSTORE PUSH1 0x4 DUP2 ADD SWAP2 SWAP1 SWAP2 MSTORE PUSH1 0x24 SWAP1 REVERT JUMPDEST ADDRESS PUSH32 0x0 PUSH1 0x1 PUSH1 0x1 PUSH1 0xA0 SHL SUB AND EQ DUP1 PUSH2 0x237C JUMPI JUMPDEST ISZERO PUSH2 0x22E6 JUMPI PUSH32 0x0 SWAP1 JUMP JUMPDEST PUSH1 0x40 MLOAD PUSH1 0x20 DUP2 ADD SWAP1 PUSH32 0x8B73C3C69BB8FE3D512ECC4CF759CC79239F7B179B0FFACAA9A75D522B39400F DUP3 MSTORE PUSH32 0x0 PUSH1 0x40 DUP3 ADD MSTORE PUSH32 0x0 PUSH1 0x60 DUP3 ADD MSTORE CHAINID PUSH1 0x80 DUP3 ADD MSTORE ADDRESS PUSH1 0xA0 DUP3 ADD MSTORE PUSH1 0xA0 DUP2 MSTORE PUSH2 0x2376 DUP2 PUSH2 0x1A59 JUMP JUMPDEST MLOAD SWAP1 KECCAK256 SWAP1 JUMP JUMPDEST POP PUSH32 0x0 CHAINID EQ PUSH2 0x22BD JUMP JUMPDEST PUSH1 0x42 SWAP1 PUSH2 0x23B0 PUSH2 0x228B JUMP JUMPDEST SWAP1 PUSH1 0x40 MLOAD SWAP2 PUSH2 0x1901 PUSH1 0xF0 SHL DUP4 MSTORE PUSH1 0x2 DUP4 ADD MSTORE PUSH1 0x22 DUP3 ADD MSTORE KECCAK256 SWAP1 JUMP JUMPDEST PUSH1 0x40 MLOAD SWAP1 PUSH2 0x160 DUP3 ADD DUP3 DUP2 LT PUSH8 0xFFFFFFFFFFFFFFFF DUP3 GT OR PUSH2 0x1A38 JUMPI PUSH1 0x40 MSTORE PUSH1 0xA DUP3 MSTORE PUSH2 0x140 CALLDATASIZE PUSH1 0x20 DUP5 ADD CALLDATACOPY JUMP JUMPDEST PUSH1 0x40 MLOAD PUSH1 0x20 DUP2 ADD DUP2 DUP2 LT PUSH8 0xFFFFFFFFFFFFFFFF DUP3 GT OR PUSH2 0x1A38 JUMPI PUSH1 0x40 MSTORE PUSH1 0x0 DUP2 MSTORE SWAP1 PUSH1 0x0 CALLDATASIZE DUP2 CALLDATACOPY JUMP JUMPDEST PUSH1 0xFF DUP2 EQ PUSH2 0x2460 JUMPI PUSH1 0xFF DUP2 AND SWAP1 PUSH1 0x1F DUP3 GT PUSH2 0x244E JUMPI PUSH1 0x40 MLOAD SWAP2 PUSH2 0x2444 DUP4 PUSH2 0x1A1C JUMP JUMPDEST DUP3 MSTORE PUSH1 0x20 DUP3 ADD MSTORE SWAP1 JUMP JUMPDEST PUSH1 0x40 MLOAD PUSH4 0x2CD44AC3 PUSH1 0xE2 SHL DUP2 MSTORE PUSH1 0x4 SWAP1 REVERT JUMPDEST POP PUSH1 0x40 MLOAD PUSH1 0x5 SLOAD DUP2 PUSH1 0x0 PUSH2 0x2473 DUP4 PUSH2 0x1D26 JUMP JUMPDEST DUP1 DUP4 MSTORE SWAP3 PUSH1 0x1 SWAP1 DUP2 DUP2 AND SWAP1 DUP2 ISZERO PUSH2 0x24F9 JUMPI POP PUSH1 0x1 EQ PUSH2 0x249A JUMPI JUMPDEST POP PUSH2 0x443 SWAP3 POP SUB DUP3 PUSH2 0x1A75 JUMP JUMPDEST PUSH1 0x5 PUSH1 0x0 SWAP1 DUP2 MSTORE SWAP2 POP PUSH32 0x36B6384B5ECA791C62761152D0C79BB0604C104A5FB6F4EB0703F3154BB3DB0 JUMPDEST DUP5 DUP4 LT PUSH2 0x24DE JUMPI POP PUSH2 0x443 SWAP4 POP POP DUP2 ADD PUSH1 0x20 ADD CODESIZE PUSH2 0x248D JUMP JUMPDEST DUP2 SWAP4 POP SWAP1 DUP2 PUSH1 0x20 SWAP3 SLOAD DUP4 DUP6 DUP10 ADD ADD MSTORE ADD SWAP2 ADD SWAP1 SWAP2 DUP5 SWAP3 PUSH2 0x24C5 JUMP JUMPDEST SWAP1 POP PUSH1 0x20 SWAP3 POP PUSH2 0x443 SWAP5 SWAP2 POP PUSH1 0xFF NOT AND DUP3 DUP5 ADD MSTORE ISZERO ISZERO PUSH1 0x5 SHL DUP3 ADD ADD CODESIZE PUSH2 0x248D JUMP JUMPDEST PUSH1 0xFF DUP2 EQ PUSH2 0x253D JUMPI PUSH1 0xFF DUP2 AND SWAP1 PUSH1 0x1F DUP3 GT PUSH2 0x244E JUMPI PUSH1 0x40 MLOAD SWAP2 PUSH2 0x2444 DUP4 PUSH2 0x1A1C JUMP JUMPDEST POP PUSH1 0x40 MLOAD PUSH1 0x6 SLOAD DUP2 PUSH1 0x0 PUSH2 0x2550 DUP4 PUSH2 0x1D26 JUMP JUMPDEST DUP1 DUP4 MSTORE SWAP3 PUSH1 0x1 SWAP1 DUP2 DUP2 AND SWAP1 DUP2 ISZERO PUSH2 0x24F9 JUMPI POP PUSH1 0x1 EQ PUSH2 0x2576 JUMPI POP PUSH2 0x443 SWAP3 POP SUB DUP3 PUSH2 0x1A75 JUMP JUMPDEST PUSH1 0x6 PUSH1 0x0 SWAP1 DUP2 MSTORE SWAP2 POP PUSH32 0xF652222313E28459528D920B65115C16C04F3EFC82AAEDC97BE59F3F377C0D3F JUMPDEST DUP5 DUP4 LT PUSH2 0x25BA JUMPI POP PUSH2 0x443 SWAP4 POP POP DUP2 ADD PUSH1 0x20 ADD CODESIZE PUSH2 0x248D JUMP JUMPDEST DUP2 SWAP4 POP SWAP1 DUP2 PUSH1 0x20 SWAP3 SLOAD DUP4 DUP6 DUP10 ADD ADD MSTORE ADD SWAP2 ADD SWAP1 SWAP2 DUP5 SWAP3 PUSH2 0x25A1 JUMP JUMPDEST PUSH1 0x1 PUSH1 0x1 PUSH1 0xD0 SHL SUB SWAP1 DUP2 DUP2 GT PUSH2 0x25E9 JUMPI AND SWAP1 JUMP JUMPDEST PUSH1 0x44 SWAP1 PUSH1 0x40 MLOAD SWAP1 PUSH4 0x6DFCC65 PUSH1 0xE4 SHL DUP3 MSTORE PUSH1 0xD0 PUSH1 0x4 DUP4 ADD MSTORE PUSH1 0x24 DUP3 ADD MSTORE REVERT JUMPDEST PUSH6 0xFFFFFFFFFFFF SWAP1 DUP2 DUP2 GT PUSH2 0x261B JUMPI AND SWAP1 JUMP JUMPDEST PUSH1 0x44 SWAP1 PUSH1 0x40 MLOAD SWAP1 PUSH4 0x6DFCC65 PUSH1 0xE4 SHL DUP3 MSTORE PUSH1 0x30 PUSH1 0x4 DUP4 ADD MSTORE PUSH1 0x24 DUP3 ADD MSTORE REVERT JUMPDEST PUSH1 0x0 NOT DUP2 ADD SWAP2 SWAP1 DUP3 GT PUSH2 0x8B5 JUMPI JUMP JUMPDEST SWAP1 PUSH4 0x1E13380 DUP3 ADD DUP1 SWAP3 GT PUSH2 0x8B5 JUMPI JUMP JUMPDEST SWAP1 PUSH1 0x1 DUP3 ADD DUP1 SWAP3 GT PUSH2 0x8B5 JUMPI JUMP JUMPDEST SWAP2 SWAP1 DUP3 ADD DUP1 SWAP3 GT PUSH2 0x8B5 JUMPI JUMP JUMPDEST SWAP1 DUP2 SLOAD PUSH1 0x0 DUP2 PUSH1 0x5 DUP2 GT PUSH2 0x270C JUMPI JUMPDEST POP SWAP2 SWAP1 SWAP2 JUMPDEST DUP3 DUP2 LT PUSH2 0x26BC JUMPI POP POP PUSH1 0x0 DUP2 ISZERO PUSH1 0x0 EQ PUSH2 0x26A5 JUMPI POP POP POP PUSH1 0x0 SWAP1 JUMP JUMPDEST PUSH2 0x26B0 PUSH1 0x20 SWAP3 PUSH2 0x263A JUMP JUMPDEST SWAP3 DUP2 MSTORE KECCAK256 ADD SLOAD PUSH1 0x30 SHR SWAP1 JUMP JUMPDEST SWAP1 SWAP2 DUP1 DUP3 AND SWAP1 DUP1 DUP4 XOR PUSH1 0x1 SHR DUP3 ADD DUP1 SWAP3 GT PUSH2 0x8B5 JUMPI DUP5 PUSH1 0x0 MSTORE PUSH6 0xFFFFFFFFFFFF DUP1 DUP4 PUSH1 0x20 PUSH1 0x0 KECCAK256 ADD SLOAD AND SWAP1 DUP6 AND LT PUSH1 0x0 EQ PUSH2 0x26FA JUMPI POP SWAP2 JUMPDEST SWAP1 PUSH2 0x2689 JUMP JUMPDEST SWAP3 SWAP2 POP PUSH2 0x2706 SWAP1 PUSH2 0x265A JUMP JUMPDEST SWAP1 PUSH2 0x26F4 JUMP JUMPDEST SWAP1 SWAP2 PUSH2 0x2717 DUP3 PUSH2 0x2777 JUMP JUMPDEST DUP3 SUB SWAP2 DUP3 GT PUSH2 0x8B5 JUMPI DUP5 DUP4 MSTORE PUSH6 0xFFFFFFFFFFFF DUP1 DUP4 PUSH1 0x20 DUP7 KECCAK256 ADD SLOAD AND SWAP1 DUP6 AND LT PUSH1 0x0 EQ PUSH2 0x2747 JUMPI POP SWAP1 JUMPDEST CODESIZE PUSH2 0x2684 JUMP JUMPDEST SWAP2 POP PUSH2 0x2752 SWAP1 PUSH2 0x265A JUMP JUMPDEST PUSH2 0x2741 JUMP JUMPDEST DUP2 ISZERO PUSH2 0x2761 JUMPI DIV SWAP1 JUMP JUMPDEST PUSH4 0x4E487B71 PUSH1 0xE0 SHL PUSH1 0x0 MSTORE PUSH1 0x12 PUSH1 0x4 MSTORE PUSH1 0x24 PUSH1 0x0 REVERT JUMPDEST PUSH1 0x1 DUP2 GT ISZERO PUSH2 0x443 JUMPI PUSH1 0x1 DUP2 PUSH1 0x1 PUSH1 0x80 SHL DUP2 LT ISZERO PUSH2 0x2890 JUMPI JUMPDEST PUSH2 0x2838 PUSH2 0x282E PUSH2 0x2824 PUSH2 0x281A PUSH2 0x2810 PUSH2 0x2806 PUSH2 0x2844 SWAP8 PUSH1 0x4 DUP9 PUSH1 0x1 PUSH1 0x40 SHL PUSH2 0x283F SWAP11 LT ISZERO PUSH2 0x2883 JUMPI JUMPDEST PUSH5 0x100000000 DUP2 LT ISZERO PUSH2 0x2876 JUMPI JUMPDEST PUSH3 0x10000 DUP2 LT ISZERO PUSH2 0x2869 JUMPI JUMPDEST PUSH2 0x100 DUP2 LT ISZERO PUSH2 0x285D JUMPI JUMPDEST PUSH1 0x10 DUP2 LT ISZERO PUSH2 0x2851 JUMPI JUMPDEST LT ISZERO PUSH2 0x2849 JUMPI JUMPDEST PUSH1 0x3 MUL PUSH1 0x1 SHR PUSH2 0x27FF DUP2 DUP12 PUSH2 0x2757 JUMP JUMPDEST ADD PUSH1 0x1 SHR SWAP1 JUMP JUMPDEST PUSH2 0x27FF DUP2 DUP11 PUSH2 0x2757 JUMP JUMPDEST PUSH2 0x27FF DUP2 DUP10 PUSH2 0x2757 JUMP JUMPDEST PUSH2 0x27FF DUP2 DUP9 PUSH2 0x2757 JUMP JUMPDEST PUSH2 0x27FF DUP2 DUP8 PUSH2 0x2757 JUMP JUMPDEST PUSH2 0x27FF DUP2 DUP7 PUSH2 0x2757 JUMP JUMPDEST DUP1 SWAP4 PUSH2 0x2757 JUMP JUMPDEST DUP3 GT SWAP1 JUMP JUMPDEST SWAP1 SUB SWAP1 JUMP JUMPDEST PUSH1 0x1 SHL PUSH2 0x27EF JUMP JUMPDEST DUP2 SHR SWAP2 PUSH1 0x2 SHL SWAP2 PUSH2 0x27E8 JUMP JUMPDEST PUSH1 0x8 SHR SWAP2 DUP2 SHL SWAP2 PUSH2 0x27DE JUMP JUMPDEST PUSH1 0x10 SHR SWAP2 PUSH1 0x8 SHL SWAP2 PUSH2 0x27D3 JUMP JUMPDEST PUSH1 0x20 SHR SWAP2 PUSH1 0x10 SHL SWAP2 PUSH2 0x27C7 JUMP JUMPDEST PUSH1 0x40 SHR SWAP2 PUSH1 0x20 SHL SWAP2 PUSH2 0x27B9 JUMP JUMPDEST POP PUSH1 0x1 PUSH1 0x40 SHL SWAP1 POP PUSH1 0x80 DUP3 SWAP1 SHR PUSH2 0x2790 JUMP JUMPDEST PUSH1 0xA SLOAD PUSH1 0x0 SWAP1 DUP1 PUSH2 0x28B4 JUMPI POP POP PUSH1 0x0 SWAP1 JUMP JUMPDEST DUP1 PUSH1 0x0 NOT DUP2 ADD GT PUSH2 0x8B5 JUMPI PUSH1 0xA PUSH32 0xC65A7BB8D6351C1CF70C95A316CC6A92839C986682D98BC35F958F4883F9D2A7 SWAP3 MSTORE ADD SLOAD PUSH1 0x30 SHR SWAP1 JUMP JUMPDEST DUP1 SLOAD PUSH1 0x0 SWAP2 DUP2 PUSH2 0x28FE JUMPI POP POP POP PUSH1 0x0 SWAP1 JUMP JUMPDEST PUSH1 0x0 NOT SWAP3 DUP3 DUP5 DUP2 ADD GT PUSH2 0x8B5 JUMPI PUSH1 0x20 SWAP2 DUP2 MSTORE KECCAK256 ADD ADD SLOAD PUSH1 0x30 SHR SWAP1 JUMP JUMPDEST PUSH4 0x4E487B71 PUSH1 0xE0 SHL PUSH1 0x0 MSTORE PUSH1 0x32 PUSH1 0x4 MSTORE PUSH1 0x24 PUSH1 0x0 REVERT JUMPDEST DUP1 SLOAD DUP3 LT ISZERO PUSH2 0xA82 JUMPI PUSH1 0x0 MSTORE PUSH1 0x20 PUSH1 0x0 KECCAK256 ADD SWAP1 PUSH1 0x0 SWAP1 JUMP JUMPDEST PUSH1 0xA SLOAD SWAP1 PUSH1 0x1 PUSH1 0x40 SHL DUP3 LT ISZERO PUSH2 0x1A38 JUMPI PUSH1 0x1 DUP3 ADD DUP1 PUSH1 0xA SSTORE DUP3 LT ISZERO PUSH2 0xA82 JUMPI PUSH1 0xA PUSH1 0x0 MSTORE DUP1 MLOAD PUSH1 0x20 SWAP1 SWAP2 ADD MLOAD PUSH1 0x30 SHL PUSH6 0xFFFFFFFFFFFF NOT AND PUSH6 0xFFFFFFFFFFFF SWAP2 SWAP1 SWAP2 AND OR PUSH1 0x0 DUP1 MLOAD PUSH1 0x20 PUSH2 0x2DF2 DUP4 CODECOPY DUP2 MLOAD SWAP2 MSTORE SWAP1 SWAP2 ADD SSTORE JUMP JUMPDEST DUP1 SLOAD PUSH1 0x1 PUSH1 0x40 SHL DUP2 LT ISZERO PUSH2 0x1A38 JUMPI PUSH2 0x29BE SWAP2 PUSH1 0x1 DUP3 ADD DUP2 SSTORE PUSH2 0x2930 JUMP JUMPDEST PUSH2 0x29E9 JUMPI DUP2 MLOAD PUSH1 0x20 SWAP1 SWAP3 ADD MLOAD PUSH1 0x30 SHL PUSH6 0xFFFFFFFFFFFF NOT AND PUSH6 0xFFFFFFFFFFFF SWAP3 SWAP1 SWAP3 AND SWAP2 SWAP1 SWAP2 OR SWAP1 SSTORE JUMP JUMPDEST PUSH4 0x4E487B71 PUSH1 0xE0 SHL PUSH1 0x0 MSTORE PUSH1 0x0 PUSH1 0x4 MSTORE PUSH1 0x24 PUSH1 0x0 REVERT JUMPDEST PUSH1 0xA SLOAD SWAP2 SWAP3 SWAP2 DUP1 ISZERO PUSH2 0x2ABE JUMPI PUSH2 0x2A17 PUSH2 0x2A2F SWAP2 PUSH2 0x263A JUMP JUMPDEST PUSH1 0xA PUSH1 0x0 MSTORE PUSH1 0x0 DUP1 MLOAD PUSH1 0x20 PUSH2 0x2DF2 DUP4 CODECOPY DUP2 MLOAD SWAP2 MSTORE ADD SWAP1 JUMP JUMPDEST SWAP1 DUP2 SLOAD SWAP2 PUSH6 0xFFFFFFFFFFFF SWAP1 DUP2 DUP5 AND SWAP2 DUP4 AND DUP1 DUP4 GT PUSH2 0x2AAC JUMPI DUP7 SWAP3 SUB PUSH2 0x2A74 JUMPI PUSH2 0x2A6D SWAP3 POP SWAP1 PUSH6 0xFFFFFFFFFFFF DUP3 SLOAD SWAP2 DUP2 NOT SWAP1 PUSH1 0x30 SHL AND SWAP2 AND OR SWAP1 SSTORE JUMP JUMPDEST PUSH1 0x30 SHR SWAP2 SWAP1 JUMP JUMPDEST POP POP PUSH2 0x2AA7 SWAP1 PUSH2 0x2A93 PUSH2 0x2A85 PUSH2 0x1A97 JUMP JUMPDEST PUSH6 0xFFFFFFFFFFFF SWAP1 SWAP3 AND DUP3 MSTORE JUMP JUMPDEST PUSH1 0x1 PUSH1 0x1 PUSH1 0xD0 SHL SUB DUP6 AND PUSH1 0x20 DUP3 ADD MSTORE PUSH2 0x2948 JUMP JUMPDEST PUSH2 0x2A6D JUMP JUMPDEST PUSH1 0x40 MLOAD PUSH4 0x2520601D PUSH1 0xE0 SHL DUP2 MSTORE PUSH1 0x4 SWAP1 REVERT JUMPDEST POP PUSH2 0x2AE2 SWAP1 PUSH2 0x2ACE PUSH2 0x2A85 PUSH2 0x1A97 JUMP JUMPDEST PUSH1 0x1 PUSH1 0x1 PUSH1 0xD0 SHL SUB DUP5 AND PUSH1 0x20 DUP3 ADD MSTORE PUSH2 0x2948 JUMP JUMPDEST PUSH1 0x0 SWAP2 SWAP1 JUMP JUMPDEST DUP1 SLOAD SWAP3 SWAP4 SWAP3 DUP1 ISZERO PUSH2 0x2B7F JUMPI PUSH2 0x2AFF PUSH2 0x2B0C SWAP2 PUSH2 0x263A JUMP JUMPDEST DUP3 PUSH1 0x0 MSTORE PUSH1 0x20 PUSH1 0x0 KECCAK256 ADD SWAP1 JUMP JUMPDEST SWAP2 DUP3 SLOAD SWAP3 PUSH6 0xFFFFFFFFFFFF SWAP2 DUP3 DUP6 AND SWAP3 DUP2 AND DUP1 DUP5 GT PUSH2 0x2AAC JUMPI DUP8 SWAP4 SUB PUSH2 0x2B4B JUMPI POP PUSH2 0x2A6D SWAP3 POP SWAP1 PUSH6 0xFFFFFFFFFFFF DUP3 SLOAD SWAP2 DUP2 NOT SWAP1 PUSH1 0x30 SHL AND SWAP2 AND OR SWAP1 SSTORE JUMP JUMPDEST SWAP2 POP POP PUSH2 0x2AA7 SWAP2 PUSH2 0x2B6B PUSH2 0x2B5D PUSH2 0x1A97 JUMP JUMPDEST PUSH6 0xFFFFFFFFFFFF SWAP1 SWAP4 AND DUP4 MSTORE JUMP JUMPDEST PUSH1 0x1 PUSH1 0x1 PUSH1 0xD0 SHL SUB DUP7 AND PUSH1 0x20 DUP4 ADD MSTORE PUSH2 0x29A1 JUMP JUMPDEST POP SWAP1 PUSH2 0x2AE2 SWAP2 PUSH2 0x2B90 PUSH2 0x2B5D PUSH2 0x1A97 JUMP JUMPDEST PUSH1 0x1 PUSH1 0x1 PUSH1 0xD0 SHL SUB DUP6 AND PUSH1 0x20 DUP4 ADD MSTORE PUSH2 0x29A1 JUMP JUMPDEST SWAP1 JUMPDEST DUP3 DUP2 LT PUSH2 0x2BB2 JUMPI POP POP SWAP1 JUMP JUMPDEST SWAP1 SWAP2 DUP1 DUP3 AND SWAP1 DUP1 DUP4 XOR PUSH1 0x1 SHR DUP3 ADD DUP1 SWAP3 GT PUSH2 0x8B5 JUMPI PUSH1 0xA PUSH1 0x0 MSTORE PUSH6 0xFFFFFFFFFFFF DUP1 DUP4 PUSH1 0x0 DUP1 MLOAD PUSH1 0x20 PUSH2 0x2DF2 DUP4 CODECOPY DUP2 MLOAD SWAP2 MSTORE ADD SLOAD AND SWAP1 DUP6 AND LT PUSH1 0x0 EQ PUSH2 0x2BFB JUMPI POP SWAP2 JUMPDEST SWAP1 PUSH2 0x2BA6 JUMP JUMPDEST SWAP3 SWAP2 POP PUSH2 0x2C07 SWAP1 PUSH2 0x265A JUMP JUMPDEST SWAP1 PUSH2 0x2BF5 JUMP JUMPDEST ISZERO PUSH2 0x2C14 JUMPI JUMP JUMPDEST PUSH1 0x40 MLOAD PUSH3 0x461BCD PUSH1 0xE5 SHL DUP2 MSTORE PUSH1 0x20 PUSH1 0x4 DUP3 ADD MSTORE PUSH1 0x16 PUSH1 0x24 DUP3 ADD MSTORE PUSH22 0x125B999B185D1A5BDB8818D85C08195E18D959591959 PUSH1 0x52 SHL PUSH1 0x44 DUP3 ADD MSTORE PUSH1 0x64 SWAP1 REVERT JUMPDEST SWAP2 SWAP1 PUSH1 0x1 PUSH1 0x1 PUSH1 0xA0 SHL SUB DUP4 AND DUP1 ISZERO PUSH2 0x1E40 JUMPI PUSH1 0x2 SLOAD DUP3 DUP2 ADD DUP1 SWAP2 GT PUSH2 0x8B5 JUMPI PUSH1 0x2 SSTORE PUSH1 0x1 PUSH1 0x1 PUSH1 0xA0 SHL SUB DUP5 AND PUSH1 0x0 SWAP1 DUP2 MSTORE PUSH1 0x20 DUP2 DUP2 MSTORE PUSH1 0x40 DUP1 DUP4 KECCAK256 DUP1 SLOAD DUP7 ADD SWAP1 SSTORE MLOAD DUP5 DUP2 MSTORE PUSH32 0xDDF252AD1BE2C89B69C2B068FC378DAA952BA7F163C4A11628F55A4DF523B3EF SWAP2 SWAP1 LOG3 PUSH1 0x2 SLOAD SWAP3 PUSH1 0x1 PUSH1 0x1 PUSH1 0xD0 SHL SUB DUP5 GT PUSH2 0x2CD8 JUMPI PUSH2 0x1AA4 SWAP3 SWAP4 POP PUSH2 0x2D0D JUMP JUMPDEST PUSH1 0x40 MLOAD PUSH4 0xE58AE93 PUSH1 0xE1 SHL DUP2 MSTORE PUSH1 0x4 DUP2 ADD DUP6 SWAP1 MSTORE PUSH1 0x1 PUSH1 0x1 PUSH1 0xD0 SHL SUB PUSH1 0x24 DUP3 ADD MSTORE PUSH1 0x44 SWAP1 REVERT JUMPDEST PUSH1 0x0 NOT DUP2 EQ PUSH2 0x8B5 JUMPI PUSH1 0x1 ADD SWAP1 JUMP JUMPDEST SWAP1 PUSH2 0x1AA4 SWAP2 PUSH2 0x2D23 PUSH2 0x2D1E DUP4 PUSH2 0x25D5 JUMP JUMPDEST PUSH2 0x1CAD JUMP JUMPDEST POP POP PUSH1 0x1 PUSH1 0x1 PUSH1 0xA0 SHL SUB SWAP1 DUP2 AND SWAP1 DUP2 ISZERO PUSH2 0x2D73 JUMPI JUMPDEST PUSH1 0x8 PUSH1 0x20 MSTORE PUSH32 0x5EFF886EA0CE6CA488A3D6E336D6C0F75F46D19B42C06CE5EE98E42C96D256C7 SLOAD PUSH1 0x0 SWAP3 DUP4 MSTORE PUSH1 0x40 SWAP1 SWAP3 KECCAK256 SLOAD DUP2 AND SWAP2 AND PUSH2 0x1B25 JUMP JUMPDEST PUSH2 0x2D7F PUSH2 0x2073 DUP5 PUSH2 0x25D5 JUMP JUMPDEST POP POP PUSH2 0x2D38 JUMP JUMPDEST PUSH2 0x1AA4 SWAP3 SWAP2 PUSH1 0x1 PUSH1 0x1 PUSH1 0xA0 SHL SUB SWAP2 DUP3 AND SWAP2 SWAP1 DUP2 SWAP1 DUP4 ISZERO PUSH2 0x2DDE JUMPI JUMPDEST AND SWAP2 DUP3 ISZERO PUSH2 0x2DCB JUMPI JUMPDEST PUSH1 0x0 MSTORE PUSH1 0x8 PUSH1 0x20 MSTORE DUP1 PUSH1 0x40 PUSH1 0x0 KECCAK256 SLOAD AND SWAP2 PUSH1 0x0 MSTORE PUSH1 0x40 PUSH1 0x0 KECCAK256 SLOAD AND SWAP1 PUSH2 0x1B25 JUMP JUMPDEST PUSH2 0x2DD7 PUSH2 0x2073 DUP6 PUSH2 0x25D5 JUMP JUMPDEST POP POP PUSH2 0x2DAA JUMP JUMPDEST PUSH2 0x2DEA PUSH2 0x2D1E DUP7 PUSH2 0x25D5 JUMP JUMPDEST POP POP PUSH2 0x2DA1 JUMP INVALID 0xC6 GAS PUSH28 0xB8D6351C1CF70C95A316CC6A92839C986682D98BC35F958F4883F9D2 0xA8 LOG2 PUSH5 0x6970667358 0x22 SLT KECCAK256 MULMOD SWAP6 0xDB LOG0 0xB0 0x5E 0xDE SWAP11 0xD0 0xC5 EXP 0xE DUP6 PUSH16 0x46B26A94CA97DA9A71E0753981FB9852 0xF6 PUSH17 0x64736F6C634300081400332F8788117E7E SELFDESTRUCT SAR DUP3 0xE9 0x26 0xEC PUSH26 0x4901D17C78024A50270940304540A733656F0D00000000000000 "},"methodIdentifiers":{"CLOCK_MODE()":"4bf5d7e9","DEFAULT_ADMIN_ROLE()":"a217fddf","DOMAIN_SEPARATOR()":"3644e515","GOVERNANCE_ROLE()":"f36c8f5c","MINTER_ROLE()":"d5391393","allowance(address,address)":"dd62ed3e","approve(address,uint256)":"095ea7b3","balanceOf(address)":"70a08231","burn(uint256)":"42966c68","burnFrom(address,uint256)":"79cc6790","buybackBurnPercentage()":"69ee19af","checkpoints(address,uint32)":"f1127ed8","clock()":"91ddadf4","decimals()":"313ce567","delegate(address)":"5c19a95c","delegateBySig(address,uint256,uint256,uint8,bytes32,bytes32)":"c3cda520","delegates(address)":"587cde1e","eip712Domain()":"84b0196e","getDiscountForStakedAmount(uint256)":"503c2a80","getDiscountTiers()":"5158cd09","getPastTotalSupply(uint256)":"8e539e8c","getPastVotes(address,uint256)":"3a46b1a8","getRoleAdmin(bytes32)":"248a9ca3","getVotes(address)":"9ab24eb0","grantRole(bytes32,address)":"2f2ff15d","hasRole(bytes32,address)":"91d14854","insuranceFund()":"b7902303","insuranceFundPercentage()":"0967a771","lastInflationUpdate()":"6b4e8bb0","maxLeverage()":"ae3302c2","maxSupply()":"d5abeb01","mint(address,uint256)":"40c10f19","name()":"06fdde03","nonces(address)":"7ecebe00","numCheckpoints(address)":"6fcfff45","permit(address,address,uint256,uint256,uint8,bytes32,bytes32)":"d505accf","renounceRole(bytes32,address)":"36568abe","revokeRole(bytes32,address)":"d547741f","setDiscountTier(uint256,uint256)":"d80a619f","setInsuranceFund(address)":"c3c05293","setMaxLeverage(uint256)":"d3127e63","setRewardDistribution(uint256,uint256,uint256,uint256)":"abec147a","setTradingFeeBase(uint256)":"882693b1","setTreasury(address)":"f0f44260","stakingDiscountTiers(uint256)":"66c8e57c","stakingRewardPercentage()":"c1542352","supportsInterface(bytes4)":"01ffc9a7","symbol()":"95d89b41","totalSupply()":"18160ddd","tradingFeeBase()":"7a1370b5","transfer(address,uint256)":"a9059cbb","transferFrom(address,address,uint256)":"23b872dd","treasury()":"61d027b3","treasuryPercentage()":"7ab56083","yearlyInflationCap()":"dc8faff4","yearlyMinted()":"6ebefe7e"}}}}}