{"contracts/OMNStaking.sol":{"OMNStaking":{"abi":[{"inputs":[{"internalType":"address","name":"_omnToken","type":"address"},{"internalType":"address","name":"admin","type":"address"}],"stateMutability":"nonpayable","type":"constructor"},{"inputs":[],"name":"AccessControlBadConfirmation","type":"error"},{"inputs":[{"internalType":"address","name":"account","type":"address"},{"internalType":"bytes32","name":"neededRole","type":"bytes32"}],"name":"AccessControlUnauthorizedAccount","type":"error"},{"inputs":[],"name":"ReentrancyGuardReentrantCall","type":"error"},{"inputs":[{"internalType":"address","name":"token","type":"address"}],"name":"SafeERC20FailedOperation","type":"error"},{"anonymous":false,"inputs":[{"indexed":false,"internalType":"uint256","name":"penalty","type":"uint256"}],"name":"EarlyWithdrawalPenaltyUpdated","type":"event"},{"anonymous":false,"inputs":[{"indexed":true,"internalType":"address","name":"user","type":"address"},{"indexed":false,"internalType":"uint256","name":"amount","type":"uint256"}],"name":"RewardsClaimed","type":"event"},{"anonymous":false,"inputs":[{"indexed":false,"internalType":"uint256","name":"amount","type":"uint256"}],"name":"RewardsDistributed","type":"event"},{"anonymous":false,"inputs":[{"indexed":true,"internalType":"bytes32","name":"role","type":"bytes32"},{"indexed":true,"internalType":"bytes32","name":"previousAdminRole","type":"bytes32"},{"indexed":true,"internalType":"bytes32","name":"newAdminRole","type":"bytes32"}],"name":"RoleAdminChanged","type":"event"},{"anonymous":false,"inputs":[{"indexed":true,"internalType":"bytes32","name":"role","type":"bytes32"},{"indexed":true,"internalType":"address","name":"account","type":"address"},{"indexed":true,"internalType":"address","name":"sender","type":"address"}],"name":"RoleGranted","type":"event"},{"anonymous":false,"inputs":[{"indexed":true,"internalType":"bytes32","name":"role","type":"bytes32"},{"indexed":true,"internalType":"address","name":"account","type":"address"},{"indexed":true,"internalType":"address","name":"sender","type":"address"}],"name":"RoleRevoked","type":"event"},{"anonymous":false,"inputs":[{"indexed":true,"internalType":"address","name":"user","type":"address"},{"indexed":false,"internalType":"uint256","name":"amount","type":"uint256"},{"indexed":false,"internalType":"uint256","name":"lockDuration","type":"uint256"},{"indexed":false,"internalType":"uint256","name":"endTime","type":"uint256"}],"name":"Staked","type":"event"},{"anonymous":false,"inputs":[{"indexed":false,"internalType":"uint256","name":"lockDuration","type":"uint256"},{"indexed":false,"internalType":"uint256","name":"rewardMultiplier","type":"uint256"}],"name":"StakingTierAdded","type":"event"},{"anonymous":false,"inputs":[{"indexed":false,"internalType":"uint256","name":"lockDuration","type":"uint256"},{"indexed":false,"internalType":"uint256","name":"rewardMultiplier","type":"uint256"}],"name":"StakingTierUpdated","type":"event"},{"anonymous":false,"inputs":[{"indexed":true,"internalType":"address","name":"user","type":"address"},{"indexed":false,"internalType":"uint256","name":"amount","type":"uint256"},{"indexed":false,"internalType":"bool","name":"penalized","type":"bool"}],"name":"Unstaked","type":"event"},{"inputs":[],"name":"DEFAULT_ADMIN_ROLE","outputs":[{"internalType":"bytes32","name":"","type":"bytes32"}],"stateMutability":"view","type":"function"},{"inputs":[],"name":"FEE_DISTRIBUTOR_ROLE","outputs":[{"internalType":"bytes32","name":"","type":"bytes32"}],"stateMutability":"view","type":"function"},{"inputs":[],"name":"accumulatedRewardsPerToken","outputs":[{"internalType":"uint256","name":"","type":"uint256"}],"stateMutability":"view","type":"function"},{"inputs":[{"internalType":"uint256","name":"lockDuration","type":"uint256"},{"internalType":"uint256","name":"rewardMultiplier","type":"uint256"}],"name":"addStakingTier","outputs":[],"stateMutability":"nonpayable","type":"function"},{"inputs":[{"internalType":"address","name":"user","type":"address"}],"name":"calculatePendingRewards","outputs":[{"internalType":"uint256","name":"","type":"uint256"}],"stateMutability":"view","type":"function"},{"inputs":[],"name":"claimRewards","outputs":[],"stateMutability":"nonpayable","type":"function"},{"inputs":[],"name":"distributeRewards","outputs":[],"stateMutability":"payable","type":"function"},{"inputs":[],"name":"earlyWithdrawalPenalty","outputs":[{"internalType":"uint256","name":"","type":"uint256"}],"stateMutability":"view","type":"function"},{"inputs":[{"internalType":"address","name":"user","type":"address"}],"name":"getFeeDiscount","outputs":[{"internalType":"uint256","name":"","type":"uint256"}],"stateMutability":"view","type":"function"},{"inputs":[],"name":"getLockDurations","outputs":[{"internalType":"uint256[]","name":"","type":"uint256[]"}],"stateMutability":"view","type":"function"},{"inputs":[{"internalType":"bytes32","name":"role","type":"bytes32"}],"name":"getRoleAdmin","outputs":[{"internalType":"bytes32","name":"","type":"bytes32"}],"stateMutability":"view","type":"function"},{"inputs":[{"internalType":"bytes32","name":"role","type":"bytes32"},{"internalType":"uint256","name":"index","type":"uint256"}],"name":"getRoleMember","outputs":[{"internalType":"address","name":"","type":"address"}],"stateMutability":"view","type":"function"},{"inputs":[{"internalType":"bytes32","name":"role","type":"bytes32"}],"name":"getRoleMemberCount","outputs":[{"internalType":"uint256","name":"","type":"uint256"}],"stateMutability":"view","type":"function"},{"inputs":[{"internalType":"bytes32","name":"role","type":"bytes32"}],"name":"getRoleMembers","outputs":[{"internalType":"address[]","name":"","type":"address[]"}],"stateMutability":"view","type":"function"},{"inputs":[{"internalType":"address","name":"user","type":"address"}],"name":"getStakesByUser","outputs":[{"internalType":"uint256[]","name":"amounts","type":"uint256[]"},{"internalType":"uint256[]","name":"userLockDurations","type":"uint256[]"},{"internalType":"uint256[]","name":"startTimes","type":"uint256[]"},{"internalType":"uint256[]","name":"endTimes","type":"uint256[]"},{"internalType":"uint256[]","name":"multipliers","type":"uint256[]"}],"stateMutability":"view","type":"function"},{"inputs":[{"internalType":"uint256","name":"lockDuration","type":"uint256"}],"name":"getStakingTier","outputs":[{"internalType":"uint256","name":"duration","type":"uint256"},{"internalType":"uint256","name":"multiplier","type":"uint256"}],"stateMutability":"view","type":"function"},{"inputs":[{"internalType":"address","name":"user","type":"address"}],"name":"getTotalStakedByUser","outputs":[{"internalType":"uint256","name":"","type":"uint256"}],"stateMutability":"view","type":"function"},{"inputs":[{"internalType":"bytes32","name":"role","type":"bytes32"},{"internalType":"address","name":"account","type":"address"}],"name":"grantRole","outputs":[],"stateMutability":"nonpayable","type":"function"},{"inputs":[{"internalType":"bytes32","name":"role","type":"bytes32"},{"internalType":"address","name":"account","type":"address"}],"name":"hasRole","outputs":[{"internalType":"bool","name":"","type":"bool"}],"stateMutability":"view","type":"function"},{"inputs":[{"internalType":"uint256","name":"","type":"uint256"}],"name":"lockDurations","outputs":[{"internalType":"uint256","name":"","type":"uint256"}],"stateMutability":"view","type":"function"},{"inputs":[],"name":"omnToken","outputs":[{"internalType":"contract IERC20","name":"","type":"address"}],"stateMutability":"view","type":"function"},{"inputs":[{"internalType":"address","name":"","type":"address"}],"name":"pendingRewards","outputs":[{"internalType":"uint256","name":"","type":"uint256"}],"stateMutability":"view","type":"function"},{"inputs":[{"internalType":"bytes32","name":"role","type":"bytes32"},{"internalType":"address","name":"callerConfirmation","type":"address"}],"name":"renounceRole","outputs":[],"stateMutability":"nonpayable","type":"function"},{"inputs":[{"internalType":"bytes32","name":"role","type":"bytes32"},{"internalType":"address","name":"account","type":"address"}],"name":"revokeRole","outputs":[],"stateMutability":"nonpayable","type":"function"},{"inputs":[{"internalType":"uint256","name":"amount","type":"uint256"},{"internalType":"uint256","name":"lockDurationIndex","type":"uint256"}],"name":"stake","outputs":[],"stateMutability":"nonpayable","type":"function"},{"inputs":[{"internalType":"uint256","name":"","type":"uint256"}],"name":"stakingTiers","outputs":[{"internalType":"uint256","name":"lockDuration","type":"uint256"},{"internalType":"uint256","name":"rewardMultiplier","type":"uint256"}],"stateMutability":"view","type":"function"},{"inputs":[{"internalType":"bytes4","name":"interfaceId","type":"bytes4"}],"name":"supportsInterface","outputs":[{"internalType":"bool","name":"","type":"bool"}],"stateMutability":"view","type":"function"},{"inputs":[],"name":"totalRewardsDistributed","outputs":[{"internalType":"uint256","name":"","type":"uint256"}],"stateMutability":"view","type":"function"},{"inputs":[],"name":"totalStaked","outputs":[{"internalType":"uint256","name":"","type":"uint256"}],"stateMutability":"view","type":"function"},{"inputs":[{"internalType":"uint256","name":"stakeIndex","type":"uint256"}],"name":"unstake","outputs":[],"stateMutability":"nonpayable","type":"function"},{"inputs":[{"internalType":"uint256","name":"penalty","type":"uint256"}],"name":"updateEarlyWithdrawalPenalty","outputs":[],"stateMutability":"nonpayable","type":"function"},{"inputs":[{"internalType":"uint256","name":"lockDuration","type":"uint256"},{"internalType":"uint256","name":"rewardMultiplier","type":"uint256"}],"name":"updateStakingTier","outputs":[],"stateMutability":"nonpayable","type":"function"},{"inputs":[{"internalType":"address","name":"","type":"address"}],"name":"userRewardDebts","outputs":[{"internalType":"uint256","name":"","type":"uint256"}],"stateMutability":"view","type":"function"},{"inputs":[{"internalType":"address","name":"","type":"address"},{"internalType":"uint256","name":"","type":"uint256"}],"name":"userStakes","outputs":[{"internalType":"uint256","name":"amount","type":"uint256"},{"internalType":"uint256","name":"lockDuration","type":"uint256"},{"internalType":"uint256","name":"startTime","type":"uint256"},{"internalType":"uint256","name":"endTime","type":"uint256"},{"internalType":"uint256","name":"lastRewardClaimTime","type":"uint256"},{"internalType":"bool","name":"unlocked","type":"bool"}],"stateMutability":"view","type":"function"},{"stateMutability":"payable","type":"receive"}],"evm":{"bytecode":{"linkReferences":{},"object":"60803462000437576200243f601f38829003908101601f19168301906001600160401b038211848310176200043c578084916040948594855283398101031262000437576200004e8262000472565b916200005e602080920162000472565b600160008181556103e8600c55600380546001600160a01b0319166001600160a01b039788161781559195909392620000978162000487565b62000416575b50508280526004808352858585200154620003dd57620000bc62000452565b938085528385019487606496878152838052848752888420925183555191015560058054976801000000000000000092838a1015620003ca57620001068a838b9c01855562000519565b9590805460001980988a1b1b19169055895182815289898201527f092f3e4d0effe56ce357fb92c46768da5f27170b419cf71b53cc40f36f28fe279a8b91a162278d00808352818952838c8420015462000392576200016462000452565b818152848d8b83019060698252848752858d52862092518355519101558454868110156200037f578b916200019f828f938801895562000519565b8154908c1b908b84831b921b1916179055815190815260698b820152a16276a700808352818952838c842001546200039257620001db62000452565b818152848d8b83019060738252848752858d52862092518355519101558454868110156200037f578b9162000216828f938801895562000519565b8154908c1b908b84831b921b1916179055815190815260738b820152a162ed4e00808352818952838c8420015462000392576200025262000452565b818152848d8b83019060828252848752858d52862092518355519101558454868110156200037f578b916200028d828f938801895562000519565b8154908c1b908b84831b921b1916179055815190815260828b820152a16301e1338098898352818952838c84200154620003485750620002cc62000452565b89815283898201609681528b8552838b528d85209251835551910155835494851015620003355750508289979694926200030d926096979501905562000519565b81939154911b9186831b921b19161790558351928352820152a151611e669081620005d98239f35b634e487b7160e01b825260419052602490fd5b8b5162461bcd60e51b815291820189905260136024830152725469657220616c72656164792065786973747360681b604483015290fd5b634e487b7160e01b845260418352602484fd5b8b5162461bcd60e51b81528083018a905260136024820152725469657220616c72656164792065786973747360681b60448201528a90fd5b634e487b7160e01b815260418552602490fd5b845162461bcd60e51b815290810183905260136024820152725469657220616c72656164792065786973747360681b6044820152606490fd5b6200042e91858052600285528686209116906200054b565b5038806200009d565b600080fd5b634e487b7160e01b600052604160045260246000fd5b60408051919082016001600160401b038111838210176200043c57604052565b51906001600160a01b03821682036200043757565b6001600160a01b031660008181527fa6eef7e35abe7026729641147f7915573c7e97b47efa546f5f6e3230263bcb49602052604081205490919060ff16620005155781805260016020526040822081835260205260408220600160ff1982541617905533917f2f8788117e7eff1d82e926ec794901d17c78024a50270940304540a733656f0d8180a4600190565b5090565b6005548110156200053557600560005260206000200190600090565b634e487b7160e01b600052603260045260246000fd5b91906001830160009082825280602052604082205415600014620005d25784549468010000000000000000861015620005be5760018601808255861015620005aa57836040949596828552602085200155549382526020522055600190565b634e487b7160e01b83526032600452602483fd5b634e487b7160e01b83526041600452602483fd5b5092505056fe608060408181526004918236101561002b575b505050361561002057600080fd5b61002934611b37565b005b600092833560e01c91826301ffc9a7146111f0575081630951984d146111cf578163097aad10146111a25781630cdac96314611167578163111a98021461104d57816317589d2b14611024578163248a9ca314610ffa578163291a3d9e14610fdb5781632e17de7814610dbc5781632f2ff15d14610d5057816331d7a26214610d1857816332298be114610cdf57816336568abe14610c99578163372500ab14610c705781633896218614610c5157816368a34f9814610ba25781636f4a2cd014610aed57816376520c6d14610abc5781637b0472f01461081c578163817b1cd2146107fd5781638686b39a146107c55781639010d07c1461078457816391d148541461073d578163a217fddf14610722578163a3246ad31461067a578163b3c6cd7614610634578163b5d5b5fa146105a9578163b7fa7cfc14610506578163c0d8fd3f1461030a578163ca15c873146102e2578163d1e85a7414610246578163d50267ee14610215578163d547741f146101d2575063ee172546146101b15780610012565b346101ce57816003193601126101ce576020906008549051908152f35b5080fd5b9190503461021157806003193601126102115761020d913561020860016101f7611278565b9383875281602052862001546113b1565b611457565b5080f35b8280fd5b9050346102115760203660031901126102115791828293358252602052206001815491015482519182526020820152f35b9190503461021157602036600319011261021157813591610265611359565b610bb883116102a05750816020917f653931a1f8b4e31039939d617fe0c066dc997f98127fd699e126a13766fa64d493600c5551908152a180f35b6020606492519162461bcd60e51b8352820152601960248201527f50656e616c74792063616e6e6f742065786365656420333025000000000000006044820152fd5b9050346102115760203660031901126102115760209282913581526002845220549051908152f35b91905034610211576020806003193601126105025761032761125d565b84926001600160a01b0390911690835b8287526006845281872080548210156103855760056103588360ff9361133d565b5001541615610370575b61036b9061181d565b610337565b9361037d61036b9161181d565b949050610362565b50509091938561039485611d7d565b9061039e86611d7d565b936103a887611d7d565b916103bb6103b589611d7d565b98611d7d565b948196825b8984526006808d528585208054831015610496578d918c60ff8f936103e78760059261133d565b5001541615610403575b505050506103fe9061181d565b6103c0565b92858d9361046e879f60608f8f8f8f8f9a9161043d6103fe9f61048a9f9083858f9761046598610437958e9952522061133d565b506119b1565b9461044a83875192611daf565b528a85019961045b838c5192611daf565b5284015192611daf565b52015192611daf565b525188525260018787200154610484828c611daf565b5261181d565b9890508b8b8e8c6103f1565b6104c8898f8f6104f08e916104e28d8f6104d56104fe976104b5611dc3565b84519b8c9b60a08d5260a08d0190611309565b918b8303908c0152611309565b9188830390890152611309565b908582036060870152611309565b908382036080850152611309565b0390f35b8380fd5b8383346101ce5760209283600319360112610211578361052c61052761125d565b611cda565b600354845162a0785560e71b815293840191909152829060249082906001600160a01b03165afa92831561059e578093610569575b505051908152f35b909192508382813d8311610597575b61058281836116d8565b81010312610594575051908380610561565b80fd5b503d610578565b8251903d90823e3d90fd5b919050346102115780600319360112610211576105c461125d565b6001600160a01b03168352600660205280832080546024359490851015610594575060c0936105f29161133d565b5080549260018201549260028301549060ff600560038601549486015495015416948151968752602087015285015260608401526080830152151560a0820152f35b9050346102115760203660031901126102115791828293358252602052206020825161065f8161168a565b60018354938483520154918291015282519182526020820152f35b9050823461059457602091826003193601126101ce5792919235815260028352818120908251808584549182815201908194845286842090845b81811061070e57505050816106ca9103826116d8565b83519485948186019282875251809352850193925b8281106106ee57505050500390f35b83516001600160a01b0316855286955093810193928101926001016106df565b8254845292880192600192830192016106b4565b5050346101ce57816003193601126101ce5751908152602090f35b9050346102115781600319360112610211578160209360ff9261075e611278565b90358252600186528282206001600160a01b039091168252855220549151911615158152f35b9050346102115781600319360112610211576020926107af91358152600284528260243591206112f1565b905491519160018060a01b039160031b1c168152f35b5050346101ce5760203660031901126101ce5760209181906001600160a01b036107ed61125d565b168152600a845220549051908152f35b5050346101ce57816003193601126101ce576020906007549051908152f35b9050346102115761082c3661128e565b6108379391936117fa565b8315610a8857600554811015610a4557610850906112a4565b90549060031b1c80855260208381526001838720015415610a0b57610874336118ae565b60035483516323b872dd60e01b8382015233602482015230604482015260648082018890528152906001600160a01b031660a0820167ffffffffffffffff8111838210176109f85785526108c89190611792565b6108d28242611752565b9333875260068252838720908451906108ea826116bc565b8782528382018581528683014281526060840190898252608085019242845260a08601968d8852805490600160401b8210156109e557906109309160018201815561133d565b9690966109d3579060059695949392915186555160018601555160028501555160038401555190820155019051151560ff8019835416911617905561097785600754611752565b600755670de0b6b3a764000061098f6009548761175f565b04338752600a82528387205582519485528401528201527fb4caaf29adda3eefee3ad552a8e85058589bf834c7466cae4ee58787f70589ed60603392a26001815580f35b634e487b7160e01b8e528d865260248efd5b634e487b7160e01b8f526041875260248ffd5b634e487b7160e01b895260418752602489fd5b8360649184519162461bcd60e51b8352820152601560248201527424b73b30b634b2103637b1b590323ab930ba34b7b760591b6044820152fd5b815162461bcd60e51b8152602081850152601b60248201527f496e76616c6964206c6f636b206475726174696f6e20696e64657800000000006044820152606490fd5b815162461bcd60e51b8152602081850152600e60248201526d043616e6e6f74207374616b6520360941b6044820152606490fd5b5050346101ce57816003193601126101ce576104fe90610ada611dc3565b9051918291602083526020830190611309565b91905082600319360112610211577f59c7a9ef9a56707d87d116a5d27496afee2604c70b902ac2c4dbdcb68f36f2ea808452600160205281842033855260205260ff828520541615610b8657503415610b4d5782610b4a34611b37565b80f35b906020606492519162461bcd60e51b83528201526013602482015272043616e6e6f742064697374726962757465203606c1b6044820152fd5b60449291519163e2517d3f60e01b835233908301526024820152fd5b8383346101ce57610bb23661128e565b610bba611359565b610bc760648210156116fa565b818452846020526001838520015415610c19578394827f8d0fe207ea42d27eee4d8edb2e4d91a2b2a3f055c41ec36e19d6e007428a54689552602052806001848720015582519182526020820152a180f35b825162461bcd60e51b81526020818701526012602482015271151a595c88191bd95cdb89dd08195e1a5cdd60721b6044820152606490fd5b5050346101ce57816003193601126101ce576020906009549051908152f35b8334610594578060031936011261059457610c896117fa565b610c92336118ae565b6001815580f35b8383346101ce57806003193601126101ce57610cb3611278565b90336001600160a01b03831603610cd0575061020d919235611457565b5163334bd91960e11b81528390fd5b9050346102115760203660031901126102115735916005548310156105945750610d0a6020926112a4565b91905490519160031b1c8152f35b5050346101ce5760203660031901126101ce5760209181906001600160a01b03610d4061125d565b168152600b845220549051908152f35b9050346102115781600319360112610211573590610d6c611278565b908284526001602052610d84600182862001546113b1565b610d8e82846113d7565b610d96578380f35b9183526002602052908220610db4916001600160a01b031690611509565b503880808380f35b8383346101ce5760209081600319360112610211578335610ddb6117fa565b3384526006835281842054811015610fa257610e00903385526006845282852061133d565b50916005830160ff815416610f66578354938591610e1d336118ae565b60038201544210610f14575b610e66670de0b6b3a764000092610e6f92600160ff19825416179055610e528154600754611577565b600755610e5e33611cda565b905490611577565b6009549061175f565b04338652600a83528386205560018060a01b036003541683519063a9059cbb60e01b84830152336024830152856044830152604482526080820182811067ffffffffffffffff821117610f015785527f4416ca74b4c9dd8d6070d91c267a6cf53734c0f343ced0ad02471ccb5417037e94939291610eec91611792565b82519485521515908401523392a26001815580f35b634e487b7160e01b885260418952602488fd5b949150610e6f610e66670de0b6b3a764000092610f41612710610f39600c548861175f565b048096611577565b97610f5c600196610f5481600754611577565b600755611b37565b9250925050610e29565b825162461bcd60e51b8152808701839052601660248201527514dd185ad948185b1c9958591e481d5b9b1bd8dad95960521b6044820152606490fd5b815162461bcd60e51b81528086018490526013602482015272092dcecc2d8d2c840e6e8c2d6ca40d2dcc8caf606b1b6044820152606490fd5b5050346101ce57816003193601126101ce57602090600c549051908152f35b90503461021157602036600319011261021157816020936001923581528285522001549051908152f35b5050346101ce57816003193601126101ce5760035490516001600160a01b039091168152602090f35b8383346101ce5761105d3661128e565b611065611359565b61107260648210156116fa565b818452846020526001838520015461112e57825161108f8161168a565b828152600160208201838152848752876020528587209251835551910155600554600160401b81101561111b577f092f3e4d0effe56ce357fb92c46768da5f27170b419cf71b53cc40f36f28fe2794955061110b6110f48260018694016005556112a4565b819391549060031b91821b91600019901b19161790565b905582519182526020820152a180f35b634e487b7160e01b855260418652602485fd5b825162461bcd60e51b815260208187015260136024820152725469657220616c72656164792065786973747360681b6044820152606490fd5b5050346101ce57816003193601126101ce57602090517f59c7a9ef9a56707d87d116a5d27496afee2604c70b902ac2c4dbdcb68f36f2ea8152f35b5050346101ce5760203660031901126101ce576020906111c86111c361125d565b6119fc565b9051908152f35b5050346101ce5760203660031901126101ce576020906111c861052761125d565b849134610211576020366003190112610211573563ffffffff60e01b81168091036102115760209250635a05180f60e01b8114908115611232575b5015158152f35b637965db0b60e01b81149150811561124c575b508361122b565b6301ffc9a760e01b14905083611245565b600435906001600160a01b038216820361127357565b600080fd5b602435906001600160a01b038216820361127357565b6040906003190112611273576004359060243590565b6005548110156112db5760056000527f036b6384b5eca791c62761152d0c79bb0604c104a5fb6f4eb0703f3154bb3db00190600090565b634e487b7160e01b600052603260045260246000fd5b80548210156112db5760005260206000200190600090565b90815180825260208080930193019160005b828110611329575050505090565b83518552938101939281019260010161131b565b80548210156112db576000526006602060002091020190600090565b3360009081527fa6eef7e35abe7026729641147f7915573c7e97b47efa546f5f6e3230263bcb49602052604081205460ff16156113935750565b6044906040519063e2517d3f60e01b82523360048301526024820152fd5b80600052600160205260406000203360005260205260ff60406000205416156113935750565b906000918083526001602052604083209160018060a01b03169182845260205260ff604084205416156000146114525780835260016020526040832082845260205260408320600160ff198254161790557f2f8788117e7eff1d82e926ec794901d17c78024a50270940304540a733656f0d339380a4600190565b505090565b6114618282611492565b918261146c57505090565b60009182526002602052604090912061148e916001600160a01b03169061159a565b5090565b906000918083526001602052604083209160018060a01b03169182845260205260ff604084205416600014611452578083526001602052604083208284526020526040832060ff1981541690557ff6391f5c32d9c69d2a47ea670b442974b53935d1edc7fd64eb21e047a839171b339380a4600190565b9190600183016000908282528060205260408220541560001461157157845494600160401b86101561155d578361154d6110f4886001604098999a018555846112f1565b9055549382526020522055600190565b634e487b7160e01b83526041600452602483fd5b50925050565b9190820391821161158457565b634e487b7160e01b600052601160045260246000fd5b90600182019060009281845282602052604084205490811515600014611683576000199180830181811161166f5782549084820191821161165b57818103611626575b50505080548015611612578201916115f583836112f1565b909182549160031b1b191690555582526020526040812055600190565b634e487b7160e01b86526031600452602486fd5b6116466116366110f493866112f1565b90549060031b1c928392866112f1565b905586528460205260408620553880806115dd565b634e487b7160e01b88526011600452602488fd5b634e487b7160e01b87526011600452602487fd5b5050505090565b6040810190811067ffffffffffffffff8211176116a657604052565b634e487b7160e01b600052604160045260246000fd5b60c0810190811067ffffffffffffffff8211176116a657604052565b90601f8019910116810190811067ffffffffffffffff8211176116a657604052565b1561170157565b60405162461bcd60e51b8152602060048201526024808201527f4d756c7469706c696572206d757374206265206174206c6561737420313030206044820152632831782960e01b6064820152608490fd5b9190820180921161158457565b8181029291811591840414171561158457565b811561177c570490565b634e487b7160e01b600052601260045260246000fd5b906000602091828151910182855af1156117ee576000513d6117e557506001600160a01b0381163b155b6117c35750565b604051635274afe760e01b81526001600160a01b039091166004820152602490fd5b600114156117bc565b6040513d6000823e3d90fd5b60026000541461180b576002600055565b604051633ee5aeb560e01b8152600490fd5b60001981146115845760010190565b3d15611867573d9067ffffffffffffffff82116116a6576040519161185b601f8201601f1916602001846116d8565b82523d6000602084013e565b606090565b1561187357565b60405162461bcd60e51b8152602060048201526013602482015272115512081d1c985b9cd9995c8819985a5b1959606a1b6044820152606490fd5b6118b781611cda565b156119ae576118c5816119fc565b806118ce575050565b909160005b6001600160a01b038416600081815260066020818152604092839020805486101561194957918594939160ff600561190f886119239a9761133d565b5001541615611928575b505050505061181d565b6118d3565b611938946000525260002061133d565b506004429101553881818080611919565b505050505050919060207ffc30cddea38e2bf4d6ea7d3f9ed3b6ad7f176419f4963bd81318067a4aee73fe916119a560008080808560018060a01b038a16998a8352600b89528260408120555af161199f61182c565b5061186c565b604051908152a2565b50565b906040516119be816116bc565b60a060ff6005839580548552600181015460208601526002810154604086015260038101546060860152600481015460808601520154161515910152565b611a0581611cda565b15611b31579081611a18611a2d93611cda565b670de0b6b3a76400009384916009549061175f565b0460018060a01b03821693600090858252602090600a8252611a556040948585205490611577565b90611a608496611cda565b9182611a7f575b505050600b90611a7c95968352522054611752565b90565b909197845b818652600685528686208054821015611b1c5761043782611aa49261133d565b60a081015115611abe575b50611ab99061181d565b611a84565b80989198518581029080820487149015171561165b57916064611b0e611b1593898f611af7611af18c92611ab99a611772565b8b61175f565b049101518b5260048a5260018c8c2001549061175f565b0490611752565b9790611aaf565b50909850839250611a7c9150600b9050611a67565b50600090565b60075415611baf57670de0b6b3a7640000808202908282041482151715611584577f6d1c76d614228b523baa4dcd9539e2c713b54ff4ab3ff2d1627e7f6cd32be44291611b94611b8c60209360075490611772565b600954611752565b600955611ba381600854611752565b600855604051908152a1565b6000805b6101008110611c38575b5015611bfe576000805260026020526040600020908154156112db57600080808093611bfc95825260018060a01b036020832054165af161199f61182c565b565b60405162461bcd60e51b81526020600482015260126024820152714e6f2061646d696e20617661696c61626c6560701b6044820152606490fd5b604051632404341f60e21b8152600060048201526024810182905260208082604481305afa9160009183611c9d575b50509015600014611c785750611bbd565b6001600160a01b0316611c9357611c8e9061181d565b611bb3565b5050600138611bbd565b81813d8311611cd3575b611cb181836116d8565b810103126101ce5751906001600160a01b038216820361059457503880611c67565b503d611ca7565b6000805b60018060a01b0383168060005260066020818152604092836000208054861015611d5a576005611d108760ff9361133d565b5001541615611d2c575b50505050611d279061181d565b611cde565b93611d5093819693611d4893611d27976000525260002061133d565b505490611752565b9190388080611d1a565b505050505050905090565b67ffffffffffffffff81116116a65760051b60200190565b90611d8782611d65565b611d9460405191826116d8565b8281528092611da5601f1991611d65565b0190602036910137565b80518210156112db5760209160051b010190565b60405190600554808352826020918282019060056000527f036b6384b5eca791c62761152d0c79bb0604c104a5fb6f4eb0703f3154bb3db0936000905b828210611e1657505050611bfc925003836116d8565b855484526001958601958895509381019390910190611e0056fea26469706673582212205de7cbfe987ca968942951ac21d1d5cb41b4365daa403b21e67379ddd239affa64736f6c63430008140033","opcodes":"PUSH1 0x80 CALLVALUE PUSH3 0x437 JUMPI PUSH3 0x243F PUSH1 0x1F CODESIZE DUP3 SWAP1 SUB SWAP1 DUP2 ADD PUSH1 0x1F NOT AND DUP4 ADD SWAP1 PUSH1 0x1 PUSH1 0x1 PUSH1 0x40 SHL SUB DUP3 GT DUP5 DUP4 LT OR PUSH3 0x43C JUMPI DUP1 DUP5 SWAP2 PUSH1 0x40 SWAP5 DUP6 SWAP5 DUP6 MSTORE DUP4 CODECOPY DUP2 ADD SUB SLT PUSH3 0x437 JUMPI PUSH3 0x4E DUP3 PUSH3 0x472 JUMP JUMPDEST SWAP2 PUSH3 0x5E PUSH1 0x20 DUP1 SWAP3 ADD PUSH3 0x472 JUMP JUMPDEST PUSH1 0x1 PUSH1 0x0 DUP2 DUP2 SSTORE PUSH2 0x3E8 PUSH1 0xC SSTORE PUSH1 0x3 DUP1 SLOAD PUSH1 0x1 PUSH1 0x1 PUSH1 0xA0 SHL SUB NOT AND PUSH1 0x1 PUSH1 0x1 PUSH1 0xA0 SHL SUB SWAP8 DUP9 AND OR DUP2 SSTORE SWAP2 SWAP6 SWAP1 SWAP4 SWAP3 PUSH3 0x97 DUP2 PUSH3 0x487 JUMP JUMPDEST PUSH3 0x416 JUMPI JUMPDEST POP POP DUP3 DUP1 MSTORE PUSH1 0x4 DUP1 DUP4 MSTORE DUP6 DUP6 DUP6 KECCAK256 ADD SLOAD PUSH3 0x3DD JUMPI PUSH3 0xBC PUSH3 0x452 JUMP JUMPDEST SWAP4 DUP1 DUP6 MSTORE DUP4 DUP6 ADD SWAP5 DUP8 PUSH1 0x64 SWAP7 DUP8 DUP2 MSTORE DUP4 DUP1 MSTORE DUP5 DUP8 MSTORE DUP9 DUP5 KECCAK256 SWAP3 MLOAD DUP4 SSTORE MLOAD SWAP2 ADD SSTORE PUSH1 0x5 DUP1 SLOAD SWAP8 PUSH9 0x10000000000000000 SWAP3 DUP4 DUP11 LT ISZERO PUSH3 0x3CA JUMPI PUSH3 0x106 DUP11 DUP4 DUP12 SWAP13 ADD DUP6 SSTORE PUSH3 0x519 JUMP JUMPDEST SWAP6 SWAP1 DUP1 SLOAD PUSH1 0x0 NOT DUP1 SWAP9 DUP11 SHL SHL NOT AND SWAP1 SSTORE DUP10 MLOAD DUP3 DUP2 MSTORE DUP10 DUP10 DUP3 ADD MSTORE PUSH32 0x92F3E4D0EFFE56CE357FB92C46768DA5F27170B419CF71B53CC40F36F28FE27 SWAP11 DUP12 SWAP2 LOG1 PUSH3 0x278D00 DUP1 DUP4 MSTORE DUP2 DUP10 MSTORE DUP4 DUP13 DUP5 KECCAK256 ADD SLOAD PUSH3 0x392 JUMPI PUSH3 0x164 PUSH3 0x452 JUMP JUMPDEST DUP2 DUP2 MSTORE DUP5 DUP14 DUP12 DUP4 ADD SWAP1 PUSH1 0x69 DUP3 MSTORE DUP5 DUP8 MSTORE DUP6 DUP14 MSTORE DUP7 KECCAK256 SWAP3 MLOAD DUP4 SSTORE MLOAD SWAP2 ADD SSTORE DUP5 SLOAD DUP7 DUP2 LT ISZERO PUSH3 0x37F JUMPI DUP12 SWAP2 PUSH3 0x19F DUP3 DUP16 SWAP4 DUP9 ADD DUP10 SSTORE PUSH3 0x519 JUMP JUMPDEST DUP2 SLOAD SWAP1 DUP13 SHL SWAP1 DUP12 DUP5 DUP4 SHL SWAP3 SHL NOT AND OR SWAP1 SSTORE DUP2 MLOAD SWAP1 DUP2 MSTORE PUSH1 0x69 DUP12 DUP3 ADD MSTORE LOG1 PUSH3 0x76A700 DUP1 DUP4 MSTORE DUP2 DUP10 MSTORE DUP4 DUP13 DUP5 KECCAK256 ADD SLOAD PUSH3 0x392 JUMPI PUSH3 0x1DB PUSH3 0x452 JUMP JUMPDEST DUP2 DUP2 MSTORE DUP5 DUP14 DUP12 DUP4 ADD SWAP1 PUSH1 0x73 DUP3 MSTORE DUP5 DUP8 MSTORE DUP6 DUP14 MSTORE DUP7 KECCAK256 SWAP3 MLOAD DUP4 SSTORE MLOAD SWAP2 ADD SSTORE DUP5 SLOAD DUP7 DUP2 LT ISZERO PUSH3 0x37F JUMPI DUP12 SWAP2 PUSH3 0x216 DUP3 DUP16 SWAP4 DUP9 ADD DUP10 SSTORE PUSH3 0x519 JUMP JUMPDEST DUP2 SLOAD SWAP1 DUP13 SHL SWAP1 DUP12 DUP5 DUP4 SHL SWAP3 SHL NOT AND OR SWAP1 SSTORE DUP2 MLOAD SWAP1 DUP2 MSTORE PUSH1 0x73 DUP12 DUP3 ADD MSTORE LOG1 PUSH3 0xED4E00 DUP1 DUP4 MSTORE DUP2 DUP10 MSTORE DUP4 DUP13 DUP5 KECCAK256 ADD SLOAD PUSH3 0x392 JUMPI PUSH3 0x252 PUSH3 0x452 JUMP JUMPDEST DUP2 DUP2 MSTORE DUP5 DUP14 DUP12 DUP4 ADD SWAP1 PUSH1 0x82 DUP3 MSTORE DUP5 DUP8 MSTORE DUP6 DUP14 MSTORE DUP7 KECCAK256 SWAP3 MLOAD DUP4 SSTORE MLOAD SWAP2 ADD SSTORE DUP5 SLOAD DUP7 DUP2 LT ISZERO PUSH3 0x37F JUMPI DUP12 SWAP2 PUSH3 0x28D DUP3 DUP16 SWAP4 DUP9 ADD DUP10 SSTORE PUSH3 0x519 JUMP JUMPDEST DUP2 SLOAD SWAP1 DUP13 SHL SWAP1 DUP12 DUP5 DUP4 SHL SWAP3 SHL NOT AND OR SWAP1 SSTORE DUP2 MLOAD SWAP1 DUP2 MSTORE PUSH1 0x82 DUP12 DUP3 ADD MSTORE LOG1 PUSH4 0x1E13380 SWAP9 DUP10 DUP4 MSTORE DUP2 DUP10 MSTORE DUP4 DUP13 DUP5 KECCAK256 ADD SLOAD PUSH3 0x348 JUMPI POP PUSH3 0x2CC PUSH3 0x452 JUMP JUMPDEST DUP10 DUP2 MSTORE DUP4 DUP10 DUP3 ADD PUSH1 0x96 DUP2 MSTORE DUP12 DUP6 MSTORE DUP4 DUP12 MSTORE DUP14 DUP6 KECCAK256 SWAP3 MLOAD DUP4 SSTORE MLOAD SWAP2 ADD SSTORE DUP4 SLOAD SWAP5 DUP6 LT ISZERO PUSH3 0x335 JUMPI POP POP DUP3 DUP10 SWAP8 SWAP7 SWAP5 SWAP3 PUSH3 0x30D SWAP3 PUSH1 0x96 SWAP8 SWAP6 ADD SWAP1 SSTORE PUSH3 0x519 JUMP JUMPDEST DUP2 SWAP4 SWAP2 SLOAD SWAP2 SHL SWAP2 DUP7 DUP4 SHL SWAP3 SHL NOT AND OR SWAP1 SSTORE DUP4 MLOAD SWAP3 DUP4 MSTORE DUP3 ADD MSTORE LOG1 MLOAD PUSH2 0x1E66 SWAP1 DUP2 PUSH3 0x5D9 DUP3 CODECOPY RETURN JUMPDEST PUSH4 0x4E487B71 PUSH1 0xE0 SHL DUP3 MSTORE PUSH1 0x41 SWAP1 MSTORE PUSH1 0x24 SWAP1 REVERT JUMPDEST DUP12 MLOAD PUSH3 0x461BCD PUSH1 0xE5 SHL DUP2 MSTORE SWAP2 DUP3 ADD DUP10 SWAP1 MSTORE PUSH1 0x13 PUSH1 0x24 DUP4 ADD MSTORE PUSH19 0x5469657220616C726561647920657869737473 PUSH1 0x68 SHL PUSH1 0x44 DUP4 ADD MSTORE SWAP1 REVERT JUMPDEST PUSH4 0x4E487B71 PUSH1 0xE0 SHL DUP5 MSTORE PUSH1 0x41 DUP4 MSTORE PUSH1 0x24 DUP5 REVERT JUMPDEST DUP12 MLOAD PUSH3 0x461BCD PUSH1 0xE5 SHL DUP2 MSTORE DUP1 DUP4 ADD DUP11 SWAP1 MSTORE PUSH1 0x13 PUSH1 0x24 DUP3 ADD MSTORE PUSH19 0x5469657220616C726561647920657869737473 PUSH1 0x68 SHL PUSH1 0x44 DUP3 ADD MSTORE DUP11 SWAP1 REVERT JUMPDEST PUSH4 0x4E487B71 PUSH1 0xE0 SHL DUP2 MSTORE PUSH1 0x41 DUP6 MSTORE PUSH1 0x24 SWAP1 REVERT JUMPDEST DUP5 MLOAD PUSH3 0x461BCD PUSH1 0xE5 SHL DUP2 MSTORE SWAP1 DUP2 ADD DUP4 SWAP1 MSTORE PUSH1 0x13 PUSH1 0x24 DUP3 ADD MSTORE PUSH19 0x5469657220616C726561647920657869737473 PUSH1 0x68 SHL PUSH1 0x44 DUP3 ADD MSTORE PUSH1 0x64 SWAP1 REVERT JUMPDEST PUSH3 0x42E SWAP2 DUP6 DUP1 MSTORE PUSH1 0x2 DUP6 MSTORE DUP7 DUP7 KECCAK256 SWAP2 AND SWAP1 PUSH3 0x54B JUMP JUMPDEST POP CODESIZE DUP1 PUSH3 0x9D JUMP JUMPDEST PUSH1 0x0 DUP1 REVERT JUMPDEST PUSH4 0x4E487B71 PUSH1 0xE0 SHL PUSH1 0x0 MSTORE PUSH1 0x41 PUSH1 0x4 MSTORE PUSH1 0x24 PUSH1 0x0 REVERT JUMPDEST PUSH1 0x40 DUP1 MLOAD SWAP2 SWAP1 DUP3 ADD PUSH1 0x1 PUSH1 0x1 PUSH1 0x40 SHL SUB DUP2 GT DUP4 DUP3 LT OR PUSH3 0x43C JUMPI PUSH1 0x40 MSTORE JUMP JUMPDEST MLOAD SWAP1 PUSH1 0x1 PUSH1 0x1 PUSH1 0xA0 SHL SUB DUP3 AND DUP3 SUB PUSH3 0x437 JUMPI JUMP JUMPDEST PUSH1 0x1 PUSH1 0x1 PUSH1 0xA0 SHL SUB AND PUSH1 0x0 DUP2 DUP2 MSTORE PUSH32 0xA6EEF7E35ABE7026729641147F7915573C7E97B47EFA546F5F6E3230263BCB49 PUSH1 0x20 MSTORE PUSH1 0x40 DUP2 KECCAK256 SLOAD SWAP1 SWAP2 SWAP1 PUSH1 0xFF AND PUSH3 0x515 JUMPI DUP2 DUP1 MSTORE PUSH1 0x1 PUSH1 0x20 MSTORE PUSH1 0x40 DUP3 KECCAK256 DUP2 DUP4 MSTORE PUSH1 0x20 MSTORE PUSH1 0x40 DUP3 KECCAK256 PUSH1 0x1 PUSH1 0xFF NOT DUP3 SLOAD AND OR SWAP1 SSTORE CALLER SWAP2 PUSH32 0x2F8788117E7EFF1D82E926EC794901D17C78024A50270940304540A733656F0D DUP2 DUP1 LOG4 PUSH1 0x1 SWAP1 JUMP JUMPDEST POP SWAP1 JUMP JUMPDEST PUSH1 0x5 SLOAD DUP2 LT ISZERO PUSH3 0x535 JUMPI PUSH1 0x5 PUSH1 0x0 MSTORE PUSH1 0x20 PUSH1 0x0 KECCAK256 ADD SWAP1 PUSH1 0x0 SWAP1 JUMP JUMPDEST PUSH4 0x4E487B71 PUSH1 0xE0 SHL PUSH1 0x0 MSTORE PUSH1 0x32 PUSH1 0x4 MSTORE PUSH1 0x24 PUSH1 0x0 REVERT JUMPDEST SWAP2 SWAP1 PUSH1 0x1 DUP4 ADD PUSH1 0x0 SWAP1 DUP3 DUP3 MSTORE DUP1 PUSH1 0x20 MSTORE PUSH1 0x40 DUP3 KECCAK256 SLOAD ISZERO PUSH1 0x0 EQ PUSH3 0x5D2 JUMPI DUP5 SLOAD SWAP5 PUSH9 0x10000000000000000 DUP7 LT ISZERO PUSH3 0x5BE JUMPI PUSH1 0x1 DUP7 ADD DUP1 DUP3 SSTORE DUP7 LT ISZERO PUSH3 0x5AA JUMPI DUP4 PUSH1 0x40 SWAP5 SWAP6 SWAP7 DUP3 DUP6 MSTORE PUSH1 0x20 DUP6 KECCAK256 ADD SSTORE SLOAD SWAP4 DUP3 MSTORE PUSH1 0x20 MSTORE KECCAK256 SSTORE PUSH1 0x1 SWAP1 JUMP JUMPDEST PUSH4 0x4E487B71 PUSH1 0xE0 SHL DUP4 MSTORE PUSH1 0x32 PUSH1 0x4 MSTORE PUSH1 0x24 DUP4 REVERT JUMPDEST PUSH4 0x4E487B71 PUSH1 0xE0 SHL DUP4 MSTORE PUSH1 0x41 PUSH1 0x4 MSTORE PUSH1 0x24 DUP4 REVERT JUMPDEST POP SWAP3 POP POP JUMP INVALID PUSH1 0x80 PUSH1 0x40 DUP2 DUP2 MSTORE PUSH1 0x4 SWAP2 DUP3 CALLDATASIZE LT ISZERO PUSH2 0x2B JUMPI JUMPDEST POP POP POP CALLDATASIZE ISZERO PUSH2 0x20 JUMPI PUSH1 0x0 DUP1 REVERT JUMPDEST PUSH2 0x29 CALLVALUE PUSH2 0x1B37 JUMP JUMPDEST STOP JUMPDEST PUSH1 0x0 SWAP3 DUP4 CALLDATALOAD PUSH1 0xE0 SHR SWAP2 DUP3 PUSH4 0x1FFC9A7 EQ PUSH2 0x11F0 JUMPI POP DUP2 PUSH4 0x951984D EQ PUSH2 0x11CF JUMPI DUP2 PUSH4 0x97AAD10 EQ PUSH2 0x11A2 JUMPI DUP2 PUSH4 0xCDAC963 EQ PUSH2 0x1167 JUMPI DUP2 PUSH4 0x111A9802 EQ PUSH2 0x104D JUMPI DUP2 PUSH4 0x17589D2B EQ PUSH2 0x1024 JUMPI DUP2 PUSH4 0x248A9CA3 EQ PUSH2 0xFFA JUMPI DUP2 PUSH4 0x291A3D9E EQ PUSH2 0xFDB JUMPI DUP2 PUSH4 0x2E17DE78 EQ PUSH2 0xDBC JUMPI DUP2 PUSH4 0x2F2FF15D EQ PUSH2 0xD50 JUMPI DUP2 PUSH4 0x31D7A262 EQ PUSH2 0xD18 JUMPI DUP2 PUSH4 0x32298BE1 EQ PUSH2 0xCDF JUMPI DUP2 PUSH4 0x36568ABE EQ PUSH2 0xC99 JUMPI DUP2 PUSH4 0x372500AB EQ PUSH2 0xC70 JUMPI DUP2 PUSH4 0x38962186 EQ PUSH2 0xC51 JUMPI DUP2 PUSH4 0x68A34F98 EQ PUSH2 0xBA2 JUMPI DUP2 PUSH4 0x6F4A2CD0 EQ PUSH2 0xAED JUMPI DUP2 PUSH4 0x76520C6D EQ PUSH2 0xABC JUMPI DUP2 PUSH4 0x7B0472F0 EQ PUSH2 0x81C JUMPI DUP2 PUSH4 0x817B1CD2 EQ PUSH2 0x7FD JUMPI DUP2 PUSH4 0x8686B39A EQ PUSH2 0x7C5 JUMPI DUP2 PUSH4 0x9010D07C EQ PUSH2 0x784 JUMPI DUP2 PUSH4 0x91D14854 EQ PUSH2 0x73D JUMPI DUP2 PUSH4 0xA217FDDF EQ PUSH2 0x722 JUMPI DUP2 PUSH4 0xA3246AD3 EQ PUSH2 0x67A JUMPI DUP2 PUSH4 0xB3C6CD76 EQ PUSH2 0x634 JUMPI DUP2 PUSH4 0xB5D5B5FA EQ PUSH2 0x5A9 JUMPI DUP2 PUSH4 0xB7FA7CFC EQ PUSH2 0x506 JUMPI DUP2 PUSH4 0xC0D8FD3F EQ PUSH2 0x30A JUMPI DUP2 PUSH4 0xCA15C873 EQ PUSH2 0x2E2 JUMPI DUP2 PUSH4 0xD1E85A74 EQ PUSH2 0x246 JUMPI DUP2 PUSH4 0xD50267EE EQ PUSH2 0x215 JUMPI DUP2 PUSH4 0xD547741F EQ PUSH2 0x1D2 JUMPI POP PUSH4 0xEE172546 EQ PUSH2 0x1B1 JUMPI DUP1 PUSH2 0x12 JUMP JUMPDEST CALLVALUE PUSH2 0x1CE JUMPI DUP2 PUSH1 0x3 NOT CALLDATASIZE ADD SLT PUSH2 0x1CE JUMPI PUSH1 0x20 SWAP1 PUSH1 0x8 SLOAD SWAP1 MLOAD SWAP1 DUP2 MSTORE RETURN JUMPDEST POP DUP1 REVERT JUMPDEST SWAP2 SWAP1 POP CALLVALUE PUSH2 0x211 JUMPI DUP1 PUSH1 0x3 NOT CALLDATASIZE ADD SLT PUSH2 0x211 JUMPI PUSH2 0x20D SWAP2 CALLDATALOAD PUSH2 0x208 PUSH1 0x1 PUSH2 0x1F7 PUSH2 0x1278 JUMP JUMPDEST SWAP4 DUP4 DUP8 MSTORE DUP2 PUSH1 0x20 MSTORE DUP7 KECCAK256 ADD SLOAD PUSH2 0x13B1 JUMP JUMPDEST PUSH2 0x1457 JUMP JUMPDEST POP DUP1 RETURN JUMPDEST DUP3 DUP1 REVERT JUMPDEST SWAP1 POP CALLVALUE PUSH2 0x211 JUMPI PUSH1 0x20 CALLDATASIZE PUSH1 0x3 NOT ADD SLT PUSH2 0x211 JUMPI SWAP2 DUP3 DUP3 SWAP4 CALLDATALOAD DUP3 MSTORE PUSH1 0x20 MSTORE KECCAK256 PUSH1 0x1 DUP2 SLOAD SWAP2 ADD SLOAD DUP3 MLOAD SWAP2 DUP3 MSTORE PUSH1 0x20 DUP3 ADD MSTORE RETURN JUMPDEST SWAP2 SWAP1 POP CALLVALUE PUSH2 0x211 JUMPI PUSH1 0x20 CALLDATASIZE PUSH1 0x3 NOT ADD SLT PUSH2 0x211 JUMPI DUP2 CALLDATALOAD SWAP2 PUSH2 0x265 PUSH2 0x1359 JUMP JUMPDEST PUSH2 0xBB8 DUP4 GT PUSH2 0x2A0 JUMPI POP DUP2 PUSH1 0x20 SWAP2 PUSH32 0x653931A1F8B4E31039939D617FE0C066DC997F98127FD699E126A13766FA64D4 SWAP4 PUSH1 0xC SSTORE MLOAD SWAP1 DUP2 MSTORE LOG1 DUP1 RETURN JUMPDEST PUSH1 0x20 PUSH1 0x64 SWAP3 MLOAD SWAP2 PUSH3 0x461BCD PUSH1 0xE5 SHL DUP4 MSTORE DUP3 ADD MSTORE PUSH1 0x19 PUSH1 0x24 DUP3 ADD MSTORE PUSH32 0x50656E616C74792063616E6E6F74206578636565642033302500000000000000 PUSH1 0x44 DUP3 ADD MSTORE REVERT JUMPDEST SWAP1 POP CALLVALUE PUSH2 0x211 JUMPI PUSH1 0x20 CALLDATASIZE PUSH1 0x3 NOT ADD SLT PUSH2 0x211 JUMPI PUSH1 0x20 SWAP3 DUP3 SWAP2 CALLDATALOAD DUP2 MSTORE PUSH1 0x2 DUP5 MSTORE KECCAK256 SLOAD SWAP1 MLOAD SWAP1 DUP2 MSTORE RETURN JUMPDEST SWAP2 SWAP1 POP CALLVALUE PUSH2 0x211 JUMPI PUSH1 0x20 DUP1 PUSH1 0x3 NOT CALLDATASIZE ADD SLT PUSH2 0x502 JUMPI PUSH2 0x327 PUSH2 0x125D JUMP JUMPDEST DUP5 SWAP3 PUSH1 0x1 PUSH1 0x1 PUSH1 0xA0 SHL SUB SWAP1 SWAP2 AND SWAP1 DUP4 JUMPDEST DUP3 DUP8 MSTORE PUSH1 0x6 DUP5 MSTORE DUP2 DUP8 KECCAK256 DUP1 SLOAD DUP3 LT ISZERO PUSH2 0x385 JUMPI PUSH1 0x5 PUSH2 0x358 DUP4 PUSH1 0xFF SWAP4 PUSH2 0x133D JUMP JUMPDEST POP ADD SLOAD AND ISZERO PUSH2 0x370 JUMPI JUMPDEST PUSH2 0x36B SWAP1 PUSH2 0x181D JUMP JUMPDEST PUSH2 0x337 JUMP JUMPDEST SWAP4 PUSH2 0x37D PUSH2 0x36B SWAP2 PUSH2 0x181D JUMP JUMPDEST SWAP5 SWAP1 POP PUSH2 0x362 JUMP JUMPDEST POP POP SWAP1 SWAP2 SWAP4 DUP6 PUSH2 0x394 DUP6 PUSH2 0x1D7D JUMP JUMPDEST SWAP1 PUSH2 0x39E DUP7 PUSH2 0x1D7D JUMP JUMPDEST SWAP4 PUSH2 0x3A8 DUP8 PUSH2 0x1D7D JUMP JUMPDEST SWAP2 PUSH2 0x3BB PUSH2 0x3B5 DUP10 PUSH2 0x1D7D JUMP JUMPDEST SWAP9 PUSH2 0x1D7D JUMP JUMPDEST SWAP5 DUP2 SWAP7 DUP3 JUMPDEST DUP10 DUP5 MSTORE PUSH1 0x6 DUP1 DUP14 MSTORE DUP6 DUP6 KECCAK256 DUP1 SLOAD DUP4 LT ISZERO PUSH2 0x496 JUMPI DUP14 SWAP2 DUP13 PUSH1 0xFF DUP16 SWAP4 PUSH2 0x3E7 DUP8 PUSH1 0x5 SWAP3 PUSH2 0x133D JUMP JUMPDEST POP ADD SLOAD AND ISZERO PUSH2 0x403 JUMPI JUMPDEST POP POP POP POP PUSH2 0x3FE SWAP1 PUSH2 0x181D JUMP JUMPDEST PUSH2 0x3C0 JUMP JUMPDEST SWAP3 DUP6 DUP14 SWAP4 PUSH2 0x46E DUP8 SWAP16 PUSH1 0x60 DUP16 DUP16 DUP16 DUP16 DUP16 SWAP11 SWAP2 PUSH2 0x43D PUSH2 0x3FE SWAP16 PUSH2 0x48A SWAP16 SWAP1 DUP4 DUP6 DUP16 SWAP8 PUSH2 0x465 SWAP9 PUSH2 0x437 SWAP6 DUP15 SWAP10 MSTORE MSTORE KECCAK256 PUSH2 0x133D JUMP JUMPDEST POP PUSH2 0x19B1 JUMP JUMPDEST SWAP5 PUSH2 0x44A DUP4 DUP8 MLOAD SWAP3 PUSH2 0x1DAF JUMP JUMPDEST MSTORE DUP11 DUP6 ADD SWAP10 PUSH2 0x45B DUP4 DUP13 MLOAD SWAP3 PUSH2 0x1DAF JUMP JUMPDEST MSTORE DUP5 ADD MLOAD SWAP3 PUSH2 0x1DAF JUMP JUMPDEST MSTORE ADD MLOAD SWAP3 PUSH2 0x1DAF JUMP JUMPDEST MSTORE MLOAD DUP9 MSTORE MSTORE PUSH1 0x1 DUP8 DUP8 KECCAK256 ADD SLOAD PUSH2 0x484 DUP3 DUP13 PUSH2 0x1DAF JUMP JUMPDEST MSTORE PUSH2 0x181D JUMP JUMPDEST SWAP9 SWAP1 POP DUP12 DUP12 DUP15 DUP13 PUSH2 0x3F1 JUMP JUMPDEST PUSH2 0x4C8 DUP10 DUP16 DUP16 PUSH2 0x4F0 DUP15 SWAP2 PUSH2 0x4E2 DUP14 DUP16 PUSH2 0x4D5 PUSH2 0x4FE SWAP8 PUSH2 0x4B5 PUSH2 0x1DC3 JUMP JUMPDEST DUP5 MLOAD SWAP12 DUP13 SWAP12 PUSH1 0xA0 DUP14 MSTORE PUSH1 0xA0 DUP14 ADD SWAP1 PUSH2 0x1309 JUMP JUMPDEST SWAP2 DUP12 DUP4 SUB SWAP1 DUP13 ADD MSTORE PUSH2 0x1309 JUMP JUMPDEST SWAP2 DUP9 DUP4 SUB SWAP1 DUP10 ADD MSTORE PUSH2 0x1309 JUMP JUMPDEST SWAP1 DUP6 DUP3 SUB PUSH1 0x60 DUP8 ADD MSTORE PUSH2 0x1309 JUMP JUMPDEST SWAP1 DUP4 DUP3 SUB PUSH1 0x80 DUP6 ADD MSTORE PUSH2 0x1309 JUMP JUMPDEST SUB SWAP1 RETURN JUMPDEST DUP4 DUP1 REVERT JUMPDEST DUP4 DUP4 CALLVALUE PUSH2 0x1CE JUMPI PUSH1 0x20 SWAP3 DUP4 PUSH1 0x3 NOT CALLDATASIZE ADD SLT PUSH2 0x211 JUMPI DUP4 PUSH2 0x52C PUSH2 0x527 PUSH2 0x125D JUMP JUMPDEST PUSH2 0x1CDA JUMP JUMPDEST PUSH1 0x3 SLOAD DUP5 MLOAD PUSH3 0xA07855 PUSH1 0xE7 SHL DUP2 MSTORE SWAP4 DUP5 ADD SWAP2 SWAP1 SWAP2 MSTORE DUP3 SWAP1 PUSH1 0x24 SWAP1 DUP3 SWAP1 PUSH1 0x1 PUSH1 0x1 PUSH1 0xA0 SHL SUB AND GAS STATICCALL SWAP3 DUP4 ISZERO PUSH2 0x59E JUMPI DUP1 SWAP4 PUSH2 0x569 JUMPI JUMPDEST POP POP MLOAD SWAP1 DUP2 MSTORE RETURN JUMPDEST SWAP1 SWAP2 SWAP3 POP DUP4 DUP3 DUP2 RETURNDATASIZE DUP4 GT PUSH2 0x597 JUMPI JUMPDEST PUSH2 0x582 DUP2 DUP4 PUSH2 0x16D8 JUMP JUMPDEST DUP2 ADD SUB SLT PUSH2 0x594 JUMPI POP MLOAD SWAP1 DUP4 DUP1 PUSH2 0x561 JUMP JUMPDEST DUP1 REVERT JUMPDEST POP RETURNDATASIZE PUSH2 0x578 JUMP JUMPDEST DUP3 MLOAD SWAP1 RETURNDATASIZE SWAP1 DUP3 RETURNDATACOPY RETURNDATASIZE SWAP1 REVERT JUMPDEST SWAP2 SWAP1 POP CALLVALUE PUSH2 0x211 JUMPI DUP1 PUSH1 0x3 NOT CALLDATASIZE ADD SLT PUSH2 0x211 JUMPI PUSH2 0x5C4 PUSH2 0x125D JUMP JUMPDEST PUSH1 0x1 PUSH1 0x1 PUSH1 0xA0 SHL SUB AND DUP4 MSTORE PUSH1 0x6 PUSH1 0x20 MSTORE DUP1 DUP4 KECCAK256 DUP1 SLOAD PUSH1 0x24 CALLDATALOAD SWAP5 SWAP1 DUP6 LT ISZERO PUSH2 0x594 JUMPI POP PUSH1 0xC0 SWAP4 PUSH2 0x5F2 SWAP2 PUSH2 0x133D JUMP JUMPDEST POP DUP1 SLOAD SWAP3 PUSH1 0x1 DUP3 ADD SLOAD SWAP3 PUSH1 0x2 DUP4 ADD SLOAD SWAP1 PUSH1 0xFF PUSH1 0x5 PUSH1 0x3 DUP7 ADD SLOAD SWAP5 DUP7 ADD SLOAD SWAP6 ADD SLOAD AND SWAP5 DUP2 MLOAD SWAP7 DUP8 MSTORE PUSH1 0x20 DUP8 ADD MSTORE DUP6 ADD MSTORE PUSH1 0x60 DUP5 ADD MSTORE PUSH1 0x80 DUP4 ADD MSTORE ISZERO ISZERO PUSH1 0xA0 DUP3 ADD MSTORE RETURN JUMPDEST SWAP1 POP CALLVALUE PUSH2 0x211 JUMPI PUSH1 0x20 CALLDATASIZE PUSH1 0x3 NOT ADD SLT PUSH2 0x211 JUMPI SWAP2 DUP3 DUP3 SWAP4 CALLDATALOAD DUP3 MSTORE PUSH1 0x20 MSTORE KECCAK256 PUSH1 0x20 DUP3 MLOAD PUSH2 0x65F DUP2 PUSH2 0x168A JUMP JUMPDEST PUSH1 0x1 DUP4 SLOAD SWAP4 DUP5 DUP4 MSTORE ADD SLOAD SWAP2 DUP3 SWAP2 ADD MSTORE DUP3 MLOAD SWAP2 DUP3 MSTORE PUSH1 0x20 DUP3 ADD MSTORE RETURN JUMPDEST SWAP1 POP DUP3 CALLVALUE PUSH2 0x594 JUMPI PUSH1 0x20 SWAP2 DUP3 PUSH1 0x3 NOT CALLDATASIZE ADD SLT PUSH2 0x1CE JUMPI SWAP3 SWAP2 SWAP3 CALLDATALOAD DUP2 MSTORE PUSH1 0x2 DUP4 MSTORE DUP2 DUP2 KECCAK256 SWAP1 DUP3 MLOAD DUP1 DUP6 DUP5 SLOAD SWAP2 DUP3 DUP2 MSTORE ADD SWAP1 DUP2 SWAP5 DUP5 MSTORE DUP7 DUP5 KECCAK256 SWAP1 DUP5 JUMPDEST DUP2 DUP2 LT PUSH2 0x70E JUMPI POP POP POP DUP2 PUSH2 0x6CA SWAP2 SUB DUP3 PUSH2 0x16D8 JUMP JUMPDEST DUP4 MLOAD SWAP5 DUP6 SWAP5 DUP2 DUP7 ADD SWAP3 DUP3 DUP8 MSTORE MLOAD DUP1 SWAP4 MSTORE DUP6 ADD SWAP4 SWAP3 JUMPDEST DUP3 DUP2 LT PUSH2 0x6EE JUMPI POP POP POP POP SUB SWAP1 RETURN JUMPDEST DUP4 MLOAD PUSH1 0x1 PUSH1 0x1 PUSH1 0xA0 SHL SUB AND DUP6 MSTORE DUP7 SWAP6 POP SWAP4 DUP2 ADD SWAP4 SWAP3 DUP2 ADD SWAP3 PUSH1 0x1 ADD PUSH2 0x6DF JUMP JUMPDEST DUP3 SLOAD DUP5 MSTORE SWAP3 DUP9 ADD SWAP3 PUSH1 0x1 SWAP3 DUP4 ADD SWAP3 ADD PUSH2 0x6B4 JUMP JUMPDEST POP POP CALLVALUE PUSH2 0x1CE JUMPI DUP2 PUSH1 0x3 NOT CALLDATASIZE ADD SLT PUSH2 0x1CE JUMPI MLOAD SWAP1 DUP2 MSTORE PUSH1 0x20 SWAP1 RETURN JUMPDEST SWAP1 POP CALLVALUE PUSH2 0x211 JUMPI DUP2 PUSH1 0x3 NOT CALLDATASIZE ADD SLT PUSH2 0x211 JUMPI DUP2 PUSH1 0x20 SWAP4 PUSH1 0xFF SWAP3 PUSH2 0x75E PUSH2 0x1278 JUMP JUMPDEST SWAP1 CALLDATALOAD DUP3 MSTORE PUSH1 0x1 DUP7 MSTORE DUP3 DUP3 KECCAK256 PUSH1 0x1 PUSH1 0x1 PUSH1 0xA0 SHL SUB SWAP1 SWAP2 AND DUP3 MSTORE DUP6 MSTORE KECCAK256 SLOAD SWAP2 MLOAD SWAP2 AND ISZERO ISZERO DUP2 MSTORE RETURN JUMPDEST SWAP1 POP CALLVALUE PUSH2 0x211 JUMPI DUP2 PUSH1 0x3 NOT CALLDATASIZE ADD SLT PUSH2 0x211 JUMPI PUSH1 0x20 SWAP3 PUSH2 0x7AF SWAP2 CALLDATALOAD DUP2 MSTORE PUSH1 0x2 DUP5 MSTORE DUP3 PUSH1 0x24 CALLDATALOAD SWAP2 KECCAK256 PUSH2 0x12F1 JUMP JUMPDEST SWAP1 SLOAD SWAP2 MLOAD SWAP2 PUSH1 0x1 DUP1 PUSH1 0xA0 SHL SUB SWAP2 PUSH1 0x3 SHL SHR AND DUP2 MSTORE RETURN JUMPDEST POP POP CALLVALUE PUSH2 0x1CE JUMPI PUSH1 0x20 CALLDATASIZE PUSH1 0x3 NOT ADD SLT PUSH2 0x1CE JUMPI PUSH1 0x20 SWAP2 DUP2 SWAP1 PUSH1 0x1 PUSH1 0x1 PUSH1 0xA0 SHL SUB PUSH2 0x7ED PUSH2 0x125D JUMP JUMPDEST AND DUP2 MSTORE PUSH1 0xA DUP5 MSTORE KECCAK256 SLOAD SWAP1 MLOAD SWAP1 DUP2 MSTORE RETURN JUMPDEST POP POP CALLVALUE PUSH2 0x1CE JUMPI DUP2 PUSH1 0x3 NOT CALLDATASIZE ADD SLT PUSH2 0x1CE JUMPI PUSH1 0x20 SWAP1 PUSH1 0x7 SLOAD SWAP1 MLOAD SWAP1 DUP2 MSTORE RETURN JUMPDEST SWAP1 POP CALLVALUE PUSH2 0x211 JUMPI PUSH2 0x82C CALLDATASIZE PUSH2 0x128E JUMP JUMPDEST PUSH2 0x837 SWAP4 SWAP2 SWAP4 PUSH2 0x17FA JUMP JUMPDEST DUP4 ISZERO PUSH2 0xA88 JUMPI PUSH1 0x5 SLOAD DUP2 LT ISZERO PUSH2 0xA45 JUMPI PUSH2 0x850 SWAP1 PUSH2 0x12A4 JUMP JUMPDEST SWAP1 SLOAD SWAP1 PUSH1 0x3 SHL SHR DUP1 DUP6 MSTORE PUSH1 0x20 DUP4 DUP2 MSTORE PUSH1 0x1 DUP4 DUP8 KECCAK256 ADD SLOAD ISZERO PUSH2 0xA0B JUMPI PUSH2 0x874 CALLER PUSH2 0x18AE JUMP JUMPDEST PUSH1 0x3 SLOAD DUP4 MLOAD PUSH4 0x23B872DD PUSH1 0xE0 SHL DUP4 DUP3 ADD MSTORE CALLER PUSH1 0x24 DUP3 ADD MSTORE ADDRESS PUSH1 0x44 DUP3 ADD MSTORE PUSH1 0x64 DUP1 DUP3 ADD DUP9 SWAP1 MSTORE DUP2 MSTORE SWAP1 PUSH1 0x1 PUSH1 0x1 PUSH1 0xA0 SHL SUB AND PUSH1 0xA0 DUP3 ADD PUSH8 0xFFFFFFFFFFFFFFFF DUP2 GT DUP4 DUP3 LT OR PUSH2 0x9F8 JUMPI DUP6 MSTORE PUSH2 0x8C8 SWAP2 SWAP1 PUSH2 0x1792 JUMP JUMPDEST PUSH2 0x8D2 DUP3 TIMESTAMP PUSH2 0x1752 JUMP JUMPDEST SWAP4 CALLER DUP8 MSTORE PUSH1 0x6 DUP3 MSTORE DUP4 DUP8 KECCAK256 SWAP1 DUP5 MLOAD SWAP1 PUSH2 0x8EA DUP3 PUSH2 0x16BC JUMP JUMPDEST DUP8 DUP3 MSTORE DUP4 DUP3 ADD DUP6 DUP2 MSTORE DUP7 DUP4 ADD TIMESTAMP DUP2 MSTORE PUSH1 0x60 DUP5 ADD SWAP1 DUP10 DUP3 MSTORE PUSH1 0x80 DUP6 ADD SWAP3 TIMESTAMP DUP5 MSTORE PUSH1 0xA0 DUP7 ADD SWAP7 DUP14 DUP9 MSTORE DUP1 SLOAD SWAP1 PUSH1 0x1 PUSH1 0x40 SHL DUP3 LT ISZERO PUSH2 0x9E5 JUMPI SWAP1 PUSH2 0x930 SWAP2 PUSH1 0x1 DUP3 ADD DUP2 SSTORE PUSH2 0x133D JUMP JUMPDEST SWAP7 SWAP1 SWAP7 PUSH2 0x9D3 JUMPI SWAP1 PUSH1 0x5 SWAP7 SWAP6 SWAP5 SWAP4 SWAP3 SWAP2 MLOAD DUP7 SSTORE MLOAD PUSH1 0x1 DUP7 ADD SSTORE MLOAD PUSH1 0x2 DUP6 ADD SSTORE MLOAD PUSH1 0x3 DUP5 ADD SSTORE MLOAD SWAP1 DUP3 ADD SSTORE ADD SWAP1 MLOAD ISZERO ISZERO PUSH1 0xFF DUP1 NOT DUP4 SLOAD AND SWAP2 AND OR SWAP1 SSTORE PUSH2 0x977 DUP6 PUSH1 0x7 SLOAD PUSH2 0x1752 JUMP JUMPDEST PUSH1 0x7 SSTORE PUSH8 0xDE0B6B3A7640000 PUSH2 0x98F PUSH1 0x9 SLOAD DUP8 PUSH2 0x175F JUMP JUMPDEST DIV CALLER DUP8 MSTORE PUSH1 0xA DUP3 MSTORE DUP4 DUP8 KECCAK256 SSTORE DUP3 MLOAD SWAP5 DUP6 MSTORE DUP5 ADD MSTORE DUP3 ADD MSTORE PUSH32 0xB4CAAF29ADDA3EEFEE3AD552A8E85058589BF834C7466CAE4EE58787F70589ED PUSH1 0x60 CALLER SWAP3 LOG2 PUSH1 0x1 DUP2 SSTORE DUP1 RETURN JUMPDEST PUSH4 0x4E487B71 PUSH1 0xE0 SHL DUP15 MSTORE DUP14 DUP7 MSTORE PUSH1 0x24 DUP15 REVERT JUMPDEST PUSH4 0x4E487B71 PUSH1 0xE0 SHL DUP16 MSTORE PUSH1 0x41 DUP8 MSTORE PUSH1 0x24 DUP16 REVERT JUMPDEST PUSH4 0x4E487B71 PUSH1 0xE0 SHL DUP10 MSTORE PUSH1 0x41 DUP8 MSTORE PUSH1 0x24 DUP10 REVERT JUMPDEST DUP4 PUSH1 0x64 SWAP2 DUP5 MLOAD SWAP2 PUSH3 0x461BCD PUSH1 0xE5 SHL DUP4 MSTORE DUP3 ADD MSTORE PUSH1 0x15 PUSH1 0x24 DUP3 ADD MSTORE PUSH21 0x24B73B30B634B2103637B1B590323AB930BA34B7B7 PUSH1 0x59 SHL PUSH1 0x44 DUP3 ADD MSTORE REVERT JUMPDEST DUP2 MLOAD PUSH3 0x461BCD PUSH1 0xE5 SHL DUP2 MSTORE PUSH1 0x20 DUP2 DUP6 ADD MSTORE PUSH1 0x1B PUSH1 0x24 DUP3 ADD MSTORE PUSH32 0x496E76616C6964206C6F636B206475726174696F6E20696E6465780000000000 PUSH1 0x44 DUP3 ADD MSTORE PUSH1 0x64 SWAP1 REVERT JUMPDEST DUP2 MLOAD PUSH3 0x461BCD PUSH1 0xE5 SHL DUP2 MSTORE PUSH1 0x20 DUP2 DUP6 ADD MSTORE PUSH1 0xE PUSH1 0x24 DUP3 ADD MSTORE PUSH14 0x43616E6E6F74207374616B65203 PUSH1 0x94 SHL PUSH1 0x44 DUP3 ADD MSTORE PUSH1 0x64 SWAP1 REVERT JUMPDEST POP POP CALLVALUE PUSH2 0x1CE JUMPI DUP2 PUSH1 0x3 NOT CALLDATASIZE ADD SLT PUSH2 0x1CE JUMPI PUSH2 0x4FE SWAP1 PUSH2 0xADA PUSH2 0x1DC3 JUMP JUMPDEST SWAP1 MLOAD SWAP2 DUP3 SWAP2 PUSH1 0x20 DUP4 MSTORE PUSH1 0x20 DUP4 ADD SWAP1 PUSH2 0x1309 JUMP JUMPDEST SWAP2 SWAP1 POP DUP3 PUSH1 0x3 NOT CALLDATASIZE ADD SLT PUSH2 0x211 JUMPI PUSH32 0x59C7A9EF9A56707D87D116A5D27496AFEE2604C70B902AC2C4DBDCB68F36F2EA DUP1 DUP5 MSTORE PUSH1 0x1 PUSH1 0x20 MSTORE DUP2 DUP5 KECCAK256 CALLER DUP6 MSTORE PUSH1 0x20 MSTORE PUSH1 0xFF DUP3 DUP6 KECCAK256 SLOAD AND ISZERO PUSH2 0xB86 JUMPI POP CALLVALUE ISZERO PUSH2 0xB4D JUMPI DUP3 PUSH2 0xB4A CALLVALUE PUSH2 0x1B37 JUMP JUMPDEST DUP1 RETURN JUMPDEST SWAP1 PUSH1 0x20 PUSH1 0x64 SWAP3 MLOAD SWAP2 PUSH3 0x461BCD PUSH1 0xE5 SHL DUP4 MSTORE DUP3 ADD MSTORE PUSH1 0x13 PUSH1 0x24 DUP3 ADD MSTORE PUSH19 0x43616E6E6F742064697374726962757465203 PUSH1 0x6C SHL PUSH1 0x44 DUP3 ADD MSTORE REVERT JUMPDEST PUSH1 0x44 SWAP3 SWAP2 MLOAD SWAP2 PUSH4 0xE2517D3F PUSH1 0xE0 SHL DUP4 MSTORE CALLER SWAP1 DUP4 ADD MSTORE PUSH1 0x24 DUP3 ADD MSTORE REVERT JUMPDEST DUP4 DUP4 CALLVALUE PUSH2 0x1CE JUMPI PUSH2 0xBB2 CALLDATASIZE PUSH2 0x128E JUMP JUMPDEST PUSH2 0xBBA PUSH2 0x1359 JUMP JUMPDEST PUSH2 0xBC7 PUSH1 0x64 DUP3 LT ISZERO PUSH2 0x16FA JUMP JUMPDEST DUP2 DUP5 MSTORE DUP5 PUSH1 0x20 MSTORE PUSH1 0x1 DUP4 DUP6 KECCAK256 ADD SLOAD ISZERO PUSH2 0xC19 JUMPI DUP4 SWAP5 DUP3 PUSH32 0x8D0FE207EA42D27EEE4D8EDB2E4D91A2B2A3F055C41EC36E19D6E007428A5468 SWAP6 MSTORE PUSH1 0x20 MSTORE DUP1 PUSH1 0x1 DUP5 DUP8 KECCAK256 ADD SSTORE DUP3 MLOAD SWAP2 DUP3 MSTORE PUSH1 0x20 DUP3 ADD MSTORE LOG1 DUP1 RETURN JUMPDEST DUP3 MLOAD PUSH3 0x461BCD PUSH1 0xE5 SHL DUP2 MSTORE PUSH1 0x20 DUP2 DUP8 ADD MSTORE PUSH1 0x12 PUSH1 0x24 DUP3 ADD MSTORE PUSH18 0x151A595C88191BD95CDB89DD08195E1A5CDD PUSH1 0x72 SHL PUSH1 0x44 DUP3 ADD MSTORE PUSH1 0x64 SWAP1 REVERT JUMPDEST POP POP CALLVALUE PUSH2 0x1CE JUMPI DUP2 PUSH1 0x3 NOT CALLDATASIZE ADD SLT PUSH2 0x1CE JUMPI PUSH1 0x20 SWAP1 PUSH1 0x9 SLOAD SWAP1 MLOAD SWAP1 DUP2 MSTORE RETURN JUMPDEST DUP4 CALLVALUE PUSH2 0x594 JUMPI DUP1 PUSH1 0x3 NOT CALLDATASIZE ADD SLT PUSH2 0x594 JUMPI PUSH2 0xC89 PUSH2 0x17FA JUMP JUMPDEST PUSH2 0xC92 CALLER PUSH2 0x18AE JUMP JUMPDEST PUSH1 0x1 DUP2 SSTORE DUP1 RETURN JUMPDEST DUP4 DUP4 CALLVALUE PUSH2 0x1CE JUMPI DUP1 PUSH1 0x3 NOT CALLDATASIZE ADD SLT PUSH2 0x1CE JUMPI PUSH2 0xCB3 PUSH2 0x1278 JUMP JUMPDEST SWAP1 CALLER PUSH1 0x1 PUSH1 0x1 PUSH1 0xA0 SHL SUB DUP4 AND SUB PUSH2 0xCD0 JUMPI POP PUSH2 0x20D SWAP2 SWAP3 CALLDATALOAD PUSH2 0x1457 JUMP JUMPDEST MLOAD PUSH4 0x334BD919 PUSH1 0xE1 SHL DUP2 MSTORE DUP4 SWAP1 REVERT JUMPDEST SWAP1 POP CALLVALUE PUSH2 0x211 JUMPI PUSH1 0x20 CALLDATASIZE PUSH1 0x3 NOT ADD SLT PUSH2 0x211 JUMPI CALLDATALOAD SWAP2 PUSH1 0x5 SLOAD DUP4 LT ISZERO PUSH2 0x594 JUMPI POP PUSH2 0xD0A PUSH1 0x20 SWAP3 PUSH2 0x12A4 JUMP JUMPDEST SWAP2 SWAP1 SLOAD SWAP1 MLOAD SWAP2 PUSH1 0x3 SHL SHR DUP2 MSTORE RETURN JUMPDEST POP POP CALLVALUE PUSH2 0x1CE JUMPI PUSH1 0x20 CALLDATASIZE PUSH1 0x3 NOT ADD SLT PUSH2 0x1CE JUMPI PUSH1 0x20 SWAP2 DUP2 SWAP1 PUSH1 0x1 PUSH1 0x1 PUSH1 0xA0 SHL SUB PUSH2 0xD40 PUSH2 0x125D JUMP JUMPDEST AND DUP2 MSTORE PUSH1 0xB DUP5 MSTORE KECCAK256 SLOAD SWAP1 MLOAD SWAP1 DUP2 MSTORE RETURN JUMPDEST SWAP1 POP CALLVALUE PUSH2 0x211 JUMPI DUP2 PUSH1 0x3 NOT CALLDATASIZE ADD SLT PUSH2 0x211 JUMPI CALLDATALOAD SWAP1 PUSH2 0xD6C PUSH2 0x1278 JUMP JUMPDEST SWAP1 DUP3 DUP5 MSTORE PUSH1 0x1 PUSH1 0x20 MSTORE PUSH2 0xD84 PUSH1 0x1 DUP3 DUP7 KECCAK256 ADD SLOAD PUSH2 0x13B1 JUMP JUMPDEST PUSH2 0xD8E DUP3 DUP5 PUSH2 0x13D7 JUMP JUMPDEST PUSH2 0xD96 JUMPI DUP4 DUP1 RETURN JUMPDEST SWAP2 DUP4 MSTORE PUSH1 0x2 PUSH1 0x20 MSTORE SWAP1 DUP3 KECCAK256 PUSH2 0xDB4 SWAP2 PUSH1 0x1 PUSH1 0x1 PUSH1 0xA0 SHL SUB AND SWAP1 PUSH2 0x1509 JUMP JUMPDEST POP CODESIZE DUP1 DUP1 DUP4 DUP1 RETURN JUMPDEST DUP4 DUP4 CALLVALUE PUSH2 0x1CE JUMPI PUSH1 0x20 SWAP1 DUP2 PUSH1 0x3 NOT CALLDATASIZE ADD SLT PUSH2 0x211 JUMPI DUP4 CALLDATALOAD PUSH2 0xDDB PUSH2 0x17FA JUMP JUMPDEST CALLER DUP5 MSTORE PUSH1 0x6 DUP4 MSTORE DUP2 DUP5 KECCAK256 SLOAD DUP2 LT ISZERO PUSH2 0xFA2 JUMPI PUSH2 0xE00 SWAP1 CALLER DUP6 MSTORE PUSH1 0x6 DUP5 MSTORE DUP3 DUP6 KECCAK256 PUSH2 0x133D JUMP JUMPDEST POP SWAP2 PUSH1 0x5 DUP4 ADD PUSH1 0xFF DUP2 SLOAD AND PUSH2 0xF66 JUMPI DUP4 SLOAD SWAP4 DUP6 SWAP2 PUSH2 0xE1D CALLER PUSH2 0x18AE JUMP JUMPDEST PUSH1 0x3 DUP3 ADD SLOAD TIMESTAMP LT PUSH2 0xF14 JUMPI JUMPDEST PUSH2 0xE66 PUSH8 0xDE0B6B3A7640000 SWAP3 PUSH2 0xE6F SWAP3 PUSH1 0x1 PUSH1 0xFF NOT DUP3 SLOAD AND OR SWAP1 SSTORE PUSH2 0xE52 DUP2 SLOAD PUSH1 0x7 SLOAD PUSH2 0x1577 JUMP JUMPDEST PUSH1 0x7 SSTORE PUSH2 0xE5E CALLER PUSH2 0x1CDA JUMP JUMPDEST SWAP1 SLOAD SWAP1 PUSH2 0x1577 JUMP JUMPDEST PUSH1 0x9 SLOAD SWAP1 PUSH2 0x175F JUMP JUMPDEST DIV CALLER DUP7 MSTORE PUSH1 0xA DUP4 MSTORE DUP4 DUP7 KECCAK256 SSTORE PUSH1 0x1 DUP1 PUSH1 0xA0 SHL SUB PUSH1 0x3 SLOAD AND DUP4 MLOAD SWAP1 PUSH4 0xA9059CBB PUSH1 0xE0 SHL DUP5 DUP4 ADD MSTORE CALLER PUSH1 0x24 DUP4 ADD MSTORE DUP6 PUSH1 0x44 DUP4 ADD MSTORE PUSH1 0x44 DUP3 MSTORE PUSH1 0x80 DUP3 ADD DUP3 DUP2 LT PUSH8 0xFFFFFFFFFFFFFFFF DUP3 GT OR PUSH2 0xF01 JUMPI DUP6 MSTORE PUSH32 0x4416CA74B4C9DD8D6070D91C267A6CF53734C0F343CED0AD02471CCB5417037E SWAP5 SWAP4 SWAP3 SWAP2 PUSH2 0xEEC SWAP2 PUSH2 0x1792 JUMP JUMPDEST DUP3 MLOAD SWAP5 DUP6 MSTORE ISZERO ISZERO SWAP1 DUP5 ADD MSTORE CALLER SWAP3 LOG2 PUSH1 0x1 DUP2 SSTORE DUP1 RETURN JUMPDEST PUSH4 0x4E487B71 PUSH1 0xE0 SHL DUP9 MSTORE PUSH1 0x41 DUP10 MSTORE PUSH1 0x24 DUP9 REVERT JUMPDEST SWAP5 SWAP2 POP PUSH2 0xE6F PUSH2 0xE66 PUSH8 0xDE0B6B3A7640000 SWAP3 PUSH2 0xF41 PUSH2 0x2710 PUSH2 0xF39 PUSH1 0xC SLOAD DUP9 PUSH2 0x175F JUMP JUMPDEST DIV DUP1 SWAP7 PUSH2 0x1577 JUMP JUMPDEST SWAP8 PUSH2 0xF5C PUSH1 0x1 SWAP7 PUSH2 0xF54 DUP2 PUSH1 0x7 SLOAD PUSH2 0x1577 JUMP JUMPDEST PUSH1 0x7 SSTORE PUSH2 0x1B37 JUMP JUMPDEST SWAP3 POP SWAP3 POP POP PUSH2 0xE29 JUMP JUMPDEST DUP3 MLOAD PUSH3 0x461BCD PUSH1 0xE5 SHL DUP2 MSTORE DUP1 DUP8 ADD DUP4 SWAP1 MSTORE PUSH1 0x16 PUSH1 0x24 DUP3 ADD MSTORE PUSH22 0x14DD185AD948185B1C9958591E481D5B9B1BD8DAD959 PUSH1 0x52 SHL PUSH1 0x44 DUP3 ADD MSTORE PUSH1 0x64 SWAP1 REVERT JUMPDEST DUP2 MLOAD PUSH3 0x461BCD PUSH1 0xE5 SHL DUP2 MSTORE DUP1 DUP7 ADD DUP5 SWAP1 MSTORE PUSH1 0x13 PUSH1 0x24 DUP3 ADD MSTORE PUSH19 0x92DCECC2D8D2C840E6E8C2D6CA40D2DCC8CAF PUSH1 0x6B SHL PUSH1 0x44 DUP3 ADD MSTORE PUSH1 0x64 SWAP1 REVERT JUMPDEST POP POP CALLVALUE PUSH2 0x1CE JUMPI DUP2 PUSH1 0x3 NOT CALLDATASIZE ADD SLT PUSH2 0x1CE JUMPI PUSH1 0x20 SWAP1 PUSH1 0xC SLOAD SWAP1 MLOAD SWAP1 DUP2 MSTORE RETURN JUMPDEST SWAP1 POP CALLVALUE PUSH2 0x211 JUMPI PUSH1 0x20 CALLDATASIZE PUSH1 0x3 NOT ADD SLT PUSH2 0x211 JUMPI DUP2 PUSH1 0x20 SWAP4 PUSH1 0x1 SWAP3 CALLDATALOAD DUP2 MSTORE DUP3 DUP6 MSTORE KECCAK256 ADD SLOAD SWAP1 MLOAD SWAP1 DUP2 MSTORE RETURN JUMPDEST POP POP CALLVALUE PUSH2 0x1CE JUMPI DUP2 PUSH1 0x3 NOT CALLDATASIZE ADD SLT PUSH2 0x1CE JUMPI PUSH1 0x3 SLOAD SWAP1 MLOAD PUSH1 0x1 PUSH1 0x1 PUSH1 0xA0 SHL SUB SWAP1 SWAP2 AND DUP2 MSTORE PUSH1 0x20 SWAP1 RETURN JUMPDEST DUP4 DUP4 CALLVALUE PUSH2 0x1CE JUMPI PUSH2 0x105D CALLDATASIZE PUSH2 0x128E JUMP JUMPDEST PUSH2 0x1065 PUSH2 0x1359 JUMP JUMPDEST PUSH2 0x1072 PUSH1 0x64 DUP3 LT ISZERO PUSH2 0x16FA JUMP JUMPDEST DUP2 DUP5 MSTORE DUP5 PUSH1 0x20 MSTORE PUSH1 0x1 DUP4 DUP6 KECCAK256 ADD SLOAD PUSH2 0x112E JUMPI DUP3 MLOAD PUSH2 0x108F DUP2 PUSH2 0x168A JUMP JUMPDEST DUP3 DUP2 MSTORE PUSH1 0x1 PUSH1 0x20 DUP3 ADD DUP4 DUP2 MSTORE DUP5 DUP8 MSTORE DUP8 PUSH1 0x20 MSTORE DUP6 DUP8 KECCAK256 SWAP3 MLOAD DUP4 SSTORE MLOAD SWAP2 ADD SSTORE PUSH1 0x5 SLOAD PUSH1 0x1 PUSH1 0x40 SHL DUP2 LT ISZERO PUSH2 0x111B JUMPI PUSH32 0x92F3E4D0EFFE56CE357FB92C46768DA5F27170B419CF71B53CC40F36F28FE27 SWAP5 SWAP6 POP PUSH2 0x110B PUSH2 0x10F4 DUP3 PUSH1 0x1 DUP7 SWAP5 ADD PUSH1 0x5 SSTORE PUSH2 0x12A4 JUMP JUMPDEST DUP2 SWAP4 SWAP2 SLOAD SWAP1 PUSH1 0x3 SHL SWAP2 DUP3 SHL SWAP2 PUSH1 0x0 NOT SWAP1 SHL NOT AND OR SWAP1 JUMP JUMPDEST SWAP1 SSTORE DUP3 MLOAD SWAP2 DUP3 MSTORE PUSH1 0x20 DUP3 ADD MSTORE LOG1 DUP1 RETURN JUMPDEST PUSH4 0x4E487B71 PUSH1 0xE0 SHL DUP6 MSTORE PUSH1 0x41 DUP7 MSTORE PUSH1 0x24 DUP6 REVERT JUMPDEST DUP3 MLOAD PUSH3 0x461BCD PUSH1 0xE5 SHL DUP2 MSTORE PUSH1 0x20 DUP2 DUP8 ADD MSTORE PUSH1 0x13 PUSH1 0x24 DUP3 ADD MSTORE PUSH19 0x5469657220616C726561647920657869737473 PUSH1 0x68 SHL PUSH1 0x44 DUP3 ADD MSTORE PUSH1 0x64 SWAP1 REVERT JUMPDEST POP POP CALLVALUE PUSH2 0x1CE JUMPI DUP2 PUSH1 0x3 NOT CALLDATASIZE ADD SLT PUSH2 0x1CE JUMPI PUSH1 0x20 SWAP1 MLOAD PUSH32 0x59C7A9EF9A56707D87D116A5D27496AFEE2604C70B902AC2C4DBDCB68F36F2EA DUP2 MSTORE RETURN JUMPDEST POP POP CALLVALUE PUSH2 0x1CE JUMPI PUSH1 0x20 CALLDATASIZE PUSH1 0x3 NOT ADD SLT PUSH2 0x1CE JUMPI PUSH1 0x20 SWAP1 PUSH2 0x11C8 PUSH2 0x11C3 PUSH2 0x125D JUMP JUMPDEST PUSH2 0x19FC JUMP JUMPDEST SWAP1 MLOAD SWAP1 DUP2 MSTORE RETURN JUMPDEST POP POP CALLVALUE PUSH2 0x1CE JUMPI PUSH1 0x20 CALLDATASIZE PUSH1 0x3 NOT ADD SLT PUSH2 0x1CE JUMPI PUSH1 0x20 SWAP1 PUSH2 0x11C8 PUSH2 0x527 PUSH2 0x125D JUMP JUMPDEST DUP5 SWAP2 CALLVALUE PUSH2 0x211 JUMPI PUSH1 0x20 CALLDATASIZE PUSH1 0x3 NOT ADD SLT PUSH2 0x211 JUMPI CALLDATALOAD PUSH4 0xFFFFFFFF PUSH1 0xE0 SHL DUP2 AND DUP1 SWAP2 SUB PUSH2 0x211 JUMPI PUSH1 0x20 SWAP3 POP PUSH4 0x5A05180F PUSH1 0xE0 SHL DUP2 EQ SWAP1 DUP2 ISZERO PUSH2 0x1232 JUMPI JUMPDEST POP ISZERO ISZERO DUP2 MSTORE RETURN JUMPDEST PUSH4 0x7965DB0B PUSH1 0xE0 SHL DUP2 EQ SWAP2 POP DUP2 ISZERO PUSH2 0x124C JUMPI JUMPDEST POP DUP4 PUSH2 0x122B JUMP JUMPDEST PUSH4 0x1FFC9A7 PUSH1 0xE0 SHL EQ SWAP1 POP DUP4 PUSH2 0x1245 JUMP JUMPDEST PUSH1 0x4 CALLDATALOAD SWAP1 PUSH1 0x1 PUSH1 0x1 PUSH1 0xA0 SHL SUB DUP3 AND DUP3 SUB PUSH2 0x1273 JUMPI JUMP JUMPDEST PUSH1 0x0 DUP1 REVERT JUMPDEST PUSH1 0x24 CALLDATALOAD SWAP1 PUSH1 0x1 PUSH1 0x1 PUSH1 0xA0 SHL SUB DUP3 AND DUP3 SUB PUSH2 0x1273 JUMPI JUMP JUMPDEST PUSH1 0x40 SWAP1 PUSH1 0x3 NOT ADD SLT PUSH2 0x1273 JUMPI PUSH1 0x4 CALLDATALOAD SWAP1 PUSH1 0x24 CALLDATALOAD SWAP1 JUMP JUMPDEST PUSH1 0x5 SLOAD DUP2 LT ISZERO PUSH2 0x12DB JUMPI PUSH1 0x5 PUSH1 0x0 MSTORE PUSH32 0x36B6384B5ECA791C62761152D0C79BB0604C104A5FB6F4EB0703F3154BB3DB0 ADD SWAP1 PUSH1 0x0 SWAP1 JUMP JUMPDEST PUSH4 0x4E487B71 PUSH1 0xE0 SHL PUSH1 0x0 MSTORE PUSH1 0x32 PUSH1 0x4 MSTORE PUSH1 0x24 PUSH1 0x0 REVERT JUMPDEST DUP1 SLOAD DUP3 LT ISZERO PUSH2 0x12DB JUMPI PUSH1 0x0 MSTORE PUSH1 0x20 PUSH1 0x0 KECCAK256 ADD SWAP1 PUSH1 0x0 SWAP1 JUMP JUMPDEST SWAP1 DUP2 MLOAD DUP1 DUP3 MSTORE PUSH1 0x20 DUP1 DUP1 SWAP4 ADD SWAP4 ADD SWAP2 PUSH1 0x0 JUMPDEST DUP3 DUP2 LT PUSH2 0x1329 JUMPI POP POP POP POP SWAP1 JUMP JUMPDEST DUP4 MLOAD DUP6 MSTORE SWAP4 DUP2 ADD SWAP4 SWAP3 DUP2 ADD SWAP3 PUSH1 0x1 ADD PUSH2 0x131B JUMP JUMPDEST DUP1 SLOAD DUP3 LT ISZERO PUSH2 0x12DB JUMPI PUSH1 0x0 MSTORE PUSH1 0x6 PUSH1 0x20 PUSH1 0x0 KECCAK256 SWAP2 MUL ADD SWAP1 PUSH1 0x0 SWAP1 JUMP JUMPDEST CALLER PUSH1 0x0 SWAP1 DUP2 MSTORE PUSH32 0xA6EEF7E35ABE7026729641147F7915573C7E97B47EFA546F5F6E3230263BCB49 PUSH1 0x20 MSTORE PUSH1 0x40 DUP2 KECCAK256 SLOAD PUSH1 0xFF AND ISZERO PUSH2 0x1393 JUMPI POP JUMP JUMPDEST PUSH1 0x44 SWAP1 PUSH1 0x40 MLOAD SWAP1 PUSH4 0xE2517D3F PUSH1 0xE0 SHL DUP3 MSTORE CALLER PUSH1 0x4 DUP4 ADD MSTORE PUSH1 0x24 DUP3 ADD MSTORE REVERT JUMPDEST DUP1 PUSH1 0x0 MSTORE PUSH1 0x1 PUSH1 0x20 MSTORE PUSH1 0x40 PUSH1 0x0 KECCAK256 CALLER PUSH1 0x0 MSTORE PUSH1 0x20 MSTORE PUSH1 0xFF PUSH1 0x40 PUSH1 0x0 KECCAK256 SLOAD AND ISZERO PUSH2 0x1393 JUMPI POP JUMP JUMPDEST SWAP1 PUSH1 0x0 SWAP2 DUP1 DUP4 MSTORE PUSH1 0x1 PUSH1 0x20 MSTORE PUSH1 0x40 DUP4 KECCAK256 SWAP2 PUSH1 0x1 DUP1 PUSH1 0xA0 SHL SUB AND SWAP2 DUP3 DUP5 MSTORE PUSH1 0x20 MSTORE PUSH1 0xFF PUSH1 0x40 DUP5 KECCAK256 SLOAD AND ISZERO PUSH1 0x0 EQ PUSH2 0x1452 JUMPI DUP1 DUP4 MSTORE PUSH1 0x1 PUSH1 0x20 MSTORE PUSH1 0x40 DUP4 KECCAK256 DUP3 DUP5 MSTORE PUSH1 0x20 MSTORE PUSH1 0x40 DUP4 KECCAK256 PUSH1 0x1 PUSH1 0xFF NOT DUP3 SLOAD AND OR SWAP1 SSTORE PUSH32 0x2F8788117E7EFF1D82E926EC794901D17C78024A50270940304540A733656F0D CALLER SWAP4 DUP1 LOG4 PUSH1 0x1 SWAP1 JUMP JUMPDEST POP POP SWAP1 JUMP JUMPDEST PUSH2 0x1461 DUP3 DUP3 PUSH2 0x1492 JUMP JUMPDEST SWAP2 DUP3 PUSH2 0x146C JUMPI POP POP SWAP1 JUMP JUMPDEST PUSH1 0x0 SWAP2 DUP3 MSTORE PUSH1 0x2 PUSH1 0x20 MSTORE PUSH1 0x40 SWAP1 SWAP2 KECCAK256 PUSH2 0x148E SWAP2 PUSH1 0x1 PUSH1 0x1 PUSH1 0xA0 SHL SUB AND SWAP1 PUSH2 0x159A JUMP JUMPDEST POP SWAP1 JUMP JUMPDEST SWAP1 PUSH1 0x0 SWAP2 DUP1 DUP4 MSTORE PUSH1 0x1 PUSH1 0x20 MSTORE PUSH1 0x40 DUP4 KECCAK256 SWAP2 PUSH1 0x1 DUP1 PUSH1 0xA0 SHL SUB AND SWAP2 DUP3 DUP5 MSTORE PUSH1 0x20 MSTORE PUSH1 0xFF PUSH1 0x40 DUP5 KECCAK256 SLOAD AND PUSH1 0x0 EQ PUSH2 0x1452 JUMPI DUP1 DUP4 MSTORE PUSH1 0x1 PUSH1 0x20 MSTORE PUSH1 0x40 DUP4 KECCAK256 DUP3 DUP5 MSTORE PUSH1 0x20 MSTORE PUSH1 0x40 DUP4 KECCAK256 PUSH1 0xFF NOT DUP2 SLOAD AND SWAP1 SSTORE PUSH32 0xF6391F5C32D9C69D2A47EA670B442974B53935D1EDC7FD64EB21E047A839171B CALLER SWAP4 DUP1 LOG4 PUSH1 0x1 SWAP1 JUMP JUMPDEST SWAP2 SWAP1 PUSH1 0x1 DUP4 ADD PUSH1 0x0 SWAP1 DUP3 DUP3 MSTORE DUP1 PUSH1 0x20 MSTORE PUSH1 0x40 DUP3 KECCAK256 SLOAD ISZERO PUSH1 0x0 EQ PUSH2 0x1571 JUMPI DUP5 SLOAD SWAP5 PUSH1 0x1 PUSH1 0x40 SHL DUP7 LT ISZERO PUSH2 0x155D JUMPI DUP4 PUSH2 0x154D PUSH2 0x10F4 DUP9 PUSH1 0x1 PUSH1 0x40 SWAP9 SWAP10 SWAP11 ADD DUP6 SSTORE DUP5 PUSH2 0x12F1 JUMP JUMPDEST SWAP1 SSTORE SLOAD SWAP4 DUP3 MSTORE PUSH1 0x20 MSTORE KECCAK256 SSTORE PUSH1 0x1 SWAP1 JUMP JUMPDEST PUSH4 0x4E487B71 PUSH1 0xE0 SHL DUP4 MSTORE PUSH1 0x41 PUSH1 0x4 MSTORE PUSH1 0x24 DUP4 REVERT JUMPDEST POP SWAP3 POP POP JUMP JUMPDEST SWAP2 SWAP1 DUP3 SUB SWAP2 DUP3 GT PUSH2 0x1584 JUMPI JUMP JUMPDEST PUSH4 0x4E487B71 PUSH1 0xE0 SHL PUSH1 0x0 MSTORE PUSH1 0x11 PUSH1 0x4 MSTORE PUSH1 0x24 PUSH1 0x0 REVERT JUMPDEST SWAP1 PUSH1 0x1 DUP3 ADD SWAP1 PUSH1 0x0 SWAP3 DUP2 DUP5 MSTORE DUP3 PUSH1 0x20 MSTORE PUSH1 0x40 DUP5 KECCAK256 SLOAD SWAP1 DUP2 ISZERO ISZERO PUSH1 0x0 EQ PUSH2 0x1683 JUMPI PUSH1 0x0 NOT SWAP2 DUP1 DUP4 ADD DUP2 DUP2 GT PUSH2 0x166F JUMPI DUP3 SLOAD SWAP1 DUP5 DUP3 ADD SWAP2 DUP3 GT PUSH2 0x165B JUMPI DUP2 DUP2 SUB PUSH2 0x1626 JUMPI JUMPDEST POP POP POP DUP1 SLOAD DUP1 ISZERO PUSH2 0x1612 JUMPI DUP3 ADD SWAP2 PUSH2 0x15F5 DUP4 DUP4 PUSH2 0x12F1 JUMP JUMPDEST SWAP1 SWAP2 DUP3 SLOAD SWAP2 PUSH1 0x3 SHL SHL NOT AND SWAP1 SSTORE SSTORE DUP3 MSTORE PUSH1 0x20 MSTORE PUSH1 0x40 DUP2 KECCAK256 SSTORE PUSH1 0x1 SWAP1 JUMP JUMPDEST PUSH4 0x4E487B71 PUSH1 0xE0 SHL DUP7 MSTORE PUSH1 0x31 PUSH1 0x4 MSTORE PUSH1 0x24 DUP7 REVERT JUMPDEST PUSH2 0x1646 PUSH2 0x1636 PUSH2 0x10F4 SWAP4 DUP7 PUSH2 0x12F1 JUMP JUMPDEST SWAP1 SLOAD SWAP1 PUSH1 0x3 SHL SHR SWAP3 DUP4 SWAP3 DUP7 PUSH2 0x12F1 JUMP JUMPDEST SWAP1 SSTORE DUP7 MSTORE DUP5 PUSH1 0x20 MSTORE PUSH1 0x40 DUP7 KECCAK256 SSTORE CODESIZE DUP1 DUP1 PUSH2 0x15DD JUMP JUMPDEST PUSH4 0x4E487B71 PUSH1 0xE0 SHL DUP9 MSTORE PUSH1 0x11 PUSH1 0x4 MSTORE PUSH1 0x24 DUP9 REVERT JUMPDEST PUSH4 0x4E487B71 PUSH1 0xE0 SHL DUP8 MSTORE PUSH1 0x11 PUSH1 0x4 MSTORE PUSH1 0x24 DUP8 REVERT JUMPDEST POP POP POP POP SWAP1 JUMP JUMPDEST PUSH1 0x40 DUP2 ADD SWAP1 DUP2 LT PUSH8 0xFFFFFFFFFFFFFFFF DUP3 GT OR PUSH2 0x16A6 JUMPI PUSH1 0x40 MSTORE JUMP JUMPDEST PUSH4 0x4E487B71 PUSH1 0xE0 SHL PUSH1 0x0 MSTORE PUSH1 0x41 PUSH1 0x4 MSTORE PUSH1 0x24 PUSH1 0x0 REVERT JUMPDEST PUSH1 0xC0 DUP2 ADD SWAP1 DUP2 LT PUSH8 0xFFFFFFFFFFFFFFFF DUP3 GT OR PUSH2 0x16A6 JUMPI PUSH1 0x40 MSTORE JUMP JUMPDEST SWAP1 PUSH1 0x1F DUP1 NOT SWAP2 ADD AND DUP2 ADD SWAP1 DUP2 LT PUSH8 0xFFFFFFFFFFFFFFFF DUP3 GT OR PUSH2 0x16A6 JUMPI PUSH1 0x40 MSTORE JUMP JUMPDEST ISZERO PUSH2 0x1701 JUMPI JUMP JUMPDEST PUSH1 0x40 MLOAD PUSH3 0x461BCD PUSH1 0xE5 SHL DUP2 MSTORE PUSH1 0x20 PUSH1 0x4 DUP3 ADD MSTORE PUSH1 0x24 DUP1 DUP3 ADD MSTORE PUSH32 0x4D756C7469706C696572206D757374206265206174206C656173742031303020 PUSH1 0x44 DUP3 ADD MSTORE PUSH4 0x28317829 PUSH1 0xE0 SHL PUSH1 0x64 DUP3 ADD MSTORE PUSH1 0x84 SWAP1 REVERT JUMPDEST SWAP2 SWAP1 DUP3 ADD DUP1 SWAP3 GT PUSH2 0x1584 JUMPI JUMP JUMPDEST DUP2 DUP2 MUL SWAP3 SWAP2 DUP2 ISZERO SWAP2 DUP5 DIV EQ OR ISZERO PUSH2 0x1584 JUMPI JUMP JUMPDEST DUP2 ISZERO PUSH2 0x177C JUMPI DIV SWAP1 JUMP JUMPDEST PUSH4 0x4E487B71 PUSH1 0xE0 SHL PUSH1 0x0 MSTORE PUSH1 0x12 PUSH1 0x4 MSTORE PUSH1 0x24 PUSH1 0x0 REVERT JUMPDEST SWAP1 PUSH1 0x0 PUSH1 0x20 SWAP2 DUP3 DUP2 MLOAD SWAP2 ADD DUP3 DUP6 GAS CALL ISZERO PUSH2 0x17EE JUMPI PUSH1 0x0 MLOAD RETURNDATASIZE PUSH2 0x17E5 JUMPI POP PUSH1 0x1 PUSH1 0x1 PUSH1 0xA0 SHL SUB DUP2 AND EXTCODESIZE ISZERO JUMPDEST PUSH2 0x17C3 JUMPI POP JUMP JUMPDEST PUSH1 0x40 MLOAD PUSH4 0x5274AFE7 PUSH1 0xE0 SHL DUP2 MSTORE PUSH1 0x1 PUSH1 0x1 PUSH1 0xA0 SHL SUB SWAP1 SWAP2 AND PUSH1 0x4 DUP3 ADD MSTORE PUSH1 0x24 SWAP1 REVERT JUMPDEST PUSH1 0x1 EQ ISZERO PUSH2 0x17BC JUMP JUMPDEST PUSH1 0x40 MLOAD RETURNDATASIZE PUSH1 0x0 DUP3 RETURNDATACOPY RETURNDATASIZE SWAP1 REVERT JUMPDEST PUSH1 0x2 PUSH1 0x0 SLOAD EQ PUSH2 0x180B JUMPI PUSH1 0x2 PUSH1 0x0 SSTORE JUMP JUMPDEST PUSH1 0x40 MLOAD PUSH4 0x3EE5AEB5 PUSH1 0xE0 SHL DUP2 MSTORE PUSH1 0x4 SWAP1 REVERT JUMPDEST PUSH1 0x0 NOT DUP2 EQ PUSH2 0x1584 JUMPI PUSH1 0x1 ADD SWAP1 JUMP JUMPDEST RETURNDATASIZE ISZERO PUSH2 0x1867 JUMPI RETURNDATASIZE SWAP1 PUSH8 0xFFFFFFFFFFFFFFFF DUP3 GT PUSH2 0x16A6 JUMPI PUSH1 0x40 MLOAD SWAP2 PUSH2 0x185B PUSH1 0x1F DUP3 ADD PUSH1 0x1F NOT AND PUSH1 0x20 ADD DUP5 PUSH2 0x16D8 JUMP JUMPDEST DUP3 MSTORE RETURNDATASIZE PUSH1 0x0 PUSH1 0x20 DUP5 ADD RETURNDATACOPY JUMP JUMPDEST PUSH1 0x60 SWAP1 JUMP JUMPDEST ISZERO PUSH2 0x1873 JUMPI JUMP JUMPDEST PUSH1 0x40 MLOAD PUSH3 0x461BCD PUSH1 0xE5 SHL DUP2 MSTORE PUSH1 0x20 PUSH1 0x4 DUP3 ADD MSTORE PUSH1 0x13 PUSH1 0x24 DUP3 ADD MSTORE PUSH19 0x115512081D1C985B9CD9995C8819985A5B1959 PUSH1 0x6A SHL PUSH1 0x44 DUP3 ADD MSTORE PUSH1 0x64 SWAP1 REVERT JUMPDEST PUSH2 0x18B7 DUP2 PUSH2 0x1CDA JUMP JUMPDEST ISZERO PUSH2 0x19AE JUMPI PUSH2 0x18C5 DUP2 PUSH2 0x19FC JUMP JUMPDEST DUP1 PUSH2 0x18CE JUMPI POP POP JUMP JUMPDEST SWAP1 SWAP2 PUSH1 0x0 JUMPDEST PUSH1 0x1 PUSH1 0x1 PUSH1 0xA0 SHL SUB DUP5 AND PUSH1 0x0 DUP2 DUP2 MSTORE PUSH1 0x6 PUSH1 0x20 DUP2 DUP2 MSTORE PUSH1 0x40 SWAP3 DUP4 SWAP1 KECCAK256 DUP1 SLOAD DUP7 LT ISZERO PUSH2 0x1949 JUMPI SWAP2 DUP6 SWAP5 SWAP4 SWAP2 PUSH1 0xFF PUSH1 0x5 PUSH2 0x190F DUP9 PUSH2 0x1923 SWAP11 SWAP8 PUSH2 0x133D JUMP JUMPDEST POP ADD SLOAD AND ISZERO PUSH2 0x1928 JUMPI JUMPDEST POP POP POP POP POP PUSH2 0x181D JUMP JUMPDEST PUSH2 0x18D3 JUMP JUMPDEST PUSH2 0x1938 SWAP5 PUSH1 0x0 MSTORE MSTORE PUSH1 0x0 KECCAK256 PUSH2 0x133D JUMP JUMPDEST POP PUSH1 0x4 TIMESTAMP SWAP2 ADD SSTORE CODESIZE DUP2 DUP2 DUP1 DUP1 PUSH2 0x1919 JUMP JUMPDEST POP POP POP POP POP POP SWAP2 SWAP1 PUSH1 0x20 PUSH32 0xFC30CDDEA38E2BF4D6EA7D3F9ED3B6AD7F176419F4963BD81318067A4AEE73FE SWAP2 PUSH2 0x19A5 PUSH1 0x0 DUP1 DUP1 DUP1 DUP6 PUSH1 0x1 DUP1 PUSH1 0xA0 SHL SUB DUP11 AND SWAP10 DUP11 DUP4 MSTORE PUSH1 0xB DUP10 MSTORE DUP3 PUSH1 0x40 DUP2 KECCAK256 SSTORE GAS CALL PUSH2 0x199F PUSH2 0x182C JUMP JUMPDEST POP PUSH2 0x186C JUMP JUMPDEST PUSH1 0x40 MLOAD SWAP1 DUP2 MSTORE LOG2 JUMP JUMPDEST POP JUMP JUMPDEST SWAP1 PUSH1 0x40 MLOAD PUSH2 0x19BE DUP2 PUSH2 0x16BC JUMP JUMPDEST PUSH1 0xA0 PUSH1 0xFF PUSH1 0x5 DUP4 SWAP6 DUP1 SLOAD DUP6 MSTORE PUSH1 0x1 DUP2 ADD SLOAD PUSH1 0x20 DUP7 ADD MSTORE PUSH1 0x2 DUP2 ADD SLOAD PUSH1 0x40 DUP7 ADD MSTORE PUSH1 0x3 DUP2 ADD SLOAD PUSH1 0x60 DUP7 ADD MSTORE PUSH1 0x4 DUP2 ADD SLOAD PUSH1 0x80 DUP7 ADD MSTORE ADD SLOAD AND ISZERO ISZERO SWAP2 ADD MSTORE JUMP JUMPDEST PUSH2 0x1A05 DUP2 PUSH2 0x1CDA JUMP JUMPDEST ISZERO PUSH2 0x1B31 JUMPI SWAP1 DUP2 PUSH2 0x1A18 PUSH2 0x1A2D SWAP4 PUSH2 0x1CDA JUMP JUMPDEST PUSH8 0xDE0B6B3A7640000 SWAP4 DUP5 SWAP2 PUSH1 0x9 SLOAD SWAP1 PUSH2 0x175F JUMP JUMPDEST DIV PUSH1 0x1 DUP1 PUSH1 0xA0 SHL SUB DUP3 AND SWAP4 PUSH1 0x0 SWAP1 DUP6 DUP3 MSTORE PUSH1 0x20 SWAP1 PUSH1 0xA DUP3 MSTORE PUSH2 0x1A55 PUSH1 0x40 SWAP5 DUP6 DUP6 KECCAK256 SLOAD SWAP1 PUSH2 0x1577 JUMP JUMPDEST SWAP1 PUSH2 0x1A60 DUP5 SWAP7 PUSH2 0x1CDA JUMP JUMPDEST SWAP2 DUP3 PUSH2 0x1A7F JUMPI JUMPDEST POP POP POP PUSH1 0xB SWAP1 PUSH2 0x1A7C SWAP6 SWAP7 DUP4 MSTORE MSTORE KECCAK256 SLOAD PUSH2 0x1752 JUMP JUMPDEST SWAP1 JUMP JUMPDEST SWAP1 SWAP2 SWAP8 DUP5 JUMPDEST DUP2 DUP7 MSTORE PUSH1 0x6 DUP6 MSTORE DUP7 DUP7 KECCAK256 DUP1 SLOAD DUP3 LT ISZERO PUSH2 0x1B1C JUMPI PUSH2 0x437 DUP3 PUSH2 0x1AA4 SWAP3 PUSH2 0x133D JUMP JUMPDEST PUSH1 0xA0 DUP2 ADD MLOAD ISZERO PUSH2 0x1ABE JUMPI JUMPDEST POP PUSH2 0x1AB9 SWAP1 PUSH2 0x181D JUMP JUMPDEST PUSH2 0x1A84 JUMP JUMPDEST DUP1 SWAP9 SWAP2 SWAP9 MLOAD DUP6 DUP2 MUL SWAP1 DUP1 DUP3 DIV DUP8 EQ SWAP1 ISZERO OR ISZERO PUSH2 0x165B JUMPI SWAP2 PUSH1 0x64 PUSH2 0x1B0E PUSH2 0x1B15 SWAP4 DUP10 DUP16 PUSH2 0x1AF7 PUSH2 0x1AF1 DUP13 SWAP3 PUSH2 0x1AB9 SWAP11 PUSH2 0x1772 JUMP JUMPDEST DUP12 PUSH2 0x175F JUMP JUMPDEST DIV SWAP2 ADD MLOAD DUP12 MSTORE PUSH1 0x4 DUP11 MSTORE PUSH1 0x1 DUP13 DUP13 KECCAK256 ADD SLOAD SWAP1 PUSH2 0x175F JUMP JUMPDEST DIV SWAP1 PUSH2 0x1752 JUMP JUMPDEST SWAP8 SWAP1 PUSH2 0x1AAF JUMP JUMPDEST POP SWAP1 SWAP9 POP DUP4 SWAP3 POP PUSH2 0x1A7C SWAP2 POP PUSH1 0xB SWAP1 POP PUSH2 0x1A67 JUMP JUMPDEST POP PUSH1 0x0 SWAP1 JUMP JUMPDEST PUSH1 0x7 SLOAD ISZERO PUSH2 0x1BAF JUMPI PUSH8 0xDE0B6B3A7640000 DUP1 DUP3 MUL SWAP1 DUP3 DUP3 DIV EQ DUP3 ISZERO OR ISZERO PUSH2 0x1584 JUMPI PUSH32 0x6D1C76D614228B523BAA4DCD9539E2C713B54FF4AB3FF2D1627E7F6CD32BE442 SWAP2 PUSH2 0x1B94 PUSH2 0x1B8C PUSH1 0x20 SWAP4 PUSH1 0x7 SLOAD SWAP1 PUSH2 0x1772 JUMP JUMPDEST PUSH1 0x9 SLOAD PUSH2 0x1752 JUMP JUMPDEST PUSH1 0x9 SSTORE PUSH2 0x1BA3 DUP2 PUSH1 0x8 SLOAD PUSH2 0x1752 JUMP JUMPDEST PUSH1 0x8 SSTORE PUSH1 0x40 MLOAD SWAP1 DUP2 MSTORE LOG1 JUMP JUMPDEST PUSH1 0x0 DUP1 JUMPDEST PUSH2 0x100 DUP2 LT PUSH2 0x1C38 JUMPI JUMPDEST POP ISZERO PUSH2 0x1BFE JUMPI PUSH1 0x0 DUP1 MSTORE PUSH1 0x2 PUSH1 0x20 MSTORE PUSH1 0x40 PUSH1 0x0 KECCAK256 SWAP1 DUP2 SLOAD ISZERO PUSH2 0x12DB JUMPI PUSH1 0x0 DUP1 DUP1 DUP1 SWAP4 PUSH2 0x1BFC SWAP6 DUP3 MSTORE PUSH1 0x1 DUP1 PUSH1 0xA0 SHL SUB PUSH1 0x20 DUP4 KECCAK256 SLOAD AND GAS CALL PUSH2 0x199F PUSH2 0x182C JUMP JUMPDEST JUMP JUMPDEST PUSH1 0x40 MLOAD PUSH3 0x461BCD PUSH1 0xE5 SHL DUP2 MSTORE PUSH1 0x20 PUSH1 0x4 DUP3 ADD MSTORE PUSH1 0x12 PUSH1 0x24 DUP3 ADD MSTORE PUSH18 0x4E6F2061646D696E20617661696C61626C65 PUSH1 0x70 SHL PUSH1 0x44 DUP3 ADD MSTORE PUSH1 0x64 SWAP1 REVERT JUMPDEST PUSH1 0x40 MLOAD PUSH4 0x2404341F PUSH1 0xE2 SHL DUP2 MSTORE PUSH1 0x0 PUSH1 0x4 DUP3 ADD MSTORE PUSH1 0x24 DUP2 ADD DUP3 SWAP1 MSTORE PUSH1 0x20 DUP1 DUP3 PUSH1 0x44 DUP2 ADDRESS GAS STATICCALL SWAP2 PUSH1 0x0 SWAP2 DUP4 PUSH2 0x1C9D JUMPI JUMPDEST POP POP SWAP1 ISZERO PUSH1 0x0 EQ PUSH2 0x1C78 JUMPI POP PUSH2 0x1BBD JUMP JUMPDEST PUSH1 0x1 PUSH1 0x1 PUSH1 0xA0 SHL SUB AND PUSH2 0x1C93 JUMPI PUSH2 0x1C8E SWAP1 PUSH2 0x181D JUMP JUMPDEST PUSH2 0x1BB3 JUMP JUMPDEST POP POP PUSH1 0x1 CODESIZE PUSH2 0x1BBD JUMP JUMPDEST DUP2 DUP2 RETURNDATASIZE DUP4 GT PUSH2 0x1CD3 JUMPI JUMPDEST PUSH2 0x1CB1 DUP2 DUP4 PUSH2 0x16D8 JUMP JUMPDEST DUP2 ADD SUB SLT PUSH2 0x1CE JUMPI MLOAD SWAP1 PUSH1 0x1 PUSH1 0x1 PUSH1 0xA0 SHL SUB DUP3 AND DUP3 SUB PUSH2 0x594 JUMPI POP CODESIZE DUP1 PUSH2 0x1C67 JUMP JUMPDEST POP RETURNDATASIZE PUSH2 0x1CA7 JUMP JUMPDEST PUSH1 0x0 DUP1 JUMPDEST PUSH1 0x1 DUP1 PUSH1 0xA0 SHL SUB DUP4 AND DUP1 PUSH1 0x0 MSTORE PUSH1 0x6 PUSH1 0x20 DUP2 DUP2 MSTORE PUSH1 0x40 SWAP3 DUP4 PUSH1 0x0 KECCAK256 DUP1 SLOAD DUP7 LT ISZERO PUSH2 0x1D5A JUMPI PUSH1 0x5 PUSH2 0x1D10 DUP8 PUSH1 0xFF SWAP4 PUSH2 0x133D JUMP JUMPDEST POP ADD SLOAD AND ISZERO PUSH2 0x1D2C JUMPI JUMPDEST POP POP POP POP PUSH2 0x1D27 SWAP1 PUSH2 0x181D JUMP JUMPDEST PUSH2 0x1CDE JUMP JUMPDEST SWAP4 PUSH2 0x1D50 SWAP4 DUP2 SWAP7 SWAP4 PUSH2 0x1D48 SWAP4 PUSH2 0x1D27 SWAP8 PUSH1 0x0 MSTORE MSTORE PUSH1 0x0 KECCAK256 PUSH2 0x133D JUMP JUMPDEST POP SLOAD SWAP1 PUSH2 0x1752 JUMP JUMPDEST SWAP2 SWAP1 CODESIZE DUP1 DUP1 PUSH2 0x1D1A JUMP JUMPDEST POP POP POP POP POP POP SWAP1 POP SWAP1 JUMP JUMPDEST PUSH8 0xFFFFFFFFFFFFFFFF DUP2 GT PUSH2 0x16A6 JUMPI PUSH1 0x5 SHL PUSH1 0x20 ADD SWAP1 JUMP JUMPDEST SWAP1 PUSH2 0x1D87 DUP3 PUSH2 0x1D65 JUMP JUMPDEST PUSH2 0x1D94 PUSH1 0x40 MLOAD SWAP2 DUP3 PUSH2 0x16D8 JUMP JUMPDEST DUP3 DUP2 MSTORE DUP1 SWAP3 PUSH2 0x1DA5 PUSH1 0x1F NOT SWAP2 PUSH2 0x1D65 JUMP JUMPDEST ADD SWAP1 PUSH1 0x20 CALLDATASIZE SWAP2 ADD CALLDATACOPY JUMP JUMPDEST DUP1 MLOAD DUP3 LT ISZERO PUSH2 0x12DB JUMPI PUSH1 0x20 SWAP2 PUSH1 0x5 SHL ADD ADD SWAP1 JUMP JUMPDEST PUSH1 0x40 MLOAD SWAP1 PUSH1 0x5 SLOAD DUP1 DUP4 MSTORE DUP3 PUSH1 0x20 SWAP2 DUP3 DUP3 ADD SWAP1 PUSH1 0x5 PUSH1 0x0 MSTORE PUSH32 0x36B6384B5ECA791C62761152D0C79BB0604C104A5FB6F4EB0703F3154BB3DB0 SWAP4 PUSH1 0x0 SWAP1 JUMPDEST DUP3 DUP3 LT PUSH2 0x1E16 JUMPI POP POP POP PUSH2 0x1BFC SWAP3 POP SUB DUP4 PUSH2 0x16D8 JUMP JUMPDEST DUP6 SLOAD DUP5 MSTORE PUSH1 0x1 SWAP6 DUP7 ADD SWAP6 DUP9 SWAP6 POP SWAP4 DUP2 ADD SWAP4 SWAP1 SWAP2 ADD SWAP1 PUSH2 0x1E00 JUMP INVALID LOG2 PUSH5 0x6970667358 0x22 SLT KECCAK256 0x5D 0xE7 0xCB INVALID SWAP9 PUSH29 0xA968942951AC21D1D5CB41B4365DAA403B21E67379DDD239AFFA64736F PUSH13 0x63430008140033000000000000 "},"methodIdentifiers":{"DEFAULT_ADMIN_ROLE()":"a217fddf","FEE_DISTRIBUTOR_ROLE()":"0cdac963","accumulatedRewardsPerToken()":"38962186","addStakingTier(uint256,uint256)":"111a9802","calculatePendingRewards(address)":"097aad10","claimRewards()":"372500ab","distributeRewards()":"6f4a2cd0","earlyWithdrawalPenalty()":"291a3d9e","getFeeDiscount(address)":"b7fa7cfc","getLockDurations()":"76520c6d","getRoleAdmin(bytes32)":"248a9ca3","getRoleMember(bytes32,uint256)":"9010d07c","getRoleMemberCount(bytes32)":"ca15c873","getRoleMembers(bytes32)":"a3246ad3","getStakesByUser(address)":"c0d8fd3f","getStakingTier(uint256)":"b3c6cd76","getTotalStakedByUser(address)":"0951984d","grantRole(bytes32,address)":"2f2ff15d","hasRole(bytes32,address)":"91d14854","lockDurations(uint256)":"32298be1","omnToken()":"17589d2b","pendingRewards(address)":"31d7a262","renounceRole(bytes32,address)":"36568abe","revokeRole(bytes32,address)":"d547741f","stake(uint256,uint256)":"7b0472f0","stakingTiers(uint256)":"d50267ee","supportsInterface(bytes4)":"01ffc9a7","totalRewardsDistributed()":"ee172546","totalStaked()":"817b1cd2","unstake(uint256)":"2e17de78","updateEarlyWithdrawalPenalty(uint256)":"d1e85a74","updateStakingTier(uint256,uint256)":"68a34f98","userRewardDebts(address)":"8686b39a","userStakes(address,uint256)":"b5d5b5fa"}}}}}