{
  "_format": "hh-sol-artifact-1",
  "contractName": "EventEmitter",
  "sourceName": "contracts/EventEmitter.sol",
  "abi": [
    {
      "inputs": [
        {
          "internalType": "address",
          "name": "_securityModule",
          "type": "address"
        }
      ],
      "stateMutability": "nonpayable",
      "type": "constructor"
    },
    {
      "inputs": [],
      "name": "InvalidCategory",
      "type": "error"
    },
    {
      "inputs": [],
      "name": "Unauthorized",
      "type": "error"
    },
    {
      "anonymous": false,
      "inputs": [
        {
          "indexed": true,
          "internalType": "enum EventEmitter.EventCategory",
          "name": "category",
          "type": "uint8"
        },
        {
          "indexed": true,
          "internalType": "address",
          "name": "trader",
          "type": "address"
        },
        {
          "indexed": false,
          "internalType": "bytes",
          "name": "collateralData",
          "type": "bytes"
        }
      ],
      "name": "CollateralChanged",
      "type": "event"
    },
    {
      "anonymous": false,
      "inputs": [
        {
          "indexed": true,
          "internalType": "address",
          "name": "emitter",
          "type": "address"
        }
      ],
      "name": "EmitterAdded",
      "type": "event"
    },
    {
      "anonymous": false,
      "inputs": [
        {
          "indexed": true,
          "internalType": "address",
          "name": "emitter",
          "type": "address"
        }
      ],
      "name": "EmitterRemoved",
      "type": "event"
    },
    {
      "anonymous": false,
      "inputs": [
        {
          "indexed": true,
          "internalType": "enum EventEmitter.EventCategory",
          "name": "category",
          "type": "uint8"
        },
        {
          "indexed": true,
          "internalType": "bytes32",
          "name": "assetKey",
          "type": "bytes32"
        },
        {
          "indexed": false,
          "internalType": "bytes",
          "name": "fundingData",
          "type": "bytes"
        }
      ],
      "name": "FundingUpdated",
      "type": "event"
    },
    {
      "anonymous": false,
      "inputs": [
        {
          "indexed": true,
          "internalType": "enum EventEmitter.EventCategory",
          "name": "category",
          "type": "uint8"
        },
        {
          "indexed": true,
          "internalType": "bytes32",
          "name": "assetKey",
          "type": "bytes32"
        },
        {
          "indexed": true,
          "internalType": "address",
          "name": "trader",
          "type": "address"
        },
        {
          "indexed": false,
          "internalType": "bytes",
          "name": "liquidationData",
          "type": "bytes"
        }
      ],
      "name": "LiquidationOccurred",
      "type": "event"
    },
    {
      "anonymous": false,
      "inputs": [
        {
          "indexed": true,
          "internalType": "enum EventEmitter.EventCategory",
          "name": "category",
          "type": "uint8"
        },
        {
          "indexed": true,
          "internalType": "bytes32",
          "name": "assetKey",
          "type": "bytes32"
        },
        {
          "indexed": true,
          "internalType": "address",
          "name": "trader",
          "type": "address"
        },
        {
          "indexed": false,
          "internalType": "bytes",
          "name": "orderData",
          "type": "bytes"
        }
      ],
      "name": "OrderUpdated",
      "type": "event"
    },
    {
      "anonymous": false,
      "inputs": [
        {
          "indexed": true,
          "internalType": "address",
          "name": "previousOwner",
          "type": "address"
        },
        {
          "indexed": true,
          "internalType": "address",
          "name": "newOwner",
          "type": "address"
        }
      ],
      "name": "OwnershipTransferred",
      "type": "event"
    },
    {
      "anonymous": false,
      "inputs": [
        {
          "indexed": true,
          "internalType": "enum EventEmitter.EventCategory",
          "name": "category",
          "type": "uint8"
        },
        {
          "indexed": true,
          "internalType": "bytes32",
          "name": "assetKey",
          "type": "bytes32"
        },
        {
          "indexed": true,
          "internalType": "address",
          "name": "trader",
          "type": "address"
        },
        {
          "indexed": false,
          "internalType": "bytes",
          "name": "positionData",
          "type": "bytes"
        }
      ],
      "name": "PositionUpdated",
      "type": "event"
    },
    {
      "anonymous": false,
      "inputs": [
        {
          "indexed": true,
          "internalType": "enum EventEmitter.EventCategory",
          "name": "category",
          "type": "uint8"
        },
        {
          "indexed": false,
          "internalType": "bytes",
          "name": "systemData",
          "type": "bytes"
        }
      ],
      "name": "SystemEvent",
      "type": "event"
    },
    {
      "anonymous": false,
      "inputs": [
        {
          "indexed": true,
          "internalType": "enum EventEmitter.EventCategory",
          "name": "category",
          "type": "uint8"
        },
        {
          "indexed": true,
          "internalType": "bytes32",
          "name": "assetKey",
          "type": "bytes32"
        },
        {
          "indexed": true,
          "internalType": "address",
          "name": "trader",
          "type": "address"
        },
        {
          "indexed": false,
          "internalType": "bytes",
          "name": "tradeData",
          "type": "bytes"
        }
      ],
      "name": "TradeExecuted",
      "type": "event"
    },
    {
      "inputs": [
        {
          "internalType": "address",
          "name": "emitter",
          "type": "address"
        }
      ],
      "name": "addAuthorizedEmitter",
      "outputs": [],
      "stateMutability": "nonpayable",
      "type": "function"
    },
    {
      "inputs": [
        {
          "internalType": "address",
          "name": "",
          "type": "address"
        }
      ],
      "name": "authorizedEmitters",
      "outputs": [
        {
          "internalType": "bool",
          "name": "",
          "type": "bool"
        }
      ],
      "stateMutability": "view",
      "type": "function"
    },
    {
      "inputs": [
        {
          "internalType": "address",
          "name": "trader",
          "type": "address"
        },
        {
          "internalType": "uint256",
          "name": "amount",
          "type": "uint256"
        },
        {
          "internalType": "bool",
          "name": "isDeposit",
          "type": "bool"
        }
      ],
      "name": "emitCollateralEvent",
      "outputs": [],
      "stateMutability": "nonpayable",
      "type": "function"
    },
    {
      "inputs": [
        {
          "internalType": "string",
          "name": "asset",
          "type": "string"
        },
        {
          "internalType": "int256",
          "name": "fundingRate",
          "type": "int256"
        },
        {
          "internalType": "uint256",
          "name": "longSize",
          "type": "uint256"
        },
        {
          "internalType": "uint256",
          "name": "shortSize",
          "type": "uint256"
        }
      ],
      "name": "emitFundingEvent",
      "outputs": [],
      "stateMutability": "nonpayable",
      "type": "function"
    },
    {
      "inputs": [
        {
          "internalType": "uint256",
          "name": "positionId",
          "type": "uint256"
        },
        {
          "internalType": "address",
          "name": "trader",
          "type": "address"
        },
        {
          "internalType": "address",
          "name": "liquidator",
          "type": "address"
        },
        {
          "internalType": "string",
          "name": "asset",
          "type": "string"
        },
        {
          "internalType": "uint128",
          "name": "size",
          "type": "uint128"
        },
        {
          "internalType": "uint128",
          "name": "price",
          "type": "uint128"
        },
        {
          "internalType": "uint256",
          "name": "penalty",
          "type": "uint256"
        }
      ],
      "name": "emitLiquidationEvent",
      "outputs": [],
      "stateMutability": "nonpayable",
      "type": "function"
    },
    {
      "inputs": [
        {
          "internalType": "uint256",
          "name": "orderId",
          "type": "uint256"
        },
        {
          "internalType": "address",
          "name": "trader",
          "type": "address"
        },
        {
          "internalType": "string",
          "name": "asset",
          "type": "string"
        },
        {
          "internalType": "bool",
          "name": "isBuy",
          "type": "bool"
        },
        {
          "internalType": "uint128",
          "name": "price",
          "type": "uint128"
        },
        {
          "internalType": "uint128",
          "name": "amount",
          "type": "uint128"
        },
        {
          "internalType": "bool",
          "name": "isMarket",
          "type": "bool"
        },
        {
          "internalType": "bool",
          "name": "isFilled",
          "type": "bool"
        }
      ],
      "name": "emitOrderEvent",
      "outputs": [],
      "stateMutability": "nonpayable",
      "type": "function"
    },
    {
      "inputs": [
        {
          "internalType": "uint256",
          "name": "positionId",
          "type": "uint256"
        },
        {
          "internalType": "address",
          "name": "trader",
          "type": "address"
        },
        {
          "internalType": "string",
          "name": "asset",
          "type": "string"
        },
        {
          "internalType": "uint128",
          "name": "size",
          "type": "uint128"
        },
        {
          "internalType": "uint128",
          "name": "price",
          "type": "uint128"
        },
        {
          "internalType": "bool",
          "name": "isLong",
          "type": "bool"
        },
        {
          "internalType": "uint256",
          "name": "leverage",
          "type": "uint256"
        }
      ],
      "name": "emitPositionEvent",
      "outputs": [],
      "stateMutability": "nonpayable",
      "type": "function"
    },
    {
      "inputs": [
        {
          "internalType": "bytes",
          "name": "data",
          "type": "bytes"
        }
      ],
      "name": "emitSystemEvent",
      "outputs": [],
      "stateMutability": "nonpayable",
      "type": "function"
    },
    {
      "inputs": [
        {
          "internalType": "string",
          "name": "asset",
          "type": "string"
        },
        {
          "internalType": "address",
          "name": "trader",
          "type": "address"
        },
        {
          "internalType": "uint128",
          "name": "amount",
          "type": "uint128"
        },
        {
          "internalType": "uint128",
          "name": "price",
          "type": "uint128"
        },
        {
          "internalType": "bool",
          "name": "isLong",
          "type": "bool"
        },
        {
          "internalType": "uint256",
          "name": "fee",
          "type": "uint256"
        }
      ],
      "name": "emitTradeEvent",
      "outputs": [],
      "stateMutability": "nonpayable",
      "type": "function"
    },
    {
      "inputs": [],
      "name": "owner",
      "outputs": [
        {
          "internalType": "address",
          "name": "",
          "type": "address"
        }
      ],
      "stateMutability": "view",
      "type": "function"
    },
    {
      "inputs": [
        {
          "internalType": "address",
          "name": "emitter",
          "type": "address"
        }
      ],
      "name": "removeAuthorizedEmitter",
      "outputs": [],
      "stateMutability": "nonpayable",
      "type": "function"
    },
    {
      "inputs": [],
      "name": "securityModule",
      "outputs": [
        {
          "internalType": "contract SecurityModule",
          "name": "",
          "type": "address"
        }
      ],
      "stateMutability": "view",
      "type": "function"
    },
    {
      "inputs": [
        {
          "internalType": "address",
          "name": "newOwner",
          "type": "address"
        }
      ],
      "name": "transferOwnership",
      "outputs": [],
      "stateMutability": "nonpayable",
      "type": "function"
    }
  ],
  "bytecode": "0x6080346100e057601f610fe238819003918201601f19168301916001600160401b038311848410176100e5578084926020946040528339810103126100e057516001600160a01b038116908190036100e057801561009b5760018060a01b031990816001541617600155339060005416176000553060005260026020526040600020600160ff19825416179055604051610ee690816100fc8239f35b60405162461bcd60e51b815260206004820152601760248201527f496e76616c6964207365637572697479206d6f64756c650000000000000000006044820152606490fd5b600080fd5b634e487b7160e01b600052604160045260246000fdfe608080604052600436101561001357600080fd5b60003560e01c9081630671925314610bb15750806308e1b7ca146109d95780630a537f3b1461091f5780630b83a0e2146108e057806311cdb4531461073b578063380ef3fe14610712578063666b22771461061b57806367aa2416146105af57806378079316146103985780638da5cb5b1461036f578063aac84224146102d4578063b1e9419f146101775763f2fde38b146100ae57600080fd5b34610172576020366003190112610172576100c7610d92565b6000546001600160a01b038082169233849003610161571691821561011d5782907f8be0079c531659141344cd1fd0a4f28419497f9722a3daafe3b4186f6b6457e0600080a36001600160a01b03191617600055005b606460405162461bcd60e51b815260206004820152602060248201527f4e6577206f776e65722063616e6e6f74206265207a65726f20616464726573736044820152fd5b6040516282b42960e81b8152600490fd5b600080fd5b346101725760803660031901126101725767ffffffffffffffff600435818111610172576101a9903690600401610d4e565b919091336000526020906002825260ff6040600020541615610161576040519160a0830193838510908511176102be576102a57fea2d2c297d00fe8a250a41ee387c111b89f3af08522c983b724e02c08e1ddc7a9361027e9360039660405261021336828a610e29565b825283820190602435825260408301986044358a5260608401906064358252608085019242845261025d886040518381948383019687378101600083820152038084520182610e07565b5190209960405197889588808801525160a0604088015260e0870190610e70565b935160608601525160808501525160a08401525160c083015203601f198101845283610e07565b6102b9604051928284938452830190610e70565b0390a3005b634e487b7160e01b600052604160045260246000fd5b346101725760203660031901126101725760043567ffffffffffffffff811161017257610305903690600401610d4e565b9033600052600260205260ff6040600020541615610161578160407fac32de07ce9c453697a8fac4799eb1e5098171184f7ad7eab4da05344be359ad92600794825193849260208452816020850152848401376000828201840152601f01601f19168101030190a2005b34610172576000366003190112610172576000546040516001600160a01b039091168152602090f35b3461017257610100366003190112610172576103b2610d7c565b67ffffffffffffffff90604435828111610172576103d4903690600401610d4e565b6064358015158103610172576103e8610dbe565b926103f1610dd4565b9260c43580151581036101725760e4359081151582036101725733600052600260205260ff6040600020541615610161576040519889610120810110906101208b0111176102be576001600160801b037fe5ad38e2f2b8122daef928f75e33eda68e34b6312141837beb944e8a72bad24896816005998c60606105aa9a8e6101208401604052600435845260018060a01b03166020840152610494368b8d610e29565b604084015215159101521660808c01521660a08a0152151560c0890152151560e0880152426101008801526104e360206040518381948383019687378101600083820152038084520182610e07565b5190209361058d60405180976020808301528051604083015260018060a01b03602082015116606083015261010061052c60408301516101206080860152610160850190610e70565b916060810151151560a08501526001600160801b0360808201511660c08501526001600160801b0360a08201511660e085015260c081015115158285015260e08101511515610120850152015161014083015203601f198101885287610e07565b6040519182916020835260018060a01b0316966020830190610e70565b0390a4005b34610172576020366003190112610172576105c8610d92565b6000546001600160a01b039190821633036101615716806000526002602052604060002060ff1981541690557fbf2f663c55665fe6f273358a189ee90de5b621e4f076167a0d6364a1b275d675600080a2005b3461017257606036600319011261017257610634610d92565b604435908115158092036101725733600052600260205260ff60406000205416156101615760405167ffffffffffffffff9160808201838111838210176102be5760405260018060a01b0316928382526060602083019260243584526040810192835201904282526040519285602085015251604084015251151560608301525160808201526080815260a0810191818310908311176102be57817f2ad91c5e7a25f7ee3da6af1f0b6790d29b38b3e71a7c2ee4fd58cec2a388b1c79160049360405260208252609f199061070c60c0820182610e70565b030190a3005b34610172576000366003190112610172576001546040516001600160a01b039091168152602090f35b346101725760e036600319011261017257610754610d7c565b60443567ffffffffffffffff811161017257610774903690600401610d4e565b919061077e610da8565b610786610dbe565b9160a4359485151580960361017257336000526020906002825260ff6040600020541615610161576001947ff1f85e415765aef2ab7f39c6fa04de3ce6edd0653aa57b8c4f2dc900e688e889946108cc92604051926107e484610dea565b600435845285840196898060a01b03809b169b8c8952610805368584610e29565b946040870195865260608701956001600160801b03809216875281608089019516855260a0880192835260c088019360c435855260e08901964288526108648c6040518381948383019687378101600083820152038084520182610e07565b5190209d6040519b8c998c808c01525160408b01525116606089015251938161089b610100968760808c01526101408b0190610e70565b97511660a0890152511660c087015251151560e086015251908401525161012083015203601f198101845283610e07565b6105aa604051928284938452830190610e70565b34610172576020366003190112610172576001600160a01b03610901610d92565b166000526002602052602060ff604060002054166040519015158152f35b3461017257602036600319011261017257610938610d92565b6000546001600160a01b0391908216330361016157168015610994578060005260026020526040600020600160ff198254161790557fcb10c491728fac39ab844a90643e941a138d2c966e56e378fd63db6ada170799600080a2005b60405162461bcd60e51b815260206004820152601760248201527f496e76616c696420656d697474657220616464726573730000000000000000006044820152606490fd5b346101725760e0366003190112610172576109f2610d7c565b604435906001600160a01b03821682036101725760643567ffffffffffffffff811161017257610a26903690600401610d4e565b90610a2f610dbe565b90610a38610dd4565b9033600052600260205260ff6040600020541615610161576002936001600160801b036105aa93817fe3ad5d77d84aac9a79a3ef89e70cbf4b17c0a54ae23f6c020e2b22bf8824858d9660405199610a8f8b610dea565b6004358b526001600160a01b0390811660208c018190529b1660408b0152610ab8368688610e29565b60608b01521660808901521660a087015260c43560c08701524260e0870152610afb60206040518381948383019687378101600083820152038084520182610e07565b51902093610b9d60405180926020808301528051604083015260018060a01b03602082015116606083015260018060a01b03604082015116608083015260e0606082015191610b58610100938460a0870152610140860190610e70565b926001600160801b0360808301511660c08601526001600160801b0360a0830151168386015260c082015190850152015161012083015203601f198101835282610e07565b604051918291602083526020830190610e70565b346101725760c03660031901126101725767ffffffffffffffff9060043582811161017257610be4903690600401610d4e565b91610bed610d7c565b604435916001600160801b039586841680940361017257610c0c610da8565b956084359485151580960361017257336000526020936002855260ff6040600020541615610d4057506040519160e0830193838510908511176102be576000977f1a36f9b1c4288b4d1c9a7319ed59738676ed73c295e639d0b9cb662cf3823fec976108cc9560405260018060a01b038098169b8c8652610c8e368585610e29565b9b8887019c8d52604087019586528160608801911681526080870192835281610d0e60a089019560a435875260c08a0197428952610ce58d6040518381948383019687378101600083820152038084520182610e07565b5190209e6040519c8d9a8d808d0152511660408b01525160e060608b01526101208a0190610e70565b9651166080880152511660a086015251151560c08501525160e08401525161010083015203601f198101845283610e07565b6282b42960e81b8152600490fd5b9181601f840112156101725782359167ffffffffffffffff8311610172576020838186019501011161017257565b602435906001600160a01b038216820361017257565b600435906001600160a01b038216820361017257565b606435906001600160801b038216820361017257565b608435906001600160801b038216820361017257565b60a435906001600160801b038216820361017257565b610100810190811067ffffffffffffffff8211176102be57604052565b90601f8019910116810190811067ffffffffffffffff8211176102be57604052565b92919267ffffffffffffffff82116102be5760405191610e53601f8201601f191660200184610e07565b829481845281830111610172578281602093846000960137010152565b919082519283825260005b848110610e9c575050826000602080949584010152601f8019910116010190565b602081830181015184830182015201610e7b56fea2646970667358221220edc51a7227242a09e440b9ab30db4327af3319e202cd60be6f1b476e01f3ae8864736f6c63430008140033",
  "linkReferences": {},
  "deployedLinkReferences": {}
}