{
  "_format": "hh-sol-artifact-1",
  "contractName": "Governance",
  "sourceName": "contracts/Governance.sol",
  "abi": [
    {
      "inputs": [
        {
          "internalType": "address",
          "name": "_governanceToken",
          "type": "address"
        }
      ],
      "stateMutability": "nonpayable",
      "type": "constructor"
    },
    {
      "inputs": [],
      "name": "AlreadyVoted",
      "type": "error"
    },
    {
      "inputs": [],
      "name": "ExecutionFailed",
      "type": "error"
    },
    {
      "inputs": [],
      "name": "InvalidProposal",
      "type": "error"
    },
    {
      "inputs": [],
      "name": "ProposalAlreadyExecuted",
      "type": "error"
    },
    {
      "inputs": [],
      "name": "ProposalNotActive",
      "type": "error"
    },
    {
      "inputs": [],
      "name": "ProposalNotSucceeded",
      "type": "error"
    },
    {
      "inputs": [],
      "name": "TimelockNotExpired",
      "type": "error"
    },
    {
      "inputs": [],
      "name": "Unauthorized",
      "type": "error"
    },
    {
      "anonymous": false,
      "inputs": [
        {
          "indexed": true,
          "internalType": "address",
          "name": "oldAdmin",
          "type": "address"
        },
        {
          "indexed": true,
          "internalType": "address",
          "name": "newAdmin",
          "type": "address"
        }
      ],
      "name": "AdminTransferred",
      "type": "event"
    },
    {
      "anonymous": false,
      "inputs": [
        {
          "indexed": true,
          "internalType": "address",
          "name": "token",
          "type": "address"
        }
      ],
      "name": "GovernanceTokenSet",
      "type": "event"
    },
    {
      "anonymous": false,
      "inputs": [
        {
          "indexed": false,
          "internalType": "string",
          "name": "param",
          "type": "string"
        },
        {
          "indexed": false,
          "internalType": "uint256",
          "name": "value",
          "type": "uint256"
        }
      ],
      "name": "ParameterUpdated",
      "type": "event"
    },
    {
      "anonymous": false,
      "inputs": [
        {
          "indexed": true,
          "internalType": "uint256",
          "name": "proposalId",
          "type": "uint256"
        }
      ],
      "name": "ProposalCanceled",
      "type": "event"
    },
    {
      "anonymous": false,
      "inputs": [
        {
          "indexed": true,
          "internalType": "uint256",
          "name": "proposalId",
          "type": "uint256"
        },
        {
          "indexed": true,
          "internalType": "address",
          "name": "proposer",
          "type": "address"
        },
        {
          "indexed": false,
          "internalType": "string",
          "name": "description",
          "type": "string"
        },
        {
          "indexed": false,
          "internalType": "uint256",
          "name": "startBlock",
          "type": "uint256"
        },
        {
          "indexed": false,
          "internalType": "uint256",
          "name": "endBlock",
          "type": "uint256"
        }
      ],
      "name": "ProposalCreated",
      "type": "event"
    },
    {
      "anonymous": false,
      "inputs": [
        {
          "indexed": true,
          "internalType": "uint256",
          "name": "proposalId",
          "type": "uint256"
        }
      ],
      "name": "ProposalExecuted",
      "type": "event"
    },
    {
      "anonymous": false,
      "inputs": [
        {
          "indexed": true,
          "internalType": "address",
          "name": "voter",
          "type": "address"
        },
        {
          "indexed": true,
          "internalType": "uint256",
          "name": "proposalId",
          "type": "uint256"
        },
        {
          "indexed": false,
          "internalType": "bool",
          "name": "support",
          "type": "bool"
        },
        {
          "indexed": false,
          "internalType": "uint256",
          "name": "votes",
          "type": "uint256"
        }
      ],
      "name": "VoteCast",
      "type": "event"
    },
    {
      "inputs": [],
      "name": "admin",
      "outputs": [
        {
          "internalType": "address",
          "name": "",
          "type": "address"
        }
      ],
      "stateMutability": "view",
      "type": "function"
    },
    {
      "inputs": [
        {
          "internalType": "uint256",
          "name": "proposalId",
          "type": "uint256"
        }
      ],
      "name": "cancelProposal",
      "outputs": [],
      "stateMutability": "nonpayable",
      "type": "function"
    },
    {
      "inputs": [
        {
          "internalType": "uint256",
          "name": "proposalId",
          "type": "uint256"
        },
        {
          "internalType": "bool",
          "name": "support",
          "type": "bool"
        }
      ],
      "name": "castVote",
      "outputs": [],
      "stateMutability": "nonpayable",
      "type": "function"
    },
    {
      "inputs": [
        {
          "internalType": "uint256",
          "name": "proposalId",
          "type": "uint256"
        }
      ],
      "name": "executeProposal",
      "outputs": [],
      "stateMutability": "nonpayable",
      "type": "function"
    },
    {
      "inputs": [],
      "name": "executionDelay",
      "outputs": [
        {
          "internalType": "uint256",
          "name": "",
          "type": "uint256"
        }
      ],
      "stateMutability": "view",
      "type": "function"
    },
    {
      "inputs": [
        {
          "internalType": "uint256",
          "name": "proposalId",
          "type": "uint256"
        }
      ],
      "name": "getProposal",
      "outputs": [
        {
          "components": [
            {
              "internalType": "uint256",
              "name": "id",
              "type": "uint256"
            },
            {
              "internalType": "address",
              "name": "proposer",
              "type": "address"
            },
            {
              "internalType": "string",
              "name": "description",
              "type": "string"
            },
            {
              "internalType": "uint256",
              "name": "startBlock",
              "type": "uint256"
            },
            {
              "internalType": "uint256",
              "name": "endBlock",
              "type": "uint256"
            },
            {
              "internalType": "uint256",
              "name": "forVotes",
              "type": "uint256"
            },
            {
              "internalType": "uint256",
              "name": "againstVotes",
              "type": "uint256"
            },
            {
              "internalType": "bool",
              "name": "executed",
              "type": "bool"
            },
            {
              "internalType": "bool",
              "name": "canceled",
              "type": "bool"
            },
            {
              "internalType": "enum Governance.ProposalState",
              "name": "state",
              "type": "uint8"
            }
          ],
          "internalType": "struct Governance.ProposalView",
          "name": "",
          "type": "tuple"
        }
      ],
      "stateMutability": "view",
      "type": "function"
    },
    {
      "inputs": [
        {
          "internalType": "address",
          "name": "account",
          "type": "address"
        }
      ],
      "name": "getVotes",
      "outputs": [
        {
          "internalType": "uint256",
          "name": "",
          "type": "uint256"
        }
      ],
      "stateMutability": "view",
      "type": "function"
    },
    {
      "inputs": [],
      "name": "governanceToken",
      "outputs": [
        {
          "internalType": "address",
          "name": "",
          "type": "address"
        }
      ],
      "stateMutability": "view",
      "type": "function"
    },
    {
      "inputs": [],
      "name": "params",
      "outputs": [
        {
          "internalType": "uint256",
          "name": "minPositionSize",
          "type": "uint256"
        },
        {
          "internalType": "uint256",
          "name": "maxLeverage",
          "type": "uint256"
        },
        {
          "internalType": "uint256",
          "name": "liquidationThreshold",
          "type": "uint256"
        },
        {
          "internalType": "uint256",
          "name": "maxDailyWithdrawal",
          "type": "uint256"
        },
        {
          "internalType": "uint256",
          "name": "insuranceFundFee",
          "type": "uint256"
        }
      ],
      "stateMutability": "view",
      "type": "function"
    },
    {
      "inputs": [],
      "name": "proposalCount",
      "outputs": [
        {
          "internalType": "uint256",
          "name": "",
          "type": "uint256"
        }
      ],
      "stateMutability": "view",
      "type": "function"
    },
    {
      "inputs": [],
      "name": "proposalThreshold",
      "outputs": [
        {
          "internalType": "uint256",
          "name": "",
          "type": "uint256"
        }
      ],
      "stateMutability": "view",
      "type": "function"
    },
    {
      "inputs": [
        {
          "internalType": "uint256",
          "name": "",
          "type": "uint256"
        }
      ],
      "name": "proposalTimelocks",
      "outputs": [
        {
          "internalType": "uint256",
          "name": "",
          "type": "uint256"
        }
      ],
      "stateMutability": "view",
      "type": "function"
    },
    {
      "inputs": [
        {
          "internalType": "uint256",
          "name": "",
          "type": "uint256"
        }
      ],
      "name": "proposals",
      "outputs": [
        {
          "internalType": "uint256",
          "name": "id",
          "type": "uint256"
        },
        {
          "internalType": "address",
          "name": "proposer",
          "type": "address"
        },
        {
          "internalType": "string",
          "name": "description",
          "type": "string"
        },
        {
          "internalType": "uint256",
          "name": "startBlock",
          "type": "uint256"
        },
        {
          "internalType": "uint256",
          "name": "endBlock",
          "type": "uint256"
        },
        {
          "internalType": "uint256",
          "name": "forVotes",
          "type": "uint256"
        },
        {
          "internalType": "uint256",
          "name": "againstVotes",
          "type": "uint256"
        },
        {
          "internalType": "bool",
          "name": "executed",
          "type": "bool"
        },
        {
          "internalType": "bool",
          "name": "canceled",
          "type": "bool"
        }
      ],
      "stateMutability": "view",
      "type": "function"
    },
    {
      "inputs": [
        {
          "internalType": "address[]",
          "name": "targets",
          "type": "address[]"
        },
        {
          "internalType": "uint256[]",
          "name": "values",
          "type": "uint256[]"
        },
        {
          "internalType": "bytes[]",
          "name": "callDatas",
          "type": "bytes[]"
        },
        {
          "internalType": "string",
          "name": "description",
          "type": "string"
        }
      ],
      "name": "propose",
      "outputs": [
        {
          "internalType": "uint256",
          "name": "",
          "type": "uint256"
        }
      ],
      "stateMutability": "nonpayable",
      "type": "function"
    },
    {
      "inputs": [
        {
          "internalType": "uint256",
          "name": "proposalId",
          "type": "uint256"
        }
      ],
      "name": "queueProposal",
      "outputs": [],
      "stateMutability": "nonpayable",
      "type": "function"
    },
    {
      "inputs": [
        {
          "internalType": "address",
          "name": "_governanceToken",
          "type": "address"
        }
      ],
      "name": "setGovernanceToken",
      "outputs": [],
      "stateMutability": "nonpayable",
      "type": "function"
    },
    {
      "inputs": [
        {
          "internalType": "uint256",
          "name": "proposalId",
          "type": "uint256"
        }
      ],
      "name": "state",
      "outputs": [
        {
          "internalType": "enum Governance.ProposalState",
          "name": "",
          "type": "uint8"
        }
      ],
      "stateMutability": "view",
      "type": "function"
    },
    {
      "inputs": [
        {
          "internalType": "address",
          "name": "newAdmin",
          "type": "address"
        }
      ],
      "name": "transferAdmin",
      "outputs": [],
      "stateMutability": "nonpayable",
      "type": "function"
    },
    {
      "inputs": [
        {
          "internalType": "uint256",
          "name": "_proposalThreshold",
          "type": "uint256"
        },
        {
          "internalType": "uint256",
          "name": "_votingPeriod",
          "type": "uint256"
        },
        {
          "internalType": "uint256",
          "name": "_votingDelay",
          "type": "uint256"
        },
        {
          "internalType": "uint256",
          "name": "_executionDelay",
          "type": "uint256"
        }
      ],
      "name": "updateGovernanceParams",
      "outputs": [],
      "stateMutability": "nonpayable",
      "type": "function"
    },
    {
      "inputs": [
        {
          "internalType": "uint256",
          "name": "_minPositionSize",
          "type": "uint256"
        },
        {
          "internalType": "uint256",
          "name": "_maxLeverage",
          "type": "uint256"
        },
        {
          "internalType": "uint256",
          "name": "_liquidationThreshold",
          "type": "uint256"
        },
        {
          "internalType": "uint256",
          "name": "_maxDailyWithdrawal",
          "type": "uint256"
        },
        {
          "internalType": "uint256",
          "name": "_insuranceFundFee",
          "type": "uint256"
        }
      ],
      "name": "updateProtocolParams",
      "outputs": [],
      "stateMutability": "nonpayable",
      "type": "function"
    },
    {
      "inputs": [],
      "name": "votingDelay",
      "outputs": [
        {
          "internalType": "uint256",
          "name": "",
          "type": "uint256"
        }
      ],
      "stateMutability": "view",
      "type": "function"
    },
    {
      "inputs": [],
      "name": "votingPeriod",
      "outputs": [
        {
          "internalType": "uint256",
          "name": "",
          "type": "uint256"
        }
      ],
      "stateMutability": "view",
      "type": "function"
    },
    {
      "stateMutability": "payable",
      "type": "receive"
    }
  ],
  "bytecode": "0x60803461015b57601f611a2538819003918201601f19168301926001600160401b039290918385118386101761010157816020928492604097885283398101031261015b57516001600160a01b0381169081900361015b57683635c9adc5dea0000060035561438060045560016005556202a300600c55801561011757600080546001600160a01b03199081169092179055600680549091163317905581519060a0820190811182821017610101578252662386f26fc1000080825260146020830152605083830152600a608068056bc75e2d6310000093846060820152015260075560146008556050600955600a55600a600b55516118c490816101618239f35b634e487b7160e01b600052604160045260246000fd5b825162461bcd60e51b815260206004820152601860248201527f496e76616c696420676f7665726e616e636520746f6b656e00000000000000006044820152606490fd5b600080fdfe6080604052600436101561001b575b361561001957600080fd5b005b60003560e01c8063013cf08b146113f257806302a251a3146113d45780630d61b519146111d457806315373e3d146110485780633932abb11461102a5780633e4f49e614610ffd57806358ab17e714610e985780636a05c8bb14610d7657806375829def14610cd05780637d5e81e2146106605780638b2579891461064257806394a14a34146105e35780639ab24eb0146105b8578063b58131b01461059a578063c7f758a8146103e4578063cff0ab96146103a4578063da35c66414610386578063e0a8f6f514610250578063ee9799ee14610224578063f851a440146101fb578063f8570170146101405763f96dae0a0361000e573461013b57600036600319011261013b576000546040516001600160a01b039091168152602090f35b600080fd5b3461013b57602036600319011261013b57610159611609565b6006546001600160a01b039190821633036101ea571680156101ad57600080546001600160a01b031916821781557f3ba24b3c4ab2560aa8c371227cd2ce1851c3c62c25b749c681fa8bc6402c3c079080a2005b60405162461bcd60e51b8152602060048201526015602482015274496e76616c696420746f6b656e206164647265737360581b6044820152606490fd5b6040516282b42960e81b8152600490fd5b3461013b57600036600319011261013b576006546040516001600160a01b039091168152602090f35b3461013b57602036600319011261013b57600435600052600d6020526020604060002054604051908152f35b3461013b57602036600319011261013b5760043561026d81611796565b60068110156103705760048114159081610364575b501561032f57806000526001602052604060002060018060a01b03806001830154163314908115610321575b50156102eb57600a01805461ff0019166101001790557f789cf55be980739dad1d0699b93b58e806b51c9d96619bfa8fe0a28abaa7b30c600080a2005b60405162461bcd60e51b815260206004820152600e60248201526d139bdd08185d5d1a1bdc9a5e995960921b6044820152606490fd5b9050600654163314836102ae565b60405162461bcd60e51b815260206004820152600d60248201526c10d85b9b9bdd0818d85b98d95b609a1b6044820152606490fd5b60059150141582610282565b634e487b7160e01b600052602160045260246000fd5b3461013b57600036600319011261013b576020600254604051908152f35b3461013b57600036600319011261013b5760a0600754600854600954600a5490600b54926040519485526020850152604084015260608301526080820152f35b3461013b57602036600319011261013b576004356000610120604051610409816114d7565b828152826020820152606060408201528260608201528260808201528260a08201528260c08201528260e08201528261010082015201528015801561058f575b61057d5780600052600160205260406000209081549060018060a01b03600184015416926006810154916007820154906008830154906009840154916104b56002610498600a88015494611796565b96604051996104a68b6114d7565b8a5260208a019a8b5201611516565b9260408801938452606088019687526080880194855260a0880191825260c0880190815260e088019160ff84161515835260ff6101008a019460081c16151584526101208901946006881015610370576105799786526040519a8b9a60208c525160208c015260018060a01b0390511660408b01525195610544610140978860608d01526101608c01906115bc565b985160808b01525160a08a01525160c08901525160e088015251151561010087015251151561012086015251908401906115fc565b0390f35b604051631dc0650160e31b8152600490fd5b506002548111610449565b3461013b57600036600319011261013b576020600354604051908152f35b3461013b57602036600319011261013b5760206105db6105d6611609565b61181d565b604051908152f35b3461013b57602036600319011261013b5760043561060081611796565b6006811015610370576003036106305761061c600c5442611747565b90600052600d602052604060002055600080f35b60405163feace5cd60e01b8152600490fd5b3461013b57600036600319011261013b576020600c54604051908152f35b3461013b57608036600319011261013b5760043567ffffffffffffffff811161013b573660238201121561013b57806004013561069c8161161f565b916106aa60405193846114f4565b8183526024602084019260051b8201019036821161013b57602401915b818310610cb0578360243567ffffffffffffffff811161013b573660238201121561013b578060040135906106fb8261161f565b9161070960405193846114f4565b8083526024602084019160051b8301019136831161013b57602401905b828210610ca05750505060449081359067ffffffffffffffff821161013b573660238301121561013b57816004013561075e8161161f565b9261076c60405194856114f4565b8184526024602085019260051b8201019036821161013b5760248101925b828410610c60575050505060643567ffffffffffffffff811161013b573660238201121561013b576107c6903690602481600401359101611653565b92845115610c2b576107db855183511461168a565b6107e8855184511461168a565b6000546040516370a0823160e01b815233600482015290602090829060249082906001600160a01b03165afa908115610c1f57600091610bed575b5060035411610ba957506108386002546116ce565b938460025584600052600160205260406000209480865560018601336bffffffffffffffffffffffff60a01b825416179055845167ffffffffffffffff8111610aa7576108958161088c60028a015461149d565b60028a016116f3565b806020601f8211600114610b3c57600091610b31575b508160011b916000199060031b1c19161760028701555b6108e06108d160055443611747565b80600689015560045490611747565b600787015560005b8251811015610ad3576001600160a01b036109038285611754565b51166004880154600160401b811015610aa75780600161092c920160048b015560048a0161177e565b81546001600160a01b0360039290921b91821b191692901b9190911790556109548185611754565b516005880154600160401b811015610aa75780600161097c920160058b015560058a0161177e565b819291549060031b91821b91600019901b191617905561099c8186611754565b516003880154600160401b811015610aa7578060016109c4920160038b015560038a0161177e565b919091610abd5780519067ffffffffffffffff8211610aa7576109f1826109eb855461149d565b856116f3565b602090601f8311600114610a3857610a289493929160009183610a2d575b50508160011b916000199060031b1c19161790556116ce565b6108e8565b015190508b80610a0f565b908360005260206000209160005b601f1985168110610a8f5750918391600193610a28979695601f19811610610a76575b505050811b0190556116ce565b015160001960f88460031b161c191690558b8080610a69565b91926020600181928685015181550194019201610a46565b634e487b7160e01b600052604160045260246000fd5b634e487b7160e01b600052600060045260246000fd5b60208288817f6c98a8c940418b35614f0cd02412d5c9606faff474cbb6cdd6640ba5d1a9f06b8a60076006850154940154610b19604051926060845260608401906115bc565b948783015260408201528033940390a3604051908152f35b9050860151886108ab565b91506002880160005260206000206000925b601f1983168410610b91576001935082601f19811610610b78575b5050811b0160028701556108c2565b88015160001960f88460031b161c191690558880610b69565b88810151825560209384019360019092019101610b4e565b6064907f42656c6f772070726f706f73616c207468726573686f6c6400000000000000006040519162461bcd60e51b83526020600484015260186024840152820152fd5b90506020813d602011610c17575b81610c08602093836114f4565b8101031261013b575186610823565b3d9150610bfb565b6040513d6000823e3d90fd5b6064906d115b5c1d1e481c1c9bdc1bdcd85b60921b6040519162461bcd60e51b835260206004840152600e6024840152820152fd5b833567ffffffffffffffff811161013b5782013660438201121561013b57602091610c95839236908b60248201359101611653565b81520193019261078a565b8135815260209182019101610726565b82356001600160a01b038116810361013b578152602092830192016106c7565b3461013b57602036600319011261013b57610ce9611609565b6006546001600160a01b0380821692338490036101ea5716918215610d3f5782907ff8ccb027dfcd135e000e9d45e6cc2d662578a8825d4c45b5e32e0adf67e79ec6600080a36001600160a01b03191617600655005b60405162461bcd60e51b815260206004820152600f60248201526e496e76616c6964206164647265737360881b6044820152606490fd5b3461013b57608036600319011261013b57600654602435906004359060643590604435906001600160a01b031633036101ea576080809391828293600355866004558160055584600c55604051906040825260116040830152701c1c9bdc1bdcd85b151a1c995cda1bdb19607a1b60608301526020820152827f3a64504f0bc0c335e2aecb78638a257e0351a3fe0370861fd54ee4190b920933978880968194a16040519060408252600c60408301526b1d9bdd1a5b99d4195c9a5bd960a21b60608301526020820152a16040519060408252600b60408301526a766f74696e6744656c617960a81b60608301526020820152a16040519060408252600e60408301526d657865637574696f6e44656c617960901b60608301526020820152a1005b3461013b5760a036600319011261013b5760065460643590604435906084359060243590600435906001600160a01b031633036101ea5760809485808096848295600755866008558160095584600a5587600b556040519060408252600f60408301526e6d696e506f736974696f6e53697a6560881b606083015260208201527f3a64504f0bc0c335e2aecb78638a257e0351a3fe0370861fd54ee4190b920933998a978880968194a16040519060408252600b60408301526a6d61784c6576657261676560a81b60608301526020820152a1604051906040825260146040830152731b1a5c5d5a59185d1a5bdb951a1c995cda1bdb1960621b60608301526020820152a1604051906040825260126040830152711b585e11185a5b1e55da5d1a191c985dd85b60721b60608301526020820152a16040519060408252601060408301526f696e737572616e636546756e6446656560801b60608301526020820152a1005b3461013b57602036600319011261013b57602061101b600435611796565b61102860405180926115fc565bf35b3461013b57600036600319011261013b576020600554604051908152f35b3461013b57604036600319011261013b576004356024358015159081810361013b5761107383611796565b6006811015610370576001036111c257826000526020600181526040600020600b8101903360005281835260ff604060002054166111b0576110b43361181d565b9384156111795715611164576008016110ce848254611747565b90555b60405190606082019082821067ffffffffffffffff831117610aa75760019160405281835283830186815260408401918683523360005285526040600020935115159060ff61ff0086549251151560081b1692169061ffff191617178355519101556040519283528201527f877856338e13f63d0c36822ff0ef736b80934cd90574a3a5bc9262c39d217c4660403392a3005b600901611172848254611747565b90556110d1565b60405162461bcd60e51b815260048101859052600f60248201526e2737903b37ba34b733903837bbb2b960891b6044820152606490fd5b604051637c9a1cf960e01b8152600490fd5b604051637becc13f60e01b8152600490fd5b3461013b57602036600319011261013b576111f0600435611796565b600681101561037057600380910361063057600435600052600d602052604060002054156113ac57600435600052600d602052604060002054421061139a576004356000526001602052604060002090600a8201600160ff1982541617905560005b60048301548110156113705761126b816004850161177e565b905490831b1c6001600160a01b0316611287826005860161177e565b905490841b1c6112998385870161177e565b5090604051916000908054906112ae8261149d565b91600181169081156113595750600114611324575b5050916000939181859403925af13d1561131f573d6112e181611637565b906112ef60405192836114f4565b8152600060203d92013e5b1561130d57611308906116ce565b611252565b604051632b3f6d1160e21b8152600490fd5b6112fa565b90915060005260206000206000905b828210611345575050820181836112c3565b600181602092548488015201910190611333565b60ff191686525050801515028301905081836112c3565b6004357f712ae1383f79ac853f8d882153778e0260ef8f03b504e2866e0593e04d2b291f600080a2005b60405163621e25c360e01b8152600490fd5b6113b8600c5442611747565b5060048035600052600d60205260405163621e25c360e01b8152fd5b3461013b57600036600319011261013b576020600454604051908152f35b3461013b57602036600319011261013b5760043560005260016020526040600020805460018060a01b036001830154169160ff61143160028301611516565b600683015492600781015460088201549061146e600a600985015494015494604051998a998a5260208a01526101208060408b01528901906115bc565b956060880152608087015260a086015260c0850152818116151560e085015260081c1615156101008301520390f35b90600182811c921680156114cd575b60208310146114b757565b634e487b7160e01b600052602260045260246000fd5b91607f16916114ac565b610140810190811067ffffffffffffffff821117610aa757604052565b90601f8019910116810190811067ffffffffffffffff821117610aa757604052565b906040519182600082549261152a8461149d565b9081845260019485811690816000146115995750600114611556575b5050611554925003836114f4565b565b9093915060005260209081600020936000915b81831061158157505061155493508201013880611546565b85548884018501529485019487945091830191611569565b91505061155494506020925060ff191682840152151560051b8201013880611546565b919082519283825260005b8481106115e8575050826000602080949584010152601f8019910116010190565b6020818301810151848301820152016115c7565b9060068210156103705752565b600435906001600160a01b038216820361013b57565b67ffffffffffffffff8111610aa75760051b60200190565b67ffffffffffffffff8111610aa757601f01601f191660200190565b92919261165f82611637565b9161166d60405193846114f4565b82948184528183011161013b578281602093846000960137010152565b1561169157565b60405162461bcd60e51b8152602060048201526015602482015274082e4e4c2f240d8cadccee8d040dad2e6dac2e8c6d605b1b6044820152606490fd5b60001981146116dd5760010190565b634e487b7160e01b600052601160045260246000fd5b90601f811161170157505050565b600091825260208220906020601f850160051c8301941061173d575b601f0160051c01915b82811061173257505050565b818155600101611726565b909250829061171d565b919082018092116116dd57565b80518210156117685760209160051b010190565b634e487b7160e01b600052603260045260246000fd5b80548210156117685760005260206000200190600090565b80158015611812575b61057d5760005260016020526040600020600a81015460ff8160081c1661180b5760ff166118055760068101544311156117ff5760078101544311156117f9576009600882015491015410156117f457600390565b600290565b50600190565b50600090565b50600490565b5050600590565b50600254811161179f565b6000546040516370a0823160e01b81526001600160a01b0392831660048201529160209183916024918391165afa908115610c1f5760009161185d575090565b906020823d8211611886575b81611876602093836114f4565b8101031261188357505190565b80fd5b3d915061186956fea2646970667358221220405d1fdb95b31c6ec9e982ada07dcb8d87befa691b6db5e2fa45c8f77c17af7964736f6c63430008140033",
  "linkReferences": {},
  "deployedLinkReferences": {}
}