{
  "_format": "hh-sol-artifact-1",
  "contractName": "CrossMarginAccountManager",
  "sourceName": "contracts/CrossMarginAccountManager.sol",
  "abi": [
    {
      "inputs": [
        {
          "internalType": "address",
          "name": "_collateralManager",
          "type": "address"
        },
        {
          "internalType": "address",
          "name": "_assetRegistry",
          "type": "address"
        },
        {
          "internalType": "address",
          "name": "_oracle",
          "type": "address"
        },
        {
          "internalType": "address",
          "name": "_riskManager",
          "type": "address"
        }
      ],
      "stateMutability": "nonpayable",
      "type": "constructor"
    },
    {
      "inputs": [],
      "name": "AccountNotInitialized",
      "type": "error"
    },
    {
      "inputs": [],
      "name": "InsufficientMargin",
      "type": "error"
    },
    {
      "inputs": [],
      "name": "MarginCallRequired",
      "type": "error"
    },
    {
      "inputs": [],
      "name": "PositionAlreadyExists",
      "type": "error"
    },
    {
      "inputs": [],
      "name": "PositionNotFound",
      "type": "error"
    },
    {
      "inputs": [],
      "name": "Unauthorized",
      "type": "error"
    },
    {
      "anonymous": false,
      "inputs": [
        {
          "indexed": true,
          "internalType": "address",
          "name": "trader",
          "type": "address"
        }
      ],
      "name": "AccountCreated",
      "type": "event"
    },
    {
      "anonymous": false,
      "inputs": [
        {
          "indexed": true,
          "internalType": "address",
          "name": "trader",
          "type": "address"
        },
        {
          "indexed": false,
          "internalType": "uint256",
          "name": "totalCollateral",
          "type": "uint256"
        },
        {
          "indexed": false,
          "internalType": "uint256",
          "name": "requiredMargin",
          "type": "uint256"
        },
        {
          "indexed": false,
          "internalType": "uint256",
          "name": "marginRatio",
          "type": "uint256"
        }
      ],
      "name": "MarginUpdated",
      "type": "event"
    },
    {
      "anonymous": false,
      "inputs": [
        {
          "indexed": true,
          "internalType": "address",
          "name": "previousOwner",
          "type": "address"
        },
        {
          "indexed": true,
          "internalType": "address",
          "name": "newOwner",
          "type": "address"
        }
      ],
      "name": "OwnershipTransferred",
      "type": "event"
    },
    {
      "anonymous": false,
      "inputs": [
        {
          "indexed": true,
          "internalType": "address",
          "name": "trader",
          "type": "address"
        },
        {
          "indexed": false,
          "internalType": "uint256",
          "name": "positionId",
          "type": "uint256"
        }
      ],
      "name": "PositionAdded",
      "type": "event"
    },
    {
      "anonymous": false,
      "inputs": [
        {
          "indexed": true,
          "internalType": "address",
          "name": "trader",
          "type": "address"
        },
        {
          "indexed": false,
          "internalType": "uint256",
          "name": "positionId",
          "type": "uint256"
        }
      ],
      "name": "PositionRemoved",
      "type": "event"
    },
    {
      "inputs": [
        {
          "internalType": "address",
          "name": "",
          "type": "address"
        }
      ],
      "name": "accounts",
      "outputs": [
        {
          "internalType": "bool",
          "name": "isInitialized",
          "type": "bool"
        },
        {
          "internalType": "uint256",
          "name": "totalCollateral",
          "type": "uint256"
        },
        {
          "internalType": "uint256",
          "name": "totalRequiredMargin",
          "type": "uint256"
        }
      ],
      "stateMutability": "view",
      "type": "function"
    },
    {
      "inputs": [
        {
          "internalType": "address",
          "name": "trader",
          "type": "address"
        },
        {
          "internalType": "uint256",
          "name": "positionId",
          "type": "uint256"
        }
      ],
      "name": "addPosition",
      "outputs": [],
      "stateMutability": "nonpayable",
      "type": "function"
    },
    {
      "inputs": [],
      "name": "assetRegistry",
      "outputs": [
        {
          "internalType": "contract AssetRegistry",
          "name": "",
          "type": "address"
        }
      ],
      "stateMutability": "view",
      "type": "function"
    },
    {
      "inputs": [],
      "name": "collateralManager",
      "outputs": [
        {
          "internalType": "contract CollateralManager",
          "name": "",
          "type": "address"
        }
      ],
      "stateMutability": "view",
      "type": "function"
    },
    {
      "inputs": [
        {
          "internalType": "address",
          "name": "trader",
          "type": "address"
        }
      ],
      "name": "createAccount",
      "outputs": [],
      "stateMutability": "nonpayable",
      "type": "function"
    },
    {
      "inputs": [
        {
          "internalType": "address",
          "name": "trader",
          "type": "address"
        },
        {
          "internalType": "string",
          "name": "asset",
          "type": "string"
        }
      ],
      "name": "getAssetExposure",
      "outputs": [
        {
          "internalType": "int256",
          "name": "",
          "type": "int256"
        }
      ],
      "stateMutability": "view",
      "type": "function"
    },
    {
      "inputs": [
        {
          "internalType": "address",
          "name": "trader",
          "type": "address"
        }
      ],
      "name": "getPositionIds",
      "outputs": [
        {
          "internalType": "uint256[]",
          "name": "",
          "type": "uint256[]"
        }
      ],
      "stateMutability": "view",
      "type": "function"
    },
    {
      "inputs": [
        {
          "internalType": "address",
          "name": "trader",
          "type": "address"
        }
      ],
      "name": "getTotalCollateral",
      "outputs": [
        {
          "internalType": "uint256",
          "name": "",
          "type": "uint256"
        }
      ],
      "stateMutability": "view",
      "type": "function"
    },
    {
      "inputs": [
        {
          "internalType": "address",
          "name": "trader",
          "type": "address"
        }
      ],
      "name": "getTotalRequiredMargin",
      "outputs": [
        {
          "internalType": "uint256",
          "name": "",
          "type": "uint256"
        }
      ],
      "stateMutability": "view",
      "type": "function"
    },
    {
      "inputs": [
        {
          "internalType": "address",
          "name": "trader",
          "type": "address"
        },
        {
          "internalType": "string",
          "name": "asset",
          "type": "string"
        }
      ],
      "name": "getUnrealizedPnL",
      "outputs": [
        {
          "internalType": "int256",
          "name": "",
          "type": "int256"
        }
      ],
      "stateMutability": "view",
      "type": "function"
    },
    {
      "inputs": [
        {
          "internalType": "address",
          "name": "trader",
          "type": "address"
        }
      ],
      "name": "hasAccount",
      "outputs": [
        {
          "internalType": "bool",
          "name": "",
          "type": "bool"
        }
      ],
      "stateMutability": "view",
      "type": "function"
    },
    {
      "inputs": [
        {
          "internalType": "address",
          "name": "trader",
          "type": "address"
        }
      ],
      "name": "hasEnoughMargin",
      "outputs": [
        {
          "internalType": "bool",
          "name": "",
          "type": "bool"
        }
      ],
      "stateMutability": "view",
      "type": "function"
    },
    {
      "inputs": [],
      "name": "market",
      "outputs": [
        {
          "internalType": "contract IMarket",
          "name": "",
          "type": "address"
        }
      ],
      "stateMutability": "view",
      "type": "function"
    },
    {
      "inputs": [],
      "name": "oracle",
      "outputs": [
        {
          "internalType": "contract Oracle",
          "name": "",
          "type": "address"
        }
      ],
      "stateMutability": "view",
      "type": "function"
    },
    {
      "inputs": [],
      "name": "owner",
      "outputs": [
        {
          "internalType": "address",
          "name": "",
          "type": "address"
        }
      ],
      "stateMutability": "view",
      "type": "function"
    },
    {
      "inputs": [
        {
          "internalType": "address",
          "name": "trader",
          "type": "address"
        },
        {
          "internalType": "uint256",
          "name": "positionId",
          "type": "uint256"
        }
      ],
      "name": "removePosition",
      "outputs": [],
      "stateMutability": "nonpayable",
      "type": "function"
    },
    {
      "inputs": [],
      "name": "riskManager",
      "outputs": [
        {
          "internalType": "contract RiskManager",
          "name": "",
          "type": "address"
        }
      ],
      "stateMutability": "view",
      "type": "function"
    },
    {
      "inputs": [
        {
          "internalType": "address",
          "name": "_market",
          "type": "address"
        }
      ],
      "name": "setMarket",
      "outputs": [],
      "stateMutability": "nonpayable",
      "type": "function"
    },
    {
      "inputs": [
        {
          "internalType": "address",
          "name": "newOwner",
          "type": "address"
        }
      ],
      "name": "transferOwnership",
      "outputs": [],
      "stateMutability": "nonpayable",
      "type": "function"
    },
    {
      "inputs": [
        {
          "internalType": "address",
          "name": "trader",
          "type": "address"
        }
      ],
      "name": "updateMarginRequirements",
      "outputs": [],
      "stateMutability": "nonpayable",
      "type": "function"
    }
  ],
  "bytecode": "0x608034620001f557601f6200199538819003918201601f191683019291906001600160401b03841183851017620001fa578160809284926040968752833981010312620001f557620000518162000210565b90620000606020820162000210565b916200007c60606200007486850162000210565b930162000210565b6001600160a01b03918216939091908415620001b15781169283156200016d578116918215620001385716918215620000f45760018060a01b031993846002541617600255836005541617600555826004541617600455816006541617600655339060015416176001555161176f9081620002268239f35b845162461bcd60e51b815260206004820152601460248201527f496e76616c6964207269736b206d616e616765720000000000000000000000006044820152606490fd5b855162461bcd60e51b815260206004820152600e60248201526d496e76616c6964206f7261636c6560901b6044820152606490fd5b855162461bcd60e51b815260206004820152601660248201527f496e76616c6964206173736574207265676973747279000000000000000000006044820152606490fd5b855162461bcd60e51b815260206004820152601a60248201527f496e76616c696420636f6c6c61746572616c206d616e616765720000000000006044820152606490fd5b600080fd5b634e487b7160e01b600052604160045260246000fd5b51906001600160a01b0382168203620001f55756fe6080604081815260048036101561001557600080fd5b600092833560e01c90816323be345c14610d3c5750806328fe703114610c6f5780632fc059dc14610c1657806340f9731114610be75780634784266314610bbe57806353e4e8a0146108fa5780635e5c06e2146108a957806360a98b801461084e5780636dcea85f146107af5780637dc0d1d01461078857806380f556051461075f5780638da5cb5b14610736578063979d7e861461070d5780639859387b146105e9578063c891ba25146102f3578063c8e40fbf146102b2578063d9108dc31461024b578063edef7c5614610223578063f2fde38b1461015e5763f365b9ed146100ff57600080fd5b3461015a57602036600319011261015a576001600160a01b03610120610d61565b16908184528360205260ff83852054161561014c57508183600592602095528085522001549051908152f35b8251633aab01a760e11b8152fd5b8280fd5b503461015a57602036600319011261015a57610178610d61565b600154916001600160a01b03808416923384900361021457169384156101d157505082907f8be0079c531659141344cd1fd0a4f28419497f9722a3daafe3b4186f6b6457e08580a36001600160a01b0319161760015580f35b906020606492519162461bcd60e51b8352820152602060248201527f4e6577206f776e65722063616e6e6f74206265207a65726f20616464726573736044820152fd5b85516282b42960e81b81528390fd5b833461024857602036600319011261024857610245610240610d61565b611077565b80f35b80fd5b503461015a5761025a36610d7c565b92909160018060a01b0316908186528560205260ff8587205416156102a4575090600284866020979488955280855220018385519485938437820190815203019020549051908152f35b8451633aab01a760e11b8152fd5b5050346102ef5760203660031901126102ef5760209160ff9082906001600160a01b036102dd610d61565b16815280855220541690519015158152f35b5080fd5b50913461024857816003193601126102485761030d610d61565b916024359260018060a01b0393600394808654168781331415918261056c575b505061055d5782169283855260209285845260ff82872054161561054d57859686875b878952888752600180868b2001805483101561053d57610371838992610e4a565b905490861b1c1461038b575061038690610e25565b610350565b91509192939495969798505b1561052d57878688866103a989610f2b565b509197929592935050156104e6579260026103e593836001600160801b03966103f79895528085522001828b5194838680955193849201610e78565b82019081520301902092168254610e9b565b90555b868852878652838820600101805460001992918382019182116104d357610428610459939261044092610e4a565b905490861b1c918a8c528b8a526001888d2001610e4a565b90919082549060031b91821b91600019901b1916179055565b86885287865260018489200190815480156104c05791816104b894927f03c78e4e20a72b1f577a63b54524c684ce73d2e414970ee606bb0b7a9004aa9c999897969401926104a78484610e4a565b81939154921b1b1916905555611077565b51908152a280f35b634e487b7160e01b8a5260318b5260248afd5b634e487b7160e01b8b5260118c5260248bfd5b92600261051493836001600160801b03966105269895528085522001828b5194838680955193849201610e78565b82019081520301902092168254610ea8565b90556103fa565b8351636ec9be1160e01b81528990fd5b5050509091929394959697610397565b8151633aab01a760e11b81528890fd5b83516282b42960e81b81528790fd5b8651631e46e62f60e21b81529250602091839182905afa9081156105df5790829187916105a0575b5016331415873861032d565b9150506020813d82116105d7575b816105bb60209383610dd9565b810103126105d3576105cd8291610e11565b38610594565b8580fd5b3d91506105ae565b85513d88823e3d90fd5b503461015a57602036600319011261015a576001600160a01b03918261060d610d61565b16928333149081156106fe575b81156106f0575b50156106bc578284528360205260ff81852054166106805783918260059285825281602052812091600160ff1984541617835582015501557f805996f252884581e2f74cf3d2b03564d5ec26ccc90850ae12653dc1b72d1fa28280a280f35b906020606492519162461bcd60e51b835282015260166024820152754163636f756e7420616c72656164792065786973747360501b6044820152fd5b906020606492519162461bcd60e51b8352820152600e60248201526d139bdd08185d5d1a1bdc9a5e995960921b6044820152fd5b905060015416331438610621565b8091506003541633149061061a565b5050346102ef57816003193601126102ef5760055490516001600160a01b039091168152602090f35b5050346102ef57816003193601126102ef5760015490516001600160a01b039091168152602090f35b5050346102ef57816003193601126102ef5760035490516001600160a01b039091168152602090f35b503461015a578260031936011261015a575490516001600160a01b03909116815260209150f35b503461015a57602036600319011261015a576107c9610d61565b6001546001600160a01b0391908216330361083f57169182156108035750506bffffffffffffffffffffffff60a01b600354161760035580f35b906020606492519162461bcd60e51b83528201526016602482015275496e76616c6964206d61726b6574206164647265737360501b6044820152fd5b83516282b42960e81b81528390fd5b509134610248576020366003190112610248576001600160a01b03610871610d61565b168082528160205260ff83832054161561089a5781839160209593528085522001549051908152f35b505051633aab01a760e11b8152fd5b50903461015a57602036600319011261015a5760609281906001600160a01b036108d1610d61565b168152806020522090600560ff8354169383015492015491815193151584526020840152820152f35b509190346102ef57806003193601126102ef57610915610d61565b916024359060018060a01b036003918183541687813314159182610b45575b5050610b3657818616808252602082815260ff878420541615610b2657825b828452838252600188852001805482101561099c57610973828992610e4a565b905490881b1c1461098c5761098790610e25565b610953565b8751630dd1bc8b60e31b81528a90fd5b50508587898b96856109ad85610f2b565b939592969150931603610ad85715610a9e578789528887526001858a200180549068010000000000000000821015610a8b578a8a7fcff5c8a08884d2fad939a9e0f0bf729a4f9af6111a573b4d1f11396c8711646d9b9c9d508a94610a238b610440878d9760016104b89e9d9c9a018155610e4a565b15610a5d5792600261051493836001600160801b0396610a569895528085522001828a5194838680955193849201610e78565b9055611077565b9260026103e593836001600160801b0396610a569895528085522001828a5194838680955193849201610e78565b634e487b7160e01b8b5260418c5260248bfd5b845162461bcd60e51b8152808b0188905260146024820152732837b9b4ba34b7b71034b9903737ba1037b832b760611b6044820152606490fd5b855162461bcd60e51b8152808c01899052602260248201527f506f736974696f6e20646f6573206e6f742062656c6f6e6720746f207472616460448201526132b960f11b6064820152608490fd5b8651633aab01a760e11b81528990fd5b84516282b42960e81b81528790fd5b8751631e46e62f60e21b81529250602091839182905afa908115610bb4579083918391610b79575b50163314158738610934565b9150506020813d8211610bac575b81610b9460209383610dd9565b810103126102ef57610ba68391610e11565b38610b6d565b3d9150610b87565b86513d84823e3d90fd5b5050346102ef57816003193601126102ef5760065490516001600160a01b039091168152602090f35b5050346102ef5760203660031901126102ef57602090610c0d610c08610d61565b6116b4565b90519015158152f35b503461015a57610c2536610d7c565b92909160018060a01b0316908186528560205260ff8587205416156102a4575090600384866020979488955280855220018385519485938437820190815203019020549051908152f35b503461015a5760209081600319360112610d38576001600160a01b03610c93610d61565b169081855284835260ff848620541615610d2a5750835282815281832082516001918201805480835290865283862082850196939491879190855b818110610d175750505082610ce4910383610dd9565b8451948186019282875251809352850195925b828110610d045785870386f35b8351875295810195928101928401610cf7565b8254845292840192918701918701610cce565b8351633aab01a760e11b8152fd5b8380fd5b8490346102ef57816003193601126102ef576002546001600160a01b03168152602090f35b600435906001600160a01b0382168203610d7757565b600080fd5b6040600319820112610d77576004356001600160a01b0381168103610d77579160243567ffffffffffffffff92838211610d775780602383011215610d77578160040135938411610d775760248483010111610d77576024019190565b90601f8019910116810190811067ffffffffffffffff821117610dfb57604052565b634e487b7160e01b600052604160045260246000fd5b51906001600160a01b0382168203610d7757565b6000198114610e345760010190565b634e487b7160e01b600052601160045260246000fd5b8054821015610e625760005260206000200190600090565b634e487b7160e01b600052603260045260246000fd5b60005b838110610e8b5750506000910152565b8181015183820152602001610e7b565b91908203918211610e3457565b91908201809211610e3457565b81601f82011215610d7757805167ffffffffffffffff8111610dfb5760405192610ee9601f8301601f191660200185610dd9565b81845260208284010111610d7757610f079160208085019101610e78565b90565b51906001600160801b0382168203610d7757565b51908115158203610d7757565b600354604051634f6675af60e11b815260048101929092526000908190839060249082906001600160a01b03165afa91821561100a578192829483948480948194610f7b575b5050959493929190565b9550965050935050503d8084833e610f938183610dd9565b810160c082820312610d3857610fa882610e11565b9360208301519067ffffffffffffffff8211610248575090610fcb918301610eb5565b92610fd860408301610f0a565b93610fe560608401610f0a565b93610ffe60a0610ff760808701610f1e565b9501610f1e565b91959493923880610f71565b50604051903d90823e3d90fd5b8051821015610e625760209160051b010190565b6040916020825261104b8151809281602086015260208686019101610e78565b601f01601f1916010190565b8115611061570490565b634e487b7160e01b600052601260045260246000fd5b9060018060a01b038216600052600060205260ff60406000205416156116a2576001600160a01b0382811660008181526020818152604080832060050192909255600254915162c1531760e71b81526004810193909352919283916024918391165afa90811561135657600091611670575b5060018060a01b03831660005260006020526004604060002001556004600060018060a01b036005541660405192838092632acada4d60e01b82525afa908115611356576000916115c1575b5060005b81518110156114d05760018060a01b038416600052600060205261117f6020600260406000200161116a8486611017565b51908260405194838680955193849201610e78565b82019081520301902054156114a3576005546111c8906000906001600160a01b03166111ab8486611017565b51906040518080958194630cd5286d60e41b83526004830161102b565b03915afa908115611356576000916113bf575b50604061120d91602060018060a01b0360045416910151908251808095819463524f388960e01b83526004830161102b565b03915afa801561135657611379575b5060018060a01b03841660005260006020526112456020600260406000200161116a8486611017565b82019081520301902054906000821261136257611293915b6006546020906001600160a01b03166112768487611017565b5190604051808097819463458b984b60e11b83526004830161102b565b03915afa92831561135657600093611322575b50828102928184041490151715610e345761131d9160018060a01b03861660005260006020526112e2600a600560406000200192048254610ea8565b90556001600160a01b038516600090815260208181526040822061130e919060030161116a8588611017565b82019081520301902055610e25565b611139565b9092506020813d60201161134e575b8161133e60209383610dd9565b81010312610d77575191386112a6565b3d9150611331565b6040513d6000823e3d90fd5b600160ff1b8214610e34576112939160000361125d565b6040813d6040116113b7575b8161139260409383610dd9565b81010312610d77576020816113a96113b093610f0a565b5001610f0a565b503861121c565b3d9150611385565b3d9150816000823e6113d18282610dd9565b6020818381010312610d775780519167ffffffffffffffff8311610d7757608090818484018285010312610d775760405191820182811067ffffffffffffffff821117610dfb576040528383015167ffffffffffffffff8111610d775761143f908285019086860101610eb5565b82526020848401015167ffffffffffffffff8111610d77576114679184019085850101610eb5565b6020820152604083830101519260ff84168403610d775761149860409361120d958585015260609283910101610f1e565b9082015291506111db565b61131d9060018060a01b0385166000526000602052600061130e60206003604084200161116a8588611017565b50506001600160a01b03821660009081526020819052604090206005810154919291156115945760040154606481029080820460641490151715610e345760606115557fa07a8a6ca1670f58e45ee605f2a5e20660eaaad1aea4db8bf4416def93be030d9260018060a01b038516600052600060205260056040600020015490611057565b925b60018060a01b0381166000526000602052604060002093600560048601549501546040519586526020860152604085015260018060a01b031692a2565b507fa07a8a6ca1670f58e45ee605f2a5e20660eaaad1aea4db8bf4416def93be030d606060001992611557565b90503d806000833e6115d38183610dd9565b8101602082820312610d7757815167ffffffffffffffff92838211610d7757019181601f84011215610d7757825192818411610dfb578360051b6040519461161e6020830187610dd9565b855260208086019183010192848411610d775760208301915b84831061164a5750505050505038611135565b8251828111610d775760209161166588848094890101610eb5565b815201920191611637565b90506020813d60201161169a575b8161168b60209383610dd9565b81010312610d775751386110e9565b3d915061167e565b604051633aab01a760e11b8152600490fd5b6001600160a01b03166000818152602081905260408120805460ff16156117335760058101541561172b5760040154916064830292808404606414901517156117175791600560408360789561171295528060205220015490611057565b101590565b634e487b7160e01b82526011600452602482fd5b505050600190565b5090509056fea2646970667358221220715fb608c732222d50f682df36d59b9876c4ea217e983d8b88708d23e3fbd15064736f6c63430008140033",
  "linkReferences": {},
  "deployedLinkReferences": {}
}