{
  "_format": "hh-sol-artifact-1",
  "contractName": "FundingRateManager",
  "sourceName": "contracts/FundingRateManager.sol",
  "abi": [
    {
      "inputs": [
        {
          "internalType": "address",
          "name": "_assetRegistry",
          "type": "address"
        },
        {
          "internalType": "address",
          "name": "_oracle",
          "type": "address"
        },
        {
          "internalType": "address",
          "name": "_securityModule",
          "type": "address"
        }
      ],
      "stateMutability": "nonpayable",
      "type": "constructor"
    },
    {
      "inputs": [],
      "name": "InvalidParameter",
      "type": "error"
    },
    {
      "inputs": [],
      "name": "NotYetFundingTime",
      "type": "error"
    },
    {
      "inputs": [],
      "name": "SystemPaused",
      "type": "error"
    },
    {
      "inputs": [],
      "name": "Unauthorized",
      "type": "error"
    },
    {
      "anonymous": false,
      "inputs": [
        {
          "indexed": false,
          "internalType": "uint256",
          "name": "oldFactor",
          "type": "uint256"
        },
        {
          "indexed": false,
          "internalType": "uint256",
          "name": "newFactor",
          "type": "uint256"
        }
      ],
      "name": "DampeningFactorUpdated",
      "type": "event"
    },
    {
      "anonymous": false,
      "inputs": [
        {
          "indexed": false,
          "internalType": "uint256",
          "name": "oldPeriods",
          "type": "uint256"
        },
        {
          "indexed": false,
          "internalType": "uint256",
          "name": "newPeriods",
          "type": "uint256"
        }
      ],
      "name": "FundingEMAPeriodsUpdated",
      "type": "event"
    },
    {
      "anonymous": false,
      "inputs": [
        {
          "indexed": false,
          "internalType": "uint256",
          "name": "interval",
          "type": "uint256"
        },
        {
          "indexed": false,
          "internalType": "uint256",
          "name": "maxRate",
          "type": "uint256"
        },
        {
          "indexed": false,
          "internalType": "int256",
          "name": "interestRate",
          "type": "int256"
        }
      ],
      "name": "FundingParamsUpdated",
      "type": "event"
    },
    {
      "anonymous": false,
      "inputs": [
        {
          "indexed": false,
          "internalType": "bool",
          "name": "enabled",
          "type": "bool"
        },
        {
          "indexed": false,
          "internalType": "uint256",
          "name": "threshold",
          "type": "uint256"
        }
      ],
      "name": "FundingRateClampingUpdated",
      "type": "event"
    },
    {
      "anonymous": false,
      "inputs": [
        {
          "indexed": false,
          "internalType": "string",
          "name": "asset",
          "type": "string"
        },
        {
          "indexed": false,
          "internalType": "int256",
          "name": "fundingRate",
          "type": "int256"
        },
        {
          "indexed": false,
          "internalType": "uint256",
          "name": "timestamp",
          "type": "uint256"
        }
      ],
      "name": "FundingRateUpdated",
      "type": "event"
    },
    {
      "anonymous": false,
      "inputs": [
        {
          "indexed": false,
          "internalType": "string",
          "name": "asset",
          "type": "string"
        },
        {
          "indexed": false,
          "internalType": "uint256",
          "name": "longSize",
          "type": "uint256"
        },
        {
          "indexed": false,
          "internalType": "uint256",
          "name": "shortSize",
          "type": "uint256"
        }
      ],
      "name": "MarketSizeChanged",
      "type": "event"
    },
    {
      "anonymous": false,
      "inputs": [
        {
          "indexed": false,
          "internalType": "uint256",
          "name": "oldPercent",
          "type": "uint256"
        },
        {
          "indexed": false,
          "internalType": "uint256",
          "name": "newPercent",
          "type": "uint256"
        }
      ],
      "name": "MaxRateChangePercentUpdated",
      "type": "event"
    },
    {
      "anonymous": false,
      "inputs": [
        {
          "indexed": true,
          "internalType": "address",
          "name": "previousOwner",
          "type": "address"
        },
        {
          "indexed": true,
          "internalType": "address",
          "name": "newOwner",
          "type": "address"
        }
      ],
      "name": "OwnershipTransferred",
      "type": "event"
    },
    {
      "anonymous": false,
      "inputs": [
        {
          "indexed": false,
          "internalType": "uint256",
          "name": "oldFactor",
          "type": "uint256"
        },
        {
          "indexed": false,
          "internalType": "uint256",
          "name": "newFactor",
          "type": "uint256"
        }
      ],
      "name": "SkewImpactFactorUpdated",
      "type": "event"
    },
    {
      "inputs": [],
      "name": "assetRegistry",
      "outputs": [
        {
          "internalType": "contract AssetRegistry",
          "name": "",
          "type": "address"
        }
      ],
      "stateMutability": "view",
      "type": "function"
    },
    {
      "inputs": [
        {
          "internalType": "string",
          "name": "",
          "type": "string"
        }
      ],
      "name": "averageDailyFundingRate",
      "outputs": [
        {
          "internalType": "int256",
          "name": "",
          "type": "int256"
        }
      ],
      "stateMutability": "view",
      "type": "function"
    },
    {
      "inputs": [
        {
          "internalType": "string",
          "name": "asset",
          "type": "string"
        }
      ],
      "name": "calculateEMA",
      "outputs": [
        {
          "internalType": "int256",
          "name": "",
          "type": "int256"
        }
      ],
      "stateMutability": "view",
      "type": "function"
    },
    {
      "inputs": [
        {
          "internalType": "string",
          "name": "asset",
          "type": "string"
        }
      ],
      "name": "calculatePremiumIndex",
      "outputs": [
        {
          "internalType": "int256",
          "name": "",
          "type": "int256"
        }
      ],
      "stateMutability": "view",
      "type": "function"
    },
    {
      "inputs": [],
      "name": "dampeningFactor",
      "outputs": [
        {
          "internalType": "uint256",
          "name": "",
          "type": "uint256"
        }
      ],
      "stateMutability": "view",
      "type": "function"
    },
    {
      "inputs": [],
      "name": "enableFundingRateClamping",
      "outputs": [
        {
          "internalType": "bool",
          "name": "",
          "type": "bool"
        }
      ],
      "stateMutability": "view",
      "type": "function"
    },
    {
      "inputs": [],
      "name": "fundingEMAPeriods",
      "outputs": [
        {
          "internalType": "uint256",
          "name": "",
          "type": "uint256"
        }
      ],
      "stateMutability": "view",
      "type": "function"
    },
    {
      "inputs": [],
      "name": "fundingInterval",
      "outputs": [
        {
          "internalType": "uint256",
          "name": "",
          "type": "uint256"
        }
      ],
      "stateMutability": "view",
      "type": "function"
    },
    {
      "inputs": [],
      "name": "fundingRateClampThreshold",
      "outputs": [
        {
          "internalType": "uint256",
          "name": "",
          "type": "uint256"
        }
      ],
      "stateMutability": "view",
      "type": "function"
    },
    {
      "inputs": [
        {
          "internalType": "string",
          "name": "asset",
          "type": "string"
        }
      ],
      "name": "getAverageDailyRate",
      "outputs": [
        {
          "internalType": "int256",
          "name": "",
          "type": "int256"
        }
      ],
      "stateMutability": "view",
      "type": "function"
    },
    {
      "inputs": [
        {
          "internalType": "string",
          "name": "asset",
          "type": "string"
        }
      ],
      "name": "getConsecutiveMaxRatePeriods",
      "outputs": [
        {
          "internalType": "uint256",
          "name": "",
          "type": "uint256"
        }
      ],
      "stateMutability": "view",
      "type": "function"
    },
    {
      "inputs": [
        {
          "internalType": "string",
          "name": "asset",
          "type": "string"
        }
      ],
      "name": "getCumulativeFundingRate",
      "outputs": [
        {
          "internalType": "int256",
          "name": "",
          "type": "int256"
        }
      ],
      "stateMutability": "view",
      "type": "function"
    },
    {
      "inputs": [
        {
          "internalType": "string",
          "name": "asset",
          "type": "string"
        }
      ],
      "name": "getCurrentFundingRate",
      "outputs": [
        {
          "internalType": "int256",
          "name": "",
          "type": "int256"
        }
      ],
      "stateMutability": "view",
      "type": "function"
    },
    {
      "inputs": [
        {
          "internalType": "string",
          "name": "asset",
          "type": "string"
        }
      ],
      "name": "getEMAFundingRate",
      "outputs": [
        {
          "internalType": "int256",
          "name": "",
          "type": "int256"
        }
      ],
      "stateMutability": "view",
      "type": "function"
    },
    {
      "inputs": [
        {
          "internalType": "string",
          "name": "asset",
          "type": "string"
        }
      ],
      "name": "getFundingEventCount",
      "outputs": [
        {
          "internalType": "uint256",
          "name": "",
          "type": "uint256"
        }
      ],
      "stateMutability": "view",
      "type": "function"
    },
    {
      "inputs": [
        {
          "internalType": "string",
          "name": "asset",
          "type": "string"
        },
        {
          "internalType": "uint256",
          "name": "startIndex",
          "type": "uint256"
        },
        {
          "internalType": "uint256",
          "name": "endIndex",
          "type": "uint256"
        }
      ],
      "name": "getFundingHistory",
      "outputs": [
        {
          "internalType": "uint256[]",
          "name": "timestamps",
          "type": "uint256[]"
        }
      ],
      "stateMutability": "view",
      "type": "function"
    },
    {
      "inputs": [
        {
          "internalType": "string",
          "name": "asset",
          "type": "string"
        }
      ],
      "name": "getFundingState",
      "outputs": [
        {
          "internalType": "int256",
          "name": "cumulativeFundingRate",
          "type": "int256"
        },
        {
          "internalType": "int256",
          "name": "lastFundingRate",
          "type": "int256"
        },
        {
          "internalType": "uint256",
          "name": "lastUpdateTimestamp",
          "type": "uint256"
        },
        {
          "internalType": "uint256",
          "name": "longSize",
          "type": "uint256"
        },
        {
          "internalType": "uint256",
          "name": "shortSize",
          "type": "uint256"
        },
        {
          "internalType": "int256",
          "name": "averageRate",
          "type": "int256"
        }
      ],
      "stateMutability": "view",
      "type": "function"
    },
    {
      "inputs": [
        {
          "internalType": "address",
          "name": "trader",
          "type": "address"
        },
        {
          "internalType": "string",
          "name": "asset",
          "type": "string"
        },
        {
          "internalType": "uint256",
          "name": "positionSize",
          "type": "uint256"
        },
        {
          "internalType": "bool",
          "name": "isLong",
          "type": "bool"
        }
      ],
      "name": "getPendingFundingPayment",
      "outputs": [
        {
          "internalType": "int256",
          "name": "pendingPayment",
          "type": "int256"
        }
      ],
      "stateMutability": "view",
      "type": "function"
    },
    {
      "inputs": [
        {
          "internalType": "string",
          "name": "asset",
          "type": "string"
        }
      ],
      "name": "getRecentRates",
      "outputs": [
        {
          "internalType": "int256[]",
          "name": "",
          "type": "int256[]"
        }
      ],
      "stateMutability": "view",
      "type": "function"
    },
    {
      "inputs": [
        {
          "internalType": "string",
          "name": "asset",
          "type": "string"
        }
      ],
      "name": "getTimeUntilNextFunding",
      "outputs": [
        {
          "internalType": "uint256",
          "name": "",
          "type": "uint256"
        }
      ],
      "stateMutability": "view",
      "type": "function"
    },
    {
      "inputs": [],
      "name": "historicalRateWindow",
      "outputs": [
        {
          "internalType": "uint256",
          "name": "",
          "type": "uint256"
        }
      ],
      "stateMutability": "view",
      "type": "function"
    },
    {
      "inputs": [],
      "name": "interestRate",
      "outputs": [
        {
          "internalType": "int256",
          "name": "",
          "type": "int256"
        }
      ],
      "stateMutability": "view",
      "type": "function"
    },
    {
      "inputs": [
        {
          "internalType": "address",
          "name": "",
          "type": "address"
        },
        {
          "internalType": "string",
          "name": "",
          "type": "string"
        }
      ],
      "name": "lastFundingPaymentPointer",
      "outputs": [
        {
          "internalType": "uint256",
          "name": "",
          "type": "uint256"
        }
      ],
      "stateMutability": "view",
      "type": "function"
    },
    {
      "inputs": [],
      "name": "maxFundingRate",
      "outputs": [
        {
          "internalType": "uint256",
          "name": "",
          "type": "uint256"
        }
      ],
      "stateMutability": "view",
      "type": "function"
    },
    {
      "inputs": [],
      "name": "maxRateChangePercent",
      "outputs": [
        {
          "internalType": "uint256",
          "name": "",
          "type": "uint256"
        }
      ],
      "stateMutability": "view",
      "type": "function"
    },
    {
      "inputs": [],
      "name": "oracle",
      "outputs": [
        {
          "internalType": "contract Oracle",
          "name": "",
          "type": "address"
        }
      ],
      "stateMutability": "view",
      "type": "function"
    },
    {
      "inputs": [],
      "name": "owner",
      "outputs": [
        {
          "internalType": "address",
          "name": "",
          "type": "address"
        }
      ],
      "stateMutability": "view",
      "type": "function"
    },
    {
      "inputs": [],
      "name": "securityModule",
      "outputs": [
        {
          "internalType": "contract SecurityModule",
          "name": "",
          "type": "address"
        }
      ],
      "stateMutability": "view",
      "type": "function"
    },
    {
      "inputs": [],
      "name": "skewImpactFactor",
      "outputs": [
        {
          "internalType": "uint256",
          "name": "",
          "type": "uint256"
        }
      ],
      "stateMutability": "view",
      "type": "function"
    },
    {
      "inputs": [
        {
          "internalType": "address",
          "name": "newOwner",
          "type": "address"
        }
      ],
      "name": "transferOwnership",
      "outputs": [],
      "stateMutability": "nonpayable",
      "type": "function"
    },
    {
      "inputs": [
        {
          "internalType": "uint256",
          "name": "factor",
          "type": "uint256"
        }
      ],
      "name": "updateDampeningFactor",
      "outputs": [],
      "stateMutability": "nonpayable",
      "type": "function"
    },
    {
      "inputs": [
        {
          "internalType": "uint256",
          "name": "periods",
          "type": "uint256"
        }
      ],
      "name": "updateFundingEMAPeriods",
      "outputs": [],
      "stateMutability": "nonpayable",
      "type": "function"
    },
    {
      "inputs": [
        {
          "internalType": "uint256",
          "name": "interval",
          "type": "uint256"
        },
        {
          "internalType": "uint256",
          "name": "maxRate",
          "type": "uint256"
        },
        {
          "internalType": "int256",
          "name": "interest",
          "type": "int256"
        }
      ],
      "name": "updateFundingParams",
      "outputs": [],
      "stateMutability": "nonpayable",
      "type": "function"
    },
    {
      "inputs": [
        {
          "internalType": "address",
          "name": "trader",
          "type": "address"
        },
        {
          "internalType": "string",
          "name": "asset",
          "type": "string"
        }
      ],
      "name": "updateFundingPaymentPointer",
      "outputs": [],
      "stateMutability": "nonpayable",
      "type": "function"
    },
    {
      "inputs": [
        {
          "internalType": "string",
          "name": "asset",
          "type": "string"
        }
      ],
      "name": "updateFundingRate",
      "outputs": [
        {
          "internalType": "int256",
          "name": "",
          "type": "int256"
        }
      ],
      "stateMutability": "nonpayable",
      "type": "function"
    },
    {
      "inputs": [
        {
          "internalType": "bool",
          "name": "enabled",
          "type": "bool"
        },
        {
          "internalType": "uint256",
          "name": "threshold",
          "type": "uint256"
        }
      ],
      "name": "updateFundingRateClamping",
      "outputs": [],
      "stateMutability": "nonpayable",
      "type": "function"
    },
    {
      "inputs": [
        {
          "internalType": "string",
          "name": "asset",
          "type": "string"
        },
        {
          "internalType": "uint256",
          "name": "longSize",
          "type": "uint256"
        },
        {
          "internalType": "uint256",
          "name": "shortSize",
          "type": "uint256"
        }
      ],
      "name": "updateMarketSize",
      "outputs": [],
      "stateMutability": "nonpayable",
      "type": "function"
    },
    {
      "inputs": [
        {
          "internalType": "uint256",
          "name": "percent",
          "type": "uint256"
        }
      ],
      "name": "updateMaxRateChangePercent",
      "outputs": [],
      "stateMutability": "nonpayable",
      "type": "function"
    },
    {
      "inputs": [
        {
          "internalType": "uint256",
          "name": "factor",
          "type": "uint256"
        }
      ],
      "name": "updateSkewImpactFactor",
      "outputs": [],
      "stateMutability": "nonpayable",
      "type": "function"
    }
  ],
  "bytecode": "0x608034620001d157601f62001dec38819003918201601f191683019291906001600160401b03841183851017620001d6578160609284926040968752833981010312620001d1576200005181620001ec565b6200006c836200006460208501620001ec565b9301620001ec565b906170806000556608e1bc9bf04000600155655af3107a40006002556008600355604b600455601e6005556064600655600160ff1960075416176007556005600855601e600e5560018060a01b038091169283156200018d578116918215620001585716908115620001145760018060a01b03199283600f541617600f558260105416176010558160115416176011553390601254161760125551611bea9081620002028239f35b835162461bcd60e51b815260206004820152601760248201527f496e76616c6964207365637572697479206d6f64756c650000000000000000006044820152606490fd5b845162461bcd60e51b815260206004820152600e60248201526d496e76616c6964206f7261636c6560901b6044820152606490fd5b845162461bcd60e51b815260206004820152601660248201527f496e76616c6964206173736574207265676973747279000000000000000000006044820152606490fd5b600080fd5b634e487b7160e01b600052604160045260246000fd5b51906001600160a01b0382168203620001d15756fe6040608081526004908136101561001557600080fd5b6000803560e01c8063050877e014611320578063075e110d146112d0578063142383fd1461126d5780631648e93d1461124e5780631dc1eff01461122a578063206b97b71461120b57806322f3e7341461117057806324d8fddc146104f4578063380ef3fe146111475780633aed211a146111285780633d7c834e146110225780633e2bab2114610f9e5780635a7844f414610f4e5780635ba93cce14610e5657806369c7494c14610e1a5780636ce7f7d414610dd15780637c3a00fd14610db25780637dc0d1d014610d895780637f3e212d14610d6b5780638da5cb5b14610d425780638ed88e5914610cd957806396da80c114610c87578063979d7e8614610c5e5780639849e41214610c41578063a170b1d114610be2578063c0f6ee3214610b99578063c586e1f814610afd578063c5b83fde14610ade578063ca25bf5514610abf578063cb4e9b801461064d578063d01e6de1146104f9578063d2babaf3146104f4578063d4c27fa11461046c578063d716785c1461041c578063db16e989146103fd578063ddd0edd614610379578063f2fde38b146102e9578063f5b26491146102125763ffe1f004146101cd57600080fd5b3461020f57602036600319011261020f578235906001600160401b03821161020f575061020260209361020892369101611470565b906115f7565b9051908152f35b80fd5b5082903461020f57602091826003193601126102e55780356001600160401b0381116102e15761025461024d86949361025993369101611470565b36916113e1565b61154f565b8152600a8352600582822001908251808584549182815201908194845286842090845b8181106102cd57505050816102929103826113aa565b83519485948186019282875251809352850193925b8281106102b657505050500390f35b8351855286955093810193928101926001016102a7565b82548452928801926001928301920161027c565b8280fd5b5080fd5b5091346102e15760203660031901126102e15761030461138f565b6012546001600160a01b038082169391923385900361036a571693841561035d5750506001600160a01b03191682176012557f8be0079c531659141344cd1fd0a4f28419497f9722a3daafe3b4186f6b6457e08380a380f35b51630309cb8760e51b8152fd5b85516282b42960e81b81528390fd5b5091346102e15760203660031901126102e157601254813591906001600160a01b031633036103f05781156103e25750907f076a61016d44e0890ca78f12751cfb520b276c73a15eb9835abe529782d94e1491600354908060035582519182526020820152a180f35b8251630309cb8760e51b8152fd5b82516282b42960e81b8152fd5b5090346102e557816003193601126102e5576020906001549051908152f35b5091346102e15760203660031901126102e15780356001600160401b0381116104685760209361045861025461024d6001958795369101611470565b8152600a85522001549051908152f35b8380fd5b5090346102e557806003193601126102e55782358015158091036102e157601254602435906001600160a01b031633036104e5577fbb29b246fa4cedda134af835a702c3f33d796b0a1d4f227a7ab7c9ca11623ef893945060ff196007541660ff8316176007558060085582519182526020820152a180f35b82516282b42960e81b81528590fd5b61149d565b5082346102e557610509366114e0565b8082949592969396101561063e57865193868686378685019685600b9889815260209788910301902054831161062e5761054982849a999896979a6116e8565b9461056b61055687611b9d565b966105638b5198896113aa565b808852611b9d565b868b019890601f1901368a37835b8581106105c2575050505050505083519485948186019282875251809352850193925b8281106105ab57505050500390f35b83518552869550938101939281019260010161059c565b6105e2818c9d9a999b9c51868682378b8188810187815203019020611740565b90546105ee87846116e8565b918c5183101561061b5760031b1c60059190911b8b018a015261061090611706565b9a999896979a610579565b634e487b7160e01b8b5260328a5260248bfd5b8851630309cb8760e51b81528490fd5b508551630309cb8760e51b8152fd5b5090346102e557602092836003193601126102e15780356001600160401b0381116104685761067f9036908301611470565b9091601194818760018060a01b03885416875192838092635c975abb60e01b82525afa908115610ab5578291610a88575b50610a79576106c36102543685876113e1565b95868252600a8852858220600281019081546106e0855482611578565b4210610a69576106fc6106f3888a6115f7565b600254906116cc565b9015610a2a5761070e865480926115d4565b60018301549160640360648111610a575760649161072f61073592856115d4565b906116cc565b056064610744600554846115d4565b0590868212610a47575b8161075984836115bb565b888112610a39575b1315610a3057821215610a2157610777916116cc565b925b60019384548082136000146109d457505083549960ff600754166109b9575b60ff60075416806109a3575b61098c575b50600582018054600380549091908110610950575086865b6108eb575b505080546000198101929083116108da57506107e68b926107fd92611740565b819391549060031b91821b91600019901b19161790565b90555b88838201556108108982546116cc565b90554290558551848682378881868101600b81520301902091825493600160401b8510156108c7575050826108899261086f927f8bf63993dc4512620b62c2cb69f88d7391e2c66c504771e8c99648065d22fa48979695018155611740565b919091429083549060031b91821b91600019901b19161790565b905561089e6108993683856113e1565b611771565b6108b4845192839260608452606084019161152e565b858783015242858301520390a151908152f35b634e487b7160e01b825260419052602490fd5b634e487b7160e01b87528752602486fd5b825460001981019081116109395781101561094b578681018082116109395787916109196109339286611740565b905490851b1c61092c6107e68388611740565b9055611706565b906107c1565b634e487b7160e01b8952848a52602489fd5b6107c6565b925050600160401b821015610979576107e68261097292878e95018155611740565b9055610800565b634e487b7160e01b865260418752602486fd5b996002900599855260098b528489812055386107a9565b5080865260098c528986205460085411156107a4565b80865260098c528986206109cd8154611706565b9055610798565b6109dd906116f5565b811215610a0f57506109ef84546116f5565b9960ff60075416156107985780865260098c528986206109cd8154611706565b9980865260098c52858a812055610798565b610a2a916115bb565b92610779565b91505092610779565b610a42906116f5565b610761565b90610a51906116f5565b9061074e565b634e487b7160e01b8752858852602487fd5b8851633916958b60e21b81528690fd5b5083516301ca793160e61b8152fd5b610aa89150883d8a11610aae575b610aa081836113aa565b810190611516565b386106b0565b503d610a96565b86513d84823e3d90fd5b5090346102e557816003193601126102e5576020906005549051908152f35b5090346102e557816003193601126102e5576020906008549051908152f35b5091346102e15760603660031901126102e1578035916024356044359260018060a01b036012541633036103f057610e1085108015610b8d575b6103e257662386f26fc1000082116103e257509183916060937f8f7482f5f3900e0a78ef3d725bc68fe9a96ef727178bcedc4342ffad78161a09958755806001558260025581519384526020840152820152a180f35b50620151808511610b37565b5091346102e15760203660031901126102e15780356001600160401b0381116104685792610bd361025461024d8594602097369101611470565b8152600a845220549051908152f35b5091346102e15760803660031901126102e157610bfd61138f565b90602435906001600160401b038211610c3d57610c1c91369101611470565b9060643594851515860361020f5750916020949161020893604435926118f0565b8480fd5b5090346102e557816003193601126102e557602091549051908152f35b5090346102e557816003193601126102e557600f5490516001600160a01b039091168152602090f35b503461020f57602036600319011261020f578235906001600160401b03821161020f57506020610cbe8194610cc993369101611427565b835192838092611445565b600d815203019020549051908152f35b5091346102e15760203660031901126102e157601254813591906001600160a01b031633036103f05781156103e25750907f585e6dff9c43d2b69bb5af99d6543770a1397131e82c95d9af0d7ec50e455fcd91600554908060055582519182526020820152a180f35b5090346102e557816003193601126102e55760125490516001600160a01b039091168152602090f35b5091346102e157826003193601126102e15760209250549051908152f35b5090346102e557816003193601126102e55760105490516001600160a01b039091168152602090f35b5090346102e557816003193601126102e5576020906002549051908152f35b5091346102e15760203660031901126102e15780356001600160401b0381116104685792610e0b61025461024d8594602097369101611470565b81526009845220549051908152f35b503461020f57602036600319011261020f578235906001600160401b03821161020f5750610e5060209361020892369101611470565b90611b52565b5090346102e557806003193601126102e557610e7061138f565b906024356001600160401b03811161046857610e8f9036908601611470565b601154835163027cf93b60e31b81523388820152929391926001600160a01b03916020908290602490829086165afa908115610f44578791610f26575b501580610f18575b610f0957610f0594959650815183858237602081858101600b8152030190205495168652600c602052852091611758565b5580f35b81516282b42960e81b81528790fd5b508060125416331415610ed4565b610f3e915060203d8111610aae57610aa081836113aa565b38610ecc565b83513d89823e3d90fd5b503461020f57602036600319011261020f578235906001600160401b03821161020f5750610f826020938492369101611470565b919082845193849283378101600d815203019020549051908152f35b5091346102e15760203660031901126102e1576012548135906001600160a01b0316330361101457606481116110055790817fa9cc913d7db2ec90ff271f4642a073ac918985069698bfb4acb106b5d983732c93928254925582519182526020820152a180f35b509051630309cb8760e51b8152fd5b5090516282b42960e81b8152fd5b5090346102e557611032366114e0565b9091929360018060a01b0360246020826011541684519283809263027cf93b60e31b82528d33908301525afa90811561111e578891611100575b501590816110f1575b506110e357817f0e12b7ee1fe351f685e79c0f8828752e49c6e6dfa9c711b3ccf6b6a6bbb40c2d96976110ac61025436888a6113e1565b8952600a60205282892085600382015501556110d4815195869560608752606087019161152e565b9260208501528301520390a180f35b516282b42960e81b81528690fd5b90506012541633141538611075565b611118915060203d8111610aae57610aa081836113aa565b3861106c565b83513d8a823e3d90fd5b5090346102e557816003193601126102e5576020906003549051908152f35b5090346102e557816003193601126102e55760115490516001600160a01b039091168152602090f35b5091346102e15760203660031901126102e15780356001600160401b038111610468579282916111a560c09536908301611470565b9390926111b66102543687876113e1565b8152600a6020522090815494600183015494602060028501549360038601549501549582845193849283378101600d8152030190205494815196875260208701528501526060840152608083015260a0820152f35b5090346102e557816003193601126102e557602090600e549051908152f35b5090346102e557816003193601126102e55760209060ff6007541690519015158152f35b5090346102e557816003193601126102e5576020906006549051908152f35b5091346102e15760203660031901126102e157601254813591906001600160a01b031633036103f05750907feb9a4cb840407cb58611dac1a8a9b9ec544cced6aecdbe3659a4cccdc137c07991600654908060065582519182526020820152a180f35b503461020f57602036600319011261020f578235906001600160401b03821161020f57506113046020938492369101611470565b919082845193849283378101600b815203019020549051908152f35b5091346102e157816003193601126102e15761133a61138f565b906024356001600160401b038111610c3d579183602095611362879461138096369101611427565b6001600160a01b039093168152600c84522084519384928390611445565b90815203019020549051908152f35b600435906001600160a01b03821682036113a557565b600080fd5b90601f801991011681019081106001600160401b038211176113cb57604052565b634e487b7160e01b600052604160045260246000fd5b9291926001600160401b0382116113cb576040519161140a601f8201601f1916602001846113aa565b8294818452818301116113a5578281602093846000960137010152565b9080601f830112156113a557816020611442933591016113e1565b90565b9081519160005b83811061145d575050016000815290565b806020809284010151818501520161144c565b9181601f840112156113a5578235916001600160401b0383116113a557602083818601950101116113a557565b346113a55760203660031901126113a5576004356001600160401b0381116113a5576114d86114d26020923690600401611470565b90611a06565b604051908152f35b60606003198201126113a557600435906001600160401b0382116113a55761150a91600401611470565b90916024359060443590565b908160209103126113a5575180151581036113a55790565b908060209392818452848401376000828201840152601f01601f1916010190565b60405161157281611564602082018095611445565b03601f1981018352826113aa565b51902090565b9190820180921161158557565b634e487b7160e01b600052601160045260246000fd5b81156115a5570490565b634e487b7160e01b600052601260045260246000fd5b8181039291600013801582851316918412161761158557565b818102929160008212600160ff1b82141661158557818405149015171561158557565b610254906116069236916113e1565b6000908152600a6020526040812060038101549081159081806116c0575b6116ba5760040154926116378484611578565b92670de0b6b3a764000092838202918204841417156116a6578361165a9161159b565b93828102928184041490151715611692575060649261167f61168e936116859361159b565b906115bb565b600654906115d4565b0590565b634e487b7160e01b81526011600452602490fd5b634e487b7160e01b82526011600452602482fd5b50505090565b50600481015415611624565b9190916000838201938412911290801582169115161761158557565b9190820391821161158557565b600160ff1b81146115855760000390565b60001981146115855760010190565b80541561172a57600052602060002090600090565b634e487b7160e01b600052603260045260246000fd5b805482101561172a5760005260206000200190600090565b6020919283604051948593843782019081520301902090565b9061177b8261154f565b916000928352602092600a84526040808220600581019384549182156118e657849385805b82516117ac8187611445565b908c81600b93848152030190205482101561184d57620151806117e9836117dd8f8a6117f8968a5193848093611445565b90815203019020611740565b929054600393841b1c426116e8565b111561180e575b5061180990611706565b6117a0565b8987831061181d575b506117ff565b829998611845926118346118099561183f94611740565b9054911b1c906116cc565b97611706565b979089611817565b5050989593509193955082159081156000146118c057506118ac57600160ff1b85146000198314166118985761188a949596505193848093611445565b94600d865205930301902055565b634e487b7160e01b87526011600452602487fd5b634e487b7160e01b87526012600452602487fd5b91969750506118db9450600191500154935192838092611445565b600d81520301902055565b5050505050509050565b929190936119026102543684886113e1565b916000928352600a602052604083209460018060a01b03168352600c6020526020611931604085208389611758565b54968260405193849283378101600b8152030190205493841580156119fd575b6119f457939291908195946005810180545b86881061197557505050505050505090565b90919293949596976119ca6119d091888b8581106000146119dc57670de0b6b3a7640000916119a76119c39289611740565b90549060031b1c5b8a156119be576119be906116f5565b6115d4565b05906116cc565b98611706565b96959493929190611963565b506119c3670de0b6b3a76400009160018901546119af565b50509250505090565b50848614611951565b61025490611a159236916113e1565b906000918252600a602052600560408320019182548015611b4d5760018114611b37576001810160018112838312908015821691151617611b23578015611b0f57671bc16d674ec80000949293940590611a6e83611715565b919054600392831b1c94600193670de0b6b3a7640000918183039181811284841281169085851390151617955b858810611aae5750505050505050505090565b909192939495889a9986611ad385611ac88c869d9e611740565b905490871b1c6115d4565b0591611afb57611aeb91876119c3886119ca946115d4565b9695949392919099979899611a9b565b634e487b7160e01b85526011600452602485fd5b634e487b7160e01b83526012600452602483fd5b634e487b7160e01b83526011600452602483fd5b505090611b4390611715565b90549060031b1c90565b509150565b61025490611b619236916113e1565b600052600a6020526002604060002001548015611b9757600054611b8491611578565b80421015611b97576114429042906116e8565b50600090565b6001600160401b0381116113cb5760051b6020019056fea26469706673582212206f80b57822fb91ec0cd20cf0b4b62c10edd585bb646ec2e70ed4e7a786b4893d64736f6c63430008140033",
  "linkReferences": {},
  "deployedLinkReferences": {}
}