{
  "_format": "hh-sol-artifact-1",
  "contractName": "LiquidationEngine",
  "sourceName": "contracts/LiquidationEngine.sol",
  "abi": [
    {
      "inputs": [
        {
          "internalType": "address",
          "name": "_market",
          "type": "address"
        },
        {
          "internalType": "address",
          "name": "_collateralManager",
          "type": "address"
        },
        {
          "internalType": "address",
          "name": "_assetRegistry",
          "type": "address"
        },
        {
          "internalType": "address",
          "name": "_oracle",
          "type": "address"
        },
        {
          "internalType": "address",
          "name": "_securityModule",
          "type": "address"
        },
        {
          "internalType": "address payable",
          "name": "_insuranceFund",
          "type": "address"
        }
      ],
      "stateMutability": "nonpayable",
      "type": "constructor"
    },
    {
      "inputs": [],
      "name": "CooldownActive",
      "type": "error"
    },
    {
      "inputs": [],
      "name": "InvalidParameter",
      "type": "error"
    },
    {
      "inputs": [],
      "name": "NotWhitelistedLiquidator",
      "type": "error"
    },
    {
      "inputs": [],
      "name": "PositionCannotBeLiquidated",
      "type": "error"
    },
    {
      "inputs": [],
      "name": "TransferFailed",
      "type": "error"
    },
    {
      "inputs": [],
      "name": "Unauthorized",
      "type": "error"
    },
    {
      "anonymous": false,
      "inputs": [
        {
          "indexed": false,
          "internalType": "uint256",
          "name": "newPeriod",
          "type": "uint256"
        }
      ],
      "name": "CooldownPeriodUpdated",
      "type": "event"
    },
    {
      "anonymous": false,
      "inputs": [
        {
          "indexed": false,
          "internalType": "uint256",
          "name": "newCompensation",
          "type": "uint256"
        }
      ],
      "name": "GasCompensationUpdated",
      "type": "event"
    },
    {
      "anonymous": false,
      "inputs": [
        {
          "indexed": true,
          "internalType": "address",
          "name": "previousOwner",
          "type": "address"
        },
        {
          "indexed": true,
          "internalType": "address",
          "name": "newOwner",
          "type": "address"
        }
      ],
      "name": "OwnershipTransferred",
      "type": "event"
    },
    {
      "anonymous": false,
      "inputs": [
        {
          "indexed": false,
          "internalType": "uint256",
          "name": "newThreshold",
          "type": "uint256"
        },
        {
          "indexed": false,
          "internalType": "uint256",
          "name": "newPercent",
          "type": "uint256"
        }
      ],
      "name": "PartialLiquidationUpdated",
      "type": "event"
    },
    {
      "anonymous": false,
      "inputs": [
        {
          "indexed": false,
          "internalType": "uint256",
          "name": "newPenalty",
          "type": "uint256"
        }
      ],
      "name": "PenaltyUpdated",
      "type": "event"
    },
    {
      "anonymous": false,
      "inputs": [
        {
          "indexed": true,
          "internalType": "uint256",
          "name": "positionId",
          "type": "uint256"
        },
        {
          "indexed": true,
          "internalType": "address",
          "name": "trader",
          "type": "address"
        },
        {
          "indexed": true,
          "internalType": "address",
          "name": "liquidator",
          "type": "address"
        },
        {
          "indexed": false,
          "internalType": "uint128",
          "name": "positionSize",
          "type": "uint128"
        },
        {
          "indexed": false,
          "internalType": "uint128",
          "name": "liquidationPrice",
          "type": "uint128"
        },
        {
          "indexed": false,
          "internalType": "bool",
          "name": "isPartial",
          "type": "bool"
        },
        {
          "indexed": false,
          "internalType": "uint256",
          "name": "penalty",
          "type": "uint256"
        }
      ],
      "name": "PositionLiquidated",
      "type": "event"
    },
    {
      "anonymous": false,
      "inputs": [
        {
          "indexed": false,
          "internalType": "uint256",
          "name": "newReward",
          "type": "uint256"
        }
      ],
      "name": "RewardUpdated",
      "type": "event"
    },
    {
      "anonymous": false,
      "inputs": [
        {
          "indexed": false,
          "internalType": "string",
          "name": "thresholdType",
          "type": "string"
        },
        {
          "indexed": false,
          "internalType": "uint256",
          "name": "newThreshold",
          "type": "uint256"
        }
      ],
      "name": "ThresholdUpdated",
      "type": "event"
    },
    {
      "anonymous": false,
      "inputs": [
        {
          "indexed": false,
          "internalType": "bool",
          "name": "useWhitelist",
          "type": "bool"
        }
      ],
      "name": "WhitelistModeUpdated",
      "type": "event"
    },
    {
      "anonymous": false,
      "inputs": [
        {
          "indexed": true,
          "internalType": "address",
          "name": "liquidator",
          "type": "address"
        }
      ],
      "name": "WhitelistedLiquidatorAdded",
      "type": "event"
    },
    {
      "anonymous": false,
      "inputs": [
        {
          "indexed": true,
          "internalType": "address",
          "name": "liquidator",
          "type": "address"
        }
      ],
      "name": "WhitelistedLiquidatorRemoved",
      "type": "event"
    },
    {
      "inputs": [
        {
          "internalType": "address",
          "name": "liquidator",
          "type": "address"
        }
      ],
      "name": "addWhitelistedLiquidator",
      "outputs": [],
      "stateMutability": "nonpayable",
      "type": "function"
    },
    {
      "inputs": [],
      "name": "assetRegistry",
      "outputs": [
        {
          "internalType": "contract AssetRegistry",
          "name": "",
          "type": "address"
        }
      ],
      "stateMutability": "view",
      "type": "function"
    },
    {
      "inputs": [
        {
          "internalType": "uint256",
          "name": "positionId",
          "type": "uint256"
        }
      ],
      "name": "calculateCurrentMargin",
      "outputs": [
        {
          "internalType": "uint256",
          "name": "",
          "type": "uint256"
        }
      ],
      "stateMutability": "view",
      "type": "function"
    },
    {
      "inputs": [
        {
          "internalType": "uint256",
          "name": "positionId",
          "type": "uint256"
        }
      ],
      "name": "canLiquidate",
      "outputs": [
        {
          "internalType": "bool",
          "name": "shouldLiquidate",
          "type": "bool"
        },
        {
          "internalType": "bool",
          "name": "isPartialLiq",
          "type": "bool"
        },
        {
          "internalType": "uint128",
          "name": "currentPrice",
          "type": "uint128"
        }
      ],
      "stateMutability": "view",
      "type": "function"
    },
    {
      "inputs": [],
      "name": "collateralManager",
      "outputs": [
        {
          "internalType": "contract CollateralManager",
          "name": "",
          "type": "address"
        }
      ],
      "stateMutability": "view",
      "type": "function"
    },
    {
      "inputs": [],
      "name": "cooldownPeriod",
      "outputs": [
        {
          "internalType": "uint256",
          "name": "",
          "type": "uint256"
        }
      ],
      "stateMutability": "view",
      "type": "function"
    },
    {
      "inputs": [],
      "name": "gasCompensation",
      "outputs": [
        {
          "internalType": "uint256",
          "name": "",
          "type": "uint256"
        }
      ],
      "stateMutability": "view",
      "type": "function"
    },
    {
      "inputs": [
        {
          "internalType": "string",
          "name": "asset",
          "type": "string"
        },
        {
          "internalType": "uint256",
          "name": "startId",
          "type": "uint256"
        },
        {
          "internalType": "uint256",
          "name": "limit",
          "type": "uint256"
        }
      ],
      "name": "getLiquidablePositions",
      "outputs": [
        {
          "internalType": "uint256[]",
          "name": "",
          "type": "uint256[]"
        }
      ],
      "stateMutability": "view",
      "type": "function"
    },
    {
      "inputs": [
        {
          "internalType": "uint256",
          "name": "positionId",
          "type": "uint256"
        }
      ],
      "name": "getLiquidationPrice",
      "outputs": [
        {
          "internalType": "uint128",
          "name": "",
          "type": "uint128"
        }
      ],
      "stateMutability": "view",
      "type": "function"
    },
    {
      "inputs": [],
      "name": "insuranceFund",
      "outputs": [
        {
          "internalType": "address payable",
          "name": "",
          "type": "address"
        }
      ],
      "stateMutability": "view",
      "type": "function"
    },
    {
      "inputs": [
        {
          "internalType": "uint256",
          "name": "positionId",
          "type": "uint256"
        }
      ],
      "name": "liquidatePosition",
      "outputs": [],
      "stateMutability": "nonpayable",
      "type": "function"
    },
    {
      "inputs": [
        {
          "internalType": "uint256",
          "name": "",
          "type": "uint256"
        }
      ],
      "name": "liquidationCooldown",
      "outputs": [
        {
          "internalType": "uint256",
          "name": "",
          "type": "uint256"
        }
      ],
      "stateMutability": "view",
      "type": "function"
    },
    {
      "inputs": [],
      "name": "liquidationPenalty",
      "outputs": [
        {
          "internalType": "uint256",
          "name": "",
          "type": "uint256"
        }
      ],
      "stateMutability": "view",
      "type": "function"
    },
    {
      "inputs": [],
      "name": "liquidationThreshold",
      "outputs": [
        {
          "internalType": "uint256",
          "name": "",
          "type": "uint256"
        }
      ],
      "stateMutability": "view",
      "type": "function"
    },
    {
      "inputs": [],
      "name": "liquidatorReward",
      "outputs": [
        {
          "internalType": "uint256",
          "name": "",
          "type": "uint256"
        }
      ],
      "stateMutability": "view",
      "type": "function"
    },
    {
      "inputs": [],
      "name": "market",
      "outputs": [
        {
          "internalType": "contract Market",
          "name": "",
          "type": "address"
        }
      ],
      "stateMutability": "view",
      "type": "function"
    },
    {
      "inputs": [],
      "name": "oracle",
      "outputs": [
        {
          "internalType": "contract Oracle",
          "name": "",
          "type": "address"
        }
      ],
      "stateMutability": "view",
      "type": "function"
    },
    {
      "inputs": [],
      "name": "owner",
      "outputs": [
        {
          "internalType": "address",
          "name": "",
          "type": "address"
        }
      ],
      "stateMutability": "view",
      "type": "function"
    },
    {
      "inputs": [],
      "name": "partialLiquidationPercent",
      "outputs": [
        {
          "internalType": "uint256",
          "name": "",
          "type": "uint256"
        }
      ],
      "stateMutability": "view",
      "type": "function"
    },
    {
      "inputs": [],
      "name": "partialLiquidationThreshold",
      "outputs": [
        {
          "internalType": "uint256",
          "name": "",
          "type": "uint256"
        }
      ],
      "stateMutability": "view",
      "type": "function"
    },
    {
      "inputs": [
        {
          "internalType": "address",
          "name": "liquidator",
          "type": "address"
        }
      ],
      "name": "removeWhitelistedLiquidator",
      "outputs": [],
      "stateMutability": "nonpayable",
      "type": "function"
    },
    {
      "inputs": [],
      "name": "securityModule",
      "outputs": [
        {
          "internalType": "contract SecurityModule",
          "name": "",
          "type": "address"
        }
      ],
      "stateMutability": "view",
      "type": "function"
    },
    {
      "inputs": [
        {
          "internalType": "uint256",
          "name": "newPeriod",
          "type": "uint256"
        }
      ],
      "name": "setCooldownPeriod",
      "outputs": [],
      "stateMutability": "nonpayable",
      "type": "function"
    },
    {
      "inputs": [
        {
          "internalType": "uint256",
          "name": "newCompensation",
          "type": "uint256"
        }
      ],
      "name": "setGasCompensation",
      "outputs": [],
      "stateMutability": "nonpayable",
      "type": "function"
    },
    {
      "inputs": [
        {
          "internalType": "uint256",
          "name": "newPenalty",
          "type": "uint256"
        }
      ],
      "name": "setLiquidationPenalty",
      "outputs": [],
      "stateMutability": "nonpayable",
      "type": "function"
    },
    {
      "inputs": [
        {
          "internalType": "uint256",
          "name": "newThreshold",
          "type": "uint256"
        }
      ],
      "name": "setLiquidationThreshold",
      "outputs": [],
      "stateMutability": "nonpayable",
      "type": "function"
    },
    {
      "inputs": [
        {
          "internalType": "uint256",
          "name": "newReward",
          "type": "uint256"
        }
      ],
      "name": "setLiquidatorReward",
      "outputs": [],
      "stateMutability": "nonpayable",
      "type": "function"
    },
    {
      "inputs": [
        {
          "internalType": "uint256",
          "name": "newThreshold",
          "type": "uint256"
        },
        {
          "internalType": "uint256",
          "name": "newPercent",
          "type": "uint256"
        }
      ],
      "name": "setPartialLiquidation",
      "outputs": [],
      "stateMutability": "nonpayable",
      "type": "function"
    },
    {
      "inputs": [
        {
          "internalType": "bool",
          "name": "useWhitelist",
          "type": "bool"
        }
      ],
      "name": "setUseWhitelistedLiquidators",
      "outputs": [],
      "stateMutability": "nonpayable",
      "type": "function"
    },
    {
      "inputs": [
        {
          "internalType": "address",
          "name": "newOwner",
          "type": "address"
        }
      ],
      "name": "transferOwnership",
      "outputs": [],
      "stateMutability": "nonpayable",
      "type": "function"
    },
    {
      "inputs": [],
      "name": "useWhitelistedLiquidators",
      "outputs": [
        {
          "internalType": "bool",
          "name": "",
          "type": "bool"
        }
      ],
      "stateMutability": "view",
      "type": "function"
    },
    {
      "inputs": [
        {
          "internalType": "address",
          "name": "",
          "type": "address"
        }
      ],
      "name": "whitelistedLiquidators",
      "outputs": [
        {
          "internalType": "bool",
          "name": "",
          "type": "bool"
        }
      ],
      "stateMutability": "view",
      "type": "function"
    }
  ],
  "bytecode": "0x6080346200030157601f62001c9e38819003918201601f191683019291906001600160401b0384118385101762000306578160c09284926040968752833981010312620003015762000051816200031c565b6020620000608184016200031c565b926200006e8582016200031c565b6200007c606083016200031c565b9060a06200008d608085016200031c565b9301516001600160a01b0380821696909187900362000301576050600755605a60085560326009556005600a556003600b55662386f26fc10000600c55610258600e558116968715620002bd5781169182156200026e5781169283156200022a578116938415620001e65716938415620001a357851562000160575060018060a01b031995866000541617600055856001541617600155846002541617600255836003541617600355826004541617600455816005541617600555339060065416176006555161196c9081620003328239f35b60649088519062461bcd60e51b82526004820152601e60248201527f496e76616c696420696e737572616e63652066756e64206164647265737300006044820152fd5b60649088519062461bcd60e51b82526004820152601f60248201527f496e76616c6964207365637572697479206d6f64756c652061646472657373006044820152fd5b885162461bcd60e51b815260048101879052601660248201527f496e76616c6964206f7261636c652061646472657373000000000000000000006044820152606490fd5b885162461bcd60e51b815260048101879052601e60248201527f496e76616c6964206173736574207265676973747279206164647265737300006044820152606490fd5b885162461bcd60e51b815260048101879052602260248201527f496e76616c696420636f6c6c61746572616c206d616e61676572206164647265604482015261737360f01b6064820152608490fd5b885162461bcd60e51b815260048101879052601660248201527f496e76616c6964206d61726b65742061646472657373000000000000000000006044820152606490fd5b600080fd5b634e487b7160e01b600052604160045260246000fd5b51906001600160a01b0382168203620003015756fe6080604081815260048036101561001557600080fd5b600092833560e01c90816304646a49146111535750806305e142271461112c5780630c7c53411461110d57806318ed6f0f14610f09578063226e240114610e9357806323be345c14610e6a57806323f5589a14610e4b5780632806a74314610de75780632c854f2314610db7578063349c14e414610d93578063380ef3fe14610d6c5780634031234c14610d4d57806346cf81c614610d2e57806379c797e714610cbf5780637dc0d1d014610c9657806380ea3de114610c3b57806380f5560514610c1357806384f5c2d214610bf45780638da5cb5b14610bcb578063979d7e8614610ba25780639df411ee14610b5e578063a1c4b7ab14610b37578063b10a821e14610b18578063b790230314610aef578063cdddd4e514610514578063d0029b51146104b9578063d0b0c81614610402578063d9ed3def146103c4578063e9e441bb14610351578063eed3dfe814610294578063f2d7e9501461021a5763f2fde38b1461018357600080fd5b34610216576020366003190112610216576001600160a01b0381358181169391929084900361021257600654928316918233036102065784156101f957505082907f8be0079c531659141344cd1fd0a4f28419497f9722a3daafe3b4186f6b6457e08580a36001600160a01b0319161760065580f35b51630309cb8760e51b8152fd5b516282b42960e81b8152fd5b8480fd5b8280fd5b5090346102165760203660031901126102165781356001600160a01b03818116939184900361021257600654163303610287575081835260106020528220805460ff191690557f43d1b8a5f4afded3e7217e0920d0903a1be5f3d21be1013fdd83c8d221c80e278280a280f35b90516282b42960e81b8152fd5b5091903461034d578060031936011261034d57600654833590602435906001600160a01b0316330361033e576007548211801590610333575b6103185780158015610328575b610318577f5191180090bca11b33c9c8c6ddbf0f4b34879fccb02d08cb182d7599b4f7d770939450816008558060095582519182526020820152a180f35b8251630309cb8760e51b81528590fd5b5060648110156102da565b5060648210156102cd565b82516282b42960e81b81528590fd5b5080fd5b50903461021657602036600319011261021657600654823592906001600160a01b0316330361028757600a548310156103b65750816020917fcb94909754d27c309adf4167150f1f7aa04de40b6a0e6bb98b2ae80a2bf438f693600b5551908152a180f35b9051630309cb8760e51b8152fd5b503461021657602036600319011261021657356001600160a01b0381169081900361021657818360ff92602095526010855220541690519015158152f35b503461021657602036600319011261021657600654813591906001600160a01b031633036104ac57811580156104a1575b6104935760085482101561049357507fbc563de8c41ac66a7038e5cdcc313d786622bb5a46f1f62d154e52c7fd363d689181608092600755600b8251928084528301526a3634b8bab4b230ba34b7b760a91b60608301526020820152a180f35b8251630309cb8760e51b8152fd5b506064821015610433565b82516282b42960e81b8152fd5b50903461021657602036600319011261021657600654823592906001600160a01b031633036102875750816020917f7b64d782afd418ef029a3f674bdea4e52b21d14c89413ae4e91bbd1d0f9d79be93600c5551908152a180f35b5034610216576020908160031936011261076c5780548351635c975abb60e01b81526001600160a01b03948335939290919086169085818581855afa908115610ae5578891610aac575b50610a76578460ff600f54169182610a5d575b826109eb575b5050806109dd575b6109d05761058c836113a2565b9291959095156109c057876105a086611550565b50505091989050878352600d845242858420556000146107ce57906105d79160646001600160801b0393849283600954911661136f565b0416988082541698893b1561021657828960648a838f9587908c519788968795630218dca560e61b87528601526024850152169e8f60448401525af180156107c4579083916107b0575b50506064610631600a548c61136f565b04966064610641600b548d61136f565b048260015416803b156102125787516378938e1960e11b80825233858301908152602081018590529092879183919082908490829060400103925af180156107a657908691610792575b5050836001541690600c54823b1561078e5789519182523385830190815260208101919091529091869183919082908490829060400103925af1801561078457908591610770575b50506106df908961163a565b9160055416803b1561076c578391875180948193632c6d599560e11b83525af180156107625761074a575b50506001938351988952169087015285015260608401527f753679ec8eb3d07ca621e8389dedfaf5d796110887b31de57c8348bffd0da26260803394a480f35b61075390611192565b61075e57883861070a565b8880fd5b85513d84823e3d90fd5b8380fd5b61077990611192565b61076c5783386106d3565b88513d87823e3d90fd5b8680fd5b61079b90611192565b61021257843861068b565b89513d88823e3d90fd5b6107b990611192565b61034d578138610621565b86513d85823e3d90fd5b90888199959899969493965416803b1561034d578190604485518094819363209edf9d60e01b83528c8a8401523360248401525af180156109b6576109a3575b506001600160801b038091169689606461082a600a548b61136f565b0494606461083a600b548c61136f565b048760015416803b1561076c5786516378938e1960e11b80825233858301908152602081018590529092869183919082908490829060400103925af180156107845790859161098f575b5050886001541690600c54823b1561098b5788519182523385830190815260208101919091529091859183919082908490829060400103925af180156109815790849161096d575b50506108d8908761163a565b908760055416803b1561076c578391875180948193632c6d599560e11b83525af180156107625761094b575b5050917f753679ec8eb3d07ca621e8389dedfaf5d796110887b31de57c8348bffd0da26295600092608096959483519a8b521690890152870152606086015233951693a480f35b61095a90969594929396611192565b61096957919293908938610904565b8980fd5b61097690611192565b6102165782386108cc565b87513d86823e3d90fd5b8580fd5b61099890611192565b61076c578338610884565b6109af90999199611192565b973861080e565b83513d8c823e3d90fd5b8151631f3904e360e01b81528490fd5b516349b6006560e11b8152fd5b50846006541633141561057f565b8351637c866d9b60e11b815233868201529250829060249082905afa908115610a53578791610a1e575b50158438610577565b90508481813d8311610a4c575b610a3581836111bc565b8101031261078e57610a4690611267565b38610a15565b503d610a2b565b82513d89823e3d90fd5b915050338752601085528460ff83892054161591610571565b815162461bcd60e51b8152808401869052601060248201526f14de5cdd195b481a5cc81c185d5cd95960821b6044820152606490fd5b90508581813d8311610ade575b610ac381836111bc565b81010312610ada57610ad490611267565b3861055e565b8780fd5b503d610ab9565b83513d8a823e3d90fd5b50503461034d578160031936011261034d5760055490516001600160a01b039091168152602090f35b50503461034d578160031936011261034d57602090600b549051908152f35b5034610216576020366003190112610216576020928291358152600d845220549051908152f35b508234610b9f576020366003190112610b9f5760606001600160801b0384610b8685356113a2565b9083949294519415158552151560208501521690820152f35b80fd5b50503461034d578160031936011261034d5760025490516001600160a01b039091168152602090f35b50503461034d578160031936011261034d5760065490516001600160a01b039091168152602090f35b50503461034d578160031936011261034d57602090600c549051908152f35b50503461034d578160031936011261034d57905490516001600160a01b039091168152602090f35b50903461021657602036600319011261021657600654823592906001600160a01b031633036102875750816020917f3b897fd6944545fcb6a5d5b058781d763169157f8559ca1a7f3276b981d0997193600e5551908152a180f35b50503461034d578160031936011261034d5760035490516001600160a01b039091168152602090f35b5090346102165760203660031901126102165781359182151580930361076c576006546001600160a01b0316330361028757507f2d096e0ce298196d706256be0f2a6ef71011a475a3224558a3a71386da284e659160209160ff19600f541660ff831617600f5551908152a180f35b50503461034d578160031936011261034d576020906008549051908152f35b50503461034d578160031936011261034d576020906007549051908152f35b50346102165782600319360112610216575490516001600160a01b03909116815260209150f35b50503461034d578160031936011261034d5760209060ff600f541690519015158152f35b509134610b9f576020366003190112610b9f57506001600160801b03610ddf60209335611829565b915191168152f35b50903461021657602036600319011261021657600654823592906001600160a01b031633036102875760148310156103b65750816020917fc831f5abc7bc27c011edea988b6e4e573af053efa7cfa703a1878827ec6acc1093600a5551908152a180f35b50503461034d578160031936011261034d57602090600a549051908152f35b50503461034d578160031936011261034d5760015490516001600160a01b039091168152602090f35b5090346102165760203660031901126102165781356001600160a01b038181169391849003610212576006541633036102875782156103b6575081835260106020528220805460ff191660011790557f90776a9892ca627030b50510b50aff12b0bd50c7c257da87c1317a9c0610508d8280a280f35b509134610b9f576060366003190112610b9f5782359267ffffffffffffffff90818511610216573660238601121561021657848101359182116102165760248501946024833692010111918261076c5783548551633b6e38df60e11b8152956044359460209490928591899182906001600160a01b03165afa9687156111035786976110d4575b50610f9a856118cb565b9580956024355b898110806110cb575b1561104a57610fb881611550565b9394505050501590811561100b575b50610fdc57610fd5816113a2565b5050610fea575b610fe5906118fd565b610fa1565b966110038189610ffd610fe5948d61190c565b526118fd565b979050610fdc565b90508781519101208561101d886111de565b611029875191826111bc565b8881528981019161098b57888e8337858a8a83010152519020141538610fc7565b83878a858b611058816118cb565b92825b8281106110a35750505083519383808695860192818752855180945286019401925b82811061108c57505050500390f35b83518552869550938101939281019260010161107d565b806110b66110c19284999798969961190c565b51610ffd828961190c565b959294939561105b565b50818810610faa565b9096508381813d83116110fc575b6110ec81836111bc565b8101031261098b57519538610f90565b503d6110e2565b81513d88823e3d90fd5b50503461034d578160031936011261034d576020906009549051908152f35b509134610b9f576020366003190112610b9f575061114c60209235611671565b9051908152f35b84903461034d578160031936011261034d57602090600e548152f35b9190820180921161117c57565b634e487b7160e01b600052601160045260246000fd5b67ffffffffffffffff81116111a657604052565b634e487b7160e01b600052604160045260246000fd5b90601f8019910116810190811067ffffffffffffffff8211176111a657604052565b67ffffffffffffffff81116111a657601f01601f191660200190565b60005b83811061120d5750506000910152565b81810151838201526020016111fd565b81601f82011215611262578051611233816111de565b9261124160405194856111bc565b818452602082840101116112625761125f91602080850191016111fa565b90565b600080fd5b5190811515820361126257565b60208183031261126257805167ffffffffffffffff91828211611262570190608082840312611262576040519260808401848110838211176111a657604052825182811161126257816112c891850161121d565b84526020830151918211611262576112e191830161121d565b6020830152604081015160ff8116810361126257604083015261130690606001611267565b606082015290565b6040916020825261132e81518092816020860152602086860191016111fa565b601f01601f1916010190565b51906001600160801b038216820361126257565b91908260409103126112625761125f60206113688461133a565b930161133a565b8181029291811591840414171561117c57565b811561138c570490565b634e487b7160e01b600052601260045260246000fd5b6113ab81611550565b9296945050501561154457600093838552600d6020526040916113d483872054600e549061116f565b4210611539576002548351630cd5286d60e41b8152916001600160a01b0391889184918416908290819061140b906004830161130e565b03915afa91821561152f5791849161144a938992611508575b5060209060035416910151908251808095819463524f388960e01b83526004830161130e565b03915afa9283156114ff5786936114cf575b50506114688294611671565b906064820291808304606414901517156114bb57906001600160801b03611490921690611382565b6007548110156114a35750506001929190565b600854116114b15750829190565b6001935083925090565b634e487b7160e01b86526011600452602486fd5b6114ef929350803d106114f8575b6114e781836111bc565b81019061134e565b5090388061145c565b503d6114dd565b513d87823e3d90fd5b6020919250611528903d808c833e61152081836111bc565b810190611274565b9190611424565b84513d89823e3d90fd5b508493508392915050565b50600092508291508190565b60018060a01b0390600091828181541692602460405180958193634f6675af60e11b835260048301525afa91821561162f578380938193829383809361159c575b505050909192939495565b9550955095505050503d8082843e6115b481846111bc565b82019060c083830312610b9f5782519384168403610b9f5760208301519067ffffffffffffffff8211610b9f5750906115ee91830161121d565b916115fb6040830161133a565b916116086060820161133a565b9161162160a061161a60808501611267565b9301611267565b909493929190388080611591565b6040513d85823e3d90fd5b9190820391821161117c57565b6001600160801b03918216908216039190821161117c57565b600160ff1b811461117c5760000390565b61167a90611550565b9094509290919215611820576116b89360018060a01b0380600254169060409384518093630cd5286d60e41b8252818060009b8c956004830161130e565b03915afa91821561152f579184916116f6938992611508575060209060035416910151908251808095819463524f388960e01b83526004830161130e565b03915afa9283156114ff578693611800575b5050156117d4576001600160801b03918281169182848216116000146117aa57928061173a6117439361174896611647565b1690851661136f565b611382565b915b8083126117655750906001600160801b0361125f921661116f565b906001600160801b03168183820193841291129080158216911516176117965780821315611791575090565b905090565b634e487b7160e01b81526011600452602490fd5b836117ce946117c0611743936117c99695611647565b1690861661136f565b611660565b9161174a565b906001600160801b03918282169182848316106000146117aa57928061173a611743936117ce96611647565b611817929350803d106114f8576114e781836111bc565b50903880611708565b50505050600090565b61183290611550565b925092509250156118ac57600754606403906064821161117c571561188a5760646118686001600160801b03809416928361136f565b0460009181811160001461188457611880925061163a565b1690565b50501690565b6118809060646118a56001600160801b03809516928361136f565b049061116f565b5050600090565b67ffffffffffffffff81116111a65760051b60200190565b906118d5826118b3565b6118e260405191826111bc565b82815280926118f3601f19916118b3565b0190602036910137565b600019811461117c5760010190565b80518210156119205760209160051b010190565b634e487b7160e01b600052603260045260246000fdfea26469706673582212206a4744837841fa6263ab049145366e96665d494c9ca3160772aa956bacaf358464736f6c63430008140033",
  "linkReferences": {},
  "deployedLinkReferences": {}
}