{
  "_format": "hh-sol-artifact-1",
  "contractName": "Vault",
  "sourceName": "contracts/Vault.sol",
  "abi": [
    {
      "inputs": [
        {
          "internalType": "address",
          "name": "_securityModule",
          "type": "address"
        }
      ],
      "stateMutability": "nonpayable",
      "type": "constructor"
    },
    {
      "inputs": [],
      "name": "InsufficientBalance",
      "type": "error"
    },
    {
      "inputs": [],
      "name": "InvalidAmount",
      "type": "error"
    },
    {
      "inputs": [
        {
          "internalType": "uint256",
          "name": "unlockTime",
          "type": "uint256"
        }
      ],
      "name": "StillInLockupPeriod",
      "type": "error"
    },
    {
      "inputs": [],
      "name": "SystemPaused",
      "type": "error"
    },
    {
      "inputs": [],
      "name": "TransferFailed",
      "type": "error"
    },
    {
      "inputs": [],
      "name": "Unauthorized",
      "type": "error"
    },
    {
      "anonymous": false,
      "inputs": [
        {
          "indexed": true,
          "internalType": "address",
          "name": "oldManager",
          "type": "address"
        },
        {
          "indexed": true,
          "internalType": "address",
          "name": "newManager",
          "type": "address"
        }
      ],
      "name": "CollateralManagerUpdated",
      "type": "event"
    },
    {
      "anonymous": false,
      "inputs": [
        {
          "indexed": true,
          "internalType": "address",
          "name": "user",
          "type": "address"
        },
        {
          "indexed": false,
          "internalType": "uint256",
          "name": "ethAmount",
          "type": "uint256"
        },
        {
          "indexed": false,
          "internalType": "uint256",
          "name": "olpAmount",
          "type": "uint256"
        }
      ],
      "name": "Deposited",
      "type": "event"
    },
    {
      "anonymous": false,
      "inputs": [
        {
          "indexed": false,
          "internalType": "uint256",
          "name": "oldPrice",
          "type": "uint256"
        },
        {
          "indexed": false,
          "internalType": "uint256",
          "name": "newPrice",
          "type": "uint256"
        }
      ],
      "name": "OLPPriceUpdated",
      "type": "event"
    },
    {
      "anonymous": false,
      "inputs": [
        {
          "indexed": true,
          "internalType": "address",
          "name": "previousOwner",
          "type": "address"
        },
        {
          "indexed": true,
          "internalType": "address",
          "name": "newOwner",
          "type": "address"
        }
      ],
      "name": "OwnershipTransferred",
      "type": "event"
    },
    {
      "anonymous": false,
      "inputs": [
        {
          "indexed": false,
          "internalType": "uint256",
          "name": "timestamp",
          "type": "uint256"
        },
        {
          "indexed": false,
          "internalType": "uint256",
          "name": "olpPrice",
          "type": "uint256"
        },
        {
          "indexed": false,
          "internalType": "uint256",
          "name": "totalVaultValue",
          "type": "uint256"
        }
      ],
      "name": "PerformanceRecorded",
      "type": "event"
    },
    {
      "anonymous": false,
      "inputs": [
        {
          "indexed": false,
          "internalType": "uint256",
          "name": "oldValue",
          "type": "uint256"
        },
        {
          "indexed": false,
          "internalType": "uint256",
          "name": "newValue",
          "type": "uint256"
        }
      ],
      "name": "VaultValueUpdated",
      "type": "event"
    },
    {
      "anonymous": false,
      "inputs": [
        {
          "indexed": true,
          "internalType": "address",
          "name": "user",
          "type": "address"
        },
        {
          "indexed": false,
          "internalType": "uint256",
          "name": "olpAmount",
          "type": "uint256"
        },
        {
          "indexed": false,
          "internalType": "uint256",
          "name": "ethAmount",
          "type": "uint256"
        }
      ],
      "name": "Withdrawn",
      "type": "event"
    },
    {
      "inputs": [],
      "name": "LOCKUP_PERIOD",
      "outputs": [
        {
          "internalType": "uint256",
          "name": "",
          "type": "uint256"
        }
      ],
      "stateMutability": "view",
      "type": "function"
    },
    {
      "inputs": [
        {
          "internalType": "uint256",
          "name": "amount",
          "type": "uint256"
        },
        {
          "internalType": "address",
          "name": "recipient",
          "type": "address"
        }
      ],
      "name": "authorizedWithdrawal",
      "outputs": [],
      "stateMutability": "nonpayable",
      "type": "function"
    },
    {
      "inputs": [],
      "name": "collateralManager",
      "outputs": [
        {
          "internalType": "address",
          "name": "",
          "type": "address"
        }
      ],
      "stateMutability": "view",
      "type": "function"
    },
    {
      "inputs": [],
      "name": "deposit",
      "outputs": [],
      "stateMutability": "payable",
      "type": "function"
    },
    {
      "inputs": [],
      "name": "getCurrentAPY",
      "outputs": [
        {
          "internalType": "uint256",
          "name": "",
          "type": "uint256"
        }
      ],
      "stateMutability": "view",
      "type": "function"
    },
    {
      "inputs": [
        {
          "internalType": "uint256",
          "name": "start",
          "type": "uint256"
        },
        {
          "internalType": "uint256",
          "name": "limit",
          "type": "uint256"
        }
      ],
      "name": "getPerformanceHistory",
      "outputs": [
        {
          "internalType": "uint256[]",
          "name": "timestamps",
          "type": "uint256[]"
        },
        {
          "internalType": "uint256[]",
          "name": "prices",
          "type": "uint256[]"
        },
        {
          "internalType": "uint256[]",
          "name": "values",
          "type": "uint256[]"
        }
      ],
      "stateMutability": "view",
      "type": "function"
    },
    {
      "inputs": [
        {
          "internalType": "address",
          "name": "user",
          "type": "address"
        }
      ],
      "name": "getUserPerformance",
      "outputs": [
        {
          "internalType": "uint256",
          "name": "olpAmount",
          "type": "uint256"
        },
        {
          "internalType": "uint256",
          "name": "ethValue",
          "type": "uint256"
        },
        {
          "internalType": "int256",
          "name": "performancePct",
          "type": "int256"
        },
        {
          "internalType": "uint256",
          "name": "unlockTime",
          "type": "uint256"
        }
      ],
      "stateMutability": "view",
      "type": "function"
    },
    {
      "inputs": [],
      "name": "getVaultBalance",
      "outputs": [
        {
          "internalType": "uint256",
          "name": "",
          "type": "uint256"
        }
      ],
      "stateMutability": "view",
      "type": "function"
    },
    {
      "inputs": [],
      "name": "lastPriceUpdate",
      "outputs": [
        {
          "internalType": "uint256",
          "name": "",
          "type": "uint256"
        }
      ],
      "stateMutability": "view",
      "type": "function"
    },
    {
      "inputs": [],
      "name": "olpPrice",
      "outputs": [
        {
          "internalType": "uint256",
          "name": "",
          "type": "uint256"
        }
      ],
      "stateMutability": "view",
      "type": "function"
    },
    {
      "inputs": [],
      "name": "olpSupply",
      "outputs": [
        {
          "internalType": "uint256",
          "name": "",
          "type": "uint256"
        }
      ],
      "stateMutability": "view",
      "type": "function"
    },
    {
      "inputs": [],
      "name": "owner",
      "outputs": [
        {
          "internalType": "address",
          "name": "",
          "type": "address"
        }
      ],
      "stateMutability": "view",
      "type": "function"
    },
    {
      "inputs": [
        {
          "internalType": "uint256",
          "name": "",
          "type": "uint256"
        }
      ],
      "name": "performanceHistory",
      "outputs": [
        {
          "internalType": "uint256",
          "name": "timestamp",
          "type": "uint256"
        },
        {
          "internalType": "uint256",
          "name": "olpPrice",
          "type": "uint256"
        },
        {
          "internalType": "uint256",
          "name": "totalVaultValue",
          "type": "uint256"
        },
        {
          "internalType": "uint256",
          "name": "totalDeposits",
          "type": "uint256"
        }
      ],
      "stateMutability": "view",
      "type": "function"
    },
    {
      "inputs": [],
      "name": "recordPerformance",
      "outputs": [],
      "stateMutability": "nonpayable",
      "type": "function"
    },
    {
      "inputs": [],
      "name": "securityModule",
      "outputs": [
        {
          "internalType": "contract SecurityModule",
          "name": "",
          "type": "address"
        }
      ],
      "stateMutability": "view",
      "type": "function"
    },
    {
      "inputs": [
        {
          "internalType": "address",
          "name": "_collateralManager",
          "type": "address"
        }
      ],
      "name": "setCollateralManager",
      "outputs": [],
      "stateMutability": "nonpayable",
      "type": "function"
    },
    {
      "inputs": [],
      "name": "totalDeposits",
      "outputs": [
        {
          "internalType": "uint256",
          "name": "",
          "type": "uint256"
        }
      ],
      "stateMutability": "view",
      "type": "function"
    },
    {
      "inputs": [],
      "name": "totalVaultValue",
      "outputs": [
        {
          "internalType": "uint256",
          "name": "",
          "type": "uint256"
        }
      ],
      "stateMutability": "view",
      "type": "function"
    },
    {
      "inputs": [
        {
          "internalType": "address",
          "name": "newOwner",
          "type": "address"
        }
      ],
      "name": "transferOwnership",
      "outputs": [],
      "stateMutability": "nonpayable",
      "type": "function"
    },
    {
      "inputs": [],
      "name": "updateVaultValue",
      "outputs": [],
      "stateMutability": "nonpayable",
      "type": "function"
    },
    {
      "inputs": [
        {
          "internalType": "address",
          "name": "",
          "type": "address"
        }
      ],
      "name": "userInfo",
      "outputs": [
        {
          "internalType": "uint256",
          "name": "olpAmount",
          "type": "uint256"
        },
        {
          "internalType": "uint256",
          "name": "lastDepositTime",
          "type": "uint256"
        },
        {
          "internalType": "uint256",
          "name": "initialDeposit",
          "type": "uint256"
        },
        {
          "internalType": "uint256",
          "name": "depositValue",
          "type": "uint256"
        }
      ],
      "stateMutability": "view",
      "type": "function"
    },
    {
      "inputs": [
        {
          "internalType": "uint256",
          "name": "olpAmount",
          "type": "uint256"
        }
      ],
      "name": "withdraw",
      "outputs": [],
      "stateMutability": "nonpayable",
      "type": "function"
    },
    {
      "stateMutability": "payable",
      "type": "receive"
    }
  ],
  "bytecode": "0x608034610190576001600160401b0390601f61146338819003918201601f191683019291908484118385101761019557816020928492604096875283398101031261019057516001600160a01b038116929083900361019057670de0b6b3a764000080600555831561014c57600180546001600160a01b03199081169095179055600080549094163317845542600755825191608083019081118382101761013857835242825260208201908152828201848152606083019185835260095468010000000000000000811015610124576001810180600955811015610110576020876009600397989952209060021b019451855551600185015551600284015551910155516112b790816101ac8239f35b634e487b7160e01b87526032600452602487fd5b634e487b7160e01b87526041600452602487fd5b634e487b7160e01b85526041600452602485fd5b825162461bcd60e51b815260206004820152601760248201527f496e76616c6964207365637572697479206d6f64756c650000000000000000006044820152606490fd5b600080fd5b634e487b7160e01b600052604160045260246000fdfe60806040908082526004908136101561002b575b505050361561002157600080fd5b610029610db3565b005b600090813560e01c9081631959a00214610b84575080631a94fee914610b295780631f987451146109c957806323be345c146109a0578063277870f1146109815780632e1a7d4d14610758578063380ef3fe1461072f5780633829dc3b146107105780636949faeb146106f15780637d882097146106d2578063842a05d4146105f85780638da5cb5b146105d0578063962ca496146105ac5780639ff90f3114610593578063afbc74b914610574578063d0e30db0146103d9578063d8b23553146103c0578063e86a29721461028b578063ec16d0761461026d578063ed12e8ef1461024e578063f2fde38b146101855763f9b6ee1b03610013573461018257826003193601126101825761016361017161017e8561014d6024358735611176565b9194908351968796606088526060880190610c54565b908682036020880152610c54565b9184830390850152610c54565b0390f35b80fd5b5091903461024a57602036600319011261024a576101a1610be9565b8354916001600160a01b03808416923384900361023b57169384156101f857505082907f8be0079c531659141344cd1fd0a4f28419497f9722a3daafe3b4186f6b6457e08580a36001600160a01b03191617815580f35b906020606492519162461bcd60e51b8352820152602060248201527f4e6577206f776e65722063616e6e6f74206265207a65726f20616464726573736044820152fd5b85516282b42960e81b81528390fd5b8280fd5b50823461026957816003193601126102695751478152602090f35b5080fd5b50823461026957816003193601126102695760209051620546008152f35b50913461024a578060031936011261024a5781356024356001600160a01b03808216908183036103bc576002541633036103ad578215610371571561033a57478211610300578480809381935af16102e1610d73565b50156102f357826102f0610db3565b80f35b516312171d8360e31b8152fd5b825162461bcd60e51b81526020818601526014602482015273496e73756666696369656e742062616c616e636560601b6044820152606490fd5b825162461bcd60e51b81526020818601526011602482015270125b9d985b1a59081c9958da5c1a595b9d607a1b6044820152606490fd5b835162461bcd60e51b8152602081870152601660248201527516995c9bc81dda5d1a191c985dd85b08185b5bdd5b9d60521b6044820152606490fd5b505050516282b42960e81b8152fd5b8680fd5b50346101825780600319360112610182576102f0610ea0565b508281600319360112610269576001548151635c975abb60e01b81526020929183908290879082906001600160a01b03165afa90811561056a57849161053d575b5061052e5734156104f757670de0b6b3a764000080340290348204036104e457906104697f73a19dd210f1a7f902193214c0ee91dd35ee5b4d920cba8d519eca65a7b488ca9260055490610d39565b3385526008845281852042600182015580546104ce573460028201553460038201555b610497828254610d59565b90556104a534600354610d59565b6003556104b481600654610d59565b6006556104bf610db3565b8151933485528401523392a280f35b600381016104dd348254610d59565b905561048c565b634e487b7160e01b845260118552602484fd5b5162461bcd60e51b81529283015250601360248201527216995c9bc819195c1bdcda5d08185b5bdd5b9d606a1b6044820152606490fd5b516301ca793160e61b81528390fd5b61055d9150833d8511610563575b6105558183610cd6565b810190610cf8565b8561041a565b503d61054b565b82513d86823e3d90fd5b5091903461024a578260031936011261024a5760209250549051908152f35b50346101825780600319360112610182576102f0610db3565b5082346102695781600319360112610269576020906105c9610f94565b9051908152f35b508234610269578160031936011261026957905490516001600160a01b039091168152602090f35b5091903461024a57602036600319011261024a57610614610be9565b83546001600160a01b03929190831633036106c4578216928315610676575050600254826bffffffffffffffffffffffff60a01b821617600255167fe2baa82f90636da9cbc73454915350116910bc672c698bcb73d4697d566d69198380a380f35b906020608492519162461bcd60e51b8352820152602260248201527f496e76616c696420636f6c6c61746572616c206d616e61676572206164647265604482015261737360f01b6064820152fd5b5082516282b42960e81b8152fd5b5082346102695781600319360112610269576020906003549051908152f35b5082346102695781600319360112610269576020906007549051908152f35b5082346102695781600319360112610269576020906006549051908152f35b50823461026957816003193601126102695760015490516001600160a01b039091168152602090f35b508234610269576020908160031936011261024a576001548151635c975abb60e01b81528535939182908290889082906001600160a01b03165afa90811561097757859161095a575b5061094a573384526008815281842090831591828015610940575b61093057600181015462054600810180911161091d578042106109075750670de0b6b3a764000090816107f160055488610d10565b04938447106108f757610805878354610d66565b9081835581159182610885575b505050505061082384600654610d66565b60065561082e610db3565b8480808085335af161083e610d73565b501561087557825193845283015233917f92ccf450a286a957af52509bc1c9939d1a6a481783e142e41e2499f0bb66ebc69190a280f35b82516312171d8360e31b81528690fd5b84890291898304861417156108e4576108af8a959493926108a98b6108c794610d59565b90610d39565b60038401946108c086549283610d10565b0490610d66565b83556108d5575b8080610812565b600283910155558487806108ce565b634e487b7160e01b8a5260118b5260248afd5b8551631e9acf1760e31b81528990fd5b876024918651916396348a4160e01b8352820152fd5b634e487b7160e01b875260118852602487fd5b835163162908e360e11b81528790fd5b50805485116107bc565b81516301ca793160e61b81528590fd5b6109719150823d8411610563576105558183610cd6565b866107a1565b83513d87823e3d90fd5b5082346102695781600319360112610269576020906005549051908152f35b50823461026957816003193601126102695760025490516001600160a01b039091168152602090f35b50829034610182576020366003190112610182576109e5610be9565b6001600160a01b0316815260086020528181208190610a0390610f62565b9283519360055490670de0b6b3a76400009182610a208289610d10565b0492848301918251610a6e575b5050506020015193620546008501809511610a5b575060809550815194855260208501528301526060820152f35b634e487b7160e01b815260118752602490fd5b83610a7d929394975051610d10565b04815190818111600014610ad857610a989150825190610d66565b9061271091828102928184041490151715610ac557602091610abb915190610d39565b935b908880610a2d565b634e487b7160e01b865260118852602486fd5b610ae191610d66565b9061271091828102928184041490151715610ac55751610b0091610d39565b600160ff1b8114610b1657602090850393610abd565b634e487b7160e01b855260118752602485fd5b5090346102695760203660031901126102695735906009548210156101825750610b5290610c04565b508054600182015460028301546003909301549351918252602082015260408101919091526060810191909152608090f35b9050833461024a57602036600319011261024a579091829161017e916001600160a01b03610bb0610be9565b16815260086020522080549060018101546003600283015492015492859094939260609260808301968352602083015260408201520152565b600435906001600160a01b0382168203610bff57565b600080fd5b600954811015610c3e57600960005260021b7f6e1540171b6c0c960b71a7020d9f60077f6af931a8bbf590da0223dacf75c7af0190600090565b634e487b7160e01b600052603260045260246000fd5b90815180825260208080930193019160005b828110610c74575050505090565b835185529381019392810192600101610c66565b6080810190811067ffffffffffffffff821117610ca457604052565b634e487b7160e01b600052604160045260246000fd5b6020810190811067ffffffffffffffff821117610ca457604052565b90601f8019910116810190811067ffffffffffffffff821117610ca457604052565b90816020910312610bff57518015158103610bff5790565b81810292918115918404141715610d2357565b634e487b7160e01b600052601160045260246000fd5b8115610d43570490565b634e487b7160e01b600052601260045260246000fd5b91908201809211610d2357565b91908203918211610d2357565b3d15610dae573d9067ffffffffffffffff8211610ca45760405191610da2601f8201601f191660200184610cd6565b82523d6000602084013e565b606090565b600454478060045560065480610e1b575b507f140f00a45e57cd588307f54f6e7f92bfd7185d7b0e9e78a224978795b5bc8ad09160409182519182526020820152a1600754610e108101809111610d2357421015610e0d57565b610e15610ea0565b42600755565b9160055491670de0b6b3a7640000808202908282041482151715610d235760408094610e897f140f00a45e57cd588307f54f6e7f92bfd7185d7b0e9e78a224978795b5bc8ad0977fd629e192420b67b048e2d86c80b35866fb5c8998f1c30a4bf67489c94fbed88c94610d39565b8060055582519182526020820152a1915091610dc4565b60055460045460035460405191610eb683610c88565b42835260208301938452604083019081526060830191825260095468010000000000000000811015610ca457806001610ef29201600955610c04565b949094610f4c57600393518555516001850155516002840155519101557f49486dbd6be152a280234d0b8b9e4800a401e0396357fe4600779c532118232260606005546004546040519142835260208301526040820152a1565b634e487b7160e01b600052600060045260246000fd5b90604051610f6f81610c88565b6060600382948054845260018101546020850152600281015460408501520154910152565b6009549060028210611112576000198201828111610d2357610fb8610fbe91610c04565b50610f62565b9115610c3e5760009160098352604051610fd781610c88565b620151806110827f6e1540171b6c0c960b71a7020d9f60077f6af931a8bbf590da0223dacf75c7af548084527f6e1540171b6c0c960b71a7020d9f60077f6af931a8bbf590da0223dacf75c7b05493602081019485527f6e1540171b6c0c960b71a7020d9f60077f6af931a8bbf590da0223dacf75c7b154604082015260607f6e1540171b6c0c960b71a7020d9f60077f6af931a8bbf590da0223dacf75c7b2549101528451610d66565b04916001831061110d578151908115611107579060206110a3920151610d66565b90612710918281029281840414901517156110f357516110c291610d39565b61016d90808202918204036110df576110dc929350610d39565b90565b634e487b7160e01b84526011600452602484fd5b634e487b7160e01b85526011600452602485fd5b50505050565b505050565b60009150565b67ffffffffffffffff8111610ca45760051b60200190565b9061113a82611118565b6111476040519182610cd6565b8281528092611158601f1991611118565b0190602036910137565b8051821015610c3e5760209160051b010190565b906009549081831015611242576111a191611192849283610d59565b9080821161123a575b50610d66565b916111ab83611130565b6111b484611130565b936111be81611130565b93600090815b8381106111d45750505050929190565b60406111eb610fb86111e68486610d59565b610c04565b80516111f78489611162565b526020810151611207848c611162565b5201516112148289611162565b526000198114611226576001016111c4565b634e487b7160e01b83526011600452602483fd5b90503861119b565b50505060405161125181610cba565b600081526040519161126283610cba565b600083526040519161127383610cba565b60008352600036813792919056fea264697066735822122064ef088b3e2da421c5b4f37013cdc09a5f9f85d227d4c878fa2c51efa7104e0364736f6c63430008140033",
  "linkReferences": {},
  "deployedLinkReferences": {}
}