{
  "_format": "hh-sol-artifact-1",
  "contractName": "Oracle",
  "sourceName": "contracts/Oracle.sol",
  "abi": [
    {
      "inputs": [
        {
          "internalType": "address",
          "name": "_supraOracleAddress",
          "type": "address"
        },
        {
          "internalType": "address",
          "name": "_securityModule",
          "type": "address"
        }
      ],
      "stateMutability": "nonpayable",
      "type": "constructor"
    },
    {
      "inputs": [],
      "name": "InvalidOracleAddress",
      "type": "error"
    },
    {
      "inputs": [],
      "name": "InvalidParameter",
      "type": "error"
    },
    {
      "inputs": [],
      "name": "InvalidPriceData",
      "type": "error"
    },
    {
      "inputs": [],
      "name": "PairIdNotFound",
      "type": "error"
    },
    {
      "inputs": [],
      "name": "PairNotMapped",
      "type": "error"
    },
    {
      "inputs": [],
      "name": "PriceDeviationTooLarge",
      "type": "error"
    },
    {
      "inputs": [],
      "name": "ReentrancyGuardReentrantCall",
      "type": "error"
    },
    {
      "inputs": [],
      "name": "StalePriceData",
      "type": "error"
    },
    {
      "inputs": [],
      "name": "Unauthorized",
      "type": "error"
    },
    {
      "anonymous": false,
      "inputs": [
        {
          "indexed": false,
          "internalType": "uint256",
          "name": "oldAge",
          "type": "uint256"
        },
        {
          "indexed": false,
          "internalType": "uint256",
          "name": "newAge",
          "type": "uint256"
        }
      ],
      "name": "MaxPriceAgeUpdated",
      "type": "event"
    },
    {
      "anonymous": false,
      "inputs": [
        {
          "indexed": false,
          "internalType": "uint256",
          "name": "oldDeviation",
          "type": "uint256"
        },
        {
          "indexed": false,
          "internalType": "uint256",
          "name": "newDeviation",
          "type": "uint256"
        }
      ],
      "name": "MaxPriceDeviationUpdated",
      "type": "event"
    },
    {
      "anonymous": false,
      "inputs": [
        {
          "indexed": false,
          "internalType": "uint256",
          "name": "oldMax",
          "type": "uint256"
        },
        {
          "indexed": false,
          "internalType": "uint256",
          "name": "newMax",
          "type": "uint256"
        }
      ],
      "name": "MaxPricePointsUpdated",
      "type": "event"
    },
    {
      "anonymous": false,
      "inputs": [
        {
          "indexed": true,
          "internalType": "address",
          "name": "newOracleAddress",
          "type": "address"
        }
      ],
      "name": "OracleAddressUpdated",
      "type": "event"
    },
    {
      "anonymous": false,
      "inputs": [
        {
          "indexed": true,
          "internalType": "address",
          "name": "previousOwner",
          "type": "address"
        },
        {
          "indexed": true,
          "internalType": "address",
          "name": "newOwner",
          "type": "address"
        }
      ],
      "name": "OwnershipTransferred",
      "type": "event"
    },
    {
      "anonymous": false,
      "inputs": [
        {
          "indexed": true,
          "internalType": "string",
          "name": "assetKey",
          "type": "string"
        },
        {
          "indexed": false,
          "internalType": "uint256",
          "name": "pairId",
          "type": "uint256"
        }
      ],
      "name": "PairMappingSet",
      "type": "event"
    },
    {
      "anonymous": false,
      "inputs": [
        {
          "indexed": true,
          "internalType": "string",
          "name": "key",
          "type": "string"
        },
        {
          "indexed": false,
          "internalType": "uint128",
          "name": "price",
          "type": "uint128"
        },
        {
          "indexed": false,
          "internalType": "uint128",
          "name": "timestamp",
          "type": "uint128"
        }
      ],
      "name": "PriceRecorded",
      "type": "event"
    },
    {
      "anonymous": false,
      "inputs": [
        {
          "indexed": true,
          "internalType": "string",
          "name": "asset",
          "type": "string"
        },
        {
          "indexed": false,
          "internalType": "uint128",
          "name": "price",
          "type": "uint128"
        },
        {
          "indexed": false,
          "internalType": "uint128",
          "name": "timestamp",
          "type": "uint128"
        }
      ],
      "name": "PriceUpdated",
      "type": "event"
    },
    {
      "anonymous": false,
      "inputs": [
        {
          "indexed": false,
          "internalType": "uint256",
          "name": "oldInterval",
          "type": "uint256"
        },
        {
          "indexed": false,
          "internalType": "uint256",
          "name": "newInterval",
          "type": "uint256"
        }
      ],
      "name": "TWAPIntervalUpdated",
      "type": "event"
    },
    {
      "inputs": [
        {
          "internalType": "string[]",
          "name": "keys",
          "type": "string[]"
        },
        {
          "internalType": "uint256[]",
          "name": "pairIds",
          "type": "uint256[]"
        }
      ],
      "name": "batchSetPairMapping",
      "outputs": [],
      "stateMutability": "nonpayable",
      "type": "function"
    },
    {
      "inputs": [
        {
          "internalType": "uint256",
          "name": "pairId",
          "type": "uint256"
        }
      ],
      "name": "getAssetKeyByPairId",
      "outputs": [
        {
          "internalType": "string",
          "name": "",
          "type": "string"
        }
      ],
      "stateMutability": "view",
      "type": "function"
    },
    {
      "inputs": [
        {
          "internalType": "string",
          "name": "key",
          "type": "string"
        }
      ],
      "name": "getLatestPrice",
      "outputs": [
        {
          "internalType": "uint128",
          "name": "price",
          "type": "uint128"
        },
        {
          "internalType": "uint128",
          "name": "timestamp",
          "type": "uint128"
        }
      ],
      "stateMutability": "view",
      "type": "function"
    },
    {
      "inputs": [
        {
          "internalType": "uint256",
          "name": "index",
          "type": "uint256"
        }
      ],
      "name": "getMappedAssetAtIndex",
      "outputs": [
        {
          "internalType": "string",
          "name": "",
          "type": "string"
        }
      ],
      "stateMutability": "view",
      "type": "function"
    },
    {
      "inputs": [],
      "name": "getMappedAssetsCount",
      "outputs": [
        {
          "internalType": "uint256",
          "name": "",
          "type": "uint256"
        }
      ],
      "stateMutability": "view",
      "type": "function"
    },
    {
      "inputs": [
        {
          "internalType": "string",
          "name": "key",
          "type": "string"
        }
      ],
      "name": "getPrice",
      "outputs": [
        {
          "internalType": "uint128",
          "name": "price",
          "type": "uint128"
        },
        {
          "internalType": "uint128",
          "name": "timestamp",
          "type": "uint128"
        }
      ],
      "stateMutability": "view",
      "type": "function"
    },
    {
      "inputs": [
        {
          "internalType": "string",
          "name": "key",
          "type": "string"
        }
      ],
      "name": "getPriceHistory",
      "outputs": [
        {
          "internalType": "uint128[]",
          "name": "prices",
          "type": "uint128[]"
        },
        {
          "internalType": "uint128[]",
          "name": "timestamps",
          "type": "uint128[]"
        }
      ],
      "stateMutability": "view",
      "type": "function"
    },
    {
      "inputs": [
        {
          "internalType": "string",
          "name": "",
          "type": "string"
        }
      ],
      "name": "latestPrices",
      "outputs": [
        {
          "internalType": "uint128",
          "name": "price",
          "type": "uint128"
        },
        {
          "internalType": "uint128",
          "name": "timestamp",
          "type": "uint128"
        }
      ],
      "stateMutability": "view",
      "type": "function"
    },
    {
      "inputs": [],
      "name": "maxPriceAge",
      "outputs": [
        {
          "internalType": "uint256",
          "name": "",
          "type": "uint256"
        }
      ],
      "stateMutability": "view",
      "type": "function"
    },
    {
      "inputs": [],
      "name": "maxPriceDeviation",
      "outputs": [
        {
          "internalType": "uint256",
          "name": "",
          "type": "uint256"
        }
      ],
      "stateMutability": "view",
      "type": "function"
    },
    {
      "inputs": [],
      "name": "maxPricePoints",
      "outputs": [
        {
          "internalType": "uint256",
          "name": "",
          "type": "uint256"
        }
      ],
      "stateMutability": "view",
      "type": "function"
    },
    {
      "inputs": [],
      "name": "owner",
      "outputs": [
        {
          "internalType": "address",
          "name": "",
          "type": "address"
        }
      ],
      "stateMutability": "view",
      "type": "function"
    },
    {
      "inputs": [
        {
          "internalType": "string",
          "name": "",
          "type": "string"
        }
      ],
      "name": "pairMapping",
      "outputs": [
        {
          "internalType": "uint256",
          "name": "",
          "type": "uint256"
        }
      ],
      "stateMutability": "view",
      "type": "function"
    },
    {
      "inputs": [
        {
          "internalType": "string",
          "name": "",
          "type": "string"
        },
        {
          "internalType": "uint256",
          "name": "",
          "type": "uint256"
        }
      ],
      "name": "priceHistory",
      "outputs": [
        {
          "internalType": "uint128",
          "name": "price",
          "type": "uint128"
        },
        {
          "internalType": "uint128",
          "name": "timestamp",
          "type": "uint128"
        }
      ],
      "stateMutability": "view",
      "type": "function"
    },
    {
      "inputs": [],
      "name": "securityModule",
      "outputs": [
        {
          "internalType": "contract SecurityModule",
          "name": "",
          "type": "address"
        }
      ],
      "stateMutability": "view",
      "type": "function"
    },
    {
      "inputs": [
        {
          "internalType": "uint256",
          "name": "_maxAge",
          "type": "uint256"
        }
      ],
      "name": "setMaxPriceAge",
      "outputs": [],
      "stateMutability": "nonpayable",
      "type": "function"
    },
    {
      "inputs": [
        {
          "internalType": "uint256",
          "name": "_maxDeviation",
          "type": "uint256"
        }
      ],
      "name": "setMaxPriceDeviation",
      "outputs": [],
      "stateMutability": "nonpayable",
      "type": "function"
    },
    {
      "inputs": [
        {
          "internalType": "uint256",
          "name": "_maxPricePoints",
          "type": "uint256"
        }
      ],
      "name": "setMaxPricePoints",
      "outputs": [],
      "stateMutability": "nonpayable",
      "type": "function"
    },
    {
      "inputs": [
        {
          "internalType": "address",
          "name": "_newOracleAddress",
          "type": "address"
        }
      ],
      "name": "setOracleAddress",
      "outputs": [],
      "stateMutability": "nonpayable",
      "type": "function"
    },
    {
      "inputs": [
        {
          "internalType": "string",
          "name": "key",
          "type": "string"
        },
        {
          "internalType": "uint256",
          "name": "pairId",
          "type": "uint256"
        }
      ],
      "name": "setPairMapping",
      "outputs": [],
      "stateMutability": "nonpayable",
      "type": "function"
    },
    {
      "inputs": [
        {
          "internalType": "uint256",
          "name": "_twapInterval",
          "type": "uint256"
        }
      ],
      "name": "setTWAPInterval",
      "outputs": [],
      "stateMutability": "nonpayable",
      "type": "function"
    },
    {
      "inputs": [],
      "name": "supraOracleAddress",
      "outputs": [
        {
          "internalType": "address",
          "name": "",
          "type": "address"
        }
      ],
      "stateMutability": "view",
      "type": "function"
    },
    {
      "inputs": [
        {
          "internalType": "address",
          "name": "newOwner",
          "type": "address"
        }
      ],
      "name": "transferOwnership",
      "outputs": [],
      "stateMutability": "nonpayable",
      "type": "function"
    },
    {
      "inputs": [],
      "name": "twapInterval",
      "outputs": [
        {
          "internalType": "uint256",
          "name": "",
          "type": "uint256"
        }
      ],
      "stateMutability": "view",
      "type": "function"
    },
    {
      "inputs": [
        {
          "internalType": "bytes",
          "name": "_bytesProof",
          "type": "bytes"
        }
      ],
      "name": "updatePrices",
      "outputs": [],
      "stateMutability": "nonpayable",
      "type": "function"
    }
  ],
  "bytecode": "0x608034620000ea57601f62001ba138819003918201601f19168301916001600160401b03831184841017620000ef578084926040948552833981010312620000ea576200005a6020620000528362000105565b920162000105565b6001600055610e106006819055600c6007556101f46008556009556001600160a01b0391821691908215620000d857168015620000c65760018060a01b03199182600254161760025581600354161760035533906001541617600155604051611a8690816200011b8239f35b604051630309cb8760e51b8152600490fd5b604051635521068160e01b8152600490fd5b600080fd5b634e487b7160e01b600052604160045260246000fd5b51906001600160a01b0382168203620000ea5756fe60406080815260048036101561001457600080fd5b6000803560e01c80630946de90146112bf5780631584410a146112a05780631933399714611281578063380ef3fe146112585780633c1d5df0146112395780633dbc43b5146111635780634c69c00f146110e15780634ca35b9314611077578063524f388914610f4b57806353e6c5be14610f2257806356447ce814610eaa5780637043c70e14610e2d5780638da5cb5b14610e045780638ef2e87314610de2578063975b866214610dc35780639e84d86b1461062e5780639ee4c057146105ca578063a8c608c814610537578063aa8c8ff8146103e3578063d2a8b466146103b6578063db12fedd14610396578063e712a2ec146102e6578063f2fde38b14610250578063f557cfc8146101db5763f66a1b711461013257600080fd5b346101d85760203660031901126101d8578135906001600160401b0382116101d8575060206101676101809236908501611416565b919082865193849283378101600a815203019020611580565b9060208201916001600160801b039161019c83855116426115a5565b600954106101ca575051915192516001600160801b03928216831681529216166020820152604090f35b0390f35b8451630d57861b60e21b8152fd5b80fd5b5091903461024c57602036600319011261024c57600154813591906001600160a01b0316330361023f5750907fe910b5762148ecfb3491a2a3c426d0754a6d68fa7b61b6b4483cd899938d466591600654908060065582519182526020820152a180f35b82516282b42960e81b8152fd5b8280fd5b5091903461024c57602036600319011261024c576001600160a01b038135818116939192908490036102e257600154928316918233036102d65784156102c957505082907f8be0079c531659141344cd1fd0a4f28419497f9722a3daafe3b4186f6b6457e08580a36001600160a01b0319161760015580f35b51630309cb8760e51b8152fd5b516282b42960e81b8152fd5b8480fd5b5091903461024c578160031936011261024c5780356001600160401b038111610392576103169036908301611416565b60015460243593919291906001600160a01b03163303610385579183917f7a8bba51b832ba5fcc831577cb9f4310ec1ff330ba1505ca3067aded0bb0f6f9946020948588518092868683378682019081520301902055818651928392833781018781520390209351908152a280f35b84516282b42960e81b8152fd5b8380fd5b5082346103b257816003193601126103b2576020905160058152f35b5080fd5b508290346101d85760203660031901126101d857506103d86101c692356116f4565b905191829182611480565b50913461024c578060031936011261024c576001600160401b039180358381116102e25761041490369083016114da565b90936024359081116105335761042d90369084016114da565b6001549092906001600160a01b03163303610524578281036104e857865b818110610456578780f35b806104656104e392868661152f565b3561047182858b61153f565b9190828a5193849283378101898152602093849103019020557f7a8bba51b832ba5fcc831577cb9f4310ec1ff330ba1505ca3067aded0bb0f6f96104b683868c61153f565b6104c4858a8a96949661152f565b35938d828d5193849384378201908152039020928a51908152a261150a565b61044b565b845162461bcd60e51b81526020818601526016602482015275082e4e4c2f2e640d8cadccee8d040dad2e6dac2e8c6d60531b6044820152606490fd5b84516282b42960e81b81528490fd5b8580fd5b5091903461024c578160031936011261024c578035906001600160401b03821161039257610567913691016113d5565b91610583602060243594818551938285809451938492016113f3565b810160058152030190209081548410156101d857506101c6926105a5916114ac565b505490516001600160801b038216815260809190911c60208201529081906040820190565b5091903461024c57602036600319011261024c57600154813591906001600160a01b0316330361023f5750907f9af3456a3485c9955fbe2f71c7de1d0f89f93ff6ae53e43ec73f541db505abdc91600854908060085582519182526020820152a180f35b50913461024c57602092836003193601126101d8576001600160401b03833581811161024c57610662869136908701611416565b929060018060a01b03806003541687519485809263027cf93b60e31b8252338c83015260249788915afa908115610db9578791610d83575b501580610d75575b610d66576002865414610d56579085916002835560025416898360448b898c519a8b9788968794632ce81dbd60e21b8652850152818c850152848401378181018301849052601f01601f191681010301925af1928315610d4c578493610c99575b505081515115610c89576001600160801b034281169695845b84518051821015610c81578161073191611627565b5183610740838b890151611627565b5191610759610752858c8b0151611627565b519161168f565b92835115610c74579061076b91611866565b16908989518a8d845192848601936107848183876113f3565b8101908581600a93848152030190205494608095861c610bd6575b836107d49451936107af8561131d565b8985528285015251809288516107c681848a6113f3565b82019081520301902061163b565b8a5183516107e38183856113f3565b8101908d816005938481520301902054158015610b5b575b610859575b505050907f16981bbfbe52c076c997b89fd1245b7e34c888d68542cbade398f9646d31c4ae8b610833610854959461166f565b8b516001600160801b039485168152919093166020820152604090a261150a565b61071c565b939b9599969a979c919888959195518781865161087781838c6113f3565b8101888152030190205460075411610ab257875b89518881875161089c81838d6113f3565b810189815203019020546000198101908111610aa057811015610999578951888187516108ca81838d6113f3565b810189815203019020600182019081831161098657826109058b8b8f956108f490610913966114ac565b509551809381928d519283916113f3565b81018c8152030190206114ac565b91909161097457818f91808f91610934969503610939575b5050505061150a565b61088b565b61096b938154166001600160801b031984541617835554901c6001600160801b0382549181199060801b169116179055565b8d388d8161092b565b50634e487b7160e01b8a52898d528f8afd5b50634e487b7160e01b8a5260118d528f8afd5b50985093966109e986839e99839d999c989e968451956109b88761131d565b888752838701528451838189516109d08183886113f3565b81018481520301902094518094819389519283916113f3565b82019081520301902054600019810191908211610a8e57610854959493610a408f9394610a3a7f16981bbfbe52c076c997b89fd1245b7e34c888d68542cbade398f9646d31c4ae96610833956114ac565b90611826565b8c7ff9e7104615bc390061776c36cb1a4a2fa7ca44135f08397cac55637873603114610a6b8361166f565b91516001600160801b03888116825286166020820152604090a293949550610800565b634e487b7160e01b8b5260118752888bfd5b634e487b7160e01b8a5260118d528f8afd5b98509394879a969995819c94610ad3939e99518094819387519283916113f3565b820190815203019020895190610ae88261131d565b8382528c8c83015280549068010000000000000000821015610b4957610854959493610b448f9394610a3a866108339560017f16981bbfbe52c076c997b89fd1245b7e34c888d68542cbade398f9646d31c4ae990181556114ac565b610a40565b634e487b7160e01b8b5260418752888bfd5b508b518d818651610b6d8183886113f3565b8101848152030190208d8d5190818751610b888183896113f3565b81018581520301902054600019810191908211610bc4578f610bbc90610bb261012c948d946114ac565b5054871c9061180d565b1610156107fb565b634e487b7160e01b8d52601189528a8dfd5b90928a92505190818751610beb8183896113f3565b810185815203019020541680861115610c4757610c0881876115a5565b61271090818102918183041490151715610bc45790610c26916117ed565b60085410610c37578d8c918e61079f565b8b51632faa518160e11b81528790fd5b610c5186826115a5565b61271090818102918183041490151715610bc45790610c6f916117ed565b610c26565b505050506108549061150a565b866001815580f35b5050505163f45e167b60e01b8152fd5b909192503d8085833e610cac8183611369565b81019087818303126102e2578051908382116105335701916060838303126102e2578551926060840184811083821117610d3a5787528051828111610d365783610cf79183016115c9565b845288810151828111610d365783610d109183016115c9565b898501528681015191821161053357610d2a9291016115c9565b84820152903880610703565b8680fd5b634e487b7160e01b8752604189528587fd5b85513d86823e3d90fd5b8651633ee5aeb560e01b81528890fd5b86516282b42960e81b81528890fd5b5080600154163314156106a2565b90508981813d8311610db2575b610d9a8183611369565b81010312610d3657518015158103610d36573861069a565b503d610d90565b88513d89823e3d90fd5b5082346103b257816003193601126103b2576020906008549051908152f35b508290346101d85760203660031901126101d857506103d86101c6923561168f565b5082346103b257816003193601126103b25760015490516001600160a01b039091168152602090f35b508290346101d85760203660031901126101d8578235906001600160401b0382116101d857506020610e686101c694610e7a933691016113d5565b818451938285809451938492016113f3565b600a908201908152030190205490516001600160801b038216815260809190911c60208201529081906040820190565b5091903461024c57602036600319011261024c57600154813591906001600160a01b0316330361023f578115610f145750907f23d7699acdcc135096fefb30738c302da5792f78f39d038c1e7d74fd9c646cb291600954908060095582519182526020820152a180f35b8251630309cb8760e51b8152fd5b5082346103b257816003193601126103b25760025490516001600160a01b039091168152602090f35b508290346101d85760203660031901126101d85782356001600160401b0381116103b257610f7c9036908501611416565b9390915082518483823760208186810184815203019020541561106957610fb5835185848237602081878101600a815203019020611580565b9160208301926001600160801b0392610fd184865116426115a5565b6009541061105b5750918581926101c69460065415158061103e575b156110335761100e93611009915116918588511693369161138a565b6118ba565b925b5193516001600160801b0393841681529316909116602083015281906040820190565b915050511692611010565b508751838382376020818581016005815203019020541515610fed565b8551630d57861b60e21b8152fd5b8251636e42758360e01b8152fd5b5091903461024c57602036600319011261024c57600154813591906001600160a01b0316330361023f578115610f145750907f309066b6e900936644838771ddb52796d2a4ce140dbe1a92bb603ab33b1c572191600754908060075582519182526020820152a180f35b5091903461024c57602036600319011261024c5780356001600160a01b0381811693918490036102e2576001541633036102d6578215611156575050600280546001600160a01b031916821790557f107a9fafffb7ac890f780879e423760c9ffea8dcee8045681f40f542aede2cb88280a280f35b51635521068160e01b8152fd5b5091903461024c57602036600319011261024c5780356001600160401b0381116103925760209161119691369101611416565b91908284519384928337810160058152030190209182546111b681611a1e565b936111c082611a1e565b925b8281106111f1575050506101c6906111e38351948486958652850190611443565b908382036020850152611443565b806001600160801b0361120761123493856114ac565b5054166112148289611627565b5261121f81846114ac565b505460801c61122e8287611627565b5261150a565b6111c2565b5082346103b257816003193601126103b2576020906006549051908152f35b5082346103b257816003193601126103b25760035490516001600160a01b039091168152602090f35b5082346103b257816003193601126103b2576020906007549051908152f35b5082346103b257816003193601126103b2576020906009549051908152f35b508290346101d85760203660031901126101d8578235906001600160401b0382116101d85750602080936112f961130c93369083016113d5565b90828551948386809551938492016113f3565b820190815203019020549051908152f35b604081019081106001600160401b0382111761133857604052565b634e487b7160e01b600052604160045260246000fd5b602081019081106001600160401b0382111761133857604052565b90601f801991011681019081106001600160401b0382111761133857604052565b9291926001600160401b03821161133857604051916113b3601f8201601f191660200184611369565b8294818452818301116113d0578281602093846000960137010152565b600080fd5b9080601f830112156113d0578160206113f09335910161138a565b90565b60005b8381106114065750506000910152565b81810151838201526020016113f6565b9181601f840112156113d0578235916001600160401b0383116113d057602083818601950101116113d057565b90815180825260208080930193019160005b828110611463575050505090565b83516001600160801b031685529381019392810192600101611455565b604091602082526114a081518092816020860152602086860191016113f3565b601f01601f1916010190565b80548210156114c45760005260206000200190600090565b634e487b7160e01b600052603260045260246000fd5b9181601f840112156113d0578235916001600160401b0383116113d0576020808501948460051b0101116113d057565b60001981146115195760010190565b634e487b7160e01b600052601160045260246000fd5b91908110156114c45760051b0190565b91908110156114c45760051b81013590601e19813603018212156113d05701908135916001600160401b0383116113d05760200182360381136113d0579190565b9060405161158d8161131d565b91546001600160801b038116835260801c6020830152565b9190820391821161151957565b6001600160401b0381116113385760051b60200190565b81601f820112156113d0578051916115e0836115b2565b926115ee6040519485611369565b808452602092838086019260051b8201019283116113d0578301905b828210611618575050505090565b8151815290830190830161160a565b80518210156114c45760209160051b010190565b815160209092015160801b6fffffffffffffffffffffffffffffffff19166001600160801b0392909216919091179055565b565b611687906020604051928284809451938492016113f3565b810103902090565b60005b600581106116af5750506040516116a88161134e565b6000815290565b6116b8816116f4565b826040518251816020916116cf81838589016113f3565b8101600481520301902054146116ee57506116e99061150a565b611692565b91505090565b80156117b65760018114611792576002811461176e576003811461174957600414611725576040516116a88161134e565b6040516117318161131d565b60088152671514d3104bd554d160c21b602082015290565b506040516117568161131d565b6008815267105054130bd554d160c21b602082015290565b5060405161177b8161131d565b600781526614d3d30bd554d160ca1b602082015290565b5060405161179f8161131d565b60078152661155120bd554d160ca1b602082015290565b506040516117c38161131d565b6007815266109510cbd554d160ca1b602082015290565b8181029291811591840414171561151957565b81156117f7570490565b634e487b7160e01b600052601260045260246000fd5b6001600160801b03918216908216039190821161151957565b91906118355761166d9161163b565b634e487b7160e01b600052600060045260246000fd5b9190820180921161151957565b604d811161151957600a0a90565b9060088103611873575090565b90600882111561189b576007198201918211611519576118956113f092611858565b906117ed565b906008039060088211611519576118b46113f092611858565b906117da565b90929192604090815192805195602094858301976118d981838b6113f3565b8101908681600593848152030190205415611a14576006549396600095869491855b6119108a8d85518093819289519283916113f3565b810188815203019020548910156119cc5761195261194c8a61193e8f8e908851809381928c519283916113f3565b81018b8152030190206114ac565b50611580565b968a88016001600160801b03908a8261196e818451168c61180d565b16116119be576119b292826119a461199d8e836119968f6119b89b996119ac9951169061180d565b16906115a5565b809361184b565b9b51166117da565b9061184b565b9861150a565b976118fb565b50509650976119b89061150a565b985099505050505091506119f8906119f26001600160801b03946119ac838789166117da565b9261184b565b908115611a0e57611a0a9293506117ed565b1690565b50505090565b5091955050505050565b90611a28826115b2565b611a356040519182611369565b8281528092611a46601f19916115b2565b019060203691013756fea2646970667358221220ed3036317b2d03da1a9a5f2b9b207bbc3cc0ef69c1eaed32f2befbb985b6f36464736f6c63430008140033",
  "linkReferences": {},
  "deployedLinkReferences": {}
}