{
  "_format": "hh-sol-artifact-1",
  "contractName": "AssetRegistry",
  "sourceName": "contracts/AssetRegistry.sol",
  "abi": [
    {
      "inputs": [],
      "stateMutability": "nonpayable",
      "type": "constructor"
    },
    {
      "anonymous": false,
      "inputs": [
        {
          "indexed": false,
          "internalType": "string",
          "name": "symbol",
          "type": "string"
        },
        {
          "indexed": false,
          "internalType": "string",
          "name": "feedKey",
          "type": "string"
        },
        {
          "indexed": false,
          "internalType": "uint8",
          "name": "decimals",
          "type": "uint8"
        }
      ],
      "name": "AssetRegistered",
      "type": "event"
    },
    {
      "anonymous": false,
      "inputs": [
        {
          "indexed": false,
          "internalType": "string",
          "name": "symbol",
          "type": "string"
        },
        {
          "indexed": false,
          "internalType": "string",
          "name": "feedKey",
          "type": "string"
        },
        {
          "indexed": false,
          "internalType": "uint8",
          "name": "decimals",
          "type": "uint8"
        }
      ],
      "name": "AssetUpdated",
      "type": "event"
    },
    {
      "anonymous": false,
      "inputs": [
        {
          "indexed": true,
          "internalType": "address",
          "name": "previousOwner",
          "type": "address"
        },
        {
          "indexed": true,
          "internalType": "address",
          "name": "newOwner",
          "type": "address"
        }
      ],
      "name": "OwnershipTransferred",
      "type": "event"
    },
    {
      "inputs": [],
      "name": "getAllAssets",
      "outputs": [
        {
          "internalType": "string[]",
          "name": "",
          "type": "string[]"
        }
      ],
      "stateMutability": "view",
      "type": "function"
    },
    {
      "inputs": [
        {
          "internalType": "string",
          "name": "symbol",
          "type": "string"
        }
      ],
      "name": "getAsset",
      "outputs": [
        {
          "components": [
            {
              "internalType": "string",
              "name": "symbol",
              "type": "string"
            },
            {
              "internalType": "string",
              "name": "feedKey",
              "type": "string"
            },
            {
              "internalType": "uint8",
              "name": "decimals",
              "type": "uint8"
            },
            {
              "internalType": "bool",
              "name": "isRegistered",
              "type": "bool"
            }
          ],
          "internalType": "struct AssetRegistry.Asset",
          "name": "",
          "type": "tuple"
        }
      ],
      "stateMutability": "view",
      "type": "function"
    },
    {
      "inputs": [],
      "name": "owner",
      "outputs": [
        {
          "internalType": "address",
          "name": "",
          "type": "address"
        }
      ],
      "stateMutability": "view",
      "type": "function"
    },
    {
      "inputs": [
        {
          "internalType": "string",
          "name": "symbol",
          "type": "string"
        },
        {
          "internalType": "string",
          "name": "feedKey",
          "type": "string"
        },
        {
          "internalType": "uint8",
          "name": "decimals",
          "type": "uint8"
        }
      ],
      "name": "registerAsset",
      "outputs": [],
      "stateMutability": "nonpayable",
      "type": "function"
    },
    {
      "inputs": [
        {
          "internalType": "address",
          "name": "newOwner",
          "type": "address"
        }
      ],
      "name": "transferOwnership",
      "outputs": [],
      "stateMutability": "nonpayable",
      "type": "function"
    },
    {
      "inputs": [
        {
          "internalType": "string",
          "name": "symbol",
          "type": "string"
        },
        {
          "internalType": "string",
          "name": "feedKey",
          "type": "string"
        },
        {
          "internalType": "uint8",
          "name": "decimals",
          "type": "uint8"
        }
      ],
      "name": "updateAsset",
      "outputs": [],
      "stateMutability": "nonpayable",
      "type": "function"
    }
  ],
  "bytecode": "0x6080806040523461002857600280546001600160a01b03191633179055610eb2908161002e8239f35b600080fdfe6080604052600436101561001257600080fd5b60003560e01c80632acada4d146109da57806360845702146106675780638da5cb5b1461063e578063cd5286d014610508578063f2fde38b146104425763f7836c9d1461005e57600080fd5b3461043d5761006c36610b6f565b61008560018060a0979594971b03600254163314610bc8565b6040516020810190858583376100ab602082888101600083820152038084520182610c21565b5190209485600052600060205260ff60026040600020015460081c166103f8576040516100d781610c05565b6100e2368787610c43565b81526100ef368386610c43565b602082015260ff83166040820152600160608201528660005260006020526040600020815180519067ffffffffffffffff821161025e5781906101328454610c8a565b601f81116103a8575b50602090601f831160011461034257600092610337575b50508160011b916000199060031b1c19161781555b602082015180519067ffffffffffffffff821161025e5761018b6001840154610c8a565b601f81116102f0575b50602090601f831160011461027f57600293929160009183610274575b50508160011b916000199060031b1c19161760018201555b019060ff60408201511661ff0060608454930151151560081b169161ffff191617179055600154926801000000000000000084101561025e577ffefde64064a42081c63f77ba8787398097440e1de5ac4f2cbb7ffd22b1a5f1fb966102378560016102599701600155610cc4565b819291549060031b91821b91600019901b191617905560405195869586610d32565b0390a1005b634e487b7160e01b600052604160045260246000fd5b0151905038806101b1565b90601f198316916001850160005260206000209260005b8181106102d857509160019391856002979694106102bf575b505050811b0160018201556101c9565b015160001960f88460031b161c191690553880806102af565b92936020600181928786015181550195019301610296565b600184016000526020600020601f840160051c810160208510610330575b601f830160051c82018110610324575050610194565b6000815560010161030e565b508061030e565b015190503880610152565b6000858152602081209350601f198516905b8181106103905750908460019594939210610377575b505050811b018155610167565b015160001960f88460031b161c1916905538808061036a565b92936020600181928786015181550195019301610354565b909150836000526020600020601f840160051c8101602085106103f1575b90849392915b601f830160051c820181106103e257505061013b565b600081558594506001016103cc565b50806103c6565b60405162461bcd60e51b815260206004820152601860248201527f417373657420616c7265616479207265676973746572656400000000000000006044820152606490fd5b600080fd5b3461043d57602036600319011261043d576004356001600160a01b038181169182900361043d5760025490811661047a813314610bc8565b82156104b75782907f8be0079c531659141344cd1fd0a4f28419497f9722a3daafe3b4186f6b6457e0600080a36001600160a01b03191617600255005b60405162461bcd60e51b8152602060048201526024808201527f4e6577206f776e65722063616e6e6f7420626520746865207a65726f206164646044820152637265737360e01b6064820152608490fd5b3461043d5760208060031936011261043d576004359067ffffffffffffffff821161043d5761053d6080923690600401610b41565b6000606060405161054d81610c05565b81815281868201528260408201520152610580836040518381948383019687378101600083820152038084520182610c21565b51902080600052600082526105a260ff60026040600020015460081c16610d67565b60005260008152604060002090604051916105bc83610c05565b6105c581610daa565b835260ff61062a60026105da60018501610daa565b938587019485520154926106176040870195848616875284606089019660081c1615158652604051988998828a52519189015260a0880190610b01565b9051868203601f19016040880152610b01565b925116606084015251151560808301520390f35b3461043d57600036600319011261043d576002546040516001600160a01b039091168152602090f35b3461043d5761067536610b6f565b9061068e60018060a09795971b03600254163314610bc8565b6040516020810190858583376106b4602082888101600083820152038084520182610c21565b519020948560005260006020526106d860ff60026040600020015460081c16610d67565b604051956106e587610c05565b6106f0368787610c43565b87526106fd368484610c43565b602088015260ff84166040880152600160608801526000526000602052604060002095805180519067ffffffffffffffff821161025e5781906107408a54610c8a565b601f811161098a575b50602090601f831160011461092457600092610919575b50508160011b916000199060031b1c19161787555b602081015196875167ffffffffffffffff811161025e576107996001830154610c8a565b601f81116108d2575b506020601f821160011461083a57918160029261025998979695947f03ce9546bc313729f31de956804676cfe43a4e993db442a83a29caae30116c1f9c60009261082f575b50508160011b916000199060031b1c19161760018201555b019060ff60408201511661ff0060608454930151151560081b169161ffff19161717905560405195869586610d32565b015190508c806107e7565b601f198216996001840160005260206000209a60005b8181106108ba5750927f03ce9546bc313729f31de956804676cfe43a4e993db442a83a29caae30116c1f9b61025999989796959360019383600297106108a1575b505050811b0160018201556107ff565b015160001960f88460031b161c191690558c8080610891565b838301518d556001909c019b60209384019301610850565b600183016000526020600020601f830160051c810160208410610912575b601f830160051c820181106109065750506107a2565b600081556001016108f0565b50806108f0565b015190508980610760565b60008b8152602081209350601f198516905b8181106109725750908460019594939210610959575b505050811b018755610775565b015160001960f88460031b161c1916905589808061094c565b92936020600181928786015181550195019301610936565b909150896000526020600020601f840160051c8101602085106109d3575b90849392915b601f830160051c820181106109c4575050610749565b600081558594506001016109ae565b50806109a8565b3461043d57600036600319011261043d57600180546109f881610e50565b90610a066040519283610c21565b808252601f19610a1582610e50565b0160005b818110610af057505060005b818110610a8f578284604051906020808301818452845180915260408401918060408360051b8701019601926000905b838210610a625786880387f35b90919293948380610a7e839a603f198b82030186528951610b01565b999701959493919091019101610a55565b610a9881610cc4565b90549060031b1c6000526000602052610ab46040600020610daa565b610abe8285610e68565b52610ac98184610e68565b506000198114610ada578301610a25565b634e487b7160e01b600052601160045260246000fd5b806060602080938701015201610a19565b919082519283825260005b848110610b2d575050826000602080949584010152601f8019910116010190565b602081830181015184830182015201610b0c565b9181601f8401121561043d5782359167ffffffffffffffff831161043d576020838186019501011161043d57565b606060031982011261043d5767ffffffffffffffff9160043583811161043d5782610b9c91600401610b41565b9390939260243591821161043d57610bb691600401610b41565b909160443560ff8116810361043d5790565b15610bcf57565b60405162461bcd60e51b815260206004820152600e60248201526d139bdd08185d5d1a1bdc9a5e995960921b6044820152606490fd5b6080810190811067ffffffffffffffff82111761025e57604052565b90601f8019910116810190811067ffffffffffffffff82111761025e57604052565b92919267ffffffffffffffff821161025e5760405191610c6d601f8201601f191660200184610c21565b82948184528183011161043d578281602093846000960137010152565b90600182811c92168015610cba575b6020831014610ca457565b634e487b7160e01b600052602260045260246000fd5b91607f1691610c99565b600154811015610cfb5760016000527fb10e2d527612073b26eecdfd717e6a320cf44b4afac2b0732d9fcbe2b7fa0cf60190600090565b634e487b7160e01b600052603260045260246000fd5b908060209392818452848401376000828201840152601f01601f1916010190565b9392604093610d52610d609360ff95999899606089526060890191610d11565b918683036020880152610d11565b9416910152565b15610d6e57565b60405162461bcd60e51b8152602060048201526014602482015273105cdcd95d081b9bdd081c9959da5cdd195c995960621b6044820152606490fd5b9060405191826000825492610dbe84610c8a565b908184526001948581169081600014610e2d5750600114610dea575b5050610de892500383610c21565b565b9093915060005260209081600020936000915b818310610e15575050610de893508201013880610dda565b85548884018501529485019487945091830191610dfd565b915050610de894506020925060ff191682840152151560051b8201013880610dda565b67ffffffffffffffff811161025e5760051b60200190565b8051821015610cfb5760209160051b01019056fea2646970667358221220506a6c55f185e295066350417315eedf82915f25d2661d22ff611c0edb3efb1064736f6c63430008140033",
  "linkReferences": {},
  "deployedLinkReferences": {}
}