{
  "_format": "hh-sol-artifact-1",
  "contractName": "FeeManager",
  "sourceName": "contracts/FeeManager.sol",
  "abi": [
    {
      "inputs": [
        {
          "internalType": "address",
          "name": "_treasury",
          "type": "address"
        },
        {
          "internalType": "address",
          "name": "_securityModule",
          "type": "address"
        }
      ],
      "stateMutability": "nonpayable",
      "type": "constructor"
    },
    {
      "inputs": [],
      "name": "FeeTooHigh",
      "type": "error"
    },
    {
      "inputs": [],
      "name": "InvalidAddress",
      "type": "error"
    },
    {
      "inputs": [],
      "name": "InvalidFeeType",
      "type": "error"
    },
    {
      "inputs": [],
      "name": "InvalidTier",
      "type": "error"
    },
    {
      "inputs": [],
      "name": "Unauthorized",
      "type": "error"
    },
    {
      "anonymous": false,
      "inputs": [
        {
          "indexed": false,
          "internalType": "uint256",
          "name": "tier",
          "type": "uint256"
        },
        {
          "indexed": false,
          "internalType": "uint256",
          "name": "volumeThreshold",
          "type": "uint256"
        },
        {
          "indexed": false,
          "internalType": "uint16",
          "name": "makerFee",
          "type": "uint16"
        },
        {
          "indexed": false,
          "internalType": "uint16",
          "name": "takerFee",
          "type": "uint16"
        }
      ],
      "name": "FeeTierAdded",
      "type": "event"
    },
    {
      "anonymous": false,
      "inputs": [
        {
          "indexed": false,
          "internalType": "uint256",
          "name": "tier",
          "type": "uint256"
        },
        {
          "indexed": false,
          "internalType": "uint256",
          "name": "volumeThreshold",
          "type": "uint256"
        },
        {
          "indexed": false,
          "internalType": "uint16",
          "name": "makerFee",
          "type": "uint16"
        },
        {
          "indexed": false,
          "internalType": "uint16",
          "name": "takerFee",
          "type": "uint16"
        }
      ],
      "name": "FeeTierUpdated",
      "type": "event"
    },
    {
      "anonymous": false,
      "inputs": [
        {
          "indexed": false,
          "internalType": "string",
          "name": "feeType",
          "type": "string"
        },
        {
          "indexed": false,
          "internalType": "uint16",
          "name": "oldFee",
          "type": "uint16"
        },
        {
          "indexed": false,
          "internalType": "uint16",
          "name": "newFee",
          "type": "uint16"
        }
      ],
      "name": "FeeUpdated",
      "type": "event"
    },
    {
      "anonymous": false,
      "inputs": [
        {
          "indexed": false,
          "internalType": "uint256",
          "name": "amount",
          "type": "uint256"
        },
        {
          "indexed": false,
          "internalType": "string",
          "name": "feeType",
          "type": "string"
        },
        {
          "indexed": false,
          "internalType": "address",
          "name": "trader",
          "type": "address"
        }
      ],
      "name": "FeesCollected",
      "type": "event"
    },
    {
      "anonymous": false,
      "inputs": [
        {
          "indexed": false,
          "internalType": "uint256",
          "name": "amount",
          "type": "uint256"
        },
        {
          "indexed": true,
          "internalType": "address",
          "name": "receiver",
          "type": "address"
        }
      ],
      "name": "FeesWithdrawn",
      "type": "event"
    },
    {
      "anonymous": false,
      "inputs": [
        {
          "indexed": false,
          "internalType": "uint16",
          "name": "oldFee",
          "type": "uint16"
        },
        {
          "indexed": false,
          "internalType": "uint16",
          "name": "newFee",
          "type": "uint16"
        }
      ],
      "name": "InsuranceFundFeeUpdated",
      "type": "event"
    },
    {
      "anonymous": false,
      "inputs": [
        {
          "indexed": true,
          "internalType": "address",
          "name": "oldFund",
          "type": "address"
        },
        {
          "indexed": true,
          "internalType": "address",
          "name": "newFund",
          "type": "address"
        }
      ],
      "name": "InsuranceFundUpdated",
      "type": "event"
    },
    {
      "anonymous": false,
      "inputs": [
        {
          "indexed": true,
          "internalType": "address",
          "name": "previousOwner",
          "type": "address"
        },
        {
          "indexed": true,
          "internalType": "address",
          "name": "newOwner",
          "type": "address"
        }
      ],
      "name": "OwnershipTransferred",
      "type": "event"
    },
    {
      "anonymous": false,
      "inputs": [
        {
          "indexed": true,
          "internalType": "address",
          "name": "oldProgram",
          "type": "address"
        },
        {
          "indexed": true,
          "internalType": "address",
          "name": "newProgram",
          "type": "address"
        }
      ],
      "name": "ReferralProgramUpdated",
      "type": "event"
    },
    {
      "anonymous": false,
      "inputs": [
        {
          "indexed": true,
          "internalType": "address",
          "name": "oldTreasury",
          "type": "address"
        },
        {
          "indexed": true,
          "internalType": "address",
          "name": "newTreasury",
          "type": "address"
        }
      ],
      "name": "TreasuryUpdated",
      "type": "event"
    },
    {
      "anonymous": false,
      "inputs": [
        {
          "indexed": true,
          "internalType": "address",
          "name": "user",
          "type": "address"
        },
        {
          "indexed": false,
          "internalType": "uint256",
          "name": "volume",
          "type": "uint256"
        },
        {
          "indexed": false,
          "internalType": "uint256",
          "name": "totalVolume",
          "type": "uint256"
        }
      ],
      "name": "UserVolumeUpdated",
      "type": "event"
    },
    {
      "anonymous": false,
      "inputs": [
        {
          "indexed": false,
          "internalType": "uint256",
          "name": "oldPeriod",
          "type": "uint256"
        },
        {
          "indexed": false,
          "internalType": "uint256",
          "name": "newPeriod",
          "type": "uint256"
        }
      ],
      "name": "VolumeTrackingPeriodUpdated",
      "type": "event"
    },
    {
      "inputs": [
        {
          "internalType": "uint256",
          "name": "volumeThreshold",
          "type": "uint256"
        },
        {
          "internalType": "uint16",
          "name": "tierMakerFee",
          "type": "uint16"
        },
        {
          "internalType": "uint16",
          "name": "tierTakerFee",
          "type": "uint16"
        }
      ],
      "name": "addFeeTier",
      "outputs": [],
      "stateMutability": "nonpayable",
      "type": "function"
    },
    {
      "inputs": [
        {
          "internalType": "uint256",
          "name": "value",
          "type": "uint256"
        },
        {
          "internalType": "string",
          "name": "feeType",
          "type": "string"
        }
      ],
      "name": "calculateFee",
      "outputs": [
        {
          "internalType": "uint256",
          "name": "",
          "type": "uint256"
        }
      ],
      "stateMutability": "view",
      "type": "function"
    },
    {
      "inputs": [
        {
          "internalType": "uint256",
          "name": "value",
          "type": "uint256"
        },
        {
          "internalType": "string",
          "name": "feeType",
          "type": "string"
        },
        {
          "internalType": "address",
          "name": "user",
          "type": "address"
        }
      ],
      "name": "calculateFee",
      "outputs": [
        {
          "internalType": "uint256",
          "name": "",
          "type": "uint256"
        }
      ],
      "stateMutability": "view",
      "type": "function"
    },
    {
      "inputs": [
        {
          "internalType": "uint256",
          "name": "amount",
          "type": "uint256"
        },
        {
          "internalType": "string",
          "name": "feeType",
          "type": "string"
        }
      ],
      "name": "collectFee",
      "outputs": [],
      "stateMutability": "nonpayable",
      "type": "function"
    },
    {
      "inputs": [
        {
          "internalType": "uint256",
          "name": "amount",
          "type": "uint256"
        },
        {
          "internalType": "string",
          "name": "feeType",
          "type": "string"
        },
        {
          "internalType": "address",
          "name": "trader",
          "type": "address"
        }
      ],
      "name": "collectFee",
      "outputs": [],
      "stateMutability": "nonpayable",
      "type": "function"
    },
    {
      "inputs": [],
      "name": "collectedFees",
      "outputs": [
        {
          "internalType": "uint256",
          "name": "",
          "type": "uint256"
        }
      ],
      "stateMutability": "view",
      "type": "function"
    },
    {
      "inputs": [
        {
          "internalType": "uint256",
          "name": "",
          "type": "uint256"
        }
      ],
      "name": "feeTiers",
      "outputs": [
        {
          "internalType": "uint256",
          "name": "volumeThreshold",
          "type": "uint256"
        },
        {
          "internalType": "uint16",
          "name": "makerFee",
          "type": "uint16"
        },
        {
          "internalType": "uint16",
          "name": "takerFee",
          "type": "uint16"
        }
      ],
      "stateMutability": "view",
      "type": "function"
    },
    {
      "inputs": [],
      "name": "getFeeTierCount",
      "outputs": [
        {
          "internalType": "uint256",
          "name": "",
          "type": "uint256"
        }
      ],
      "stateMutability": "view",
      "type": "function"
    },
    {
      "inputs": [
        {
          "internalType": "address",
          "name": "user",
          "type": "address"
        }
      ],
      "name": "getUserFeeTier",
      "outputs": [
        {
          "internalType": "uint256",
          "name": "",
          "type": "uint256"
        }
      ],
      "stateMutability": "view",
      "type": "function"
    },
    {
      "inputs": [],
      "name": "insuranceFund",
      "outputs": [
        {
          "internalType": "address",
          "name": "",
          "type": "address"
        }
      ],
      "stateMutability": "view",
      "type": "function"
    },
    {
      "inputs": [],
      "name": "insuranceFundFee",
      "outputs": [
        {
          "internalType": "uint16",
          "name": "",
          "type": "uint16"
        }
      ],
      "stateMutability": "view",
      "type": "function"
    },
    {
      "inputs": [],
      "name": "liquidationFee",
      "outputs": [
        {
          "internalType": "uint16",
          "name": "",
          "type": "uint16"
        }
      ],
      "stateMutability": "view",
      "type": "function"
    },
    {
      "inputs": [],
      "name": "makerFee",
      "outputs": [
        {
          "internalType": "uint16",
          "name": "",
          "type": "uint16"
        }
      ],
      "stateMutability": "view",
      "type": "function"
    },
    {
      "inputs": [],
      "name": "owner",
      "outputs": [
        {
          "internalType": "address",
          "name": "",
          "type": "address"
        }
      ],
      "stateMutability": "view",
      "type": "function"
    },
    {
      "inputs": [
        {
          "internalType": "address",
          "name": "user",
          "type": "address"
        },
        {
          "internalType": "uint256",
          "name": "volume",
          "type": "uint256"
        }
      ],
      "name": "recordUserVolume",
      "outputs": [],
      "stateMutability": "nonpayable",
      "type": "function"
    },
    {
      "inputs": [],
      "name": "referralProgram",
      "outputs": [
        {
          "internalType": "address",
          "name": "",
          "type": "address"
        }
      ],
      "stateMutability": "view",
      "type": "function"
    },
    {
      "inputs": [],
      "name": "securityModule",
      "outputs": [
        {
          "internalType": "contract SecurityModule",
          "name": "",
          "type": "address"
        }
      ],
      "stateMutability": "view",
      "type": "function"
    },
    {
      "inputs": [
        {
          "internalType": "address",
          "name": "_insuranceFund",
          "type": "address"
        }
      ],
      "name": "setInsuranceFund",
      "outputs": [],
      "stateMutability": "nonpayable",
      "type": "function"
    },
    {
      "inputs": [
        {
          "internalType": "uint16",
          "name": "_fee",
          "type": "uint16"
        }
      ],
      "name": "setInsuranceFundFee",
      "outputs": [],
      "stateMutability": "nonpayable",
      "type": "function"
    },
    {
      "inputs": [
        {
          "internalType": "uint16",
          "name": "_newFee",
          "type": "uint16"
        }
      ],
      "name": "setLiquidationFee",
      "outputs": [],
      "stateMutability": "nonpayable",
      "type": "function"
    },
    {
      "inputs": [
        {
          "internalType": "uint16",
          "name": "_newFee",
          "type": "uint16"
        }
      ],
      "name": "setMakerFee",
      "outputs": [],
      "stateMutability": "nonpayable",
      "type": "function"
    },
    {
      "inputs": [
        {
          "internalType": "address",
          "name": "_referralProgram",
          "type": "address"
        }
      ],
      "name": "setReferralProgram",
      "outputs": [],
      "stateMutability": "nonpayable",
      "type": "function"
    },
    {
      "inputs": [
        {
          "internalType": "uint16",
          "name": "_newFee",
          "type": "uint16"
        }
      ],
      "name": "setTakerFee",
      "outputs": [],
      "stateMutability": "nonpayable",
      "type": "function"
    },
    {
      "inputs": [
        {
          "internalType": "address",
          "name": "_newTreasury",
          "type": "address"
        }
      ],
      "name": "setTreasury",
      "outputs": [],
      "stateMutability": "nonpayable",
      "type": "function"
    },
    {
      "inputs": [
        {
          "internalType": "uint256",
          "name": "_period",
          "type": "uint256"
        }
      ],
      "name": "setVolumeTrackingPeriod",
      "outputs": [],
      "stateMutability": "nonpayable",
      "type": "function"
    },
    {
      "inputs": [
        {
          "internalType": "uint16",
          "name": "_newFee",
          "type": "uint16"
        }
      ],
      "name": "setWithdrawalFee",
      "outputs": [],
      "stateMutability": "nonpayable",
      "type": "function"
    },
    {
      "inputs": [],
      "name": "takerFee",
      "outputs": [
        {
          "internalType": "uint16",
          "name": "",
          "type": "uint16"
        }
      ],
      "stateMutability": "view",
      "type": "function"
    },
    {
      "inputs": [
        {
          "internalType": "address",
          "name": "newOwner",
          "type": "address"
        }
      ],
      "name": "transferOwnership",
      "outputs": [],
      "stateMutability": "nonpayable",
      "type": "function"
    },
    {
      "inputs": [],
      "name": "treasury",
      "outputs": [
        {
          "internalType": "address",
          "name": "",
          "type": "address"
        }
      ],
      "stateMutability": "view",
      "type": "function"
    },
    {
      "inputs": [
        {
          "internalType": "uint256",
          "name": "tier",
          "type": "uint256"
        },
        {
          "internalType": "uint256",
          "name": "volumeThreshold",
          "type": "uint256"
        },
        {
          "internalType": "uint16",
          "name": "tierMakerFee",
          "type": "uint16"
        },
        {
          "internalType": "uint16",
          "name": "tierTakerFee",
          "type": "uint16"
        }
      ],
      "name": "updateFeeTier",
      "outputs": [],
      "stateMutability": "nonpayable",
      "type": "function"
    },
    {
      "inputs": [
        {
          "internalType": "address",
          "name": "",
          "type": "address"
        }
      ],
      "name": "userVolume",
      "outputs": [
        {
          "internalType": "uint256",
          "name": "",
          "type": "uint256"
        }
      ],
      "stateMutability": "view",
      "type": "function"
    },
    {
      "inputs": [
        {
          "internalType": "address",
          "name": "",
          "type": "address"
        }
      ],
      "name": "userVolumeLastReset",
      "outputs": [
        {
          "internalType": "uint256",
          "name": "",
          "type": "uint256"
        }
      ],
      "stateMutability": "view",
      "type": "function"
    },
    {
      "inputs": [],
      "name": "volumeTrackingPeriod",
      "outputs": [
        {
          "internalType": "uint256",
          "name": "",
          "type": "uint256"
        }
      ],
      "stateMutability": "view",
      "type": "function"
    },
    {
      "inputs": [],
      "name": "withdrawFees",
      "outputs": [],
      "stateMutability": "nonpayable",
      "type": "function"
    },
    {
      "inputs": [],
      "name": "withdrawalFee",
      "outputs": [
        {
          "internalType": "uint16",
          "name": "",
          "type": "uint16"
        }
      ],
      "stateMutability": "view",
      "type": "function"
    },
    {
      "stateMutability": "payable",
      "type": "receive"
    }
  ],
  "bytecode": "0x608034620001815762001e0f90601f38839003908101601f19168201906001600160401b0382118383101762000186578083916040958694855283398101031262000181576200005d60206200005583620001bc565b9201620001bc565b60025462278d006004556009805461ffff60a01b1916600560a11b1790556001600160a01b03928316929091831562000170571680156200015f57600180546001600160a01b031990811690941790556001600160e01b03199091161764320005000160a01b176002556000805490911633179055620000f7620000e06200019c565b6000815260016020820152600583820152620001d1565b62000124620001056200019c565b68056bc75e2d63100000815260016020820152600483820152620001d1565b62000151620001326200019c565b683635c9adc5dea00000815260006020820152600383820152620001d1565b51611bc490816200024b8239f35b835163e6c4247b60e01b8152600490fd5b845163e6c4247b60e01b8152600490fd5b600080fd5b634e487b7160e01b600052604160045260246000fd5b60405190606082016001600160401b038111838210176200018657604052565b51906001600160a01b03821682036200018157565b600354680100000000000000008110156200018657600181018060035581101562000234576001906003600052602060002090821b0182518155019061ffff60208201511663ffff00006040845493015160101b169163ffffffff191617179055565b634e487b7160e01b600052603260045260246000fdfe60806040818152600480361015610021575b505050361561001f57600080fd5b005b600092833560e01c90816306427108146115325750806306b260aa146114fa5780631b48263f146113d2578063230ed44a146113845780632d26ee1f146112e757806330d9f763146111ba5780633278d7031461111b578063380ef3fe146110f25780633e32a3811461107d57806343f0179b14611057578063476343ee1461102857806348eb27ff14610e215780635905320214610bd057806361d027b314610ba7578063698c94f114610b3c5780636ae6969c146108c55780636da7c22c146108a65780636e5b4d621461080f578063796cf30a146107615780638bc7e8c41461073b5780638da5cb5b146107135780639003adfe146106f45780639893cf4f14610533578063a36a36301461050d578063a6769ef8146104d5578063b7902303146104ac578063c3c0529314610435578063c633b52f1461040f578063cdc42344146103e6578063d9e6e287146103b9578063f0f4426014610334578063f2fde38b146102a7578063f4b9e260146101f5578063fc741c7c146101cb5763fdbf3efa0361001157346101c757826003193601126101c75760209250549051908152f35b8280fd5b5050346101f157816003193601126101f15760209061ffff60025460a01c169051908152f35b5080fd5b50346101c75760203660031901126101c75761020f611675565b83549092906001600160a01b0316330361029b5761ffff8084169260c8841161028d57506002805461ffff60b01b19811660b096871b61ffff60b01b161790915582516060808252600590820152643a30b5b2b960d91b6080820152941c166020840152820152600080516020611b6f8339815191529060a090a180f35b825163cd4e616760e01b8152fd5b516282b42960e81b8152fd5b50346101c75760203660031901126101c7576102c1611686565b8354916001600160a01b038084169233849003610325571693841561031857505082907f8be0079c531659141344cd1fd0a4f28419497f9722a3daafe3b4186f6b6457e08580a36001600160a01b03191617815580f35b5163e6c4247b60e01b8152fd5b85516282b42960e81b81528390fd5b50346101c75760203660031901126101c75761034e611686565b83546001600160a01b03929190831633036103ab578216928315610318575050600154826001600160601b0360a01b821617600155167f4ab5be82436d353e61ca18726e984e561f5c1cc7c6d38b29d2553c790434705a8380a380f35b5082516282b42960e81b8152fd5b5050346101f15760203660031901126101f1576020906103df6103da611686565b6118c9565b9051908152f35b5050346101f157816003193601126101f15760075490516001600160a01b039091168152602090f35b5050346101f157816003193601126101f15760209061ffff60095460a01c169051908152f35b50346101c75760203660031901126101c75761044f611686565b83546001600160a01b03929190831633036103ab578216928315610318575050600954826001600160601b0360a01b821617600955167f775be72f3c02cdfa3ef9fd431e09d13a08a983f92a707fcc00192a62c6e44d718380a380f35b5050346101f157816003193601126101f15760095490516001600160a01b039091168152602090f35b5050346101f15760203660031901126101f15760209181906001600160a01b036104fd611686565b1681526005845220549051908152f35b5050346101f157816003193601126101f15760209061ffff60025460c01c169051908152f35b509190346101f15760603660031901126101f15782359061ffff6024358181168082036106ef57610562611664565b86549093906001600160a01b031633036106e057606482116106d05780841660c881116106c05785516060810181811067ffffffffffffffff8211176106ab5787528781526020810193845286810191825260035468010000000000000000811015610698578060016105d8920160035561169c565b9190916106865792600181939261061696955181550193511661ffff19845416178355511663ffff000082549160101b169063ffff00001916179055565b6003546000198101939084116106735751928352602083019390935261ffff928316604083015290911660608201527fbf0e2d4574afa6e496197930af114af5de5d81c9dac9e4f9fc20dce3a8ef4d5c9080608081015b0390a180f35b634e487b7160e01b865260118752602486fd5b634e487b7160e01b8a52898b5260248afd5b634e487b7160e01b8a5260418b5260248afd5b60418b634e487b7160e01b6000525260246000fd5b855163cd4e616760e01b81528990fd5b845163cd4e616760e01b81528890fd5b84516282b42960e81b81528890fd5b600080fd5b5050346101f157816003193601126101f1576020906008549051908152f35b5050346101f157816003193601126101f157905490516001600160a01b039091168152602090f35b5050346101f157816003193601126101f15760209061ffff60025460d01c169051908152f35b509190346101f15760203660031901126101f15761077d611675565b82546001600160a01b031633036108005761ffff8082169061138882116107f0576009805461ffff60a01b19811660a095861b61ffff60a01b16179091558451931c16825260208201529192507fbf1ffdc929c465e55d5bba302b01930c3a7677261e5ce0d566f720a0e9fa5db591a180f35b835163cd4e616760e01b81528690fd5b81516282b42960e81b81528490fd5b50346101c75760203660031901126101c757610829611675565b83549092906001600160a01b0316330361029b5761ffff808416926064841161028d575091600080516020611b6f833981519152939160a0936002549361ffff861b90861b1661ffff861b1985161760025581519360608552600560608601526436b0b5b2b960d91b6080860152851c166020840152820152a180f35b5050346101f157816003193601126101f1576020906003549051908152f35b509134610a0b57506108d6366117ea565b90936108e1826118c9565b8551602096870120919086906108f5611959565b8051908301208403610a4d57600161090f61ffff9261169c565b50015416935b6007546001600160a01b03908116949091908515159081610a15575b50610952575b828861271061094a61ffff8a168b61199b565b049051908152f35b8751634f67b32f60e11b815291168382015292839060249082905afa600092816109e3575b50610985575b858180610937565b61ffff9290918382168110156109ce578316908316039182116109b957506127109161ffff61094a925b925081935061097d565b601190634e487b7160e01b6000525260246000fd5b5050505061094a6127109161ffff60006109af565b90928782813d8311610a0e575b6109fa8183611732565b81010312610a0b5750519138610977565b80fd5b503d6109f0565b9050610a1f611959565b8481519101208114908115610a36575b5038610931565b9050610a4061197a565b8481519101201438610a2f565b610a5561197a565b8051908301208403610a7c576001610a6f61ffff9261169c565b50015460101c1693610915565b506a3634b8bab4b230ba34b7b760a91b908651610a9881611716565b600b815201527fa84eeb19a78840384f41a4e6668a5cb48e920c562583aaef18cba3369ac852c98203610ad6578561ffff60025460c01c1693610915565b691dda5d1a191c985dd85b60b21b868651610af081611716565b600a815201527f5bf5ae2a123e2a979bf55603b4517e3351770c1676311bf75faa9a287d114f488203610b2e578561ffff60025460d01c1693610915565b8451633a08349960e01b8152fd5b50346101c75760203660031901126101c75782548135906001600160a01b03163303610b995790817fdb07a2e5f19e5371953f03e053cb35780351ebf994287cfdc54b75746297bb2d93928254925582519182526020820152a180f35b5090516282b42960e81b8152fd5b5050346101f157816003193601126101f15760015490516001600160a01b039091168152602090f35b509134610a0b5750610be1366117b7565b92610bea611831565b845160209586012091908590610bfe611959565b8051908301208403610d32576001610c1861ffff9261169c565b50015416925b6007546001600160a01b0316908115159081610cfa575b50610c4e575b508461271061094a61ffff86168761199b565b8551634f67b32f60e11b8152600081850152929190839060249082905afa60009281610ccb575b50610c82575b8590610c3b565b61ffff929091838216811015610cb6578316908316039182116109b957506127109161ffff61094a925b9250819350610c7b565b5050505061094a6127109161ffff6000610cac565b90928782813d8311610cf3575b610ce28183611732565b81010312610a0b5750519138610c75565b503d610cd8565b9050610d04611959565b8381519101208114908115610d1b575b5038610c35565b9050610d2561197a565b8381519101201438610d14565b610d3a61197a565b8051908301208403610d61576001610d5461ffff9261169c565b50015460101c1692610c1e565b506a3634b8bab4b230ba34b7b760a91b908551610d7d81611716565b600b815201527fa84eeb19a78840384f41a4e6668a5cb48e920c562583aaef18cba3369ac852c98203610dbb578461ffff60025460c01c1692610c1e565b691dda5d1a191c985dd85b60b21b858551610dd581611716565b600a815201527f5bf5ae2a123e2a979bf55603b4517e3351770c1676311bf75faa9a287d114f488203610e13578461ffff60025460d01c1692610c1e565b8351633a08349960e01b8152fd5b508290346101f157610e32366117ea565b600254865163027cf93b60e31b81523381870152929693946001600160a01b039360209283908290602490829089165afa90811561101e578891610ff1575b501580610fe4575b610fd757610e8986600854611936565b60085583600754169081151580610f96575b610f1b575b5050835194855260608186015286519687606087015260005b888110610f0757877f20ad0c6ef92db9ef32b76b32a5a41a474029a0565f819556fef8ddfdd813ae72886080818d8b8b8b60008685870101521690830152601f80199101168101030190a180f35b818101830151878201608001528201610eb9565b601487029087820460141488151715610f8357823b15610f7f5788929160648492838a51958694859363b285aa7f60e01b85528c8c169085015260248401528c60448401525af115610ea057610f70906116ec565b610f7b578588610ea0565b8580fd5b8880fd5b634e487b7160e01b895260119052602488fd5b508851838a01908120610fa7611959565b85815191012014908115610fbc575b50610e9b565b905089519020610fca61197a565b848151910120148a610fb6565b84516282b42960e81b8152fd5b5083875416331415610e79565b6110119150833d8511611017575b6110098183611732565b81019061191e565b89610e71565b503d610fff565b86513d8a823e3d90fd5b5090346101c757826003193601126101c75782546001600160a01b0316330361029b57826110546119de565b80f35b5050346101f157816003193601126101f15760209061ffff60025460b01c169051908152f35b5090346101c75760203660031901126101c757611098611686565b835490926001600160a01b039290918316330361029b57505080600754921691826001600160601b0360a01b821617600755167f163a927b92a2da2527e40ef7e58350f757ae6fc00b1db6df358ea5812cb24d7c8380a380f35b5050346101f157816003193601126101f15760025490516001600160a01b039091168152602090f35b50346101c75760203660031901126101c757611135611675565b83549092906001600160a01b0316330361029b5761ffff808416926101f4841161028d57506002805461ffff60c01b19811660c096871b61ffff60c01b161790915582516060808252600b908201526a3634b8bab4b230ba34b7b760a91b6080820152941c166020840152820152600080516020611b6f8339815191529060a090a180f35b5090346101c7576111ca366117b7565b600254835163027cf93b60e31b81523386820152919260209290916001600160a01b03919084908290602490829086165afa90811561101e5788916112ca575b501590816112bc575b506112ad57303b15610f7b5783516348eb27ff60e01b815294850152606060248501528151606485018190528592859290845b838110611293575050508181846084809484010152846044830152601f8019910116810103018183305af190811561128a5750611281575080f35b611054906116ec565b513d84823e3d90fd5b818101830151888201608401528895508794508201611246565b505050516282b42960e81b8152fd5b905086541633141538611213565b6112e19150843d8611611017576110098183611732565b3861120a565b50346101c75760203660031901126101c757611301611675565b83549092906001600160a01b0316330361029b5761ffff808416926064841161028d57506002805461ffff60d01b19811660d096871b61ffff60d01b161790915582516060808252600a90820152691dda5d1a191c985dd85b60b21b6080820152941c166020840152820152600080516020611b6f8339815191529060a090a180f35b50346101c75760203660031901126101c7573591600354831015610a0b57506113ae60609261169c565b509060018254920154815192835261ffff90818116602085015260101c1690820152f35b508290346101f157826003193601126101f1576113ed611686565b600254845163027cf93b60e31b815233848201526001600160a01b039592602480359360209391849183919082908c165afa9081156114f05787916114d3575b5015806114c6575b6112ad577f2136f9ac419f7f8d55572b5e123f4b7c8021446b15168de5a6034589797bc1479495966114769116958688526006835284882054905490611936565b42106114aa578486526005815281838720556006815242838720555b8486526005815282862054908351928352820152a280f35b848652600581528286206114bf838254611936565b9055611492565b5086865416331415611435565b6114ea9150833d8511611017576110098183611732565b8861142d565b85513d89823e3d90fd5b5050346101f15760203660031901126101f15760209181906001600160a01b03611522611686565b1681526006845220549051908152f35b84848492346101c75760803660031901126101c75783359060243592611556611664565b916064359661ffff80891692838a03610f7f5788546001600160a01b03163303611657575060035486101561164857841691606483116116395760c81061028d5750917ffde3b849c3d3fc2d77078012d2f68921e9023f7e04a24abc41b3a7bf37b5942895969161066d93866115cb8761169c565b505560016115d88761169c565b50019061ffff198254161790556116108360016115f48861169c565b50019063ffff000082549160101b169063ffff00001916179055565b51948594859290949360609260808501968552602085015261ffff809216604085015216910152565b50825163cd4e616760e01b8152fd5b50825163e142361760e01b8152fd5b6282b42960e81b81529050fd5b6044359061ffff821682036106ef57565b6004359061ffff821682036106ef57565b600435906001600160a01b03821682036106ef57565b6003548110156116d657600360005260011b7fc2575a0e9e593c00f959f8c92f12db2869c3395a3b0502d05e2516446f71f85b0190600090565b634e487b7160e01b600052603260045260246000fd5b67ffffffffffffffff811161170057604052565b634e487b7160e01b600052604160045260246000fd5b6040810190811067ffffffffffffffff82111761170057604052565b90601f8019910116810190811067ffffffffffffffff82111761170057604052565b67ffffffffffffffff811161170057601f01601f191660200190565b81601f820112156106ef5780359061178782611754565b926117956040519485611732565b828452602083830101116106ef57816000926020809301838601378301015290565b9060406003198301126106ef57600435916024359067ffffffffffffffff82116106ef576117e791600401611770565b90565b9060606003198301126106ef57600435916024359067ffffffffffffffff82116106ef5761181a91600401611770565b906044356001600160a01b03811681036106ef5790565b600080805260056020527f05b8ccbb9d4d8fb16ea74ce3c29a41f1b461fbdaff4714a0d9a8eb05499746bc54600354805b61186b57505090565b60001981018181116118b5576118808161169c565b50548310156118ae5750801561189a576000190180611862565b634e487b7160e01b83526011600452602483fd5b9250505090565b634e487b7160e01b84526011600452602484fd5b6001600160a01b0316600090815260056020526040812054600354805b6118ef57505090565b60001981018181116118b5576119048161169c565b50548310156118ae5750801561189a5760001901806118e6565b908160209103126106ef575180151581036106ef5790565b9190820180921161194357565b634e487b7160e01b600052601160045260246000fd5b6040519061196682611716565b600582526436b0b5b2b960d91b6020830152565b6040519061198782611716565b60058252643a30b5b2b960d91b6020830152565b8181029291811591840414171561194357565b3d156119d9573d906119bf82611754565b916119cd6040519384611732565b82523d6000602084013e565b606090565b6008548015611b6b57600060088190556009546001600160a01b03919081908490848116151580611b5b575b611b1a575b5050818080808787600154165af1611a256119ae565b5015611ad55780611a65575b505060207f812bcf6853ebc81dc0a1d2323893eedad6cd086a4398311a699e0a7acdf187b3916001541692604051908152a2565b8180809285600954165af1611a786119ae565b5015611a85573880611a31565b60405162461bcd60e51b815260206004820152602260248201527f496e737572616e63652066756e6420666565207472616e73666572206661696c604482015261195960f21b6064820152608490fd5b60405162461bcd60e51b815260206004820152601c60248201527f547265617375727920666565207472616e73666572206661696c6564000000006044820152606490fd5b611b33919550612710925061ffff9060a01c168561199b565b0492838103908111611b4757923880611a0f565b634e487b7160e01b82526011600452602482fd5b5061ffff8160a01c161515611a0a565b5056fe79735786f03f6488dfce52286c181a3736608fd97d7b8fe87949ee075cc8194fa2646970667358221220c18ca94a167effa2ea2d54e6ebca208e591f877ce15fd47c39d7737b1aea93f164736f6c63430008140033",
  "linkReferences": {},
  "deployedLinkReferences": {}
}