{
  "_format": "hh-sol-artifact-1",
  "contractName": "ReferralProgram",
  "sourceName": "contracts/ReferralProgram.sol",
  "abi": [
    {
      "inputs": [
        {
          "internalType": "address",
          "name": "_feeManager",
          "type": "address"
        }
      ],
      "stateMutability": "nonpayable",
      "type": "constructor"
    },
    {
      "inputs": [],
      "name": "AlreadyReferred",
      "type": "error"
    },
    {
      "inputs": [],
      "name": "InsufficientRebates",
      "type": "error"
    },
    {
      "inputs": [],
      "name": "InvalidReferrer",
      "type": "error"
    },
    {
      "inputs": [],
      "name": "TierNotFound",
      "type": "error"
    },
    {
      "inputs": [],
      "name": "Unauthorized",
      "type": "error"
    },
    {
      "anonymous": false,
      "inputs": [
        {
          "indexed": true,
          "internalType": "address",
          "name": "oldDefault",
          "type": "address"
        },
        {
          "indexed": true,
          "internalType": "address",
          "name": "newDefault",
          "type": "address"
        }
      ],
      "name": "DefaultReferrerUpdated",
      "type": "event"
    },
    {
      "anonymous": false,
      "inputs": [
        {
          "indexed": false,
          "internalType": "uint256",
          "name": "oldMax",
          "type": "uint256"
        },
        {
          "indexed": false,
          "internalType": "uint256",
          "name": "newMax",
          "type": "uint256"
        }
      ],
      "name": "MaxDiscountUpdated",
      "type": "event"
    },
    {
      "anonymous": false,
      "inputs": [
        {
          "indexed": true,
          "internalType": "address",
          "name": "previousOwner",
          "type": "address"
        },
        {
          "indexed": true,
          "internalType": "address",
          "name": "newOwner",
          "type": "address"
        }
      ],
      "name": "OwnershipTransferred",
      "type": "event"
    },
    {
      "anonymous": false,
      "inputs": [
        {
          "indexed": true,
          "internalType": "address",
          "name": "referrer",
          "type": "address"
        },
        {
          "indexed": false,
          "internalType": "uint256",
          "name": "amount",
          "type": "uint256"
        }
      ],
      "name": "RebateClaimed",
      "type": "event"
    },
    {
      "anonymous": false,
      "inputs": [
        {
          "indexed": true,
          "internalType": "address",
          "name": "referrer",
          "type": "address"
        },
        {
          "indexed": true,
          "internalType": "address",
          "name": "trader",
          "type": "address"
        },
        {
          "indexed": false,
          "internalType": "uint256",
          "name": "amount",
          "type": "uint256"
        }
      ],
      "name": "RebateEarned",
      "type": "event"
    },
    {
      "anonymous": false,
      "inputs": [
        {
          "indexed": true,
          "internalType": "address",
          "name": "trader",
          "type": "address"
        },
        {
          "indexed": true,
          "internalType": "address",
          "name": "referrer",
          "type": "address"
        }
      ],
      "name": "ReferralRegistered",
      "type": "event"
    },
    {
      "anonymous": false,
      "inputs": [
        {
          "indexed": true,
          "internalType": "address",
          "name": "trader",
          "type": "address"
        },
        {
          "indexed": true,
          "internalType": "address",
          "name": "referrer",
          "type": "address"
        },
        {
          "indexed": false,
          "internalType": "uint256",
          "name": "volume",
          "type": "uint256"
        }
      ],
      "name": "ReferralVolumeAdded",
      "type": "event"
    },
    {
      "anonymous": false,
      "inputs": [
        {
          "indexed": true,
          "internalType": "address",
          "name": "referrer",
          "type": "address"
        },
        {
          "indexed": false,
          "internalType": "uint256",
          "name": "tier",
          "type": "uint256"
        }
      ],
      "name": "ReferrerTierUpdated",
      "type": "event"
    },
    {
      "anonymous": false,
      "inputs": [
        {
          "indexed": true,
          "internalType": "uint256",
          "name": "tier",
          "type": "uint256"
        },
        {
          "indexed": false,
          "internalType": "uint256",
          "name": "volumeRequirement",
          "type": "uint256"
        },
        {
          "indexed": false,
          "internalType": "uint256",
          "name": "discount",
          "type": "uint256"
        },
        {
          "indexed": false,
          "internalType": "uint256",
          "name": "rebate",
          "type": "uint256"
        }
      ],
      "name": "TierAdded",
      "type": "event"
    },
    {
      "anonymous": false,
      "inputs": [
        {
          "indexed": true,
          "internalType": "uint256",
          "name": "tier",
          "type": "uint256"
        },
        {
          "indexed": false,
          "internalType": "uint256",
          "name": "volumeRequirement",
          "type": "uint256"
        },
        {
          "indexed": false,
          "internalType": "uint256",
          "name": "discount",
          "type": "uint256"
        },
        {
          "indexed": false,
          "internalType": "uint256",
          "name": "rebate",
          "type": "uint256"
        }
      ],
      "name": "TierUpdated",
      "type": "event"
    },
    {
      "inputs": [
        {
          "internalType": "uint256",
          "name": "volumeRequirement",
          "type": "uint256"
        },
        {
          "internalType": "uint256",
          "name": "discount",
          "type": "uint256"
        },
        {
          "internalType": "uint256",
          "name": "rebate",
          "type": "uint256"
        }
      ],
      "name": "addTier",
      "outputs": [],
      "stateMutability": "nonpayable",
      "type": "function"
    },
    {
      "inputs": [
        {
          "internalType": "uint256",
          "name": "amount",
          "type": "uint256"
        }
      ],
      "name": "claimRebates",
      "outputs": [],
      "stateMutability": "nonpayable",
      "type": "function"
    },
    {
      "inputs": [
        {
          "internalType": "address",
          "name": "",
          "type": "address"
        }
      ],
      "name": "claimedRebates",
      "outputs": [
        {
          "internalType": "uint256",
          "name": "",
          "type": "uint256"
        }
      ],
      "stateMutability": "view",
      "type": "function"
    },
    {
      "inputs": [],
      "name": "defaultReferrer",
      "outputs": [
        {
          "internalType": "address",
          "name": "",
          "type": "address"
        }
      ],
      "stateMutability": "view",
      "type": "function"
    },
    {
      "inputs": [
        {
          "internalType": "address",
          "name": "",
          "type": "address"
        }
      ],
      "name": "earnedRebates",
      "outputs": [
        {
          "internalType": "uint256",
          "name": "",
          "type": "uint256"
        }
      ],
      "stateMutability": "view",
      "type": "function"
    },
    {
      "inputs": [],
      "name": "feeManager",
      "outputs": [
        {
          "internalType": "address",
          "name": "",
          "type": "address"
        }
      ],
      "stateMutability": "view",
      "type": "function"
    },
    {
      "inputs": [
        {
          "internalType": "address",
          "name": "referrer",
          "type": "address"
        }
      ],
      "name": "getAvailableRebates",
      "outputs": [
        {
          "internalType": "uint256",
          "name": "",
          "type": "uint256"
        }
      ],
      "stateMutability": "view",
      "type": "function"
    },
    {
      "inputs": [
        {
          "internalType": "address",
          "name": "referrer",
          "type": "address"
        }
      ],
      "name": "getReferees",
      "outputs": [
        {
          "internalType": "address[]",
          "name": "",
          "type": "address[]"
        }
      ],
      "stateMutability": "view",
      "type": "function"
    },
    {
      "inputs": [],
      "name": "getTierCount",
      "outputs": [
        {
          "internalType": "uint256",
          "name": "",
          "type": "uint256"
        }
      ],
      "stateMutability": "view",
      "type": "function"
    },
    {
      "inputs": [
        {
          "internalType": "address",
          "name": "trader",
          "type": "address"
        }
      ],
      "name": "getTraderDiscount",
      "outputs": [
        {
          "internalType": "uint256",
          "name": "",
          "type": "uint256"
        }
      ],
      "stateMutability": "view",
      "type": "function"
    },
    {
      "inputs": [],
      "name": "maxDiscount",
      "outputs": [
        {
          "internalType": "uint256",
          "name": "",
          "type": "uint256"
        }
      ],
      "stateMutability": "view",
      "type": "function"
    },
    {
      "inputs": [],
      "name": "owner",
      "outputs": [
        {
          "internalType": "address",
          "name": "",
          "type": "address"
        }
      ],
      "stateMutability": "view",
      "type": "function"
    },
    {
      "inputs": [
        {
          "internalType": "address",
          "name": "trader",
          "type": "address"
        },
        {
          "internalType": "uint256",
          "name": "volume",
          "type": "uint256"
        },
        {
          "internalType": "uint256",
          "name": "fee",
          "type": "uint256"
        }
      ],
      "name": "recordVolume",
      "outputs": [],
      "stateMutability": "nonpayable",
      "type": "function"
    },
    {
      "inputs": [
        {
          "internalType": "address",
          "name": "",
          "type": "address"
        },
        {
          "internalType": "uint256",
          "name": "",
          "type": "uint256"
        }
      ],
      "name": "referees",
      "outputs": [
        {
          "internalType": "address",
          "name": "",
          "type": "address"
        }
      ],
      "stateMutability": "view",
      "type": "function"
    },
    {
      "inputs": [
        {
          "internalType": "address",
          "name": "",
          "type": "address"
        }
      ],
      "name": "referralVolume",
      "outputs": [
        {
          "internalType": "uint256",
          "name": "",
          "type": "uint256"
        }
      ],
      "stateMutability": "view",
      "type": "function"
    },
    {
      "inputs": [
        {
          "internalType": "address",
          "name": "",
          "type": "address"
        }
      ],
      "name": "referrerTier",
      "outputs": [
        {
          "internalType": "uint256",
          "name": "",
          "type": "uint256"
        }
      ],
      "stateMutability": "view",
      "type": "function"
    },
    {
      "inputs": [
        {
          "internalType": "address",
          "name": "",
          "type": "address"
        }
      ],
      "name": "referrers",
      "outputs": [
        {
          "internalType": "address",
          "name": "",
          "type": "address"
        }
      ],
      "stateMutability": "view",
      "type": "function"
    },
    {
      "inputs": [
        {
          "internalType": "address",
          "name": "trader",
          "type": "address"
        },
        {
          "internalType": "address",
          "name": "referrer",
          "type": "address"
        }
      ],
      "name": "registerReferral",
      "outputs": [],
      "stateMutability": "nonpayable",
      "type": "function"
    },
    {
      "inputs": [
        {
          "internalType": "address",
          "name": "_defaultReferrer",
          "type": "address"
        }
      ],
      "name": "setDefaultReferrer",
      "outputs": [],
      "stateMutability": "nonpayable",
      "type": "function"
    },
    {
      "inputs": [
        {
          "internalType": "address",
          "name": "_feeManager",
          "type": "address"
        }
      ],
      "name": "setFeeManager",
      "outputs": [],
      "stateMutability": "nonpayable",
      "type": "function"
    },
    {
      "inputs": [
        {
          "internalType": "uint256",
          "name": "",
          "type": "uint256"
        }
      ],
      "name": "tiers",
      "outputs": [
        {
          "internalType": "uint256",
          "name": "volumeRequirement",
          "type": "uint256"
        },
        {
          "internalType": "uint256",
          "name": "referrerDiscount",
          "type": "uint256"
        },
        {
          "internalType": "uint256",
          "name": "referrerRebate",
          "type": "uint256"
        }
      ],
      "stateMutability": "view",
      "type": "function"
    },
    {
      "inputs": [
        {
          "internalType": "address",
          "name": "newOwner",
          "type": "address"
        }
      ],
      "name": "transferOwnership",
      "outputs": [],
      "stateMutability": "nonpayable",
      "type": "function"
    },
    {
      "inputs": [
        {
          "internalType": "uint256",
          "name": "_maxDiscount",
          "type": "uint256"
        }
      ],
      "name": "updateMaxDiscount",
      "outputs": [],
      "stateMutability": "nonpayable",
      "type": "function"
    },
    {
      "inputs": [
        {
          "internalType": "address",
          "name": "referrer",
          "type": "address"
        }
      ],
      "name": "updateReferrerTier",
      "outputs": [],
      "stateMutability": "nonpayable",
      "type": "function"
    },
    {
      "inputs": [
        {
          "internalType": "uint256",
          "name": "tier",
          "type": "uint256"
        },
        {
          "internalType": "uint256",
          "name": "volumeRequirement",
          "type": "uint256"
        },
        {
          "internalType": "uint256",
          "name": "discount",
          "type": "uint256"
        },
        {
          "internalType": "uint256",
          "name": "rebate",
          "type": "uint256"
        }
      ],
      "name": "updateTier",
      "outputs": [],
      "stateMutability": "nonpayable",
      "type": "function"
    }
  ],
  "bytecode": "0x6080346200015457601f620011b638819003918201601f191683019291906001600160401b03841183851017620001595781602092849260409687528339810103126200015457516001600160a01b0381169081900362000154576103e86009558015620001105760018060a01b03199081600154161760015533906000541617600055620000a8620000916200016f565b60008152603260208201526064838201526200018f565b620000d5620000b66200016f565b68056bc75e2d631000008152606460208201526096838201526200018f565b62000102620000e36200016f565b683635c9adc5dea0000081526096602082015260c8838201526200018f565b51610fc19081620001f58239f35b815162461bcd60e51b815260206004820152601360248201527f496e76616c696420666565206d616e61676572000000000000000000000000006044820152606490fd5b600080fd5b634e487b7160e01b600052604160045260246000fd5b60405190606082016001600160401b038111838210176200015957604052565b6007546801000000000000000081101562000159576001810180600755811015620001de5760406002916007600052600360206000209102019280518455602081015160018501550151910155565b634e487b7160e01b600052603260045260246000fdfe6040608081526004908136101561001557600080fd5b600091823560e01c908163039af9eb14610c0057816303e6ff8d14610bc85781630437a26414610b90578163360a728114610b6e578163472d35b914610ad75781634a3b68cc14610a9c5781635603b9f9146109455781636358ec57146107fc57816367184e28146107dd5781638ad312ad146107a75781638da5cb5b1461077f57816391b33125146107565781639ecf665e14610730578163acb4cbdd146106a1578163aef8356c146105c5578163b285aa7f14610576578163b8b89e1b14610557578163b9aa24a71461050d578163d0fb0203146104e4578163d499bc851461040b578163da5861c814610350578163dcf6e81914610294578163f19657091461025c578163f2fde38b14610194575063f7509c481461013657600080fd5b3461019057806003193601126101905761014e610ca3565b6001600160a01b03908116835260036020528183208054602435949085101561018d575060209361017e91610cbe565b90549060031b1c169051908152f35b80fd5b5080fd5b905034610258576020366003190112610258576101af610ca3565b8354916001600160a01b038084169233849003610249571693841561020657505082907f8be0079c531659141344cd1fd0a4f28419497f9722a3daafe3b4186f6b6457e08580a36001600160a01b03191617815580f35b906020606492519162461bcd60e51b8352820152602060248201527f4e6577206f776e65722063616e6e6f74206265207a65726f20616464726573736044820152fd5b85516282b42960e81b81528390fd5b8280fd5b5050346101905760203660031901126101905760209181906001600160a01b03610284610ca3565b1681526005845220549051908152f35b905034610258576020366003190112610258576102af610ca3565b83546001600160a01b039291908316330361034257821692831561030c575050600a54826001600160601b0360a01b821617600a55167f5709ddb4c17e52e18ead6a2e477878fe5e16c3bd8dd6d8bc5aed6522ba7ae8f78380a380f35b906020606492519162461bcd60e51b8352820152601060248201526f24b73b30b634b2103932b332b93932b960811b6044820152fd5b5082516282b42960e81b8152fd5b905034610258576020366003190112610258578254813591906001600160a01b031633036103fe576107d082116103bb5750907fd139aee42904e3f3a38f0abe41fc2bf60fc64cedcf7bac4e11249d0cd8f02d7491600954908060095582519182526020820152a180f35b606490602084519162461bcd60e51b8352820152601960248201527f4d6178696d756d20646973636f756e7420746f6f2068696768000000000000006044820152fd5b82516282b42960e81b8152fd5b9050823461018d5760209283600319360112610190576001600160a01b039384610433610ca3565b1683526003815281832092825192838386549182815201908196845284842090845b868282106104ce5750505050849003601f01601f191684019567ffffffffffffffff8711858810176104bb57508581528286529251828601819052928501939291905b8281106104a55785850386f35b8351871685529381019392810192600101610498565b634e487b7160e01b835260419052602482fd5b83548c1685529093019260019283019201610455565b50503461019057816003193601126101905760015490516001600160a01b039091168152602090f35b50503461019057602036600319011261019057602091610550906001600160a01b03610537610ca3565b1681526005845282808220549160068652205490610e0c565b9051908152f35b5050346101905781600319360112610190576020906009549051908152f35b90503461025857606036600319011261025857610591610ca3565b6001549092906001600160a01b031633036105b957836105b660443560243586610cf9565b80f35b516282b42960e81b8152fd5b91905034610258576080366003190112610258578254823592604435926024359260643592906001600160a01b031633036106945760075486101561068657507f2f9c2de6aaf46503da28305515cfe3b56565d2c3663c95ca503892b16c8d5a4a9392916106809161063b600954861115610f3f565b8361064588610c52565b505584600161065389610c52565b50015581600261066289610c52565b50015551938493846040919493926060820195825260208201520152565b0390a280f35b905163b4bcd5a960e01b8152fd5b90516282b42960e81b8152fd5b91905034610258576020366003190112610258578135913384526005602052826106d78386205460066020528487205490610e0c565b10610722575033835260066020528083206106f3838254610cd6565b9055519081527f8ec2a9ed236322c625516e43eab59fcb8145e38ee8d489a28d0aacaeecc298d660203392a280f35b90516329c27a6560e11b8152fd5b50503461019057602036600319011261019057602090610550610751610ca3565b610eeb565b505034610190578160031936011261019057600a5490516001600160a01b039091168152602090f35b505034610190578160031936011261019057905490516001600160a01b039091168152602090f35b9050346102585760203660031901126102585760209282916001600160a01b036107cf610ca3565b168252845220549051908152f35b5050346101905781600319360112610190576020906007549051908152f35b83833461019057606036600319011261019057815460243590843590604435906001600160a01b0316330361093657610839600954841115610f3f565b83516060810181811067ffffffffffffffff8211176109235785528281526020810184815285820190838252600754600160401b811015610910578060016108849201600755610c52565b9390936108fe57518355516001830155516002909101556007546000198101949085116108eb5751918252602082019290925260408101919091527f9eeff5fe675f51786eba4c4299284d87b3213d1cf906d1c0f19a069e40026be2908060608101610680565b634e487b7160e01b865260118752602486fd5b634e487b7160e01b8952888a52602489fd5b634e487b7160e01b895260418a52602489fd5b634e487b7160e01b875260418852602487fd5b83516282b42960e81b81528690fd5b91905034610258578060031936011261025857610960610ca3565b6001600160a01b0360243581811694919290859003610a98578216928333148015610a8c575b15610a58578386526002602052828187205416610a4b57838514610a3e578415610a3e578386526002602052808620856001600160601b0360a01b82541617905584865260036020528520805491600160401b831015610a2b5750906109f191600182018155610cbe565b819291549060031b9184831b921b19161790557f5f1ca2fcc108b751843a763e60d2201f593516109d7dbb1b700468f2d4190bb78380a380f35b634e487b7160e01b875260419052602486fd5b51630c22084560e31b8152fd5b51637aabdfe360e01b8152fd5b906020606492519162461bcd60e51b8352820152600e60248201526d139bdd08185d5d1a1bdc9a5e995960921b6044820152fd5b50828654163314610986565b8580fd5b505034610190576020366003190112610190576020916001600160a01b0390829082610ac6610ca3565b168152600285522054169051908152f35b90503461025857602036600319011261025857610af2610ca3565b83546001600160a01b03919082163303610b5f5716918215610b265750506001600160601b0360a01b600154161760015580f35b906020606492519162461bcd60e51b8352820152601360248201527224b73b30b634b2103332b29036b0b730b3b2b960691b6044820152fd5b83516282b42960e81b81528390fd5b833461018d57602036600319011261018d576105b6610b8b610ca3565b610e19565b5050346101905760203660031901126101905760209181906001600160a01b03610bb8610ca3565b1681526008845220549051908152f35b5050346101905760203660031901126101905760209181906001600160a01b03610bf0610ca3565b1681526006845220549051908152f35b8391503461019057602036600319011261019057359060075482101561018d5750610c2a90610c52565b5080546001820154600290920154925190815260208101919091526040810191909152606090f35b600754811015610c8d576003906007600052027fa66cc928b5edb82af9bd49922954155ab7b0942694bea4ce44661d9a8736c6880190600090565b634e487b7160e01b600052603260045260246000fd5b600435906001600160a01b0382168203610cb957565b600080fd5b8054821015610c8d5760005260206000200190600090565b91908201809211610ce357565b634e487b7160e01b600052601160045260246000fd5b9060018060a01b038092169260009084825260209260028452604091858385205416958615610df5575b610d469087169687865260048752848620610d3f858254610cd6565b9055610e19565b858452600885526002610d5b84862054610c52565b50015490818102918183041490151715610de157867feabaceb751887d5966c0f53312f4d23564125176590e2d15430b8de895df67898685947f69245ed352e21b1ae0bcc077dc6e564700df17953e45465a36d5d3caef258c729897966127108b9604978681526005845220610dd2888254610cd6565b90558551908152a351908152a3565b634e487b7160e01b84526011600452602484fd5b600a548116965086610d23575b5050505050505050565b91908203918211610ce357565b60018060a01b031660009080825260089060208281526040808520549060049485845281872054925b6007546000198101908111610ed857811015610e025760018101808211610ed857610e6c81610c52565b50548510610ecd577f7b7808027739e29f0a6729c55c6d8d3b8a007e4c9d2fb5845f698b2c883d09e9868892838c5285825280878d20558651908152a26000198114610eba57600101610e42565b634e487b7160e01b885260118752602488fd5b505050505050505050565b634e487b7160e01b895260118852602489fd5b6001600160a01b0390811660009081526002602052604090205481168015610f2d575b1660005260086020526001610f27604060002054610c52565b50015490565b5080600a541680610f0e575050600090565b15610f4657565b60405162461bcd60e51b815260206004820152601860248201527f446973636f756e742065786365656473206d6178696d756d00000000000000006044820152606490fdfea2646970667358221220aa53f21614ed131baee237fe89b2fcd04e4daeb8ef058d9d87f6fca8f9c3ccf764736f6c63430008140033",
  "linkReferences": {},
  "deployedLinkReferences": {}
}