{
  "_format": "hh-sol-artifact-1",
  "contractName": "EnhancedOrderBook",
  "sourceName": "contracts/EnhancedOrderbook.sol",
  "abi": [
    {
      "inputs": [
        {
          "internalType": "address",
          "name": "_assetRegistry",
          "type": "address"
        },
        {
          "internalType": "address",
          "name": "_eventEmitter",
          "type": "address"
        },
        {
          "internalType": "address",
          "name": "_securityModule",
          "type": "address"
        }
      ],
      "stateMutability": "nonpayable",
      "type": "constructor"
    },
    {
      "inputs": [],
      "name": "InvalidAmount",
      "type": "error"
    },
    {
      "inputs": [],
      "name": "InvalidInput",
      "type": "error"
    },
    {
      "inputs": [],
      "name": "InvalidOrderStatus",
      "type": "error"
    },
    {
      "inputs": [],
      "name": "InvalidPrice",
      "type": "error"
    },
    {
      "inputs": [],
      "name": "OrderNotFound",
      "type": "error"
    },
    {
      "inputs": [],
      "name": "OrderbookPaused",
      "type": "error"
    },
    {
      "inputs": [],
      "name": "Unauthorized",
      "type": "error"
    },
    {
      "anonymous": false,
      "inputs": [
        {
          "indexed": true,
          "internalType": "uint256",
          "name": "orderId",
          "type": "uint256"
        }
      ],
      "name": "OrderCancelled",
      "type": "event"
    },
    {
      "anonymous": false,
      "inputs": [
        {
          "indexed": true,
          "internalType": "uint256",
          "name": "orderId",
          "type": "uint256"
        },
        {
          "indexed": false,
          "internalType": "uint128",
          "name": "filledAmount",
          "type": "uint128"
        },
        {
          "indexed": false,
          "internalType": "uint128",
          "name": "filledPrice",
          "type": "uint128"
        }
      ],
      "name": "OrderFilled",
      "type": "event"
    },
    {
      "anonymous": false,
      "inputs": [
        {
          "indexed": true,
          "internalType": "uint256",
          "name": "buyOrderId",
          "type": "uint256"
        },
        {
          "indexed": true,
          "internalType": "uint256",
          "name": "sellOrderId",
          "type": "uint256"
        },
        {
          "indexed": false,
          "internalType": "string",
          "name": "asset",
          "type": "string"
        },
        {
          "indexed": false,
          "internalType": "uint128",
          "name": "matchedAmount",
          "type": "uint128"
        },
        {
          "indexed": false,
          "internalType": "uint128",
          "name": "matchedPrice",
          "type": "uint128"
        }
      ],
      "name": "OrderMatched",
      "type": "event"
    },
    {
      "anonymous": false,
      "inputs": [
        {
          "indexed": true,
          "internalType": "uint256",
          "name": "orderId",
          "type": "uint256"
        },
        {
          "indexed": true,
          "internalType": "address",
          "name": "trader",
          "type": "address"
        },
        {
          "indexed": false,
          "internalType": "string",
          "name": "asset",
          "type": "string"
        },
        {
          "indexed": false,
          "internalType": "uint128",
          "name": "price",
          "type": "uint128"
        },
        {
          "indexed": false,
          "internalType": "uint128",
          "name": "amount",
          "type": "uint128"
        },
        {
          "indexed": false,
          "internalType": "enum EnhancedOrderBook.Side",
          "name": "side",
          "type": "uint8"
        },
        {
          "indexed": false,
          "internalType": "enum EnhancedOrderBook.OrderType",
          "name": "orderType",
          "type": "uint8"
        }
      ],
      "name": "OrderPlaced",
      "type": "event"
    },
    {
      "anonymous": false,
      "inputs": [
        {
          "indexed": true,
          "internalType": "address",
          "name": "previousOwner",
          "type": "address"
        },
        {
          "indexed": true,
          "internalType": "address",
          "name": "newOwner",
          "type": "address"
        }
      ],
      "name": "OwnershipTransferred",
      "type": "event"
    },
    {
      "inputs": [],
      "name": "assetRegistry",
      "outputs": [
        {
          "internalType": "contract AssetRegistry",
          "name": "",
          "type": "address"
        }
      ],
      "stateMutability": "view",
      "type": "function"
    },
    {
      "inputs": [
        {
          "internalType": "bytes32",
          "name": "",
          "type": "bytes32"
        },
        {
          "internalType": "uint256",
          "name": "",
          "type": "uint256"
        },
        {
          "internalType": "uint256",
          "name": "",
          "type": "uint256"
        }
      ],
      "name": "buyOrdersByPrice",
      "outputs": [
        {
          "internalType": "uint256",
          "name": "",
          "type": "uint256"
        }
      ],
      "stateMutability": "view",
      "type": "function"
    },
    {
      "inputs": [
        {
          "internalType": "bytes32",
          "name": "",
          "type": "bytes32"
        },
        {
          "internalType": "uint256",
          "name": "",
          "type": "uint256"
        }
      ],
      "name": "buyPrices",
      "outputs": [
        {
          "internalType": "uint256",
          "name": "",
          "type": "uint256"
        }
      ],
      "stateMutability": "view",
      "type": "function"
    },
    {
      "inputs": [
        {
          "internalType": "uint256",
          "name": "orderId",
          "type": "uint256"
        }
      ],
      "name": "cancelOrder",
      "outputs": [],
      "stateMutability": "nonpayable",
      "type": "function"
    },
    {
      "inputs": [],
      "name": "eventEmitter",
      "outputs": [
        {
          "internalType": "contract EventEmitter",
          "name": "",
          "type": "address"
        }
      ],
      "stateMutability": "view",
      "type": "function"
    },
    {
      "inputs": [
        {
          "internalType": "string",
          "name": "asset",
          "type": "string"
        }
      ],
      "name": "getBestAsk",
      "outputs": [
        {
          "internalType": "uint128",
          "name": "price",
          "type": "uint128"
        },
        {
          "internalType": "uint128",
          "name": "available",
          "type": "uint128"
        }
      ],
      "stateMutability": "view",
      "type": "function"
    },
    {
      "inputs": [
        {
          "internalType": "string",
          "name": "asset",
          "type": "string"
        }
      ],
      "name": "getBestBid",
      "outputs": [
        {
          "internalType": "uint128",
          "name": "price",
          "type": "uint128"
        },
        {
          "internalType": "uint128",
          "name": "available",
          "type": "uint128"
        }
      ],
      "stateMutability": "view",
      "type": "function"
    },
    {
      "inputs": [
        {
          "internalType": "uint256",
          "name": "orderId",
          "type": "uint256"
        }
      ],
      "name": "getOrder",
      "outputs": [
        {
          "components": [
            {
              "internalType": "uint256",
              "name": "id",
              "type": "uint256"
            },
            {
              "internalType": "address",
              "name": "trader",
              "type": "address"
            },
            {
              "internalType": "bytes32",
              "name": "assetKey",
              "type": "bytes32"
            },
            {
              "internalType": "enum EnhancedOrderBook.Side",
              "name": "side",
              "type": "uint8"
            },
            {
              "internalType": "uint128",
              "name": "price",
              "type": "uint128"
            },
            {
              "internalType": "uint128",
              "name": "originalAmount",
              "type": "uint128"
            },
            {
              "internalType": "uint128",
              "name": "remainingAmount",
              "type": "uint128"
            },
            {
              "internalType": "enum EnhancedOrderBook.OrderType",
              "name": "orderType",
              "type": "uint8"
            },
            {
              "internalType": "uint128",
              "name": "triggerPrice",
              "type": "uint128"
            },
            {
              "internalType": "uint256",
              "name": "timestamp",
              "type": "uint256"
            },
            {
              "internalType": "enum EnhancedOrderBook.OrderStatus",
              "name": "status",
              "type": "uint8"
            }
          ],
          "internalType": "struct EnhancedOrderBook.Order",
          "name": "",
          "type": "tuple"
        }
      ],
      "stateMutability": "view",
      "type": "function"
    },
    {
      "inputs": [
        {
          "internalType": "string",
          "name": "asset",
          "type": "string"
        },
        {
          "internalType": "uint256",
          "name": "levels",
          "type": "uint256"
        }
      ],
      "name": "getOrderBookDepth",
      "outputs": [
        {
          "internalType": "uint128[]",
          "name": "bidPrices",
          "type": "uint128[]"
        },
        {
          "internalType": "uint128[]",
          "name": "bidSizes",
          "type": "uint128[]"
        },
        {
          "internalType": "uint128[]",
          "name": "askPrices",
          "type": "uint128[]"
        },
        {
          "internalType": "uint128[]",
          "name": "askSizes",
          "type": "uint128[]"
        }
      ],
      "stateMutability": "view",
      "type": "function"
    },
    {
      "inputs": [
        {
          "internalType": "address",
          "name": "trader",
          "type": "address"
        }
      ],
      "name": "getOrdersForTrader",
      "outputs": [
        {
          "internalType": "uint256[]",
          "name": "",
          "type": "uint256[]"
        }
      ],
      "stateMutability": "view",
      "type": "function"
    },
    {
      "inputs": [],
      "name": "nextOrderId",
      "outputs": [
        {
          "internalType": "uint256",
          "name": "",
          "type": "uint256"
        }
      ],
      "stateMutability": "view",
      "type": "function"
    },
    {
      "inputs": [
        {
          "internalType": "uint256",
          "name": "",
          "type": "uint256"
        }
      ],
      "name": "orders",
      "outputs": [
        {
          "internalType": "uint256",
          "name": "id",
          "type": "uint256"
        },
        {
          "internalType": "address",
          "name": "trader",
          "type": "address"
        },
        {
          "internalType": "bytes32",
          "name": "assetKey",
          "type": "bytes32"
        },
        {
          "internalType": "enum EnhancedOrderBook.Side",
          "name": "side",
          "type": "uint8"
        },
        {
          "internalType": "uint128",
          "name": "price",
          "type": "uint128"
        },
        {
          "internalType": "uint128",
          "name": "originalAmount",
          "type": "uint128"
        },
        {
          "internalType": "uint128",
          "name": "remainingAmount",
          "type": "uint128"
        },
        {
          "internalType": "enum EnhancedOrderBook.OrderType",
          "name": "orderType",
          "type": "uint8"
        },
        {
          "internalType": "uint128",
          "name": "triggerPrice",
          "type": "uint128"
        },
        {
          "internalType": "uint256",
          "name": "timestamp",
          "type": "uint256"
        },
        {
          "internalType": "enum EnhancedOrderBook.OrderStatus",
          "name": "status",
          "type": "uint8"
        }
      ],
      "stateMutability": "view",
      "type": "function"
    },
    {
      "inputs": [],
      "name": "owner",
      "outputs": [
        {
          "internalType": "address",
          "name": "",
          "type": "address"
        }
      ],
      "stateMutability": "view",
      "type": "function"
    },
    {
      "inputs": [
        {
          "internalType": "string",
          "name": "asset",
          "type": "string"
        },
        {
          "internalType": "enum EnhancedOrderBook.Side",
          "name": "side",
          "type": "uint8"
        },
        {
          "internalType": "uint128",
          "name": "price",
          "type": "uint128"
        },
        {
          "internalType": "uint128",
          "name": "amount",
          "type": "uint128"
        }
      ],
      "name": "placeLimitOrder",
      "outputs": [
        {
          "internalType": "uint256",
          "name": "",
          "type": "uint256"
        }
      ],
      "stateMutability": "nonpayable",
      "type": "function"
    },
    {
      "inputs": [
        {
          "internalType": "string",
          "name": "asset",
          "type": "string"
        },
        {
          "internalType": "enum EnhancedOrderBook.Side",
          "name": "side",
          "type": "uint8"
        },
        {
          "internalType": "uint128",
          "name": "amount",
          "type": "uint128"
        }
      ],
      "name": "placeMarketOrder",
      "outputs": [
        {
          "internalType": "uint256",
          "name": "",
          "type": "uint256"
        }
      ],
      "stateMutability": "nonpayable",
      "type": "function"
    },
    {
      "inputs": [
        {
          "internalType": "string",
          "name": "asset",
          "type": "string"
        },
        {
          "internalType": "enum EnhancedOrderBook.Side",
          "name": "side",
          "type": "uint8"
        },
        {
          "internalType": "uint128",
          "name": "triggerPrice",
          "type": "uint128"
        },
        {
          "internalType": "uint128",
          "name": "amount",
          "type": "uint128"
        }
      ],
      "name": "placeStopLossOrder",
      "outputs": [
        {
          "internalType": "uint256",
          "name": "",
          "type": "uint256"
        }
      ],
      "stateMutability": "nonpayable",
      "type": "function"
    },
    {
      "inputs": [
        {
          "internalType": "string",
          "name": "asset",
          "type": "string"
        },
        {
          "internalType": "enum EnhancedOrderBook.Side",
          "name": "side",
          "type": "uint8"
        },
        {
          "internalType": "uint128",
          "name": "triggerPrice",
          "type": "uint128"
        },
        {
          "internalType": "uint128",
          "name": "amount",
          "type": "uint128"
        }
      ],
      "name": "placeTakeProfitOrder",
      "outputs": [
        {
          "internalType": "uint256",
          "name": "",
          "type": "uint256"
        }
      ],
      "stateMutability": "nonpayable",
      "type": "function"
    },
    {
      "inputs": [
        {
          "internalType": "string",
          "name": "asset",
          "type": "string"
        },
        {
          "internalType": "uint128",
          "name": "currentPrice",
          "type": "uint128"
        }
      ],
      "name": "processTriggerOrders",
      "outputs": [],
      "stateMutability": "nonpayable",
      "type": "function"
    },
    {
      "inputs": [],
      "name": "securityModule",
      "outputs": [
        {
          "internalType": "contract SecurityModule",
          "name": "",
          "type": "address"
        }
      ],
      "stateMutability": "view",
      "type": "function"
    },
    {
      "inputs": [
        {
          "internalType": "bytes32",
          "name": "",
          "type": "bytes32"
        },
        {
          "internalType": "uint256",
          "name": "",
          "type": "uint256"
        },
        {
          "internalType": "uint256",
          "name": "",
          "type": "uint256"
        }
      ],
      "name": "sellOrdersByPrice",
      "outputs": [
        {
          "internalType": "uint256",
          "name": "",
          "type": "uint256"
        }
      ],
      "stateMutability": "view",
      "type": "function"
    },
    {
      "inputs": [
        {
          "internalType": "bytes32",
          "name": "",
          "type": "bytes32"
        },
        {
          "internalType": "uint256",
          "name": "",
          "type": "uint256"
        }
      ],
      "name": "sellPrices",
      "outputs": [
        {
          "internalType": "uint256",
          "name": "",
          "type": "uint256"
        }
      ],
      "stateMutability": "view",
      "type": "function"
    },
    {
      "inputs": [
        {
          "internalType": "address",
          "name": "newOwner",
          "type": "address"
        }
      ],
      "name": "transferOwnership",
      "outputs": [],
      "stateMutability": "nonpayable",
      "type": "function"
    },
    {
      "inputs": [
        {
          "internalType": "address",
          "name": "",
          "type": "address"
        },
        {
          "internalType": "uint256",
          "name": "",
          "type": "uint256"
        }
      ],
      "name": "userOrders",
      "outputs": [
        {
          "internalType": "uint256",
          "name": "",
          "type": "uint256"
        }
      ],
      "stateMutability": "view",
      "type": "function"
    }
  ],
  "bytecode": "0x608034620001a257601f620037a038819003918201601f191683019291906001600160401b03841183851017620001a7578160609284926040968752833981010312620001a2576200005181620001bd565b6200006c836200006460208501620001bd565b9301620001bd565b60016005556001600160a01b039182169290919083156200015e5781169182156200011a5716908115620000d65760018060a01b0319928360075416176007558260085416176008558160095416176009553390600a541617600a55516135cd9081620001d38239f35b835162461bcd60e51b815260206004820152601760248201527f496e76616c6964207365637572697479206d6f64756c650000000000000000006044820152606490fd5b845162461bcd60e51b815260206004820152601560248201527f496e76616c6964206576656e7420656d697474657200000000000000000000006044820152606490fd5b845162461bcd60e51b815260206004820152601660248201527f496e76616c6964206173736574207265676973747279000000000000000000006044820152606490fd5b600080fd5b634e487b7160e01b600052604160045260246000fd5b51906001600160a01b0382168203620001a25756fe608080604052600436101561001357600080fd5b600090813560e01c90816324a80daa1461211557508063298bcb43146120675780632a58b33014612049578063380ef3fe146120205780633aa8ff8614611fee578063514fcac714611e4457806356e570b014611e095780636cf836ba14611b1d578063856652e914611ad5578063876dc94e146117b15780638da5cb5b146117885780639310db971461148057806393ba587b14610a21578063979d7e86146109f85780639ff78c30146109cf578063a85c38ef14610907578063b3262985146108bd578063bc5897e51461087c578063d09ef2411461067d578063d295fd2114610643578063f2fde38b1461057e578063f5875a131461017a5763f75540081461011e57600080fd5b3461017757602036600319011261017757600435906001600160401b0382116101775761015761015136600485016123cc565b906130f5565b604080516001600160801b039384168152919092166020820152f35b0390f35b80fd5b5034610177576060366003190112610177576004356001600160401b03811161057a576101ab9036906004016123cc565b60243590600282101561057657604435936001600160801b03851685036104ee57600954604051635c975abb60e01b815290602090829060049082906001600160a01b03165afa91821561056a57809261052d575b505061051b576001600160801b038416156105095761023061022b6102263684876125c2565b61336b565b6125f9565b6005549261023d8461263c565b600555604051602081019083838337610266602082868101600083820152038084520182612579565b519020604051906102768261255d565b85825233602083015260408201526102918460608301612661565b600060808201526001600160801b03861660a08201526001600160801b03861660c0820152600160e0820152610100810160008152610120820190428252610140830160008152876000526004602052604060002092845184556001840160018060a01b036020870151166001600160601b0360a01b82541617905560408501516002850155600384019460608101519060028210156104f3576001600160801b0360079561035a6103ca996103b39560ff80198354169116178155836080860151169061266d565b610390600489018360a08601511684198254161781558360c0860151166001600160801b0382549181199060801b169116179055565b6103ab60e060058a019401516103a58161252a565b8461268f565b51169061266d565b51600684015551916103c48361252a565b0161268f565b3360005260066020526103e18460406000206126d5565b60405160a081528460008051602061357883398151915261040660a0840186866126fa565b92600060208201526001600160801b038916604082015261042a606082018861251d565b600160808201528033940390a36008546001600160a01b031690813b156104ee57600061048e9381956001600160801b03604051998a9788968795633c03c98b60e11b87528c600488015233602488015261010060448801526101048701916126fa565b921560648501528460848501521660a4830152600160c48301528260e483015203925af19182156104e2576020926104d3575b506104cb81612728565b604051908152f35b6104dc90612534565b386104c1565b6040513d6000823e3d90fd5b600080fd5b634e487b7160e01b600052602160045260246000fd5b60405163162908e360e11b8152600490fd5b604051631e325a8760e21b8152600490fd5b9091506020823d602011610562575b8161054960209383612579565b81010312610177575061055b9061259a565b3880610200565b3d915061053c565b604051903d90823e3d90fd5b8380fd5b5080fd5b5034610177576020366003190112610177576105986123f9565b600a546001600160a01b03808216923384900361063257169182156105ee5782907f8be0079c531659141344cd1fd0a4f28419497f9722a3daafe3b4186f6b6457e08580a36001600160a01b03191617600a5580f35b606460405162461bcd60e51b815260206004820152602060248201527f4e6577206f776e65722063616e6e6f74206265207a65726f20616464726573736044820152fd5b6040516282b42960e81b8152600490fd5b503461017757602036600319011261017757600435906001600160401b0382116101775761015761067736600485016123cc565b90613209565b503461017757602036600319011261017757600435816101406040516106a28161255d565b8281528260208201528260408201528260608201528260808201528260a08201528260c08201528260e08201528261010082015282610120820152015260055481101561086a5781604091610160935260046020522060ff6007604051926107098461255d565b8054845260018101546001600160a01b031660208501526002810154604085015260038101546001600160801b039061074785821660608801612661565b60081c16608085015260048101546001600160801b03811660a086015260801c60c08501526001600160801b0360058201548481166107858161252a565b60e087015260081c1661010085015260068101546101208501520154166107ab8161252a565b610140820152610140604051918051835260018060a01b036020820151166020840152604081015160408401526107ea6060820151606085019061251d565b6001600160801b0360808201511660808401526001600160801b0360a08201511660a08401526001600160801b0360c08201511660c084015260e08101516108318161252a565b60e08401526001600160801b036101008201511661010084015261012081015161012084015201516108628161252a565b610140820152f35b60405163d36d896560e01b8152600490fd5b50346101775761088b3661240f565b919081526003602052604081209081548310156101775760206108ae8484612450565b90549060031b1c604051908152f35b5034610177576108cc36612468565b92918252600160205260408220908252602052604081209081548310156101775760206108f98484612450565b90546040519160031b1c8152f35b503461017757602036600319011261017757604061016091600435815260046020522080549060018060a01b0360018201541690600281015460038201549060048301549060058401549160ff83169160ff600760068801549701541696604051988952602089015260408801526109856060880160ff861661251d565b6001600160801b03809460081c16608088015283811660a088015260801c60c08701526109b18161252a565b60e086015260081c166101008401526101208301526108628161252a565b50346101775780600319360112610177576008546040516001600160a01b039091168152602090f35b50346101775780600319360112610177576007546040516001600160a01b039091168152602090f35b503461017757610a3036612482565b600954604051635c975abb60e01b8152939691959390602090829060049082906001600160a01b03165afa91821561056a578092611443575b505061051b576001600160801b03811615611432576001600160801b0384161561050957610a9e61022b6102263686866125c2565b60009260055495610aae8761263c565b600555604051602081019083868337610ad66020828681018a83820152038084520182612579565b51902095604051610ae68161255d565b888152336020820152876040820152610b028360608301612661565b6001600160801b03851660808201526001600160801b03821660a08201526001600160801b03821660c08201528660e082015286610100820152426101208201528661014082015288875260046020526040872090805182556001820160018060a01b036020830151166001600160601b0360a01b825416179055604081015160028301556060810151600281101561141e57610140610c3f939260079260ff80196003870154169116176003850155610bcc6001600160801b036080830151166003860161266d565b60a081015160c082015160801b6001600160801b0319166001600160801b0391909116176004850155610c2860058501610c1360e0840151610c0d8161252a565b8261268f565b6001600160801b03610100840151169061266d565b61012081015160068501550151916103c48361252a565b3386526006602052610c5488604088206126d5565b600282101561140a578161120c5786865285602052604086206001600160801b0385168752602052610c8988604088206126d5565b8596865b81885260026020526040882080548210156111fe5781610cac91612450565b6001600160801b03881691549060031b1c14610cd057610ccb9061263c565b610c8d565b50909192939495965060015b1561102e575b505b60405160a0815287600080516020613578833981519152610d0960a08401878a6126fa565b926001600160801b03881660208201526001600160801b0385166040820152610d35606082018761251d565b8960808201528033940390a36008546001600160a01b031693843b1561102a57878795936001600160801b03610d9c9896948189956040519b8c9a8b998a98633c03c98b60e11b8a5260048a01523360248a015261010060448a01526101048901916126fa565b941560648701521660848501521660a48301528260c48301528260e483015203925af1801561101f57611010575b50610dd48161252a565b15610de557806104cb602092612728565b806000526004602052604060002060ff60038201541660028110156104f357610f4157600281015460005b81600052600360205260406000208054821080610f31575b15610f255781610e3791612450565b905460038581015492901b1c9060081c6001600160801b03168111610ecc5782600052600160205260406000209060005260205260406000209160005b8354811080610ebc575b15610eab5780610ea1610e94610ea69387612450565b90549060031b1c88612a7e565b61263c565b610e74565b509150610eb79061263c565b610e10565b50600485015460801c1515610e7e565b505050906020915b60048101548060801c908115600014610efc575050600701805460ff191660011790556104cb565b6001600160801b031611610f11575b506104cb565b600701805460ff1916600217905538610f0b565b50505090602091610ed4565b50600484015460801c1515610e28565b600281015460005b81600052600260205260406000208054821080611000575b15610f255781610f7091612450565b905460038581015492901b1c9060081c6001600160801b03168110610f255782600052600060205260406000209060005260205260406000209160005b8354811080610ff0575b15610fdf5780610ea187610fce610fda9488612450565b90549060031b1c612a7e565b610fad565b509150610feb9061263c565b610f49565b50600485015460801c1515610fb7565b50600484015460801c1515610f61565b61101990612534565b38610dca565b6040513d84823e3d90fd5b8680fd5b80875260026020526040872054611062578652600260205261105c6001600160801b038516604088206126d5565b38610ce2565b86959493929190865b81885260026020526040882080548210156111f0578161108a91612450565b90549060031b1c6001600160801b038716116110ae576110a99061263c565b61106b565b90878193949596979899505260026020526110cb604089206126a7565b81885260026020526040882054806000198101116111dc57600019015b81811161115b575061110861112991838a52600260205260408a20612450565b6001600160801b0388169082549060031b91821b91600019901b1916179055565b60015b15611138575b5061105c565b865260026020526111556001600160801b038516604088206126d5565b38611132565b828952600260205260408920816000198101116111c857906111be8a6111a583604061118f6111c397600019840190612450565b90549060031b1c93898152600260205220612450565b90919082549060031b91821b91600019901b1916179055565b61271b565b6110e8565b634e487b7160e01b8a52601160045260248afd5b634e487b7160e01b89526011600452602489fd5b50509091929394959661112c565b505090919293949596610cdc565b8686526001602052604086206001600160801b038516875260205261123488604088206126d5565b8596865b81885260036020526040882080548210156113fc578161125791612450565b6001600160801b03881691549060031b1c1461127b576112769061263c565b611238565b50909192939495965060015b15611293575b50610ce4565b808752600360205260408720546112c757865260036020526112c16001600160801b038516604088206126d5565b3861128d565b86959493929190865b81885260036020526040882080548210156113ee57816112ef91612450565b90549060031b1c6001600160801b038716106113135761130e9061263c565b6112d0565b9087819394959697989950526003602052611330604089206126a7565b81885260036020526040882054806000198101116111dc57600019015b81811161139f575061110861136d91838a52600360205260408a20612450565b60015b1561137c575b506112c1565b865260036020526113996001600160801b038516604088206126d5565b38611376565b828952600360205260408920816000198101116111c857906111be8a6111a58360406113d36113e997600019840190612450565b90549060031b1c93898152600360205220612450565b61134d565b505090919293949596611370565b505090919293949596611287565b634e487b7160e01b86526021600452602486fd5b634e487b7160e01b89526021600452602489fd5b60405162bfc92160e01b8152600490fd5b9091506020823d602011611478575b8161145f60209383612579565b8101031261017757506114719061259a565b3880610a69565b3d9150611452565b50346101775761148f36612482565b600954604051635c975abb60e01b815291969295939493929190602090829060049082906001600160a01b03165afa91821561056a57809261174b575b505061051b576001600160801b03841615611432576001600160801b038516156105095761150161022b6102263685856125c2565b6005549361150e8561263c565b600555604051602081019084848337611537602082878101600083820152038084520182612579565b51902090604051916115488361255d565b86835233602084015260408301526115638560608401612661565b600060808301526001600160801b03871660a08301526001600160801b03871660c0830152600260e08301526001600160801b03610100830191168152610120820190428252610140830160008152876000526004602052604060002092845184556001840160018060a01b036020870151166001600160601b0360a01b82541617905560408501516002850155600384019460608101519060028210156104f3576001600160801b0360079561035a611634996103b39560ff80198354169116178155836080860151169061266d565b33600052600660205261164b8460406000206126d5565b60405160a081528460008051602061357883398151915261167060a0840186866126fa565b92600060208201526001600160801b0389166040820152611694606082018861251d565b600260808201528033940390a36008546001600160a01b03169060028410156104f357813b156104ee5760006117019381956001600160801b03604051998a9788968795633c03c98b60e11b87528c600488015233602488015261010060448801526101048701916126fa565b921560648501528460848501521660a48301528260c48301528260e483015203925af19182156104e25760209261173c575b50604051908152f35b61174590612534565b38611733565b9091506020823d602011611780575b8161176760209383612579565b8101031261017757506117799061259a565b38806114cc565b3d915061175a565b5034610177578060031936011261017757600a546040516001600160a01b039091168152602090f35b5034610177576040366003190112610177576004356001600160401b03811161057a576117e29036906004016123cc565b91906024359261180b602060405183819483830196873781018683820152038084520182612579565b51902060328311611acc575b8082526002602052604082205483811015611ac557925b818352600360205260408320549080821015611abd5750915b61185084613325565b9261185a85613325565b9161186482613325565b9361186e83613325565b96825b8181106119cc575050815b8381106118d1576118a7876101738a6118c38a6118b58b6040519788976080895260808901906124e0565b9087820360208901526124e0565b9085820360408701526124e0565b9083820360608501526124e0565b81835260036020526118e68160408520612450565b90549060031b1c6001600160801b0381166119018389613357565b5282845260016020526040842090845260205260408320839084908054915b82811061194f575050509061194a916001600160801b03611941838c613357565b9116905261263c565b61187c565b6119598183612450565b90549060031b1c875260046020526040872060ff60078201541661197c8161252a565b80159081156119b8575b5061199b575b506119969061263c565b611920565b611996919460046119b192015460801c906130da565b939061198c565b600291506119c58161252a565b1438611986565b82845260026020526119e18160408620612450565b90549060031b1c6001600160801b0381166119fc838b613357565b52838552846020526040852090855260205260408420849085908054915b828110611a405750505090611a3b916001600160801b03611941838a613357565b611871565b611a4a8183612450565b90549060031b1c885260046020526040882060ff600782015416611a6d8161252a565b8015908115611aa9575b50611a8c575b50611a879061263c565b611a1a565b611a8791946004611aa292015460801c906130da565b9390611a7d565b60029150611ab68161252a565b1438611a77565b905091611847565b508261182e565b60329250611817565b503461017757604036600319011261017757611aef6123f9565b6001600160a01b03168152600660205260408120805460243592908310156101775760206108f98484612450565b503461017757611b2c36612482565b600954604051635c975abb60e01b815291969295939493929190602090829060049082906001600160a01b03165afa91821561056a578092611dcc575b505061051b576001600160801b03841615611432576001600160801b0385161561050957611b9e61022b6102263685856125c2565b60055493611bab8561263c565b600555604051602081019084848337611bd4602082878101600083820152038084520182612579565b51902060405191611be48361255d565b8683526020830191338352604084019081526060840191611c058884612661565b608085016000815260a08601956001600160801b038c16875260c08101916001600160801b038d168352600360e08301526001600160801b03610100830194168452610120820193428552610140830195600087528d600052600460205260406000209884518a5560018a019060018060a01b039051166001600160601b0360a01b8254161790555160028901556003880196519660028810156104f357611cff996001600160801b036103b396611cd46103909483809860079e60ff8019855416911617835551169061266d565b8160048d01935116821984541617835551166001600160801b0382549181199060801b169116179055565b336000526006602052611d168460406000206126d5565b60405160a0815284600080516020613578833981519152611d3b60a0840186866126fa565b92600060208201526001600160801b0389166040820152611d5f606082018861251d565b600360808201528033940390a36008546001600160a01b03169060028410156104f357813b156104ee5760006117019381956001600160801b03604051998a9788968795633c03c98b60e11b87528c600488015233602488015261010060448801526101048701916126fa565b9091506020823d602011611e01575b81611de860209383612579565b810103126101775750611dfa9061259a565b3880611b69565b3d9150611ddb565b503461017757611e1836612468565b929182528160205260408220908252602052604081209081548310156101775760206108f98484612450565b5034610177576020366003190112610177576004358082526004602052604082206001810160018060a01b03928382541633036106325760078301805460ff8116611e8e8161252a565b8015159081611fd9575b50611fc75760039060ff1916179055600583019360ff855416611eba8161252a565b15611fb9575b817f61b9399f2f0f32ca39ce8d7be32caed5ec22fe07a6daba3a467ed479ec6065828780a2806008541692541690611efb60028501546133d4565b93600381015460ff811691600283101561141e579188969594939160ff6004946001600160801b03958691015416995416611f358161252a565b863b15611fb557611f769989956001936040519c8d9b8c9a8b99633c03c98b60e11b8b5260048b015260248a015261010060448a0152610104890190612a59565b9515606488015260081c16608486015260a48501521460c48301528260e483015203925af1801561101f57611fa9575080f35b611fb290612534565b80f35b8880fd5b611fc284612e4c565b611ec0565b604051632916ae3360e01b8152600490fd5b60029150611fe68161252a565b141538611e98565b503461017757611ffd3661240f565b919081526002602052604081209081548310156101775760206108f98484612450565b50346101775780600319360112610177576009546040516001600160a01b039091168152602090f35b50346101775780600319360112610177576020600554604051908152f35b50346101775760208060031936011261057a576001600160a01b0361208a6123f9565b168252600681526040822060405192838383549182815201908193835284832090835b81811061210157505050846120c3910385612579565b60405193838594850191818652518092526040850193925b8281106120ea57505050500390f35b8351855286955093810193928101926001016120db565b8254845292860192600192830192016120ad565b90503461057a57604036600319011261057a576004356001600160401b0381116123c8576121479036906004016123cc565b90916024928335926001600160801b039283851680950361102a576009546001600160a01b03169033821490878215612354575b505090501561231f57916121b08592879460405192839160209481869283830196873781018983820152038084520182612579565b51902090600195869384975b6121c4578680f35b6005805489101561231a578888526004845260408820600291868383015414801590612301575b6122f257899082019283549260ff908185166122068161252a565b80840361228757506003015416915081101561227457918780999a9b92612246941560001461226657858160081c168710155b61224e575b50505061263c565b9796956121bc565b60ff191617905561225e81612728565b8a878161223e565b858160081c16871115612239565b634e487b7160e01b8a526021600452888afd5b906122918261252a565b60038092146122af575b50505050918780999a9b9261224694612239565b015416915081101561227457918780999a9b9261224694156000146122e457858160081c168711155b929481949d9c9b61229b565b858160081c168710156122d8565b5050506122468596979861263c565b5060ff6007830154166123138161252a565b15156121eb565b508680f35b60405162461bcd60e51b815260206004820152600e818701526d139bdd08185d5d1a1bdc9a5e995960921b6044820152606490fd5b6020925081809463027cf93b60e31b82523360048301525afa9081156123bd578791612384575b5080388761217b565b90506020813d82116123b5575b8161239e60209383612579565b8101031261102a576123af9061259a565b3861237b565b3d9150612391565b6040513d89823e3d90fd5b8280fd5b9181601f840112156104ee578235916001600160401b0383116104ee57602083818601950101116104ee57565b600435906001600160a01b03821682036104ee57565b60409060031901126104ee576004359060243590565b80541561243a57600052602060002090600090565b634e487b7160e01b600052603260045260246000fd5b805482101561243a5760005260206000200190600090565b60609060031901126104ee57600435906024359060443590565b60806003198201126104ee57600435906001600160401b0382116104ee576124ac916004016123cc565b909160243560028110156104ee57906001600160801b039060443582811681036104ee579160643590811681036104ee5790565b90815180825260208080930193019160005b828110612500575050505090565b83516001600160801b0316855293810193928101926001016124f2565b9060028210156104f35752565b600411156104f357565b6001600160401b03811161254757604052565b634e487b7160e01b600052604160045260246000fd5b61016081019081106001600160401b0382111761254757604052565b90601f801991011681019081106001600160401b0382111761254757604052565b519081151582036104ee57565b6001600160401b03811161254757601f01601f191660200190565b9291926125ce826125a7565b916125dc6040519384612579565b8294818452818301116104ee578281602093846000960137010152565b1561260057565b60405162461bcd60e51b8152602060048201526014602482015273105cdcd95d081b9bdd081c9959da5cdd195c995960621b6044820152606490fd5b600019811461264b5760010190565b634e487b7160e01b600052601160045260246000fd5b60028210156104f35752565b90610100600160881b0382549160081b1690610100600160881b031916179055565b906126998161252a565b60ff80198354169116179055565b8054600160401b811015612547576126c491600182018155612450565b8154906000199060031b1b19169055565b90815491600160401b83101561254757826111a59160016126f895018155612450565b565b908060209392818452848401376000828201840152601f01601f1916010190565b801561264b576000190190565b90600082815260046020918183526040918282209060039360ff85840154166002908181101561292c57612860578084015490855b8287528789528387208054821080612851575b156127ff578161277f91612450565b905490891b1c838852600190818b528589209089528a528488208189905b6127b3575b5050506127ae9061263c565b61275d565b8d8b83548310806127f0575b156127e95791610ea16127e39286946127d88488612450565b9054911b1c90612a7e565b9061279d565b50506127a2565b50898b015460801c15156127bf565b5050979850505092509250505b8101548060801c908115600014612830575050600701805460ff1916600117905550565b6001600160801b031611612842575050565b6007019060ff19825416179055565b508587015460801c1515612770565b83810154929795969590928592905b808452848852818420805488108061291d575b1561290c578761289191612450565b9054828652858a52838620918b1b1c8552885281842097845b8c8b8b548310806128fd575b156128dd578291610ea1916128ce6128d8958f612450565b9054911b1c612a7e565b6128aa565b50505092966128f19194985094919461263c565b9591969293909361286f565b508d8a015460801c15156128b6565b50505097505094925092505061280c565b508a87015460801c1515612882565b634e487b7160e01b865260218452602486fd5b6001600160801b03918216908216039190821161264b57565b60005b83811061296b5750506000910152565b818101518382015260200161295b565b81601f820112156104ee578051612991816125a7565b9261299f6040519485612579565b818452602082840101116104ee576129bd9160208085019101612958565b90565b6020818303126104ee5780516001600160401b03918282116104ee5701906080828403126104ee576040519260808401848110838211176125475760405282518281116104ee5781612a1391850161297b565b845260208301519182116104ee57612a2c91830161297b565b6020830152604081015160ff811681036104ee576040830152612a519060600161259a565b606082015290565b90602091612a7281518092818552858086019101612958565b601f01601f1916010190565b916000918383526004908160205260409182852091808652838620600784019760ff895416612aac8161252a565b8015159081612df7575b50612dec57600782019260ff845416612ace8161252a565b8015159081612dd7575b50612dcb57848601938454608090811c9586158015612dbe575b612daf578b9c8791612b69612b498c9d9e9f6001600160801b036003612bfc9f8f8e019889548b1c808210600014612da557509d8e945b506006820154600682015411600014612d975750015460081c169b61293f565b82546001600160801b031660809190911b6001600160801b031916178255565b612b99612b79898554871c61293f565b84546001600160801b031660809190911b6001600160801b031916178455565b54831c612d8757805460ff191660011790555b54901c612d7757805460ff191660011790555b60018060a01b03918a8360075416612bda60028b01546133d4565b908b5180809b8194630cd5286d60e41b835260208d8401526024830190612a59565b03915afa968715612d6d578b97612d49575b5088516001600160801b0385811682528616602082015282907f7b1b2a1559ed07d112f716124d4bebd17c748499bc2cb362ae936b3ab3d8e7a49083908290604090a28a516001600160801b03878116825288166020820152604090a27fd34588c0db43b24e69928b335eeb37feae6514a4192141f0671b220c61118254612ca488518b51918291606083526060830190612a59565b966001600160801b03809116988960208401521696878d8301520390a36001816008541695519601541691843b15611fb5579780959381959360c093612d059a9b8a519b8c9889978896630671925360e01b885287015260c4860190612a59565b92602485015260448401526064830152600160848301528260a483015203925af1918215612d3f575050612d365750565b6126f890612534565b51903d90823e3d90fd5b612d669197503d808d833e612d5e8183612579565b8101906129c0565b9538612c0e565b89513d8d823e3d90fd5b805460ff19166002179055612bbf565b805460ff19166002179055612bac565b9050015460081c169b61293f565b90509d8e94612b29565b50505050505050505050915050565b5087860154821c15612af2565b50505050505050915050565b60029150612de48161252a565b141538612ad8565b505050505050915050565b60029150612e048161252a565b141538612ab6565b8054908115612e365760001991820191612e268383612450565b909182549160031b1b1916905555565b634e487b7160e01b600052603160045260246000fd5b60ff600582015416612e5d8161252a565b6130d7576003908181019182546001600160801b038160081c169060ff6000911690600291828110156130c3576130a557508084015460005260006020526040600020826000526020526040600020945b60005b86548082101561309957612ec58289612450565b905490871b1c875414612ee15750612edc9061263c565b612eb1565b9060009792939495969719820191821161264b576111a5612f05612f129385612450565b905490891b1c9184612450565b612f1b81612e0c565b5415612f29575b5050505050565b5460ff16818110156104f357612ffa5760005b81850180549081600052602090848252604092836000208054861015612feb57612f67868992612450565b9054908a1b1c14612f875750505050612f80829161263c565b9050612f3c565b919495509291959650806000528484528560002091825490600019820191821161264b57612fe198612fbf6111a593612fd496612450565b9054911b1c9260005286865287600020612450565b5460005252600020612e0c565b3880808080612f22565b50505050505050505050612fe1565b60009291925b81850180549081600052602090858252604092836000208054861015612feb5761302b868a92612450565b905490891b1c1461304857505050506130439061263c565b613000565b92965092965092508060005283835284600020908154600019810190811161264b576130949761307e6111a592612fd495612450565b905490881b1c9260005286865287600020612450565b612fe1565b50509091929394612f1b565b60409082860154815260016020528181208482526020522094612eae565b634e487b7160e01b82526021600452602482fd5b50565b9190916001600160801b038080941691160191821161264b57565b91906040928351906020928084840192833782019161312284826000958683820152038084520182612579565b519020918282526002908181528583208054156131ff5761314290612425565b969054600397881b1c948452838252808420858552825280842093809781958054965b8781106131815750505050505050506001600160801b03169190565b61318b8183612450565b905490841b1c8452600480875285852060ff6007820154166131ac8161252a565b8981159182156131eb575b50506131ce575b50506131c99061263c565b613165565b9b6131e3916131c9939d015460801c906130da565b9a90386131be565b9091506131f78161252a565b1489386131b7565b5050509250508190565b91906040928351906020928084840192833782019161323684826000958683820152038084520182612579565b519020918282526003948582528083208054156131ff5761325690612425565b905490871b1c93835260018252808320848452825280832092809681948054955b86811061329257505050505050506001600160801b03169190565b61329c8183612450565b905490841b1c8452600480875285852060ff6007820154166132bd8161252a565b80159081156132fa575b506132dd575b50506132d89061263c565b613277565b9a6132f2916132d8939c015460801c906130da565b9990386132cd565b600291506133078161252a565b14386132c7565b6001600160401b0381116125475760051b60200190565b9061332f8261330e565b61333c6040519182612579565b828152809261334d601f199161330e565b0190602036910137565b805182101561243a5760209160051b010190565b600061339f9160018060a01b03600754166040518080958194630cd5286d60e41b8352602060048401526024830190612a59565b03915afa90816133b9575b506133b457600090565b600190565b6133cd903d806000833e612d5e8183612579565b50386133aa565b60075460408051632acada4d60e01b815260009390929091908490849060049082906001600160a01b03165afa92831561356d5784936134b0575b50835b835181101561347857826134268286613357565b518351613450602082816134438183019687815193849201612958565b8101038084520182612579565b51902014613466576134619061263c565b613412565b929150506134749250613357565b5190565b5080519392506020840191506001600160401b0382118483101761349c5752815290565b634e487b7160e01b83526041600452602483fd5b9092503d8085833e6134c28183612579565b810160209081838203126135695782516001600160401b039384821161356557019080601f8301121561102a578151906134fb8261330e565b9461350888519687612579565b828652848087019360051b8501019382851161356157858101935b8585106135385750505050505050913861340f565b845183811161355d5787916135528684809487010161297b565b815201940193613523565b8b80fd5b8980fd5b8780fd5b8580fd5b81513d86823e3d90fdfec62e71ef51423511150932fbcdbeeb150efe96bf5c642779815b11a8212c2b05a2646970667358221220267b0ddd9b0f5b6678c432b09e7d4d1cee9d1bf497172cafe3d433ab9e87770b64736f6c63430008140033",
  "linkReferences": {},
  "deployedLinkReferences": {}
}