{
  "_format": "hh-sol-artifact-1",
  "contractName": "FeeDistributor",
  "sourceName": "contracts/FeeDistributor.sol",
  "abi": [
    {
      "inputs": [
        {
          "internalType": "address",
          "name": "_omniToken",
          "type": "address"
        },
        {
          "internalType": "address",
          "name": "_stakingContract",
          "type": "address"
        },
        {
          "internalType": "address",
          "name": "_treasury",
          "type": "address"
        },
        {
          "internalType": "address",
          "name": "_insuranceFund",
          "type": "address"
        },
        {
          "internalType": "address",
          "name": "admin",
          "type": "address"
        }
      ],
      "stateMutability": "nonpayable",
      "type": "constructor"
    },
    {
      "inputs": [],
      "name": "AccessControlBadConfirmation",
      "type": "error"
    },
    {
      "inputs": [
        {
          "internalType": "address",
          "name": "account",
          "type": "address"
        },
        {
          "internalType": "bytes32",
          "name": "neededRole",
          "type": "bytes32"
        }
      ],
      "name": "AccessControlUnauthorizedAccount",
      "type": "error"
    },
    {
      "anonymous": false,
      "inputs": [
        {
          "indexed": false,
          "internalType": "address",
          "name": "stakingContract",
          "type": "address"
        },
        {
          "indexed": false,
          "internalType": "address",
          "name": "treasury",
          "type": "address"
        },
        {
          "indexed": false,
          "internalType": "address",
          "name": "insuranceFund",
          "type": "address"
        }
      ],
      "name": "AddressesUpdated",
      "type": "event"
    },
    {
      "anonymous": false,
      "inputs": [
        {
          "indexed": false,
          "internalType": "uint256",
          "name": "stakingPercentage",
          "type": "uint256"
        },
        {
          "indexed": false,
          "internalType": "uint256",
          "name": "treasuryPercentage",
          "type": "uint256"
        },
        {
          "indexed": false,
          "internalType": "uint256",
          "name": "buybackBurnPercentage",
          "type": "uint256"
        },
        {
          "indexed": false,
          "internalType": "uint256",
          "name": "insuranceFundPercentage",
          "type": "uint256"
        }
      ],
      "name": "DistributionUpdated",
      "type": "event"
    },
    {
      "anonymous": false,
      "inputs": [
        {
          "indexed": false,
          "internalType": "uint256",
          "name": "amount",
          "type": "uint256"
        }
      ],
      "name": "FeesCollected",
      "type": "event"
    },
    {
      "anonymous": false,
      "inputs": [
        {
          "indexed": false,
          "internalType": "uint256",
          "name": "stakingAmount",
          "type": "uint256"
        },
        {
          "indexed": false,
          "internalType": "uint256",
          "name": "treasuryAmount",
          "type": "uint256"
        },
        {
          "indexed": false,
          "internalType": "uint256",
          "name": "buybackAmount",
          "type": "uint256"
        },
        {
          "indexed": false,
          "internalType": "uint256",
          "name": "insuranceFundAmount",
          "type": "uint256"
        }
      ],
      "name": "FeesDistributed",
      "type": "event"
    },
    {
      "anonymous": false,
      "inputs": [
        {
          "indexed": true,
          "internalType": "bytes32",
          "name": "role",
          "type": "bytes32"
        },
        {
          "indexed": true,
          "internalType": "bytes32",
          "name": "previousAdminRole",
          "type": "bytes32"
        },
        {
          "indexed": true,
          "internalType": "bytes32",
          "name": "newAdminRole",
          "type": "bytes32"
        }
      ],
      "name": "RoleAdminChanged",
      "type": "event"
    },
    {
      "anonymous": false,
      "inputs": [
        {
          "indexed": true,
          "internalType": "bytes32",
          "name": "role",
          "type": "bytes32"
        },
        {
          "indexed": true,
          "internalType": "address",
          "name": "account",
          "type": "address"
        },
        {
          "indexed": true,
          "internalType": "address",
          "name": "sender",
          "type": "address"
        }
      ],
      "name": "RoleGranted",
      "type": "event"
    },
    {
      "anonymous": false,
      "inputs": [
        {
          "indexed": true,
          "internalType": "bytes32",
          "name": "role",
          "type": "bytes32"
        },
        {
          "indexed": true,
          "internalType": "address",
          "name": "account",
          "type": "address"
        },
        {
          "indexed": true,
          "internalType": "address",
          "name": "sender",
          "type": "address"
        }
      ],
      "name": "RoleRevoked",
      "type": "event"
    },
    {
      "inputs": [],
      "name": "DEFAULT_ADMIN_ROLE",
      "outputs": [
        {
          "internalType": "bytes32",
          "name": "",
          "type": "bytes32"
        }
      ],
      "stateMutability": "view",
      "type": "function"
    },
    {
      "inputs": [],
      "name": "FEE_COLLECTOR_ROLE",
      "outputs": [
        {
          "internalType": "bytes32",
          "name": "",
          "type": "bytes32"
        }
      ],
      "stateMutability": "view",
      "type": "function"
    },
    {
      "inputs": [],
      "name": "buybackBurnPercentage",
      "outputs": [
        {
          "internalType": "uint256",
          "name": "",
          "type": "uint256"
        }
      ],
      "stateMutability": "view",
      "type": "function"
    },
    {
      "inputs": [],
      "name": "collectFees",
      "outputs": [],
      "stateMutability": "payable",
      "type": "function"
    },
    {
      "inputs": [],
      "name": "distributeFees",
      "outputs": [],
      "stateMutability": "nonpayable",
      "type": "function"
    },
    {
      "inputs": [
        {
          "internalType": "bytes32",
          "name": "role",
          "type": "bytes32"
        }
      ],
      "name": "getRoleAdmin",
      "outputs": [
        {
          "internalType": "bytes32",
          "name": "",
          "type": "bytes32"
        }
      ],
      "stateMutability": "view",
      "type": "function"
    },
    {
      "inputs": [
        {
          "internalType": "bytes32",
          "name": "role",
          "type": "bytes32"
        },
        {
          "internalType": "uint256",
          "name": "index",
          "type": "uint256"
        }
      ],
      "name": "getRoleMember",
      "outputs": [
        {
          "internalType": "address",
          "name": "",
          "type": "address"
        }
      ],
      "stateMutability": "view",
      "type": "function"
    },
    {
      "inputs": [
        {
          "internalType": "bytes32",
          "name": "role",
          "type": "bytes32"
        }
      ],
      "name": "getRoleMemberCount",
      "outputs": [
        {
          "internalType": "uint256",
          "name": "",
          "type": "uint256"
        }
      ],
      "stateMutability": "view",
      "type": "function"
    },
    {
      "inputs": [
        {
          "internalType": "bytes32",
          "name": "role",
          "type": "bytes32"
        }
      ],
      "name": "getRoleMembers",
      "outputs": [
        {
          "internalType": "address[]",
          "name": "",
          "type": "address[]"
        }
      ],
      "stateMutability": "view",
      "type": "function"
    },
    {
      "inputs": [
        {
          "internalType": "bytes32",
          "name": "role",
          "type": "bytes32"
        },
        {
          "internalType": "address",
          "name": "account",
          "type": "address"
        }
      ],
      "name": "grantRole",
      "outputs": [],
      "stateMutability": "nonpayable",
      "type": "function"
    },
    {
      "inputs": [
        {
          "internalType": "bytes32",
          "name": "role",
          "type": "bytes32"
        },
        {
          "internalType": "address",
          "name": "account",
          "type": "address"
        }
      ],
      "name": "hasRole",
      "outputs": [
        {
          "internalType": "bool",
          "name": "",
          "type": "bool"
        }
      ],
      "stateMutability": "view",
      "type": "function"
    },
    {
      "inputs": [],
      "name": "insuranceFund",
      "outputs": [
        {
          "internalType": "address",
          "name": "",
          "type": "address"
        }
      ],
      "stateMutability": "view",
      "type": "function"
    },
    {
      "inputs": [],
      "name": "insuranceFundPercentage",
      "outputs": [
        {
          "internalType": "uint256",
          "name": "",
          "type": "uint256"
        }
      ],
      "stateMutability": "view",
      "type": "function"
    },
    {
      "inputs": [],
      "name": "omniToken",
      "outputs": [
        {
          "internalType": "address",
          "name": "",
          "type": "address"
        }
      ],
      "stateMutability": "view",
      "type": "function"
    },
    {
      "inputs": [
        {
          "internalType": "bytes32",
          "name": "role",
          "type": "bytes32"
        },
        {
          "internalType": "address",
          "name": "callerConfirmation",
          "type": "address"
        }
      ],
      "name": "renounceRole",
      "outputs": [],
      "stateMutability": "nonpayable",
      "type": "function"
    },
    {
      "inputs": [
        {
          "internalType": "bytes32",
          "name": "role",
          "type": "bytes32"
        },
        {
          "internalType": "address",
          "name": "account",
          "type": "address"
        }
      ],
      "name": "revokeRole",
      "outputs": [],
      "stateMutability": "nonpayable",
      "type": "function"
    },
    {
      "inputs": [],
      "name": "stakingContract",
      "outputs": [
        {
          "internalType": "address",
          "name": "",
          "type": "address"
        }
      ],
      "stateMutability": "view",
      "type": "function"
    },
    {
      "inputs": [],
      "name": "stakingPercentage",
      "outputs": [
        {
          "internalType": "uint256",
          "name": "",
          "type": "uint256"
        }
      ],
      "stateMutability": "view",
      "type": "function"
    },
    {
      "inputs": [
        {
          "internalType": "bytes4",
          "name": "interfaceId",
          "type": "bytes4"
        }
      ],
      "name": "supportsInterface",
      "outputs": [
        {
          "internalType": "bool",
          "name": "",
          "type": "bool"
        }
      ],
      "stateMutability": "view",
      "type": "function"
    },
    {
      "inputs": [],
      "name": "totalBuybackBurned",
      "outputs": [
        {
          "internalType": "uint256",
          "name": "",
          "type": "uint256"
        }
      ],
      "stateMutability": "view",
      "type": "function"
    },
    {
      "inputs": [],
      "name": "totalFeesCollected",
      "outputs": [
        {
          "internalType": "uint256",
          "name": "",
          "type": "uint256"
        }
      ],
      "stateMutability": "view",
      "type": "function"
    },
    {
      "inputs": [],
      "name": "totalInsuranceFundDistributed",
      "outputs": [
        {
          "internalType": "uint256",
          "name": "",
          "type": "uint256"
        }
      ],
      "stateMutability": "view",
      "type": "function"
    },
    {
      "inputs": [],
      "name": "totalStakingDistributed",
      "outputs": [
        {
          "internalType": "uint256",
          "name": "",
          "type": "uint256"
        }
      ],
      "stateMutability": "view",
      "type": "function"
    },
    {
      "inputs": [],
      "name": "totalTreasuryDistributed",
      "outputs": [
        {
          "internalType": "uint256",
          "name": "",
          "type": "uint256"
        }
      ],
      "stateMutability": "view",
      "type": "function"
    },
    {
      "inputs": [],
      "name": "treasury",
      "outputs": [
        {
          "internalType": "address",
          "name": "",
          "type": "address"
        }
      ],
      "stateMutability": "view",
      "type": "function"
    },
    {
      "inputs": [],
      "name": "treasuryPercentage",
      "outputs": [
        {
          "internalType": "uint256",
          "name": "",
          "type": "uint256"
        }
      ],
      "stateMutability": "view",
      "type": "function"
    },
    {
      "inputs": [
        {
          "internalType": "address",
          "name": "_stakingContract",
          "type": "address"
        },
        {
          "internalType": "address",
          "name": "_treasury",
          "type": "address"
        },
        {
          "internalType": "address",
          "name": "_insuranceFund",
          "type": "address"
        }
      ],
      "name": "updateAddresses",
      "outputs": [],
      "stateMutability": "nonpayable",
      "type": "function"
    },
    {
      "inputs": [
        {
          "internalType": "uint256",
          "name": "_stakingPercentage",
          "type": "uint256"
        },
        {
          "internalType": "uint256",
          "name": "_treasuryPercentage",
          "type": "uint256"
        },
        {
          "internalType": "uint256",
          "name": "_buybackBurnPercentage",
          "type": "uint256"
        },
        {
          "internalType": "uint256",
          "name": "_insuranceFundPercentage",
          "type": "uint256"
        }
      ],
      "name": "updateDistribution",
      "outputs": [],
      "stateMutability": "nonpayable",
      "type": "function"
    },
    {
      "stateMutability": "payable",
      "type": "receive"
    }
  ],
  "bytecode": "0x6080346200029357601f6200173d38819003918201601f191683019291906001600160401b0384118385101762000298578160a0928492604096875283398101031262000293576200005181620002ae565b9060209162000062838301620002ae565b6200006f858401620002ae565b906200008c60806200008460608701620002ae565b9501620002ae565b6113886006556107d060078190556103e8600855600955936001600160a01b039384169182156200024f5784169283156200020d578416908115620001c9578416928315620001855760018060a01b03199283600254161760025582600354161760035581600454161760045560055416176005556200010c82620002c3565b62000164575b6200011d8262000343565b62000132575b835161129b9081620004628239f35b60016200015a936000805160206200171d8339815191526000525283600020911690620003d4565b5038808062000123565b60008052600183526200017e8460002082841690620003d4565b5062000112565b875162461bcd60e51b815260048101889052601e60248201527f496e76616c696420696e737572616e63652066756e64206164647265737300006044820152606490fd5b875162461bcd60e51b815260048101889052601860248201527f496e76616c6964207472656173757279206164647265737300000000000000006044820152606490fd5b60648789519062461bcd60e51b825280600483015260248201527f496e76616c6964207374616b696e6720636f6e747261637420616464726573736044820152fd5b875162461bcd60e51b815260048101889052601960248201527f496e76616c6964204f4d4e20746f6b656e2061646472657373000000000000006044820152606490fd5b600080fd5b634e487b7160e01b600052604160045260246000fd5b51906001600160a01b03821682036200029357565b6001600160a01b031660008181527fad3228b676f7d3cd4284a5443f17f1962b36e491b30a40b2405849e597ba5fb5602052604081205490919060ff166200033f57818052816020526040822081835260205260408220600160ff198254161790553391600080516020620016fd8339815191528180a4600190565b5090565b6001600160a01b031660008181527f92227d48d66cabccdfe59bda1e8cb95f286820615128bd3f8666d1f5ec8b70aa60205260408120549091906000805160206200171d8339815191529060ff16620003cf57808352826020526040832082845260205260408320600160ff19825416179055600080516020620016fd833981519152339380a4600190565b505090565b919060018301600090828252806020526040822054156000146200045b57845494680100000000000000008610156200044757600186018082558610156200043357836040949596828552602085200155549382526020522055600190565b634e487b7160e01b83526032600452602483fd5b634e487b7160e01b83526041600452602483fd5b5092505056fe60806040908082526004908136101561005a575b5050361561002057600080fd5b60207f860c0aa5520013080c2f65981705fcdea474d9f7c3daf954656ed5e65d692d1f9161005034600a54611193565b600a5551348152a1005b600091823560e01c9182630186f8a414610dc75750816301ffc9a714610d535781630967a77114610d34578163248a9ca314610d095781632f2ff15d14610c9d578163334c143914610b0857816336568abe14610ac257816355857c2714610aa357816360c6d8ae14610a8457816361d027b314610a5b57816362a2a47c14610a2057816369ee19af14610a015781637ab56083146109e257816381e1ccba146109c35781639010d07c1461098157816391d148541461093a578163938a8bca1461091b57816394684e7e146108fc578163a154668714610818578163a217fddf146107fd578163a3246ad314610759578163b790230314610730578163bb57ad2014610335578163c879657214610255578163c93d0ece14610236578163ca15c8731461020d578163d547741f146101ca575063ee99205c1461019e5780610013565b90346101c657816003193601126101c65760035490516001600160a01b039091168152602090f35b5080fd5b90508234610209578060031936011261020957610205913561020060016101ef610dec565b938387528660205286200154610e5f565b610f03565b5080f35b8280fd5b839150346102095760203660031901126102095760209282913581526001845220549051908152f35b8284346101c657816003193601126101c657602090600d549051908152f35b83915082600319360112610209577f2dca0f5ce7e75a4b43fe2b0d6f5d0b7a2bf92ecf89f8f0aa17b8308b670388218084528360205282842033855260205260ff83852054161561031a575034156102e3575060207f860c0aa5520013080c2f65981705fcdea474d9f7c3daf954656ed5e65d692d1f916102d834600a54611193565b600a5551348152a180f35b6020606492519162461bcd60e51b83528201526012602482015271139bc81999595cc81d1bc818dbdb1b1958dd60721b6044820152fd5b604492519163e2517d3f60e01b835233908301526024820152fd5b8284346101c657816003193601126101c6574780156106f557612710918261035f600654846111b6565b04918361036e600754836111b6565b049361038b81610380600854856111b6565b0492600954906111b6565b04918361067f575b8461060a575b82610589575b811580156103f3575b50519283526020830193909352604082019290925260608101919091527f78490b24a020086d2701460dc169a540280c517bef9cdcd742f751a9099922a39080608081015b0390a180f35b8680526020906001825282882080541561057657885260018060a01b039182818a20541692600a860292868404600a141715610563579285949392828b9c858d7f78490b24a020086d2701460dc169a540280c517bef9cdcd742f751a9099922a39e966103ed9c9b986002541660648b51809481936323b872dd60e01b83528b898401523060248401528a60448401525af19081610546575b506104b8575050505081806104ad9481935af16104a76111c9565b50611221565b9091928796506103a8565b60448392878093600254168b51978895869463a9059cbb60e01b865285015260248401525af19182610518575b50506105025781806104fd9481935af16104a76111c9565b6104ad565b505061051090600d54611193565b600d556104ad565b8161053792903d1061053f575b61052f818361115b565b810190611209565b508c806104e5565b503d610525565b61055c90853d871161053f5761052f818361115b565b503861048c565b634e487b7160e01b8a5260118b5260248afd5b634e487b7160e01b895260328a52602489fd5b858080808660018060a01b03600554165af16105a36111c9565b50156105bd576105b583600e54611193565b600e5561039f565b5162461bcd60e51b8152602081880152602260248201527f496e737572616e63652066756e6420646973747269627574696f6e206661696c604482015261195960f21b6064820152608490fd5b858080808860018060a01b038c54165af16106236111c9565b501561063d5761063585600c54611193565b600c55610399565b5162461bcd60e51b8152602081880152601c60248201527f547265617375727920646973747269627574696f6e206661696c6564000000006044820152606490fd5b858080808760018060a01b03600354165af16106996111c9565b50156106b3576106ab84600b54611193565b600b55610393565b5162461bcd60e51b8152602081880152601b60248201527f5374616b696e6720646973747269627574696f6e206661696c656400000000006044820152606490fd5b815162461bcd60e51b815260208186015260156024820152744e6f206665657320746f206469737472696275746560581b6044820152606490fd5b8284346101c657816003193601126101c65760055490516001600160a01b039091168152602090f35b8391503461020957602090816003193601126107f9573583526001808252828420835181548082529186528386208185019693949192879190855b8181106107e657505050826107aa91038361115b565b8451948186019282875251809352850195925b8281106107ca5785870386f35b83516001600160a01b03168752958101959281019284016107bd565b8254845292840192918701918701610794565b8380fd5b8284346101c657816003193601126101c65751908152602090f35b9050346101c65760803660031901126101c65780356024359160443560643591610840610e07565b61271061085a84610855856108558a8a611193565b611193565b036108b95750906103ed917f8adead107ba13fae1b5f36d9fa779c58b2bf71aab754388ad1feb3f6427fbd6795968460065585600755816008558260095551948594859094939260609260808301968352602083015260408201520152565b606490602088519162461bcd60e51b8352820152601f60248201527f50657263656e7461676573206d7573742061646420757020746f2031303025006044820152fd5b8284346101c657816003193601126101c657602090600b549051908152f35b8284346101c657816003193601126101c657602090600c549051908152f35b839150346102095781600319360112610209578160209360ff9261095c610dec565b903582528186528282206001600160a01b039091168252855220549151911615158152f35b839150346102095781600319360112610209576020926109ad9135815260018452826024359120610fb3565b905491519160018060a01b039160031b1c168152f35b8284346101c657816003193601126101c6576020906006549051908152f35b8284346101c657816003193601126101c6576020906007549051908152f35b8284346101c657816003193601126101c6576020906008549051908152f35b8284346101c657816003193601126101c657602090517f2dca0f5ce7e75a4b43fe2b0d6f5d0b7a2bf92ecf89f8f0aa17b8308b670388218152f35b839150346102095782600319360112610209575490516001600160a01b03909116815260209150f35b8284346101c657816003193601126101c657602090600a549051908152f35b8284346101c657816003193601126101c657602090600e549051908152f35b8284346101c657806003193601126101c657610adc610dec565b90336001600160a01b03831603610af95750610205919235610f03565b5163334bd91960e11b81528390fd5b83915034610209576060366003190112610209576001600160a01b03813581811693919290849003610c9957610b3c610dec565b9260443593818516809503610c9557610b53610e07565b8515610c525716908115610c0f578315610bcc579183916060947f97a48c4be738bdf3e84e8f3927df6d4e52ccc94c58e96a666faca603e456d49096946bffffffffffffffffffffffff60a01b90868260035416176003558382825416179055600554161760055581519384526020840152820152a180f35b606490602084519162461bcd60e51b8352820152601e60248201527f496e76616c696420696e737572616e63652066756e64206164647265737300006044820152fd5b606490602084519162461bcd60e51b8352820152601860248201527f496e76616c6964207472656173757279206164647265737300000000000000006044820152fd5b835162461bcd60e51b8152602081850181905260248201527f496e76616c6964207374616b696e6720636f6e747261637420616464726573736044820152606490fd5b8680fd5b8480fd5b839150346102095781600319360112610209573590610cba610dec565b9082845283602052610cd160018286200154610e5f565b610cdb8284610e85565b610ce3578380f35b9183526001602052908220610d01916001600160a01b031690610fe1565b508180808380f35b8391503461020957602036600319011261020957816020936001923581528085522001549051908152f35b8284346101c657816003193601126101c6576020906009549051908152f35b8391503461020957602036600319011261020957359063ffffffff60e01b82168092036102095760209250635a05180f60e01b8214918215610d99575b50519015158152f35b909150637965db0b60e01b8114908115610db6575b509083610d90565b6301ffc9a760e01b14905083610dae565b8390346101c657816003193601126101c6576002546001600160a01b03168152602090f35b602435906001600160a01b0382168203610e0257565b600080fd5b3360009081527fad3228b676f7d3cd4284a5443f17f1962b36e491b30a40b2405849e597ba5fb5602052604081205460ff1615610e415750565b6044906040519063e2517d3f60e01b82523360048301526024820152fd5b80600052600060205260406000203360005260205260ff6040600020541615610e415750565b9060009180835282602052604083209160018060a01b03169182845260205260ff60408420541615600014610efe57808352826020526040832082845260205260408320600160ff198254161790557f2f8788117e7eff1d82e926ec794901d17c78024a50270940304540a733656f0d339380a4600190565b505090565b610f0d8282610f3e565b9182610f1857505090565b600091825260016020526040909120610f3a916001600160a01b03169061106b565b5090565b9060009180835282602052604083209160018060a01b03169182845260205260ff604084205416600014610efe5780835282602052604083208284526020526040832060ff1981541690557ff6391f5c32d9c69d2a47ea670b442974b53935d1edc7fd64eb21e047a839171b339380a4600190565b8054821015610fcb5760005260206000200190600090565b634e487b7160e01b600052603260045260246000fd5b919060018301600090828252806020526040822054156000146110655784549468010000000000000000861015611051578361104161102a886001604098999a01855584610fb3565b819391549060031b91821b91600019901b19161790565b9055549382526020522055600190565b634e487b7160e01b83526041600452602483fd5b50925050565b9060018201906000928184528260205260408420549081151560001461115457600019918083018181116111405782549084820191821161112c578181036110f7575b505050805480156110e3578201916110c68383610fb3565b909182549160031b1b191690555582526020526040812055600190565b634e487b7160e01b86526031600452602486fd5b61111761110761102a9386610fb3565b90549060031b1c92839286610fb3565b905586528460205260408620553880806110ae565b634e487b7160e01b88526011600452602488fd5b634e487b7160e01b87526011600452602487fd5b5050505090565b90601f8019910116810190811067ffffffffffffffff82111761117d57604052565b634e487b7160e01b600052604160045260246000fd5b919082018092116111a057565b634e487b7160e01b600052601160045260246000fd5b818102929181159184041417156111a057565b3d15611204573d9067ffffffffffffffff821161117d57604051916111f8601f8201601f19166020018461115b565b82523d6000602084013e565b606090565b90816020910312610e0257518015158103610e025790565b1561122857565b60405162461bcd60e51b815260206004820152601560248201527410591b5a5b881d1c985b9cd9995c8819985a5b1959605a1b6044820152606490fdfea2646970667358221220d9eceb746282fe34ac7de3076981b35247a2d0c1bcdccd7299c28402a5b9521364736f6c634300081400332f8788117e7eff1d82e926ec794901d17c78024a50270940304540a733656f0d2dca0f5ce7e75a4b43fe2b0d6f5d0b7a2bf92ecf89f8f0aa17b8308b67038821",
  "linkReferences": {},
  "deployedLinkReferences": {}
}