{
  "_format": "hh-sol-artifact-1",
  "contractName": "TokenManager",
  "sourceName": "contracts/TokenManager.sol",
  "abi": [
    {
      "inputs": [
        {
          "internalType": "address",
          "name": "_assetRegistry",
          "type": "address"
        }
      ],
      "stateMutability": "nonpayable",
      "type": "constructor"
    },
    {
      "inputs": [],
      "name": "AddressNotAllowed",
      "type": "error"
    },
    {
      "inputs": [],
      "name": "InsufficientBalance",
      "type": "error"
    },
    {
      "inputs": [],
      "name": "InvalidAddress",
      "type": "error"
    },
    {
      "inputs": [],
      "name": "InvalidToken",
      "type": "error"
    },
    {
      "inputs": [],
      "name": "ReentrancyGuardReentrantCall",
      "type": "error"
    },
    {
      "inputs": [],
      "name": "TokenDisabled",
      "type": "error"
    },
    {
      "inputs": [],
      "name": "TokenNotSynthetic",
      "type": "error"
    },
    {
      "inputs": [],
      "name": "Unauthorized",
      "type": "error"
    },
    {
      "anonymous": false,
      "inputs": [
        {
          "indexed": false,
          "internalType": "string",
          "name": "symbol",
          "type": "string"
        },
        {
          "indexed": true,
          "internalType": "address",
          "name": "account",
          "type": "address"
        }
      ],
      "name": "AddressAllowedForToken",
      "type": "event"
    },
    {
      "anonymous": false,
      "inputs": [
        {
          "indexed": false,
          "internalType": "string",
          "name": "symbol",
          "type": "string"
        },
        {
          "indexed": true,
          "internalType": "address",
          "name": "account",
          "type": "address"
        }
      ],
      "name": "AddressDisallowedForToken",
      "type": "event"
    },
    {
      "anonymous": false,
      "inputs": [
        {
          "indexed": false,
          "internalType": "string",
          "name": "symbol",
          "type": "string"
        },
        {
          "indexed": false,
          "internalType": "bool",
          "name": "isActive",
          "type": "bool"
        }
      ],
      "name": "AllowListStatusChanged",
      "type": "event"
    },
    {
      "anonymous": false,
      "inputs": [
        {
          "indexed": false,
          "internalType": "string",
          "name": "symbol",
          "type": "string"
        },
        {
          "indexed": true,
          "internalType": "address",
          "name": "holder",
          "type": "address"
        },
        {
          "indexed": false,
          "internalType": "uint256",
          "name": "newBalance",
          "type": "uint256"
        }
      ],
      "name": "NativeTokenBalanceUpdated",
      "type": "event"
    },
    {
      "anonymous": false,
      "inputs": [
        {
          "indexed": true,
          "internalType": "address",
          "name": "operator",
          "type": "address"
        }
      ],
      "name": "OperatorAdded",
      "type": "event"
    },
    {
      "anonymous": false,
      "inputs": [
        {
          "indexed": true,
          "internalType": "address",
          "name": "operator",
          "type": "address"
        }
      ],
      "name": "OperatorRemoved",
      "type": "event"
    },
    {
      "anonymous": false,
      "inputs": [
        {
          "indexed": true,
          "internalType": "address",
          "name": "previousOwner",
          "type": "address"
        },
        {
          "indexed": true,
          "internalType": "address",
          "name": "newOwner",
          "type": "address"
        }
      ],
      "name": "OwnershipTransferred",
      "type": "event"
    },
    {
      "anonymous": false,
      "inputs": [
        {
          "indexed": false,
          "internalType": "string",
          "name": "symbol",
          "type": "string"
        },
        {
          "indexed": true,
          "internalType": "address",
          "name": "from",
          "type": "address"
        },
        {
          "indexed": false,
          "internalType": "uint256",
          "name": "amount",
          "type": "uint256"
        }
      ],
      "name": "SyntheticTokenBurned",
      "type": "event"
    },
    {
      "anonymous": false,
      "inputs": [
        {
          "indexed": false,
          "internalType": "string",
          "name": "symbol",
          "type": "string"
        },
        {
          "indexed": true,
          "internalType": "address",
          "name": "to",
          "type": "address"
        },
        {
          "indexed": false,
          "internalType": "uint256",
          "name": "amount",
          "type": "uint256"
        }
      ],
      "name": "SyntheticTokenMinted",
      "type": "event"
    },
    {
      "anonymous": false,
      "inputs": [
        {
          "indexed": false,
          "internalType": "string",
          "name": "symbol",
          "type": "string"
        },
        {
          "indexed": false,
          "internalType": "address",
          "name": "tokenAddress",
          "type": "address"
        },
        {
          "indexed": false,
          "internalType": "bool",
          "name": "isSynthetic",
          "type": "bool"
        },
        {
          "indexed": false,
          "internalType": "uint8",
          "name": "decimals",
          "type": "uint8"
        }
      ],
      "name": "TokenRegistered",
      "type": "event"
    },
    {
      "anonymous": false,
      "inputs": [
        {
          "indexed": false,
          "internalType": "string",
          "name": "symbol",
          "type": "string"
        },
        {
          "indexed": false,
          "internalType": "bool",
          "name": "isEnabled",
          "type": "bool"
        }
      ],
      "name": "TokenStatusChanged",
      "type": "event"
    },
    {
      "anonymous": false,
      "inputs": [
        {
          "indexed": false,
          "internalType": "string",
          "name": "symbol",
          "type": "string"
        },
        {
          "indexed": true,
          "internalType": "address",
          "name": "from",
          "type": "address"
        },
        {
          "indexed": true,
          "internalType": "address",
          "name": "to",
          "type": "address"
        },
        {
          "indexed": false,
          "internalType": "uint256",
          "name": "amount",
          "type": "uint256"
        }
      ],
      "name": "TokenTransferred",
      "type": "event"
    },
    {
      "inputs": [
        {
          "internalType": "address",
          "name": "operator",
          "type": "address"
        }
      ],
      "name": "addOperator",
      "outputs": [],
      "stateMutability": "nonpayable",
      "type": "function"
    },
    {
      "inputs": [
        {
          "internalType": "string",
          "name": "symbol",
          "type": "string"
        },
        {
          "internalType": "address",
          "name": "account",
          "type": "address"
        }
      ],
      "name": "addToAllowList",
      "outputs": [],
      "stateMutability": "nonpayable",
      "type": "function"
    },
    {
      "inputs": [
        {
          "internalType": "address",
          "name": "",
          "type": "address"
        }
      ],
      "name": "assetOperators",
      "outputs": [
        {
          "internalType": "bool",
          "name": "",
          "type": "bool"
        }
      ],
      "stateMutability": "view",
      "type": "function"
    },
    {
      "inputs": [],
      "name": "assetRegistry",
      "outputs": [
        {
          "internalType": "contract AssetRegistry",
          "name": "",
          "type": "address"
        }
      ],
      "stateMutability": "view",
      "type": "function"
    },
    {
      "inputs": [
        {
          "internalType": "string",
          "name": "symbol",
          "type": "string"
        },
        {
          "internalType": "address",
          "name": "from",
          "type": "address"
        },
        {
          "internalType": "uint256",
          "name": "amount",
          "type": "uint256"
        }
      ],
      "name": "burnSyntheticToken",
      "outputs": [],
      "stateMutability": "nonpayable",
      "type": "function"
    },
    {
      "inputs": [
        {
          "internalType": "string",
          "name": "symbol",
          "type": "string"
        },
        {
          "internalType": "address",
          "name": "user",
          "type": "address"
        }
      ],
      "name": "getNativeTokenBalance",
      "outputs": [
        {
          "internalType": "uint256",
          "name": "",
          "type": "uint256"
        }
      ],
      "stateMutability": "view",
      "type": "function"
    },
    {
      "inputs": [
        {
          "internalType": "string",
          "name": "symbol",
          "type": "string"
        },
        {
          "internalType": "address",
          "name": "user",
          "type": "address"
        }
      ],
      "name": "getSyntheticTokenBalance",
      "outputs": [
        {
          "internalType": "uint256",
          "name": "",
          "type": "uint256"
        }
      ],
      "stateMutability": "view",
      "type": "function"
    },
    {
      "inputs": [
        {
          "internalType": "string",
          "name": "symbol",
          "type": "string"
        }
      ],
      "name": "getSyntheticTokenTotalSupply",
      "outputs": [
        {
          "internalType": "uint256",
          "name": "",
          "type": "uint256"
        }
      ],
      "stateMutability": "view",
      "type": "function"
    },
    {
      "inputs": [
        {
          "internalType": "string",
          "name": "symbol",
          "type": "string"
        }
      ],
      "name": "getTokenInfo",
      "outputs": [
        {
          "internalType": "address",
          "name": "tokenAddress",
          "type": "address"
        },
        {
          "internalType": "bool",
          "name": "isSynthetic",
          "type": "bool"
        },
        {
          "internalType": "bool",
          "name": "isEnabled",
          "type": "bool"
        },
        {
          "internalType": "uint8",
          "name": "decimals",
          "type": "uint8"
        }
      ],
      "stateMutability": "view",
      "type": "function"
    },
    {
      "inputs": [
        {
          "internalType": "string",
          "name": "symbol",
          "type": "string"
        }
      ],
      "name": "hasActiveAllowList",
      "outputs": [
        {
          "internalType": "bool",
          "name": "",
          "type": "bool"
        }
      ],
      "stateMutability": "view",
      "type": "function"
    },
    {
      "inputs": [
        {
          "internalType": "string",
          "name": "symbol",
          "type": "string"
        },
        {
          "internalType": "address",
          "name": "account",
          "type": "address"
        }
      ],
      "name": "isAllowed",
      "outputs": [
        {
          "internalType": "bool",
          "name": "",
          "type": "bool"
        }
      ],
      "stateMutability": "view",
      "type": "function"
    },
    {
      "inputs": [
        {
          "internalType": "string",
          "name": "symbol",
          "type": "string"
        }
      ],
      "name": "isSyntheticToken",
      "outputs": [
        {
          "internalType": "bool",
          "name": "",
          "type": "bool"
        }
      ],
      "stateMutability": "view",
      "type": "function"
    },
    {
      "inputs": [
        {
          "internalType": "string",
          "name": "symbol",
          "type": "string"
        },
        {
          "internalType": "address",
          "name": "to",
          "type": "address"
        },
        {
          "internalType": "uint256",
          "name": "amount",
          "type": "uint256"
        }
      ],
      "name": "mintSyntheticToken",
      "outputs": [],
      "stateMutability": "nonpayable",
      "type": "function"
    },
    {
      "inputs": [],
      "name": "owner",
      "outputs": [
        {
          "internalType": "address",
          "name": "",
          "type": "address"
        }
      ],
      "stateMutability": "view",
      "type": "function"
    },
    {
      "inputs": [
        {
          "internalType": "string",
          "name": "symbol",
          "type": "string"
        },
        {
          "internalType": "address",
          "name": "tokenAddress",
          "type": "address"
        },
        {
          "internalType": "uint8",
          "name": "decimals",
          "type": "uint8"
        }
      ],
      "name": "registerNativeToken",
      "outputs": [],
      "stateMutability": "nonpayable",
      "type": "function"
    },
    {
      "inputs": [
        {
          "internalType": "string",
          "name": "symbol",
          "type": "string"
        },
        {
          "internalType": "uint8",
          "name": "decimals",
          "type": "uint8"
        }
      ],
      "name": "registerSyntheticToken",
      "outputs": [],
      "stateMutability": "nonpayable",
      "type": "function"
    },
    {
      "inputs": [
        {
          "internalType": "string",
          "name": "symbol",
          "type": "string"
        },
        {
          "internalType": "address",
          "name": "account",
          "type": "address"
        }
      ],
      "name": "removeFromAllowList",
      "outputs": [],
      "stateMutability": "nonpayable",
      "type": "function"
    },
    {
      "inputs": [
        {
          "internalType": "address",
          "name": "operator",
          "type": "address"
        }
      ],
      "name": "removeOperator",
      "outputs": [],
      "stateMutability": "nonpayable",
      "type": "function"
    },
    {
      "inputs": [
        {
          "internalType": "string",
          "name": "symbol",
          "type": "string"
        },
        {
          "internalType": "bool",
          "name": "isActive",
          "type": "bool"
        }
      ],
      "name": "setAllowListActive",
      "outputs": [],
      "stateMutability": "nonpayable",
      "type": "function"
    },
    {
      "inputs": [
        {
          "internalType": "string",
          "name": "symbol",
          "type": "string"
        },
        {
          "internalType": "bool",
          "name": "isEnabled",
          "type": "bool"
        }
      ],
      "name": "setTokenEnabled",
      "outputs": [],
      "stateMutability": "nonpayable",
      "type": "function"
    },
    {
      "inputs": [
        {
          "internalType": "address",
          "name": "newOwner",
          "type": "address"
        }
      ],
      "name": "transferOwnership",
      "outputs": [],
      "stateMutability": "nonpayable",
      "type": "function"
    },
    {
      "inputs": [
        {
          "internalType": "string",
          "name": "symbol",
          "type": "string"
        },
        {
          "internalType": "address",
          "name": "from",
          "type": "address"
        },
        {
          "internalType": "address",
          "name": "to",
          "type": "address"
        },
        {
          "internalType": "uint256",
          "name": "amount",
          "type": "uint256"
        }
      ],
      "name": "transferSyntheticToken",
      "outputs": [],
      "stateMutability": "nonpayable",
      "type": "function"
    },
    {
      "inputs": [
        {
          "internalType": "string",
          "name": "symbol",
          "type": "string"
        },
        {
          "internalType": "address",
          "name": "holder",
          "type": "address"
        },
        {
          "internalType": "uint256",
          "name": "balance",
          "type": "uint256"
        }
      ],
      "name": "updateNativeTokenBalance",
      "outputs": [],
      "stateMutability": "nonpayable",
      "type": "function"
    }
  ],
  "bytecode": "0x6080346100e557601f6116bd38819003918201601f19168301916001600160401b038311848410176100ea578084926020946040528339810103126100e557516001600160a01b038116908190036100e557600160005580156100a05760018060a01b031990816002541617600255339060015416176001553360005260056020526040600020600160ff198254161790556040516115bc90816101018239f35b60405162461bcd60e51b815260206004820152601e60248201527f496e76616c6964206173736574207265676973747279206164647265737300006044820152606490fd5b600080fd5b634e487b7160e01b600052604160045260246000fdfe608060408181526004918236101561001657600080fd5b600090813560e01c9081631bf974e91461117c575080632f963a48146110ef5780633f17e3e9146110175780635a48fba814610f295780636ca014e714610eba57806379f6909e14610e9557806387d6e07614610d845780638da5cb5b14610d5b5780638e0ad1cc14610cba5780639111271414610b68578063979d7e8614610b3f5780639870d7fe14610aad578063aaa8f60714610a6f578063ac8a584a146109f6578063adf4081d14610924578063b840361014610894578063ba4d6e1c14610774578063d32ab2ff1461053d578063dc059e0e146103ff578063ea50fa311461030a578063ef69f16214610226578063f2fde38b146101965763f3cdcc451461012157600080fd5b34610193576020928360031936011261018f57803567ffffffffffffffff811161018b5791839161015760ff94369083016112f9565b6101788886518381948383019687378101878382015203808452018261141e565b5190208252855220541690519015158152f35b8280fd5b5080fd5b80fd5b50913461018b57602036600319011261018b576101b161132c565b600154916001600160a01b038084169233849003610217571693841561020a57505082907f8be0079c531659141344cd1fd0a4f28419497f9722a3daafe3b4186f6b6457e08580a36001600160a01b0319161760015580f35b5163e6c4247b60e01b8152fd5b85516282b42960e81b81528390fd5b50903461018f576102363661139f565b600154909391926001600160a01b03929091831633036102fc57805192602093848101908685833761027686828981018c8382015203808452018261141e565b5190208088526003855260ff8389205460b01c16156102ec579087986102e69493927f36eea6e9972445f557d9a1dede66e5a5c24d7f72b4da1d2a199f60c4345366e698995285526001828a2001971696878952845280882060ff19815416905551938385948552840191611456565b0390a280f35b825163c1ab6dc160e01b81528990fd5b516282b42960e81b81528690fd5b50903461018f5761031a3661139f565b600154929391926001600160a01b039190821633036103f057169283156103e057815191602092838101908584833761036185828881018b8382015203808452018261141e565b5190208087526003845260ff8288205460b01c16156103d0579086976102e693927f1528c78cfe5fe76c7128357dadd49e95b476cdecd0c7d5ba51f5830e9e11284d97985284526001818920018789528452808820600160ff1982541617905551938385948552840191611456565b815163c1ab6dc160e01b81528890fd5b815163e6c4247b60e01b81528690fd5b82516282b42960e81b81528790fd5b50823461018f57606036600319011261018f57803567ffffffffffffffff811161018b5761043090369083016112f9565b909161043a611342565b60443560ff811691828203610539576001546001600160a01b0391908216330361052a571692831561051c575094866104f27fd7c2a8f231f7c612ec20cc728dde90317583a2f3b10d50e4569603e53bb00035978399516020810190888a83376104b36020828b8101898382015203808452018261141e565b51902084526003602052828420805460ff60b01b196001600160b01b0319919091168817600160a81b171660b09290921b60ff60b01b16919091179055565b6105088151968796608088526080880191611456565b93602086015284015260608301520390a180f35b875163e6c4247b60e01b8152fd5b88516282b42960e81b81528590fd5b8680fd5b50823461018f57608036600319011261018f57803567ffffffffffffffff811161018b5761056e90369083016112f9565b610579949194611342565b6001600160a01b0360443581811695919492908681036107705785606435926105a0611556565b169586158015610768575b61075857821561074857863314159081610739575b5080610723575b6107145783519260209384810190878c83376105f286828d8b8201908382015203808452018261141e565b51902091828a526003855260ff868b205460a01c161561070557828a526003855260ff868b205460a81c16156106f657828a52600385526002868b2001888b52855283868b2054106106e75761064990878c611498565b156106d957508798816106cb927fd5b9d748f7b0a6b7f8e5110400477d6eefd0d79e891f6ea22dc28d97aa76238e98999a52600385526002868c2001898c528552858b20610698858254611579565b90558a52600384526002858b2001898b528452848a206106b9848254611533565b90558451958587968752860191611456565b918301520390a36001815580f35b84516315a9bc2760e11b8152fd5b508451631e9acf1760e31b8152fd5b508451631931ea8560e01b8152fd5b50845163403a7bd960e11b8152fd5b83516282b42960e81b81528390fd5b50338852600560205260ff8489205416156105c7565b9050600154163314158a6105c0565b845163c1ab6dc160e01b81528490fd5b845163e6c4247b60e01b81528490fd5b5087156105ab565b8780fd5b50823461018f5761078436611358565b959192953386526020916005835260ff8488205416158061087f575b610870576001600160a01b031694851561086257835183810190868a83376107d685828981018c8382015203808452018261141e565b5190208088526003845260ff8589205460a01c166108535787526003835260ff8488205460a81c1615610845575061083b7fa2dc51a9c4a040d6c9cc385e590b23c6f2744a83c07bb0384a59713f79f24ec59596978451958587968752860191611456565b918301520390a280f35b8351631931ea8560e01b8152fd5b50835163403a7bd960e11b8152fd5b835163e6c4247b60e01b8152fd5b83516282b42960e81b81528690fd5b506001546001600160a01b03163314156107a0565b5034610193576020928360031936011261018f57803567ffffffffffffffff811161018b576108c690369083016112f9565b6108e78686518381948383019687378101878382015203808452018261141e565b519020908183526003855260ff8484205460a01c16156109165750815260038352819020600101549051908152f35b835163403a7bd960e11b8152fd5b50903461018f57610934366113e2565b600154919390916001600160a01b031633036109e857805160208101908585833761096e6020828881018a8382015203808452018261141e565b519020808652600360205260ff8287205460b01c16156109d8579085966109d293927fe3abce8901e73e2bb531d55817d0ad7b79a455eeceaf7a00a7785d012005585d975260205280872060ff1981541660ff841515161790555193849384611477565b0390a180f35b815163c1ab6dc160e01b81528790fd5b516282b42960e81b81528590fd5b50913461018b57602036600319011261018b57610a1161132c565b6001546001600160a01b03929083163303610a625750168083526005602052908220805460ff191690557f80c0b871b97b595b16a7741c1b06fed0c6f6f558639f18ccbce50724325dc40d8280a280f35b83516282b42960e81b8152fd5b50903461018f57602036600319011261018f5760209160ff9082906001600160a01b03610a9a61132c565b1681526005855220541690519015158152f35b5091903461018b57602036600319011261018b57610ac961132c565b6001546001600160a01b03919082163303610b315716918215610b23575081835260056020528220805460ff191660011790557fac6fa858e9350a46cec16539926e0fde25b7629f84b5a72bffaae4df888ae86d8280a280f35b905163e6c4247b60e01b8152fd5b5050516282b42960e81b8152fd5b50903461018f578160031936011261018f5760025490516001600160a01b039091168152602090f35b50823461018f57610b7836611358565b959192953386526020916005835260ff84882054161580610ca5575b61087057610ba0611556565b6001600160a01b038116958615610c97578215610c8957845184810190878b8337610bd986828a81018d8382015203808452018261141e565b519020918289526003855260ff868a205460a01c1615610705578289526003855260ff868a205460a81c16156106f657610c1490878b611498565b156106d95750869781610c7b927f70791ac5b2937fb8919b545c2d092171dc4038d13d4e81a6d1f2900d7b15bea5989952600385526002868b2001898b528552858a20610c62858254611533565b90558952600384526001858a20016106b9848254611533565b918301520390a26001815580f35b845163c1ab6dc160e01b8152fd5b845163e6c4247b60e01b8152fd5b506001546001600160a01b0316331415610b94565b5091903461018b5760209182600319360112610d5757803567ffffffffffffffff8111610d535791608094610cf5829360ff953691016112f9565b610d168785518381948383019687378101868382015203808452018261141e565b51902081526003855220549080519360018060a01b0383168552838360a01c16151590850152828260a81c1615159084015260b01c166060820152f35b8480fd5b8380fd5b50903461018f578160031936011261018f5760015490516001600160a01b039091168152602090f35b50903461018f578060031936011261018f57823567ffffffffffffffff811161018b57610db490369085016112f9565b90916024359460ff861690818703610e91576001546001600160a01b03163303610e8457508460017fd7c2a8f231f7c612ec20cc728dde90317583a2f3b10d50e4569603e53bb0003596978451602081019087898337610e236020828a8101888382015203808452018261141e565b5190208352600360205284832080546001600160b81b03191660b09290921b60ff60b01b169190911761010160a01b17815501556001610e6f8351958695608087526080870191611456565b9287602086015284015260608301520390a180f35b82516282b42960e81b8152fd5b8580fd5b50903461018f57602090610eb1610eab3661139f565b91611498565b90519015158152f35b5034610193576020928360031936011261018f57803567ffffffffffffffff811161018b5791610ef0849260ff943691016112f9565b610f118785518381948383019687378101868382015203808452018261141e565b519020815260038552205460a01c1690519015158152f35b50903461018f57610f6292610f3d3661139f565b91908451968791602098818a928383019687378101898382015203808452018261141e565b5190208085526003865260ff8486205460a01c1661100757845260038552828420546001600160a01b0391908216801561074857869291602491865195869485936370a0823160e01b855216908301525afa928315610ffc578093610fca575b505051908152f35b909192508382813d8311610ff5575b610fe3818361141e565b81010312610193575051903880610fc2565b503d610fd9565b8251903d90823e3d90fd5b835163403a7bd960e11b81528390fd5b50823461018f57611027366113e2565b60015490959193906001600160a01b031633036110e25781516020810190858583376110626020828881018a8382015203808452018261141e565b51902090818652600360205260ff8387205460b01c16156110d4575084526003602052808420805460ff60a81b191686151560a81b60ff60a81b161790555192937f41cda4530bfc26ff01b587bd9fc0bcc8c67aa176a168da1542f9dd2f333be8a2939283926109d292919084611477565b825163c1ab6dc160e01b8152fd5b90516282b42960e81b8152fd5b5091903461018b5761112a91926111053661139f565b919084519586916020978189928383019687378101878382015203808452018261141e565b5190208083526003855260ff8484205460a01c161561116c578252600384528282206001600160a01b0390911682526002018352819020549051908152909150f35b835163403a7bd960e11b81528690fd5b8491503461018b5761118d36611358565b909692969391933387526020926005845260ff858920541615806112e4575b6112d757506111b9611556565b6001600160a01b03169485156108625781156112c957835183810190868a83376111f185828981018c8382015203808452018261141e565b519020908188526003845260ff8589205460a01c16156112bb578188526003845260ff8589205460a81c16156112ad5781885260038452600285892001878952845282858920541061129f5750869781610c7b927f78d2a70672e3ba9111468d436817d732ba1fe093ff73797382d68f607725a3cd989952600385526002868b2001898b528552858a20611286858254611579565b90558952600384526001858a20016106b9848254611579565b8451631e9acf1760e31b8152fd5b8451631931ea8560e01b8152fd5b845163403a7bd960e11b8152fd5b835163c1ab6dc160e01b8152fd5b6282b42960e81b81528690fd5b506001546001600160a01b03163314156111ac565b9181601f840112156113275782359167ffffffffffffffff8311611327576020838186019501011161132757565b600080fd5b600435906001600160a01b038216820361132757565b602435906001600160a01b038216820361132757565b6060600319820112611327576004359067ffffffffffffffff821161132757611383916004016112f9565b90916024356001600160a01b0381168103611327579060443590565b6040600319820112611327576004359067ffffffffffffffff8211611327576113ca916004016112f9565b90916024356001600160a01b03811681036113275790565b6040600319820112611327576004359067ffffffffffffffff82116113275761140d916004016112f9565b909160243580151581036113275790565b90601f8019910116810190811067ffffffffffffffff82111761144057604052565b634e487b7160e01b600052604160045260246000fd5b908060209392818452848401376000828201840152601f01601f1916010190565b9160209161149091959495604085526040850191611456565b931515910152565b91909160405190602093808584019283378201916114c48582600095868382015203808452018261141e565b519020918282526004845260ff60408320541615611515576001546001600160a01b0391821691168114801561151e575b6115155760ff936040938352600481526001848420019183525220541690565b50505050600190565b508082526005845260ff6040832054166114f5565b9190820180921161154057565b634e487b7160e01b600052601160045260246000fd5b600260005414611567576002600055565b604051633ee5aeb560e01b8152600490fd5b919082039182116115405756fea2646970667358221220f5107a57449e60512894347693b50fff04c7d110abf3cabd4073c441558d1dc964736f6c63430008140033",
  "linkReferences": {},
  "deployedLinkReferences": {}
}