{
  "_format": "hh-sol-artifact-1",
  "contractName": "PositionManager",
  "sourceName": "contracts/PositionManager.sol",
  "abi": [
    {
      "inputs": [
        {
          "internalType": "address",
          "name": "_market",
          "type": "address"
        },
        {
          "internalType": "address",
          "name": "_collateralManager",
          "type": "address"
        },
        {
          "internalType": "address",
          "name": "_assetRegistry",
          "type": "address"
        },
        {
          "internalType": "address",
          "name": "_oracle",
          "type": "address"
        },
        {
          "internalType": "address",
          "name": "_feeManager",
          "type": "address"
        },
        {
          "internalType": "address",
          "name": "_riskManager",
          "type": "address"
        }
      ],
      "stateMutability": "nonpayable",
      "type": "constructor"
    },
    {
      "anonymous": false,
      "inputs": [
        {
          "indexed": false,
          "internalType": "uint256",
          "name": "maxLeverage",
          "type": "uint256"
        }
      ],
      "name": "LeverageChanged",
      "type": "event"
    },
    {
      "anonymous": false,
      "inputs": [
        {
          "indexed": false,
          "internalType": "uint256",
          "name": "minPositionSize",
          "type": "uint256"
        }
      ],
      "name": "MinPositionSizeChanged",
      "type": "event"
    },
    {
      "anonymous": false,
      "inputs": [
        {
          "indexed": true,
          "internalType": "uint256",
          "name": "positionId",
          "type": "uint256"
        },
        {
          "indexed": true,
          "internalType": "uint256",
          "name": "orderId",
          "type": "uint256"
        }
      ],
      "name": "OrderCancelled",
      "type": "event"
    },
    {
      "anonymous": false,
      "inputs": [
        {
          "indexed": true,
          "internalType": "uint256",
          "name": "positionId",
          "type": "uint256"
        },
        {
          "indexed": true,
          "internalType": "uint256",
          "name": "orderId",
          "type": "uint256"
        },
        {
          "indexed": false,
          "internalType": "bool",
          "name": "isStopLoss",
          "type": "bool"
        }
      ],
      "name": "OrderTriggered",
      "type": "event"
    },
    {
      "anonymous": false,
      "inputs": [
        {
          "indexed": true,
          "internalType": "address",
          "name": "previousOwner",
          "type": "address"
        },
        {
          "indexed": true,
          "internalType": "address",
          "name": "newOwner",
          "type": "address"
        }
      ],
      "name": "OwnershipTransferred",
      "type": "event"
    },
    {
      "anonymous": false,
      "inputs": [
        {
          "indexed": true,
          "internalType": "uint256",
          "name": "positionId",
          "type": "uint256"
        },
        {
          "indexed": false,
          "internalType": "uint128",
          "name": "decreasedAmount",
          "type": "uint128"
        }
      ],
      "name": "PositionDecreased",
      "type": "event"
    },
    {
      "anonymous": false,
      "inputs": [
        {
          "indexed": true,
          "internalType": "uint256",
          "name": "positionId",
          "type": "uint256"
        },
        {
          "indexed": false,
          "internalType": "uint128",
          "name": "additionalAmount",
          "type": "uint128"
        }
      ],
      "name": "PositionIncreased",
      "type": "event"
    },
    {
      "anonymous": false,
      "inputs": [
        {
          "indexed": true,
          "internalType": "uint256",
          "name": "positionId",
          "type": "uint256"
        },
        {
          "indexed": false,
          "internalType": "uint128",
          "name": "triggerPrice",
          "type": "uint128"
        }
      ],
      "name": "StopLossAdded",
      "type": "event"
    },
    {
      "anonymous": false,
      "inputs": [
        {
          "indexed": true,
          "internalType": "uint256",
          "name": "positionId",
          "type": "uint256"
        },
        {
          "indexed": false,
          "internalType": "uint128",
          "name": "triggerPrice",
          "type": "uint128"
        }
      ],
      "name": "TakeProfitAdded",
      "type": "event"
    },
    {
      "inputs": [],
      "name": "absoluteMaxPositionSize",
      "outputs": [
        {
          "internalType": "uint256",
          "name": "",
          "type": "uint256"
        }
      ],
      "stateMutability": "view",
      "type": "function"
    },
    {
      "inputs": [
        {
          "internalType": "uint256",
          "name": "positionId",
          "type": "uint256"
        },
        {
          "internalType": "uint128",
          "name": "stopLossPrice",
          "type": "uint128"
        }
      ],
      "name": "addStopLoss",
      "outputs": [
        {
          "internalType": "uint256",
          "name": "",
          "type": "uint256"
        }
      ],
      "stateMutability": "nonpayable",
      "type": "function"
    },
    {
      "inputs": [
        {
          "internalType": "uint256",
          "name": "positionId",
          "type": "uint256"
        },
        {
          "internalType": "uint128",
          "name": "takeProfitPrice",
          "type": "uint128"
        }
      ],
      "name": "addTakeProfit",
      "outputs": [
        {
          "internalType": "uint256",
          "name": "",
          "type": "uint256"
        }
      ],
      "stateMutability": "nonpayable",
      "type": "function"
    },
    {
      "inputs": [],
      "name": "assetRegistry",
      "outputs": [
        {
          "internalType": "contract AssetRegistry",
          "name": "",
          "type": "address"
        }
      ],
      "stateMutability": "view",
      "type": "function"
    },
    {
      "inputs": [
        {
          "internalType": "uint256",
          "name": "positionId",
          "type": "uint256"
        },
        {
          "internalType": "uint256",
          "name": "orderId",
          "type": "uint256"
        }
      ],
      "name": "cancelOrder",
      "outputs": [],
      "stateMutability": "nonpayable",
      "type": "function"
    },
    {
      "inputs": [
        {
          "internalType": "uint256",
          "name": "positionId",
          "type": "uint256"
        },
        {
          "internalType": "uint128",
          "name": "currentPrice",
          "type": "uint128"
        }
      ],
      "name": "checkAndExecuteOrders",
      "outputs": [
        {
          "internalType": "bool",
          "name": "",
          "type": "bool"
        }
      ],
      "stateMutability": "nonpayable",
      "type": "function"
    },
    {
      "inputs": [],
      "name": "collateralManager",
      "outputs": [
        {
          "internalType": "contract CollateralManager",
          "name": "",
          "type": "address"
        }
      ],
      "stateMutability": "view",
      "type": "function"
    },
    {
      "inputs": [
        {
          "internalType": "uint256",
          "name": "positionId",
          "type": "uint256"
        },
        {
          "internalType": "uint8",
          "name": "decreasePercent",
          "type": "uint8"
        }
      ],
      "name": "decreasePosition",
      "outputs": [],
      "stateMutability": "nonpayable",
      "type": "function"
    },
    {
      "inputs": [],
      "name": "feeManager",
      "outputs": [
        {
          "internalType": "contract FeeManager",
          "name": "",
          "type": "address"
        }
      ],
      "stateMutability": "view",
      "type": "function"
    },
    {
      "inputs": [
        {
          "internalType": "uint256",
          "name": "positionId",
          "type": "uint256"
        }
      ],
      "name": "getActiveOrders",
      "outputs": [
        {
          "internalType": "uint256[]",
          "name": "orderIds",
          "type": "uint256[]"
        },
        {
          "internalType": "uint128[]",
          "name": "triggerPrices",
          "type": "uint128[]"
        },
        {
          "internalType": "bool[]",
          "name": "isStopLoss",
          "type": "bool[]"
        }
      ],
      "stateMutability": "view",
      "type": "function"
    },
    {
      "inputs": [
        {
          "internalType": "uint256",
          "name": "positionId",
          "type": "uint256"
        }
      ],
      "name": "getLiquidationPrice",
      "outputs": [
        {
          "internalType": "uint128",
          "name": "",
          "type": "uint128"
        }
      ],
      "stateMutability": "view",
      "type": "function"
    },
    {
      "inputs": [
        {
          "internalType": "uint256",
          "name": "positionId",
          "type": "uint256"
        },
        {
          "internalType": "uint128",
          "name": "additionalCollateral",
          "type": "uint128"
        },
        {
          "internalType": "uint256",
          "name": "leverage",
          "type": "uint256"
        }
      ],
      "name": "increasePosition",
      "outputs": [],
      "stateMutability": "nonpayable",
      "type": "function"
    },
    {
      "inputs": [],
      "name": "market",
      "outputs": [
        {
          "internalType": "contract Market",
          "name": "",
          "type": "address"
        }
      ],
      "stateMutability": "view",
      "type": "function"
    },
    {
      "inputs": [],
      "name": "maxLeverage",
      "outputs": [
        {
          "internalType": "uint256",
          "name": "",
          "type": "uint256"
        }
      ],
      "stateMutability": "view",
      "type": "function"
    },
    {
      "inputs": [],
      "name": "minPositionSize",
      "outputs": [
        {
          "internalType": "uint256",
          "name": "",
          "type": "uint256"
        }
      ],
      "stateMutability": "view",
      "type": "function"
    },
    {
      "inputs": [
        {
          "internalType": "string",
          "name": "asset",
          "type": "string"
        },
        {
          "internalType": "uint128",
          "name": "collateralAmount",
          "type": "uint128"
        },
        {
          "internalType": "uint256",
          "name": "leverage",
          "type": "uint256"
        },
        {
          "internalType": "bool",
          "name": "isLong",
          "type": "bool"
        }
      ],
      "name": "openLeveragedPosition",
      "outputs": [
        {
          "internalType": "uint256",
          "name": "",
          "type": "uint256"
        }
      ],
      "stateMutability": "nonpayable",
      "type": "function"
    },
    {
      "inputs": [],
      "name": "oracle",
      "outputs": [
        {
          "internalType": "contract Oracle",
          "name": "",
          "type": "address"
        }
      ],
      "stateMutability": "view",
      "type": "function"
    },
    {
      "inputs": [],
      "name": "owner",
      "outputs": [
        {
          "internalType": "address",
          "name": "",
          "type": "address"
        }
      ],
      "stateMutability": "view",
      "type": "function"
    },
    {
      "inputs": [
        {
          "internalType": "uint256",
          "name": "",
          "type": "uint256"
        },
        {
          "internalType": "uint256",
          "name": "",
          "type": "uint256"
        }
      ],
      "name": "positionOrders",
      "outputs": [
        {
          "internalType": "uint128",
          "name": "triggerPrice",
          "type": "uint128"
        },
        {
          "internalType": "bool",
          "name": "isStopLoss",
          "type": "bool"
        },
        {
          "internalType": "bool",
          "name": "isActive",
          "type": "bool"
        }
      ],
      "stateMutability": "view",
      "type": "function"
    },
    {
      "inputs": [],
      "name": "riskManager",
      "outputs": [
        {
          "internalType": "contract RiskManager",
          "name": "",
          "type": "address"
        }
      ],
      "stateMutability": "view",
      "type": "function"
    },
    {
      "inputs": [
        {
          "internalType": "uint256",
          "name": "_maxLeverage",
          "type": "uint256"
        }
      ],
      "name": "setMaxLeverage",
      "outputs": [],
      "stateMutability": "nonpayable",
      "type": "function"
    },
    {
      "inputs": [
        {
          "internalType": "uint256",
          "name": "_minPositionSize",
          "type": "uint256"
        }
      ],
      "name": "setMinPositionSize",
      "outputs": [],
      "stateMutability": "nonpayable",
      "type": "function"
    },
    {
      "inputs": [
        {
          "internalType": "address",
          "name": "newOwner",
          "type": "address"
        }
      ],
      "name": "transferOwnership",
      "outputs": [],
      "stateMutability": "nonpayable",
      "type": "function"
    }
  ],
  "bytecode": "0x608034620002f857601f620027ad38819003918201601f191683019291906001600160401b03841183851017620002fd578160c09284926040968752833981010312620002f857620000518162000313565b6020906200006182840162000313565b926200006f85820162000313565b6200007d6060830162000313565b906200009a60a0620000926080860162000313565b940162000313565b6014600755662386f26fc10000600855683635c9adc5dea000006009556001600160a01b03948516969094908715620002b45781169182156200026557811692831562000221578116938415620001dd57811694851562000199571694851562000156575060018060a01b03199586600054161760005585600154161760015584600254161760025583600354161760035582600454161760045581600554161760055533906006541617600655516124849081620003298239f35b60649088519062461bcd60e51b82526004820152601c60248201527f496e76616c6964207269736b206d616e616765722061646472657373000000006044820152fd5b885162461bcd60e51b815260048101889052601b60248201527f496e76616c696420666565206d616e61676572206164647265737300000000006044820152606490fd5b885162461bcd60e51b815260048101889052601660248201527f496e76616c6964206f7261636c652061646472657373000000000000000000006044820152606490fd5b885162461bcd60e51b815260048101889052601e60248201527f496e76616c6964206173736574207265676973747279206164647265737300006044820152606490fd5b885162461bcd60e51b815260048101889052602260248201527f496e76616c696420636f6c6c61746572616c206d616e61676572206164647265604482015261737360f01b6064820152608490fd5b885162461bcd60e51b815260048101889052601660248201527f496e76616c6964206d61726b65742061646472657373000000000000000000006044820152606490fd5b600080fd5b634e487b7160e01b600052604160045260246000fd5b51906001600160a01b0382168203620002f85756fe6080604052600436101561001257600080fd5b6000803560e01c806306972dcd14611a4957806323be345c14611a205780632c854f231461198757806333fe7c7014611693578063478426631461166a578063515e930f1461140e57806379334798146110c85780637da7af2914610d455780637dc0d1d014610d1c57806380f5560514610cf55780638da5cb5b14610ccc578063979d7e8614610ca3578063a3ff6d2714610c43578063ae3302c214610c25578063b6ed063214610ac4578063bb8313c214610aa6578063be3ba0001461062a578063c7d21b661461060c578063cb31a058146105db578063cf67519614610288578063d0fb02031461025f578063d3127e63146101e75763f2fde38b1461011a57600080fd5b346101e45760203660031901126101e4576004356001600160a01b03818116918290036101e057600654908116610152813314611b4a565b821561018f5782907f8be0079c531659141344cd1fd0a4f28419497f9722a3daafe3b4186f6b6457e08580a36001600160a01b0319161760065580f35b60405162461bcd60e51b8152602060048201526024808201527f4e6577206f776e65722063616e6e6f7420626520746865207a65726f206164646044820152637265737360e01b6064820152608490fd5b8280fd5b80fd5b50346101e45760203660031901126101e4577f2f29a45697bf62a7fe1a4565c5070d8b72415b9062d02baec19575df85e67c32602060043561023460018060a01b03600654163314611b4a565b80151580610254575b61024690611b87565b80600755604051908152a180f35b50606481111561023d565b50346101e457806003193601126101e4576004546040516001600160a01b039091168152602090f35b50346101e45760403660031901126101e4576102a2611af0565b8154604051634f6675af60e11b81526004803590820152908390829060249082906001600160a01b03165afa9081156105d057838492859186938792610599575b5061030291906102fd906001600160a01b03163314611e7f565b611ec0565b8115610536576001600160801b0380911690841610156104f15783610350925b60018060a01b03600254166040518080968194630cd5286d60e41b8352602060048401526024830190611f00565b03915afa9182156104c45761039d9260409186916104cf575b50602060018060a01b0360035416910151908251808096819463524f388960e01b8352602060048401526024830190611f00565b03915afa9182156104c4578492610492575b5015610475576103cd906001600160801b0380911690831610612009565b6004358252600a60205261040c60408320916001600160801b03604051916103f483611c30565b16928382526001602083015260016040830152612061565b6004358252600a602052604082205460001981019190821161046157602092506040519081527f656b1bb9af0a01c71a8465f923d42aae0f865d20e2c72e0d6ef1337cc83bfa678360043592a2604051908152f35b634e487b7160e01b83526011600452602483fd5b61048d906001600160801b0380911690831611612009565b6103cd565b6104b591925060403d6040116104bd575b6104ad8183611c76565b810190611fbf565b5090386103af565b503d6104a3565b6040513d86823e3d90fd5b6104eb91503d8088833e6104e38183611c76565b810190611f25565b38610369565b60405162461bcd60e51b815260206004820152601b60248201527f496e76616c69642073746f7020707269636520666f72206c6f6e6700000000006044820152606490fd5b6001600160801b038091169084161115610554578361035092610322565b60405162461bcd60e51b815260206004820152601c60248201527f496e76616c69642073746f7020707269636520666f722073686f7274000000006044820152606490fd5b9150506102fd935061030292506105c291503d8087833e6105ba8183611c76565b810190611e0c565b9396909550909391506102e3565b6040513d85823e3d90fd5b50346101e45760403660031901126101e45760206106026105fa611af0565b60043561215c565b6040519015158152f35b50346101e457806003193601126101e4576020600954604051908152f35b50346101e45760803660031901126101e4576004359067ffffffffffffffff808311610aa25736602384011215610aa2578260040135116101e4573660248360040135840101116101e45761067d611af0565b916064359081151582036101e0576008546001600160801b038516908110610a5d576106c86001600160801b0391604435151580610a4f575b6106bf90611b87565b60443590611bc6565b16936106d8600954861115611bef565b60018060a01b03600554166040516323fbf00560e11b8152604060048201526020818061071060448201886004013560248a01611ca5565b8a60248301520381855afa8015610a44578690610a05575b6107329150611cc6565b602060405180926358cb5af960e01b825260406004830152818061076160448201896004013560248b01611ca5565b604435602483015203915afa9081156109635785916109cb575b5015610986576001546001600160a01b0316803b1561092d576040516347a7d10760e01b81523360048201526001600160801b03831660248201529085908290604490829084905af180156109635790859161096e575b5050610801602060018060a01b03600454169260405180938192631ab9a5a760e21b8352339060048401611d08565b0381855afa908115610963578591610931575b50813b1561092d57610841859283926040519485809481936348eb27ff60e01b8352339060048401611d51565b03925af180156104c457908491610919575b509061089b6020939260018060a01b0381541692604051978895869485936361ec704d60e11b855233600486015260a0602486015260a4850190602481600401359101611ca5565b9160448401526001600160801b036044351660648401521515608483015203925af190811561090d57906108d5575b602090604051908152f35b506020813d602011610905575b816108ef60209383611c76565b8101031261090057602090516108ca565b600080fd5b3d91506108e2565b604051903d90823e3d90fd5b61092290611c62565b6101e0578238610853565b8480fd5b90506020813d60201161095b575b8161094c60209383611c76565b81010312610900575138610814565b3d915061093f565b6040513d87823e3d90fd5b61097790611c62565b6109825783386107d2565b8380fd5b60405162461bcd60e51b815260206004820152601e60248201527f4c65766572616765206e6f7420616c6c6f77656420666f7220617373657400006044820152606490fd5b90506020813d6020116109fd575b816109e660209383611c76565b8101031261092d576109f790611c98565b3861077b565b3d91506109d9565b506020813d602011610a3c575b81610a1f60209383611c76565b81010312610a3857610a3361073291611c98565b610728565b8580fd5b3d9150610a12565b6040513d88823e3d90fd5b5060075460443511156106b6565b60405162461bcd60e51b815260206004820152601760248201527f506f736974696f6e2073697a6520746f6f20736d616c6c0000000000000000006044820152606490fd5b5080fd5b50346101e457806003193601126101e4576020600854604051908152f35b50346101e457610ad336611b06565b90602460018060a01b03848181541660405193848092634f6675af60e11b82528760048301525afa90811561096357610b16928692610c04575b50163314611e7f565b808352600a6020526040832054821015610bcc57808352600a60205260ff610b418360408620611b1c565b505460881c1615610b9457808352600a602052610b618260408520611b1c565b50805460ff60881b191690557faa2a006d186dc89a3d6851834c85d16226329ac40bcad6531a5756a38ed1c90f8380a380f35b60405162461bcd60e51b815260206004820152601060248201526f4f72646572206e6f742061637469766560801b6044820152606490fd5b60405162461bcd60e51b815260206004820152601060248201526f125b9d985b1a59081bdc99195c88125160821b6044820152606490fd5b610c199192503d8088833e6105ba8183611c76565b50505050509038610b0d565b50346101e457806003193601126101e4576020600754604051908152f35b50346101e457610c5236611b06565b91908152600a602052604081209081548310156101e4576060610c758484611b1c565b505460ff604051916001600160801b0381168352818160801c161515602084015260881c1615156040820152f35b50346101e457806003193601126101e4576002546040516001600160a01b039091168152602090f35b50346101e457806003193601126101e4576006546040516001600160a01b039091168152602090f35b50346101e457806003193601126101e457546040516001600160a01b039091168152602090f35b50346101e457806003193601126101e4576003546040516001600160a01b039091168152602090f35b50346101e45760403660031901126101e4576004356024803560ff811680910361098257801515806110be575b1561107a578354604051634f6675af60e11b815260048101859052916001600160a01b0391869084908690829086165afa928315610a4457869387948892899261104a575b50906102fd610dca928633911614611e7f565b6064610de16001600160801b039384809416611bc6565b041693841561100657908291879360025416846040518092630cd5286d60e41b82528180610e1a60209b8c600484015288830190611f00565b03915afa91821561096357610e5e926040928791610fec575b5087866003541691015191835180958194829363524f388960e01b84528c6004850152830190611f00565b03915afa9081156104c457610eaa926305f5e10092610e86928791610fcc575b501687611bc6565b048483600454169160405180948192631ab9a5a760e21b8352339060048401611d51565b0381845afa9182156104c4578492610f9a575b50803b15610982576040516348eb27ff60e01b81529184918391829084908290610eec90339060048401611d51565b03925af19081156105d0578391610f86575b505416803b15610aa257816040518092630218dca560e61b8252818381610f2a338b8d60048501611fe0565b03925af18015610f7b57610f67575b50507f5dff674813c448042b3cf6fa8b5ccc93a4e64fd406d8c50ff9bede3857ebc9a891604051908152a280f35b610f7090611c62565b610982578338610f39565b6040513d84823e3d90fd5b610f8f90611c62565b610aa2578138610efe565b935090508383813d8111610fc5575b610fb38183611c76565b81010312610900578692519038610ebd565b503d610fa9565b610fe5915060403d6040116104bd576104ad8183611c76565b5038610e7e565b61100091503d8089833e6104e38183611c76565b38610e33565b60649060196040519162461bcd60e51b8352602060048401528201527f446563726561736520616d6f756e7420746f6f20736d616c6c000000000000006044820152fd5b90506102fd9550610dca925061106a91503d808a833e6105ba8183611c76565b939892955092939250610db79050565b60405162461bcd60e51b815260206004820152601b818401527f496e76616c69642064656372656173652070657263656e7461676500000000006044820152606490fd5b5060648110610d72565b50346101e45760603660031901126101e45760043560246110e7611af0565b8354604051634f6675af60e11b815260048101859052926001600160a01b039291604435918791869190829087165afa908115610a4457611168948792889389928a926113de575b50906102fd611142928833911614611e7f565b811515806113d2575b61115490611b87565b6001600160801b0380968193828716611bc6565b1695168501908082116113be576009546111b29594939261118b92161115611bef565b8260055416604051809581936323fbf00560e11b8352604060048401526044830190611f00565b9187602483015281602097889403915afa8015611379578790611388575b6111da9150611cc6565b8160015416803b15611384576040516347a7d10760e01b81523360048201526001600160801b03831660248201529087908290604490829084905af1801561137957611360575b509061124b86928483600454169160405180948192631ab9a5a760e21b8352339060048401611d08565b0381845afa9182156104c457849261132e575b50803b15610982576040516348eb27ff60e01b8152918491839182908490829061128d90339060048401611d51565b03925af19081156105d057839161131a575b505416803b15610aa25781809160446040518094819363d5694f6d60e01b83528a60048401528960248401525af18015610f7b57611306575b50507f4a1398ed8f39c84977a0a33f8f5adc39e54d3a8aefbba3f0d9f4e38662ea699191604051908152a280f35b61130f90611c62565b6109825783386112d8565b61132390611c62565b610aa257813861129f565b935090508383813d8111611359575b6113478183611c76565b8101031261090057869251903861125e565b503d61133d565b9561137061124b97939293611c62565b95919091611221565b6040513d89823e3d90fd5b8680fd5b508381813d83116113b7575b61139e8183611c76565b81010312611384576113b26111da91611c98565b6111d0565b503d611394565b634e487b7160e01b88526011600452602488fd5b5060075482111561114b565b90506102fd945061114292506113fe91503d808b833e6105ba8183611c76565b93979295509293925061112f9050565b50346101e457602090816003193601126101e457906004358252600a815260408220918080938054945b858110611625575061144983612422565b936114576040519586611c76565b83855261146384612422565b93818601601f1980960136823761147982612422565b97611487604051998a611c76565b82895261149383612422565b9487858b0196013687376114bf6114a985612422565b946114b76040519687611c76565b808652612422565b84860198013689378690875b8381106115885750505050604051978897606089019060608a5251809152608089019290875b8181106115715750505087820388850152518082529083019390855b8181106115515750505085830360408701525180835291810193925b82811061153857505050500390f35b8351151585528695509381019392810192600101611529565b82516001600160801b03168652899850948401949184019160010161150d565b825185528b9a5093860193918601916001016114f1565b61159b81839d9697989a999b9c9d611b1c565b508c60ff80925460881c166115c4575b50506115b69061214d565b9a999896979594939a6114cb565b9361161d91836115d8836115b6969861243a565b526001600160801b036115eb8787611b1c565b5054166115f8838a61243a565b526116038686611b1c565b505460801c16611613828b61243a565b901515905261214d565b92908c6115ab565b60ff61163682849698979594611b1c565b505460881c16611655575b61164a9061214d565b949290919394611438565b9461166261164a9161214d565b959050611641565b50346101e457806003193601126101e4576005546040516001600160a01b039091168152602090f35b50346101e45760403660031901126101e457600435906116b1611af0565b8154604051634f6675af60e11b8152600481018590526001600160a01b0394929184908290602490829089165afa9485156104c457848596869187948892611958575b50906102fd611707928533911614611e7f565b8215611900576001600160801b0380911690841611156118bb575b806002541690856040518093630cd5286d60e41b8252818061175060209c8d60048401526024830190611f00565b03915afa918215610a445791876040926117969594899361189f575b5060035416910151908251808096819463524f388960e01b83528c60048401526024830190611f00565b03915afa91821561096357859261187d575b5015611860576117c6906001600160801b03809116908316116120f3565b818352600a845261180060408420916001600160801b03604051916117ea83611c30565b1692838252858783015260016040830152612061565b818352600a8452604083205460001981019390841161184c5750837f814449b309f78547e844f2022cdd0b8d8e1a913b83e0444596627ad3300af34f91604051908152a2604051908152f35b634e487b7160e01b81526011600452602490fd5b611878906001600160801b03809116908316106120f3565b6117c6565b61189791925060403d6040116104bd576104ad8183611c76565b5090386117a8565b6118b49193503d808b833e6104e38183611c76565b913861176c565b60405162461bcd60e51b815260206004820152601c60248201527f496e76616c69642074616b652070726f66697420666f72206c6f6e67000000006044820152606490fd5b6001600160801b03809116908416106117225760405162461bcd60e51b815260206004820152601d60248201527f496e76616c69642074616b652070726f66697420666f722073686f72740000006044820152606490fd5b9150506102fd9750611707935061197991503d8088833e6105ba8183611c76565b939a909650909391506116f4565b50346101e457602090816003193601126101e4578054604051632c854f2360e01b81526004803590820152908390829060249082906001600160a01b03165afa91821561090d5780926119e8575b50506001600160801b0360405191168152f35b9091508282813d8311611a19575b611a008183611c76565b810103126101e45750611a1290611df8565b38806119d5565b503d6119f6565b50346101e457806003193601126101e4576001546040516001600160a01b039091168152602090f35b50346101e45760203660031901126101e457600435611a7360018060a01b03600654163314611b4a565b8015611aab576020817f9f2b31d21732cc15ca2dc2a9fdf94e66f99b17b7c65080200d071d561eae454492600855604051908152a180f35b60405162461bcd60e51b815260206004820152601960248201527f496e76616c6964206d696e20706f736974696f6e2073697a65000000000000006044820152606490fd5b602435906001600160801b038216820361090057565b6040906003190112610900576004359060243590565b8054821015611b345760005260206000200190600090565b634e487b7160e01b600052603260045260246000fd5b15611b5157565b60405162461bcd60e51b815260206004820152600e60248201526d139bdd08185d5d1a1bdc9a5e995960921b6044820152606490fd5b15611b8e57565b60405162461bcd60e51b815260206004820152601060248201526f496e76616c6964206c6576657261676560801b6044820152606490fd5b81810292918115918404141715611bd957565b634e487b7160e01b600052601160045260246000fd5b15611bf657565b60405162461bcd60e51b8152602060048201526012602482015271506f736974696f6e20746f6f206c6172676560701b6044820152606490fd5b6060810190811067ffffffffffffffff821117611c4c57604052565b634e487b7160e01b600052604160045260246000fd5b67ffffffffffffffff8111611c4c57604052565b90601f8019910116810190811067ffffffffffffffff821117611c4c57604052565b5190811515820361090057565b908060209392818452848401376000828201840152601f01601f1916010190565b15611ccd57565b60405162461bcd60e51b815260206004820152601360248201527253697a652065786365656473206c696d69747360681b6044820152606490fd5b906001600160801b0390939293168152606060208201526040611d416060830160409060058152643a30b5b2b960d91b60208201520190565b6001600160a01b03909416910152565b909291928152606060208201526040611d416060830160409060058152643a30b5b2b960d91b60208201520190565b60005b838110611d935750506000910152565b8181015183820152602001611d83565b81601f8201121561090057805167ffffffffffffffff8111611c4c5760405192611dd7601f8301601f191660200185611c76565b8184526020828401011161090057611df59160208085019101611d80565b90565b51906001600160801b038216820361090057565b91909160c0818403126109005780516001600160a01b0381168103610900579260208201519067ffffffffffffffff821161090057611e4c918301611da3565b91611e5960408301611df8565b91611e6660608201611df8565b91611df560a0611e7860808501611c98565b9301611c98565b15611e8657565b60405162461bcd60e51b81526020600482015260126024820152712737ba103837b9b4ba34b7b71037bbb732b960711b6044820152606490fd5b15611ec757565b60405162461bcd60e51b81526020600482015260116024820152702837b9b4ba34b7b7103737ba1037b832b760791b6044820152606490fd5b90602091611f1981518092818552858086019101611d80565b601f01601f1916010190565b60208183031261090057805167ffffffffffffffff9182821161090057019060808284031261090057604051926080840184811083821117611c4c5760405282518281116109005781611f79918501611da3565b8452602083015191821161090057611f92918301611da3565b6020830152604081015160ff81168103610900576040830152611fb790606001611c98565b606082015290565b919082604091031261090057611df56020611fd984611df8565b9301611df8565b9081526001600160801b0390911660208201526001600160a01b03909116604082015260600190565b1561201057565b60405162461bcd60e51b815260206004820152602360248201527f53746f70206c6f737320776f756c64207472696767657220696d6d6564696174604482015262656c7960e81b6064820152608490fd5b805468010000000000000000811015611c4c5761208391600182018155611b1c565b9190916120dd5780518254602083015160409093015160ff60881b90151560881b1660ff60801b93151560801b939093166001600160801b0390921671ffffffffffffffffffffffffffffffffffff199091161717179055565b634e487b7160e01b600052600060045260246000fd5b156120fa57565b60405162461bcd60e51b815260206004820152602560248201527f54616b652070726f66697420776f756c64207472696767657220696d6d6564696044820152646174656c7960d81b6064820152608490fd5b6000198114611bd95760010190565b906024929160018060a01b03600654163314801561240e575b61217e90611b4a565b60008054604051634f6675af60e11b81526004810184905295869182906001600160a01b03165afa80156122ea576000946000916000916000916123e5575b50156123db5760009483600052600a60205260406000209060005b82548110156123d0576121eb8184611b1c565b50805460ff8160881c16156123c55760ff8160801c169081600014612395578615612380576001600160801b03808216908b1611155b612237575b5050506122329061214d565b6121d8565b60ff60881b1916825591985090156122f6576000546001600160a01b031690813b156109005760008a6122849388838b60405197889586948593630218dca560e61b855260048501611fe0565b03925af19081156122ea57602060ff7f4f70667f38f2af21417bfc23a2566e9ae379c4d297ae7dcf26ad2065159ac20c928c958b956122db575b505b5460801c166040519015158152a36001966122323880612226565b6122e490611c62565b386122be565b6040513d6000823e3d90fd5b6000546001600160a01b031690813b156109005760008a6123319388838b60405197889586948593630218dca560e61b855260048501611fe0565b03925af19081156122ea57602060ff7f4f70667f38f2af21417bfc23a2566e9ae379c4d297ae7dcf26ad2065159ac20c928c958b95612371575b506122c0565b61237a90611c62565b3861236b565b6001600160801b03808216908b161015612221565b86156123b0576001600160801b03808216908b161015612221565b6001600160801b03808216908b161115612221565b50506122329061214d565b509650505050505090565b5060009450505050565b925050506123ff9194503d806000833e6105ba8183611c76565b949794929350919050386121bd565b506003546001600160a01b03163314612175565b67ffffffffffffffff8111611c4c5760051b60200190565b8051821015611b345760209160051b01019056fea2646970667358221220fa2b962673dc365fbd15aa531691547ad89f8e89039a5f4fc7d162f2992da02464736f6c63430008140033",
  "linkReferences": {},
  "deployedLinkReferences": {}
}