{
  "_format": "hh-sol-artifact-1",
  "contractName": "Market",
  "sourceName": "contracts/Market.sol",
  "abi": [
    {
      "inputs": [
        {
          "internalType": "address",
          "name": "_assetRegistry",
          "type": "address"
        },
        {
          "internalType": "address",
          "name": "_orderBook",
          "type": "address"
        },
        {
          "internalType": "address",
          "name": "_oracle",
          "type": "address"
        },
        {
          "internalType": "address",
          "name": "_securityModule",
          "type": "address"
        },
        {
          "internalType": "address",
          "name": "_collateralManager",
          "type": "address"
        },
        {
          "internalType": "address",
          "name": "_crossMarginAccount",
          "type": "address"
        },
        {
          "internalType": "address",
          "name": "_fundingRateManager",
          "type": "address"
        },
        {
          "internalType": "address",
          "name": "_eventEmitter",
          "type": "address"
        }
      ],
      "stateMutability": "nonpayable",
      "type": "constructor"
    },
    {
      "inputs": [],
      "name": "DailyVolumeCapReached",
      "type": "error"
    },
    {
      "inputs": [],
      "name": "InvalidParameter",
      "type": "error"
    },
    {
      "inputs": [],
      "name": "InvalidPositionId",
      "type": "error"
    },
    {
      "inputs": [],
      "name": "MarketDisabled",
      "type": "error"
    },
    {
      "inputs": [],
      "name": "MaxLeverageExceeded",
      "type": "error"
    },
    {
      "inputs": [],
      "name": "MaxPositionSizeExceeded",
      "type": "error"
    },
    {
      "inputs": [],
      "name": "MaxSkewExceeded",
      "type": "error"
    },
    {
      "inputs": [],
      "name": "MinOrderSizeNotMet",
      "type": "error"
    },
    {
      "inputs": [],
      "name": "NotPositionOwner",
      "type": "error"
    },
    {
      "inputs": [],
      "name": "PositionNotOpen",
      "type": "error"
    },
    {
      "inputs": [],
      "name": "StalePrice",
      "type": "error"
    },
    {
      "inputs": [],
      "name": "Unauthorized",
      "type": "error"
    },
    {
      "anonymous": false,
      "inputs": [
        {
          "indexed": true,
          "internalType": "string",
          "name": "asset",
          "type": "string"
        },
        {
          "indexed": true,
          "internalType": "address",
          "name": "trader",
          "type": "address"
        },
        {
          "indexed": false,
          "internalType": "int256",
          "name": "amount",
          "type": "int256"
        },
        {
          "indexed": false,
          "internalType": "int256",
          "name": "fundingRate",
          "type": "int256"
        }
      ],
      "name": "FundingPaid",
      "type": "event"
    },
    {
      "anonymous": false,
      "inputs": [
        {
          "indexed": true,
          "internalType": "string",
          "name": "asset",
          "type": "string"
        },
        {
          "indexed": false,
          "internalType": "enum Market.MarketType",
          "name": "marketType",
          "type": "uint8"
        },
        {
          "indexed": false,
          "internalType": "uint256",
          "name": "maxLeverage",
          "type": "uint256"
        },
        {
          "indexed": false,
          "internalType": "uint256",
          "name": "maxPositionSize",
          "type": "uint256"
        }
      ],
      "name": "MarketAdded",
      "type": "event"
    },
    {
      "anonymous": false,
      "inputs": [
        {
          "indexed": true,
          "internalType": "string",
          "name": "asset",
          "type": "string"
        },
        {
          "indexed": false,
          "internalType": "uint256",
          "name": "maxSkew",
          "type": "uint256"
        }
      ],
      "name": "MarketSkewUpdated",
      "type": "event"
    },
    {
      "anonymous": false,
      "inputs": [
        {
          "indexed": true,
          "internalType": "string",
          "name": "asset",
          "type": "string"
        },
        {
          "indexed": false,
          "internalType": "enum Market.MarketStatus",
          "name": "status",
          "type": "uint8"
        },
        {
          "indexed": false,
          "internalType": "uint256",
          "name": "maxLeverage",
          "type": "uint256"
        },
        {
          "indexed": false,
          "internalType": "uint256",
          "name": "maxPositionSize",
          "type": "uint256"
        }
      ],
      "name": "MarketUpdated",
      "type": "event"
    },
    {
      "anonymous": false,
      "inputs": [
        {
          "indexed": true,
          "internalType": "address",
          "name": "previousOwner",
          "type": "address"
        },
        {
          "indexed": true,
          "internalType": "address",
          "name": "newOwner",
          "type": "address"
        }
      ],
      "name": "OwnershipTransferred",
      "type": "event"
    },
    {
      "anonymous": false,
      "inputs": [
        {
          "indexed": true,
          "internalType": "uint256",
          "name": "positionId",
          "type": "uint256"
        },
        {
          "indexed": true,
          "internalType": "address",
          "name": "trader",
          "type": "address"
        },
        {
          "indexed": true,
          "internalType": "string",
          "name": "asset",
          "type": "string"
        },
        {
          "indexed": false,
          "internalType": "uint128",
          "name": "exitPrice",
          "type": "uint128"
        },
        {
          "indexed": false,
          "internalType": "int256",
          "name": "pnl",
          "type": "int256"
        },
        {
          "indexed": false,
          "internalType": "uint256",
          "name": "fee",
          "type": "uint256"
        }
      ],
      "name": "PositionClosed",
      "type": "event"
    },
    {
      "anonymous": false,
      "inputs": [
        {
          "indexed": true,
          "internalType": "uint256",
          "name": "positionId",
          "type": "uint256"
        },
        {
          "indexed": false,
          "internalType": "uint128",
          "name": "decreaseAmount",
          "type": "uint128"
        },
        {
          "indexed": false,
          "internalType": "uint128",
          "name": "remainingAmount",
          "type": "uint128"
        },
        {
          "indexed": false,
          "internalType": "uint128",
          "name": "exitPrice",
          "type": "uint128"
        },
        {
          "indexed": false,
          "internalType": "int256",
          "name": "pnl",
          "type": "int256"
        },
        {
          "indexed": false,
          "internalType": "uint256",
          "name": "fee",
          "type": "uint256"
        }
      ],
      "name": "PositionDecreased",
      "type": "event"
    },
    {
      "anonymous": false,
      "inputs": [
        {
          "indexed": true,
          "internalType": "uint256",
          "name": "positionId",
          "type": "uint256"
        },
        {
          "indexed": false,
          "internalType": "uint128",
          "name": "additionalAmount",
          "type": "uint128"
        },
        {
          "indexed": false,
          "internalType": "uint128",
          "name": "newAmount",
          "type": "uint128"
        },
        {
          "indexed": false,
          "internalType": "uint128",
          "name": "newEntryPrice",
          "type": "uint128"
        }
      ],
      "name": "PositionIncreased",
      "type": "event"
    },
    {
      "anonymous": false,
      "inputs": [
        {
          "indexed": true,
          "internalType": "uint256",
          "name": "positionId",
          "type": "uint256"
        },
        {
          "indexed": true,
          "internalType": "address",
          "name": "trader",
          "type": "address"
        },
        {
          "indexed": true,
          "internalType": "string",
          "name": "asset",
          "type": "string"
        },
        {
          "indexed": false,
          "internalType": "uint128",
          "name": "amount",
          "type": "uint128"
        },
        {
          "indexed": false,
          "internalType": "uint128",
          "name": "entryPrice",
          "type": "uint128"
        },
        {
          "indexed": false,
          "internalType": "uint128",
          "name": "leverage",
          "type": "uint128"
        },
        {
          "indexed": false,
          "internalType": "bool",
          "name": "isLong",
          "type": "bool"
        }
      ],
      "name": "PositionOpened",
      "type": "event"
    },
    {
      "inputs": [
        {
          "internalType": "string",
          "name": "",
          "type": "string"
        },
        {
          "internalType": "address",
          "name": "",
          "type": "address"
        }
      ],
      "name": "accumulatedFundingPayments",
      "outputs": [
        {
          "internalType": "int256",
          "name": "",
          "type": "int256"
        }
      ],
      "stateMutability": "view",
      "type": "function"
    },
    {
      "inputs": [
        {
          "internalType": "string",
          "name": "asset",
          "type": "string"
        },
        {
          "internalType": "enum Market.MarketType",
          "name": "marketType",
          "type": "uint8"
        },
        {
          "internalType": "uint256",
          "name": "maxLeverage",
          "type": "uint256"
        },
        {
          "internalType": "uint256",
          "name": "maxPositionSize",
          "type": "uint256"
        },
        {
          "internalType": "uint256",
          "name": "takerFee",
          "type": "uint256"
        },
        {
          "internalType": "uint256",
          "name": "makerFee",
          "type": "uint256"
        },
        {
          "internalType": "uint256",
          "name": "minOrderSize",
          "type": "uint256"
        }
      ],
      "name": "addMarket",
      "outputs": [],
      "stateMutability": "nonpayable",
      "type": "function"
    },
    {
      "inputs": [],
      "name": "assetRegistry",
      "outputs": [
        {
          "internalType": "contract AssetRegistry",
          "name": "",
          "type": "address"
        }
      ],
      "stateMutability": "view",
      "type": "function"
    },
    {
      "inputs": [
        {
          "components": [
            {
              "internalType": "address",
              "name": "trader",
              "type": "address"
            },
            {
              "internalType": "string",
              "name": "asset",
              "type": "string"
            },
            {
              "internalType": "uint128",
              "name": "amount",
              "type": "uint128"
            },
            {
              "internalType": "uint128",
              "name": "entryPrice",
              "type": "uint128"
            },
            {
              "internalType": "uint128",
              "name": "leverage",
              "type": "uint128"
            },
            {
              "internalType": "int256",
              "name": "fundingIndex",
              "type": "int256"
            },
            {
              "internalType": "bool",
              "name": "isLong",
              "type": "bool"
            },
            {
              "internalType": "bool",
              "name": "isOpen",
              "type": "bool"
            },
            {
              "internalType": "uint256",
              "name": "openTimestamp",
              "type": "uint256"
            },
            {
              "internalType": "uint256",
              "name": "lastUpdateTimestamp",
              "type": "uint256"
            }
          ],
          "internalType": "struct Market.Position",
          "name": "position",
          "type": "tuple"
        },
        {
          "internalType": "uint128",
          "name": "currentPrice",
          "type": "uint128"
        }
      ],
      "name": "calculatePnL",
      "outputs": [
        {
          "internalType": "int256",
          "name": "pnl",
          "type": "int256"
        },
        {
          "internalType": "int256",
          "name": "fundingPayment",
          "type": "int256"
        }
      ],
      "stateMutability": "view",
      "type": "function"
    },
    {
      "inputs": [
        {
          "internalType": "uint256",
          "name": "positionId",
          "type": "uint256"
        }
      ],
      "name": "closePosition",
      "outputs": [],
      "stateMutability": "nonpayable",
      "type": "function"
    },
    {
      "inputs": [],
      "name": "collateralManager",
      "outputs": [
        {
          "internalType": "contract CollateralManager",
          "name": "",
          "type": "address"
        }
      ],
      "stateMutability": "view",
      "type": "function"
    },
    {
      "inputs": [],
      "name": "crossMarginAccount",
      "outputs": [
        {
          "internalType": "contract ICrossMarginAccountManager",
          "name": "",
          "type": "address"
        }
      ],
      "stateMutability": "view",
      "type": "function"
    },
    {
      "inputs": [
        {
          "internalType": "uint256",
          "name": "positionId",
          "type": "uint256"
        },
        {
          "internalType": "uint128",
          "name": "decreaseAmount",
          "type": "uint128"
        },
        {
          "internalType": "address",
          "name": "trader",
          "type": "address"
        }
      ],
      "name": "decreasePositionInternal",
      "outputs": [],
      "stateMutability": "nonpayable",
      "type": "function"
    },
    {
      "inputs": [],
      "name": "eventEmitter",
      "outputs": [
        {
          "internalType": "contract IEventEmitter",
          "name": "",
          "type": "address"
        }
      ],
      "stateMutability": "view",
      "type": "function"
    },
    {
      "inputs": [
        {
          "internalType": "uint256",
          "name": "positionId",
          "type": "uint256"
        },
        {
          "internalType": "address",
          "name": "liquidator",
          "type": "address"
        }
      ],
      "name": "forceLiquidate",
      "outputs": [],
      "stateMutability": "nonpayable",
      "type": "function"
    },
    {
      "inputs": [],
      "name": "fundingRateManager",
      "outputs": [
        {
          "internalType": "contract IFundingRateManager",
          "name": "",
          "type": "address"
        }
      ],
      "stateMutability": "view",
      "type": "function"
    },
    {
      "inputs": [
        {
          "internalType": "address",
          "name": "trader",
          "type": "address"
        },
        {
          "internalType": "string",
          "name": "asset",
          "type": "string"
        }
      ],
      "name": "getAccumulatedFundingPayments",
      "outputs": [
        {
          "internalType": "int256",
          "name": "",
          "type": "int256"
        }
      ],
      "stateMutability": "view",
      "type": "function"
    },
    {
      "inputs": [
        {
          "internalType": "uint256",
          "name": "positionId",
          "type": "uint256"
        }
      ],
      "name": "getLiquidationPrice",
      "outputs": [
        {
          "internalType": "uint128",
          "name": "",
          "type": "uint128"
        }
      ],
      "stateMutability": "view",
      "type": "function"
    },
    {
      "inputs": [
        {
          "internalType": "string",
          "name": "asset",
          "type": "string"
        }
      ],
      "name": "getMarketInfo",
      "outputs": [
        {
          "components": [
            {
              "internalType": "enum Market.MarketType",
              "name": "marketType",
              "type": "uint8"
            },
            {
              "internalType": "enum Market.MarketStatus",
              "name": "status",
              "type": "uint8"
            },
            {
              "internalType": "uint256",
              "name": "maxLeverage",
              "type": "uint256"
            },
            {
              "internalType": "uint256",
              "name": "maxPositionSize",
              "type": "uint256"
            },
            {
              "internalType": "uint256",
              "name": "takerFee",
              "type": "uint256"
            },
            {
              "internalType": "uint256",
              "name": "makerFee",
              "type": "uint256"
            },
            {
              "internalType": "uint256",
              "name": "minOrderSize",
              "type": "uint256"
            },
            {
              "internalType": "uint256",
              "name": "openInterestLong",
              "type": "uint256"
            },
            {
              "internalType": "uint256",
              "name": "openInterestShort",
              "type": "uint256"
            },
            {
              "internalType": "uint256",
              "name": "totalVolume",
              "type": "uint256"
            },
            {
              "internalType": "uint256",
              "name": "lastDailyVolumeReset",
              "type": "uint256"
            },
            {
              "internalType": "uint256",
              "name": "dailyVolume",
              "type": "uint256"
            }
          ],
          "internalType": "struct Market.MarketInfo",
          "name": "",
          "type": "tuple"
        }
      ],
      "stateMutability": "view",
      "type": "function"
    },
    {
      "inputs": [
        {
          "internalType": "string",
          "name": "asset",
          "type": "string"
        }
      ],
      "name": "getOpenInterest",
      "outputs": [
        {
          "internalType": "uint256",
          "name": "longOI",
          "type": "uint256"
        },
        {
          "internalType": "uint256",
          "name": "shortOI",
          "type": "uint256"
        }
      ],
      "stateMutability": "view",
      "type": "function"
    },
    {
      "inputs": [
        {
          "internalType": "address",
          "name": "trader",
          "type": "address"
        }
      ],
      "name": "getOpenPositionsForTrader",
      "outputs": [
        {
          "internalType": "uint256[]",
          "name": "",
          "type": "uint256[]"
        }
      ],
      "stateMutability": "view",
      "type": "function"
    },
    {
      "inputs": [
        {
          "internalType": "uint256",
          "name": "positionId",
          "type": "uint256"
        }
      ],
      "name": "getPositionDetails",
      "outputs": [
        {
          "internalType": "address",
          "name": "trader",
          "type": "address"
        },
        {
          "internalType": "string",
          "name": "asset",
          "type": "string"
        },
        {
          "internalType": "uint128",
          "name": "amount",
          "type": "uint128"
        },
        {
          "internalType": "uint128",
          "name": "entryPrice",
          "type": "uint128"
        },
        {
          "internalType": "bool",
          "name": "isLong",
          "type": "bool"
        },
        {
          "internalType": "bool",
          "name": "isOpen",
          "type": "bool"
        }
      ],
      "stateMutability": "view",
      "type": "function"
    },
    {
      "inputs": [
        {
          "internalType": "address",
          "name": "trader",
          "type": "address"
        }
      ],
      "name": "getPositionsForTrader",
      "outputs": [
        {
          "internalType": "uint256[]",
          "name": "",
          "type": "uint256[]"
        }
      ],
      "stateMutability": "view",
      "type": "function"
    },
    {
      "inputs": [
        {
          "internalType": "address",
          "name": "trader",
          "type": "address"
        },
        {
          "internalType": "string",
          "name": "asset",
          "type": "string"
        }
      ],
      "name": "getPositionsForTraderByAsset",
      "outputs": [
        {
          "internalType": "uint256[]",
          "name": "",
          "type": "uint256[]"
        }
      ],
      "stateMutability": "view",
      "type": "function"
    },
    {
      "inputs": [
        {
          "internalType": "string",
          "name": "asset",
          "type": "string"
        }
      ],
      "name": "getTimeUntilNextFunding",
      "outputs": [
        {
          "internalType": "uint256",
          "name": "",
          "type": "uint256"
        }
      ],
      "stateMutability": "view",
      "type": "function"
    },
    {
      "inputs": [],
      "name": "getTotalPositions",
      "outputs": [
        {
          "internalType": "uint256",
          "name": "",
          "type": "uint256"
        }
      ],
      "stateMutability": "view",
      "type": "function"
    },
    {
      "inputs": [
        {
          "internalType": "address",
          "name": "trader",
          "type": "address"
        },
        {
          "internalType": "string",
          "name": "asset",
          "type": "string"
        }
      ],
      "name": "getUserNetPosition",
      "outputs": [
        {
          "internalType": "int256",
          "name": "",
          "type": "int256"
        }
      ],
      "stateMutability": "view",
      "type": "function"
    },
    {
      "inputs": [
        {
          "internalType": "string",
          "name": "asset",
          "type": "string"
        }
      ],
      "name": "getVolumeStats",
      "outputs": [
        {
          "internalType": "uint256",
          "name": "totalVolume",
          "type": "uint256"
        },
        {
          "internalType": "uint256",
          "name": "dailyVolume",
          "type": "uint256"
        }
      ],
      "stateMutability": "view",
      "type": "function"
    },
    {
      "inputs": [
        {
          "internalType": "uint256",
          "name": "positionId",
          "type": "uint256"
        },
        {
          "internalType": "uint128",
          "name": "additionalAmount",
          "type": "uint128"
        }
      ],
      "name": "increasePositionInternal",
      "outputs": [],
      "stateMutability": "nonpayable",
      "type": "function"
    },
    {
      "inputs": [],
      "name": "liquidationEngine",
      "outputs": [
        {
          "internalType": "contract ILiquidationEngine",
          "name": "",
          "type": "address"
        }
      ],
      "stateMutability": "view",
      "type": "function"
    },
    {
      "inputs": [
        {
          "internalType": "string",
          "name": "",
          "type": "string"
        }
      ],
      "name": "marketEnabled",
      "outputs": [
        {
          "internalType": "bool",
          "name": "",
          "type": "bool"
        }
      ],
      "stateMutability": "view",
      "type": "function"
    },
    {
      "inputs": [
        {
          "internalType": "string",
          "name": "",
          "type": "string"
        }
      ],
      "name": "marketInfo",
      "outputs": [
        {
          "internalType": "enum Market.MarketType",
          "name": "marketType",
          "type": "uint8"
        },
        {
          "internalType": "enum Market.MarketStatus",
          "name": "status",
          "type": "uint8"
        },
        {
          "internalType": "uint256",
          "name": "maxLeverage",
          "type": "uint256"
        },
        {
          "internalType": "uint256",
          "name": "maxPositionSize",
          "type": "uint256"
        },
        {
          "internalType": "uint256",
          "name": "takerFee",
          "type": "uint256"
        },
        {
          "internalType": "uint256",
          "name": "makerFee",
          "type": "uint256"
        },
        {
          "internalType": "uint256",
          "name": "minOrderSize",
          "type": "uint256"
        },
        {
          "internalType": "uint256",
          "name": "openInterestLong",
          "type": "uint256"
        },
        {
          "internalType": "uint256",
          "name": "openInterestShort",
          "type": "uint256"
        },
        {
          "internalType": "uint256",
          "name": "totalVolume",
          "type": "uint256"
        },
        {
          "internalType": "uint256",
          "name": "lastDailyVolumeReset",
          "type": "uint256"
        },
        {
          "internalType": "uint256",
          "name": "dailyVolume",
          "type": "uint256"
        }
      ],
      "stateMutability": "view",
      "type": "function"
    },
    {
      "inputs": [
        {
          "internalType": "string",
          "name": "",
          "type": "string"
        }
      ],
      "name": "maxSkew",
      "outputs": [
        {
          "internalType": "uint256",
          "name": "",
          "type": "uint256"
        }
      ],
      "stateMutability": "view",
      "type": "function"
    },
    {
      "inputs": [
        {
          "internalType": "string",
          "name": "asset",
          "type": "string"
        },
        {
          "internalType": "uint128",
          "name": "amount",
          "type": "uint128"
        },
        {
          "internalType": "uint128",
          "name": "leverage",
          "type": "uint128"
        },
        {
          "internalType": "bool",
          "name": "isLong",
          "type": "bool"
        }
      ],
      "name": "openPosition",
      "outputs": [],
      "stateMutability": "nonpayable",
      "type": "function"
    },
    {
      "inputs": [
        {
          "internalType": "address",
          "name": "trader",
          "type": "address"
        },
        {
          "internalType": "string",
          "name": "asset",
          "type": "string"
        },
        {
          "internalType": "uint128",
          "name": "amount",
          "type": "uint128"
        },
        {
          "internalType": "uint128",
          "name": "leverage",
          "type": "uint128"
        },
        {
          "internalType": "bool",
          "name": "isLong",
          "type": "bool"
        }
      ],
      "name": "openPositionInternal",
      "outputs": [
        {
          "internalType": "uint256",
          "name": "",
          "type": "uint256"
        }
      ],
      "stateMutability": "nonpayable",
      "type": "function"
    },
    {
      "inputs": [],
      "name": "oracle",
      "outputs": [
        {
          "internalType": "contract Oracle",
          "name": "",
          "type": "address"
        }
      ],
      "stateMutability": "view",
      "type": "function"
    },
    {
      "inputs": [],
      "name": "orderBook",
      "outputs": [
        {
          "internalType": "contract EnhancedOrderBook",
          "name": "",
          "type": "address"
        }
      ],
      "stateMutability": "view",
      "type": "function"
    },
    {
      "inputs": [],
      "name": "owner",
      "outputs": [
        {
          "internalType": "address",
          "name": "",
          "type": "address"
        }
      ],
      "stateMutability": "view",
      "type": "function"
    },
    {
      "inputs": [],
      "name": "positionManager",
      "outputs": [
        {
          "internalType": "address",
          "name": "",
          "type": "address"
        }
      ],
      "stateMutability": "view",
      "type": "function"
    },
    {
      "inputs": [
        {
          "internalType": "uint256",
          "name": "",
          "type": "uint256"
        }
      ],
      "name": "positions",
      "outputs": [
        {
          "internalType": "address",
          "name": "trader",
          "type": "address"
        },
        {
          "internalType": "string",
          "name": "asset",
          "type": "string"
        },
        {
          "internalType": "uint128",
          "name": "amount",
          "type": "uint128"
        },
        {
          "internalType": "uint128",
          "name": "entryPrice",
          "type": "uint128"
        },
        {
          "internalType": "uint128",
          "name": "leverage",
          "type": "uint128"
        },
        {
          "internalType": "int256",
          "name": "fundingIndex",
          "type": "int256"
        },
        {
          "internalType": "bool",
          "name": "isLong",
          "type": "bool"
        },
        {
          "internalType": "bool",
          "name": "isOpen",
          "type": "bool"
        },
        {
          "internalType": "uint256",
          "name": "openTimestamp",
          "type": "uint256"
        },
        {
          "internalType": "uint256",
          "name": "lastUpdateTimestamp",
          "type": "uint256"
        }
      ],
      "stateMutability": "view",
      "type": "function"
    },
    {
      "inputs": [
        {
          "internalType": "string[]",
          "name": "assets",
          "type": "string[]"
        }
      ],
      "name": "processFundingRates",
      "outputs": [],
      "stateMutability": "nonpayable",
      "type": "function"
    },
    {
      "inputs": [],
      "name": "securityModule",
      "outputs": [
        {
          "internalType": "contract SecurityModule",
          "name": "",
          "type": "address"
        }
      ],
      "stateMutability": "view",
      "type": "function"
    },
    {
      "inputs": [
        {
          "internalType": "address",
          "name": "_liquidationEngine",
          "type": "address"
        }
      ],
      "name": "setLiquidationEngine",
      "outputs": [],
      "stateMutability": "nonpayable",
      "type": "function"
    },
    {
      "inputs": [
        {
          "internalType": "string",
          "name": "asset",
          "type": "string"
        },
        {
          "internalType": "uint256",
          "name": "newMaxSkew",
          "type": "uint256"
        }
      ],
      "name": "setMaxSkew",
      "outputs": [],
      "stateMutability": "nonpayable",
      "type": "function"
    },
    {
      "inputs": [
        {
          "internalType": "address",
          "name": "_positionManager",
          "type": "address"
        }
      ],
      "name": "setPositionManager",
      "outputs": [],
      "stateMutability": "nonpayable",
      "type": "function"
    },
    {
      "inputs": [
        {
          "internalType": "address",
          "name": "trader",
          "type": "address"
        },
        {
          "internalType": "string",
          "name": "asset",
          "type": "string"
        }
      ],
      "name": "settleFundingPayments",
      "outputs": [
        {
          "internalType": "int256",
          "name": "",
          "type": "int256"
        }
      ],
      "stateMutability": "nonpayable",
      "type": "function"
    },
    {
      "inputs": [
        {
          "internalType": "address",
          "name": "newOwner",
          "type": "address"
        }
      ],
      "name": "transferOwnership",
      "outputs": [],
      "stateMutability": "nonpayable",
      "type": "function"
    },
    {
      "inputs": [
        {
          "internalType": "string",
          "name": "asset",
          "type": "string"
        },
        {
          "internalType": "enum Market.MarketStatus",
          "name": "status",
          "type": "uint8"
        },
        {
          "internalType": "uint256",
          "name": "maxLeverage",
          "type": "uint256"
        },
        {
          "internalType": "uint256",
          "name": "maxPositionSize",
          "type": "uint256"
        }
      ],
      "name": "updateMarket",
      "outputs": [],
      "stateMutability": "nonpayable",
      "type": "function"
    },
    {
      "inputs": [
        {
          "internalType": "string",
          "name": "",
          "type": "string"
        },
        {
          "internalType": "address",
          "name": "",
          "type": "address"
        }
      ],
      "name": "userNetPosition",
      "outputs": [
        {
          "internalType": "int256",
          "name": "",
          "type": "int256"
        }
      ],
      "stateMutability": "view",
      "type": "function"
    },
    {
      "inputs": [
        {
          "internalType": "address",
          "name": "",
          "type": "address"
        },
        {
          "internalType": "uint256",
          "name": "",
          "type": "uint256"
        }
      ],
      "name": "userPositions",
      "outputs": [
        {
          "internalType": "uint256",
          "name": "",
          "type": "uint256"
        }
      ],
      "stateMutability": "view",
      "type": "function"
    },
    {
      "inputs": [
        {
          "internalType": "address",
          "name": "",
          "type": "address"
        }
      ],
      "name": "userTradeCount",
      "outputs": [
        {
          "internalType": "uint256",
          "name": "",
          "type": "uint256"
        }
      ],
      "stateMutability": "view",
      "type": "function"
    }
  ],
  "bytecode": "0x6080346200038257601f62005ac538819003918201601f191683019291906001600160401b038411838510176200038757816101009284926040968752833981010312620003825762000052816200039d565b602090620000628284016200039d565b92620000708582016200039d565b6200007e606083016200039d565b6200008c608084016200039d565b906200009b60a085016200039d565b92620000b860e0620000b060c088016200039d565b96016200039d565b6001600160a01b039687169890969089156200033e57811691821562000305578116928315620002d05781169384156200028c5781169485156200024857811695861562000204578116968715620001c057169687156200017d575060018060a01b03199788600054161760005587600154161760015586600354161760035585600454161760045584600254161760025583600554161760055582600654161760065581600854161760085533906009541617600955516157129081620003b38239f35b6064908a519062461bcd60e51b82526004820152601560248201527f496e76616c6964206576656e7420656d697474657200000000000000000000006044820152fd5b8a5162461bcd60e51b8152600481018a9052601c60248201527f496e76616c69642066756e64696e672072617465206d616e61676572000000006044820152606490fd5b8a5162461bcd60e51b8152600481018a9052601c60248201527f496e76616c69642063726f73732d6d617267696e206163636f756e74000000006044820152606490fd5b8a5162461bcd60e51b8152600481018a9052601a60248201527f496e76616c696420636f6c6c61746572616c206d616e616765720000000000006044820152606490fd5b8a5162461bcd60e51b8152600481018a9052601760248201527f496e76616c6964207365637572697479206d6f64756c650000000000000000006044820152606490fd5b8a5162461bcd60e51b8152600481018a9052600e60248201526d496e76616c6964206f7261636c6560901b6044820152606490fd5b8a5162461bcd60e51b8152600481018a90526012602482015271496e76616c6964206f7264657220626f6f6b60701b6044820152606490fd5b8a5162461bcd60e51b8152600481018a9052601660248201527f496e76616c6964206173736574207265676973747279000000000000000000006044820152606490fd5b600080fd5b634e487b7160e01b600052604160045260246000fd5b51906001600160a01b0382168203620003825756fe608080604052600436101561001357600080fd5b600090813560e01c90816302b0bde814614aec5750806305d462da14614a9b5780630790fb0b14614a1c5780630d97bf72146149f357806316236999146149a95780631dbc52361461488e578063209edf9d1461434457806323be345c1461431b5780632c854f2314614281578063377ab7351461403f578063380ef3fe1461401657806344bf3c7214613fed5780634a95e67d14613fc45780634d298abd14613f735780634eda716b14613f21578063509d169c14613e1f57806356741b4b14613cba5780635760f2e314613c69578063584b8da4146130645780635e1b4d991461300e57806369c7494c14612f5057806376dc71be14612f32578063776af5ba14612f09578063791b98bc14612ee05780637dc0d1d014612eb757806381823a2214612e17578063863729401461260f57806387760fa7146124c55780638da5cb5b1461249c578063978c75e2146122c5578063979d7e861461229e57806399fbab88146121c75780639ecceb5e146121285780639ff78c30146120ff578063a126d6011461199c578063a236abcb1461182f578063b163c8a1146117bd578063b62daea114611732578063beb73b63146116ec578063c3d8e09a14610c37578063c814cb6214610bf1578063ce1d32e614610b1a578063d5694f6d1461035a578063e11081dd14610312578063f2fde38b1461027f5763ff9c6f5b1461021b57600080fd5b3461027c57602036600319011261027c57600435906001600160401b03821161027c57602060ff610266826102533660048801614bf6565b8160405193828580945193849201614c55565b8101600e81520301902054166040519015158152f35b80fd5b503461027c57602036600319011261027c57610299614b22565b6009546001600160a01b03808216923384900361030157169182156102ef5782907f8be0079c531659141344cd1fd0a4f28419497f9722a3daafe3b4186f6b6457e08580a36001600160a01b0319161760095580f35b604051630309cb8760e51b8152600490fd5b6040516282b42960e81b8152600490fd5b503461027c57602036600319011261027c57600435906001600160401b03821161027c57604061034e6103483660048601614cb3565b90615635565b82519182526020820152f35b503461027c57604036600319011261027c57610374614ce0565b600a546001600160a01b031633141580610b05575b61030157600b546004351015610af3576103a4600435614db8565b5060ff600582015460081c1615610ae15760ff6040516020816103ca81600187016151a1565b600e815203019020541615610abb5760ff6040516020816103ee81600187016151a1565b600d8152030190205460081c166003811015610acd57610abb578254604051630cd5286d60e41b8152602060048201529190849083906001600160a01b0316818061043f6024820160018801614e2c565b03915afa918215610a8e5761048c926040918691610a99575b50602060018060a01b0360035416910151908251808096819463524f388960e01b8352602060048401526024830190614ec2565b03915afa8015610a8e5784928591610a4a575b506104b66001600160801b03610e10921642615050565b11610a38576002810154916001600160801b036105066104f26104de8660801c848816615080565b6104ec848616858a16615080565b90615073565b610500838816848816615073565b90615093565b16926001600160801b038086168183160111610a2457608084901b6001600160801b0319166001600160801b03828116878216011617600284015542600784015560ff60405160208161055c81600189016151a1565b600d81520301902054166002811015610a10576001146107f1575b506305f5e1006106186001600160801b036106399360ff600587015416600014610780576040516020816105ae8160018b016151a1565b601081520301902060018060a01b0387541660005260205260406000206105d8838a168254615101565b905560066040516020816105ef8160018c016151a1565b600d81520301902001610605838a168254615073565b90555b166001600160801b038716615080565b046040516106348161062d8160018801614e2c565b0382614b83565b615563565b60ff60405160208161064e81600187016151a1565b600d8152030190205416600281101561076c576001146106bb575b60026001600160801b03910154166001600160801b0360405193168352602083015260408201527fdfd14fb271a1eda29e513020fcb919568b6407016dfb5aeae179f83fb032b88d606060043592a280f35b8360018060a01b036006541660066040516020816106dc81600189016151a1565b600d815203019020015460076040516020816106fb8160018a016151a1565b600d8152030190200154823b1561075d5761073392849283604051809681958294631ebe41a760e11b845260018c01600485016152d5565b03925af1801561076157610749575b5050610669565b61075290614b38565b61075d578338610742565b8380fd5b6040513d84823e3d90fd5b634e487b7160e01b85526021600452602485fd5b6040516020816107938160018b016151a1565b601081520301902060018060a01b0387541660005260205260406000206107bd838a1682546150e8565b905560076040516020816107d48160018c016151a1565b600d815203019020016107ea838a168254615073565b9055610608565b60065460405163607b771960e11b8152602060048201819052909182906001600160a01b031681806108296024820160018b01614e2c565b03915afa908115610a055787916109d3575b50600484019161084c8354836150e8565b9060ff6005870154166000146109af5761087c610882926001600160801b03670de0b6b3a76400009316906152ed565b05615310565b915b6040516020816108978160018a016151a1565b601281520301902060018060a01b0386541660005260205260406000206108bf848254615101565b90555582546006546040516335c59e1760e21b81526020600482018190526001600160a01b039384169491939192909184911681806109046024820160018c01614e2c565b03915afa9182156109a4578892610969575b50610639936305f5e10093610618936000805160206156bd83398151915260406001600160801b039560018b610951845180938193016151a1565b0390209382519182526020820152a393505050610577565b9091506020813d60201161099c575b8161098560209383614b83565b81010312610997575190610639610916565b600080fd5b3d9150610978565b6040513d8a823e3d90fd5b670de0b6b3a7640000916001600160801b036109cc9216906152ed565b0591610884565b90506020813d6020116109fd575b816109ee60209383614b83565b8101031261099757513861083b565b3d91506109e1565b6040513d89823e3d90fd5b634e487b7160e01b87526021600452602487fd5b634e487b7160e01b86526011600452602486fd5b604051630cd5fa0760e11b8152600490fd5b6001600160801b039350610e109150610a7d6104b69160403d604011610a87575b610a758183614b83565b81019061502f565b909450915061049f565b503d610a6b565b6040513d86823e3d90fd5b610ab591503d8088833e610aad8183614b83565b810190614f36565b38610458565b6040516352a422f760e01b8152600490fd5b634e487b7160e01b84526021600452602484fd5b6040516394e88a2160e01b8152600490fd5b604051637bb0b62160e01b8152600490fd5b506009546001600160a01b0316331415610389565b503461027c57602036600319011261027c57600435906001600160401b03821161027c576101806020610b54816102533660048801614bf6565b8101600d8152030190208054906001810154600282015460038301546004840154600585015490600686015492600787015494600888015496610bb9600a60098b01549a01549a60ff6040519d8e610bae81848616614d9e565b019160081c16614dab565b60408b015260608a0152608089015260a088015260c087015260e0860152610100850152610120840152610140830152610160820152f35b503461027c576020610c0236614d2d565b919290826040519384928337810160128152030190209060018060a01b03166000526020526020604060002054604051908152f35b503461027c5760a036600319011261027c57610c51614b22565b6024356001600160401b03811161145757610c70903690600401614cb3565b90610c79614cf6565b906001600160801b0360643516606435036109975760843515156084350361099757600a546001600160a01b0316331415806116d7575b6103015760ff60405184838237600e8582015260208186810103019020541615610abb5760ff60405184838237602081868101600d8152030190205460081c1660038110156116c357610abb5760018060a01b0360045416604051635c975abb60e01b8152602081600481855afa908115610a05578791611689575b50610abb57602060405180926382db485760e01b82528260048301528180610d58602482018a89614fcf565b03915afa90811561139a57869161164f575b50610abb578454604051630cd5286d60e41b8152602060048201529390869085906001600160a01b03168180610da4602482018789614fcf565b03915afa93841561139a57610df1946040918891611635575b50602060018060a01b0360035416910151908251808098819463524f388960e01b8352602060048401526024830190614ec2565b03915afa801561139a5786948791611601575b50610e1b6001600160801b03610e10921642615050565b11610a3857600b549460ff60405183858237602081858101600d815203019020541660028110156113a9576001036115fb5760065460405163607b771960e11b8152602060048201819052909182906001600160a01b03168180610e8360248201898b614fcf565b03915afa9081156109a45788916115c9575b505b60405190610ea482614b67565b6001600160a01b0383168252610ebb368587614bbf565b60208301526001600160801b03861660408301526001600160801b03871660608301526001600160801b0360643516608083015260a0820152608435151560c0820152600160e08201524261010082015242610120820152600160401b87101561159d5760018701600b55610f2f87614db8565b9190916115b357805182546001600160a01b0319166001600160a01b039190911617825560208101518051906001600160401b03821161159d57610f766001850154614df2565b601f8111611556575b50602090601f83116001146114e057918060079492610120946000926114d5575b50508160011b916000199060031b1c19161760018501555b604081015160608201516001600160801b039091166001600160801b031960809290921b821617600286015560038501906001600160801b036080840151169082541617905560a081015160048501556110466005850161102b60c08401511515829060ff801983541691151516179055565b60e0830151815461ff00191690151560081b61ff0016179055565b610100810151600685015501519101556001600160a01b0381168752600c602052604087206110769087906150b3565b608435156114635760405182848237602081848101601081520301902060018060a01b03821660005260205260406000206110bb6001600160801b0386168254615101565b9055600660405183858237602081858101600d815203019020016110e96001600160801b0386168254615073565b90555b61111c6305f5e1006111106001600160801b0388166001600160801b038816615080565b04610634368587614bbf565b6001600160a01b0381168752601160205260408720805461113c9061511d565b905560055460405163c8e40fbf60e01b81526001600160a01b03838116600483015289921690602081602481855afa9081156112f1578391611425575b50156113d5575b506005546001600160a01b0316803b156112ed5760405163029f274560e51b81526001600160a01b0384166004820152602481018990529082908290604490829084905af18015610761576113bd575b505060ff60405183858237602081858101600d815203019020541660028110156113a957906001889594939214611300575b6040518284823760008184019081528190039020604080516001600160801b03878116825289811660208301526064351691810191909152608435151560608201526001600160a01b0383169089907ff59d14d619702329ad5e0feacd8e0d848879d9319e93677cc92a9baa25eebfc290608090a46008546001600160a01b031692833b156112fc576112bf869289604051998a98899788966311cdb45360e01b88526001600160801b0360643516956084359560048a01615150565b03925af180156112f1576112d9575b602082604051908152f35b6112e38391614b38565b6112ed57816112ce565b5080fd5b6040513d85823e3d90fd5b8580fd5b60018060a01b0360065416600660405184868237602081868101600d8152030190200154600760405185878237602081878101600d8152030190200154823b156113a55761136992889283604051809681958294631ebe41a760e11b84528b8d6004860161512c565b03925af190811561139a578691611382575b5050611202565b61138b90614b38565b61139657843861137b565b8480fd5b6040513d88823e3d90fd5b8780fd5b634e487b7160e01b88526021600452602488fd5b6113c690614b38565b6113d15786386111d0565b8680fd5b803b156112ed57604051639859387b60e01b81526001600160a01b03841660048201529082908290602490829084905af1801561076157156111805761141a90614b38565b6113d1578638611180565b90506020813d60201161145b575b8161144060209383614b83565b810103126114575761145190614f29565b38611179565b8280fd5b3d9150611433565b60405182848237602081848101601081520301902060018060a01b03821660005260205260406000206114a06001600160801b03861682546150e8565b9055600760405183858237602081858101600d815203019020016114ce6001600160801b0386168254615073565b90556110ec565b015190503880610fa0565b906001850160005260206000209160005b601f198516811061153e575092600794926001926101209583601f19811610611525575b505050811b016001850155610fb8565b015160001960f88460031b161c19169055388080611515565b919260206001819286850151815501940192016114f1565b600185016000526020600020601f840160051c810160208510611596575b601f830160051c8201811061158a575050610f7f565b60008155600101611574565b5080611574565b634e487b7160e01b600052604160045260246000fd5b634e487b7160e01b600052600060045260246000fd5b90506020813d6020116115f3575b816115e460209383614b83565b81010312610997575138610e95565b3d91506115d7565b86610e97565b6001600160801b039550610e10915061162b610e1b9160403d604011610a8757610a758183614b83565b9096509150610e04565b61164991503d808a833e610aad8183614b83565b38610dbd565b90506020813d602011611681575b8161166a60209383614b83565b810103126112fc5761167b90614f29565b38610d6a565b3d915061165d565b90506020813d6020116116bb575b816116a460209383614b83565b810103126113d1576116b590614f29565b38610d2c565b3d9150611697565b634e487b7160e01b86526021600452602486fd5b506009546001600160a01b0316331415610cb0565b503461027c5760206116fd36614d2d565b919290826040519384928337810160108152030190209060018060a01b03166000526020526020604060002054604051908152f35b503461027c5761174136614d2d565b600a546001600160a01b0394929391908516331415806117af575b610301576020946040518286823786818481016012815203019020921691826000528552846040600020549482604051938492833781016012815203019020906000528352604060002055604051908152f35b50846009541633141561175c565b503461027c57602036600319011261027c57600435906001600160401b03821161027c57604060076117f23660048601614cb3565b602060068594939451838682378281858101600d81520301902001549382865193849283378101600d815203019020015482519182526020820152f35b503461027c576020806003193601126112ed576001600160401b039060043582811161075d573660238201121561075d57806004013592831161075d57602490818101908236918660051b01011161139657845b84811061188e578580f35b61189981868461567b565b806040519283378101600e8152818660ff93849303019020541615908115611951575b506119485760065484906119069082906001600160a01b03166118e0858a8861567b565b8b6040939293518096819582946301969d3760e71b84528860048501528d840191614fcf565b03925af161191f575b505061191a9061511d565b611883565b813d8311611941575b6119328183614b83565b8101031261099757833861190f565b503d611928565b61191a9061511d565b90508461195f83888661567b565b91908260405193849283378101600d815203019020541660028110156119895760011415386118bc565b634e487b7160e01b875260216004528387fd5b503461027c57602036600319011261027c57600b546004351015610af3576119c5600435614db8565b5080546001600160a01b031691903383036120ed5760ff600582015460081c1615610ae15760ff6040516020816119ff81600187016151a1565b600e815203019020541615610abb578154604051630cd5286d60e41b81526020600482015290839082906001600160a01b03168180611a446024820160018901614e2c565b03915afa9081156112f157611a91929160409185916120d95750602060018060a01b0360035416910151908251808096819463524f388960e01b8352602060048401526024830190614ec2565b03915afa80156112f157839284916120a5575b50611abb6001600160801b03610e10921642615050565b11610a3857611ad282611acd83615223565b61533a565b9460ff604051602081611ae881600189016151a1565b600d815203019020541660028110156116c357600114611f43575b506005828101805461ff00191690555482546001600160a01b039182169116813b156112fc5760405163c891ba2560e01b81526001600160a01b03919091166004808301919091523560248201529085908290604490829084905af18015611f3857908591611f24575b5050611c729060ff600584015416600014611ed4576001600160801b03600284015416604051602081611ba381600189016151a1565b601081520301902060018060a01b03855416600052602052611bcb60406000209182546150e8565b90555b611c7d604051602081611be481600189016151a1565b600d8152030190209660ff600586015416600014611eb0576001600160801b03600286015416611c1960068a01918254615050565b90555b611c786305f5e100611c456001600160801b036002890154166001600160801b038a1690615080565b0491612710611c5860038c015485615080565b0495869360016106348a61062d6040518094819301614e2c565b84615101565b6150e8565b60018060a01b036002541660018060a01b03855416611cb76001600160801b036002880154166001600160801b03600389015416906152bd565b90823b15611eac5760405163ef74f21960e01b81526001600160a01b0390911660048201526001600160801b0390911660248201526044810192909252869082908183816064810103925af1801561139a57908691611e98575b505060ff8654169560028710156116c3576001869714611e28575b5060018060a01b03835416908160405180611d4a81600189016151a1565b03902091604051906001600160801b038816825260208201528460408201527f38d8e4a329bd3e0cd31459fc0580875db3c15175abf26f89646d75904f13f631606060043592a460018060a01b0360085416906001600160801b0360028501541692823b156113d1578694611deb9286926001600160801b03604051998a9889978896630671925360e01b885260c06004890152600160c489019101614e2c565b946024870152604486015216606484015283608484015260a483015203925af1801561076157611e185750f35b611e2190614b38565b61027c5780f35b60018060a01b03600654169060076006820154910154823b156113a557611e6c92889283604051809681958294631ebe41a760e11b845260018d01600485016152d5565b03925af190811561139a578691611e84575b50611d2c565b611e8d90614b38565b611396578438611e7e565b611ea190614b38565b611396578438611d11565b8880fd5b6001600160801b03600286015416611ecd60078a01918254615050565b9055611c1c565b6001600160801b03600284015416604051602081611ef581600189016151a1565b601081520301902060018060a01b03855416600052602052611f1d6040600020918254615101565b9055611bce565b611f2d90614b38565b61075d578338611b6d565b6040513d87823e3d90fd5b604051602081611f5681600188016151a1565b6012815203019020906000526020526040600020611f75868254615101565b905560065482546001600160a01b039182169116813b156112fc578590604051928391632dd49e6760e11b8352600483015260406024830152818381611fc16044820160018b01614e2c565b03925af18015611f3857908591612091575b505081546006546040516335c59e1760e21b81526020600482018190526001600160a01b03938416939192909183911681806120156024820160018b01614e2c565b03915afa90811561139a57869161205f575b506000805160206156bd83398151915260408051806120498160018a016151a1565b039020928151908a82526020820152a338611b03565b90506020813d602011612089575b8161207a60209383614b83565b81010312610997575138612027565b3d915061206d565b61209a90614b38565b61075d578338611fd3565b6001600160801b039350610e1091506120cf611abb9160403d604011610a8757610a758183614b83565b9094509150611aa4565b610ab591503d8087833e610aad8183614b83565b6040516370d645e360e01b8152600490fd5b503461027c578060031936011261027c576008546040516001600160a01b039091168152602090f35b503461027c57602036600319011261027c576001612147600435614db8565b50818060a01b038154169060ff60028201549161217a6005820154916121736040518098819301614e2c565b0386614b83565b612196604051958695865260c0602087015260c0860190614ec2565b926001600160801b038116604086015260801c60608501528181161515608085015260081c16151560a08301520390f35b503461027c57602036600319011261027c57600435600b548110156112ed576121ef90614db8565b5060018060a01b03815416604051916122168361220f8160018501614e2c565b0384614b83565b60028101546001600160801b039160ff836003830154166004830154600584015491600760068601549501549561225f6040519a8b9a8b526101408060208d01528b0190614ec2565b97811660408a015260801c6060890152608088015260a0870152818116151560c087015260081c16151560e08501526101008401526101208301520390f35b503461027c578060031936011261027c57546040516001600160a01b039091168152602090f35b503461027c57602036600319011261027c576004356001600160401b0381116112ed576122f86020913690600401614cb3565b9261016060405161230881614b4b565b82815282858201528260408201528260608201528260808201528260a08201528260c08201528260e082015282610100820152826101208201528261014082015201528260405193849283378101600d81520301902060405161236a81614b4b565b60ff825461237a82821684614ff0565b60081c1660038110156124865761018092600a916020840152600181015460408401526002810154606084015260038101546080840152600481015460a0840152600581015460c0840152600681015460e084015260078101546101008401526008810154610120840152600981015461014084015201546101608201526101606040519161240a838251614d9e565b61241c60208201516020850190614dab565b60408101516040840152606081015160608401526080810151608084015260a081015160a084015260c081015160c084015260e081015160e08401526101008101516101008401526101208101516101208401526101408101516101408401520151610160820152f35b634e487b7160e01b600052602160045260246000fd5b503461027c578060031936011261027c576009546040516001600160a01b039091168152602090f35b503461027c576020908160031936011261027c576001600160a01b036124e9614b22565b168152600c825260408120916040518093849183825491828152019185528385209385905b8282106125f55750505061252492500383614b83565b80815b83518110156125765760ff600561254761254184886155d8565b51614db8565b50015460081c16612561575b61255c9061511d565b612527565b9061256e61255c9161511d565b919050612553565b506125818391615603565b91805b82518110156125e35760ff600561259e61254184876155d8565b50015460081c166125b8575b6125b39061511d565b612584565b906125db6125b3916125ca84866155d8565b516125d582886155d8565b5261511d565b9190506125aa565b604051806125f18682614c78565b0390f35b85548452600195860195889550938101939091019061250e565b503461027c57606036600319011261027c57612629614ce0565b6044356001600160a01b0381169081900361099757600a546001600160a01b031633141580612e02575b61030157600b546004351015610af35761266e600435614db8565b5080546001600160a01b03169182036120ed5760ff600582015460081c1615610ae1576001600160801b0360028201541690816001600160801b038516116102ef5760ff6040516020816126c581600187016151a1565b600e815203019020541615610abb578454604051630cd5286d60e41b81526020600482015290869082906001600160a01b0316818061270a6024820160018901614e2c565b03915afa90811561139a57612757916040918891612de8575b50602060018060a01b0360035416910151908251808095819463524f388960e01b8352602060048401526024830190614ec2565b03915afa801561139a5786918791612db4575b506127816001600160801b03610e10921642615050565b11610a385761279381611acd84615223565b936001600160801b038716670de0b6b3a76400006001600160801b0389160204670de0b6b3a7640000146001600160801b038816151715612da057670de0b6b3a764000091826127fb6127f461280294836001600160801b038d1602615093565b80936152ed565b05956152ed565b059360ff60405160208161281981600189016151a1565b600d815203019020541660028110156113a957600114612c30575b50600582015460ff1615612bb15760405160208161285581600187016151a1565b601081520301902060018060a01b0383541660005260205260406000206128866001600160801b03871682546150e8565b9055600660405160208161289d81600188016151a1565b600d815203019020016128ba6001600160801b0387168254615050565b90555b6305f5e1006128de6001600160801b0383166001600160801b038816615080565b049361292461271061290e60036040516020816128fe8160018c016151a1565b600d815203019020015488615080565b04956040516106348161062d8160018a01614e2c565b60028301546001600160801b0361293d88828416615321565b1680916001600160801b03191617600285015542600785015515612b2f575b60ff60405160208161297181600189016151a1565b600d815203019020541660028110156113a95790856001899314612a84575b611c7861299d9287615101565b60018060a01b0360025416906129c06001600160801b03600387015416896152bd565b90823b1561075d5760405163ef74f21960e01b8152604480356001600160a01b031660048301526001600160801b039390931660248201529182015290829082908183816064810103925af1801561076157612a70575b50506001600160801b036002819301541682604051961686526020860152166040840152606083015260808201527fdced5c95b2ac1197bb53881ef0e0d366dbed116c71f0178faebca25ebb7e1b5c60a060043592a280f35b612a7990614b38565b6112fc578538612a17565b5060018060a01b03600654166006604051602081612aa58160018b016151a1565b600d8152030190200154906007604051602081612ac58160018c016151a1565b600d815203019020015491813b1561139657849160018389612afe60405197889687958694631ebe41a760e11b865201600485016152d5565b03925af180156112f15787918491612b18575b5050612990565b612b23919250614b38565b6112ed57858238612b11565b6005838101805461ff001916905554835488916001600160a01b039182169116803b156114575760405163c891ba2560e01b81526001600160a01b039290921660048084019190915235602483015282908290604490829084905af1801561076157612b9d575b505061295c565b612ba690614b38565b6113d1578638612b96565b604051602081612bc481600187016151a1565b601081520301902060018060a01b038354166000526020526040600020612bf56001600160801b0387168254615101565b90556007604051602081612c0c81600188016151a1565b600d81520301902001612c296001600160801b0387168254615050565b90556128bd565b604051602081612c4381600188016151a1565b6012815203019020906000526020526040600020612c62858254615101565b905560065460405163607b771960e11b8152602060048201819052909182906001600160a01b03168180612c9c6024820160018a01614e2c565b03915afa908115610a05578791612d6e575b50600483015560018060a01b0382541660018060a01b0360065416602060405180926335c59e1760e21b82528260048301528180612cf26024820160018b01614e2c565b03915afa9081156109a4578891612d3c575b506000805160206156bd8339815191526040805180612d268160018a016151a1565b039020928151908982526020820152a338612834565b90506020813d602011612d66575b81612d5760209383614b83565b81010312610997575138612d04565b3d9150612d4a565b90506020813d602011612d98575b81612d8960209383614b83565b81010312610997575138612cae565b3d9150612d7c565b634e487b7160e01b88526011600452602488fd5b6001600160801b039250610e109150612dde6127819160403d604011610a8757610a758183614b83565b909350915061276a565b612dfc91503d808a833e610aad8183614b83565b38612723565b506009546001600160a01b0316331415612653565b503461027c57604036600319011261027c576004356001600160401b0381116112ed57612e48903690600401614cb3565b60095460243592906001600160a01b03163303610301577f31b640d888ca92ef4f5c09ef9daabdde11b6bdf8829be31dbb9e8982aea8f5119160209184604051838382378481858101600f8152030190205581604051928392833781016000815203902092604051908152a280f35b503461027c578060031936011261027c576003546040516001600160a01b039091168152602090f35b503461027c578060031936011261027c57600a546040516001600160a01b039091168152602090f35b503461027c578060031936011261027c576001546040516001600160a01b039091168152602090f35b503461027c578060031936011261027c576020600b54604051908152f35b503461027c576020908160031936011261027c576004356001600160401b0381116112ed5782612f87612fb6923690600401614cb3565b60018060a01b036006541690604051809581948293631a71d25360e21b84528760048501526024840191614fcf565b03915afa918215613002578092612fd2575b5050604051908152f35b9091508282813d8311612ffb575b612fea8183614b83565b8101031261027c5750513880612fc8565b503d612fe0565b604051903d90823e3d90fd5b503461027c57604036600319011261027c57613028614b22565b6001600160a01b03168152600c602052604081208054602435929083101561027c5760206130568484614d70565b90546040519160031b1c8152f35b503461027c57608036600319011261027c576004356001600160401b0381116112ed57613095903690600401614cb3565b909161309f614ce0565b6130a7614cf6565b92606435151560643503610997576130c0368287614bbf565b60405160ff825191602081818601946130da818388614c55565b8101600e815203019020541615610abb57613104602060ff92604051809381928751928391614c55565b8101600d8152030190205460081c16600381101561076c57610abb5760018060a01b0360045416604051635c975abb60e01b8152602081600481855afa90811561139a578691613c2f575b50610abb5761317d9160209160405180809581946382db485760e01b83528660048401526024830190614ec2565b03915afa908115610a8e578491613bf5575b50610abb576001600160801b038216156102ef57600560405182878237602081848101600d81520301902001546001600160801b03831610613be35760405181868237602081838101600d8152030190209360018501546001600160801b03821611613bd15760ff85541695600287101561076c57861580613bbd575b6102ef576001600160801b0382166001600160801b03851602806001600160801b03811603610a245760028701546001600160801b03821611613bab578554604051630cd5286d60e41b815260206004820152989087908a906001600160a01b0316818061327e602482018b8a614fcf565b03915afa988915610a05578798996040916132ce989991613b91575b50602060018060a01b036003541691015190825180809a819463524f388960e01b8352602060048401526024830190614ec2565b03915afa80156109a45788968991613b5d575b506132f86001600160801b03610e10921642615050565b11610a3857600114613a3c575b6002546001600160a01b0316803b156113a5578780916044604051809481936347a7d10760e01b83523360048401526001600160801b038d1660248401525af180156109a457908891613a28575b5050600b549560ff8954166002811015613a1457600103613a0e5760065460405163607b771960e11b8152602060048201819052909182906001600160a01b031681806133a4602482018c8b614fcf565b03915afa9081156138a15789916139dc575b505b604051906133c582614b67565b3382526133d3368887614bbf565b60208301526001600160801b03841660408301526001600160801b03881660608301526001600160801b038616608083015260a0820152606435151560c0820152600160e08201524261010082015242610120820152600160401b88101561159d5760018801600b5561344588614db8565b9190916115b357805182546001600160a01b0319166001600160a01b039190911617825560208101518051906001600160401b03821161159d5761348c6001850154614df2565b601f8111613995575b50602090601f8311600114613912576101206135fb948461360798956305f5e1009895600795600092613907575b50508160011b916000199060031b1c19161760018501555b604081015160608201516001600160801b039091166001600160801b031960809290921b821617600286015560038501906001600160801b036080840151169082541617905560a0810151600485015561354e6005850161102b60c08401511515829060ff801983541691151516179055565b61010081015160068501550151910155338b52600c6020526135738a60408d206150b3565b606435156138cb57604051888782376020818a810160108152030190203360005260205260406000206135b06001600160801b0387168254615101565b90555b606435156138ac5760068c016135d36001600160801b0387168254615073565b90555b6135f66001600160801b038a16916001600160801b03808a169116615080565b615080565b04610634368786614bbf565b33875260116020526040872061361d815461511d565b905560055460405163c8e40fbf60e01b81523360048201526001600160a01b0390911690602081602481855afa9081156138a1578991613867575b501561381a575b506005546001600160a01b0316803b156113a55760405163029f274560e51b8152336004820152602481018890529088908290604490829084905af180156109a457908891613806575b505060ff8854169760028910156113a9576001889914613794575b506040518483823760008186019081528190039020604080516001600160801b038481168252888116602083015286169181019190915260643515156060820152339088907ff59d14d619702329ad5e0feacd8e0d848879d9319e93677cc92a9baa25eebfc290608090a46008546001600160a01b031692833b156113a5576137836001600160801b039389979388946040519a8b998a9889976311cdb45360e01b895216946001600160801b03606435951692339060048a01615150565b03925af1801561076157611e185750f35b60018060a01b03600654169060076006820154910154823b15613802576137d6928a9283604051809681958294631ebe41a760e11b84528d8c6004860161512c565b03925af19081156109a45788916137ee575b506136c4565b6137f790614b38565b6113d15786386137e8565b8980fd5b61380f90614b38565b6113d15786386136a9565b803b156113a557878091602460405180948193639859387b60e01b83523360048401525af180156109a457908891613853575b5061365f565b61385c90614b38565b6113d157863861384d565b90506020813d602011613899575b8161388260209383614b83565b81010312611eac5761389390614f29565b38613658565b3d9150613875565b6040513d8b823e3d90fd5b60078c016138c46001600160801b0387168254615073565b90556135d6565b604051888782376020818a810160108152030190203360005260205260406000206139006001600160801b03871682546150e8565b90556135b3565b0151905038806134c3565b906001850160005260206000209160005b601f198516811061397d57506135fb946001856305f5e1009895600795610120956136079c99601f19811610613964575b505050811b0160018501556134db565b015160001960f88460031b161c19169055388080613954565b91926020600181928685015181550194019201613923565b600185016000526020600020601f840160051c8101602085106139d5575b601f830160051c820181106139c9575050613495565b600081556001016139b3565b50806139b3565b90506020813d602011613a06575b816139f760209383614b83565b810103126109975751386133b6565b3d91506139ea565b876133b8565b634e487b7160e01b89526021600452602489fd5b613a3190614b38565b6113d1578638613353565b600688015460078901549060643515613b4257613a63906001600160801b03841690615073565b60405186858237602081888101600f81520301902054613a85575b5050613305565b613a8f8282615073565b9081613a9c575b50613a7e565b606481029080820460641490151715613b2e5781613ab991615093565b9180606481020460641481151715613b2e57906064613ad89202615093565b9081811115613b205790613aeb91615050565b60405185848237602081878101600f8152030190205410613b0e57388080613a96565b604051637b28c03360e11b8152600490fd5b613b2991615050565b613aeb565b634e487b7160e01b8a52601160045260248afd5b90613b57906001600160801b03841690615073565b90613a63565b6001600160801b039750610e109150613b876132f89160403d604011610a8757610a758183614b83565b90985091506132e1565b613ba591503d808c833e610aad8183614b83565b3861329a565b6040516338a59b6b60e11b8152600490fd5b5060016001600160801b038316141561320c565b604051636e2d7c1d60e11b8152600490fd5b604051636cfc00a760e11b8152600490fd5b90506020813d602011613c27575b81613c1060209383614b83565b8101031261075d57613c2190614f29565b3861318f565b3d9150613c03565b90506020813d602011613c61575b81613c4a60209383614b83565b810103126112fc57613c5b90614f29565b3861314f565b3d9150613c3d565b503461027c57602036600319011261027c57613c83614b22565b6009546001600160a01b03919082163303610301571680156102ef576bffffffffffffffffffffffff60a01b600a541617600a5580f35b503461027c57613cc936614d2d565b929160018060a01b03168252602092600c84526040832091604051808487829654938481520190875287872092875b89828210613e0957505050613d0f92500384614b83565b8392845b8151811015613d7f576001613d3f613d2e61254184866155d8565b5061062d6040518094819301614e2c565b878151910120613d50368686614bbf565b88815191012014613d6a575b613d659061511d565b613d13565b93613d77613d659161511d565b949050613d5c565b5091909392613d8d90615603565b94835b8351811015613dfb576001613dab613d2e61254184886155d8565b828151910120613dbc368589614bbf565b83815191012014613dd6575b613dd19061511d565b613d90565b93613df3613dd191613de887876155d8565b516125d5828b6155d8565b949050613dc8565b604051806125f18982614c78565b8554845260019586019589955093019201613cf8565b503461027c576003196040368201126112ed57600435906001600160401b039081831161075d576101409083360301126114575760405192613e6084614b67565b60048301356001600160a01b0381168103610997578452602483013591821161027c57604061034e8561012486613e9c36888301600401614bf6565b6020840152613ead60448201614d0c565b85840152613ebd60648201614d0c565b6060840152613ece60848201614d0c565b608084015260a481013560a0840152613ee960c48201614d20565b60c0840152613efa60e48201614d20565b60e08401526101048101356101008401520135610120820152613f1b614ce0565b9061533a565b503461027c576020613f4a613f3536614c14565b92908160405193828580945193849201614c55565b810160108152030190209060018060a01b03166000526020526020604060002054604051908152f35b503461027c57602036600319011261027c57613f8d614b22565b6009546001600160a01b03919082163303610301571680156102ef576bffffffffffffffffffffffff60a01b600754161760075580f35b503461027c578060031936011261027c576006546040516001600160a01b039091168152602090f35b503461027c578060031936011261027c576007546040516001600160a01b039091168152602090f35b503461027c578060031936011261027c576004546040516001600160a01b039091168152602090f35b503461027c5760e036600319011261027c576004356001600160401b0381116112ed57614070903690600401614cb3565b9060026024351015611457576009546001600160a01b03908116330361030157835416836040518092630cd5286d60e41b82526020600483015281806140ba602482018989614fcf565b03915afa9081614267575b506140dc57604051630309cb8760e51b8152600490fd5b6040516140e881614b4b565b6140f460243582614ff0565b602081019084825260443560408201526064356060820152608435608082015260a43560a082015260c43560c08201528460e08201528461010082015284610120820152426101408201528461016082015260405184848237602081868101600d8152030190209181516002811015610a105760ff801985541691161783555160038110156116c357600a9161418d6101609285614ffc565b60408101516001850155606081015160028501556080810151600385015560a0810151600485015560c0810151600585015560e08101516006850155610100810151600785015561012081015160088501556101408101516009850155015191015560405182828237602081848101600e815203019020600160ff198254161790558160405192839283378101600081520390207f98fb05f369a74c607f778bf6a0a3a7ff2c5faef4174e77b45eb2ace056d3439a606060405161425381602435614d9e565b60443560208201526064356040820152a280f35b61427a903d8087833e610aad8183614b83565b50386140c5565b503461027c576020908160031936011261027c57600754604051632c854f2360e01b81526004803590820152908390829060249082906001600160a01b03165afa9182156130025780926142e3575b50506001600160801b0360405191168152f35b9091508282813d8311614314575b6142fb8183614b83565b8101031261027c575061430d9061501b565b38806142d0565b503d6142f1565b503461027c578060031936011261027c576002546040516001600160a01b039091168152602090f35b503461027c57604036600319011261027c576024356001600160a01b0381160361027c576007546001600160a01b031633141580614879575b61030157600b546004351015610af357614398600435614db8565b5060ff600582015460081c1615610ae1578154604051630cd5286d60e41b8152602060048201529190839083906001600160a01b031681806143e06024820160018801614e2c565b03915afa9182156112f15761442c9260409185916120d95750602060018060a01b0360035416910151908251808096819463524f388960e01b8352602060048401526024830190614ec2565b03915afa80156112f15783928491614845575b506144566001600160801b03610e10921642615050565b11610a385761446882611acd83615223565b60ff60409492945160208161448081600189016151a1565b600d815203019020541660028110156116c357600114614746575b50600582015460ff16156146d7576001600160801b0360028301818154166040516020816144cc8160018a016151a1565b601081520301902085546001600160a01b0316885260205260408720805490916144f5916150e8565b9055541661452260066040516020816145118160018a016151a1565b600d81520301902001918254615050565b90555b6005828101805461ff001916905554825485916001600160a01b039081169116813b156114575760405163c891ba2560e01b81526001600160a01b039190911660048083019190915235602482015291908290604490829084905af18015611f38576146c4575b5060ff6040516020816145a281600188016151a1565b600d8152030190205416600281101561076c57600114614622575b6001808060a01b03835416926145d960405180938193016151a1565b039020926001600160801b036040519216825260208201528360408201527f38d8e4a329bd3e0cd31459fc0580875db3c15175abf26f89646d75904f13f631606060043592a480f35b8360018060a01b036006541660066040516020816146438160018a016151a1565b600d815203019020015460076040516020816146628160018b016151a1565b600d8152030190200154823b1561075d5761469a92849283604051809681958294631ebe41a760e11b845260018d01600485016152d5565b03925af18015610761576146b0575b50506145bd565b6146b990614b38565b61075d5783386146a9565b6146d090949194614b38565b923861458c565b6001600160801b0360028301818154166040516020816146fa8160018a016151a1565b601081520301902085546001600160a01b03168852602052604087208054909161472391615101565b9055541661473f60076040516020816145118160018a016151a1565b9055614525565b60405160208161475981600188016151a1565b601281520301902083546001600160a01b03168652602052604085208054614782908390615101565b905582546006546040516335c59e1760e21b81526020600482018190526001600160a01b039384169491939192909184911681806147c66024820160018c01614e2c565b03915afa918215610a05578792614810575b5060406000805160206156bd833981519152918151806147fb8160018b016151a1565b0390209382519182526020820152a33861449b565b9091506020813d60201161483d575b8161482c60209383614b83565b810103126113d157519060406147d8565b3d915061481f565b6001600160801b039350610e10915061486f6144569160403d604011610a8757610a758183614b83565b909450915061443f565b506009546001600160a01b031633141561437d565b503461027c57608036600319011261027c576004356001600160401b0381116112ed576148bf903690600401614cb3565b60243591600383101561075d576009546044359390606435906001600160a01b031633036103015760ff60405185858237602081878101600e815203019020541615610abb577f88877e69e7efeb77d86513235453f83e6d65c147590224aa2b3dd2f3d5aff64e936060936149488460405184848237602081868101600d815203019020614ffc565b86600160405184848237602081868101600d815203019020015582600260405184848237602081868101600d815203019020015581604051928392833781018881520390209461499b6040518094614dab565b60208301526040820152a280f35b503461027c57602036600319011261027c57600435906001600160401b03821161027c5760206149e0816102533660048701614bf6565b8101600f81520301902054604051908152f35b503461027c578060031936011261027c576005546040516001600160a01b039091168152602090f35b503461027c576020806003193601126112ed576001600160a01b03614a3f614b22565b168252600c815260408220916040518092808554928381520194835280832092905b828210614a84576125f185614a7881890382614b83565b60405191829182614c78565b835486529485019460019384019390910190614a61565b503461027c57604060209182614ac7614ab336614c14565b929081865193828580945193849201614c55565b6012908201908152030190206001600160a01b03909116825283522054604051908152f35b9050346112ed5760203660031901126112ed576020916040906001600160a01b03614b15614b22565b1681526011845220548152f35b600435906001600160a01b038216820361099757565b6001600160401b03811161159d57604052565b61018081019081106001600160401b0382111761159d57604052565b61014081019081106001600160401b0382111761159d57604052565b90601f801991011681019081106001600160401b0382111761159d57604052565b6001600160401b03811161159d57601f01601f191660200190565b929192614bcb82614ba4565b91614bd96040519384614b83565b829481845281830111610997578281602093846000960137010152565b9080601f8301121561099757816020614c1193359101614bbf565b90565b604060031982011261099757600435906001600160401b03821161099757614c3e91600401614bf6565b906024356001600160a01b03811681036109975790565b60005b838110614c685750506000910152565b8181015183820152602001614c58565b6020908160408183019282815285518094520193019160005b828110614c9f575050505090565b835185529381019392810192600101614c91565b9181601f84011215610997578235916001600160401b038311610997576020838186019501011161099757565b602435906001600160801b038216820361099757565b604435906001600160801b038216820361099757565b35906001600160801b038216820361099757565b3590811515820361099757565b906040600319830112610997576004356001600160a01b03811681036109975791602435906001600160401b03821161099757614d6c91600401614cb3565b9091565b8054821015614d885760005260206000200190600090565b634e487b7160e01b600052603260045260246000fd5b9060028210156124865752565b9060038210156124865752565b600b54811015614d8857600b60005260031b7f0175b7a638427703f0dbe7bb9bbf987a2551717b34e79f33b5b1008d1fa01db90190600090565b90600182811c92168015614e22575b6020831014614e0c57565b634e487b7160e01b600052602260045260246000fd5b91607f1691614e01565b9060009291805491614e3d83614df2565b918282526001938481169081600014614e9f5750600114614e5f575b50505050565b90919394506000526020928360002092846000945b838610614e8b575050505001019038808080614e59565b805485870183015294019385908201614e74565b9294505050602093945060ff191683830152151560051b01019038808080614e59565b90602091614edb81518092818552858086019101614c55565b601f01601f1916010190565b81601f82011215610997578051614efd81614ba4565b92614f0b6040519485614b83565b8184526020828401011161099757614c119160208085019101614c55565b5190811515820361099757565b6020818303126109975780516001600160401b03918282116109975701906080828403126109975760405192608084018481108382111761159d5760405282518281116109975781614f89918501614ee7565b8452602083015191821161099757614fa2918301614ee7565b6020830152604081015160ff81168103610997576040830152614fc790606001614f29565b606082015290565b908060209392818452848401376000828201840152601f01601f1916010190565b60028210156124865752565b9060038110156124865761ff0082549160081b169061ff001916179055565b51906001600160801b038216820361099757565b919082604091031261099757614c1160206150498461501b565b930161501b565b9190820391821161505d57565b634e487b7160e01b600052601160045260246000fd5b9190820180921161505d57565b8181029291811591840414171561505d57565b811561509d570490565b634e487b7160e01b600052601260045260246000fd5b8054600160401b81101561159d576150d091600182018155614d70565b819291549060031b91821b91600019901b1916179055565b8181039291600013801582851316918412161761505d57565b9190916000838201938412911290801582169115161761505d57565b600019811461505d5760010190565b906151469060409396959496606084526060840191614fcf565b9460208201520152565b9492909361517f9260c0979a999895875260018060a01b0316602087015260e0604087015260e0860191614fcf565b966001600160801b038092166060850152166080830152151560a08201520152565b6000929181546151b081614df2565b9260019180831690811561520857506001146151cc5750505050565b90919293945060005260209081600020906000915b8583106151f75750505050019038808080614e59565b8054858401529183019181016151e1565b60ff1916845250505081151590910201915038808080614e59565b9060405161523081614b67565b6101206007829460018060a01b0381541684526040516152578161062d8160018601614e2c565b602085015260028101546001600160801b0390818116604087015260801c60608601526003820154166080850152600481015460a085015260ff6005820154818116151560c087015260081c16151560e085015260068101546101008501520154910152565b906001600160801b0380911691821561509d57160490565b61514660409295949395606083526060830190614e2c565b818102929160008212600160ff1b82141661505d57818405149015171561505d57565b600160ff1b811461505d5760000390565b6001600160801b03918216908216039190821161505d57565b919060009260009060208082019283519360ff6153668460409781895193828580945193849201614c55565b8101600d8152030190205416600281101561554f57600114615457575b50505060c0810151156154005760608101916001600160801b03918284511680848716116000146153df575093826153cb816153d2946153db98015116928287511690615321565b1690615080565b91511690615093565b9190565b836153cb6153db97826153fb9897966153d29601511693615321565b615310565b60608101916001600160801b039182845116808487161060001461543a575093826153cb816153d2946153db980151169282875116615321565b94836153cb6153db97826153fb9897966153d29601511693615321565b61548e939750829060018060a01b03600654169051908651808097819463607b771960e11b83528660048401526024830190614ec2565b03915afa918215615543578192615510575b50506154b2915060a0860151906150e8565b60c0850151156154e957670de0b6b3a764000061087c6154df926001600160801b038589015116906152ed565b935b388080615383565b615509670de0b6b3a7640000916001600160801b038488015116906152ed565b05936154e1565b90915082813d831161553c575b6155278183614b83565b8101031261027c57506154b2905138806154a0565b503d61551d565b508351903d90823e3d90fd5b634e487b7160e01b83526021600452602483fd5b602061557c918160405193828580945193849201614c55565b8101600d815203019020600981019081549062015180820180921161505d576155c592600a924210156155c9575b50600881016155ba858254615073565b905501918254615073565b9055565b600083830155429055386155aa565b8051821015614d885760209160051b010190565b6001600160401b03811161159d5760051b60200190565b9061560d826155ec565b61561a6040519182614b83565b828152809261562b601f19916155ec565b0190602036910137565b6020908260405193849283378101600d815203019020600981015462015180810180911161505d57421061566d576008015490600090565b90600a600883015492015490565b9190811015614d885760051b81013590601e19813603018212156109975701908135916001600160401b03831161099757602001823603811361099757919056fe92cda4e429ff042058c4c5a8cd96419b831078bd08403424eeb569814e3a006ba2646970667358221220e863c1c5a49a9cda9bf32c72ab0437654d23f4323fcbd67a2395d134153133b264736f6c63430008140033",
  "linkReferences": {},
  "deployedLinkReferences": {}
}