{
  "_format": "hh-sol-artifact-1",
  "contractName": "RiskManager",
  "sourceName": "contracts/RiskManager.sol",
  "abi": [
    {
      "inputs": [
        {
          "internalType": "address",
          "name": "_assetRegistry",
          "type": "address"
        },
        {
          "internalType": "address",
          "name": "_oracle",
          "type": "address"
        }
      ],
      "stateMutability": "nonpayable",
      "type": "constructor"
    },
    {
      "anonymous": false,
      "inputs": [
        {
          "indexed": false,
          "internalType": "string",
          "name": "asset",
          "type": "string"
        },
        {
          "indexed": false,
          "internalType": "string",
          "name": "paramName",
          "type": "string"
        },
        {
          "indexed": false,
          "internalType": "uint256",
          "name": "newValue",
          "type": "uint256"
        }
      ],
      "name": "AssetRiskParameterUpdated",
      "type": "event"
    },
    {
      "anonymous": false,
      "inputs": [
        {
          "indexed": false,
          "internalType": "string",
          "name": "asset",
          "type": "string"
        },
        {
          "indexed": false,
          "internalType": "bool",
          "name": "enabled",
          "type": "bool"
        }
      ],
      "name": "AssetTradeStatusChanged",
      "type": "event"
    },
    {
      "anonymous": false,
      "inputs": [],
      "name": "EmergencyModeActivated",
      "type": "event"
    },
    {
      "anonymous": false,
      "inputs": [],
      "name": "EmergencyModeDeactivated",
      "type": "event"
    },
    {
      "anonymous": false,
      "inputs": [
        {
          "indexed": true,
          "internalType": "address",
          "name": "previousOwner",
          "type": "address"
        },
        {
          "indexed": true,
          "internalType": "address",
          "name": "newOwner",
          "type": "address"
        }
      ],
      "name": "OwnershipTransferred",
      "type": "event"
    },
    {
      "anonymous": false,
      "inputs": [
        {
          "indexed": true,
          "internalType": "address",
          "name": "oldController",
          "type": "address"
        },
        {
          "indexed": true,
          "internalType": "address",
          "name": "newController",
          "type": "address"
        }
      ],
      "name": "RiskControllerUpdated",
      "type": "event"
    },
    {
      "anonymous": false,
      "inputs": [
        {
          "indexed": false,
          "internalType": "string",
          "name": "paramName",
          "type": "string"
        },
        {
          "indexed": false,
          "internalType": "uint256",
          "name": "newValue",
          "type": "uint256"
        }
      ],
      "name": "RiskParameterUpdated",
      "type": "event"
    },
    {
      "inputs": [],
      "name": "activateEmergencyMode",
      "outputs": [],
      "stateMutability": "nonpayable",
      "type": "function"
    },
    {
      "inputs": [
        {
          "internalType": "bytes32",
          "name": "",
          "type": "bytes32"
        }
      ],
      "name": "assetMaxLeverage",
      "outputs": [
        {
          "internalType": "uint256",
          "name": "",
          "type": "uint256"
        }
      ],
      "stateMutability": "view",
      "type": "function"
    },
    {
      "inputs": [
        {
          "internalType": "bytes32",
          "name": "",
          "type": "bytes32"
        }
      ],
      "name": "assetMaxOI",
      "outputs": [
        {
          "internalType": "uint256",
          "name": "",
          "type": "uint256"
        }
      ],
      "stateMutability": "view",
      "type": "function"
    },
    {
      "inputs": [],
      "name": "assetRegistry",
      "outputs": [
        {
          "internalType": "contract AssetRegistry",
          "name": "",
          "type": "address"
        }
      ],
      "stateMutability": "view",
      "type": "function"
    },
    {
      "inputs": [
        {
          "internalType": "bytes32",
          "name": "",
          "type": "bytes32"
        }
      ],
      "name": "assetTradeEnabled",
      "outputs": [
        {
          "internalType": "bool",
          "name": "",
          "type": "bool"
        }
      ],
      "stateMutability": "view",
      "type": "function"
    },
    {
      "inputs": [
        {
          "internalType": "bytes32",
          "name": "",
          "type": "bytes32"
        }
      ],
      "name": "assetVolatilityMultiplier",
      "outputs": [
        {
          "internalType": "uint256",
          "name": "",
          "type": "uint256"
        }
      ],
      "stateMutability": "view",
      "type": "function"
    },
    {
      "inputs": [],
      "name": "deactivateEmergencyMode",
      "outputs": [],
      "stateMutability": "nonpayable",
      "type": "function"
    },
    {
      "inputs": [],
      "name": "emergencyMode",
      "outputs": [
        {
          "internalType": "bool",
          "name": "",
          "type": "bool"
        }
      ],
      "stateMutability": "view",
      "type": "function"
    },
    {
      "inputs": [],
      "name": "emergencyShutdownThreshold",
      "outputs": [
        {
          "internalType": "uint256",
          "name": "",
          "type": "uint256"
        }
      ],
      "stateMutability": "view",
      "type": "function"
    },
    {
      "inputs": [
        {
          "internalType": "string",
          "name": "asset",
          "type": "string"
        }
      ],
      "name": "getAssetVolatilityMultiplier",
      "outputs": [
        {
          "internalType": "uint256",
          "name": "",
          "type": "uint256"
        }
      ],
      "stateMutability": "view",
      "type": "function"
    },
    {
      "inputs": [],
      "name": "globalUtilizationLimit",
      "outputs": [
        {
          "internalType": "uint256",
          "name": "",
          "type": "uint256"
        }
      ],
      "stateMutability": "view",
      "type": "function"
    },
    {
      "inputs": [
        {
          "internalType": "string",
          "name": "asset",
          "type": "string"
        },
        {
          "internalType": "uint256",
          "name": "leverage",
          "type": "uint256"
        }
      ],
      "name": "isLeverageValid",
      "outputs": [
        {
          "internalType": "bool",
          "name": "",
          "type": "bool"
        }
      ],
      "stateMutability": "view",
      "type": "function"
    },
    {
      "inputs": [
        {
          "internalType": "string",
          "name": "asset",
          "type": "string"
        },
        {
          "internalType": "uint256",
          "name": "size",
          "type": "uint256"
        }
      ],
      "name": "isPositionSizeValid",
      "outputs": [
        {
          "internalType": "bool",
          "name": "",
          "type": "bool"
        }
      ],
      "stateMutability": "view",
      "type": "function"
    },
    {
      "inputs": [
        {
          "internalType": "string",
          "name": "asset",
          "type": "string"
        }
      ],
      "name": "isTradeEnabledForAsset",
      "outputs": [
        {
          "internalType": "bool",
          "name": "",
          "type": "bool"
        }
      ],
      "stateMutability": "view",
      "type": "function"
    },
    {
      "inputs": [],
      "name": "maxGlobalOpenInterest",
      "outputs": [
        {
          "internalType": "uint256",
          "name": "",
          "type": "uint256"
        }
      ],
      "stateMutability": "view",
      "type": "function"
    },
    {
      "inputs": [],
      "name": "maxPositionSize",
      "outputs": [
        {
          "internalType": "uint256",
          "name": "",
          "type": "uint256"
        }
      ],
      "stateMutability": "view",
      "type": "function"
    },
    {
      "inputs": [],
      "name": "oracle",
      "outputs": [
        {
          "internalType": "contract Oracle",
          "name": "",
          "type": "address"
        }
      ],
      "stateMutability": "view",
      "type": "function"
    },
    {
      "inputs": [],
      "name": "owner",
      "outputs": [
        {
          "internalType": "address",
          "name": "",
          "type": "address"
        }
      ],
      "stateMutability": "view",
      "type": "function"
    },
    {
      "inputs": [],
      "name": "riskController",
      "outputs": [
        {
          "internalType": "address",
          "name": "",
          "type": "address"
        }
      ],
      "stateMutability": "view",
      "type": "function"
    },
    {
      "inputs": [
        {
          "internalType": "string",
          "name": "asset",
          "type": "string"
        },
        {
          "internalType": "uint256",
          "name": "maxLeverage",
          "type": "uint256"
        }
      ],
      "name": "setAssetMaxLeverage",
      "outputs": [],
      "stateMutability": "nonpayable",
      "type": "function"
    },
    {
      "inputs": [
        {
          "internalType": "string",
          "name": "asset",
          "type": "string"
        },
        {
          "internalType": "uint256",
          "name": "maxOI",
          "type": "uint256"
        }
      ],
      "name": "setAssetMaxOI",
      "outputs": [],
      "stateMutability": "nonpayable",
      "type": "function"
    },
    {
      "inputs": [
        {
          "internalType": "string",
          "name": "asset",
          "type": "string"
        },
        {
          "internalType": "bool",
          "name": "enabled",
          "type": "bool"
        }
      ],
      "name": "setAssetTradeEnabled",
      "outputs": [],
      "stateMutability": "nonpayable",
      "type": "function"
    },
    {
      "inputs": [
        {
          "internalType": "string",
          "name": "asset",
          "type": "string"
        },
        {
          "internalType": "uint256",
          "name": "multiplier",
          "type": "uint256"
        }
      ],
      "name": "setAssetVolatilityMultiplier",
      "outputs": [],
      "stateMutability": "nonpayable",
      "type": "function"
    },
    {
      "inputs": [
        {
          "internalType": "uint256",
          "name": "_threshold",
          "type": "uint256"
        }
      ],
      "name": "setEmergencyShutdownThreshold",
      "outputs": [],
      "stateMutability": "nonpayable",
      "type": "function"
    },
    {
      "inputs": [
        {
          "internalType": "uint256",
          "name": "_utilizationLimit",
          "type": "uint256"
        }
      ],
      "name": "setGlobalUtilizationLimit",
      "outputs": [],
      "stateMutability": "nonpayable",
      "type": "function"
    },
    {
      "inputs": [
        {
          "internalType": "uint256",
          "name": "_maxGlobalOI",
          "type": "uint256"
        }
      ],
      "name": "setMaxGlobalOpenInterest",
      "outputs": [],
      "stateMutability": "nonpayable",
      "type": "function"
    },
    {
      "inputs": [
        {
          "internalType": "uint256",
          "name": "_maxPositionSize",
          "type": "uint256"
        }
      ],
      "name": "setMaxPositionSize",
      "outputs": [],
      "stateMutability": "nonpayable",
      "type": "function"
    },
    {
      "inputs": [
        {
          "internalType": "address",
          "name": "_newController",
          "type": "address"
        }
      ],
      "name": "setRiskController",
      "outputs": [],
      "stateMutability": "nonpayable",
      "type": "function"
    },
    {
      "inputs": [
        {
          "internalType": "address",
          "name": "newOwner",
          "type": "address"
        }
      ],
      "name": "transferOwnership",
      "outputs": [],
      "stateMutability": "nonpayable",
      "type": "function"
    }
  ],
  "bytecode": "0x60803461016357601f61115838819003918201601f19168301916001600160401b0383118484101761016857808492604094855283398101031261016357610052602061004b8361017e565b920161017e565b6001600160a01b039182169190821561011e571680156100d95760018060a01b031991826002541617600255816003541617600355338160005416176000553390600154161760015569021e19e0c9bab2400000600455683635c9adc5dea000006005556050600655605f60075560ff19600c5416600c55604051610fc590816101938239f35b60405162461bcd60e51b815260206004820152601660248201527f496e76616c6964206f7261636c652061646472657373000000000000000000006044820152606490fd5b60405162461bcd60e51b815260206004820152601e60248201527f496e76616c6964206173736574207265676973747279206164647265737300006044820152606490fd5b600080fd5b634e487b7160e01b600052604160045260246000fd5b51906001600160a01b03821682036101635756fe608060408181526004908136101561001657600080fd5b600092833560e01c908163072c992414610d0f575080630905f56014610ceb57806326a9c12114610c7657806344c592ca14610c5757806347f7e00a14610c3b57806355497ae214610c0e57806358cb5af914610bf25780635a45bd9c14610bca5780636025a91b14610ba15780636c5f5cec14610b795780637dc0d1d014610b505780638b17309614610b0b5780638da5cb5b14610ae3578063979d7e8614610aba57806399b20eaf14610a57578063a0c1614c14610a10578063a329dc57146109f1578063a8a5767814610912578063a9ccbfdf14610802578063abc69f58146107e3578063b4319c3614610768578063c8b6ed2114610681578063cc8332c314610590578063d00960101461051a578063d39d36b1146104f2578063da5a178714610422578063e9ec409f146102f8578063f2fde38b1461022f5763f30ba6f91461016357600080fd5b3461022b57602036600319011261022b576001600160a01b038235818116939192908490036102275761019a838654163314610d91565b83156101e4575050600154826bffffffffffffffffffffffff60a01b821617600155167f48748904c2c9e6b63742606a1e6d0437f319bee7605e05f2f486ad0072d285a78380a380f35b906020606492519162461bcd60e51b8352820152601a60248201527f496e76616c696420636f6e74726f6c6c657220616464726573730000000000006044820152fd5b8480fd5b8280fd5b50903461022b57602036600319011261022b576001600160a01b038135818116939192908490036102275784549283169161026b833314610d91565b84156102a957505082907f8be0079c531659141344cd1fd0a4f28419497f9722a3daafe3b4186f6b6457e08580a36001600160a01b03191617815580f35b906020608492519162461bcd60e51b83528201526024808201527f4e6577206f776e65722063616e6e6f7420626520746865207a65726f206164646044820152637265737360e01b6064820152fd5b5091903461041e5761030936610d5e565b9491909261032c60018060a01b0380600154163314908115610411575b50610d91565b85151580610406575b156103d057507ff629cb2e3e8fc2decb68b2757b0f0163d019d77247cebe2cf891ffb09922261193946a6d61784c6576657261676560a81b6103b6845193602094858101908883833761039787828d8c82019083820152038084520182610dce565b51902089526008855283868a2055855196606088526060880191610e06565b92858403938482880152600b81520152828401520190a180f35b606490602084519162461bcd60e51b8352820152601060248201526f496e76616c6964206c6576657261676560801b6044820152fd5b506064861115610335565b9050865416331438610326565b5080fd5b83823461041e577ff629cb2e3e8fc2decb68b2757b0f0163d019d77247cebe2cf891ffb0992226119061045436610d5e565b6001549193929161047990336001600160a01b03918216149081156104e55750610d91565b646d61784f4960d81b6104cb84519360209485810190888383376104ac87828d8c82019083820152038084520182610dce565b51902089526009855283868a2055855196606088526060880191610e06565b92858403938482880152600581520152828401520190a180f35b9050875416331488610326565b50903461022b57602036600319011261022b576020928291358152600a845220549051908152f35b833461058d578060031936011261058d5760015461054c90336001600160a01b03918216149081156105805750610d91565b600160ff19600c541617600c557f9e91804b7b70a36dcecd9afc85507eb02441c485502f58d0e68589aa50b8226a8180a180f35b9050825416331483610326565b80fd5b50903461022b578160031936011261022b5780359067ffffffffffffffff821161067d576105c091369101610d2b565b9091602435801515809103610227576001547f827c0627e10036eb0236fb7914f44e2f407a1df81b3c4d5b3bd0d963386e50be946106649161061690336001600160a01b03918216149081156106705750610d91565b835160208101908683833761063a6020828981018c83820152038084520182610dce565b5190208752600b60205283872060ff1981541660ff85161790558351948486958652850191610e06565b9060208301520390a180f35b9050885416331438610326565b8380fd5b50903461022b57602036600319011261022b57600154813591906106b990336001600160a01b039182161490811561075b5750610d91565b81151580610750575b156107195750600080516020610f708339815191529181608092600755601a8251928084528301527f656d657267656e637953687574646f776e5468726573686f6c6400000000000060608301526020820152a180f35b606490602084519162461bcd60e51b83528201526011602482015270125b9d985b1a59081d1a1c995cda1bdb19607a1b6044820152fd5b5060648211156106c2565b9050855416331438610326565b50903461022b57602036600319011261022b57600080516020610f7083398151915291816080923580916107b060018060a01b03806001541633149081156106705750610d91565b556015825192808452830152741b585e11db1bd8985b13dc195b925b9d195c995cdd605a1b60608301526020820152a180f35b83823461041e578160031936011261041e576020906006549051908152f35b5091903461041e5761081336610d5e565b9491909261083560018060a01b03806001541633149081156104115750610d91565b85156108da57507ff629cb2e3e8fc2decb68b2757b0f0163d019d77247cebe2cf891ffb0992226119394733b37b630ba34b634ba3ca6bab63a34b83634b2b960611b6108c084519360209485810190888383376108a187828d8c82019083820152038084520182610dce565b5190208952600a855283868a2055855196606088526060880191610e06565b92858403938482880152601481520152828401520190a180f35b606490602084519162461bcd60e51b8352820152601260248201527124b73b30b634b21036bab63a34b83634b2b960711b6044820152fd5b50903461022b57602036600319011261022b576001548135919061094a90336001600160a01b039182161490811561075b5750610d91565b811515806109e6575b156109a35750600080516020610f70833981519152918160809260065560168251928084528301527519db1bd8985b155d1a5b1a5e985d1a5bdb931a5b5a5d60521b60608301526020820152a180f35b606490602084519162461bcd60e51b8352820152601960248201527f496e76616c6964207574696c697a6174696f6e206c696d6974000000000000006044820152fd5b506064821115610953565b83823461041e578160031936011261041e576020906005549051908152f35b50823461058d57602036600319011261058d5782359067ffffffffffffffff821161058d5750610a48602093610a4e92369101610d2b565b90610edd565b90519015158152f35b833461058d578060031936011261058d57600154610a8990336001600160a01b03918216149081156105805750610d91565b60ff19600c5416600c557f70b9dcaceb756943ac1a4f48b8df9ea82fbb012b87e405cba4ed77d1ded0df418180a180f35b83823461041e578160031936011261041e5760025490516001600160a01b039091168152602090f35b83823461041e578160031936011261041e57905490516001600160a01b039091168152602090f35b50823461058d57602036600319011261058d5782359067ffffffffffffffff821161058d5750610b43602093610b4992369101610d2b565b90610f2a565b9051908152f35b83823461041e578160031936011261041e5760035490516001600160a01b039091168152602090f35b50903461022b57602036600319011261022b5760209282913581526009845220549051908152f35b83823461041e578160031936011261041e5760015490516001600160a01b039091168152602090f35b50903461022b57602036600319011261022b5760209282913581526008845220549051908152f35b83823461041e57602090610a4e610c0836610d5e565b91610e92565b50903461022b57602036600319011261022b578160209360ff92358152600b855220541690519015158152f35b83823461041e57602090610a4e610c5136610d5e565b91610e27565b83823461041e578160031936011261041e576020906007549051908152f35b50903461022b57602036600319011261022b57600080516020610f708339815191529160809135610cbb60018060a01b03806001541633149081156104115750610d91565b80600555600f8251928084528301526e6d6178506f736974696f6e53697a6560881b60608301526020820152a180f35b83823461041e578160031936011261041e5760209060ff600c541690519015158152f35b8490843461022b578260031936011261022b5760209250548152f35b9181601f84011215610d595782359167ffffffffffffffff8311610d595760208381860195010111610d5957565b600080fd5b6040600319820112610d59576004359067ffffffffffffffff8211610d5957610d8991600401610d2b565b909160243590565b15610d9857565b60405162461bcd60e51b815260206004820152600e60248201526d139bdd08185d5d1a1bdc9a5e995960921b6044820152606490fd5b90601f8019910116810190811067ffffffffffffffff821117610df057604052565b634e487b7160e01b600052604160045260246000fd5b908060209392818452848401376000828201840152601f01601f1916010190565b906005548311610e8a57610e5560206040518381948383019687378101600083820152038084520182610dce565b51902060005260096020526040600020548015159182610e80575b5050610e7b57600190565b600090565b1190503880610e70565b505050600090565b90610eb760206040518381948383019687378101600083820152038084520182610dce565b5190206000526008602052604060002054908115610ed457111590565b60149150111590565b9060ff600c5416610f2357610f0c60206040518381948383019687378101600083820152038084520182610dce565b519020600052600b60205260ff6040600020541690565b5050600090565b90610f4f60206040518381948383019687378101600083820152038084520182610dce565b519020600052600a6020526040600020548015610f695790565b5060019056fe54d26885233b7d723271fada1b5db9623903e815b8b86841932f2304fcf5dd7fa264697066735822122028136c852754872b0a6edf5cbe6d3810667776af5a1ee3fc73904b619c528cb264736f6c63430008140033",
  "linkReferences": {},
  "deployedLinkReferences": {}
}