{
  "_format": "hh-sol-artifact-1",
  "contractName": "ClearingHouse",
  "sourceName": "contracts/ClearingHouse.sol",
  "abi": [
    {
      "inputs": [
        {
          "internalType": "address",
          "name": "_market",
          "type": "address"
        },
        {
          "internalType": "address",
          "name": "_collateralManager",
          "type": "address"
        },
        {
          "internalType": "address",
          "name": "_feeManager",
          "type": "address"
        },
        {
          "internalType": "address",
          "name": "_oracle",
          "type": "address"
        },
        {
          "internalType": "address",
          "name": "_riskManager",
          "type": "address"
        },
        {
          "internalType": "address",
          "name": "_insuranceFund",
          "type": "address"
        }
      ],
      "stateMutability": "nonpayable",
      "type": "constructor"
    },
    {
      "anonymous": false,
      "inputs": [
        {
          "indexed": true,
          "internalType": "address",
          "name": "trader",
          "type": "address"
        },
        {
          "indexed": true,
          "internalType": "address",
          "name": "liquidator",
          "type": "address"
        },
        {
          "indexed": false,
          "internalType": "string",
          "name": "asset",
          "type": "string"
        },
        {
          "indexed": false,
          "internalType": "uint128",
          "name": "amount",
          "type": "uint128"
        },
        {
          "indexed": false,
          "internalType": "uint128",
          "name": "price",
          "type": "uint128"
        }
      ],
      "name": "LiquidationSettled",
      "type": "event"
    },
    {
      "anonymous": false,
      "inputs": [
        {
          "indexed": true,
          "internalType": "address",
          "name": "previousOwner",
          "type": "address"
        },
        {
          "indexed": true,
          "internalType": "address",
          "name": "newOwner",
          "type": "address"
        }
      ],
      "name": "OwnershipTransferred",
      "type": "event"
    },
    {
      "anonymous": false,
      "inputs": [
        {
          "indexed": true,
          "internalType": "address",
          "name": "trader",
          "type": "address"
        },
        {
          "indexed": false,
          "internalType": "string",
          "name": "asset",
          "type": "string"
        },
        {
          "indexed": false,
          "internalType": "uint128",
          "name": "amount",
          "type": "uint128"
        },
        {
          "indexed": false,
          "internalType": "uint128",
          "name": "price",
          "type": "uint128"
        },
        {
          "indexed": false,
          "internalType": "bool",
          "name": "isLong",
          "type": "bool"
        },
        {
          "indexed": false,
          "internalType": "uint256",
          "name": "fee",
          "type": "uint256"
        }
      ],
      "name": "TradeSettled",
      "type": "event"
    },
    {
      "inputs": [],
      "name": "collateralManager",
      "outputs": [
        {
          "internalType": "contract CollateralManager",
          "name": "",
          "type": "address"
        }
      ],
      "stateMutability": "view",
      "type": "function"
    },
    {
      "inputs": [],
      "name": "dailyVolumeEth",
      "outputs": [
        {
          "internalType": "uint256",
          "name": "",
          "type": "uint256"
        }
      ],
      "stateMutability": "view",
      "type": "function"
    },
    {
      "inputs": [],
      "name": "feeManager",
      "outputs": [
        {
          "internalType": "contract FeeManager",
          "name": "",
          "type": "address"
        }
      ],
      "stateMutability": "view",
      "type": "function"
    },
    {
      "inputs": [],
      "name": "getDailyVolume",
      "outputs": [
        {
          "internalType": "uint256",
          "name": "",
          "type": "uint256"
        }
      ],
      "stateMutability": "view",
      "type": "function"
    },
    {
      "inputs": [
        {
          "internalType": "address",
          "name": "trader",
          "type": "address"
        },
        {
          "internalType": "uint256",
          "name": "count",
          "type": "uint256"
        }
      ],
      "name": "getRecentTradesForTrader",
      "outputs": [
        {
          "internalType": "uint256[]",
          "name": "",
          "type": "uint256[]"
        }
      ],
      "stateMutability": "view",
      "type": "function"
    },
    {
      "inputs": [],
      "name": "getTotalTrades",
      "outputs": [
        {
          "internalType": "uint256",
          "name": "",
          "type": "uint256"
        }
      ],
      "stateMutability": "view",
      "type": "function"
    },
    {
      "inputs": [],
      "name": "getTotalVolume",
      "outputs": [
        {
          "internalType": "uint256",
          "name": "",
          "type": "uint256"
        }
      ],
      "stateMutability": "view",
      "type": "function"
    },
    {
      "inputs": [
        {
          "internalType": "uint256",
          "name": "tradeId",
          "type": "uint256"
        }
      ],
      "name": "getTradeById",
      "outputs": [
        {
          "components": [
            {
              "internalType": "address",
              "name": "trader",
              "type": "address"
            },
            {
              "internalType": "string",
              "name": "asset",
              "type": "string"
            },
            {
              "internalType": "uint128",
              "name": "amount",
              "type": "uint128"
            },
            {
              "internalType": "uint128",
              "name": "price",
              "type": "uint128"
            },
            {
              "internalType": "bool",
              "name": "isLong",
              "type": "bool"
            },
            {
              "internalType": "bool",
              "name": "isLiquidation",
              "type": "bool"
            },
            {
              "internalType": "uint256",
              "name": "timestamp",
              "type": "uint256"
            }
          ],
          "internalType": "struct ClearingHouse.Trade",
          "name": "",
          "type": "tuple"
        }
      ],
      "stateMutability": "view",
      "type": "function"
    },
    {
      "inputs": [],
      "name": "insuranceFund",
      "outputs": [
        {
          "internalType": "contract InsuranceFund",
          "name": "",
          "type": "address"
        }
      ],
      "stateMutability": "view",
      "type": "function"
    },
    {
      "inputs": [],
      "name": "lastVolumeResetTime",
      "outputs": [
        {
          "internalType": "uint256",
          "name": "",
          "type": "uint256"
        }
      ],
      "stateMutability": "view",
      "type": "function"
    },
    {
      "inputs": [],
      "name": "market",
      "outputs": [
        {
          "internalType": "contract Market",
          "name": "",
          "type": "address"
        }
      ],
      "stateMutability": "view",
      "type": "function"
    },
    {
      "inputs": [],
      "name": "oracle",
      "outputs": [
        {
          "internalType": "contract Oracle",
          "name": "",
          "type": "address"
        }
      ],
      "stateMutability": "view",
      "type": "function"
    },
    {
      "inputs": [],
      "name": "owner",
      "outputs": [
        {
          "internalType": "address",
          "name": "",
          "type": "address"
        }
      ],
      "stateMutability": "view",
      "type": "function"
    },
    {
      "inputs": [],
      "name": "riskManager",
      "outputs": [
        {
          "internalType": "contract RiskManager",
          "name": "",
          "type": "address"
        }
      ],
      "stateMutability": "view",
      "type": "function"
    },
    {
      "inputs": [
        {
          "internalType": "address",
          "name": "trader",
          "type": "address"
        },
        {
          "internalType": "address",
          "name": "liquidator",
          "type": "address"
        },
        {
          "internalType": "string",
          "name": "asset",
          "type": "string"
        },
        {
          "internalType": "uint128",
          "name": "amount",
          "type": "uint128"
        },
        {
          "internalType": "uint128",
          "name": "price",
          "type": "uint128"
        }
      ],
      "name": "settleLiquidation",
      "outputs": [
        {
          "internalType": "uint256",
          "name": "",
          "type": "uint256"
        }
      ],
      "stateMutability": "nonpayable",
      "type": "function"
    },
    {
      "inputs": [
        {
          "internalType": "address",
          "name": "trader",
          "type": "address"
        },
        {
          "internalType": "string",
          "name": "asset",
          "type": "string"
        },
        {
          "internalType": "uint128",
          "name": "amount",
          "type": "uint128"
        },
        {
          "internalType": "uint128",
          "name": "price",
          "type": "uint128"
        },
        {
          "internalType": "bool",
          "name": "isLong",
          "type": "bool"
        }
      ],
      "name": "settleTrade",
      "outputs": [
        {
          "internalType": "uint256",
          "name": "",
          "type": "uint256"
        }
      ],
      "stateMutability": "nonpayable",
      "type": "function"
    },
    {
      "inputs": [],
      "name": "totalVolumeEth",
      "outputs": [
        {
          "internalType": "uint256",
          "name": "",
          "type": "uint256"
        }
      ],
      "stateMutability": "view",
      "type": "function"
    },
    {
      "inputs": [
        {
          "internalType": "uint256",
          "name": "",
          "type": "uint256"
        }
      ],
      "name": "trades",
      "outputs": [
        {
          "internalType": "address",
          "name": "trader",
          "type": "address"
        },
        {
          "internalType": "string",
          "name": "asset",
          "type": "string"
        },
        {
          "internalType": "uint128",
          "name": "amount",
          "type": "uint128"
        },
        {
          "internalType": "uint128",
          "name": "price",
          "type": "uint128"
        },
        {
          "internalType": "bool",
          "name": "isLong",
          "type": "bool"
        },
        {
          "internalType": "bool",
          "name": "isLiquidation",
          "type": "bool"
        },
        {
          "internalType": "uint256",
          "name": "timestamp",
          "type": "uint256"
        }
      ],
      "stateMutability": "view",
      "type": "function"
    },
    {
      "inputs": [
        {
          "internalType": "address",
          "name": "newOwner",
          "type": "address"
        }
      ],
      "name": "transferOwnership",
      "outputs": [],
      "stateMutability": "nonpayable",
      "type": "function"
    }
  ],
  "bytecode": "0x608034620002df57601f620017e238819003918201601f191683019291906001600160401b03841183851017620002e4578160c09284926040968752833981010312620002df576200005181620002fa565b60209062000061828401620002fa565b926200006f858201620002fa565b6200007d60608301620002fa565b906200009a60a06200009260808601620002fa565b9401620002fa565b6001600160a01b039485169690949087156200029b5781169182156200024c57811692831562000208578116938415620001c45781169485156200018057169485156200013d575060018060a01b0319958660015416176001558560025416176002558460035416176003558360045416176004558260055416176005558160065416176006553390600054161760005542600955516114d29081620003108239f35b60649088519062461bcd60e51b82526004820152601e60248201527f496e76616c696420696e737572616e63652066756e64206164647265737300006044820152fd5b885162461bcd60e51b815260048101889052601c60248201527f496e76616c6964207269736b206d616e616765722061646472657373000000006044820152606490fd5b885162461bcd60e51b815260048101889052601660248201527f496e76616c6964206f7261636c652061646472657373000000000000000000006044820152606490fd5b885162461bcd60e51b815260048101889052601b60248201527f496e76616c696420666565206d616e61676572206164647265737300000000006044820152606490fd5b885162461bcd60e51b815260048101889052602260248201527f496e76616c696420636f6c6c61746572616c206d616e61676572206164647265604482015261737360f01b6064820152608490fd5b885162461bcd60e51b815260048101889052601660248201527f496e76616c6964206d61726b65742061646472657373000000000000000000006044820152606490fd5b600080fd5b634e487b7160e01b600052604160045260246000fd5b51906001600160a01b0382168203620002df5756fe608080604052600436101561001357600080fd5b600090813560e01c9081630b9d98e9146111a0575080631e6c598e146110fa57806323be345c146110d15780632f83b5bb146110b357806343dc935614611095578063478426631461106c5780637266668414610f095780637a08811714610b235780637dc0d1d014610afa57806380f5560514610ad15780638da5cb5b14610aaa578063a6c56f2a14610447578063b79023031461041e578063be2f458c14610400578063c554dd771461024e578063d0fb020314610225578063ebd34f5014610207578063f2fde38b146101125763f91a8b00146100f257600080fd5b3461010f578060031936011261010f576020600854604051908152f35b80fd5b503461010f57602036600319011261010f5761012c61136b565b81546001600160a01b0380821692338490036101d157169182156101805782907f8be0079c531659141344cd1fd0a4f28419497f9722a3daafe3b4186f6b6457e08580a36001600160a01b03191617815580f35b60405162461bcd60e51b8152602060048201526024808201527f4e6577206f776e65722063616e6e6f7420626520746865207a65726f206164646044820152637265737360e01b6064820152608490fd5b60405162461bcd60e51b815260206004820152600e60248201526d139bdd08185d5d1a1bdc9a5e995960921b6044820152606490fd5b503461010f578060031936011261010f576020600a54604051908152f35b503461010f578060031936011261010f576003546040516001600160a01b039091168152602090f35b503461010f57604036600319011261010f5761026861136b565b600a54602480359284926001600160a01b039182169290805b801515806103f7575b156102e55760001981018181116102d257846102a687926111bc565b505416146102bd575b6102b890611468565b610281565b946102ca6102b891611475565b9590506102af565b634e487b7160e01b895260116004528389fd5b5095919394506102f485611484565b916103026040519384611263565b85835261030e86611484565b6020949084860190601f190136823782985b801515806103ee575b156103ac576000198101818111610399578389610345836111bc565b5054161461035d575b5061035890611468565b610320565b869a919a51821015610386578161037f91896103589460051b8a010152611475565b999061034e565b634e487b7160e01b855260326004528585fd5b634e487b7160e01b855260116004528585fd5b8587838660405193838594850191818652518092526040850193925b8281106103d757505050500390f35b8351855286955093810193928101926001016103c8565b50888a10610329565b5086861061028a565b503461010f578060031936011261010f576020600854604051908152f35b503461010f578060031936011261010f576006546040516001600160a01b039091168152602090f35b503461010f5760a036600319011261010f5761046161136b565b9060243567ffffffffffffffff8111610aa657610482903690600401611386565b604493919335916001600160801b0383168303610aa2576104a16113b4565b6084358015158103610a9e576001546001600160a01b03163303610a5957600554604051632830585360e21b8152602060048201819052909182906001600160a01b031681806104f5602482018b8f6113ca565b03915afa908115610a4e578791610a0f575b50156109ca576305f5e10061052e6001600160801b0384166001600160801b0388166113eb565b04916040519283604081011067ffffffffffffffff6040860111176109b6576040840160405260058452643a30b5b2b960d91b602085015260018060a01b036003541660405194632c82990160e11b8652826004870152604060248701526020868061059d604482018561132b565b0381855afa9586156109ab578a96610977575b50813b15610973576105e98a9283926040519485809481936330d9f76360e01b83528c600484015260406024840152604483019061132b565b03925af1801561096857610938575b5060095462015180810181116109245790620151806106319201421015610917575b61062681600754611414565b600755600854611414565b60085560405161064081611247565b6001600160a01b038516815261065736878b611421565b90602081019182526001600160801b03881660408201526001600160801b038316606082015283151560808201528860a08201524260c0820152600a54600160401b8110156108eb578060016106b09201600a556111bc565b92909261090157815183546001600160a01b0319166001600160a01b03919091161783555180519067ffffffffffffffff82116108eb576106f4600185015461120d565b601f81116108a4575b50602090601f831160011461082f5791806004949260c094600092610824575b50508160011b916000199060031b1c19161760018501555b6001600160801b036040820151166001600160801b0319606083015160801b161760028501556003840160808201511515815460ff61ff0060a0860151151560081b1692169061ffff1916171790550151910155600a5496600019880197881161081057509160209793916001600160801b037fe618e44e0d674e6fdaa4b50e4338ddbef0bce69a677e4519e320b609ffe30f729694816107e360405198899860a08a5260a08a01916113ca565b9916868c01521660408501521515606084015260808301526001600160a01b0316930390a2604051908152f35b634e487b7160e01b81526011600452602490fd5b01519050388061071d565b906001850160005260206000209160005b601f198516811061088c5750926004949260019260c09583601f19811610610873575b505050811b016001850155610735565b015160001960f88460031b161c19169055388080610863565b91926020600181928685015181550194019201610840565b600185016000526020600020601f840160051c8101602085106108e4575b601f830160051c820181106108d85750506106fd565b600081556001016108c2565b50806108c2565b634e487b7160e01b600052604160045260246000fd5b634e487b7160e01b600052600060045260246000fd5b886008554260095561061a565b634e487b7160e01b89526011600452602489fd5b67ffffffffffffffff81999299116109545760405296386105f8565b634e487b7160e01b82526041600452602482fd5b6040513d8b823e3d90fd5b8980fd5b9095506020813d6020116109a3575b8161099360209383611263565b81010312610973575194386105b0565b3d9150610986565b6040513d8c823e3d90fd5b634e487b7160e01b88526041600452602488fd5b60405162461bcd60e51b815260206004820152601a60248201527f54726164696e672064697361626c656420666f722061737365740000000000006044820152606490fd5b90506020813d602011610a46575b81610a2a60209383611263565b81010312610a4257518015158103610a425738610507565b8680fd5b3d9150610a1d565b6040513d89823e3d90fd5b60405162461bcd60e51b815260206004820152601d60248201527f4f6e6c79206d61726b65742063616e20736574746c65207472616465730000006044820152606490fd5b8580fd5b8380fd5b5080fd5b503461010f578060031936011261010f57546040516001600160a01b039091168152602090f35b503461010f578060031936011261010f576001546040516001600160a01b039091168152602090f35b503461010f578060031936011261010f576004546040516001600160a01b039091168152602090f35b503461010f5760a036600319011261010f57610b3d61136b565b60243591906001600160a01b0383168303610aa65760443567ffffffffffffffff8111610f0557610b72903690600401611386565b610b7d9491946113b4565b916084356001600160801b0381168103610a9e576001546001600160a01b031633148015610ef2575b15610e9f57604051610bb781611247565b6001600160a01b0386168152610bce36858a611421565b90602081019182526001600160801b03861660408201526001600160801b0383166060820152876080820152600160a08201524260c0820152600a54600160401b811015610e8b57806001610c269201600a556111bc565b929092610e7757815183546001600160a01b0319166001600160a01b03919091161783555180519067ffffffffffffffff8211610e6357610c6a600185015461120d565b601f8111610e1e575b50602090601f8311600114610dac5791806004949260c0948d92610da1575b50508160011b916000199060031b1c19161760018501555b6001600160801b036040820151166001600160801b0319606083015160801b161760028501556003840160808201511515815460ff61ff0060a0860151151560081b1692169061ffff1916171790550151910155600a54956000198701968711610810575091602096916001600160801b0384610d616305f5e100610d54847ff4f87369b37e1cc6fcfc596aee48ef07f2159ab75145b85234a2997331c883479916858b166113eb565b0461062681600754611414565b60085581610d7c6040519687966060885260608801916113ca565b9716848b01521660408301526001600160a01b039081169516930390a3604051908152f35b015190503880610c92565b90600185018b5260208b20918b5b601f1985168110610e065750926004949260019260c09583601f19811610610ded575b505050811b016001850155610caa565b015160001960f88460031b161c19169055388080610ddd565b91926020600181928685015181550194019201610dba565b600185018b5260208b20601f840160051c810160208510610e5c575b8c601f840160051c83018210610e5257505050610c73565b8155600101610e3a565b5080610e3a565b634e487b7160e01b8a52604160045260248afd5b634e487b7160e01b89526004899052602489fd5b634e487b7160e01b89526041600452602489fd5b60405162461bcd60e51b815260206004820152602560248201527f4e6f7420617574686f72697a656420746f20736574746c65206c69717569646160448201526474696f6e7360d81b6064820152608490fd5b5085546001600160a01b03163314610ba6565b8280fd5b503461010f57602036600319011261010f576004359060c0604051610f2d81611247565b828152606060208201528260408201528260608201528260808201528260a08201520152600a5481101561103457610f64906111bc565b50604051610f7181611247565b81546001600160a01b03908116825291610f8d60018201611285565b60208301908152600282015460408401926001600160801b038083168552606086019260801c83526003820154928161100b600460808a019560ff88161515875260ff60a08c019860081c161515885201549660c08a019788526040519a8b9a60208c52511660208b01525160e060408b01526101008a019061132b565b96511660608801525116608086015251151560a085015251151560c08401525160e08301520390f35b60405162461bcd60e51b815260206004820152601060248201526f125b9d985b1a59081d1c98591948125160821b6044820152606490fd5b503461010f578060031936011261010f576005546040516001600160a01b039091168152602090f35b503461010f578060031936011261010f576020600754604051908152f35b503461010f578060031936011261010f576020600954604051908152f35b503461010f578060031936011261010f576002546040516001600160a01b039091168152602090f35b503461010f57602036600319011261010f57600435600a54811015610aa657611122906111bc565b5080546001600160a01b031661113a60018301611285565b9160028101549060ff600460038301549201549161116a604051968796875260e0602088015260e087019061132b565b936001600160801b038116604087015260801c60608601528181161515608086015260081c16151560a084015260c08301520390f35b905034610aa65781600319360112610aa6576020906007548152f35b600a548110156111f757600590600a600052027fc65a7bb8d6351c1cf70c95a316cc6a92839c986682d98bc35f958f4883f9d2a80190600090565b634e487b7160e01b600052603260045260246000fd5b90600182811c9216801561123d575b602083101461122757565b634e487b7160e01b600052602260045260246000fd5b91607f169161121c565b60e0810190811067ffffffffffffffff8211176108eb57604052565b90601f8019910116810190811067ffffffffffffffff8211176108eb57604052565b90604051918260008254926112998461120d565b90818452600194858116908160001461130857506001146112c5575b50506112c392500383611263565b565b9093915060005260209081600020936000915b8183106112f05750506112c3935082010138806112b5565b855488840185015294850194879450918301916112d8565b9150506112c394506020925060ff191682840152151560051b82010138806112b5565b919082519283825260005b848110611357575050826000602080949584010152601f8019910116010190565b602081830181015184830182015201611336565b600435906001600160a01b038216820361138157565b600080fd5b9181601f840112156113815782359167ffffffffffffffff8311611381576020838186019501011161138157565b606435906001600160801b038216820361138157565b908060209392818452848401376000828201840152601f01601f1916010190565b818102929181159184041417156113fe57565b634e487b7160e01b600052601160045260246000fd5b919082018092116113fe57565b92919267ffffffffffffffff82116108eb576040519161144b601f8201601f191660200184611263565b829481845281830111611381578281602093846000960137010152565b80156113fe576000190190565b60001981146113fe5760010190565b67ffffffffffffffff81116108eb5760051b6020019056fea2646970667358221220049a33317597d9d9474ac184a554860371be23210aa105f5c109e9ce5a9e704c64736f6c63430008140033",
  "linkReferences": {},
  "deployedLinkReferences": {}
}