{
  "_format": "hh-sol-artifact-1",
  "contractName": "OMNIStaking",
  "sourceName": "contracts/OMNIStaking.sol",
  "abi": [
    {
      "inputs": [
        {
          "internalType": "address",
          "name": "_omniToken",
          "type": "address"
        },
        {
          "internalType": "address",
          "name": "admin",
          "type": "address"
        }
      ],
      "stateMutability": "nonpayable",
      "type": "constructor"
    },
    {
      "inputs": [],
      "name": "AccessControlBadConfirmation",
      "type": "error"
    },
    {
      "inputs": [
        {
          "internalType": "address",
          "name": "account",
          "type": "address"
        },
        {
          "internalType": "bytes32",
          "name": "neededRole",
          "type": "bytes32"
        }
      ],
      "name": "AccessControlUnauthorizedAccount",
      "type": "error"
    },
    {
      "inputs": [],
      "name": "ReentrancyGuardReentrantCall",
      "type": "error"
    },
    {
      "inputs": [
        {
          "internalType": "address",
          "name": "token",
          "type": "address"
        }
      ],
      "name": "SafeERC20FailedOperation",
      "type": "error"
    },
    {
      "anonymous": false,
      "inputs": [
        {
          "indexed": false,
          "internalType": "uint256",
          "name": "penalty",
          "type": "uint256"
        }
      ],
      "name": "EarlyWithdrawalPenaltyUpdated",
      "type": "event"
    },
    {
      "anonymous": false,
      "inputs": [
        {
          "indexed": true,
          "internalType": "address",
          "name": "user",
          "type": "address"
        },
        {
          "indexed": false,
          "internalType": "uint256",
          "name": "amount",
          "type": "uint256"
        }
      ],
      "name": "RewardsClaimed",
      "type": "event"
    },
    {
      "anonymous": false,
      "inputs": [
        {
          "indexed": false,
          "internalType": "uint256",
          "name": "amount",
          "type": "uint256"
        }
      ],
      "name": "RewardsDistributed",
      "type": "event"
    },
    {
      "anonymous": false,
      "inputs": [
        {
          "indexed": true,
          "internalType": "bytes32",
          "name": "role",
          "type": "bytes32"
        },
        {
          "indexed": true,
          "internalType": "bytes32",
          "name": "previousAdminRole",
          "type": "bytes32"
        },
        {
          "indexed": true,
          "internalType": "bytes32",
          "name": "newAdminRole",
          "type": "bytes32"
        }
      ],
      "name": "RoleAdminChanged",
      "type": "event"
    },
    {
      "anonymous": false,
      "inputs": [
        {
          "indexed": true,
          "internalType": "bytes32",
          "name": "role",
          "type": "bytes32"
        },
        {
          "indexed": true,
          "internalType": "address",
          "name": "account",
          "type": "address"
        },
        {
          "indexed": true,
          "internalType": "address",
          "name": "sender",
          "type": "address"
        }
      ],
      "name": "RoleGranted",
      "type": "event"
    },
    {
      "anonymous": false,
      "inputs": [
        {
          "indexed": true,
          "internalType": "bytes32",
          "name": "role",
          "type": "bytes32"
        },
        {
          "indexed": true,
          "internalType": "address",
          "name": "account",
          "type": "address"
        },
        {
          "indexed": true,
          "internalType": "address",
          "name": "sender",
          "type": "address"
        }
      ],
      "name": "RoleRevoked",
      "type": "event"
    },
    {
      "anonymous": false,
      "inputs": [
        {
          "indexed": true,
          "internalType": "address",
          "name": "user",
          "type": "address"
        },
        {
          "indexed": false,
          "internalType": "uint256",
          "name": "amount",
          "type": "uint256"
        },
        {
          "indexed": false,
          "internalType": "uint256",
          "name": "lockDuration",
          "type": "uint256"
        },
        {
          "indexed": false,
          "internalType": "uint256",
          "name": "endTime",
          "type": "uint256"
        }
      ],
      "name": "Staked",
      "type": "event"
    },
    {
      "anonymous": false,
      "inputs": [
        {
          "indexed": false,
          "internalType": "uint256",
          "name": "lockDuration",
          "type": "uint256"
        },
        {
          "indexed": false,
          "internalType": "uint256",
          "name": "rewardMultiplier",
          "type": "uint256"
        }
      ],
      "name": "StakingTierAdded",
      "type": "event"
    },
    {
      "anonymous": false,
      "inputs": [
        {
          "indexed": false,
          "internalType": "uint256",
          "name": "lockDuration",
          "type": "uint256"
        },
        {
          "indexed": false,
          "internalType": "uint256",
          "name": "rewardMultiplier",
          "type": "uint256"
        }
      ],
      "name": "StakingTierUpdated",
      "type": "event"
    },
    {
      "anonymous": false,
      "inputs": [
        {
          "indexed": true,
          "internalType": "address",
          "name": "user",
          "type": "address"
        },
        {
          "indexed": false,
          "internalType": "uint256",
          "name": "amount",
          "type": "uint256"
        },
        {
          "indexed": false,
          "internalType": "bool",
          "name": "penalized",
          "type": "bool"
        }
      ],
      "name": "Unstaked",
      "type": "event"
    },
    {
      "inputs": [],
      "name": "DEFAULT_ADMIN_ROLE",
      "outputs": [
        {
          "internalType": "bytes32",
          "name": "",
          "type": "bytes32"
        }
      ],
      "stateMutability": "view",
      "type": "function"
    },
    {
      "inputs": [],
      "name": "FEE_DISTRIBUTOR_ROLE",
      "outputs": [
        {
          "internalType": "bytes32",
          "name": "",
          "type": "bytes32"
        }
      ],
      "stateMutability": "view",
      "type": "function"
    },
    {
      "inputs": [],
      "name": "accumulatedRewardsPerToken",
      "outputs": [
        {
          "internalType": "uint256",
          "name": "",
          "type": "uint256"
        }
      ],
      "stateMutability": "view",
      "type": "function"
    },
    {
      "inputs": [
        {
          "internalType": "uint256",
          "name": "lockDuration",
          "type": "uint256"
        },
        {
          "internalType": "uint256",
          "name": "rewardMultiplier",
          "type": "uint256"
        }
      ],
      "name": "addStakingTier",
      "outputs": [],
      "stateMutability": "nonpayable",
      "type": "function"
    },
    {
      "inputs": [
        {
          "internalType": "address",
          "name": "user",
          "type": "address"
        }
      ],
      "name": "calculatePendingRewards",
      "outputs": [
        {
          "internalType": "uint256",
          "name": "",
          "type": "uint256"
        }
      ],
      "stateMutability": "view",
      "type": "function"
    },
    {
      "inputs": [],
      "name": "claimRewards",
      "outputs": [],
      "stateMutability": "nonpayable",
      "type": "function"
    },
    {
      "inputs": [],
      "name": "distributeRewards",
      "outputs": [],
      "stateMutability": "payable",
      "type": "function"
    },
    {
      "inputs": [],
      "name": "earlyWithdrawalPenalty",
      "outputs": [
        {
          "internalType": "uint256",
          "name": "",
          "type": "uint256"
        }
      ],
      "stateMutability": "view",
      "type": "function"
    },
    {
      "inputs": [
        {
          "internalType": "address",
          "name": "user",
          "type": "address"
        }
      ],
      "name": "getFeeDiscount",
      "outputs": [
        {
          "internalType": "uint256",
          "name": "",
          "type": "uint256"
        }
      ],
      "stateMutability": "view",
      "type": "function"
    },
    {
      "inputs": [],
      "name": "getLockDurations",
      "outputs": [
        {
          "internalType": "uint256[]",
          "name": "",
          "type": "uint256[]"
        }
      ],
      "stateMutability": "view",
      "type": "function"
    },
    {
      "inputs": [
        {
          "internalType": "bytes32",
          "name": "role",
          "type": "bytes32"
        }
      ],
      "name": "getRoleAdmin",
      "outputs": [
        {
          "internalType": "bytes32",
          "name": "",
          "type": "bytes32"
        }
      ],
      "stateMutability": "view",
      "type": "function"
    },
    {
      "inputs": [
        {
          "internalType": "bytes32",
          "name": "role",
          "type": "bytes32"
        },
        {
          "internalType": "uint256",
          "name": "index",
          "type": "uint256"
        }
      ],
      "name": "getRoleMember",
      "outputs": [
        {
          "internalType": "address",
          "name": "",
          "type": "address"
        }
      ],
      "stateMutability": "view",
      "type": "function"
    },
    {
      "inputs": [
        {
          "internalType": "bytes32",
          "name": "role",
          "type": "bytes32"
        }
      ],
      "name": "getRoleMemberCount",
      "outputs": [
        {
          "internalType": "uint256",
          "name": "",
          "type": "uint256"
        }
      ],
      "stateMutability": "view",
      "type": "function"
    },
    {
      "inputs": [
        {
          "internalType": "bytes32",
          "name": "role",
          "type": "bytes32"
        }
      ],
      "name": "getRoleMembers",
      "outputs": [
        {
          "internalType": "address[]",
          "name": "",
          "type": "address[]"
        }
      ],
      "stateMutability": "view",
      "type": "function"
    },
    {
      "inputs": [
        {
          "internalType": "address",
          "name": "user",
          "type": "address"
        }
      ],
      "name": "getStakesByUser",
      "outputs": [
        {
          "internalType": "uint256[]",
          "name": "amounts",
          "type": "uint256[]"
        },
        {
          "internalType": "uint256[]",
          "name": "userLockDurations",
          "type": "uint256[]"
        },
        {
          "internalType": "uint256[]",
          "name": "startTimes",
          "type": "uint256[]"
        },
        {
          "internalType": "uint256[]",
          "name": "endTimes",
          "type": "uint256[]"
        },
        {
          "internalType": "uint256[]",
          "name": "multipliers",
          "type": "uint256[]"
        }
      ],
      "stateMutability": "view",
      "type": "function"
    },
    {
      "inputs": [
        {
          "internalType": "uint256",
          "name": "lockDuration",
          "type": "uint256"
        }
      ],
      "name": "getStakingTier",
      "outputs": [
        {
          "internalType": "uint256",
          "name": "duration",
          "type": "uint256"
        },
        {
          "internalType": "uint256",
          "name": "multiplier",
          "type": "uint256"
        }
      ],
      "stateMutability": "view",
      "type": "function"
    },
    {
      "inputs": [
        {
          "internalType": "address",
          "name": "user",
          "type": "address"
        }
      ],
      "name": "getTotalStakedByUser",
      "outputs": [
        {
          "internalType": "uint256",
          "name": "",
          "type": "uint256"
        }
      ],
      "stateMutability": "view",
      "type": "function"
    },
    {
      "inputs": [
        {
          "internalType": "bytes32",
          "name": "role",
          "type": "bytes32"
        },
        {
          "internalType": "address",
          "name": "account",
          "type": "address"
        }
      ],
      "name": "grantRole",
      "outputs": [],
      "stateMutability": "nonpayable",
      "type": "function"
    },
    {
      "inputs": [
        {
          "internalType": "bytes32",
          "name": "role",
          "type": "bytes32"
        },
        {
          "internalType": "address",
          "name": "account",
          "type": "address"
        }
      ],
      "name": "hasRole",
      "outputs": [
        {
          "internalType": "bool",
          "name": "",
          "type": "bool"
        }
      ],
      "stateMutability": "view",
      "type": "function"
    },
    {
      "inputs": [
        {
          "internalType": "uint256",
          "name": "",
          "type": "uint256"
        }
      ],
      "name": "lockDurations",
      "outputs": [
        {
          "internalType": "uint256",
          "name": "",
          "type": "uint256"
        }
      ],
      "stateMutability": "view",
      "type": "function"
    },
    {
      "inputs": [],
      "name": "omniToken",
      "outputs": [
        {
          "internalType": "contract IERC20",
          "name": "",
          "type": "address"
        }
      ],
      "stateMutability": "view",
      "type": "function"
    },
    {
      "inputs": [
        {
          "internalType": "address",
          "name": "",
          "type": "address"
        }
      ],
      "name": "pendingRewards",
      "outputs": [
        {
          "internalType": "uint256",
          "name": "",
          "type": "uint256"
        }
      ],
      "stateMutability": "view",
      "type": "function"
    },
    {
      "inputs": [
        {
          "internalType": "bytes32",
          "name": "role",
          "type": "bytes32"
        },
        {
          "internalType": "address",
          "name": "callerConfirmation",
          "type": "address"
        }
      ],
      "name": "renounceRole",
      "outputs": [],
      "stateMutability": "nonpayable",
      "type": "function"
    },
    {
      "inputs": [
        {
          "internalType": "bytes32",
          "name": "role",
          "type": "bytes32"
        },
        {
          "internalType": "address",
          "name": "account",
          "type": "address"
        }
      ],
      "name": "revokeRole",
      "outputs": [],
      "stateMutability": "nonpayable",
      "type": "function"
    },
    {
      "inputs": [
        {
          "internalType": "uint256",
          "name": "amount",
          "type": "uint256"
        },
        {
          "internalType": "uint256",
          "name": "lockDurationIndex",
          "type": "uint256"
        }
      ],
      "name": "stake",
      "outputs": [],
      "stateMutability": "nonpayable",
      "type": "function"
    },
    {
      "inputs": [
        {
          "internalType": "uint256",
          "name": "",
          "type": "uint256"
        }
      ],
      "name": "stakingTiers",
      "outputs": [
        {
          "internalType": "uint256",
          "name": "lockDuration",
          "type": "uint256"
        },
        {
          "internalType": "uint256",
          "name": "rewardMultiplier",
          "type": "uint256"
        }
      ],
      "stateMutability": "view",
      "type": "function"
    },
    {
      "inputs": [
        {
          "internalType": "bytes4",
          "name": "interfaceId",
          "type": "bytes4"
        }
      ],
      "name": "supportsInterface",
      "outputs": [
        {
          "internalType": "bool",
          "name": "",
          "type": "bool"
        }
      ],
      "stateMutability": "view",
      "type": "function"
    },
    {
      "inputs": [],
      "name": "totalRewardsDistributed",
      "outputs": [
        {
          "internalType": "uint256",
          "name": "",
          "type": "uint256"
        }
      ],
      "stateMutability": "view",
      "type": "function"
    },
    {
      "inputs": [],
      "name": "totalStaked",
      "outputs": [
        {
          "internalType": "uint256",
          "name": "",
          "type": "uint256"
        }
      ],
      "stateMutability": "view",
      "type": "function"
    },
    {
      "inputs": [
        {
          "internalType": "uint256",
          "name": "stakeIndex",
          "type": "uint256"
        }
      ],
      "name": "unstake",
      "outputs": [],
      "stateMutability": "nonpayable",
      "type": "function"
    },
    {
      "inputs": [
        {
          "internalType": "uint256",
          "name": "penalty",
          "type": "uint256"
        }
      ],
      "name": "updateEarlyWithdrawalPenalty",
      "outputs": [],
      "stateMutability": "nonpayable",
      "type": "function"
    },
    {
      "inputs": [
        {
          "internalType": "uint256",
          "name": "lockDuration",
          "type": "uint256"
        },
        {
          "internalType": "uint256",
          "name": "rewardMultiplier",
          "type": "uint256"
        }
      ],
      "name": "updateStakingTier",
      "outputs": [],
      "stateMutability": "nonpayable",
      "type": "function"
    },
    {
      "inputs": [
        {
          "internalType": "address",
          "name": "",
          "type": "address"
        }
      ],
      "name": "userRewardDebts",
      "outputs": [
        {
          "internalType": "uint256",
          "name": "",
          "type": "uint256"
        }
      ],
      "stateMutability": "view",
      "type": "function"
    },
    {
      "inputs": [
        {
          "internalType": "address",
          "name": "",
          "type": "address"
        },
        {
          "internalType": "uint256",
          "name": "",
          "type": "uint256"
        }
      ],
      "name": "userStakes",
      "outputs": [
        {
          "internalType": "uint256",
          "name": "amount",
          "type": "uint256"
        },
        {
          "internalType": "uint256",
          "name": "lockDuration",
          "type": "uint256"
        },
        {
          "internalType": "uint256",
          "name": "startTime",
          "type": "uint256"
        },
        {
          "internalType": "uint256",
          "name": "endTime",
          "type": "uint256"
        },
        {
          "internalType": "uint256",
          "name": "lastRewardClaimTime",
          "type": "uint256"
        },
        {
          "internalType": "bool",
          "name": "unlocked",
          "type": "bool"
        }
      ],
      "stateMutability": "view",
      "type": "function"
    },
    {
      "stateMutability": "payable",
      "type": "receive"
    }
  ],
  "bytecode": "0x608034620004375762002441601f38829003908101601f19168301906001600160401b038211848310176200043c578084916040948594855283398101031262000437576200004e8262000472565b916200005e602080920162000472565b600160008181556103e8600c55600380546001600160a01b0319166001600160a01b039788161781559195909392620000978162000487565b62000416575b50508280526004808352858585200154620003dd57620000bc62000452565b938085528385019487606496878152838052848752888420925183555191015560058054976801000000000000000092838a1015620003ca57620001068a838b9c01855562000519565b9590805460001980988a1b1b19169055895182815289898201527f092f3e4d0effe56ce357fb92c46768da5f27170b419cf71b53cc40f36f28fe279a8b91a162278d00808352818952838c8420015462000392576200016462000452565b818152848d8b83019060698252848752858d52862092518355519101558454868110156200037f578b916200019f828f938801895562000519565b8154908c1b908b84831b921b1916179055815190815260698b820152a16276a700808352818952838c842001546200039257620001db62000452565b818152848d8b83019060738252848752858d52862092518355519101558454868110156200037f578b9162000216828f938801895562000519565b8154908c1b908b84831b921b1916179055815190815260738b820152a162ed4e00808352818952838c8420015462000392576200025262000452565b818152848d8b83019060828252848752858d52862092518355519101558454868110156200037f578b916200028d828f938801895562000519565b8154908c1b908b84831b921b1916179055815190815260828b820152a16301e1338098898352818952838c84200154620003485750620002cc62000452565b89815283898201609681528b8552838b528d85209251835551910155835494851015620003355750508289979694926200030d926096979501905562000519565b81939154911b9186831b921b19161790558351928352820152a151611e689081620005d98239f35b634e487b7160e01b825260419052602490fd5b8b5162461bcd60e51b815291820189905260136024830152725469657220616c72656164792065786973747360681b604483015290fd5b634e487b7160e01b845260418352602484fd5b8b5162461bcd60e51b81528083018a905260136024820152725469657220616c72656164792065786973747360681b60448201528a90fd5b634e487b7160e01b815260418552602490fd5b845162461bcd60e51b815290810183905260136024820152725469657220616c72656164792065786973747360681b6044820152606490fd5b6200042e91858052600285528686209116906200054b565b5038806200009d565b600080fd5b634e487b7160e01b600052604160045260246000fd5b60408051919082016001600160401b038111838210176200043c57604052565b51906001600160a01b03821682036200043757565b6001600160a01b031660008181527fa6eef7e35abe7026729641147f7915573c7e97b47efa546f5f6e3230263bcb49602052604081205490919060ff16620005155781805260016020526040822081835260205260408220600160ff1982541617905533917f2f8788117e7eff1d82e926ec794901d17c78024a50270940304540a733656f0d8180a4600190565b5090565b6005548110156200053557600560005260206000200190600090565b634e487b7160e01b600052603260045260246000fd5b91906001830160009082825280602052604082205415600014620005d25784549468010000000000000000861015620005be5760018601808255861015620005aa57836040949596828552602085200155549382526020522055600190565b634e487b7160e01b83526032600452602483fd5b634e487b7160e01b83526041600452602483fd5b5092505056fe608060408181526004918236101561002b575b505050361561002057600080fd5b61002934611b39565b005b600092833560e01c9182630186f8a41461123a5750816301ffc9a7146111c75781630951984d146111a6578163097aad10146111795781630cdac9631461113e578163111a980214611024578163248a9ca314610ffa578163291a3d9e14610fdb5781632e17de7814610dbc5781632f2ff15d14610d5057816331d7a26214610d1857816332298be114610cdf57816336568abe14610c99578163372500ab14610c705781633896218614610c5157816368a34f9814610ba25781636f4a2cd014610aed57816376520c6d14610abc5781637b0472f01461081c578163817b1cd2146107fd5781638686b39a146107c55781639010d07c1461078457816391d148541461073d578163a217fddf14610722578163a3246ad31461067a578163b3c6cd7614610634578163b5d5b5fa146105a9578163b7fa7cfc14610506578163c0d8fd3f1461030a578163ca15c873146102e2578163d1e85a7414610246578163d50267ee14610215578163d547741f146101d2575063ee172546146101b15780610012565b346101ce57816003193601126101ce576020906008549051908152f35b5080fd5b9190503461021157806003193601126102115761020d913561020860016101f761127a565b9383875281602052862001546113b3565b611459565b5080f35b8280fd5b9050346102115760203660031901126102115791828293358252602052206001815491015482519182526020820152f35b919050346102115760203660031901126102115781359161026561135b565b610bb883116102a05750816020917f653931a1f8b4e31039939d617fe0c066dc997f98127fd699e126a13766fa64d493600c5551908152a180f35b6020606492519162461bcd60e51b8352820152601960248201527f50656e616c74792063616e6e6f742065786365656420333025000000000000006044820152fd5b9050346102115760203660031901126102115760209282913581526002845220549051908152f35b91905034610211576020806003193601126105025761032761125f565b84926001600160a01b0390911690835b8287526006845281872080548210156103855760056103588360ff9361133f565b5001541615610370575b61036b9061181f565b610337565b9361037d61036b9161181f565b949050610362565b50509091938561039485611d7f565b9061039e86611d7f565b936103a887611d7f565b916103bb6103b589611d7f565b98611d7f565b948196825b8984526006808d528585208054831015610496578d918c60ff8f936103e78760059261133f565b5001541615610403575b505050506103fe9061181f565b6103c0565b92858d9361046e879f60608f8f8f8f8f9a9161043d6103fe9f61048a9f9083858f9761046598610437958e9952522061133f565b506119b3565b9461044a83875192611db1565b528a85019961045b838c5192611db1565b5284015192611db1565b52015192611db1565b525188525260018787200154610484828c611db1565b5261181f565b9890508b8b8e8c6103f1565b6104c8898f8f6104f08e916104e28d8f6104d56104fe976104b5611dc5565b84519b8c9b60a08d5260a08d019061130b565b918b8303908c015261130b565b918883039089015261130b565b90858203606087015261130b565b90838203608085015261130b565b0390f35b8380fd5b8383346101ce5760209283600319360112610211578361052c61052761125f565b611cdc565b600354845162a0785560e71b815293840191909152829060249082906001600160a01b03165afa92831561059e578093610569575b505051908152f35b909192508382813d8311610597575b61058281836116da565b81010312610594575051908380610561565b80fd5b503d610578565b8251903d90823e3d90fd5b919050346102115780600319360112610211576105c461125f565b6001600160a01b03168352600660205280832080546024359490851015610594575060c0936105f29161133f565b5080549260018201549260028301549060ff600560038601549486015495015416948151968752602087015285015260608401526080830152151560a0820152f35b9050346102115760203660031901126102115791828293358252602052206020825161065f8161168c565b60018354938483520154918291015282519182526020820152f35b9050823461059457602091826003193601126101ce5792919235815260028352818120908251808584549182815201908194845286842090845b81811061070e57505050816106ca9103826116da565b83519485948186019282875251809352850193925b8281106106ee57505050500390f35b83516001600160a01b0316855286955093810193928101926001016106df565b8254845292880192600192830192016106b4565b5050346101ce57816003193601126101ce5751908152602090f35b9050346102115781600319360112610211578160209360ff9261075e61127a565b90358252600186528282206001600160a01b039091168252855220549151911615158152f35b9050346102115781600319360112610211576020926107af91358152600284528260243591206112f3565b905491519160018060a01b039160031b1c168152f35b5050346101ce5760203660031901126101ce5760209181906001600160a01b036107ed61125f565b168152600a845220549051908152f35b5050346101ce57816003193601126101ce576020906007549051908152f35b9050346102115761082c36611290565b6108379391936117fc565b8315610a8857600554811015610a4557610850906112a6565b90549060031b1c80855260208381526001838720015415610a0b57610874336118b0565b60035483516323b872dd60e01b8382015233602482015230604482015260648082018890528152906001600160a01b031660a0820167ffffffffffffffff8111838210176109f85785526108c89190611794565b6108d28242611754565b9333875260068252838720908451906108ea826116be565b8782528382018581528683014281526060840190898252608085019242845260a08601968d8852805490600160401b8210156109e557906109309160018201815561133f565b9690966109d3579060059695949392915186555160018601555160028501555160038401555190820155019051151560ff8019835416911617905561097785600754611754565b600755670de0b6b3a764000061098f60095487611761565b04338752600a82528387205582519485528401528201527fb4caaf29adda3eefee3ad552a8e85058589bf834c7466cae4ee58787f70589ed60603392a26001815580f35b634e487b7160e01b8e528d865260248efd5b634e487b7160e01b8f526041875260248ffd5b634e487b7160e01b895260418752602489fd5b8360649184519162461bcd60e51b8352820152601560248201527424b73b30b634b2103637b1b590323ab930ba34b7b760591b6044820152fd5b815162461bcd60e51b8152602081850152601b60248201527f496e76616c6964206c6f636b206475726174696f6e20696e64657800000000006044820152606490fd5b815162461bcd60e51b8152602081850152600e60248201526d043616e6e6f74207374616b6520360941b6044820152606490fd5b5050346101ce57816003193601126101ce576104fe90610ada611dc5565b905191829160208352602083019061130b565b91905082600319360112610211577f59c7a9ef9a56707d87d116a5d27496afee2604c70b902ac2c4dbdcb68f36f2ea808452600160205281842033855260205260ff828520541615610b8657503415610b4d5782610b4a34611b39565b80f35b906020606492519162461bcd60e51b83528201526013602482015272043616e6e6f742064697374726962757465203606c1b6044820152fd5b60449291519163e2517d3f60e01b835233908301526024820152fd5b8383346101ce57610bb236611290565b610bba61135b565b610bc760648210156116fc565b818452846020526001838520015415610c19578394827f8d0fe207ea42d27eee4d8edb2e4d91a2b2a3f055c41ec36e19d6e007428a54689552602052806001848720015582519182526020820152a180f35b825162461bcd60e51b81526020818701526012602482015271151a595c88191bd95cdb89dd08195e1a5cdd60721b6044820152606490fd5b5050346101ce57816003193601126101ce576020906009549051908152f35b8334610594578060031936011261059457610c896117fc565b610c92336118b0565b6001815580f35b8383346101ce57806003193601126101ce57610cb361127a565b90336001600160a01b03831603610cd0575061020d919235611459565b5163334bd91960e11b81528390fd5b9050346102115760203660031901126102115735916005548310156105945750610d0a6020926112a6565b91905490519160031b1c8152f35b5050346101ce5760203660031901126101ce5760209181906001600160a01b03610d4061125f565b168152600b845220549051908152f35b9050346102115781600319360112610211573590610d6c61127a565b908284526001602052610d84600182862001546113b3565b610d8e82846113d9565b610d96578380f35b9183526002602052908220610db4916001600160a01b03169061150b565b503880808380f35b8383346101ce5760209081600319360112610211578335610ddb6117fc565b3384526006835281842054811015610fa257610e00903385526006845282852061133f565b50916005830160ff815416610f66578354938591610e1d336118b0565b60038201544210610f14575b610e66670de0b6b3a764000092610e6f92600160ff19825416179055610e528154600754611579565b600755610e5e33611cdc565b905490611579565b60095490611761565b04338652600a83528386205560018060a01b036003541683519063a9059cbb60e01b84830152336024830152856044830152604482526080820182811067ffffffffffffffff821117610f015785527f4416ca74b4c9dd8d6070d91c267a6cf53734c0f343ced0ad02471ccb5417037e94939291610eec91611794565b82519485521515908401523392a26001815580f35b634e487b7160e01b885260418952602488fd5b949150610e6f610e66670de0b6b3a764000092610f41612710610f39600c5488611761565b048096611579565b97610f5c600196610f5481600754611579565b600755611b39565b9250925050610e29565b825162461bcd60e51b8152808701839052601660248201527514dd185ad948185b1c9958591e481d5b9b1bd8dad95960521b6044820152606490fd5b815162461bcd60e51b81528086018490526013602482015272092dcecc2d8d2c840e6e8c2d6ca40d2dcc8caf606b1b6044820152606490fd5b5050346101ce57816003193601126101ce57602090600c549051908152f35b90503461021157602036600319011261021157816020936001923581528285522001549051908152f35b8383346101ce5761103436611290565b61103c61135b565b61104960648210156116fc565b81845284602052600183852001546111055782516110668161168c565b828152600160208201838152848752876020528587209251835551910155600554600160401b8110156110f2577f092f3e4d0effe56ce357fb92c46768da5f27170b419cf71b53cc40f36f28fe279495506110e26110cb8260018694016005556112a6565b819391549060031b91821b91600019901b19161790565b905582519182526020820152a180f35b634e487b7160e01b855260418652602485fd5b825162461bcd60e51b815260208187015260136024820152725469657220616c72656164792065786973747360681b6044820152606490fd5b5050346101ce57816003193601126101ce57602090517f59c7a9ef9a56707d87d116a5d27496afee2604c70b902ac2c4dbdcb68f36f2ea8152f35b5050346101ce5760203660031901126101ce5760209061119f61119a61125f565b6119fe565b9051908152f35b5050346101ce5760203660031901126101ce5760209061119f61052761125f565b90503461021157602036600319011261021157359063ffffffff60e01b82168092036102115760209250635a05180f60e01b821491821561120c575b50519015158152f35b909150637965db0b60e01b8114908115611229575b509038611203565b6301ffc9a760e01b14905038611221565b8490346101ce57816003193601126101ce576003546001600160a01b03168152602090f35b600435906001600160a01b038216820361127557565b600080fd5b602435906001600160a01b038216820361127557565b6040906003190112611275576004359060243590565b6005548110156112dd5760056000527f036b6384b5eca791c62761152d0c79bb0604c104a5fb6f4eb0703f3154bb3db00190600090565b634e487b7160e01b600052603260045260246000fd5b80548210156112dd5760005260206000200190600090565b90815180825260208080930193019160005b82811061132b575050505090565b83518552938101939281019260010161131d565b80548210156112dd576000526006602060002091020190600090565b3360009081527fa6eef7e35abe7026729641147f7915573c7e97b47efa546f5f6e3230263bcb49602052604081205460ff16156113955750565b6044906040519063e2517d3f60e01b82523360048301526024820152fd5b80600052600160205260406000203360005260205260ff60406000205416156113955750565b906000918083526001602052604083209160018060a01b03169182845260205260ff604084205416156000146114545780835260016020526040832082845260205260408320600160ff198254161790557f2f8788117e7eff1d82e926ec794901d17c78024a50270940304540a733656f0d339380a4600190565b505090565b6114638282611494565b918261146e57505090565b600091825260026020526040909120611490916001600160a01b03169061159c565b5090565b906000918083526001602052604083209160018060a01b03169182845260205260ff604084205416600014611454578083526001602052604083208284526020526040832060ff1981541690557ff6391f5c32d9c69d2a47ea670b442974b53935d1edc7fd64eb21e047a839171b339380a4600190565b9190600183016000908282528060205260408220541560001461157357845494600160401b86101561155f578361154f6110cb886001604098999a018555846112f3565b9055549382526020522055600190565b634e487b7160e01b83526041600452602483fd5b50925050565b9190820391821161158657565b634e487b7160e01b600052601160045260246000fd5b9060018201906000928184528260205260408420549081151560001461168557600019918083018181116116715782549084820191821161165d57818103611628575b50505080548015611614578201916115f783836112f3565b909182549160031b1b191690555582526020526040812055600190565b634e487b7160e01b86526031600452602486fd5b6116486116386110cb93866112f3565b90549060031b1c928392866112f3565b905586528460205260408620553880806115df565b634e487b7160e01b88526011600452602488fd5b634e487b7160e01b87526011600452602487fd5b5050505090565b6040810190811067ffffffffffffffff8211176116a857604052565b634e487b7160e01b600052604160045260246000fd5b60c0810190811067ffffffffffffffff8211176116a857604052565b90601f8019910116810190811067ffffffffffffffff8211176116a857604052565b1561170357565b60405162461bcd60e51b8152602060048201526024808201527f4d756c7469706c696572206d757374206265206174206c6561737420313030206044820152632831782960e01b6064820152608490fd5b9190820180921161158657565b8181029291811591840414171561158657565b811561177e570490565b634e487b7160e01b600052601260045260246000fd5b906000602091828151910182855af1156117f0576000513d6117e757506001600160a01b0381163b155b6117c55750565b604051635274afe760e01b81526001600160a01b039091166004820152602490fd5b600114156117be565b6040513d6000823e3d90fd5b60026000541461180d576002600055565b604051633ee5aeb560e01b8152600490fd5b60001981146115865760010190565b3d15611869573d9067ffffffffffffffff82116116a8576040519161185d601f8201601f1916602001846116da565b82523d6000602084013e565b606090565b1561187557565b60405162461bcd60e51b8152602060048201526013602482015272115512081d1c985b9cd9995c8819985a5b1959606a1b6044820152606490fd5b6118b981611cdc565b156119b0576118c7816119fe565b806118d0575050565b909160005b6001600160a01b038416600081815260066020818152604092839020805486101561194b57918594939160ff6005611911886119259a9761133f565b500154161561192a575b505050505061181f565b6118d5565b61193a946000525260002061133f565b50600442910155388181808061191b565b505050505050919060207ffc30cddea38e2bf4d6ea7d3f9ed3b6ad7f176419f4963bd81318067a4aee73fe916119a760008080808560018060a01b038a16998a8352600b89528260408120555af16119a161182e565b5061186e565b604051908152a2565b50565b906040516119c0816116be565b60a060ff6005839580548552600181015460208601526002810154604086015260038101546060860152600481015460808601520154161515910152565b611a0781611cdc565b15611b33579081611a1a611a2f93611cdc565b670de0b6b3a764000093849160095490611761565b0460018060a01b03821693600090858252602090600a8252611a576040948585205490611579565b90611a628496611cdc565b9182611a81575b505050600b90611a7e95968352522054611754565b90565b909197845b818652600685528686208054821015611b1e5761043782611aa69261133f565b60a081015115611ac0575b50611abb9061181f565b611a86565b80989198518581029080820487149015171561165d57916064611b10611b1793898f611af9611af38c92611abb9a611774565b8b611761565b049101518b5260048a5260018c8c20015490611761565b0490611754565b9790611ab1565b50909850839250611a7e9150600b9050611a69565b50600090565b60075415611bb157670de0b6b3a7640000808202908282041482151715611586577f6d1c76d614228b523baa4dcd9539e2c713b54ff4ab3ff2d1627e7f6cd32be44291611b96611b8e60209360075490611774565b600954611754565b600955611ba581600854611754565b600855604051908152a1565b6000805b6101008110611c3a575b5015611c00576000805260026020526040600020908154156112dd57600080808093611bfe95825260018060a01b036020832054165af16119a161182e565b565b60405162461bcd60e51b81526020600482015260126024820152714e6f2061646d696e20617661696c61626c6560701b6044820152606490fd5b604051632404341f60e21b8152600060048201526024810182905260208082604481305afa9160009183611c9f575b50509015600014611c7a5750611bbf565b6001600160a01b0316611c9557611c909061181f565b611bb5565b5050600138611bbf565b81813d8311611cd5575b611cb381836116da565b810103126101ce5751906001600160a01b038216820361059457503880611c69565b503d611ca9565b6000805b60018060a01b0383168060005260066020818152604092836000208054861015611d5c576005611d128760ff9361133f565b5001541615611d2e575b50505050611d299061181f565b611ce0565b93611d5293819693611d4a93611d29976000525260002061133f565b505490611754565b9190388080611d1c565b505050505050905090565b67ffffffffffffffff81116116a85760051b60200190565b90611d8982611d67565b611d9660405191826116da565b8281528092611da7601f1991611d67565b0190602036910137565b80518210156112dd5760209160051b010190565b60405190600554808352826020918282019060056000527f036b6384b5eca791c62761152d0c79bb0604c104a5fb6f4eb0703f3154bb3db0936000905b828210611e1857505050611bfe925003836116da565b855484526001958601958895509381019390910190611e0256fea26469706673582212207f94436ad6df262ef197283858a5b5ad9409470ffd6b26d52ac784a81678c12164736f6c63430008140033",
  "linkReferences": {},
  "deployedLinkReferences": {}
}