{
  "_format": "hh-sol-artifact-1",
  "contractName": "OrderExecutor",
  "sourceName": "contracts/OrderExecutor.sol",
  "abi": [
    {
      "inputs": [
        {
          "internalType": "address",
          "name": "_market",
          "type": "address"
        },
        {
          "internalType": "address",
          "name": "_securityModule",
          "type": "address"
        },
        {
          "internalType": "address",
          "name": "_assetRegistry",
          "type": "address"
        },
        {
          "internalType": "address",
          "name": "_oracle",
          "type": "address"
        },
        {
          "internalType": "address",
          "name": "_positionManager",
          "type": "address"
        }
      ],
      "stateMutability": "nonpayable",
      "type": "constructor"
    },
    {
      "inputs": [],
      "name": "InvalidPositionId",
      "type": "error"
    },
    {
      "inputs": [],
      "name": "NoTriggerableOrders",
      "type": "error"
    },
    {
      "inputs": [],
      "name": "TransferFailed",
      "type": "error"
    },
    {
      "inputs": [],
      "name": "Unauthorized",
      "type": "error"
    },
    {
      "anonymous": false,
      "inputs": [
        {
          "indexed": true,
          "internalType": "address",
          "name": "keeper",
          "type": "address"
        }
      ],
      "name": "KeeperAdded",
      "type": "event"
    },
    {
      "anonymous": false,
      "inputs": [
        {
          "indexed": true,
          "internalType": "address",
          "name": "keeper",
          "type": "address"
        }
      ],
      "name": "KeeperRemoved",
      "type": "event"
    },
    {
      "anonymous": false,
      "inputs": [
        {
          "indexed": false,
          "internalType": "uint256",
          "name": "oldReward",
          "type": "uint256"
        },
        {
          "indexed": false,
          "internalType": "uint256",
          "name": "newReward",
          "type": "uint256"
        }
      ],
      "name": "KeeperRewardUpdated",
      "type": "event"
    },
    {
      "anonymous": false,
      "inputs": [
        {
          "indexed": true,
          "internalType": "uint256",
          "name": "positionId",
          "type": "uint256"
        },
        {
          "indexed": true,
          "internalType": "uint256",
          "name": "orderId",
          "type": "uint256"
        },
        {
          "indexed": true,
          "internalType": "address",
          "name": "executor",
          "type": "address"
        },
        {
          "indexed": false,
          "internalType": "uint128",
          "name": "executionPrice",
          "type": "uint128"
        },
        {
          "indexed": false,
          "internalType": "bool",
          "name": "success",
          "type": "bool"
        }
      ],
      "name": "OrderExecuted",
      "type": "event"
    },
    {
      "anonymous": false,
      "inputs": [
        {
          "indexed": true,
          "internalType": "address",
          "name": "previousOwner",
          "type": "address"
        },
        {
          "indexed": true,
          "internalType": "address",
          "name": "newOwner",
          "type": "address"
        }
      ],
      "name": "OwnershipTransferred",
      "type": "event"
    },
    {
      "inputs": [
        {
          "internalType": "address",
          "name": "keeper",
          "type": "address"
        }
      ],
      "name": "addKeeper",
      "outputs": [],
      "stateMutability": "nonpayable",
      "type": "function"
    },
    {
      "inputs": [],
      "name": "assetRegistry",
      "outputs": [
        {
          "internalType": "contract AssetRegistry",
          "name": "",
          "type": "address"
        }
      ],
      "stateMutability": "view",
      "type": "function"
    },
    {
      "inputs": [
        {
          "internalType": "address",
          "name": "",
          "type": "address"
        }
      ],
      "name": "authorizedKeepers",
      "outputs": [
        {
          "internalType": "bool",
          "name": "",
          "type": "bool"
        }
      ],
      "stateMutability": "view",
      "type": "function"
    },
    {
      "inputs": [
        {
          "internalType": "uint256",
          "name": "positionId",
          "type": "uint256"
        }
      ],
      "name": "executeOrder",
      "outputs": [
        {
          "internalType": "bool",
          "name": "",
          "type": "bool"
        }
      ],
      "stateMutability": "nonpayable",
      "type": "function"
    },
    {
      "inputs": [
        {
          "internalType": "uint256",
          "name": "",
          "type": "uint256"
        }
      ],
      "name": "executionHistory",
      "outputs": [
        {
          "internalType": "uint256",
          "name": "positionId",
          "type": "uint256"
        },
        {
          "internalType": "uint256",
          "name": "orderId",
          "type": "uint256"
        },
        {
          "internalType": "uint128",
          "name": "triggerPrice",
          "type": "uint128"
        },
        {
          "internalType": "uint128",
          "name": "executionPrice",
          "type": "uint128"
        },
        {
          "internalType": "address",
          "name": "executor",
          "type": "address"
        },
        {
          "internalType": "uint256",
          "name": "timestamp",
          "type": "uint256"
        },
        {
          "internalType": "bool",
          "name": "success",
          "type": "bool"
        }
      ],
      "stateMutability": "view",
      "type": "function"
    },
    {
      "inputs": [],
      "name": "getExecutionHistoryCount",
      "outputs": [
        {
          "internalType": "uint256",
          "name": "",
          "type": "uint256"
        }
      ],
      "stateMutability": "view",
      "type": "function"
    },
    {
      "inputs": [
        {
          "internalType": "uint256",
          "name": "positionId",
          "type": "uint256"
        },
        {
          "internalType": "uint256",
          "name": "limit",
          "type": "uint256"
        }
      ],
      "name": "getExecutionHistoryForPosition",
      "outputs": [
        {
          "internalType": "uint256[]",
          "name": "timestamps",
          "type": "uint256[]"
        },
        {
          "internalType": "uint128[]",
          "name": "executionPrices",
          "type": "uint128[]"
        },
        {
          "internalType": "address[]",
          "name": "executors",
          "type": "address[]"
        },
        {
          "internalType": "bool[]",
          "name": "successes",
          "type": "bool[]"
        }
      ],
      "stateMutability": "view",
      "type": "function"
    },
    {
      "inputs": [
        {
          "internalType": "string",
          "name": "asset",
          "type": "string"
        },
        {
          "internalType": "uint256",
          "name": "startId",
          "type": "uint256"
        },
        {
          "internalType": "uint256",
          "name": "limit",
          "type": "uint256"
        }
      ],
      "name": "getPositionsWithTriggerableOrders",
      "outputs": [
        {
          "internalType": "uint256[]",
          "name": "",
          "type": "uint256[]"
        }
      ],
      "stateMutability": "view",
      "type": "function"
    },
    {
      "inputs": [
        {
          "internalType": "uint256",
          "name": "positionId",
          "type": "uint256"
        },
        {
          "internalType": "uint128",
          "name": "currentPrice",
          "type": "uint128"
        }
      ],
      "name": "isOrderTriggerable",
      "outputs": [
        {
          "internalType": "bool",
          "name": "",
          "type": "bool"
        }
      ],
      "stateMutability": "view",
      "type": "function"
    },
    {
      "inputs": [],
      "name": "keeperReward",
      "outputs": [
        {
          "internalType": "uint256",
          "name": "",
          "type": "uint256"
        }
      ],
      "stateMutability": "view",
      "type": "function"
    },
    {
      "inputs": [],
      "name": "market",
      "outputs": [
        {
          "internalType": "contract Market",
          "name": "",
          "type": "address"
        }
      ],
      "stateMutability": "view",
      "type": "function"
    },
    {
      "inputs": [],
      "name": "oracle",
      "outputs": [
        {
          "internalType": "contract Oracle",
          "name": "",
          "type": "address"
        }
      ],
      "stateMutability": "view",
      "type": "function"
    },
    {
      "inputs": [],
      "name": "owner",
      "outputs": [
        {
          "internalType": "address",
          "name": "",
          "type": "address"
        }
      ],
      "stateMutability": "view",
      "type": "function"
    },
    {
      "inputs": [],
      "name": "positionManager",
      "outputs": [
        {
          "internalType": "contract PositionManager",
          "name": "",
          "type": "address"
        }
      ],
      "stateMutability": "view",
      "type": "function"
    },
    {
      "inputs": [
        {
          "internalType": "address",
          "name": "keeper",
          "type": "address"
        }
      ],
      "name": "removeKeeper",
      "outputs": [],
      "stateMutability": "nonpayable",
      "type": "function"
    },
    {
      "inputs": [],
      "name": "securityModule",
      "outputs": [
        {
          "internalType": "contract SecurityModule",
          "name": "",
          "type": "address"
        }
      ],
      "stateMutability": "view",
      "type": "function"
    },
    {
      "inputs": [
        {
          "internalType": "address",
          "name": "newOwner",
          "type": "address"
        }
      ],
      "name": "transferOwnership",
      "outputs": [],
      "stateMutability": "nonpayable",
      "type": "function"
    },
    {
      "inputs": [
        {
          "internalType": "uint256",
          "name": "newReward",
          "type": "uint256"
        }
      ],
      "name": "updateKeeperReward",
      "outputs": [],
      "stateMutability": "nonpayable",
      "type": "function"
    },
    {
      "inputs": [
        {
          "internalType": "uint256",
          "name": "amount",
          "type": "uint256"
        }
      ],
      "name": "withdraw",
      "outputs": [],
      "stateMutability": "nonpayable",
      "type": "function"
    },
    {
      "stateMutability": "payable",
      "type": "receive"
    }
  ],
  "bytecode": "0x6080346200023c57601f62001a1538819003918201601f1916830191906001600160401b0383118484101762000241578160a092859260409586528339810103126200023c57620000508262000257565b916020906200006182820162000257565b906200006f84820162000257565b916200008c6080620000846060850162000257565b930162000257565b66038d7ea4c680006007556001600160a01b0396871615620001f8578616918215620001b6578616908115620001725786169081156200012e576006959660018060a01b031993846001541617600155836003541694168360055416176005558260025416176002558160045416176004553391339082331617171617600355336000525280600020600160ff19825416179055516117a890816200026d8239f35b855162461bcd60e51b815260048101869052601f60248201527f496e76616c6964207365637572697479206d6f64756c652061646472657373006044820152606490fd5b855162461bcd60e51b815260048101869052601660248201527f496e76616c6964206f7261636c652061646472657373000000000000000000006044820152606490fd5b60648587519062461bcd60e51b825280600483015260248201527f496e76616c696420706f736974696f6e206d616e6167657220616464726573736044820152fd5b855162461bcd60e51b815260048101869052601660248201527f496e76616c6964206d61726b65742061646472657373000000000000000000006044820152606490fd5b600080fd5b634e487b7160e01b600052604160045260246000fd5b51906001600160a01b03821682036200023c5756fe60406080815260049081361015610020575b5050361561001e57600080fd5b005b600091823560e01c80630f77ffbd14610dc457806314ae9f2e14610d5757806325372c6c14610ce05780632e1a7d4d14610c40578063380ef3fe14610c195780634032b72b14610b5b57806341a8762b14610ad25780637181c00414610ab3578063791b98bc14610a8a5780637dc0d1d014610a6157806380f5560514610a3957806383131f23146109ca5780638da5cb5b146109a157806394f6113414610511578063979d7e86146104e8578063a9ec75f6146104c9578063c328f69914610209578063c56f264d146101cb5763f2fde38b146100fe5750610011565b346101c75760203660031901126101c7576001600160a01b038135818116939192908490036101c357600354928316918233036101b757841561017457505082907f8be0079c531659141344cd1fd0a4f28419497f9722a3daafe3b4186f6b6457e08580a36001600160a01b0319161760035580f35b906020606492519162461bcd60e51b8352820152602060248201527f4e6577206f776e65722063616e6e6f74206265207a65726f20616464726573736044820152fd5b516282b42960e81b8152fd5b8480fd5b8280fd5b50346101c75760203660031901126101c757356001600160a01b038116908190036101c757818360ff92602095526006855220541690519015158152f35b509190346104c557806003193601126104c557600854833593602435939283805b848110806104bc575b1561026d578761024282610e34565b505414610258575b61025390611173565b61022a565b9461026561025391611173565b95905061024a565b509386919461027b82611141565b95869361028784611129565b9161029481519384610eb7565b8483526102a085611129565b602084810195601f19939284013688376102b988611129565b966102c684519889610eb7565b8888526102d289611129565b9385848a0195013686376102e58a611129565b996102f282519b8c610eb7565b808b526102fe81611129565b8b860197013688378d849c8d8387935b841091826104b2575b5050156103db578e8a61032984610e34565b505414610346575b505061033c90611173565b8f8f838f9161030e565b9d8d839f828f8f6103bd8860ff936005936103d19a610379886103c79a61033c9f61037090610e34565b50015492611198565b5261039587600261038986610e34565b50015460801c92611198565b526103b7866103a384610e34565b50600301546001600160a01b031692611198565b52610e34565b5001541692611198565b9015159052611173565b9c90508f8e610331565b97969495939150506104009750898b928a8582519b8c9b60808d5260808d0190610e00565b918b8303828d01525191828152019390885b8181106104925750505088830390890152518082529083019390855b8181106104725750505085830360608701525180835291810193925b82811061045957505050500390f35b835115158552869550938101939281019260010161044a565b82516001600160a01b03168652899850948401949184019160010161042e565b82516001600160801b031686528c9b509487019491870191600101610412565b109050838f610317565b50868610610233565b5080fd5b5050346104c557816003193601126104c5576020906007549051908152f35b5050346104c557816003193601126104c55760055490516001600160a01b039091168152602090f35b50913461099e576020908160031936011261099e578335903381526006835260ff84822054161580610989575b61097a5784548451635c975abb60e01b81526001600160a01b039391859082908990829088165afa908115610905578391610945575b5061090f5760248284815416875192838092634f6675af60e11b8252868c8301525afa801561090557839184916108db575b50156108cb57826105d8916105b9610ff6565b50856005541688518080958194630cd5286d60e41b83528d83016110ac565b03915afa8391816108a7575b506105f9578551637bb0b62160e01b81528790fd5b958561062594969597888860025416910151908251808098819463524f388960e01b83528783016110ac565b03915afa93841561089d57839461086d575b506001548551631966340b60e31b81528281018481526001600160801b03871660208201529091899183918a169082908890829060400103925af190811561086357849161082a575b5080159687159761081a57865160e0810181811067ffffffffffffffff8211176108075790899189528581528a8101878152898201888152606083016001600160801b03809b169a8b8252608085019233845260a086019442865260c08701978852600854680100000000000000008110156107f4578060016107069201600855610e34565b9790976107e257906005979695949392915187555160018701555116906001600160801b0319905160801b1617600284015585600384019151166bffffffffffffffffffffffff60a01b8254161790555186820155019051151560ff80198354169116179055816107d3575b506107ae575b50835192835284868401527f850923d14a3d6899dd8ad5be5d3c5adb03afebe629b3ef17c6963a85a0f85168843394a451908152f35b82808080600754335af16107c06110f9565b506107785784516312171d8360e31b8152fd5b90506003541633141538610772565b634e487b7160e01b8e528d8c5260248efd5b634e487b7160e01b8e5260418c5260248efd5b634e487b7160e01b875260418552602487fd5b8651633d883d2760e11b81528390fd5b90508781813d831161085c575b6108418183610eb7565b810103126108585761085290610ed9565b38610680565b8380fd5b503d610837565b86513d86823e3d90fd5b61088e919450853d8711610896575b6108868183610eb7565b8101906110d8565b509238610637565b503d61087c565b85513d85823e3d90fd5b6108c49192503d8086833e6108bc8183610eb7565b81019061101b565b90386105e4565b8551637bb0b62160e01b81528790fd5b90506108f991503d8085833e6108f18183610eb7565b810190610f83565b945050505090386105a6565b86513d85823e3d90fd5b845162461bcd60e51b8152808701859052601060248201526f14de5cdd195b481a5cc81c185d5cd95960821b6044820152606490fd5b90508481813d8311610973575b61095c8183610eb7565b810103126101c75761096d90610ed9565b38610574565b503d610952565b505050516282b42960e81b8152fd5b506003546001600160a01b031633141561053e565b80fd5b5050346104c557816003193601126104c55760035490516001600160a01b039091168152602090f35b50346101c75760203660031901126101c757600354813591906001600160a01b03163303610a2c5750907fc5719dc4ab1136436628cfdf7687edf6550baac2f1b5dcac02ba6ddb2c97846f91600754908060075582519182526020820152a180f35b82516282b42960e81b8152fd5b5050346104c557816003193601126104c557905490516001600160a01b039091168152602090f35b5050346104c557816003193601126104c55760025490516001600160a01b039091168152602090f35b5050346104c557816003193601126104c55760015490516001600160a01b039091168152602090f35b5050346104c557816003193601126104c5576020906008549051908152f35b5090346101c75760203660031901126101c75781359260085484101561099e5750610afe60e093610e34565b5080549260018201549260028301549060ff600560018060a01b03600387015416948601549501541694815196875260208701526001600160801b0382169086015260801c6060850152608084015260a0830152151560c0820152f35b5090346101c75760203660031901126101c75781356001600160a01b0381811693918490036101c357600354163303610c0c578215610bd1575081835260066020528220805460ff191660011790557f1584773458d98c71b34a270ee1100b3a42889bf91e3b7a858563b684c24d838e8280a280f35b6020606492519162461bcd60e51b83528201526016602482015275496e76616c6964206b6565706572206164647265737360501b6044820152fd5b90516282b42960e81b8152fd5b50346101c757826003193601126101c7575490516001600160a01b03909116815260209150f35b5090346101c75760203660031901126101c7576003548235906001600160a01b031633819003610cd257478211610c98578480809381935af1610c816110f9565b5015610c8b578280f35b516312171d8360e31b8152fd5b825162461bcd60e51b81526020818601526014602482015273496e73756666696369656e742062616c616e636560601b6044820152606490fd5b5050516282b42960e81b8152fd5b50913461099e57606036600319011261099e5782359067ffffffffffffffff938483116104c557366023840112156104c55782013593841161099e57366024858401011161099e5750610d5392610d4091604435916024803592016111ac565b9051918291602083526020830190610e00565b0390f35b5090346101c75760203660031901126101c75781356001600160a01b0381811693918490036101c357600354163303610c0c575081835260066020528220805460ff191690557fa7a775c2c8141f7985c111748ec31c11e5e44b83528e105c8d1d4e8e6b81cf808280a280f35b50346101c757816003193601126101c757602435926001600160801b038416840361099e5750602092610df7913561146d565b90519015158152f35b90815180825260208080930193019160005b828110610e20575050505090565b835185529381019392810192600101610e12565b600854811015610e6f576006906008600052027ff3f7a9fe364faab93b216da50a3214154f22a0a2b415b23a84c8169e8b636ee30190600090565b634e487b7160e01b600052603260045260246000fd5b6080810190811067ffffffffffffffff821117610ea157604052565b634e487b7160e01b600052604160045260246000fd5b90601f8019910116810190811067ffffffffffffffff821117610ea157604052565b51908115158203610ee657565b600080fd5b67ffffffffffffffff8111610ea157601f01601f191660200190565b60005b838110610f1a5750506000910152565b8181015183820152602001610f0a565b81601f82011215610ee6578051610f4081610eeb565b92610f4e6040519485610eb7565b81845260208284010111610ee657610f6c9160208085019101610f07565b90565b51906001600160801b0382168203610ee657565b91909160c081840312610ee65780516001600160a01b0381168103610ee6579260208201519067ffffffffffffffff8211610ee657610fc3918301610f2a565b91610fd060408301610f6f565b91610fdd60608201610f6f565b91610f6c60a0610fef60808501610ed9565b9301610ed9565b6040519061100382610e85565b60006060838181528160208201528260408201520152565b602081830312610ee657805167ffffffffffffffff91828211610ee6570190608082840312610ee6576040519261105184610e85565b8251828111610ee65781611066918501610f2a565b84526020830151918211610ee65761107f918301610f2a565b6020830152604081015160ff81168103610ee65760408301526110a490606001610ed9565b606082015290565b604091602082526110cc8151809281602086015260208686019101610f07565b601f01601f1916010190565b9190826040910312610ee657610f6c60206110f284610f6f565b9301610f6f565b3d15611124573d9061110a82610eeb565b916111186040519384610eb7565b82523d6000602084013e565b606090565b67ffffffffffffffff8111610ea15760051b60200190565b9061114b82611129565b6111586040519182610eb7565b8281528092611169601f1991611129565b0190602036910137565b60001981146111825760010190565b634e487b7160e01b600052601160045260246000fd5b8051821015610e6f5760209160051b010190565b6000805460408051633b6e38df60e11b815260209793966004969295919492939192916001600160a01b03908a9087908a90829085165afa958615611463578996611430575b506111fc83611141565b94898095611208610ff6565b50898d60448d868860055416945197889687958694630cd5286d60e41b8652850152816024850152848401378181018301879052601f01601f191681010301915afa8a9181611414575b50611295575050505050505080519384019184831067ffffffffffffffff84111761128257505280825236813790565b634e487b7160e01b845260419052602483fd5b9680949895999b9392918b6112c8989c99916002541691015190825180809a819463524f388960e01b83528b83016110ac565b03915afa95861561140a578b966113ea575b505b898110806113e1575b1561139f578351630f77ffbd60e01b81528581018281526001600160801b03881660208201528890829081906040010381305afa8c9181611364575b50611335575061133090611173565b6112dc565b611343575b61133090611173565b9661135c8189611356611330948d611198565b52611173565b97905061133a565b9091508881813d8311611398575b61137c8183610eb7565b810103126113945761138d90610ed9565b9038611321565b8c80fd5b503d611372565b50509650505050509290926113b381611141565b915b8181106113c3575090925050565b806113d16113dc9287611198565b516113568286611198565b6113b5565b508188106112e5565b611402919650843d8611610896576108868183610eb7565b5094386112da565b84513d8d823e3d90fd5b6114299192503d808d833e6108bc8183610eb7565b9038611252565b9095508981813d831161145c575b6114488183610eb7565b81010312611458575194386111f2565b8880fd5b503d61143e565b87513d8b823e3d90fd5b919060018060a01b0360009181835416602484604092835192838092634f6675af60e11b82528b60048301525afa801561173c578591869161174f575b501561174657846001948554169760248451809a819363515e930f60e01b835260048301525afa801561173c5785869387926115b0575b508597985086975b6114f9575b505050505050905090565b80518810156115ab5761150c8883611198565b5115611573578215611554576001600160801b038061152b8a87611198565b511690861611155b61154957611542869798611173565b97966114e9565b505050505091505090565b6001600160801b03806115678a87611198565b51169086161015611533565b821561158c576001600160801b03806115678a87611198565b6001600160801b038061159f8a87611198565b51169086161115611533565b6114ee565b935050503d8086893e6115c38189610eb7565b8701966060818903126117385780519767ffffffffffffffff988981116117345782019080601f83011215611734578151996115fe8b611129565b9261160b87519485610eb7565b8b845260209b8c8086019160051b8301019184831161173057908d809201905b83821061172157505090508401518181116117065784019382601f860112156117065784519461165a86611129565b9561166789519788610eb7565b8087528d8088019160051b8301019185831161139457908e809201905b83821061170a575050505086810151918211611706570181601f82011215611458578051906116be6116b583611129565b97519788610eb7565b8187528b8088019260051b820101928311611706578b01905b8282106116ef575098995089985091939150856114e1565b8b80916116fb84610ed9565b8152019101906116d7565b8980fd5b82809161171684610f6f565b815201910190611684565b8151815290820190820161162b565b8b80fd5b8780fd5b8580fd5b82513d87823e3d90fd5b50929450505050565b905061176591503d8087833e6108f18183610eb7565b94509250505090386114aa56fea2646970667358221220f67ecb400217d140345dc5b0d18ac2cd30c283d6d1d01a19c542c07c69fc355d64736f6c63430008140033",
  "linkReferences": {},
  "deployedLinkReferences": {}
}