{
  "_format": "hh-sol-artifact-1",
  "contractName": "InsuranceFund",
  "sourceName": "contracts/InsuranceFund.sol",
  "abi": [
    {
      "inputs": [
        {
          "internalType": "address",
          "name": "_securityModule",
          "type": "address"
        }
      ],
      "stateMutability": "nonpayable",
      "type": "constructor"
    },
    {
      "inputs": [],
      "name": "InsufficientFunds",
      "type": "error"
    },
    {
      "inputs": [],
      "name": "InvalidAddress",
      "type": "error"
    },
    {
      "inputs": [],
      "name": "TransferFailed",
      "type": "error"
    },
    {
      "inputs": [],
      "name": "Unauthorized",
      "type": "error"
    },
    {
      "anonymous": false,
      "inputs": [
        {
          "indexed": true,
          "internalType": "address",
          "name": "user",
          "type": "address"
        }
      ],
      "name": "AuthorizedUserAdded",
      "type": "event"
    },
    {
      "anonymous": false,
      "inputs": [
        {
          "indexed": true,
          "internalType": "address",
          "name": "user",
          "type": "address"
        }
      ],
      "name": "AuthorizedUserRemoved",
      "type": "event"
    },
    {
      "anonymous": false,
      "inputs": [
        {
          "indexed": true,
          "internalType": "address",
          "name": "contributor",
          "type": "address"
        },
        {
          "indexed": false,
          "internalType": "uint256",
          "name": "amount",
          "type": "uint256"
        },
        {
          "indexed": false,
          "internalType": "string",
          "name": "source",
          "type": "string"
        }
      ],
      "name": "FundsAdded",
      "type": "event"
    },
    {
      "anonymous": false,
      "inputs": [
        {
          "indexed": false,
          "internalType": "uint256",
          "name": "amount",
          "type": "uint256"
        },
        {
          "indexed": false,
          "internalType": "string",
          "name": "reason",
          "type": "string"
        }
      ],
      "name": "FundsUsed",
      "type": "event"
    },
    {
      "anonymous": false,
      "inputs": [
        {
          "indexed": true,
          "internalType": "address",
          "name": "receiver",
          "type": "address"
        },
        {
          "indexed": false,
          "internalType": "uint256",
          "name": "amount",
          "type": "uint256"
        }
      ],
      "name": "FundsWithdrawn",
      "type": "event"
    },
    {
      "anonymous": false,
      "inputs": [
        {
          "indexed": true,
          "internalType": "address",
          "name": "previousOwner",
          "type": "address"
        },
        {
          "indexed": true,
          "internalType": "address",
          "name": "newOwner",
          "type": "address"
        }
      ],
      "name": "OwnershipTransferred",
      "type": "event"
    },
    {
      "inputs": [
        {
          "internalType": "address",
          "name": "user",
          "type": "address"
        }
      ],
      "name": "addAuthorizedUser",
      "outputs": [],
      "stateMutability": "nonpayable",
      "type": "function"
    },
    {
      "inputs": [],
      "name": "addFunds",
      "outputs": [],
      "stateMutability": "payable",
      "type": "function"
    },
    {
      "inputs": [],
      "name": "addFundsFromFees",
      "outputs": [],
      "stateMutability": "payable",
      "type": "function"
    },
    {
      "inputs": [],
      "name": "addFundsFromLiquidation",
      "outputs": [],
      "stateMutability": "payable",
      "type": "function"
    },
    {
      "inputs": [
        {
          "internalType": "address",
          "name": "",
          "type": "address"
        }
      ],
      "name": "authorizedUsers",
      "outputs": [
        {
          "internalType": "bool",
          "name": "",
          "type": "bool"
        }
      ],
      "stateMutability": "view",
      "type": "function"
    },
    {
      "inputs": [],
      "name": "availableFunds",
      "outputs": [
        {
          "internalType": "uint256",
          "name": "",
          "type": "uint256"
        }
      ],
      "stateMutability": "view",
      "type": "function"
    },
    {
      "inputs": [],
      "name": "getFundStatistics",
      "outputs": [
        {
          "internalType": "uint256",
          "name": "_totalFunds",
          "type": "uint256"
        },
        {
          "internalType": "uint256",
          "name": "_usedFunds",
          "type": "uint256"
        },
        {
          "internalType": "uint256",
          "name": "_availableFunds",
          "type": "uint256"
        },
        {
          "internalType": "uint256",
          "name": "_totalLiquidationContributions",
          "type": "uint256"
        },
        {
          "internalType": "uint256",
          "name": "_totalFeeContributions",
          "type": "uint256"
        },
        {
          "internalType": "uint256",
          "name": "_totalDirectContributions",
          "type": "uint256"
        }
      ],
      "stateMutability": "view",
      "type": "function"
    },
    {
      "inputs": [],
      "name": "getUsageStatistics",
      "outputs": [
        {
          "internalType": "uint256",
          "name": "_totalUsedForLiquidations",
          "type": "uint256"
        },
        {
          "internalType": "uint256",
          "name": "_totalUsedForEmergencies",
          "type": "uint256"
        }
      ],
      "stateMutability": "view",
      "type": "function"
    },
    {
      "inputs": [],
      "name": "owner",
      "outputs": [
        {
          "internalType": "address",
          "name": "",
          "type": "address"
        }
      ],
      "stateMutability": "view",
      "type": "function"
    },
    {
      "inputs": [
        {
          "internalType": "address",
          "name": "user",
          "type": "address"
        }
      ],
      "name": "removeAuthorizedUser",
      "outputs": [],
      "stateMutability": "nonpayable",
      "type": "function"
    },
    {
      "inputs": [],
      "name": "securityModule",
      "outputs": [
        {
          "internalType": "contract SecurityModule",
          "name": "",
          "type": "address"
        }
      ],
      "stateMutability": "view",
      "type": "function"
    },
    {
      "inputs": [],
      "name": "totalDirectContributions",
      "outputs": [
        {
          "internalType": "uint256",
          "name": "",
          "type": "uint256"
        }
      ],
      "stateMutability": "view",
      "type": "function"
    },
    {
      "inputs": [],
      "name": "totalFeeContributions",
      "outputs": [
        {
          "internalType": "uint256",
          "name": "",
          "type": "uint256"
        }
      ],
      "stateMutability": "view",
      "type": "function"
    },
    {
      "inputs": [],
      "name": "totalFunds",
      "outputs": [
        {
          "internalType": "uint256",
          "name": "",
          "type": "uint256"
        }
      ],
      "stateMutability": "view",
      "type": "function"
    },
    {
      "inputs": [],
      "name": "totalLiquidationContributions",
      "outputs": [
        {
          "internalType": "uint256",
          "name": "",
          "type": "uint256"
        }
      ],
      "stateMutability": "view",
      "type": "function"
    },
    {
      "inputs": [],
      "name": "totalUsedForEmergencies",
      "outputs": [
        {
          "internalType": "uint256",
          "name": "",
          "type": "uint256"
        }
      ],
      "stateMutability": "view",
      "type": "function"
    },
    {
      "inputs": [],
      "name": "totalUsedForLiquidations",
      "outputs": [
        {
          "internalType": "uint256",
          "name": "",
          "type": "uint256"
        }
      ],
      "stateMutability": "view",
      "type": "function"
    },
    {
      "inputs": [
        {
          "internalType": "address",
          "name": "newOwner",
          "type": "address"
        }
      ],
      "name": "transferOwnership",
      "outputs": [],
      "stateMutability": "nonpayable",
      "type": "function"
    },
    {
      "inputs": [
        {
          "internalType": "uint256",
          "name": "amount",
          "type": "uint256"
        },
        {
          "internalType": "string",
          "name": "reason",
          "type": "string"
        }
      ],
      "name": "useFunds",
      "outputs": [],
      "stateMutability": "nonpayable",
      "type": "function"
    },
    {
      "inputs": [],
      "name": "usedFunds",
      "outputs": [
        {
          "internalType": "uint256",
          "name": "",
          "type": "uint256"
        }
      ],
      "stateMutability": "view",
      "type": "function"
    },
    {
      "inputs": [
        {
          "internalType": "uint256",
          "name": "amount",
          "type": "uint256"
        },
        {
          "internalType": "address",
          "name": "receiver",
          "type": "address"
        }
      ],
      "name": "withdrawFunds",
      "outputs": [],
      "stateMutability": "nonpayable",
      "type": "function"
    },
    {
      "stateMutability": "payable",
      "type": "receive"
    }
  ],
  "bytecode": "0x6080346100ab57601f610d4d38819003918201601f19168301916001600160401b038311848410176100b0578084926020946040528339810103126100ab57516001600160a01b038116908190036100ab5780156100995760018060a01b03193381600054161760005560035416176003553360005260096020526040600020600160ff19825416179055604051610c8690816100c78239f35b60405163e6c4247b60e01b8152600490fd5b600080fd5b634e487b7160e01b600052604160045260246000fdfe60806040818152600480361015610080575b509050361561001f57600080fd5b61002b34600154610b41565b60015561003a34600654610b41565b60065551600080516020610c3183398151915233918061007b34826080918152604060208201526006604082015265191a5c9958dd60d21b60608201520190565b0390a2005b600092833560e01c90816307b9075f14610b0a5750806315a01bc114610aeb578063177d2a7414610a5b5780631828983a14610a1d578063380ef3fe146109f45780633a0bcd161461077f5780633a48e198146106ee57806346fcff4c146106c357806358dab32a1461061e578063695199b2146105ff578063730a582a146105e0578063744bfe611461043857806389fabc80146103c15780638da5cb5b146103995780638f4eaf161461037a578063968ed60014610357578063974926881461033a578063a26759cb14610278578063d16f624414610228578063e641cb50146102005763f2fde38b0361001157346101fc5760203660031901126101fc57610189610b26565b8354916001600160a01b0380841692338490036101ed57169384156101e057505082907f8be0079c531659141344cd1fd0a4f28419497f9722a3daafe3b4186f6b6457e08580a36001600160a01b03191617815580f35b5163e6c4247b60e01b8152fd5b85516282b42960e81b81528390fd5b8280fd5b8284346102255780600319360112610225575060075460085482519182526020820152f35b80fd5b50346101fc57826003193601126101fc5760c09250600154916002549161024f8385610c23565b9054906005549260065494815196875260208701528501526060840152608083015260a0820152f35b50826003193601126101fc5734156102ed575061029734600154610b41565b6001556102a634600654610b41565b60065551600080516020610c318339815191523391806102e734826080918152604060208201526006604082015265191a5c9958dd60d21b60608201520190565b0390a280f35b905162461bcd60e51b81529081906103369082016020808252808201527f416d6f756e74206d7573742062652067726561746572207468616e207a65726f604082015260600190565b0390fd5b50346101fc57826003193601126101fc5760209250549051908152f35b5050346103765781600319360112610376576020906001549051908152f35b5080fd5b5050346103765781600319360112610376576020906007549051908152f35b505034610376578160031936011261037657905490516001600160a01b039091168152602090f35b50346101fc5760203660031901126101fc576103db610b26565b83546001600160a01b0392908316330361042b5750168083526009602052908220805460ff191690557f0bece08ee0f89f13f32c18b4d128aa51d03a53f8543317a83a924d5785f781e08280a280f35b83516282b42960e81b8152fd5b5090346101fc57806003193601126101fc576024356001600160a01b03818116938035939290918582036105dc578087541633036105cd576020839160035416855192838092635c975abb60e01b82525afa9081156105c3578791610595575b5061055957841561054a57600154846104b360025483610c23565b1061053a5786808681946104c8828496610c23565b6001555af13d15610535573d6104dd81610bd0565b906104ea85519283610b96565b81528660203d92013e5b1561052757507feaff4b37086828766ad3268786972c0cd24259d4c87a80f9d3963a3c3d999b0d9160209151908152a280f35b90516312171d8360e31b8152fd5b6104f4565b835163356680b760e01b81528390fd5b50905163e6c4247b60e01b8152fd5b50610336915191829162461bcd60e51b8352820160609060208152600d60208201526c14de5cdd195b481c185d5cd959609a1b60408201520190565b6105b6915060203d81116105bc575b6105ae8183610b96565b810190610bb8565b38610498565b503d6105a4565b84513d89823e3d90fd5b83516282b42960e81b81528390fd5b8680fd5b5050346103765781600319360112610376576020906005549051908152f35b5050346103765781600319360112610376576020906006549051908152f35b50826003193601126101fc57338352600960205260ff828420541615806106af575b6106a25734156102ed5761065634600154610b41565b600155610664348254610b41565b9055600b8151913483528060208401528201526a3634b8bab4b230ba34b7b760a91b6060820152600080516020610c3183398151915260803392a280f35b90516282b42960e81b8152fd5b5082546001600160a01b0316331415610640565b5050346103765781600319360112610376576020906106e760015460025490610c23565b9051908152f35b50826003193601126101fc57338352600960205260ff8284205416158061076b575b6106a25734156102ed5761072634600154610b41565b60015561073534600554610b41565b600555815191348352806020840152820152636665657360e01b6060820152600080516020610c3183398151915260803392a280f35b5082546001600160a01b0316331415610710565b5090346101fc57806003193601126101fc5781359060243567ffffffffffffffff918282116109f057366023830112156109f057818501359283116109f057602482019160248436920101116109f0573386526020946009865260ff828820541615806109dc575b6106a2576003548251635c975abb60e01b81529087908290849082906001600160a01b03165afa9081156109d25788916109b5575b5061097a5760015490856108336002548094610c23565b1061096c575092849281809361086d7f1f6fba4c4fff920eec69ccdd1889beffd2c18a6c4eb27763d2364058c55bcc2e9998606098610b41565b6002557fa84eeb19a78840384f41a4e6668a5cb48e920c562583aaef18cba3369ac852c961089c368486610bec565b8981519101206a3634b8bab4b230ba34b7b760a91b8a84516108bd81610b64565b600b8152015203610902576108d486600754610b41565b6007555b8080519889978852870152850152848401378181018301869052601f01601f19168101030190a180f35b7fe5a31645935587b4a5c783b64ab89f9fb6558bf985184df9e5bf815f41c7f65b61092e368486610bec565b89815191012068656d657267656e637960b81b8a845161094d81610b64565b600981520152036108d85761096486600854610b41565b6008556108d8565b825163356680b760e01b8152fd5b610336915191829162461bcd60e51b8352820160609060208152600d60208201526c14de5cdd195b481c185d5cd959609a1b60408201520190565b6109cc9150873d89116105bc576105ae8183610b96565b3861081c565b83513d8a823e3d90fd5b5086546001600160a01b03163314156107e7565b8580fd5b50503461037657816003193601126103765760035490516001600160a01b039091168152602090f35b5050346103765760203660031901126103765760209160ff9082906001600160a01b03610a48610b26565b1681526009855220541690519015158152f35b5090346101fc5760203660031901126101fc57610a76610b26565b83546001600160a01b03919082163303610add5716918215610acf575081835260096020528220805460ff191660011790557f7e07c71a6d7714652e08d641a843dff01e823c8eeed08945be844015fe3353938280a280f35b905163e6c4247b60e01b8152fd5b5050516282b42960e81b8152fd5b5050346103765781600319360112610376576020906002549051908152f35b8490346103765781600319360112610376576020906008548152f35b600435906001600160a01b0382168203610b3c57565b600080fd5b91908201809211610b4e57565b634e487b7160e01b600052601160045260246000fd5b6040810190811067ffffffffffffffff821117610b8057604052565b634e487b7160e01b600052604160045260246000fd5b90601f8019910116810190811067ffffffffffffffff821117610b8057604052565b90816020910312610b3c57518015158103610b3c5790565b67ffffffffffffffff8111610b8057601f01601f191660200190565b929192610bf882610bd0565b91610c066040519384610b96565b829481845281830111610b3c578281602093846000960137010152565b91908203918211610b4e5756fee36db6d842c17f2b1afa5dc0bb924328dfdf47e61c97bddc2ab30ffd997124a5a2646970667358221220798ac743423ec599ed852e5fd718affbaa8b563976f0ebcada5dcd9a57d72ee864736f6c63430008140033",
  "linkReferences": {},
  "deployedLinkReferences": {}
}